{
  "contractName": "DelegateApprovals",
  "abi": [
    {
      "inputs": [
        {
          "internalType": "address",
          "name": "_owner",
          "type": "address"
        },
        {
          "internalType": "contract EternalStorage",
          "name": "_eternalStorage",
          "type": "address"
        }
      ],
      "payable": false,
      "stateMutability": "nonpayable",
      "type": "constructor"
    },
    {
      "anonymous": false,
      "inputs": [
        {
          "indexed": true,
          "internalType": "address",
          "name": "authoriser",
          "type": "address"
        },
        {
          "indexed": false,
          "internalType": "address",
          "name": "delegate",
          "type": "address"
        },
        {
          "indexed": false,
          "internalType": "bytes32",
          "name": "action",
          "type": "bytes32"
        }
      ],
      "name": "Approval",
      "type": "event"
    },
    {
      "anonymous": false,
      "inputs": [
        {
          "indexed": false,
          "internalType": "address",
          "name": "newEternalStorage",
          "type": "address"
        }
      ],
      "name": "EternalStorageUpdated",
      "type": "event"
    },
    {
      "anonymous": false,
      "inputs": [
        {
          "indexed": false,
          "internalType": "address",
          "name": "oldOwner",
          "type": "address"
        },
        {
          "indexed": false,
          "internalType": "address",
          "name": "newOwner",
          "type": "address"
        }
      ],
      "name": "OwnerChanged",
      "type": "event"
    },
    {
      "anonymous": false,
      "inputs": [
        {
          "indexed": false,
          "internalType": "address",
          "name": "newOwner",
          "type": "address"
        }
      ],
      "name": "OwnerNominated",
      "type": "event"
    },
    {
      "anonymous": false,
      "inputs": [
        {
          "indexed": true,
          "internalType": "address",
          "name": "authoriser",
          "type": "address"
        },
        {
          "indexed": false,
          "internalType": "address",
          "name": "delegate",
          "type": "address"
        },
        {
          "indexed": false,
          "internalType": "bytes32",
          "name": "action",
          "type": "bytes32"
        }
      ],
      "name": "WithdrawApproval",
      "type": "event"
    },
    {
      "constant": true,
      "inputs": [],
      "name": "APPROVE_ALL",
      "outputs": [
        {
          "internalType": "bytes32",
          "name": "",
          "type": "bytes32"
        }
      ],
      "payable": false,
      "stateMutability": "view",
      "type": "function"
    },
    {
      "constant": true,
      "inputs": [],
      "name": "BURN_FOR_ADDRESS",
      "outputs": [
        {
          "internalType": "bytes32",
          "name": "",
          "type": "bytes32"
        }
      ],
      "payable": false,
      "stateMutability": "view",
      "type": "function"
    },
    {
      "constant": true,
      "inputs": [],
      "name": "CLAIM_FOR_ADDRESS",
      "outputs": [
        {
          "internalType": "bytes32",
          "name": "",
          "type": "bytes32"
        }
      ],
      "payable": false,
      "stateMutability": "view",
      "type": "function"
    },
    {
      "constant": true,
      "inputs": [],
      "name": "EXCHANGE_FOR_ADDRESS",
      "outputs": [
        {
          "internalType": "bytes32",
          "name": "",
          "type": "bytes32"
        }
      ],
      "payable": false,
      "stateMutability": "view",
      "type": "function"
    },
    {
      "constant": true,
      "inputs": [],
      "name": "ISSUE_FOR_ADDRESS",
      "outputs": [
        {
          "internalType": "bytes32",
          "name": "",
          "type": "bytes32"
        }
      ],
      "payable": false,
      "stateMutability": "view",
      "type": "function"
    },
    {
      "constant": false,
      "inputs": [],
      "name": "acceptOwnership",
      "outputs": [],
      "payable": false,
      "stateMutability": "nonpayable",
      "type": "function"
    },
    {
      "constant": true,
      "inputs": [],
      "name": "eternalStorage",
      "outputs": [
        {
          "internalType": "contract EternalStorage",
          "name": "",
          "type": "address"
        }
      ],
      "payable": false,
      "stateMutability": "view",
      "type": "function"
    },
    {
      "constant": false,
      "inputs": [
        {
          "internalType": "address",
          "name": "_owner",
          "type": "address"
        }
      ],
      "name": "nominateNewOwner",
      "outputs": [],
      "payable": false,
      "stateMutability": "nonpayable",
      "type": "function"
    },
    {
      "constant": true,
      "inputs": [],
      "name": "nominatedOwner",
      "outputs": [
        {
          "internalType": "address",
          "name": "",
          "type": "address"
        }
      ],
      "payable": false,
      "stateMutability": "view",
      "type": "function"
    },
    {
      "constant": true,
      "inputs": [],
      "name": "owner",
      "outputs": [
        {
          "internalType": "address",
          "name": "",
          "type": "address"
        }
      ],
      "payable": false,
      "stateMutability": "view",
      "type": "function"
    },
    {
      "constant": true,
      "inputs": [
        {
          "internalType": "address",
          "name": "authoriser",
          "type": "address"
        },
        {
          "internalType": "address",
          "name": "delegate",
          "type": "address"
        }
      ],
      "name": "canBurnFor",
      "outputs": [
        {
          "internalType": "bool",
          "name": "",
          "type": "bool"
        }
      ],
      "payable": false,
      "stateMutability": "view",
      "type": "function"
    },
    {
      "constant": true,
      "inputs": [
        {
          "internalType": "address",
          "name": "authoriser",
          "type": "address"
        },
        {
          "internalType": "address",
          "name": "delegate",
          "type": "address"
        }
      ],
      "name": "canIssueFor",
      "outputs": [
        {
          "internalType": "bool",
          "name": "",
          "type": "bool"
        }
      ],
      "payable": false,
      "stateMutability": "view",
      "type": "function"
    },
    {
      "constant": true,
      "inputs": [
        {
          "internalType": "address",
          "name": "authoriser",
          "type": "address"
        },
        {
          "internalType": "address",
          "name": "delegate",
          "type": "address"
        }
      ],
      "name": "canClaimFor",
      "outputs": [
        {
          "internalType": "bool",
          "name": "",
          "type": "bool"
        }
      ],
      "payable": false,
      "stateMutability": "view",
      "type": "function"
    },
    {
      "constant": true,
      "inputs": [
        {
          "internalType": "address",
          "name": "authoriser",
          "type": "address"
        },
        {
          "internalType": "address",
          "name": "delegate",
          "type": "address"
        }
      ],
      "name": "canExchangeFor",
      "outputs": [
        {
          "internalType": "bool",
          "name": "",
          "type": "bool"
        }
      ],
      "payable": false,
      "stateMutability": "view",
      "type": "function"
    },
    {
      "constant": true,
      "inputs": [
        {
          "internalType": "address",
          "name": "authoriser",
          "type": "address"
        },
        {
          "internalType": "address",
          "name": "delegate",
          "type": "address"
        }
      ],
      "name": "approvedAll",
      "outputs": [
        {
          "internalType": "bool",
          "name": "",
          "type": "bool"
        }
      ],
      "payable": false,
      "stateMutability": "view",
      "type": "function"
    },
    {
      "constant": false,
      "inputs": [
        {
          "internalType": "address",
          "name": "delegate",
          "type": "address"
        }
      ],
      "name": "approveAllDelegatePowers",
      "outputs": [],
      "payable": false,
      "stateMutability": "nonpayable",
      "type": "function"
    },
    {
      "constant": false,
      "inputs": [
        {
          "internalType": "address",
          "name": "delegate",
          "type": "address"
        }
      ],
      "name": "removeAllDelegatePowers",
      "outputs": [],
      "payable": false,
      "stateMutability": "nonpayable",
      "type": "function"
    },
    {
      "constant": false,
      "inputs": [
        {
          "internalType": "address",
          "name": "delegate",
          "type": "address"
        }
      ],
      "name": "approveBurnOnBehalf",
      "outputs": [],
      "payable": false,
      "stateMutability": "nonpayable",
      "type": "function"
    },
    {
      "constant": false,
      "inputs": [
        {
          "internalType": "address",
          "name": "delegate",
          "type": "address"
        }
      ],
      "name": "removeBurnOnBehalf",
      "outputs": [],
      "payable": false,
      "stateMutability": "nonpayable",
      "type": "function"
    },
    {
      "constant": false,
      "inputs": [
        {
          "internalType": "address",
          "name": "delegate",
          "type": "address"
        }
      ],
      "name": "approveIssueOnBehalf",
      "outputs": [],
      "payable": false,
      "stateMutability": "nonpayable",
      "type": "function"
    },
    {
      "constant": false,
      "inputs": [
        {
          "internalType": "address",
          "name": "delegate",
          "type": "address"
        }
      ],
      "name": "removeIssueOnBehalf",
      "outputs": [],
      "payable": false,
      "stateMutability": "nonpayable",
      "type": "function"
    },
    {
      "constant": false,
      "inputs": [
        {
          "internalType": "address",
          "name": "delegate",
          "type": "address"
        }
      ],
      "name": "approveClaimOnBehalf",
      "outputs": [],
      "payable": false,
      "stateMutability": "nonpayable",
      "type": "function"
    },
    {
      "constant": false,
      "inputs": [
        {
          "internalType": "address",
          "name": "delegate",
          "type": "address"
        }
      ],
      "name": "removeClaimOnBehalf",
      "outputs": [],
      "payable": false,
      "stateMutability": "nonpayable",
      "type": "function"
    },
    {
      "constant": false,
      "inputs": [
        {
          "internalType": "address",
          "name": "delegate",
          "type": "address"
        }
      ],
      "name": "approveExchangeOnBehalf",
      "outputs": [],
      "payable": false,
      "stateMutability": "nonpayable",
      "type": "function"
    },
    {
      "constant": false,
      "inputs": [
        {
          "internalType": "address",
          "name": "delegate",
          "type": "address"
        }
      ],
      "name": "removeExchangeOnBehalf",
      "outputs": [],
      "payable": false,
      "stateMutability": "nonpayable",
      "type": "function"
    },
    {
      "constant": false,
      "inputs": [
        {
          "internalType": "contract EternalStorage",
          "name": "_eternalStorage",
          "type": "address"
        }
      ],
      "name": "setEternalStorage",
      "outputs": [],
      "payable": false,
      "stateMutability": "nonpayable",
      "type": "function"
    }
  ],
  "bytecode": "0x60806040526040518060a001604052807f417070726f7665416c6c0000000000000000000000000000000000000000000081526020017f4275726e466f724164647265737300000000000000000000000000000000000081526020017f4973737565466f7241646472657373000000000000000000000000000000000081526020017f436c61696d466f7241646472657373000000000000000000000000000000000081526020017f45786368616e6765466f724164647265737300000000000000000000000000008152506002906005620000dd929190620002f3565b50348015620000eb57600080fd5b5060405162001c1a38038062001c1a833981810160405260408110156200011157600080fd5b81019080805190602001909291908051906020019092919050505081600073ffffffffffffffffffffffffffffffffffffffff168173ffffffffffffffffffffffffffffffffffffffff161415620001d1576040517f08c379a00000000000000000000000000000000000000000000000000000000081526004018080602001828103825260198152602001807f4f776e657220616464726573732063616e6e6f7420626520300000000000000081525060200191505060405180910390fd5b806000806101000a81548173ffffffffffffffffffffffffffffffffffffffff021916908373ffffffffffffffffffffffffffffffffffffffff1602179055507fb532073b38c83145e3e5135377a08bf9aab55bc0fd7c1179cd4fb995d2a5159c600082604051808373ffffffffffffffffffffffffffffffffffffffff1673ffffffffffffffffffffffffffffffffffffffff1681526020018273ffffffffffffffffffffffffffffffffffffffff1673ffffffffffffffffffffffffffffffffffffffff1681526020019250505060405180910390a15080600760006101000a81548173ffffffffffffffffffffffffffffffffffffffff021916908373ffffffffffffffffffffffffffffffffffffffff160217905550505062000360565b826005810192821562000325579160200282015b828111156200032457825182559160200191906001019062000307565b5b50905062000334919062000338565b5090565b6200035d91905b80821115620003595760008160009055506001016200033f565b5090565b90565b6118aa80620003706000396000f3fe608060405234801561001057600080fd5b506004361061018e5760003560e01c80638da5cb5b116100de578063b5bb561911610097578063c5e17ab011610071578063c5e17ab0146107d7578063d8eeb7c1146107f5578063e32b3f5214610813578063faf431bb146108315761018e565b8063b5bb56191461070b578063b9156efa1461074f578063bc87acbf146107935761018e565b80638da5cb5b1461055557806398ff9c541461059f5780639c79ce35146105e95780639cbc2ebe1461062d5780639f61d3361461064b578063b42e0f151461068f5761018e565b8063447fbc631161014b5780636c8bc9fe116101255780636c8bc9fe146104475780636f95200b1461048b57806379ba5097146104cf5780637d3f0ba2146104d95761018e565b8063447fbc631461037557806353a47bb7146103b957806359cec3d6146104035761018e565b806304872617146101935780631627540c1461020f57806321f4ae57146102535780632c70aecf146102cf5780634180e5b5146102ed578063431ce54014610331575b600080fd5b6101f5600480360360408110156101a957600080fd5b81019080803573ffffffffffffffffffffffffffffffffffffffff169060200190929190803573ffffffffffffffffffffffffffffffffffffffff1690602001909291905050506108ad565b604051808215151515815260200191505060405180910390f35b6102516004803603602081101561022557600080fd5b81019080803573ffffffffffffffffffffffffffffffffffffffff1690602001909291905050506108e2565b005b6102b56004803603604081101561026957600080fd5b81019080803573ffffffffffffffffffffffffffffffffffffffff169060200190929190803573ffffffffffffffffffffffffffffffffffffffff169060200190929190505050610a2e565b604051808215151515815260200191505060405180910390f35b6102d7610a63565b6040518082815260200191505060405180910390f35b61032f6004803603602081101561030357600080fd5b81019080803573ffffffffffffffffffffffffffffffffffffffff169060200190929190505050610a87565b005b6103736004803603602081101561034757600080fd5b81019080803573ffffffffffffffffffffffffffffffffffffffff169060200190929190505050610ab5565b005b6103b76004803603602081101561038b57600080fd5b81019080803573ffffffffffffffffffffffffffffffffffffffff169060200190929190505050610ae3565b005b6103c1610b11565b604051808273ffffffffffffffffffffffffffffffffffffffff1673ffffffffffffffffffffffffffffffffffffffff16815260200191505060405180910390f35b6104456004803603602081101561041957600080fd5b81019080803573ffffffffffffffffffffffffffffffffffffffff169060200190929190505050610b37565b005b6104896004803603602081101561045d57600080fd5b81019080803573ffffffffffffffffffffffffffffffffffffffff169060200190929190505050610b65565b005b6104cd600480360360208110156104a157600080fd5b81019080803573ffffffffffffffffffffffffffffffffffffffff169060200190929190505050610b93565b005b6104d7610bcc565b005b61053b600480360360408110156104ef57600080fd5b81019080803573ffffffffffffffffffffffffffffffffffffffff169060200190929190803573ffffffffffffffffffffffffffffffffffffffff169060200190929190505050610df2565b604051808215151515815260200191505060405180910390f35b61055d610e27565b604051808273ffffffffffffffffffffffffffffffffffffffff1673ffffffffffffffffffffffffffffffffffffffff16815260200191505060405180910390f35b6105a7610e4c565b604051808273ffffffffffffffffffffffffffffffffffffffff1673ffffffffffffffffffffffffffffffffffffffff16815260200191505060405180910390f35b61062b600480360360208110156105ff57600080fd5b81019080803573ffffffffffffffffffffffffffffffffffffffff169060200190929190505050610e72565b005b610635610ea0565b6040518082815260200191505060405180910390f35b61068d6004803603602081101561066157600080fd5b81019080803573ffffffffffffffffffffffffffffffffffffffff169060200190929190505050610ec4565b005b6106f1600480360360408110156106a557600080fd5b81019080803573ffffffffffffffffffffffffffffffffffffffff169060200190929190803573ffffffffffffffffffffffffffffffffffffffff169060200190929190505050610ef2565b604051808215151515815260200191505060405180910390f35b61074d6004803603602081101561072157600080fd5b81019080803573ffffffffffffffffffffffffffffffffffffffff169060200190929190505050610fd4565b005b6107916004803603602081101561076557600080fd5b81019080803573ffffffffffffffffffffffffffffffffffffffff1690602001909291905050506111c8565b005b6107d5600480360360208110156107a957600080fd5b81019080803573ffffffffffffffffffffffffffffffffffffffff1690602001909291905050506111f6565b005b6107df611224565b6040518082815260200191505060405180910390f35b6107fd611248565b6040518082815260200191505060405180910390f35b61081b61126c565b6040518082815260200191505060405180910390f35b6108936004803603604081101561084757600080fd5b81019080803573ffffffffffffffffffffffffffffffffffffffff169060200190929190803573ffffffffffffffffffffffffffffffffffffffff169060200190929190505050611290565b604051808215151515815260200191505060405180910390f35b60006108da7f4973737565466f7241646472657373000000000000000000000000000000000084846112c5565b905092915050565b6000809054906101000a900473ffffffffffffffffffffffffffffffffffffffff1673ffffffffffffffffffffffffffffffffffffffff163373ffffffffffffffffffffffffffffffffffffffff1614610987576040517f08c379a000000000000000000000000000000000000000000000000000000000815260040180806020018281038252602f815260200180611847602f913960400191505060405180910390fd5b80600160006101000a81548173ffffffffffffffffffffffffffffffffffffffff021916908373ffffffffffffffffffffffffffffffffffffffff1602179055507f906a1c6bd7e3091ea86693dd029a831c19049ce77f1dce2ce0bab1cacbabce2281604051808273ffffffffffffffffffffffffffffffffffffffff1673ffffffffffffffffffffffffffffffffffffffff16815260200191505060405180910390a150565b6000610a5b7f436c61696d466f7241646472657373000000000000000000000000000000000084846112c5565b905092915050565b7f4973737565466f7241646472657373000000000000000000000000000000000081565b610ab27f436c61696d466f7241646472657373000000000000000000000000000000000033836113a1565b50565b610ae07f4973737565466f72416464726573730000000000000000000000000000000000338361156f565b50565b610b0e7f45786368616e6765466f7241646472657373000000000000000000000000000033836113a1565b50565b600160009054906101000a900473ffffffffffffffffffffffffffffffffffffffff1681565b610b627f4275726e466f7241646472657373000000000000000000000000000000000000338361156f565b50565b610b907f436c61696d466f72416464726573730000000000000000000000000000000000338361156f565b50565b60008090505b6005811015610bc857610bbb60028260058110610bb257fe5b0154338461156f565b8080600101915050610b99565b5050565b600160009054906101000a900473ffffffffffffffffffffffffffffffffffffffff1673ffffffffffffffffffffffffffffffffffffffff163373ffffffffffffffffffffffffffffffffffffffff1614610c72576040517f08c379a00000000000000000000000000000000000000000000000000000000081526004018080602001828103825260358152602001806118126035913960400191505060405180910390fd5b7fb532073b38c83145e3e5135377a08bf9aab55bc0fd7c1179cd4fb995d2a5159c6000809054906101000a900473ffffffffffffffffffffffffffffffffffffffff16600160009054906101000a900473ffffffffffffffffffffffffffffffffffffffff16604051808373ffffffffffffffffffffffffffffffffffffffff1673ffffffffffffffffffffffffffffffffffffffff1681526020018273ffffffffffffffffffffffffffffffffffffffff1673ffffffffffffffffffffffffffffffffffffffff1681526020019250505060405180910390a1600160009054906101000a900473ffffffffffffffffffffffffffffffffffffffff166000806101000a81548173ffffffffffffffffffffffffffffffffffffffff021916908373ffffffffffffffffffffffffffffffffffffffff1602179055506000600160006101000a81548173ffffffffffffffffffffffffffffffffffffffff021916908373ffffffffffffffffffffffffffffffffffffffff160217905550565b6000610e1f7f4275726e466f724164647265737300000000000000000000000000000000000084846112c5565b905092915050565b6000809054906101000a900473ffffffffffffffffffffffffffffffffffffffff1681565b600760009054906101000a900473ffffffffffffffffffffffffffffffffffffffff1681565b610e9d7f4275726e466f724164647265737300000000000000000000000000000000000033836113a1565b50565b7f417070726f7665416c6c0000000000000000000000000000000000000000000081565b610eef7f4973737565466f7241646472657373000000000000000000000000000000000033836113a1565b50565b6000600760009054906101000a900473ffffffffffffffffffffffffffffffffffffffff1673ffffffffffffffffffffffffffffffffffffffff166317e7dd22610f5d7f417070726f7665416c6c00000000000000000000000000000000000000000000868661174b565b6040518263ffffffff1660e01b81526004018082815260200191505060206040518083038186803b158015610f9157600080fd5b505afa158015610fa5573d6000803e3d6000fd5b505050506040513d6020811015610fbb57600080fd5b8101908080519060200190929190505050905092915050565b6000809054906101000a900473ffffffffffffffffffffffffffffffffffffffff1673ffffffffffffffffffffffffffffffffffffffff163373ffffffffffffffffffffffffffffffffffffffff1614611079576040517f08c379a000000000000000000000000000000000000000000000000000000000815260040180806020018281038252602f815260200180611847602f913960400191505060405180910390fd5b600073ffffffffffffffffffffffffffffffffffffffff168173ffffffffffffffffffffffffffffffffffffffff1614156110ff576040517f08c379a00000000000000000000000000000000000000000000000000000000081526004018080602001828103825260268152602001806117ec6026913960400191505060405180910390fd5b80600760006101000a81548173ffffffffffffffffffffffffffffffffffffffff021916908373ffffffffffffffffffffffffffffffffffffffff1602179055507fe3ebe3d58e84fbd094152babb730cf99a14b47f65ed04f35a3bd6356f8161a17600760009054906101000a900473ffffffffffffffffffffffffffffffffffffffff16604051808273ffffffffffffffffffffffffffffffffffffffff1673ffffffffffffffffffffffffffffffffffffffff16815260200191505060405180910390a150565b6111f37f45786368616e6765466f72416464726573730000000000000000000000000000338361156f565b50565b6112217f417070726f7665416c6c0000000000000000000000000000000000000000000033836113a1565b50565b7f436c61696d466f7241646472657373000000000000000000000000000000000081565b7f45786368616e6765466f7241646472657373000000000000000000000000000081565b7f4275726e466f724164647265737300000000000000000000000000000000000081565b60006112bd7f45786368616e6765466f7241646472657373000000000000000000000000000084846112c5565b905092915050565b60006112d18383610ef2565b156112df576001905061139a565b600760009054906101000a900473ffffffffffffffffffffffffffffffffffffffff1673ffffffffffffffffffffffffffffffffffffffff166317e7dd2261132886868661174b565b6040518263ffffffff1660e01b81526004018082815260200191505060206040518083038186803b15801561135c57600080fd5b505afa158015611370573d6000803e3d6000fd5b505050506040513d602081101561138657600080fd5b810190808051906020019092919050505090505b9392505050565b600073ffffffffffffffffffffffffffffffffffffffff168173ffffffffffffffffffffffffffffffffffffffff161415611444576040517f08c379a000000000000000000000000000000000000000000000000000000000815260040180806020018281038252601c8152602001807f43616e27742064656c656761746520746f20616464726573732830290000000081525060200191505060405180910390fd5b600760009054906101000a900473ffffffffffffffffffffffffffffffffffffffff1673ffffffffffffffffffffffffffffffffffffffff16633eba9ed261148d85858561174b565b60016040518363ffffffff1660e01b8152600401808381526020018215151515815260200192505050600060405180830381600087803b1580156114d057600080fd5b505af11580156114e4573d6000803e3d6000fd5b505050508173ffffffffffffffffffffffffffffffffffffffff167f36a9e0c1da9cdc6d8f4bd4cb261f9ad6a45eb1641a557ead7530fbeff9a263368285604051808373ffffffffffffffffffffffffffffffffffffffff1673ffffffffffffffffffffffffffffffffffffffff1681526020018281526020019250505060405180910390a2505050565b600760009054906101000a900473ffffffffffffffffffffffffffffffffffffffff1673ffffffffffffffffffffffffffffffffffffffff166317e7dd226115b885858561174b565b6040518263ffffffff1660e01b81526004018082815260200191505060206040518083038186803b1580156115ec57600080fd5b505afa158015611600573d6000803e3d6000fd5b505050506040513d602081101561161657600080fd5b81019080805190602001909291905050501561174657600760009054906101000a900473ffffffffffffffffffffffffffffffffffffffff1673ffffffffffffffffffffffffffffffffffffffff16633cc1635c61167585858561174b565b6040518263ffffffff1660e01b815260040180828152602001915050600060405180830381600087803b1580156116ab57600080fd5b505af11580156116bf573d6000803e3d6000fd5b505050508173ffffffffffffffffffffffffffffffffffffffff167f7e8dc09322ac82342d9dbfd49eb6497fa7ab69ac444f3763a9b8e16530342f418285604051808373ffffffffffffffffffffffffffffffffffffffff1673ffffffffffffffffffffffffffffffffffffffff1681526020018281526020019250505060405180910390a25b505050565b6000838383604051602001808481526020018373ffffffffffffffffffffffffffffffffffffffff1673ffffffffffffffffffffffffffffffffffffffff1660601b81526014018273ffffffffffffffffffffffffffffffffffffffff1673ffffffffffffffffffffffffffffffffffffffff1660601b81526014019350505050604051602081830303815290604052805190602001209050939250505056fe43616e27742073657420657465726e616c53746f7261676520746f2061646472657373283029596f75206d757374206265206e6f6d696e61746564206265666f726520796f752063616e20616363657074206f776e6572736869704f6e6c792074686520636f6e7472616374206f776e6572206d617920706572666f726d207468697320616374696f6ea265627a7a7231582001882af7d9bc21f0464e80c1fbed4e802d35370e6701a9157cd98b39a871eb3a64736f6c63430005100032",
  "source": "pragma solidity ^0.5.16;\n\n// Inheritance\nimport \"./Owned.sol\";\nimport \"./interfaces/IDelegateApprovals.sol\";\n\n// Internal references\nimport \"./EternalStorage.sol\";\n\n\n// https://docs.synthetix.io/contracts/DelegateApprovals\ncontract DelegateApprovals is Owned, IDelegateApprovals {\n    bytes32 public constant BURN_FOR_ADDRESS = \"BurnForAddress\";\n    bytes32 public constant ISSUE_FOR_ADDRESS = \"IssueForAddress\";\n    bytes32 public constant CLAIM_FOR_ADDRESS = \"ClaimForAddress\";\n    bytes32 public constant EXCHANGE_FOR_ADDRESS = \"ExchangeForAddress\";\n    bytes32 public constant APPROVE_ALL = \"ApproveAll\";\n\n    bytes32[5] private _delegatableFunctions = [\n        APPROVE_ALL,\n        BURN_FOR_ADDRESS,\n        ISSUE_FOR_ADDRESS,\n        CLAIM_FOR_ADDRESS,\n        EXCHANGE_FOR_ADDRESS\n    ];\n\n    /* ========== STATE VARIABLES ========== */\n    EternalStorage public eternalStorage;\n\n    constructor(address _owner, EternalStorage _eternalStorage) public Owned(_owner) {\n        eternalStorage = _eternalStorage;\n    }\n\n    /* ========== VIEWS ========== */\n\n    // Move it to setter and associatedState\n\n    // util to get key based on action name + address of authoriser + address for delegate\n    function _getKey(\n        bytes32 _action,\n        address _authoriser,\n        address _delegate\n    ) internal pure returns (bytes32) {\n        return keccak256(abi.encodePacked(_action, _authoriser, _delegate));\n    }\n\n    // hash of actionName + address of authoriser + address for the delegate\n    function canBurnFor(address authoriser, address delegate) external view returns (bool) {\n        return _checkApproval(BURN_FOR_ADDRESS, authoriser, delegate);\n    }\n\n    function canIssueFor(address authoriser, address delegate) external view returns (bool) {\n        return _checkApproval(ISSUE_FOR_ADDRESS, authoriser, delegate);\n    }\n\n    function canClaimFor(address authoriser, address delegate) external view returns (bool) {\n        return _checkApproval(CLAIM_FOR_ADDRESS, authoriser, delegate);\n    }\n\n    function canExchangeFor(address authoriser, address delegate) external view returns (bool) {\n        return _checkApproval(EXCHANGE_FOR_ADDRESS, authoriser, delegate);\n    }\n\n    function approvedAll(address authoriser, address delegate) public view returns (bool) {\n        return eternalStorage.getBooleanValue(_getKey(APPROVE_ALL, authoriser, delegate));\n    }\n\n    // internal function to check approval based on action\n    // if approved for all actions then will return true\n    // before checking specific approvals\n    function _checkApproval(\n        bytes32 action,\n        address authoriser,\n        address delegate\n    ) internal view returns (bool) {\n        if (approvedAll(authoriser, delegate)) return true;\n\n        return eternalStorage.getBooleanValue(_getKey(action, authoriser, delegate));\n    }\n\n    /* ========== SETTERS ========== */\n\n    // Approve All\n    function approveAllDelegatePowers(address delegate) external {\n        _setApproval(APPROVE_ALL, msg.sender, delegate);\n    }\n\n    // Removes all delegate approvals\n    function removeAllDelegatePowers(address delegate) external {\n        for (uint i = 0; i < _delegatableFunctions.length; i++) {\n            _withdrawApproval(_delegatableFunctions[i], msg.sender, delegate);\n        }\n    }\n\n    // Burn on behalf\n    function approveBurnOnBehalf(address delegate) external {\n        _setApproval(BURN_FOR_ADDRESS, msg.sender, delegate);\n    }\n\n    function removeBurnOnBehalf(address delegate) external {\n        _withdrawApproval(BURN_FOR_ADDRESS, msg.sender, delegate);\n    }\n\n    // Issue on behalf\n    function approveIssueOnBehalf(address delegate) external {\n        _setApproval(ISSUE_FOR_ADDRESS, msg.sender, delegate);\n    }\n\n    function removeIssueOnBehalf(address delegate) external {\n        _withdrawApproval(ISSUE_FOR_ADDRESS, msg.sender, delegate);\n    }\n\n    // Claim on behalf\n    function approveClaimOnBehalf(address delegate) external {\n        _setApproval(CLAIM_FOR_ADDRESS, msg.sender, delegate);\n    }\n\n    function removeClaimOnBehalf(address delegate) external {\n        _withdrawApproval(CLAIM_FOR_ADDRESS, msg.sender, delegate);\n    }\n\n    // Exchange on behalf\n    function approveExchangeOnBehalf(address delegate) external {\n        _setApproval(EXCHANGE_FOR_ADDRESS, msg.sender, delegate);\n    }\n\n    function removeExchangeOnBehalf(address delegate) external {\n        _withdrawApproval(EXCHANGE_FOR_ADDRESS, msg.sender, delegate);\n    }\n\n    function _setApproval(\n        bytes32 action,\n        address authoriser,\n        address delegate\n    ) internal {\n        require(delegate != address(0), \"Can't delegate to address(0)\");\n        eternalStorage.setBooleanValue(_getKey(action, authoriser, delegate), true);\n        emit Approval(authoriser, delegate, action);\n    }\n\n    function _withdrawApproval(\n        bytes32 action,\n        address authoriser,\n        address delegate\n    ) internal {\n        // Check approval is set otherwise skip deleting approval\n        if (eternalStorage.getBooleanValue(_getKey(action, authoriser, delegate))) {\n            eternalStorage.deleteBooleanValue(_getKey(action, authoriser, delegate));\n            emit WithdrawApproval(authoriser, delegate, action);\n        }\n    }\n\n    function setEternalStorage(EternalStorage _eternalStorage) external onlyOwner {\n        require(address(_eternalStorage) != address(0), \"Can't set eternalStorage to address(0)\");\n        eternalStorage = _eternalStorage;\n        emit EternalStorageUpdated(address(eternalStorage));\n    }\n\n    /* ========== EVENTS ========== */\n    event Approval(address indexed authoriser, address delegate, bytes32 action);\n    event WithdrawApproval(address indexed authoriser, address delegate, bytes32 action);\n    event EternalStorageUpdated(address newEternalStorage);\n}\n",
  "sourcePath": "/Users/qizhang/Development/truffle_test2/contracts/DelegateApprovals.sol",
  "compiler": {
    "name": "solc",
    "version": "0.5.16+commit.9c3226ce.Emscripten.clang"
  },
  "schemaVersion": "3.2.1",
  "updatedAt": "2020-07-05T03:58:12.799Z",
  "devdoc": {
    "methods": {}
  },
  "userdoc": {
    "methods": {}
  }
}