{
  "contractName": "Depot",
  "abi": [
    {
      "inputs": [
        {
          "internalType": "address",
          "name": "_owner",
          "type": "address"
        },
        {
          "internalType": "address payable",
          "name": "_fundsWallet",
          "type": "address"
        },
        {
          "internalType": "address",
          "name": "_resolver",
          "type": "address"
        }
      ],
      "payable": false,
      "stateMutability": "nonpayable",
      "type": "constructor"
    },
    {
      "anonymous": false,
      "inputs": [
        {
          "indexed": true,
          "internalType": "address",
          "name": "fromAddress",
          "type": "address"
        },
        {
          "indexed": true,
          "internalType": "address",
          "name": "toAddress",
          "type": "address"
        },
        {
          "indexed": false,
          "internalType": "uint256",
          "name": "fromETHAmount",
          "type": "uint256"
        },
        {
          "indexed": false,
          "internalType": "uint256",
          "name": "toAmount",
          "type": "uint256"
        },
        {
          "indexed": true,
          "internalType": "uint256",
          "name": "depositIndex",
          "type": "uint256"
        }
      ],
      "name": "ClearedDeposit",
      "type": "event"
    },
    {
      "anonymous": false,
      "inputs": [
        {
          "indexed": false,
          "internalType": "string",
          "name": "fromCurrency",
          "type": "string"
        },
        {
          "indexed": false,
          "internalType": "uint256",
          "name": "fromAmount",
          "type": "uint256"
        },
        {
          "indexed": false,
          "internalType": "string",
          "name": "toCurrency",
          "type": "string"
        },
        {
          "indexed": false,
          "internalType": "uint256",
          "name": "toAmount",
          "type": "uint256"
        }
      ],
      "name": "Exchange",
      "type": "event"
    },
    {
      "anonymous": false,
      "inputs": [
        {
          "indexed": false,
          "internalType": "address",
          "name": "newFundsWallet",
          "type": "address"
        }
      ],
      "name": "FundsWalletUpdated",
      "type": "event"
    },
    {
      "anonymous": false,
      "inputs": [
        {
          "indexed": false,
          "internalType": "uint256",
          "name": "amount",
          "type": "uint256"
        }
      ],
      "name": "MaxEthPurchaseUpdated",
      "type": "event"
    },
    {
      "anonymous": false,
      "inputs": [
        {
          "indexed": false,
          "internalType": "uint256",
          "name": "amount",
          "type": "uint256"
        }
      ],
      "name": "MinimumDepositAmountUpdated",
      "type": "event"
    },
    {
      "anonymous": false,
      "inputs": [
        {
          "indexed": true,
          "internalType": "address",
          "name": "receiver",
          "type": "address"
        },
        {
          "indexed": false,
          "internalType": "uint256",
          "name": "amount",
          "type": "uint256"
        }
      ],
      "name": "NonPayableContract",
      "type": "event"
    },
    {
      "anonymous": false,
      "inputs": [
        {
          "indexed": false,
          "internalType": "address",
          "name": "oldOwner",
          "type": "address"
        },
        {
          "indexed": false,
          "internalType": "address",
          "name": "newOwner",
          "type": "address"
        }
      ],
      "name": "OwnerChanged",
      "type": "event"
    },
    {
      "anonymous": false,
      "inputs": [
        {
          "indexed": false,
          "internalType": "address",
          "name": "newOwner",
          "type": "address"
        }
      ],
      "name": "OwnerNominated",
      "type": "event"
    },
    {
      "anonymous": false,
      "inputs": [
        {
          "indexed": false,
          "internalType": "bool",
          "name": "isPaused",
          "type": "bool"
        }
      ],
      "name": "PauseChanged",
      "type": "event"
    },
    {
      "anonymous": false,
      "inputs": [
        {
          "indexed": false,
          "internalType": "address",
          "name": "newBeneficiary",
          "type": "address"
        }
      ],
      "name": "SelfDestructBeneficiaryUpdated",
      "type": "event"
    },
    {
      "anonymous": false,
      "inputs": [
        {
          "indexed": false,
          "internalType": "uint256",
          "name": "selfDestructDelay",
          "type": "uint256"
        }
      ],
      "name": "SelfDestructInitiated",
      "type": "event"
    },
    {
      "anonymous": false,
      "inputs": [],
      "name": "SelfDestructTerminated",
      "type": "event"
    },
    {
      "anonymous": false,
      "inputs": [
        {
          "indexed": false,
          "internalType": "address",
          "name": "beneficiary",
          "type": "address"
        }
      ],
      "name": "SelfDestructed",
      "type": "event"
    },
    {
      "anonymous": false,
      "inputs": [
        {
          "indexed": true,
          "internalType": "address",
          "name": "user",
          "type": "address"
        },
        {
          "indexed": false,
          "internalType": "uint256",
          "name": "amount",
          "type": "uint256"
        },
        {
          "indexed": true,
          "internalType": "uint256",
          "name": "depositIndex",
          "type": "uint256"
        }
      ],
      "name": "SynthDeposit",
      "type": "event"
    },
    {
      "anonymous": false,
      "inputs": [
        {
          "indexed": false,
          "internalType": "address",
          "name": "user",
          "type": "address"
        },
        {
          "indexed": false,
          "internalType": "uint256",
          "name": "amount",
          "type": "uint256"
        },
        {
          "indexed": false,
          "internalType": "uint256",
          "name": "minimum",
          "type": "uint256"
        }
      ],
      "name": "SynthDepositNotAccepted",
      "type": "event"
    },
    {
      "anonymous": false,
      "inputs": [
        {
          "indexed": true,
          "internalType": "address",
          "name": "user",
          "type": "address"
        },
        {
          "indexed": false,
          "internalType": "uint256",
          "name": "amount",
          "type": "uint256"
        },
        {
          "indexed": true,
          "internalType": "uint256",
          "name": "depositIndex",
          "type": "uint256"
        }
      ],
      "name": "SynthDepositRemoved",
      "type": "event"
    },
    {
      "anonymous": false,
      "inputs": [
        {
          "indexed": false,
          "internalType": "address",
          "name": "user",
          "type": "address"
        },
        {
          "indexed": false,
          "internalType": "uint256",
          "name": "amount",
          "type": "uint256"
        }
      ],
      "name": "SynthWithdrawal",
      "type": "event"
    },
    {
      "payable": true,
      "stateMutability": "payable",
      "type": "fallback"
    },
    {
      "constant": true,
      "inputs": [],
      "name": "MAX_ADDRESSES_FROM_RESOLVER",
      "outputs": [
        {
          "internalType": "uint256",
          "name": "",
          "type": "uint256"
        }
      ],
      "payable": false,
      "stateMutability": "view",
      "type": "function"
    },
    {
      "constant": true,
      "inputs": [],
      "name": "SELFDESTRUCT_DELAY",
      "outputs": [
        {
          "internalType": "uint256",
          "name": "",
          "type": "uint256"
        }
      ],
      "payable": false,
      "stateMutability": "view",
      "type": "function"
    },
    {
      "constant": false,
      "inputs": [],
      "name": "acceptOwnership",
      "outputs": [],
      "payable": false,
      "stateMutability": "nonpayable",
      "type": "function"
    },
    {
      "constant": true,
      "inputs": [],
      "name": "depositEndIndex",
      "outputs": [
        {
          "internalType": "uint256",
          "name": "",
          "type": "uint256"
        }
      ],
      "payable": false,
      "stateMutability": "view",
      "type": "function"
    },
    {
      "constant": true,
      "inputs": [],
      "name": "depositStartIndex",
      "outputs": [
        {
          "internalType": "uint256",
          "name": "",
          "type": "uint256"
        }
      ],
      "payable": false,
      "stateMutability": "view",
      "type": "function"
    },
    {
      "constant": true,
      "inputs": [
        {
          "internalType": "uint256",
          "name": "",
          "type": "uint256"
        }
      ],
      "name": "deposits",
      "outputs": [
        {
          "internalType": "address payable",
          "name": "user",
          "type": "address"
        },
        {
          "internalType": "uint256",
          "name": "amount",
          "type": "uint256"
        }
      ],
      "payable": false,
      "stateMutability": "view",
      "type": "function"
    },
    {
      "constant": true,
      "inputs": [],
      "name": "fundsWallet",
      "outputs": [
        {
          "internalType": "address payable",
          "name": "",
          "type": "address"
        }
      ],
      "payable": false,
      "stateMutability": "view",
      "type": "function"
    },
    {
      "constant": true,
      "inputs": [],
      "name": "getResolverAddressesRequired",
      "outputs": [
        {
          "internalType": "bytes32[24]",
          "name": "addressesRequired",
          "type": "bytes32[24]"
        }
      ],
      "payable": false,
      "stateMutability": "view",
      "type": "function"
    },
    {
      "constant": false,
      "inputs": [],
      "name": "initiateSelfDestruct",
      "outputs": [],
      "payable": false,
      "stateMutability": "nonpayable",
      "type": "function"
    },
    {
      "constant": true,
      "inputs": [],
      "name": "initiationTime",
      "outputs": [
        {
          "internalType": "uint256",
          "name": "",
          "type": "uint256"
        }
      ],
      "payable": false,
      "stateMutability": "view",
      "type": "function"
    },
    {
      "constant": true,
      "inputs": [
        {
          "internalType": "contract AddressResolver",
          "name": "_resolver",
          "type": "address"
        }
      ],
      "name": "isResolverCached",
      "outputs": [
        {
          "internalType": "bool",
          "name": "",
          "type": "bool"
        }
      ],
      "payable": false,
      "stateMutability": "view",
      "type": "function"
    },
    {
      "constant": true,
      "inputs": [],
      "name": "lastPauseTime",
      "outputs": [
        {
          "internalType": "uint256",
          "name": "",
          "type": "uint256"
        }
      ],
      "payable": false,
      "stateMutability": "view",
      "type": "function"
    },
    {
      "constant": true,
      "inputs": [],
      "name": "maxEthPurchase",
      "outputs": [
        {
          "internalType": "uint256",
          "name": "",
          "type": "uint256"
        }
      ],
      "payable": false,
      "stateMutability": "view",
      "type": "function"
    },
    {
      "constant": true,
      "inputs": [],
      "name": "minimumDepositAmount",
      "outputs": [
        {
          "internalType": "uint256",
          "name": "",
          "type": "uint256"
        }
      ],
      "payable": false,
      "stateMutability": "view",
      "type": "function"
    },
    {
      "constant": false,
      "inputs": [
        {
          "internalType": "address",
          "name": "_owner",
          "type": "address"
        }
      ],
      "name": "nominateNewOwner",
      "outputs": [],
      "payable": false,
      "stateMutability": "nonpayable",
      "type": "function"
    },
    {
      "constant": true,
      "inputs": [],
      "name": "nominatedOwner",
      "outputs": [
        {
          "internalType": "address",
          "name": "",
          "type": "address"
        }
      ],
      "payable": false,
      "stateMutability": "view",
      "type": "function"
    },
    {
      "constant": true,
      "inputs": [],
      "name": "owner",
      "outputs": [
        {
          "internalType": "address",
          "name": "",
          "type": "address"
        }
      ],
      "payable": false,
      "stateMutability": "view",
      "type": "function"
    },
    {
      "constant": true,
      "inputs": [],
      "name": "paused",
      "outputs": [
        {
          "internalType": "bool",
          "name": "",
          "type": "bool"
        }
      ],
      "payable": false,
      "stateMutability": "view",
      "type": "function"
    },
    {
      "constant": true,
      "inputs": [],
      "name": "resolver",
      "outputs": [
        {
          "internalType": "contract AddressResolver",
          "name": "",
          "type": "address"
        }
      ],
      "payable": false,
      "stateMutability": "view",
      "type": "function"
    },
    {
      "constant": true,
      "inputs": [
        {
          "internalType": "uint256",
          "name": "",
          "type": "uint256"
        }
      ],
      "name": "resolverAddressesRequired",
      "outputs": [
        {
          "internalType": "bytes32",
          "name": "",
          "type": "bytes32"
        }
      ],
      "payable": false,
      "stateMutability": "view",
      "type": "function"
    },
    {
      "constant": false,
      "inputs": [],
      "name": "selfDestruct",
      "outputs": [],
      "payable": false,
      "stateMutability": "nonpayable",
      "type": "function"
    },
    {
      "constant": true,
      "inputs": [],
      "name": "selfDestructBeneficiary",
      "outputs": [
        {
          "internalType": "address",
          "name": "",
          "type": "address"
        }
      ],
      "payable": false,
      "stateMutability": "view",
      "type": "function"
    },
    {
      "constant": true,
      "inputs": [],
      "name": "selfDestructInitiated",
      "outputs": [
        {
          "internalType": "bool",
          "name": "",
          "type": "bool"
        }
      ],
      "payable": false,
      "stateMutability": "view",
      "type": "function"
    },
    {
      "constant": false,
      "inputs": [
        {
          "internalType": "bool",
          "name": "_paused",
          "type": "bool"
        }
      ],
      "name": "setPaused",
      "outputs": [],
      "payable": false,
      "stateMutability": "nonpayable",
      "type": "function"
    },
    {
      "constant": false,
      "inputs": [
        {
          "internalType": "contract AddressResolver",
          "name": "_resolver",
          "type": "address"
        }
      ],
      "name": "setResolverAndSyncCache",
      "outputs": [],
      "payable": false,
      "stateMutability": "nonpayable",
      "type": "function"
    },
    {
      "constant": false,
      "inputs": [
        {
          "internalType": "address payable",
          "name": "_beneficiary",
          "type": "address"
        }
      ],
      "name": "setSelfDestructBeneficiary",
      "outputs": [],
      "payable": false,
      "stateMutability": "nonpayable",
      "type": "function"
    },
    {
      "constant": true,
      "inputs": [
        {
          "internalType": "address",
          "name": "",
          "type": "address"
        }
      ],
      "name": "smallDeposits",
      "outputs": [
        {
          "internalType": "uint256",
          "name": "",
          "type": "uint256"
        }
      ],
      "payable": false,
      "stateMutability": "view",
      "type": "function"
    },
    {
      "constant": false,
      "inputs": [],
      "name": "terminateSelfDestruct",
      "outputs": [],
      "payable": false,
      "stateMutability": "nonpayable",
      "type": "function"
    },
    {
      "constant": true,
      "inputs": [],
      "name": "totalSellableDeposits",
      "outputs": [
        {
          "internalType": "uint256",
          "name": "",
          "type": "uint256"
        }
      ],
      "payable": false,
      "stateMutability": "view",
      "type": "function"
    },
    {
      "constant": false,
      "inputs": [
        {
          "internalType": "uint256",
          "name": "_maxEthPurchase",
          "type": "uint256"
        }
      ],
      "name": "setMaxEthPurchase",
      "outputs": [],
      "payable": false,
      "stateMutability": "nonpayable",
      "type": "function"
    },
    {
      "constant": false,
      "inputs": [
        {
          "internalType": "address payable",
          "name": "_fundsWallet",
          "type": "address"
        }
      ],
      "name": "setFundsWallet",
      "outputs": [],
      "payable": false,
      "stateMutability": "nonpayable",
      "type": "function"
    },
    {
      "constant": false,
      "inputs": [
        {
          "internalType": "uint256",
          "name": "_amount",
          "type": "uint256"
        }
      ],
      "name": "setMinimumDepositAmount",
      "outputs": [],
      "payable": false,
      "stateMutability": "nonpayable",
      "type": "function"
    },
    {
      "constant": false,
      "inputs": [],
      "name": "exchangeEtherForSynths",
      "outputs": [
        {
          "internalType": "uint256",
          "name": "",
          "type": "uint256"
        }
      ],
      "payable": true,
      "stateMutability": "payable",
      "type": "function"
    },
    {
      "constant": false,
      "inputs": [
        {
          "internalType": "uint256",
          "name": "guaranteedRate",
          "type": "uint256"
        }
      ],
      "name": "exchangeEtherForSynthsAtRate",
      "outputs": [
        {
          "internalType": "uint256",
          "name": "",
          "type": "uint256"
        }
      ],
      "payable": true,
      "stateMutability": "payable",
      "type": "function"
    },
    {
      "constant": false,
      "inputs": [],
      "name": "exchangeEtherForSNX",
      "outputs": [
        {
          "internalType": "uint256",
          "name": "",
          "type": "uint256"
        }
      ],
      "payable": true,
      "stateMutability": "payable",
      "type": "function"
    },
    {
      "constant": false,
      "inputs": [
        {
          "internalType": "uint256",
          "name": "guaranteedEtherRate",
          "type": "uint256"
        },
        {
          "internalType": "uint256",
          "name": "guaranteedSynthetixRate",
          "type": "uint256"
        }
      ],
      "name": "exchangeEtherForSNXAtRate",
      "outputs": [
        {
          "internalType": "uint256",
          "name": "",
          "type": "uint256"
        }
      ],
      "payable": true,
      "stateMutability": "payable",
      "type": "function"
    },
    {
      "constant": false,
      "inputs": [
        {
          "internalType": "uint256",
          "name": "synthAmount",
          "type": "uint256"
        }
      ],
      "name": "exchangeSynthsForSNX",
      "outputs": [
        {
          "internalType": "uint256",
          "name": "",
          "type": "uint256"
        }
      ],
      "payable": false,
      "stateMutability": "nonpayable",
      "type": "function"
    },
    {
      "constant": false,
      "inputs": [
        {
          "internalType": "uint256",
          "name": "synthAmount",
          "type": "uint256"
        },
        {
          "internalType": "uint256",
          "name": "guaranteedRate",
          "type": "uint256"
        }
      ],
      "name": "exchangeSynthsForSNXAtRate",
      "outputs": [
        {
          "internalType": "uint256",
          "name": "",
          "type": "uint256"
        }
      ],
      "payable": false,
      "stateMutability": "nonpayable",
      "type": "function"
    },
    {
      "constant": false,
      "inputs": [
        {
          "internalType": "uint256",
          "name": "amount",
          "type": "uint256"
        }
      ],
      "name": "withdrawSynthetix",
      "outputs": [],
      "payable": false,
      "stateMutability": "nonpayable",
      "type": "function"
    },
    {
      "constant": false,
      "inputs": [],
      "name": "withdrawMyDepositedSynths",
      "outputs": [],
      "payable": false,
      "stateMutability": "nonpayable",
      "type": "function"
    },
    {
      "constant": false,
      "inputs": [
        {
          "internalType": "uint256",
          "name": "amount",
          "type": "uint256"
        }
      ],
      "name": "depositSynths",
      "outputs": [],
      "payable": false,
      "stateMutability": "nonpayable",
      "type": "function"
    },
    {
      "constant": true,
      "inputs": [
        {
          "internalType": "uint256",
          "name": "amount",
          "type": "uint256"
        }
      ],
      "name": "synthetixReceivedForSynths",
      "outputs": [
        {
          "internalType": "uint256",
          "name": "",
          "type": "uint256"
        }
      ],
      "payable": false,
      "stateMutability": "view",
      "type": "function"
    },
    {
      "constant": true,
      "inputs": [
        {
          "internalType": "uint256",
          "name": "amount",
          "type": "uint256"
        }
      ],
      "name": "synthetixReceivedForEther",
      "outputs": [
        {
          "internalType": "uint256",
          "name": "",
          "type": "uint256"
        }
      ],
      "payable": false,
      "stateMutability": "view",
      "type": "function"
    },
    {
      "constant": true,
      "inputs": [
        {
          "internalType": "uint256",
          "name": "amount",
          "type": "uint256"
        }
      ],
      "name": "synthsReceivedForEther",
      "outputs": [
        {
          "internalType": "uint256",
          "name": "",
          "type": "uint256"
        }
      ],
      "payable": false,
      "stateMutability": "view",
      "type": "function"
    }
  ],
  "bytecode": "0x608060405273__SafeDecimalMath_______________________63907af6c06040518163ffffffff1660e01b815260040160206040518083038186803b1580156200004957600080fd5b505af41580156200005e573d6000803e3d6000fd5b505050506040513d60208110156200007557600080fd5b8101908080519060200190929190505050603202600d5573__SafeDecimalMath_______________________63907af6c06040518163ffffffff1660e01b815260040160206040518083038186803b158015620000d157600080fd5b505af4158015620000e6573d6000803e3d6000fd5b505050506040513d6020811015620000fd57600080fd5b81019080805190602001909291905050506101f402600e5560405180606001604052807f53796e746873555344000000000000000000000000000000000000000000000081526020017f45786368616e676552617465730000000000000000000000000000000000000081526020017f53796e74686574697800000000000000000000000000000000000000000000008152506010906003620001a29291906200081b565b50348015620001b057600080fd5b50604051620062383803806200623883398181016040526060811015620001d657600080fd5b8101908080519060200190929190805190602001909291908051906020019092919050505080601060188060200260405190810160405280929190826018801562000237576020028201915b81548152602001906001019080831162000222575b505050505084600073ffffffffffffffffffffffffffffffffffffffff168173ffffffffffffffffffffffffffffffffffffffff161415620002e1576040517f08c379a00000000000000000000000000000000000000000000000000000000081526004018080602001828103825260198152602001807f4f776e657220616464726573732063616e6e6f7420626520300000000000000081525060200191505060405180910390fd5b806000806101000a81548173ffffffffffffffffffffffffffffffffffffffff021916908373ffffffffffffffffffffffffffffffffffffffff1602179055507fb532073b38c83145e3e5135377a08bf9aab55bc0fd7c1179cd4fb995d2a5159c600082604051808373ffffffffffffffffffffffffffffffffffffffff1673ffffffffffffffffffffffffffffffffffffffff1681526020018273ffffffffffffffffffffffffffffffffffffffff1673ffffffffffffffffffffffffffffffffffffffff1681526020019250505060405180910390a150600073ffffffffffffffffffffffffffffffffffffffff166000809054906101000a900473ffffffffffffffffffffffffffffffffffffffff1673ffffffffffffffffffffffffffffffffffffffff1614156200047f576040517f08c379a00000000000000000000000000000000000000000000000000000000081526004018080602001828103825260118152602001807f4f776e6572206d7573742062652073657400000000000000000000000000000081525060200191505060405180910390fd5b6000809054906101000a900473ffffffffffffffffffffffffffffffffffffffff16600360016101000a81548173ffffffffffffffffffffffffffffffffffffffff021916908373ffffffffffffffffffffffffffffffffffffffff1602179055507fd5da63a0b864b315bc04128dedbc93888c8529ee6cf47ce664dc204339228c536000809054906101000a900473ffffffffffffffffffffffffffffffffffffffff16604051808273ffffffffffffffffffffffffffffffffffffffff1673ffffffffffffffffffffffffffffffffffffffff16815260200191505060405180910390a1600073ffffffffffffffffffffffffffffffffffffffff166000809054906101000a900473ffffffffffffffffffffffffffffffffffffffff1673ffffffffffffffffffffffffffffffffffffffff1614156200062a576040517f08c379a00000000000000000000000000000000000000000000000000000000081526004018080602001828103825260118152602001807f4f776e6572206d7573742062652073657400000000000000000000000000000081525060200191505060405180910390fd5b6001600560016101000a81548160ff021916908315150217905550600073ffffffffffffffffffffffffffffffffffffffff166000809054906101000a900473ffffffffffffffffffffffffffffffffffffffff1673ffffffffffffffffffffffffffffffffffffffff1614156200070a576040517f08c379a00000000000000000000000000000000000000000000000000000000081526004018080602001828103825260118152602001807f4f776e6572206d7573742062652073657400000000000000000000000000000081525060200191505060405180910390fd5b60008090505b60188110156200078d576000801b8282601881106200072b57fe5b602002015114620007795760078282601881106200074557fe5b602002015190806001815401808255809150509060018203906000526020600020016000909192909190915055506200077f565b6200078d565b808060010191505062000710565b5081600560026101000a81548173ffffffffffffffffffffffffffffffffffffffff021916908373ffffffffffffffffffffffffffffffffffffffff160217905550505081600860006101000a81548173ffffffffffffffffffffffffffffffffffffffff021916908373ffffffffffffffffffffffffffffffffffffffff16021790555050505062000888565b82601881019282156200084d579160200282015b828111156200084c5782518255916020019190600101906200082f565b5b5090506200085c919062000860565b5090565b6200088591905b808211156200088157600081600090555060010162000867565b5090565b90565b6159a080620008986000396000f3fe6080604052600436106102675760003560e01c806391b4ded911610144578063bb7df172116100b6578063c8d889f21161007a578063c8d889f214610e12578063dc8fa6c214610e61578063e3235c9114610e9c578063e6d76a7614610ec7578063f852d39314610f02578063fd12167f14610f5157610267565b8063bb7df17214610cb5578063bd32aa4414610cf0578063c58aaae614610d07578063c6abb7c714610d5e578063c6c9d82814610dc357610267565b8063aab483d611610108578063aab483d614610af2578063ab49848c14610b2d578063b02c43d014610b80578063b0c2cb9614610c02578063b1338cc414610c5b578063b8225dec14610c8657610267565b806391b4ded9146109ea5780639342c0eb14610a155780639cb8a26a14610a61578063a3d8829b14610a78578063a461fc8214610ac757610267565b80633278c960116101dd578063631e1444116101a1578063631e14441461088057806364e39b87146108e95780636d5ab4a91461093a57806379ba50971461096557806381b797dc1461097c5780638da5cb5b1461099357610267565b80633278c960146107675780633be99e6f1461077e5780634d0387fb146107cf57806353a47bb7146107fa5780635c975abb1461085157610267565b80631627540c1161022f5780631627540c146105e857806316c38b3c1461063957806317c70de4146106765780631f930115146106a157806320714f88146106bf5780632194f3a21461071057610267565b806302279438146104b757806304f3bcec146104d5578063080c279a1461052c5780630c928bc2146105575780630c928f0514610599575b600560019054906101000a900460ff166102e9576040517f08c379a000000000000000000000000000000000000000000000000000000000815260040180806020018281038252601f8152602001807f5265656e7472616e637947756172643a207265656e7472616e742063616c6c0081525060200191505060405180910390fd5b6000600560016101000a81548160ff0219169083151502179055507f455448000000000000000000000000000000000000000000000000000000000061032d610f7c565b73ffffffffffffffffffffffffffffffffffffffff16629919c0826040518263ffffffff1660e01b81526004018082815260200191505060206040518083038186803b15801561037c57600080fd5b505afa158015610390573d6000803e3d6000fd5b505050506040513d60208110156103a657600080fd5b81019080805190602001909291905050501561042a576040517f08c379a00000000000000000000000000000000000000000000000000000000081526004018080602001828103825260198152602001807f52617465207374616c65206f72206e6f7420612073796e74680000000000000081525060200191505060405180910390fd5b600560009054906101000a900460ff1615610490576040517f08c379a000000000000000000000000000000000000000000000000000000000815260040180806020018281038252603c81526020018061590b603c913960400191505060405180910390fd5b610498610fe2565b50506001600560016101000a81548160ff021916908315150217905550005b6104bf611ba5565b6040518082815260200191505060405180910390f35b3480156104e157600080fd5b506104ea611e68565b604051808273ffffffffffffffffffffffffffffffffffffffff1673ffffffffffffffffffffffffffffffffffffffff16815260200191505060405180910390f35b34801561053857600080fd5b50610541611e8e565b6040518082815260200191505060405180910390f35b6105836004803603602081101561056d57600080fd5b8101908080359060200190929190505050611e94565b6040518082815260200191505060405180910390f35b3480156105a557600080fd5b506105d2600480360360208110156105bc57600080fd5b810190808035906020019092919050505061213c565b6040518082815260200191505060405180910390f35b3480156105f457600080fd5b506106376004803603602081101561060b57600080fd5b81019080803573ffffffffffffffffffffffffffffffffffffffff16906020019092919050505061220a565b005b34801561064557600080fd5b506106746004803603602081101561065c57600080fd5b81019080803515159060200190929190505050612356565b005b34801561068257600080fd5b5061068b6124a0565b6040518082815260200191505060405180910390f35b6106a96124a6565b6040518082815260200191505060405180910390f35b3480156106cb57600080fd5b5061070e600480360360208110156106e257600080fd5b81019080803573ffffffffffffffffffffffffffffffffffffffff1690602001909291905050506126fa565b005b34801561071c57600080fd5b506107256128e9565b604051808273ffffffffffffffffffffffffffffffffffffffff1673ffffffffffffffffffffffffffffffffffffffff16815260200191505060405180910390f35b34801561077357600080fd5b5061077c61290f565b005b34801561078a57600080fd5b506107cd600480360360208110156107a157600080fd5b81019080803573ffffffffffffffffffffffffffffffffffffffff169060200190929190505050612a05565b005b3480156107db57600080fd5b506107e4612c64565b6040518082815260200191505060405180910390f35b34801561080657600080fd5b5061080f612c6a565b604051808273ffffffffffffffffffffffffffffffffffffffff1673ffffffffffffffffffffffffffffffffffffffff16815260200191505060405180910390f35b34801561085d57600080fd5b50610866612c90565b604051808215151515815260200191505060405180910390f35b34801561088c57600080fd5b506108cf600480360360208110156108a357600080fd5b81019080803573ffffffffffffffffffffffffffffffffffffffff169060200190929190505050612ca3565b604051808215151515815260200191505060405180910390f35b3480156108f557600080fd5b506109386004803603602081101561090c57600080fd5b81019080803573ffffffffffffffffffffffffffffffffffffffff169060200190929190505050612ed5565b005b34801561094657600080fd5b5061094f613043565b6040518082815260200191505060405180910390f35b34801561097157600080fd5b5061097a613049565b005b34801561098857600080fd5b5061099161326f565b005b34801561099f57600080fd5b506109a8613650565b604051808273ffffffffffffffffffffffffffffffffffffffff1673ffffffffffffffffffffffffffffffffffffffff16815260200191505060405180910390f35b3480156109f657600080fd5b506109ff613675565b6040518082815260200191505060405180910390f35b610a4b60048036036040811015610a2b57600080fd5b81019080803590602001909291908035906020019092919050505061367b565b6040518082815260200191505060405180910390f35b348015610a6d57600080fd5b50610a76613b55565b005b348015610a8457600080fd5b50610ab160048036036020811015610a9b57600080fd5b8101908080359060200190929190505050613db8565b6040518082815260200191505060405180910390f35b348015610ad357600080fd5b50610adc613e86565b6040518082815260200191505060405180910390f35b348015610afe57600080fd5b50610b2b60048036036020811015610b1557600080fd5b8101908080359060200190929190505050613e8d565b005b348015610b3957600080fd5b50610b4261404b565b6040518082601860200280838360005b83811015610b6d578082015181840152602081019050610b52565b5050505090500191505060405180910390f35b348015610b8c57600080fd5b50610bb960048036036020811015610ba357600080fd5b81019080803590602001909291905050506140a4565b604051808373ffffffffffffffffffffffffffffffffffffffff1673ffffffffffffffffffffffffffffffffffffffff1681526020018281526020019250505060405180910390f35b348015610c0e57600080fd5b50610c4560048036036040811015610c2557600080fd5b8101908080359060200190929190803590602001909291905050506140e8565b6040518082815260200191505060405180910390f35b348015610c6757600080fd5b50610c70614392565b6040518082815260200191505060405180910390f35b348015610c9257600080fd5b50610c9b614398565b604051808215151515815260200191505060405180910390f35b348015610cc157600080fd5b50610cee60048036036020811015610cd857600080fd5b81019080803590602001909291905050506143ab565b005b348015610cfc57600080fd5b50610d05614493565b005b348015610d1357600080fd5b50610d1c614596565b604051808273ffffffffffffffffffffffffffffffffffffffff1673ffffffffffffffffffffffffffffffffffffffff16815260200191505060405180910390f35b348015610d6a57600080fd5b50610dad60048036036020811015610d8157600080fd5b81019080803573ffffffffffffffffffffffffffffffffffffffff1690602001909291905050506145bc565b6040518082815260200191505060405180910390f35b348015610dcf57600080fd5b50610dfc60048036036020811015610de657600080fd5b81019080803590602001909291905050506145d4565b6040518082815260200191505060405180910390f35b348015610e1e57600080fd5b50610e4b60048036036020811015610e3557600080fd5b81019080803590602001909291905050506145f5565b6040518082815260200191505060405180910390f35b348015610e6d57600080fd5b50610e9a60048036036020811015610e8457600080fd5b81019080803590602001909291905050506146d0565b005b348015610ea857600080fd5b50610eb1614a07565b6040518082815260200191505060405180910390f35b348015610ed357600080fd5b50610f0060048036036020811015610eea57600080fd5b8101908080359060200190929190505050614a0c565b005b348015610f0e57600080fd5b50610f3b60048036036020811015610f2557600080fd5b8101908080359060200190929190505050614b9f565b6040518082815260200191505060405180910390f35b348015610f5d57600080fd5b50610f66614d3e565b6040518082815260200191505060405180910390f35b6000610fdd7f45786368616e67655261746573000000000000000000000000000000000000006040518060400160405280601d81526020017f4d697373696e672045786368616e676552617465732061646472657373000000815250614d44565b905090565b6000600e5434111561103f576040517f08c379a00000000000000000000000000000000000000000000000000000000081526004018080602001828103825260258152602001806158b66025913960400191505060405180910390fd5b60008061110761104d610f7c565b73ffffffffffffffffffffffffffffffffffffffff1663ac82f6087f45544800000000000000000000000000000000000000000000000000000000006040518263ffffffff1660e01b81526004018082815260200191505060206040518083038186803b1580156110bd57600080fd5b505afa1580156110d1573d6000803e3d6000fd5b505050506040513d60208110156110e757600080fd5b810190808051906020019092919050505034614e6090919063ffffffff16565b905060008190506000600a5490505b6000821180156111275750600b5481105b156119b357611134615762565b600960008381526020019081526020016000206040518060400160405290816000820160009054906101000a900473ffffffffffffffffffffffffffffffffffffffff1673ffffffffffffffffffffffffffffffffffffffff1673ffffffffffffffffffffffffffffffffffffffff1681526020016001820154815250509050600073ffffffffffffffffffffffffffffffffffffffff16816000015173ffffffffffffffffffffffffffffffffffffffff16141561120e576112036001600a54614e8d90919063ffffffff16565b600a819055506119a5565b82816020015111156115f1576000611233848360200151614f1590919063ffffffff16565b90506040518060400160405280836000015173ffffffffffffffffffffffffffffffffffffffff168152602001828152506009600085815260200190815260200160002060008201518160000160006101000a81548173ffffffffffffffffffffffffffffffffffffffff021916908373ffffffffffffffffffffffffffffffffffffffff160217905550602082015181600101559050506112e084600c54614f1590919063ffffffff16565b600c819055506113ab6112f1610f7c565b73ffffffffffffffffffffffffffffffffffffffff1663ac82f6087f45544800000000000000000000000000000000000000000000000000000000006040518263ffffffff1660e01b81526004018082815260200191505060206040518083038186803b15801561136157600080fd5b505afa158015611375573d6000803e3d6000fd5b505050506040513d602081101561138b57600080fd5b810190808051906020019092919050505085614f5f90919063ffffffff16565b9550816000015173ffffffffffffffffffffffffffffffffffffffff166108fc879081150290604051600060405180830381858888f193505050506114aa57600860009054906101000a900473ffffffffffffffffffffffffffffffffffffffff1673ffffffffffffffffffffffffffffffffffffffff166108fc879081150290604051600060405180830381858888f19350505050158015611452573d6000803e3d6000fd5b50816000015173ffffffffffffffffffffffffffffffffffffffff167ff2435d3901399daa085f8b58d2409fff9b83ce4ca97c1f144b532f5a08b1c96c876040518082815260200191505060405180910390a261151d565b82826000015173ffffffffffffffffffffffffffffffffffffffff163373ffffffffffffffffffffffffffffffffffffffff167f6d957e9e816107f67cb7118461e3c259e96896f80223c9af2972596c2fdd401c8988604051808381526020018281526020019250505060405180910390a45b611525614f95565b73ffffffffffffffffffffffffffffffffffffffff1663a9059cbb33866040518363ffffffff1660e01b8152600401808373ffffffffffffffffffffffffffffffffffffffff1673ffffffffffffffffffffffffffffffffffffffff16815260200182815260200192505050602060405180830381600087803b1580156115ab57600080fd5b505af11580156115bf573d6000803e3d6000fd5b505050506040513d60208110156115d557600080fd5b81019080805190602001909291905050505060009350506119a4565b828160200151116119a35760096000838152602001908152602001600020600080820160006101000a81549073ffffffffffffffffffffffffffffffffffffffff0219169055600182016000905550506116576001600a54614e8d90919063ffffffff16565b600a819055506116768160200151600c54614f1590919063ffffffff16565b600c81905550611745611687610f7c565b73ffffffffffffffffffffffffffffffffffffffff1663ac82f6087f45544800000000000000000000000000000000000000000000000000000000006040518263ffffffff1660e01b81526004018082815260200191505060206040518083038186803b1580156116f757600080fd5b505afa15801561170b573d6000803e3d6000fd5b505050506040513d602081101561172157600080fd5b81019080805190602001909291905050508260200151614f5f90919063ffffffff16565b9450806000015173ffffffffffffffffffffffffffffffffffffffff166108fc869081150290604051600060405180830381858888f1935050505061184457600860009054906101000a900473ffffffffffffffffffffffffffffffffffffffff1673ffffffffffffffffffffffffffffffffffffffff166108fc869081150290604051600060405180830381858888f193505050501580156117ec573d6000803e3d6000fd5b50806000015173ffffffffffffffffffffffffffffffffffffffff167ff2435d3901399daa085f8b58d2409fff9b83ce4ca97c1f144b532f5a08b1c96c866040518082815260200191505060405180910390a26118bb565b81816000015173ffffffffffffffffffffffffffffffffffffffff163373ffffffffffffffffffffffffffffffffffffffff167f6d957e9e816107f67cb7118461e3c259e96896f80223c9af2972596c2fdd401c888560200151604051808381526020018281526020019250505060405180910390a45b6118c3614f95565b73ffffffffffffffffffffffffffffffffffffffff1663a9059cbb3383602001516040518363ffffffff1660e01b8152600401808373ffffffffffffffffffffffffffffffffffffffff1673ffffffffffffffffffffffffffffffffffffffff16815260200182815260200192505050602060405180830381600087803b15801561194d57600080fd5b505af1158015611961573d6000803e3d6000fd5b505050506040513d602081101561197757600080fd5b8101908080519060200190929190505050506119a0816020015184614f1590919063ffffffff16565b92505b5b5b508080600101915050611116565b506000811115611ac9573373ffffffffffffffffffffffffffffffffffffffff166108fc611a9c6119e2610f7c565b73ffffffffffffffffffffffffffffffffffffffff1663ac82f6087f45544800000000000000000000000000000000000000000000000000000000006040518263ffffffff1660e01b81526004018082815260200191505060206040518083038186803b158015611a5257600080fd5b505afa158015611a66573d6000803e3d6000fd5b505050506040513d6020811015611a7c57600080fd5b810190808051906020019092919050505084614f5f90919063ffffffff16565b9081150290604051600060405180830381858888f19350505050158015611ac7573d6000803e3d6000fd5b505b6000611ade8284614f1590919063ffffffff16565b90506000811115611b9b577fdb1741ffc6844b04a9284bb6337fb0ccfe543a493ef0ac8e725242201e93d4bd3482604051808060200184815260200180602001848152602001838103835260038152602001807f4554480000000000000000000000000000000000000000000000000000000000815250602001838103825260048152602001807f735553440000000000000000000000000000000000000000000000000000000081525060200194505050505060405180910390a15b8094505050505090565b60007f534e580000000000000000000000000000000000000000000000000000000000611bd0610f7c565b73ffffffffffffffffffffffffffffffffffffffff16629919c0826040518263ffffffff1660e01b81526004018082815260200191505060206040518083038186803b158015611c1f57600080fd5b505afa158015611c33573d6000803e3d6000fd5b505050506040513d6020811015611c4957600080fd5b810190808051906020019092919050505015611ccd576040517f08c379a00000000000000000000000000000000000000000000000000000000081526004018080602001828103825260198152602001807f52617465207374616c65206f72206e6f7420612073796e74680000000000000081525060200191505060405180910390fd5b7f4554480000000000000000000000000000000000000000000000000000000000611cf6610f7c565b73ffffffffffffffffffffffffffffffffffffffff16629919c0826040518263ffffffff1660e01b81526004018082815260200191505060206040518083038186803b158015611d4557600080fd5b505afa158015611d59573d6000803e3d6000fd5b505050506040513d6020811015611d6f57600080fd5b810190808051906020019092919050505015611df3576040517f08c379a00000000000000000000000000000000000000000000000000000000081526004018080602001828103825260198152602001807f52617465207374616c65206f72206e6f7420612073796e74680000000000000081525060200191505060405180910390fd5b600560009054906101000a900460ff1615611e59576040517f08c379a000000000000000000000000000000000000000000000000000000000815260040180806020018281038252603c81526020018061590b603c913960400191505060405180910390fd5b611e61614ffb565b9250505090565b600560029054906101000a900473ffffffffffffffffffffffffffffffffffffffff1681565b600d5481565b60007f4554480000000000000000000000000000000000000000000000000000000000611ebf610f7c565b73ffffffffffffffffffffffffffffffffffffffff16629919c0826040518263ffffffff1660e01b81526004018082815260200191505060206040518083038186803b158015611f0e57600080fd5b505afa158015611f22573d6000803e3d6000fd5b505050506040513d6020811015611f3857600080fd5b810190808051906020019092919050505015611fbc576040517f08c379a00000000000000000000000000000000000000000000000000000000081526004018080602001828103825260198152602001807f52617465207374616c65206f72206e6f7420612073796e74680000000000000081525060200191505060405180910390fd5b600560009054906101000a900460ff1615612022576040517f08c379a000000000000000000000000000000000000000000000000000000000815260040180806020018281038252603c81526020018061590b603c913960400191505060405180910390fd5b61202a610f7c565b73ffffffffffffffffffffffffffffffffffffffff1663ac82f6087f45544800000000000000000000000000000000000000000000000000000000006040518263ffffffff1660e01b81526004018082815260200191505060206040518083038186803b15801561209a57600080fd5b505afa1580156120ae573d6000803e3d6000fd5b505050506040513d60208110156120c457600080fd5b8101908080519060200190929190505050831461212c576040517f08c379a00000000000000000000000000000000000000000000000000000000081526004018080602001828103825260258152602001806159476025913960400191505060405180910390fd5b612134610fe2565b915050919050565b6000612203612149610f7c565b73ffffffffffffffffffffffffffffffffffffffff1663ac82f6087f45544800000000000000000000000000000000000000000000000000000000006040518263ffffffff1660e01b81526004018082815260200191505060206040518083038186803b1580156121b957600080fd5b505afa1580156121cd573d6000803e3d6000fd5b505050506040513d60208110156121e357600080fd5b810190808051906020019092919050505083614e6090919063ffffffff16565b9050919050565b6000809054906101000a900473ffffffffffffffffffffffffffffffffffffffff1673ffffffffffffffffffffffffffffffffffffffff163373ffffffffffffffffffffffffffffffffffffffff16146122af576040517f08c379a000000000000000000000000000000000000000000000000000000000815260040180806020018281038252602f815260200180615866602f913960400191505060405180910390fd5b80600160006101000a81548173ffffffffffffffffffffffffffffffffffffffff021916908373ffffffffffffffffffffffffffffffffffffffff1602179055507f906a1c6bd7e3091ea86693dd029a831c19049ce77f1dce2ce0bab1cacbabce2281604051808273ffffffffffffffffffffffffffffffffffffffff1673ffffffffffffffffffffffffffffffffffffffff16815260200191505060405180910390a150565b6000809054906101000a900473ffffffffffffffffffffffffffffffffffffffff1673ffffffffffffffffffffffffffffffffffffffff163373ffffffffffffffffffffffffffffffffffffffff16146123fb576040517f08c379a000000000000000000000000000000000000000000000000000000000815260040180806020018281038252602f815260200180615866602f913960400191505060405180910390fd5b600560009054906101000a900460ff161515811515141561241b5761249d565b80600560006101000a81548160ff021916908315150217905550600560009054906101000a900460ff161561245257426004819055505b7f8fb6c181ee25a520cf3dd6565006ef91229fcfe5a989566c2a3b8c115570cec5600560009054906101000a900460ff16604051808215151515815260200191505060405180910390a15b50565b60025481565b6000600560019054906101000a900460ff1661252a576040517f08c379a000000000000000000000000000000000000000000000000000000000815260040180806020018281038252601f8152602001807f5265656e7472616e637947756172643a207265656e7472616e742063616c6c0081525060200191505060405180910390fd5b6000600560016101000a81548160ff0219169083151502179055507f455448000000000000000000000000000000000000000000000000000000000061256e610f7c565b73ffffffffffffffffffffffffffffffffffffffff16629919c0826040518263ffffffff1660e01b81526004018082815260200191505060206040518083038186803b1580156125bd57600080fd5b505afa1580156125d1573d6000803e3d6000fd5b505050506040513d60208110156125e757600080fd5b81019080805190602001909291905050501561266b576040517f08c379a00000000000000000000000000000000000000000000000000000000081526004018080602001828103825260198152602001807f52617465207374616c65206f72206e6f7420612073796e74680000000000000081525060200191505060405180910390fd5b600560009054906101000a900460ff16156126d1576040517f08c379a000000000000000000000000000000000000000000000000000000000815260040180806020018281038252603c81526020018061590b603c913960400191505060405180910390fd5b6126d9610fe2565b9150506001600560016101000a81548160ff02191690831515021790555090565b6000809054906101000a900473ffffffffffffffffffffffffffffffffffffffff1673ffffffffffffffffffffffffffffffffffffffff163373ffffffffffffffffffffffffffffffffffffffff161461279f576040517f08c379a000000000000000000000000000000000000000000000000000000000815260040180806020018281038252602f815260200180615866602f913960400191505060405180910390fd5b600073ffffffffffffffffffffffffffffffffffffffff168173ffffffffffffffffffffffffffffffffffffffff161415612842576040517f08c379a000000000000000000000000000000000000000000000000000000000815260040180806020018281038252601c8152602001807f42656e6566696369617279206d757374206e6f74206265207a65726f0000000081525060200191505060405180910390fd5b80600360016101000a81548173ffffffffffffffffffffffffffffffffffffffff021916908373ffffffffffffffffffffffffffffffffffffffff1602179055507fd5da63a0b864b315bc04128dedbc93888c8529ee6cf47ce664dc204339228c5381604051808273ffffffffffffffffffffffffffffffffffffffff1673ffffffffffffffffffffffffffffffffffffffff16815260200191505060405180910390a150565b600860009054906101000a900473ffffffffffffffffffffffffffffffffffffffff1681565b6000809054906101000a900473ffffffffffffffffffffffffffffffffffffffff1673ffffffffffffffffffffffffffffffffffffffff163373ffffffffffffffffffffffffffffffffffffffff16146129b4576040517f08c379a000000000000000000000000000000000000000000000000000000000815260040180806020018281038252602f815260200180615866602f913960400191505060405180910390fd5b60006002819055506000600360006101000a81548160ff0219169083151502179055507f6adcc7125002935e0aa31697538ebbd65cfddf20431eb6ecdcfc3e238bfd082c60405160405180910390a1565b6000809054906101000a900473ffffffffffffffffffffffffffffffffffffffff1673ffffffffffffffffffffffffffffffffffffffff163373ffffffffffffffffffffffffffffffffffffffff1614612aaa576040517f08c379a000000000000000000000000000000000000000000000000000000000815260040180806020018281038252602f815260200180615866602f913960400191505060405180910390fd5b80600560026101000a81548173ffffffffffffffffffffffffffffffffffffffff021916908373ffffffffffffffffffffffffffffffffffffffff16021790555060008090505b600780549050811015612c6057600060078281548110612b0d57fe5b90600052602060002001549050600560029054906101000a900473ffffffffffffffffffffffffffffffffffffffff1673ffffffffffffffffffffffffffffffffffffffff1663dacb2d01826040518263ffffffff1660e01b81526004018082815260200180602001828103825260178152602001807f5265736f6c766572206d697373696e67207461726765740000000000000000008152506020019250505060206040518083038186803b158015612bc657600080fd5b505afa158015612bda573d6000803e3d6000fd5b505050506040513d6020811015612bf057600080fd5b81019080805190602001909291905050506006600083815260200190815260200160002060006101000a81548173ffffffffffffffffffffffffffffffffffffffff021916908373ffffffffffffffffffffffffffffffffffffffff160217905550508080600101915050612af1565b5050565b600c5481565b600160009054906101000a900473ffffffffffffffffffffffffffffffffffffffff1681565b600560009054906101000a900460ff1681565b60008173ffffffffffffffffffffffffffffffffffffffff16600560029054906101000a900473ffffffffffffffffffffffffffffffffffffffff1673ffffffffffffffffffffffffffffffffffffffff1614612d035760009050612ed0565b60008090505b600780549050811015612eca57600060078281548110612d2557fe5b906000526020600020015490506006600082815260200190815260200160002060009054906101000a900473ffffffffffffffffffffffffffffffffffffffff1673ffffffffffffffffffffffffffffffffffffffff16600560029054906101000a900473ffffffffffffffffffffffffffffffffffffffff1673ffffffffffffffffffffffffffffffffffffffff166321f8a721836040518263ffffffff1660e01b81526004018082815260200191505060206040518083038186803b158015612def57600080fd5b505afa158015612e03573d6000803e3d6000fd5b505050506040513d6020811015612e1957600080fd5b810190808051906020019092919050505073ffffffffffffffffffffffffffffffffffffffff16141580612eac5750600073ffffffffffffffffffffffffffffffffffffffff166006600083815260200190815260200160002060009054906101000a900473ffffffffffffffffffffffffffffffffffffffff1673ffffffffffffffffffffffffffffffffffffffff16145b15612ebc57600092505050612ed0565b508080600101915050612d09565b50600190505b919050565b6000809054906101000a900473ffffffffffffffffffffffffffffffffffffffff1673ffffffffffffffffffffffffffffffffffffffff163373ffffffffffffffffffffffffffffffffffffffff1614612f7a576040517f08c379a000000000000000000000000000000000000000000000000000000000815260040180806020018281038252602f815260200180615866602f913960400191505060405180910390fd5b80600860006101000a81548173ffffffffffffffffffffffffffffffffffffffff021916908373ffffffffffffffffffffffffffffffffffffffff1602179055507f4deb077bf9c4bc824cc2c989e01a5e53b0a4ecc44c5039d46abc9ffc88f8a050600860009054906101000a900473ffffffffffffffffffffffffffffffffffffffff16604051808273ffffffffffffffffffffffffffffffffffffffff1673ffffffffffffffffffffffffffffffffffffffff16815260200191505060405180910390a150565b600a5481565b600160009054906101000a900473ffffffffffffffffffffffffffffffffffffffff1673ffffffffffffffffffffffffffffffffffffffff163373ffffffffffffffffffffffffffffffffffffffff16146130ef576040517f08c379a00000000000000000000000000000000000000000000000000000000081526004018080602001828103825260358152602001806157e16035913960400191505060405180910390fd5b7fb532073b38c83145e3e5135377a08bf9aab55bc0fd7c1179cd4fb995d2a5159c6000809054906101000a900473ffffffffffffffffffffffffffffffffffffffff16600160009054906101000a900473ffffffffffffffffffffffffffffffffffffffff16604051808373ffffffffffffffffffffffffffffffffffffffff1673ffffffffffffffffffffffffffffffffffffffff1681526020018273ffffffffffffffffffffffffffffffffffffffff1673ffffffffffffffffffffffffffffffffffffffff1681526020019250505060405180910390a1600160009054906101000a900473ffffffffffffffffffffffffffffffffffffffff166000806101000a81548173ffffffffffffffffffffffffffffffffffffffff021916908373ffffffffffffffffffffffffffffffffffffffff1602179055506000600160006101000a81548173ffffffffffffffffffffffffffffffffffffffff021916908373ffffffffffffffffffffffffffffffffffffffff160217905550565b60008090506000600a5490505b600b5481101561340a5761328e615762565b600960008381526020019081526020016000206040518060400160405290816000820160009054906101000a900473ffffffffffffffffffffffffffffffffffffffff1673ffffffffffffffffffffffffffffffffffffffff1673ffffffffffffffffffffffffffffffffffffffff16815260200160018201548152505090503373ffffffffffffffffffffffffffffffffffffffff16816000015173ffffffffffffffffffffffffffffffffffffffff1614156133fc5761335d816020015184614e8d90919063ffffffff16565b925060096000838152602001908152602001600020600080820160006101000a81549073ffffffffffffffffffffffffffffffffffffffff02191690556001820160009055505081816000015173ffffffffffffffffffffffffffffffffffffffff167f3aa2b18eace5e5727a4ab525921b9b0a1ca1afdb0f96b599e3ab2d76cb5e7f7283602001516040518082815260200191505060405180910390a35b50808060010191505061327c565b5061342081600c54614f1590919063ffffffff16565b600c81905550613478600f60003373ffffffffffffffffffffffffffffffffffffffff1673ffffffffffffffffffffffffffffffffffffffff1681526020019081526020016000205482614e8d90919063ffffffff16565b90506000600f60003373ffffffffffffffffffffffffffffffffffffffff1673ffffffffffffffffffffffffffffffffffffffff1681526020019081526020016000208190555060008111613518576040517f08c379a00000000000000000000000000000000000000000000000000000000081526004018080602001828103825260218152602001806158456021913960400191505060405180910390fd5b613520614f95565b73ffffffffffffffffffffffffffffffffffffffff1663a9059cbb33836040518363ffffffff1660e01b8152600401808373ffffffffffffffffffffffffffffffffffffffff1673ffffffffffffffffffffffffffffffffffffffff16815260200182815260200192505050602060405180830381600087803b1580156135a657600080fd5b505af11580156135ba573d6000803e3d6000fd5b505050506040513d60208110156135d057600080fd5b8101908080519060200190929190505050507faf6ec623f558c7b3527ff6c9c09432c7d81a3d38bd2e1eaaee2efe7aac23c28b3382604051808373ffffffffffffffffffffffffffffffffffffffff1673ffffffffffffffffffffffffffffffffffffffff1681526020018281526020019250505060405180910390a150565b6000809054906101000a900473ffffffffffffffffffffffffffffffffffffffff1681565b60045481565b60007f534e5800000000000000000000000000000000000000000000000000000000006136a6610f7c565b73ffffffffffffffffffffffffffffffffffffffff16629919c0826040518263ffffffff1660e01b81526004018082815260200191505060206040518083038186803b1580156136f557600080fd5b505afa158015613709573d6000803e3d6000fd5b505050506040513d602081101561371f57600080fd5b8101908080519060200190929190505050156137a3576040517f08c379a00000000000000000000000000000000000000000000000000000000081526004018080602001828103825260198152602001807f52617465207374616c65206f72206e6f7420612073796e74680000000000000081525060200191505060405180910390fd5b7f45544800000000000000000000000000000000000000000000000000000000006137cc610f7c565b73ffffffffffffffffffffffffffffffffffffffff16629919c0826040518263ffffffff1660e01b81526004018082815260200191505060206040518083038186803b15801561381b57600080fd5b505afa15801561382f573d6000803e3d6000fd5b505050506040513d602081101561384557600080fd5b8101908080519060200190929190505050156138c9576040517f08c379a00000000000000000000000000000000000000000000000000000000081526004018080602001828103825260198152602001807f52617465207374616c65206f72206e6f7420612073796e74680000000000000081525060200191505060405180910390fd5b600560009054906101000a900460ff161561392f576040517f08c379a000000000000000000000000000000000000000000000000000000000815260040180806020018281038252603c81526020018061590b603c913960400191505060405180910390fd5b613937610f7c565b73ffffffffffffffffffffffffffffffffffffffff1663ac82f6087f45544800000000000000000000000000000000000000000000000000000000006040518263ffffffff1660e01b81526004018082815260200191505060206040518083038186803b1580156139a757600080fd5b505afa1580156139bb573d6000803e3d6000fd5b505050506040513d60208110156139d157600080fd5b81019080805190602001909291905050508514613a39576040517f08c379a000000000000000000000000000000000000000000000000000000000815260040180806020018281038252602b8152602001806157b6602b913960400191505060405180910390fd5b613a41610f7c565b73ffffffffffffffffffffffffffffffffffffffff1663ac82f6087f534e5800000000000000000000000000000000000000000000000000000000006040518263ffffffff1660e01b81526004018082815260200191505060206040518083038186803b158015613ab157600080fd5b505afa158015613ac5573d6000803e3d6000fd5b505050506040513d6020811015613adb57600080fd5b81019080805190602001909291905050508414613b43576040517f08c379a000000000000000000000000000000000000000000000000000000000815260040180806020018281038252602f815260200180615816602f913960400191505060405180910390fd5b613b4b614ffb565b9250505092915050565b6000809054906101000a900473ffffffffffffffffffffffffffffffffffffffff1673ffffffffffffffffffffffffffffffffffffffff163373ffffffffffffffffffffffffffffffffffffffff1614613bfa576040517f08c379a000000000000000000000000000000000000000000000000000000000815260040180806020018281038252602f815260200180615866602f913960400191505060405180910390fd5b600360009054906101000a900460ff16613c7c576040517f08c379a000000000000000000000000000000000000000000000000000000000815260040180806020018281038252601f8152602001807f53656c66204465737472756374206e6f742079657420696e697469617465640081525060200191505060405180910390fd5b426224ea006002540110613cf8576040517f08c379a000000000000000000000000000000000000000000000000000000000815260040180806020018281038252601b8152602001807f53656c662064657374727563742064656c6179206e6f74206d6574000000000081525060200191505060405180910390fd5b7f8a09e1677ced846cb537dc2b172043bd05a1a81ad7e0033a7ef8ba762df990b7600360019054906101000a900473ffffffffffffffffffffffffffffffffffffffff16604051808273ffffffffffffffffffffffffffffffffffffffff1673ffffffffffffffffffffffffffffffffffffffff16815260200191505060405180910390a1600360019054906101000a900473ffffffffffffffffffffffffffffffffffffffff1673ffffffffffffffffffffffffffffffffffffffff16ff5b6000613e7f613dc5610f7c565b73ffffffffffffffffffffffffffffffffffffffff1663ac82f6087f534e5800000000000000000000000000000000000000000000000000000000006040518263ffffffff1660e01b81526004018082815260200191505060206040518083038186803b158015613e3557600080fd5b505afa158015613e49573d6000803e3d6000fd5b505050506040513d6020811015613e5f57600080fd5b810190808051906020019092919050505083614f5f90919063ffffffff16565b9050919050565b6224ea0081565b6000809054906101000a900473ffffffffffffffffffffffffffffffffffffffff1673ffffffffffffffffffffffffffffffffffffffff163373ffffffffffffffffffffffffffffffffffffffff1614613f32576040517f08c379a000000000000000000000000000000000000000000000000000000000815260040180806020018281038252602f815260200180615866602f913960400191505060405180910390fd5b73__SafeDecimalMath_______________________63907af6c06040518163ffffffff1660e01b815260040160206040518083038186803b158015613f7657600080fd5b505af4158015613f8a573d6000803e3d6000fd5b505050506040513d6020811015613fa057600080fd5b81019080805190602001909291905050508111614008576040517f08c379a00000000000000000000000000000000000000000000000000000000081526004018080602001828103825260308152602001806158db6030913960400191505060405180910390fd5b80600d819055507fa39eacd162ee82c70b2b030a1bc8fe89adcccc61122fad4821a8772dbcc54267600d546040518082815260200191505060405180910390a150565b614053615792565b60008090505b6007805490508110156140a0576007818154811061407357fe5b906000526020600020015482826018811061408a57fe5b6020020181815250508080600101915050614059565b5090565b60096020528060005260406000206000915090508060000160009054906101000a900473ffffffffffffffffffffffffffffffffffffffff16908060010154905082565b60007f534e580000000000000000000000000000000000000000000000000000000000614113610f7c565b73ffffffffffffffffffffffffffffffffffffffff16629919c0826040518263ffffffff1660e01b81526004018082815260200191505060206040518083038186803b15801561416257600080fd5b505afa158015614176573d6000803e3d6000fd5b505050506040513d602081101561418c57600080fd5b810190808051906020019092919050505015614210576040517f08c379a00000000000000000000000000000000000000000000000000000000081526004018080602001828103825260198152602001807f52617465207374616c65206f72206e6f7420612073796e74680000000000000081525060200191505060405180910390fd5b600560009054906101000a900460ff1615614276576040517f08c379a000000000000000000000000000000000000000000000000000000000815260040180806020018281038252603c81526020018061590b603c913960400191505060405180910390fd5b61427e610f7c565b73ffffffffffffffffffffffffffffffffffffffff1663ac82f6087f534e5800000000000000000000000000000000000000000000000000000000006040518263ffffffff1660e01b81526004018082815260200191505060206040518083038186803b1580156142ee57600080fd5b505afa158015614302573d6000803e3d6000fd5b505050506040513d602081101561431857600080fd5b81019080805190602001909291905050508314614380576040517f08c379a00000000000000000000000000000000000000000000000000000000081526004018080602001828103825260258152602001806159476025913960400191505060405180910390fd5b614389846151f4565b91505092915050565b600e5481565b600360009054906101000a900460ff1681565b6000809054906101000a900473ffffffffffffffffffffffffffffffffffffffff1673ffffffffffffffffffffffffffffffffffffffff163373ffffffffffffffffffffffffffffffffffffffff1614614450576040517f08c379a000000000000000000000000000000000000000000000000000000000815260040180806020018281038252602f815260200180615866602f913960400191505060405180910390fd5b80600e819055507fdc2be810a133e01cb21a41082f15b2863d96f9fe79d1f84d7e2d5b810c5c8243600e546040518082815260200191505060405180910390a150565b6000809054906101000a900473ffffffffffffffffffffffffffffffffffffffff1673ffffffffffffffffffffffffffffffffffffffff163373ffffffffffffffffffffffffffffffffffffffff1614614538576040517f08c379a000000000000000000000000000000000000000000000000000000000815260040180806020018281038252602f815260200180615866602f913960400191505060405180910390fd5b426002819055506001600360006101000a81548160ff0219169083151502179055507fcbd94ca75b8dc45c9d80c77e851670e78843c0d75180cb81db3e2158228fa9a66224ea006040518082815260200191505060405180910390a1565b600360019054906101000a900473ffffffffffffffffffffffffffffffffffffffff1681565b600f6020528060005260406000206000915090505481565b600781815481106145e157fe5b906000526020600020016000915090505481565b6000806146bd614603610f7c565b73ffffffffffffffffffffffffffffffffffffffff1663ac82f6087f45544800000000000000000000000000000000000000000000000000000000006040518263ffffffff1660e01b81526004018082815260200191505060206040518083038186803b15801561467357600080fd5b505afa158015614687573d6000803e3d6000fd5b505050506040513d602081101561469d57600080fd5b810190808051906020019092919050505084614e6090919063ffffffff16565b90506146c881613db8565b915050919050565b6146d8614f95565b73ffffffffffffffffffffffffffffffffffffffff166323b872dd3330846040518463ffffffff1660e01b8152600401808473ffffffffffffffffffffffffffffffffffffffff1673ffffffffffffffffffffffffffffffffffffffff1681526020018373ffffffffffffffffffffffffffffffffffffffff1673ffffffffffffffffffffffffffffffffffffffff1681526020018281526020019350505050602060405180830381600087803b15801561479257600080fd5b505af11580156147a6573d6000803e3d6000fd5b505050506040513d60208110156147bc57600080fd5b810190808051906020019092919050505050600d548110156148e75761482a81600f60003373ffffffffffffffffffffffffffffffffffffffff1673ffffffffffffffffffffffffffffffffffffffff16815260200190815260200160002054614e8d90919063ffffffff16565b600f60003373ffffffffffffffffffffffffffffffffffffffff1673ffffffffffffffffffffffffffffffffffffffff168152602001908152602001600020819055507fbc3a12638d840d60760c64b39c73985a6498cf6eb8176f124995b0e07236cbd23382600d54604051808473ffffffffffffffffffffffffffffffffffffffff1673ffffffffffffffffffffffffffffffffffffffff168152602001838152602001828152602001935050505060405180910390a1614a04565b60405180604001604052803373ffffffffffffffffffffffffffffffffffffffff1681526020018281525060096000600b54815260200190815260200160002060008201518160000160006101000a81548173ffffffffffffffffffffffffffffffffffffffff021916908373ffffffffffffffffffffffffffffffffffffffff16021790555060208201518160010155905050600b543373ffffffffffffffffffffffffffffffffffffffff167fd9acabe6e09d178728ba5c366661c5be0621b4770f216305b059ec175b37e0b4836040518082815260200191505060405180910390a36149e26001600b54614e8d90919063ffffffff16565b600b819055506149fd81600c54614e8d90919063ffffffff16565b600c819055505b50565b601881565b6000809054906101000a900473ffffffffffffffffffffffffffffffffffffffff1673ffffffffffffffffffffffffffffffffffffffff163373ffffffffffffffffffffffffffffffffffffffff1614614ab1576040517f08c379a000000000000000000000000000000000000000000000000000000000815260040180806020018281038252602f815260200180615866602f913960400191505060405180910390fd5b614ab96154a6565b73ffffffffffffffffffffffffffffffffffffffff1663a9059cbb6000809054906101000a900473ffffffffffffffffffffffffffffffffffffffff16836040518363ffffffff1660e01b8152600401808373ffffffffffffffffffffffffffffffffffffffff1673ffffffffffffffffffffffffffffffffffffffff16815260200182815260200192505050602060405180830381600087803b158015614b6057600080fd5b505af1158015614b74573d6000803e3d6000fd5b505050506040513d6020811015614b8a57600080fd5b81019080805190602001909291905050505050565b60007f534e580000000000000000000000000000000000000000000000000000000000614bca610f7c565b73ffffffffffffffffffffffffffffffffffffffff16629919c0826040518263ffffffff1660e01b81526004018082815260200191505060206040518083038186803b158015614c1957600080fd5b505afa158015614c2d573d6000803e3d6000fd5b505050506040513d6020811015614c4357600080fd5b810190808051906020019092919050505015614cc7576040517f08c379a00000000000000000000000000000000000000000000000000000000081526004018080602001828103825260198152602001807f52617465207374616c65206f72206e6f7420612073796e74680000000000000081525060200191505060405180910390fd5b600560009054906101000a900460ff1615614d2d576040517f08c379a000000000000000000000000000000000000000000000000000000000815260040180806020018281038252603c81526020018061590b603c913960400191505060405180910390fd5b614d36836151f4565b915050919050565b600b5481565b6000806006600085815260200190815260200160002060009054906101000a900473ffffffffffffffffffffffffffffffffffffffff169050600073ffffffffffffffffffffffffffffffffffffffff168173ffffffffffffffffffffffffffffffffffffffff1614158390614e55576040517f08c379a00000000000000000000000000000000000000000000000000000000081526004018080602001828103825283818151815260200191508051906020019080838360005b83811015614e1a578082015181840152602081019050614dff565b50505050905090810190601f168015614e475780820380516001836020036101000a031916815260200191505b509250505060405180910390fd5b508091505092915050565b6000601260ff16600a0a614e7d838561550c90919063ffffffff16565b81614e8457fe5b04905092915050565b600080828401905083811015614f0b576040517f08c379a000000000000000000000000000000000000000000000000000000000815260040180806020018281038252601b8152602001807f536166654d6174683a206164646974696f6e206f766572666c6f77000000000081525060200191505060405180910390fd5b8091505092915050565b6000614f5783836040518060400160405280601e81526020017f536166654d6174683a207375627472616374696f6e206f766572666c6f770000815250615592565b905092915050565b6000614f8d82614f7f601260ff16600a0a8661550c90919063ffffffff16565b61565290919063ffffffff16565b905092915050565b6000614ff67f53796e74687355534400000000000000000000000000000000000000000000006040518060400160405280601981526020017f4d697373696e672053796e746873555344206164647265737300000000000000815250614d44565b905090565b600080615007346145f5565b9050600860009054906101000a900473ffffffffffffffffffffffffffffffffffffffff1673ffffffffffffffffffffffffffffffffffffffff166108fc349081150290604051600060405180830381858888f19350505050158015615071573d6000803e3d6000fd5b5061507a6154a6565b73ffffffffffffffffffffffffffffffffffffffff1663a9059cbb33836040518363ffffffff1660e01b8152600401808373ffffffffffffffffffffffffffffffffffffffff1673ffffffffffffffffffffffffffffffffffffffff16815260200182815260200192505050602060405180830381600087803b15801561510057600080fd5b505af1158015615114573d6000803e3d6000fd5b505050506040513d602081101561512a57600080fd5b8101908080519060200190929190505050507fdb1741ffc6844b04a9284bb6337fb0ccfe543a493ef0ac8e725242201e93d4bd3482604051808060200184815260200180602001848152602001838103835260038152602001807f4554480000000000000000000000000000000000000000000000000000000000815250602001838103825260038152602001807f534e58000000000000000000000000000000000000000000000000000000000081525060200194505050505060405180910390a18091505090565b60008061520083613db8565b905061520a614f95565b73ffffffffffffffffffffffffffffffffffffffff166323b872dd33600860009054906101000a900473ffffffffffffffffffffffffffffffffffffffff16866040518463ffffffff1660e01b8152600401808473ffffffffffffffffffffffffffffffffffffffff1673ffffffffffffffffffffffffffffffffffffffff1681526020018373ffffffffffffffffffffffffffffffffffffffff1673ffffffffffffffffffffffffffffffffffffffff1681526020018281526020019350505050602060405180830381600087803b1580156152e657600080fd5b505af11580156152fa573d6000803e3d6000fd5b505050506040513d602081101561531057600080fd5b81019080805190602001909291905050505061532a6154a6565b73ffffffffffffffffffffffffffffffffffffffff1663a9059cbb33836040518363ffffffff1660e01b8152600401808373ffffffffffffffffffffffffffffffffffffffff1673ffffffffffffffffffffffffffffffffffffffff16815260200182815260200192505050602060405180830381600087803b1580156153b057600080fd5b505af11580156153c4573d6000803e3d6000fd5b505050506040513d60208110156153da57600080fd5b8101908080519060200190929190505050507fdb1741ffc6844b04a9284bb6337fb0ccfe543a493ef0ac8e725242201e93d4bd8382604051808060200184815260200180602001848152602001838103835260048152602001807f7355534400000000000000000000000000000000000000000000000000000000815250602001838103825260038152602001807f534e58000000000000000000000000000000000000000000000000000000000081525060200194505050505060405180910390a180915050919050565b60006155077f53796e74686574697800000000000000000000000000000000000000000000006040518060400160405280601981526020017f4d697373696e672053796e746865746978206164647265737300000000000000815250614d44565b905090565b60008083141561551f576000905061558c565b600082840290508284828161553057fe5b0414615587576040517f08c379a00000000000000000000000000000000000000000000000000000000081526004018080602001828103825260218152602001806158956021913960400191505060405180910390fd5b809150505b92915050565b600083831115829061563f576040517f08c379a00000000000000000000000000000000000000000000000000000000081526004018080602001828103825283818151815260200191508051906020019080838360005b838110156156045780820151818401526020810190506155e9565b50505050905090810190601f1680156156315780820380516001836020036101000a031916815260200191505b509250505060405180910390fd5b5060008385039050809150509392505050565b600061569483836040518060400160405280601a81526020017f536166654d6174683a206469766973696f6e206279207a65726f00000000000081525061569c565b905092915050565b60008083118290615748576040517f08c379a00000000000000000000000000000000000000000000000000000000081526004018080602001828103825283818151815260200191508051906020019080838360005b8381101561570d5780820151818401526020810190506156f2565b50505050905090810190601f16801561573a5780820380516001836020036101000a031916815260200191505b509250505060405180910390fd5b50600083858161575457fe5b049050809150509392505050565b6040518060400160405280600073ffffffffffffffffffffffffffffffffffffffff168152602001600081525090565b60405180610300016040528060189060208202803883398082019150509050509056fe47756172616e74656564206574686572207261746520776f756c64206e6f74206265207265636569766564596f75206d757374206265206e6f6d696e61746564206265666f726520796f752063616e20616363657074206f776e65727368697047756172616e746565642073796e746865746978207261746520776f756c64206e6f74206265207265636569766564596f752068617665206e6f206465706f7369747320746f2077697468647261772e4f6e6c792074686520636f6e7472616374206f776e6572206d617920706572666f726d207468697320616374696f6e536166654d6174683a206d756c7469706c69636174696f6e206f766572666c6f7745544820616d6f756e742061626f7665206d61784574685075726368617365206c696d69744d696e696d756d206465706f73697420616d6f756e74206d7573742062652067726561746572207468616e20554e49545468697320616374696f6e2063616e6e6f7420626520706572666f726d6564207768696c652074686520636f6e74726163742069732070617573656447756172616e74656564207261746520776f756c64206e6f74206265207265636569766564a265627a7a72315820f945856724e97b91c25ff77d42070c9ac7580cb1e6717d4b38e10ae0739b89e864736f6c63430005100032",
  "deployedBytecode": "0x6080604052600436106102675760003560e01c806391b4ded911610144578063bb7df172116100b6578063c8d889f21161007a578063c8d889f214610e12578063dc8fa6c214610e61578063e3235c9114610e9c578063e6d76a7614610ec7578063f852d39314610f02578063fd12167f14610f5157610267565b8063bb7df17214610cb5578063bd32aa4414610cf0578063c58aaae614610d07578063c6abb7c714610d5e578063c6c9d82814610dc357610267565b8063aab483d611610108578063aab483d614610af2578063ab49848c14610b2d578063b02c43d014610b80578063b0c2cb9614610c02578063b1338cc414610c5b578063b8225dec14610c8657610267565b806391b4ded9146109ea5780639342c0eb14610a155780639cb8a26a14610a61578063a3d8829b14610a78578063a461fc8214610ac757610267565b80633278c960116101dd578063631e1444116101a1578063631e14441461088057806364e39b87146108e95780636d5ab4a91461093a57806379ba50971461096557806381b797dc1461097c5780638da5cb5b1461099357610267565b80633278c960146107675780633be99e6f1461077e5780634d0387fb146107cf57806353a47bb7146107fa5780635c975abb1461085157610267565b80631627540c1161022f5780631627540c146105e857806316c38b3c1461063957806317c70de4146106765780631f930115146106a157806320714f88146106bf5780632194f3a21461071057610267565b806302279438146104b757806304f3bcec146104d5578063080c279a1461052c5780630c928bc2146105575780630c928f0514610599575b600560019054906101000a900460ff166102e9576040517f08c379a000000000000000000000000000000000000000000000000000000000815260040180806020018281038252601f8152602001807f5265656e7472616e637947756172643a207265656e7472616e742063616c6c0081525060200191505060405180910390fd5b6000600560016101000a81548160ff0219169083151502179055507f455448000000000000000000000000000000000000000000000000000000000061032d610f7c565b73ffffffffffffffffffffffffffffffffffffffff16629919c0826040518263ffffffff1660e01b81526004018082815260200191505060206040518083038186803b15801561037c57600080fd5b505afa158015610390573d6000803e3d6000fd5b505050506040513d60208110156103a657600080fd5b81019080805190602001909291905050501561042a576040517f08c379a00000000000000000000000000000000000000000000000000000000081526004018080602001828103825260198152602001807f52617465207374616c65206f72206e6f7420612073796e74680000000000000081525060200191505060405180910390fd5b600560009054906101000a900460ff1615610490576040517f08c379a000000000000000000000000000000000000000000000000000000000815260040180806020018281038252603c81526020018061590b603c913960400191505060405180910390fd5b610498610fe2565b50506001600560016101000a81548160ff021916908315150217905550005b6104bf611ba5565b6040518082815260200191505060405180910390f35b3480156104e157600080fd5b506104ea611e68565b604051808273ffffffffffffffffffffffffffffffffffffffff1673ffffffffffffffffffffffffffffffffffffffff16815260200191505060405180910390f35b34801561053857600080fd5b50610541611e8e565b6040518082815260200191505060405180910390f35b6105836004803603602081101561056d57600080fd5b8101908080359060200190929190505050611e94565b6040518082815260200191505060405180910390f35b3480156105a557600080fd5b506105d2600480360360208110156105bc57600080fd5b810190808035906020019092919050505061213c565b6040518082815260200191505060405180910390f35b3480156105f457600080fd5b506106376004803603602081101561060b57600080fd5b81019080803573ffffffffffffffffffffffffffffffffffffffff16906020019092919050505061220a565b005b34801561064557600080fd5b506106746004803603602081101561065c57600080fd5b81019080803515159060200190929190505050612356565b005b34801561068257600080fd5b5061068b6124a0565b6040518082815260200191505060405180910390f35b6106a96124a6565b6040518082815260200191505060405180910390f35b3480156106cb57600080fd5b5061070e600480360360208110156106e257600080fd5b81019080803573ffffffffffffffffffffffffffffffffffffffff1690602001909291905050506126fa565b005b34801561071c57600080fd5b506107256128e9565b604051808273ffffffffffffffffffffffffffffffffffffffff1673ffffffffffffffffffffffffffffffffffffffff16815260200191505060405180910390f35b34801561077357600080fd5b5061077c61290f565b005b34801561078a57600080fd5b506107cd600480360360208110156107a157600080fd5b81019080803573ffffffffffffffffffffffffffffffffffffffff169060200190929190505050612a05565b005b3480156107db57600080fd5b506107e4612c64565b6040518082815260200191505060405180910390f35b34801561080657600080fd5b5061080f612c6a565b604051808273ffffffffffffffffffffffffffffffffffffffff1673ffffffffffffffffffffffffffffffffffffffff16815260200191505060405180910390f35b34801561085d57600080fd5b50610866612c90565b604051808215151515815260200191505060405180910390f35b34801561088c57600080fd5b506108cf600480360360208110156108a357600080fd5b81019080803573ffffffffffffffffffffffffffffffffffffffff169060200190929190505050612ca3565b604051808215151515815260200191505060405180910390f35b3480156108f557600080fd5b506109386004803603602081101561090c57600080fd5b81019080803573ffffffffffffffffffffffffffffffffffffffff169060200190929190505050612ed5565b005b34801561094657600080fd5b5061094f613043565b6040518082815260200191505060405180910390f35b34801561097157600080fd5b5061097a613049565b005b34801561098857600080fd5b5061099161326f565b005b34801561099f57600080fd5b506109a8613650565b604051808273ffffffffffffffffffffffffffffffffffffffff1673ffffffffffffffffffffffffffffffffffffffff16815260200191505060405180910390f35b3480156109f657600080fd5b506109ff613675565b6040518082815260200191505060405180910390f35b610a4b60048036036040811015610a2b57600080fd5b81019080803590602001909291908035906020019092919050505061367b565b6040518082815260200191505060405180910390f35b348015610a6d57600080fd5b50610a76613b55565b005b348015610a8457600080fd5b50610ab160048036036020811015610a9b57600080fd5b8101908080359060200190929190505050613db8565b6040518082815260200191505060405180910390f35b348015610ad357600080fd5b50610adc613e86565b6040518082815260200191505060405180910390f35b348015610afe57600080fd5b50610b2b60048036036020811015610b1557600080fd5b8101908080359060200190929190505050613e8d565b005b348015610b3957600080fd5b50610b4261404b565b6040518082601860200280838360005b83811015610b6d578082015181840152602081019050610b52565b5050505090500191505060405180910390f35b348015610b8c57600080fd5b50610bb960048036036020811015610ba357600080fd5b81019080803590602001909291905050506140a4565b604051808373ffffffffffffffffffffffffffffffffffffffff1673ffffffffffffffffffffffffffffffffffffffff1681526020018281526020019250505060405180910390f35b348015610c0e57600080fd5b50610c4560048036036040811015610c2557600080fd5b8101908080359060200190929190803590602001909291905050506140e8565b6040518082815260200191505060405180910390f35b348015610c6757600080fd5b50610c70614392565b6040518082815260200191505060405180910390f35b348015610c9257600080fd5b50610c9b614398565b604051808215151515815260200191505060405180910390f35b348015610cc157600080fd5b50610cee60048036036020811015610cd857600080fd5b81019080803590602001909291905050506143ab565b005b348015610cfc57600080fd5b50610d05614493565b005b348015610d1357600080fd5b50610d1c614596565b604051808273ffffffffffffffffffffffffffffffffffffffff1673ffffffffffffffffffffffffffffffffffffffff16815260200191505060405180910390f35b348015610d6a57600080fd5b50610dad60048036036020811015610d8157600080fd5b81019080803573ffffffffffffffffffffffffffffffffffffffff1690602001909291905050506145bc565b6040518082815260200191505060405180910390f35b348015610dcf57600080fd5b50610dfc60048036036020811015610de657600080fd5b81019080803590602001909291905050506145d4565b6040518082815260200191505060405180910390f35b348015610e1e57600080fd5b50610e4b60048036036020811015610e3557600080fd5b81019080803590602001909291905050506145f5565b6040518082815260200191505060405180910390f35b348015610e6d57600080fd5b50610e9a60048036036020811015610e8457600080fd5b81019080803590602001909291905050506146d0565b005b348015610ea857600080fd5b50610eb1614a07565b6040518082815260200191505060405180910390f35b348015610ed357600080fd5b50610f0060048036036020811015610eea57600080fd5b8101908080359060200190929190505050614a0c565b005b348015610f0e57600080fd5b50610f3b60048036036020811015610f2557600080fd5b8101908080359060200190929190505050614b9f565b6040518082815260200191505060405180910390f35b348015610f5d57600080fd5b50610f66614d3e565b6040518082815260200191505060405180910390f35b6000610fdd7f45786368616e67655261746573000000000000000000000000000000000000006040518060400160405280601d81526020017f4d697373696e672045786368616e676552617465732061646472657373000000815250614d44565b905090565b6000600e5434111561103f576040517f08c379a00000000000000000000000000000000000000000000000000000000081526004018080602001828103825260258152602001806158b66025913960400191505060405180910390fd5b60008061110761104d610f7c565b73ffffffffffffffffffffffffffffffffffffffff1663ac82f6087f45544800000000000000000000000000000000000000000000000000000000006040518263ffffffff1660e01b81526004018082815260200191505060206040518083038186803b1580156110bd57600080fd5b505afa1580156110d1573d6000803e3d6000fd5b505050506040513d60208110156110e757600080fd5b810190808051906020019092919050505034614e6090919063ffffffff16565b905060008190506000600a5490505b6000821180156111275750600b5481105b156119b357611134615762565b600960008381526020019081526020016000206040518060400160405290816000820160009054906101000a900473ffffffffffffffffffffffffffffffffffffffff1673ffffffffffffffffffffffffffffffffffffffff1673ffffffffffffffffffffffffffffffffffffffff1681526020016001820154815250509050600073ffffffffffffffffffffffffffffffffffffffff16816000015173ffffffffffffffffffffffffffffffffffffffff16141561120e576112036001600a54614e8d90919063ffffffff16565b600a819055506119a5565b82816020015111156115f1576000611233848360200151614f1590919063ffffffff16565b90506040518060400160405280836000015173ffffffffffffffffffffffffffffffffffffffff168152602001828152506009600085815260200190815260200160002060008201518160000160006101000a81548173ffffffffffffffffffffffffffffffffffffffff021916908373ffffffffffffffffffffffffffffffffffffffff160217905550602082015181600101559050506112e084600c54614f1590919063ffffffff16565b600c819055506113ab6112f1610f7c565b73ffffffffffffffffffffffffffffffffffffffff1663ac82f6087f45544800000000000000000000000000000000000000000000000000000000006040518263ffffffff1660e01b81526004018082815260200191505060206040518083038186803b15801561136157600080fd5b505afa158015611375573d6000803e3d6000fd5b505050506040513d602081101561138b57600080fd5b810190808051906020019092919050505085614f5f90919063ffffffff16565b9550816000015173ffffffffffffffffffffffffffffffffffffffff166108fc879081150290604051600060405180830381858888f193505050506114aa57600860009054906101000a900473ffffffffffffffffffffffffffffffffffffffff1673ffffffffffffffffffffffffffffffffffffffff166108fc879081150290604051600060405180830381858888f19350505050158015611452573d6000803e3d6000fd5b50816000015173ffffffffffffffffffffffffffffffffffffffff167ff2435d3901399daa085f8b58d2409fff9b83ce4ca97c1f144b532f5a08b1c96c876040518082815260200191505060405180910390a261151d565b82826000015173ffffffffffffffffffffffffffffffffffffffff163373ffffffffffffffffffffffffffffffffffffffff167f6d957e9e816107f67cb7118461e3c259e96896f80223c9af2972596c2fdd401c8988604051808381526020018281526020019250505060405180910390a45b611525614f95565b73ffffffffffffffffffffffffffffffffffffffff1663a9059cbb33866040518363ffffffff1660e01b8152600401808373ffffffffffffffffffffffffffffffffffffffff1673ffffffffffffffffffffffffffffffffffffffff16815260200182815260200192505050602060405180830381600087803b1580156115ab57600080fd5b505af11580156115bf573d6000803e3d6000fd5b505050506040513d60208110156115d557600080fd5b81019080805190602001909291905050505060009350506119a4565b828160200151116119a35760096000838152602001908152602001600020600080820160006101000a81549073ffffffffffffffffffffffffffffffffffffffff0219169055600182016000905550506116576001600a54614e8d90919063ffffffff16565b600a819055506116768160200151600c54614f1590919063ffffffff16565b600c81905550611745611687610f7c565b73ffffffffffffffffffffffffffffffffffffffff1663ac82f6087f45544800000000000000000000000000000000000000000000000000000000006040518263ffffffff1660e01b81526004018082815260200191505060206040518083038186803b1580156116f757600080fd5b505afa15801561170b573d6000803e3d6000fd5b505050506040513d602081101561172157600080fd5b81019080805190602001909291905050508260200151614f5f90919063ffffffff16565b9450806000015173ffffffffffffffffffffffffffffffffffffffff166108fc869081150290604051600060405180830381858888f1935050505061184457600860009054906101000a900473ffffffffffffffffffffffffffffffffffffffff1673ffffffffffffffffffffffffffffffffffffffff166108fc869081150290604051600060405180830381858888f193505050501580156117ec573d6000803e3d6000fd5b50806000015173ffffffffffffffffffffffffffffffffffffffff167ff2435d3901399daa085f8b58d2409fff9b83ce4ca97c1f144b532f5a08b1c96c866040518082815260200191505060405180910390a26118bb565b81816000015173ffffffffffffffffffffffffffffffffffffffff163373ffffffffffffffffffffffffffffffffffffffff167f6d957e9e816107f67cb7118461e3c259e96896f80223c9af2972596c2fdd401c888560200151604051808381526020018281526020019250505060405180910390a45b6118c3614f95565b73ffffffffffffffffffffffffffffffffffffffff1663a9059cbb3383602001516040518363ffffffff1660e01b8152600401808373ffffffffffffffffffffffffffffffffffffffff1673ffffffffffffffffffffffffffffffffffffffff16815260200182815260200192505050602060405180830381600087803b15801561194d57600080fd5b505af1158015611961573d6000803e3d6000fd5b505050506040513d602081101561197757600080fd5b8101908080519060200190929190505050506119a0816020015184614f1590919063ffffffff16565b92505b5b5b508080600101915050611116565b506000811115611ac9573373ffffffffffffffffffffffffffffffffffffffff166108fc611a9c6119e2610f7c565b73ffffffffffffffffffffffffffffffffffffffff1663ac82f6087f45544800000000000000000000000000000000000000000000000000000000006040518263ffffffff1660e01b81526004018082815260200191505060206040518083038186803b158015611a5257600080fd5b505afa158015611a66573d6000803e3d6000fd5b505050506040513d6020811015611a7c57600080fd5b810190808051906020019092919050505084614f5f90919063ffffffff16565b9081150290604051600060405180830381858888f19350505050158015611ac7573d6000803e3d6000fd5b505b6000611ade8284614f1590919063ffffffff16565b90506000811115611b9b577fdb1741ffc6844b04a9284bb6337fb0ccfe543a493ef0ac8e725242201e93d4bd3482604051808060200184815260200180602001848152602001838103835260038152602001807f4554480000000000000000000000000000000000000000000000000000000000815250602001838103825260048152602001807f735553440000000000000000000000000000000000000000000000000000000081525060200194505050505060405180910390a15b8094505050505090565b60007f534e580000000000000000000000000000000000000000000000000000000000611bd0610f7c565b73ffffffffffffffffffffffffffffffffffffffff16629919c0826040518263ffffffff1660e01b81526004018082815260200191505060206040518083038186803b158015611c1f57600080fd5b505afa158015611c33573d6000803e3d6000fd5b505050506040513d6020811015611c4957600080fd5b810190808051906020019092919050505015611ccd576040517f08c379a00000000000000000000000000000000000000000000000000000000081526004018080602001828103825260198152602001807f52617465207374616c65206f72206e6f7420612073796e74680000000000000081525060200191505060405180910390fd5b7f4554480000000000000000000000000000000000000000000000000000000000611cf6610f7c565b73ffffffffffffffffffffffffffffffffffffffff16629919c0826040518263ffffffff1660e01b81526004018082815260200191505060206040518083038186803b158015611d4557600080fd5b505afa158015611d59573d6000803e3d6000fd5b505050506040513d6020811015611d6f57600080fd5b810190808051906020019092919050505015611df3576040517f08c379a00000000000000000000000000000000000000000000000000000000081526004018080602001828103825260198152602001807f52617465207374616c65206f72206e6f7420612073796e74680000000000000081525060200191505060405180910390fd5b600560009054906101000a900460ff1615611e59576040517f08c379a000000000000000000000000000000000000000000000000000000000815260040180806020018281038252603c81526020018061590b603c913960400191505060405180910390fd5b611e61614ffb565b9250505090565b600560029054906101000a900473ffffffffffffffffffffffffffffffffffffffff1681565b600d5481565b60007f4554480000000000000000000000000000000000000000000000000000000000611ebf610f7c565b73ffffffffffffffffffffffffffffffffffffffff16629919c0826040518263ffffffff1660e01b81526004018082815260200191505060206040518083038186803b158015611f0e57600080fd5b505afa158015611f22573d6000803e3d6000fd5b505050506040513d6020811015611f3857600080fd5b810190808051906020019092919050505015611fbc576040517f08c379a00000000000000000000000000000000000000000000000000000000081526004018080602001828103825260198152602001807f52617465207374616c65206f72206e6f7420612073796e74680000000000000081525060200191505060405180910390fd5b600560009054906101000a900460ff1615612022576040517f08c379a000000000000000000000000000000000000000000000000000000000815260040180806020018281038252603c81526020018061590b603c913960400191505060405180910390fd5b61202a610f7c565b73ffffffffffffffffffffffffffffffffffffffff1663ac82f6087f45544800000000000000000000000000000000000000000000000000000000006040518263ffffffff1660e01b81526004018082815260200191505060206040518083038186803b15801561209a57600080fd5b505afa1580156120ae573d6000803e3d6000fd5b505050506040513d60208110156120c457600080fd5b8101908080519060200190929190505050831461212c576040517f08c379a00000000000000000000000000000000000000000000000000000000081526004018080602001828103825260258152602001806159476025913960400191505060405180910390fd5b612134610fe2565b915050919050565b6000612203612149610f7c565b73ffffffffffffffffffffffffffffffffffffffff1663ac82f6087f45544800000000000000000000000000000000000000000000000000000000006040518263ffffffff1660e01b81526004018082815260200191505060206040518083038186803b1580156121b957600080fd5b505afa1580156121cd573d6000803e3d6000fd5b505050506040513d60208110156121e357600080fd5b810190808051906020019092919050505083614e6090919063ffffffff16565b9050919050565b6000809054906101000a900473ffffffffffffffffffffffffffffffffffffffff1673ffffffffffffffffffffffffffffffffffffffff163373ffffffffffffffffffffffffffffffffffffffff16146122af576040517f08c379a000000000000000000000000000000000000000000000000000000000815260040180806020018281038252602f815260200180615866602f913960400191505060405180910390fd5b80600160006101000a81548173ffffffffffffffffffffffffffffffffffffffff021916908373ffffffffffffffffffffffffffffffffffffffff1602179055507f906a1c6bd7e3091ea86693dd029a831c19049ce77f1dce2ce0bab1cacbabce2281604051808273ffffffffffffffffffffffffffffffffffffffff1673ffffffffffffffffffffffffffffffffffffffff16815260200191505060405180910390a150565b6000809054906101000a900473ffffffffffffffffffffffffffffffffffffffff1673ffffffffffffffffffffffffffffffffffffffff163373ffffffffffffffffffffffffffffffffffffffff16146123fb576040517f08c379a000000000000000000000000000000000000000000000000000000000815260040180806020018281038252602f815260200180615866602f913960400191505060405180910390fd5b600560009054906101000a900460ff161515811515141561241b5761249d565b80600560006101000a81548160ff021916908315150217905550600560009054906101000a900460ff161561245257426004819055505b7f8fb6c181ee25a520cf3dd6565006ef91229fcfe5a989566c2a3b8c115570cec5600560009054906101000a900460ff16604051808215151515815260200191505060405180910390a15b50565b60025481565b6000600560019054906101000a900460ff1661252a576040517f08c379a000000000000000000000000000000000000000000000000000000000815260040180806020018281038252601f8152602001807f5265656e7472616e637947756172643a207265656e7472616e742063616c6c0081525060200191505060405180910390fd5b6000600560016101000a81548160ff0219169083151502179055507f455448000000000000000000000000000000000000000000000000000000000061256e610f7c565b73ffffffffffffffffffffffffffffffffffffffff16629919c0826040518263ffffffff1660e01b81526004018082815260200191505060206040518083038186803b1580156125bd57600080fd5b505afa1580156125d1573d6000803e3d6000fd5b505050506040513d60208110156125e757600080fd5b81019080805190602001909291905050501561266b576040517f08c379a00000000000000000000000000000000000000000000000000000000081526004018080602001828103825260198152602001807f52617465207374616c65206f72206e6f7420612073796e74680000000000000081525060200191505060405180910390fd5b600560009054906101000a900460ff16156126d1576040517f08c379a000000000000000000000000000000000000000000000000000000000815260040180806020018281038252603c81526020018061590b603c913960400191505060405180910390fd5b6126d9610fe2565b9150506001600560016101000a81548160ff02191690831515021790555090565b6000809054906101000a900473ffffffffffffffffffffffffffffffffffffffff1673ffffffffffffffffffffffffffffffffffffffff163373ffffffffffffffffffffffffffffffffffffffff161461279f576040517f08c379a000000000000000000000000000000000000000000000000000000000815260040180806020018281038252602f815260200180615866602f913960400191505060405180910390fd5b600073ffffffffffffffffffffffffffffffffffffffff168173ffffffffffffffffffffffffffffffffffffffff161415612842576040517f08c379a000000000000000000000000000000000000000000000000000000000815260040180806020018281038252601c8152602001807f42656e6566696369617279206d757374206e6f74206265207a65726f0000000081525060200191505060405180910390fd5b80600360016101000a81548173ffffffffffffffffffffffffffffffffffffffff021916908373ffffffffffffffffffffffffffffffffffffffff1602179055507fd5da63a0b864b315bc04128dedbc93888c8529ee6cf47ce664dc204339228c5381604051808273ffffffffffffffffffffffffffffffffffffffff1673ffffffffffffffffffffffffffffffffffffffff16815260200191505060405180910390a150565b600860009054906101000a900473ffffffffffffffffffffffffffffffffffffffff1681565b6000809054906101000a900473ffffffffffffffffffffffffffffffffffffffff1673ffffffffffffffffffffffffffffffffffffffff163373ffffffffffffffffffffffffffffffffffffffff16146129b4576040517f08c379a000000000000000000000000000000000000000000000000000000000815260040180806020018281038252602f815260200180615866602f913960400191505060405180910390fd5b60006002819055506000600360006101000a81548160ff0219169083151502179055507f6adcc7125002935e0aa31697538ebbd65cfddf20431eb6ecdcfc3e238bfd082c60405160405180910390a1565b6000809054906101000a900473ffffffffffffffffffffffffffffffffffffffff1673ffffffffffffffffffffffffffffffffffffffff163373ffffffffffffffffffffffffffffffffffffffff1614612aaa576040517f08c379a000000000000000000000000000000000000000000000000000000000815260040180806020018281038252602f815260200180615866602f913960400191505060405180910390fd5b80600560026101000a81548173ffffffffffffffffffffffffffffffffffffffff021916908373ffffffffffffffffffffffffffffffffffffffff16021790555060008090505b600780549050811015612c6057600060078281548110612b0d57fe5b90600052602060002001549050600560029054906101000a900473ffffffffffffffffffffffffffffffffffffffff1673ffffffffffffffffffffffffffffffffffffffff1663dacb2d01826040518263ffffffff1660e01b81526004018082815260200180602001828103825260178152602001807f5265736f6c766572206d697373696e67207461726765740000000000000000008152506020019250505060206040518083038186803b158015612bc657600080fd5b505afa158015612bda573d6000803e3d6000fd5b505050506040513d6020811015612bf057600080fd5b81019080805190602001909291905050506006600083815260200190815260200160002060006101000a81548173ffffffffffffffffffffffffffffffffffffffff021916908373ffffffffffffffffffffffffffffffffffffffff160217905550508080600101915050612af1565b5050565b600c5481565b600160009054906101000a900473ffffffffffffffffffffffffffffffffffffffff1681565b600560009054906101000a900460ff1681565b60008173ffffffffffffffffffffffffffffffffffffffff16600560029054906101000a900473ffffffffffffffffffffffffffffffffffffffff1673ffffffffffffffffffffffffffffffffffffffff1614612d035760009050612ed0565b60008090505b600780549050811015612eca57600060078281548110612d2557fe5b906000526020600020015490506006600082815260200190815260200160002060009054906101000a900473ffffffffffffffffffffffffffffffffffffffff1673ffffffffffffffffffffffffffffffffffffffff16600560029054906101000a900473ffffffffffffffffffffffffffffffffffffffff1673ffffffffffffffffffffffffffffffffffffffff166321f8a721836040518263ffffffff1660e01b81526004018082815260200191505060206040518083038186803b158015612def57600080fd5b505afa158015612e03573d6000803e3d6000fd5b505050506040513d6020811015612e1957600080fd5b810190808051906020019092919050505073ffffffffffffffffffffffffffffffffffffffff16141580612eac5750600073ffffffffffffffffffffffffffffffffffffffff166006600083815260200190815260200160002060009054906101000a900473ffffffffffffffffffffffffffffffffffffffff1673ffffffffffffffffffffffffffffffffffffffff16145b15612ebc57600092505050612ed0565b508080600101915050612d09565b50600190505b919050565b6000809054906101000a900473ffffffffffffffffffffffffffffffffffffffff1673ffffffffffffffffffffffffffffffffffffffff163373ffffffffffffffffffffffffffffffffffffffff1614612f7a576040517f08c379a000000000000000000000000000000000000000000000000000000000815260040180806020018281038252602f815260200180615866602f913960400191505060405180910390fd5b80600860006101000a81548173ffffffffffffffffffffffffffffffffffffffff021916908373ffffffffffffffffffffffffffffffffffffffff1602179055507f4deb077bf9c4bc824cc2c989e01a5e53b0a4ecc44c5039d46abc9ffc88f8a050600860009054906101000a900473ffffffffffffffffffffffffffffffffffffffff16604051808273ffffffffffffffffffffffffffffffffffffffff1673ffffffffffffffffffffffffffffffffffffffff16815260200191505060405180910390a150565b600a5481565b600160009054906101000a900473ffffffffffffffffffffffffffffffffffffffff1673ffffffffffffffffffffffffffffffffffffffff163373ffffffffffffffffffffffffffffffffffffffff16146130ef576040517f08c379a00000000000000000000000000000000000000000000000000000000081526004018080602001828103825260358152602001806157e16035913960400191505060405180910390fd5b7fb532073b38c83145e3e5135377a08bf9aab55bc0fd7c1179cd4fb995d2a5159c6000809054906101000a900473ffffffffffffffffffffffffffffffffffffffff16600160009054906101000a900473ffffffffffffffffffffffffffffffffffffffff16604051808373ffffffffffffffffffffffffffffffffffffffff1673ffffffffffffffffffffffffffffffffffffffff1681526020018273ffffffffffffffffffffffffffffffffffffffff1673ffffffffffffffffffffffffffffffffffffffff1681526020019250505060405180910390a1600160009054906101000a900473ffffffffffffffffffffffffffffffffffffffff166000806101000a81548173ffffffffffffffffffffffffffffffffffffffff021916908373ffffffffffffffffffffffffffffffffffffffff1602179055506000600160006101000a81548173ffffffffffffffffffffffffffffffffffffffff021916908373ffffffffffffffffffffffffffffffffffffffff160217905550565b60008090506000600a5490505b600b5481101561340a5761328e615762565b600960008381526020019081526020016000206040518060400160405290816000820160009054906101000a900473ffffffffffffffffffffffffffffffffffffffff1673ffffffffffffffffffffffffffffffffffffffff1673ffffffffffffffffffffffffffffffffffffffff16815260200160018201548152505090503373ffffffffffffffffffffffffffffffffffffffff16816000015173ffffffffffffffffffffffffffffffffffffffff1614156133fc5761335d816020015184614e8d90919063ffffffff16565b925060096000838152602001908152602001600020600080820160006101000a81549073ffffffffffffffffffffffffffffffffffffffff02191690556001820160009055505081816000015173ffffffffffffffffffffffffffffffffffffffff167f3aa2b18eace5e5727a4ab525921b9b0a1ca1afdb0f96b599e3ab2d76cb5e7f7283602001516040518082815260200191505060405180910390a35b50808060010191505061327c565b5061342081600c54614f1590919063ffffffff16565b600c81905550613478600f60003373ffffffffffffffffffffffffffffffffffffffff1673ffffffffffffffffffffffffffffffffffffffff1681526020019081526020016000205482614e8d90919063ffffffff16565b90506000600f60003373ffffffffffffffffffffffffffffffffffffffff1673ffffffffffffffffffffffffffffffffffffffff1681526020019081526020016000208190555060008111613518576040517f08c379a00000000000000000000000000000000000000000000000000000000081526004018080602001828103825260218152602001806158456021913960400191505060405180910390fd5b613520614f95565b73ffffffffffffffffffffffffffffffffffffffff1663a9059cbb33836040518363ffffffff1660e01b8152600401808373ffffffffffffffffffffffffffffffffffffffff1673ffffffffffffffffffffffffffffffffffffffff16815260200182815260200192505050602060405180830381600087803b1580156135a657600080fd5b505af11580156135ba573d6000803e3d6000fd5b505050506040513d60208110156135d057600080fd5b8101908080519060200190929190505050507faf6ec623f558c7b3527ff6c9c09432c7d81a3d38bd2e1eaaee2efe7aac23c28b3382604051808373ffffffffffffffffffffffffffffffffffffffff1673ffffffffffffffffffffffffffffffffffffffff1681526020018281526020019250505060405180910390a150565b6000809054906101000a900473ffffffffffffffffffffffffffffffffffffffff1681565b60045481565b60007f534e5800000000000000000000000000000000000000000000000000000000006136a6610f7c565b73ffffffffffffffffffffffffffffffffffffffff16629919c0826040518263ffffffff1660e01b81526004018082815260200191505060206040518083038186803b1580156136f557600080fd5b505afa158015613709573d6000803e3d6000fd5b505050506040513d602081101561371f57600080fd5b8101908080519060200190929190505050156137a3576040517f08c379a00000000000000000000000000000000000000000000000000000000081526004018080602001828103825260198152602001807f52617465207374616c65206f72206e6f7420612073796e74680000000000000081525060200191505060405180910390fd5b7f45544800000000000000000000000000000000000000000000000000000000006137cc610f7c565b73ffffffffffffffffffffffffffffffffffffffff16629919c0826040518263ffffffff1660e01b81526004018082815260200191505060206040518083038186803b15801561381b57600080fd5b505afa15801561382f573d6000803e3d6000fd5b505050506040513d602081101561384557600080fd5b8101908080519060200190929190505050156138c9576040517f08c379a00000000000000000000000000000000000000000000000000000000081526004018080602001828103825260198152602001807f52617465207374616c65206f72206e6f7420612073796e74680000000000000081525060200191505060405180910390fd5b600560009054906101000a900460ff161561392f576040517f08c379a000000000000000000000000000000000000000000000000000000000815260040180806020018281038252603c81526020018061590b603c913960400191505060405180910390fd5b613937610f7c565b73ffffffffffffffffffffffffffffffffffffffff1663ac82f6087f45544800000000000000000000000000000000000000000000000000000000006040518263ffffffff1660e01b81526004018082815260200191505060206040518083038186803b1580156139a757600080fd5b505afa1580156139bb573d6000803e3d6000fd5b505050506040513d60208110156139d157600080fd5b81019080805190602001909291905050508514613a39576040517f08c379a000000000000000000000000000000000000000000000000000000000815260040180806020018281038252602b8152602001806157b6602b913960400191505060405180910390fd5b613a41610f7c565b73ffffffffffffffffffffffffffffffffffffffff1663ac82f6087f534e5800000000000000000000000000000000000000000000000000000000006040518263ffffffff1660e01b81526004018082815260200191505060206040518083038186803b158015613ab157600080fd5b505afa158015613ac5573d6000803e3d6000fd5b505050506040513d6020811015613adb57600080fd5b81019080805190602001909291905050508414613b43576040517f08c379a000000000000000000000000000000000000000000000000000000000815260040180806020018281038252602f815260200180615816602f913960400191505060405180910390fd5b613b4b614ffb565b9250505092915050565b6000809054906101000a900473ffffffffffffffffffffffffffffffffffffffff1673ffffffffffffffffffffffffffffffffffffffff163373ffffffffffffffffffffffffffffffffffffffff1614613bfa576040517f08c379a000000000000000000000000000000000000000000000000000000000815260040180806020018281038252602f815260200180615866602f913960400191505060405180910390fd5b600360009054906101000a900460ff16613c7c576040517f08c379a000000000000000000000000000000000000000000000000000000000815260040180806020018281038252601f8152602001807f53656c66204465737472756374206e6f742079657420696e697469617465640081525060200191505060405180910390fd5b426224ea006002540110613cf8576040517f08c379a000000000000000000000000000000000000000000000000000000000815260040180806020018281038252601b8152602001807f53656c662064657374727563742064656c6179206e6f74206d6574000000000081525060200191505060405180910390fd5b7f8a09e1677ced846cb537dc2b172043bd05a1a81ad7e0033a7ef8ba762df990b7600360019054906101000a900473ffffffffffffffffffffffffffffffffffffffff16604051808273ffffffffffffffffffffffffffffffffffffffff1673ffffffffffffffffffffffffffffffffffffffff16815260200191505060405180910390a1600360019054906101000a900473ffffffffffffffffffffffffffffffffffffffff1673ffffffffffffffffffffffffffffffffffffffff16ff5b6000613e7f613dc5610f7c565b73ffffffffffffffffffffffffffffffffffffffff1663ac82f6087f534e5800000000000000000000000000000000000000000000000000000000006040518263ffffffff1660e01b81526004018082815260200191505060206040518083038186803b158015613e3557600080fd5b505afa158015613e49573d6000803e3d6000fd5b505050506040513d6020811015613e5f57600080fd5b810190808051906020019092919050505083614f5f90919063ffffffff16565b9050919050565b6224ea0081565b6000809054906101000a900473ffffffffffffffffffffffffffffffffffffffff1673ffffffffffffffffffffffffffffffffffffffff163373ffffffffffffffffffffffffffffffffffffffff1614613f32576040517f08c379a000000000000000000000000000000000000000000000000000000000815260040180806020018281038252602f815260200180615866602f913960400191505060405180910390fd5b73__SafeDecimalMath_______________________63907af6c06040518163ffffffff1660e01b815260040160206040518083038186803b158015613f7657600080fd5b505af4158015613f8a573d6000803e3d6000fd5b505050506040513d6020811015613fa057600080fd5b81019080805190602001909291905050508111614008576040517f08c379a00000000000000000000000000000000000000000000000000000000081526004018080602001828103825260308152602001806158db6030913960400191505060405180910390fd5b80600d819055507fa39eacd162ee82c70b2b030a1bc8fe89adcccc61122fad4821a8772dbcc54267600d546040518082815260200191505060405180910390a150565b614053615792565b60008090505b6007805490508110156140a0576007818154811061407357fe5b906000526020600020015482826018811061408a57fe5b6020020181815250508080600101915050614059565b5090565b60096020528060005260406000206000915090508060000160009054906101000a900473ffffffffffffffffffffffffffffffffffffffff16908060010154905082565b60007f534e580000000000000000000000000000000000000000000000000000000000614113610f7c565b73ffffffffffffffffffffffffffffffffffffffff16629919c0826040518263ffffffff1660e01b81526004018082815260200191505060206040518083038186803b15801561416257600080fd5b505afa158015614176573d6000803e3d6000fd5b505050506040513d602081101561418c57600080fd5b810190808051906020019092919050505015614210576040517f08c379a00000000000000000000000000000000000000000000000000000000081526004018080602001828103825260198152602001807f52617465207374616c65206f72206e6f7420612073796e74680000000000000081525060200191505060405180910390fd5b600560009054906101000a900460ff1615614276576040517f08c379a000000000000000000000000000000000000000000000000000000000815260040180806020018281038252603c81526020018061590b603c913960400191505060405180910390fd5b61427e610f7c565b73ffffffffffffffffffffffffffffffffffffffff1663ac82f6087f534e5800000000000000000000000000000000000000000000000000000000006040518263ffffffff1660e01b81526004018082815260200191505060206040518083038186803b1580156142ee57600080fd5b505afa158015614302573d6000803e3d6000fd5b505050506040513d602081101561431857600080fd5b81019080805190602001909291905050508314614380576040517f08c379a00000000000000000000000000000000000000000000000000000000081526004018080602001828103825260258152602001806159476025913960400191505060405180910390fd5b614389846151f4565b91505092915050565b600e5481565b600360009054906101000a900460ff1681565b6000809054906101000a900473ffffffffffffffffffffffffffffffffffffffff1673ffffffffffffffffffffffffffffffffffffffff163373ffffffffffffffffffffffffffffffffffffffff1614614450576040517f08c379a000000000000000000000000000000000000000000000000000000000815260040180806020018281038252602f815260200180615866602f913960400191505060405180910390fd5b80600e819055507fdc2be810a133e01cb21a41082f15b2863d96f9fe79d1f84d7e2d5b810c5c8243600e546040518082815260200191505060405180910390a150565b6000809054906101000a900473ffffffffffffffffffffffffffffffffffffffff1673ffffffffffffffffffffffffffffffffffffffff163373ffffffffffffffffffffffffffffffffffffffff1614614538576040517f08c379a000000000000000000000000000000000000000000000000000000000815260040180806020018281038252602f815260200180615866602f913960400191505060405180910390fd5b426002819055506001600360006101000a81548160ff0219169083151502179055507fcbd94ca75b8dc45c9d80c77e851670e78843c0d75180cb81db3e2158228fa9a66224ea006040518082815260200191505060405180910390a1565b600360019054906101000a900473ffffffffffffffffffffffffffffffffffffffff1681565b600f6020528060005260406000206000915090505481565b600781815481106145e157fe5b906000526020600020016000915090505481565b6000806146bd614603610f7c565b73ffffffffffffffffffffffffffffffffffffffff1663ac82f6087f45544800000000000000000000000000000000000000000000000000000000006040518263ffffffff1660e01b81526004018082815260200191505060206040518083038186803b15801561467357600080fd5b505afa158015614687573d6000803e3d6000fd5b505050506040513d602081101561469d57600080fd5b810190808051906020019092919050505084614e6090919063ffffffff16565b90506146c881613db8565b915050919050565b6146d8614f95565b73ffffffffffffffffffffffffffffffffffffffff166323b872dd3330846040518463ffffffff1660e01b8152600401808473ffffffffffffffffffffffffffffffffffffffff1673ffffffffffffffffffffffffffffffffffffffff1681526020018373ffffffffffffffffffffffffffffffffffffffff1673ffffffffffffffffffffffffffffffffffffffff1681526020018281526020019350505050602060405180830381600087803b15801561479257600080fd5b505af11580156147a6573d6000803e3d6000fd5b505050506040513d60208110156147bc57600080fd5b810190808051906020019092919050505050600d548110156148e75761482a81600f60003373ffffffffffffffffffffffffffffffffffffffff1673ffffffffffffffffffffffffffffffffffffffff16815260200190815260200160002054614e8d90919063ffffffff16565b600f60003373ffffffffffffffffffffffffffffffffffffffff1673ffffffffffffffffffffffffffffffffffffffff168152602001908152602001600020819055507fbc3a12638d840d60760c64b39c73985a6498cf6eb8176f124995b0e07236cbd23382600d54604051808473ffffffffffffffffffffffffffffffffffffffff1673ffffffffffffffffffffffffffffffffffffffff168152602001838152602001828152602001935050505060405180910390a1614a04565b60405180604001604052803373ffffffffffffffffffffffffffffffffffffffff1681526020018281525060096000600b54815260200190815260200160002060008201518160000160006101000a81548173ffffffffffffffffffffffffffffffffffffffff021916908373ffffffffffffffffffffffffffffffffffffffff16021790555060208201518160010155905050600b543373ffffffffffffffffffffffffffffffffffffffff167fd9acabe6e09d178728ba5c366661c5be0621b4770f216305b059ec175b37e0b4836040518082815260200191505060405180910390a36149e26001600b54614e8d90919063ffffffff16565b600b819055506149fd81600c54614e8d90919063ffffffff16565b600c819055505b50565b601881565b6000809054906101000a900473ffffffffffffffffffffffffffffffffffffffff1673ffffffffffffffffffffffffffffffffffffffff163373ffffffffffffffffffffffffffffffffffffffff1614614ab1576040517f08c379a000000000000000000000000000000000000000000000000000000000815260040180806020018281038252602f815260200180615866602f913960400191505060405180910390fd5b614ab96154a6565b73ffffffffffffffffffffffffffffffffffffffff1663a9059cbb6000809054906101000a900473ffffffffffffffffffffffffffffffffffffffff16836040518363ffffffff1660e01b8152600401808373ffffffffffffffffffffffffffffffffffffffff1673ffffffffffffffffffffffffffffffffffffffff16815260200182815260200192505050602060405180830381600087803b158015614b6057600080fd5b505af1158015614b74573d6000803e3d6000fd5b505050506040513d6020811015614b8a57600080fd5b81019080805190602001909291905050505050565b60007f534e580000000000000000000000000000000000000000000000000000000000614bca610f7c565b73ffffffffffffffffffffffffffffffffffffffff16629919c0826040518263ffffffff1660e01b81526004018082815260200191505060206040518083038186803b158015614c1957600080fd5b505afa158015614c2d573d6000803e3d6000fd5b505050506040513d6020811015614c4357600080fd5b810190808051906020019092919050505015614cc7576040517f08c379a00000000000000000000000000000000000000000000000000000000081526004018080602001828103825260198152602001807f52617465207374616c65206f72206e6f7420612073796e74680000000000000081525060200191505060405180910390fd5b600560009054906101000a900460ff1615614d2d576040517f08c379a000000000000000000000000000000000000000000000000000000000815260040180806020018281038252603c81526020018061590b603c913960400191505060405180910390fd5b614d36836151f4565b915050919050565b600b5481565b6000806006600085815260200190815260200160002060009054906101000a900473ffffffffffffffffffffffffffffffffffffffff169050600073ffffffffffffffffffffffffffffffffffffffff168173ffffffffffffffffffffffffffffffffffffffff1614158390614e55576040517f08c379a00000000000000000000000000000000000000000000000000000000081526004018080602001828103825283818151815260200191508051906020019080838360005b83811015614e1a578082015181840152602081019050614dff565b50505050905090810190601f168015614e475780820380516001836020036101000a031916815260200191505b509250505060405180910390fd5b508091505092915050565b6000601260ff16600a0a614e7d838561550c90919063ffffffff16565b81614e8457fe5b04905092915050565b600080828401905083811015614f0b576040517f08c379a000000000000000000000000000000000000000000000000000000000815260040180806020018281038252601b8152602001807f536166654d6174683a206164646974696f6e206f766572666c6f77000000000081525060200191505060405180910390fd5b8091505092915050565b6000614f5783836040518060400160405280601e81526020017f536166654d6174683a207375627472616374696f6e206f766572666c6f770000815250615592565b905092915050565b6000614f8d82614f7f601260ff16600a0a8661550c90919063ffffffff16565b61565290919063ffffffff16565b905092915050565b6000614ff67f53796e74687355534400000000000000000000000000000000000000000000006040518060400160405280601981526020017f4d697373696e672053796e746873555344206164647265737300000000000000815250614d44565b905090565b600080615007346145f5565b9050600860009054906101000a900473ffffffffffffffffffffffffffffffffffffffff1673ffffffffffffffffffffffffffffffffffffffff166108fc349081150290604051600060405180830381858888f19350505050158015615071573d6000803e3d6000fd5b5061507a6154a6565b73ffffffffffffffffffffffffffffffffffffffff1663a9059cbb33836040518363ffffffff1660e01b8152600401808373ffffffffffffffffffffffffffffffffffffffff1673ffffffffffffffffffffffffffffffffffffffff16815260200182815260200192505050602060405180830381600087803b15801561510057600080fd5b505af1158015615114573d6000803e3d6000fd5b505050506040513d602081101561512a57600080fd5b8101908080519060200190929190505050507fdb1741ffc6844b04a9284bb6337fb0ccfe543a493ef0ac8e725242201e93d4bd3482604051808060200184815260200180602001848152602001838103835260038152602001807f4554480000000000000000000000000000000000000000000000000000000000815250602001838103825260038152602001807f534e58000000000000000000000000000000000000000000000000000000000081525060200194505050505060405180910390a18091505090565b60008061520083613db8565b905061520a614f95565b73ffffffffffffffffffffffffffffffffffffffff166323b872dd33600860009054906101000a900473ffffffffffffffffffffffffffffffffffffffff16866040518463ffffffff1660e01b8152600401808473ffffffffffffffffffffffffffffffffffffffff1673ffffffffffffffffffffffffffffffffffffffff1681526020018373ffffffffffffffffffffffffffffffffffffffff1673ffffffffffffffffffffffffffffffffffffffff1681526020018281526020019350505050602060405180830381600087803b1580156152e657600080fd5b505af11580156152fa573d6000803e3d6000fd5b505050506040513d602081101561531057600080fd5b81019080805190602001909291905050505061532a6154a6565b73ffffffffffffffffffffffffffffffffffffffff1663a9059cbb33836040518363ffffffff1660e01b8152600401808373ffffffffffffffffffffffffffffffffffffffff1673ffffffffffffffffffffffffffffffffffffffff16815260200182815260200192505050602060405180830381600087803b1580156153b057600080fd5b505af11580156153c4573d6000803e3d6000fd5b505050506040513d60208110156153da57600080fd5b8101908080519060200190929190505050507fdb1741ffc6844b04a9284bb6337fb0ccfe543a493ef0ac8e725242201e93d4bd8382604051808060200184815260200180602001848152602001838103835260048152602001807f7355534400000000000000000000000000000000000000000000000000000000815250602001838103825260038152602001807f534e58000000000000000000000000000000000000000000000000000000000081525060200194505050505060405180910390a180915050919050565b60006155077f53796e74686574697800000000000000000000000000000000000000000000006040518060400160405280601981526020017f4d697373696e672053796e746865746978206164647265737300000000000000815250614d44565b905090565b60008083141561551f576000905061558c565b600082840290508284828161553057fe5b0414615587576040517f08c379a00000000000000000000000000000000000000000000000000000000081526004018080602001828103825260218152602001806158956021913960400191505060405180910390fd5b809150505b92915050565b600083831115829061563f576040517f08c379a00000000000000000000000000000000000000000000000000000000081526004018080602001828103825283818151815260200191508051906020019080838360005b838110156156045780820151818401526020810190506155e9565b50505050905090810190601f1680156156315780820380516001836020036101000a031916815260200191505b509250505060405180910390fd5b5060008385039050809150509392505050565b600061569483836040518060400160405280601a81526020017f536166654d6174683a206469766973696f6e206279207a65726f00000000000081525061569c565b905092915050565b60008083118290615748576040517f08c379a00000000000000000000000000000000000000000000000000000000081526004018080602001828103825283818151815260200191508051906020019080838360005b8381101561570d5780820151818401526020810190506156f2565b50505050905090810190601f16801561573a5780820380516001836020036101000a031916815260200191505b509250505060405180910390fd5b50600083858161575457fe5b049050809150509392505050565b6040518060400160405280600073ffffffffffffffffffffffffffffffffffffffff168152602001600081525090565b60405180610300016040528060189060208202803883398082019150509050509056fe47756172616e74656564206574686572207261746520776f756c64206e6f74206265207265636569766564596f75206d757374206265206e6f6d696e61746564206265666f726520796f752063616e20616363657074206f776e65727368697047756172616e746565642073796e746865746978207261746520776f756c64206e6f74206265207265636569766564596f752068617665206e6f206465706f7369747320746f2077697468647261772e4f6e6c792074686520636f6e7472616374206f776e6572206d617920706572666f726d207468697320616374696f6e536166654d6174683a206d756c7469706c69636174696f6e206f766572666c6f7745544820616d6f756e742061626f7665206d61784574685075726368617365206c696d69744d696e696d756d206465706f73697420616d6f756e74206d7573742062652067726561746572207468616e20554e49545468697320616374696f6e2063616e6e6f7420626520706572666f726d6564207768696c652074686520636f6e74726163742069732070617573656447756172616e74656564207261746520776f756c64206e6f74206265207265636569766564a265627a7a72315820f945856724e97b91c25ff77d42070c9ac7580cb1e6717d4b38e10ae0739b89e864736f6c63430005100032",
  "source": "pragma solidity ^0.5.16;\n\n// Inheritance\nimport \"./Owned.sol\";\nimport \"./SelfDestructible.sol\";\nimport \"./Pausable.sol\";\nimport \"openzeppelin-solidity/contracts/utils/ReentrancyGuard.sol\";\nimport \"./MixinResolver.sol\";\nimport \"./interfaces/IDepot.sol\";\n\n// Libraries\nimport \"./SafeDecimalMath.sol\";\n\n// Internal references\nimport \"./interfaces/IERC20.sol\";\nimport \"./interfaces/IExchangeRates.sol\";\n\n\n// https://docs.synthetix.io/contracts/Depot\ncontract Depot is Owned, SelfDestructible, Pausable, ReentrancyGuard, MixinResolver, IDepot {\n    using SafeMath for uint;\n    using SafeDecimalMath for uint;\n\n    bytes32 internal constant SNX = \"SNX\";\n    bytes32 internal constant ETH = \"ETH\";\n\n    /* ========== STATE VARIABLES ========== */\n\n    // Address where the ether and Synths raised for selling SNX is transfered to\n    // Any ether raised for selling Synths gets sent back to whoever deposited the Synths,\n    // and doesn't have anything to do with this address.\n    address payable public fundsWallet;\n\n    /* Stores deposits from users. */\n    struct SynthDepositEntry {\n        // The user that made the deposit\n        address payable user;\n        // The amount (in Synths) that they deposited\n        uint amount;\n    }\n\n    /* User deposits are sold on a FIFO (First in First out) basis. When users deposit\n       synths with us, they get added this queue, which then gets fulfilled in order.\n       Conceptually this fits well in an array, but then when users fill an order we\n       end up copying the whole array around, so better to use an index mapping instead\n       for gas performance reasons.\n\n       The indexes are specified (inclusive, exclusive), so (0, 0) means there's nothing\n       in the array, and (3, 6) means there are 3 elements at 3, 4, and 5. You can obtain\n       the length of the \"array\" by querying depositEndIndex - depositStartIndex. All index\n       operations use safeAdd, so there is no way to overflow, so that means there is a\n       very large but finite amount of deposits this contract can handle before it fills up. */\n    mapping(uint => SynthDepositEntry) public deposits;\n    // The starting index of our queue inclusive\n    uint public depositStartIndex;\n    // The ending index of our queue exclusive\n    uint public depositEndIndex;\n\n    /* This is a convenience variable so users and dApps can just query how much sUSD\n       we have available for purchase without having to iterate the mapping with a\n       O(n) amount of calls for something we'll probably want to display quite regularly. */\n    uint public totalSellableDeposits;\n\n    // The minimum amount of sUSD required to enter the FiFo queue\n    uint public minimumDepositAmount = 50 * SafeDecimalMath.unit();\n\n    // A cap on the amount of sUSD you can buy with ETH in 1 transaction\n    uint public maxEthPurchase = 500 * SafeDecimalMath.unit();\n\n    // If a user deposits a synth amount < the minimumDepositAmount the contract will keep\n    // the total of small deposits which will not be sold on market and the sender\n    // must call withdrawMyDepositedSynths() to get them back.\n    mapping(address => uint) public smallDeposits;\n\n    /* ========== ADDRESS RESOLVER CONFIGURATION ========== */\n\n    bytes32 private constant CONTRACT_SYNTHSUSD = \"SynthsUSD\";\n    bytes32 private constant CONTRACT_EXRATES = \"ExchangeRates\";\n    bytes32 private constant CONTRACT_SYNTHETIX = \"Synthetix\";\n\n    bytes32[24] private addressesToCache = [CONTRACT_SYNTHSUSD, CONTRACT_EXRATES, CONTRACT_SYNTHETIX];\n\n    /* ========== CONSTRUCTOR ========== */\n\n    constructor(\n        address _owner,\n        address payable _fundsWallet,\n        address _resolver\n    ) public Owned(_owner) SelfDestructible() Pausable() MixinResolver(_resolver, addressesToCache) {\n        fundsWallet = _fundsWallet;\n    }\n\n    /* ========== SETTERS ========== */\n\n    function setMaxEthPurchase(uint _maxEthPurchase) external onlyOwner {\n        maxEthPurchase = _maxEthPurchase;\n        emit MaxEthPurchaseUpdated(maxEthPurchase);\n    }\n\n    /**\n     * @notice Set the funds wallet where ETH raised is held\n     * @param _fundsWallet The new address to forward ETH and Synths to\n     */\n    function setFundsWallet(address payable _fundsWallet) external onlyOwner {\n        fundsWallet = _fundsWallet;\n        emit FundsWalletUpdated(fundsWallet);\n    }\n\n    /**\n     * @notice Set the minimum deposit amount required to depoist sUSD into the FIFO queue\n     * @param _amount The new new minimum number of sUSD required to deposit\n     */\n    function setMinimumDepositAmount(uint _amount) external onlyOwner {\n        // Do not allow us to set it less than 1 dollar opening up to fractional desposits in the queue again\n        require(_amount > SafeDecimalMath.unit(), \"Minimum deposit amount must be greater than UNIT\");\n        minimumDepositAmount = _amount;\n        emit MinimumDepositAmountUpdated(minimumDepositAmount);\n    }\n\n    /* ========== MUTATIVE FUNCTIONS ========== */\n\n    /**\n     * @notice Fallback function (exchanges ETH to sUSD)\n     */\n    function() external payable nonReentrant rateNotStale(ETH) notPaused {\n        _exchangeEtherForSynths();\n    }\n\n    /**\n     * @notice Exchange ETH to sUSD.\n     */\n    /* solhint-disable multiple-sends, reentrancy */\n    function exchangeEtherForSynths()\n        external\n        payable\n        nonReentrant\n        rateNotStale(ETH)\n        notPaused\n        returns (\n            uint // Returns the number of Synths (sUSD) received\n        )\n    {\n        return _exchangeEtherForSynths();\n    }\n\n    function _exchangeEtherForSynths() internal returns (uint) {\n        require(msg.value <= maxEthPurchase, \"ETH amount above maxEthPurchase limit\");\n        uint ethToSend;\n\n        // The multiplication works here because exchangeRates().rateForCurrency(ETH) is specified in\n        // 18 decimal places, just like our currency base.\n        uint requestedToPurchase = msg.value.multiplyDecimal(exchangeRates().rateForCurrency(ETH));\n        uint remainingToFulfill = requestedToPurchase;\n\n        // Iterate through our outstanding deposits and sell them one at a time.\n        for (uint i = depositStartIndex; remainingToFulfill > 0 && i < depositEndIndex; i++) {\n            SynthDepositEntry memory deposit = deposits[i];\n\n            // If it's an empty spot in the queue from a previous withdrawal, just skip over it and\n            // update the queue. It's already been deleted.\n            if (deposit.user == address(0)) {\n                depositStartIndex = depositStartIndex.add(1);\n            } else {\n                // If the deposit can more than fill the order, we can do this\n                // without touching the structure of our queue.\n                if (deposit.amount > remainingToFulfill) {\n                    // Ok, this deposit can fulfill the whole remainder. We don't need\n                    // to change anything about our queue we can just fulfill it.\n                    // Subtract the amount from our deposit and total.\n                    uint newAmount = deposit.amount.sub(remainingToFulfill);\n                    deposits[i] = SynthDepositEntry({user: deposit.user, amount: newAmount});\n\n                    totalSellableDeposits = totalSellableDeposits.sub(remainingToFulfill);\n\n                    // Transfer the ETH to the depositor. Send is used instead of transfer\n                    // so a non payable contract won't block the FIFO queue on a failed\n                    // ETH payable for synths transaction. The proceeds to be sent to the\n                    // synthetix foundation funds wallet. This is to protect all depositors\n                    // in the queue in this rare case that may occur.\n                    ethToSend = remainingToFulfill.divideDecimal(exchangeRates().rateForCurrency(ETH));\n\n                    // We need to use send here instead of transfer because transfer reverts\n                    // if the recipient is a non-payable contract. Send will just tell us it\n                    // failed by returning false at which point we can continue.\n                    if (!deposit.user.send(ethToSend)) {\n                        fundsWallet.transfer(ethToSend);\n                        emit NonPayableContract(deposit.user, ethToSend);\n                    } else {\n                        emit ClearedDeposit(msg.sender, deposit.user, ethToSend, remainingToFulfill, i);\n                    }\n\n                    // And the Synths to the recipient.\n                    // Note: Fees are calculated by the Synth contract, so when\n                    //       we request a specific transfer here, the fee is\n                    //       automatically deducted and sent to the fee pool.\n                    synthsUSD().transfer(msg.sender, remainingToFulfill);\n\n                    // And we have nothing left to fulfill on this order.\n                    remainingToFulfill = 0;\n                } else if (deposit.amount <= remainingToFulfill) {\n                    // We need to fulfill this one in its entirety and kick it out of the queue.\n                    // Start by kicking it out of the queue.\n                    // Free the storage because we can.\n                    delete deposits[i];\n                    // Bump our start index forward one.\n                    depositStartIndex = depositStartIndex.add(1);\n                    // We also need to tell our total it's decreased\n                    totalSellableDeposits = totalSellableDeposits.sub(deposit.amount);\n\n                    // Now fulfill by transfering the ETH to the depositor. Send is used instead of transfer\n                    // so a non payable contract won't block the FIFO queue on a failed\n                    // ETH payable for synths transaction. The proceeds to be sent to the\n                    // synthetix foundation funds wallet. This is to protect all depositors\n                    // in the queue in this rare case that may occur.\n                    ethToSend = deposit.amount.divideDecimal(exchangeRates().rateForCurrency(ETH));\n\n                    // We need to use send here instead of transfer because transfer reverts\n                    // if the recipient is a non-payable contract. Send will just tell us it\n                    // failed by returning false at which point we can continue.\n                    if (!deposit.user.send(ethToSend)) {\n                        fundsWallet.transfer(ethToSend);\n                        emit NonPayableContract(deposit.user, ethToSend);\n                    } else {\n                        emit ClearedDeposit(msg.sender, deposit.user, ethToSend, deposit.amount, i);\n                    }\n\n                    // And the Synths to the recipient.\n                    // Note: Fees are calculated by the Synth contract, so when\n                    //       we request a specific transfer here, the fee is\n                    //       automatically deducted and sent to the fee pool.\n                    synthsUSD().transfer(msg.sender, deposit.amount);\n\n                    // And subtract the order from our outstanding amount remaining\n                    // for the next iteration of the loop.\n                    remainingToFulfill = remainingToFulfill.sub(deposit.amount);\n                }\n            }\n        }\n\n        // Ok, if we're here and 'remainingToFulfill' isn't zero, then\n        // we need to refund the remainder of their ETH back to them.\n        if (remainingToFulfill > 0) {\n            msg.sender.transfer(remainingToFulfill.divideDecimal(exchangeRates().rateForCurrency(ETH)));\n        }\n\n        // How many did we actually give them?\n        uint fulfilled = requestedToPurchase.sub(remainingToFulfill);\n\n        if (fulfilled > 0) {\n            // Now tell everyone that we gave them that many (only if the amount is greater than 0).\n            emit Exchange(\"ETH\", msg.value, \"sUSD\", fulfilled);\n        }\n\n        return fulfilled;\n    }\n\n    /* solhint-enable multiple-sends, reentrancy */\n\n    /**\n     * @notice Exchange ETH to sUSD while insisting on a particular rate. This allows a user to\n     *         exchange while protecting against frontrunning by the contract owner on the exchange rate.\n     * @param guaranteedRate The exchange rate (ether price) which must be honored or the call will revert.\n     */\n    function exchangeEtherForSynthsAtRate(uint guaranteedRate)\n        external\n        payable\n        rateNotStale(ETH)\n        notPaused\n        returns (\n            uint // Returns the number of Synths (sUSD) received\n        )\n    {\n        require(guaranteedRate == exchangeRates().rateForCurrency(ETH), \"Guaranteed rate would not be received\");\n\n        return _exchangeEtherForSynths();\n    }\n\n    function _exchangeEtherForSNX() internal returns (uint) {\n        // How many SNX are they going to be receiving?\n        uint synthetixToSend = synthetixReceivedForEther(msg.value);\n\n        // Store the ETH in our funds wallet\n        fundsWallet.transfer(msg.value);\n\n        // And send them the SNX.\n        synthetix().transfer(msg.sender, synthetixToSend);\n\n        emit Exchange(\"ETH\", msg.value, \"SNX\", synthetixToSend);\n\n        return synthetixToSend;\n    }\n\n    /**\n     * @notice Exchange ETH to SNX.\n     */\n    function exchangeEtherForSNX()\n        external\n        payable\n        rateNotStale(SNX)\n        rateNotStale(ETH)\n        notPaused\n        returns (\n            uint // Returns the number of SNX received\n        )\n    {\n        return _exchangeEtherForSNX();\n    }\n\n    /**\n     * @notice Exchange ETH to SNX while insisting on a particular set of rates. This allows a user to\n     *         exchange while protecting against frontrunning by the contract owner on the exchange rates.\n     * @param guaranteedEtherRate The ether exchange rate which must be honored or the call will revert.\n     * @param guaranteedSynthetixRate The synthetix exchange rate which must be honored or the call will revert.\n     */\n    function exchangeEtherForSNXAtRate(uint guaranteedEtherRate, uint guaranteedSynthetixRate)\n        external\n        payable\n        rateNotStale(SNX)\n        rateNotStale(ETH)\n        notPaused\n        returns (\n            uint // Returns the number of SNX received\n        )\n    {\n        require(guaranteedEtherRate == exchangeRates().rateForCurrency(ETH), \"Guaranteed ether rate would not be received\");\n        require(\n            guaranteedSynthetixRate == exchangeRates().rateForCurrency(SNX),\n            \"Guaranteed synthetix rate would not be received\"\n        );\n\n        return _exchangeEtherForSNX();\n    }\n\n    function _exchangeSynthsForSNX(uint synthAmount) internal returns (uint) {\n        // How many SNX are they going to be receiving?\n        uint synthetixToSend = synthetixReceivedForSynths(synthAmount);\n\n        // Ok, transfer the Synths to our funds wallet.\n        // These do not go in the deposit queue as they aren't for sale as such unless\n        // they're sent back in from the funds wallet.\n        synthsUSD().transferFrom(msg.sender, fundsWallet, synthAmount);\n\n        // And send them the SNX.\n        synthetix().transfer(msg.sender, synthetixToSend);\n\n        emit Exchange(\"sUSD\", synthAmount, \"SNX\", synthetixToSend);\n\n        return synthetixToSend;\n    }\n\n    /**\n     * @notice Exchange sUSD for SNX\n     * @param synthAmount The amount of synths the user wishes to exchange.\n     */\n    function exchangeSynthsForSNX(uint synthAmount)\n        external\n        rateNotStale(SNX)\n        notPaused\n        returns (\n            uint // Returns the number of SNX received\n        )\n    {\n        return _exchangeSynthsForSNX(synthAmount);\n    }\n\n    /**\n     * @notice Exchange sUSD for SNX while insisting on a particular rate. This allows a user to\n     *         exchange while protecting against frontrunning by the contract owner on the exchange rate.\n     * @param synthAmount The amount of synths the user wishes to exchange.\n     * @param guaranteedRate A rate (synthetix price) the caller wishes to insist upon.\n     */\n    function exchangeSynthsForSNXAtRate(uint synthAmount, uint guaranteedRate)\n        external\n        rateNotStale(SNX)\n        notPaused\n        returns (\n            uint // Returns the number of SNX received\n        )\n    {\n        require(guaranteedRate == exchangeRates().rateForCurrency(SNX), \"Guaranteed rate would not be received\");\n\n        return _exchangeSynthsForSNX(synthAmount);\n    }\n\n    /**\n     * @notice Allows the owner to withdraw SNX from this contract if needed.\n     * @param amount The amount of SNX to attempt to withdraw (in 18 decimal places).\n     */\n    function withdrawSynthetix(uint amount) external onlyOwner {\n        synthetix().transfer(owner, amount);\n\n        // We don't emit our own events here because we assume that anyone\n        // who wants to watch what the Depot is doing can\n        // just watch ERC20 events from the Synth and/or Synthetix contracts\n        // filtered to our address.\n    }\n\n    /**\n     * @notice Allows a user to withdraw all of their previously deposited synths from this contract if needed.\n     *         Developer note: We could keep an index of address to deposits to make this operation more efficient\n     *         but then all the other operations on the queue become less efficient. It's expected that this\n     *         function will be very rarely used, so placing the inefficiency here is intentional. The usual\n     *         use case does not involve a withdrawal.\n     */\n    function withdrawMyDepositedSynths() external {\n        uint synthsToSend = 0;\n\n        for (uint i = depositStartIndex; i < depositEndIndex; i++) {\n            SynthDepositEntry memory deposit = deposits[i];\n\n            if (deposit.user == msg.sender) {\n                // The user is withdrawing this deposit. Remove it from our queue.\n                // We'll just leave a gap, which the purchasing logic can walk past.\n                synthsToSend = synthsToSend.add(deposit.amount);\n                delete deposits[i];\n                //Let the DApps know we've removed this deposit\n                emit SynthDepositRemoved(deposit.user, deposit.amount, i);\n            }\n        }\n\n        // Update our total\n        totalSellableDeposits = totalSellableDeposits.sub(synthsToSend);\n\n        // Check if the user has tried to send deposit amounts < the minimumDepositAmount to the FIFO\n        // queue which would have been added to this mapping for withdrawal only\n        synthsToSend = synthsToSend.add(smallDeposits[msg.sender]);\n        smallDeposits[msg.sender] = 0;\n\n        // If there's nothing to do then go ahead and revert the transaction\n        require(synthsToSend > 0, \"You have no deposits to withdraw.\");\n\n        // Send their deposits back to them (minus fees)\n        synthsUSD().transfer(msg.sender, synthsToSend);\n\n        emit SynthWithdrawal(msg.sender, synthsToSend);\n    }\n\n    /**\n     * @notice depositSynths: Allows users to deposit synths via the approve / transferFrom workflow\n     * @param amount The amount of sUSD you wish to deposit (must have been approved first)\n     */\n    function depositSynths(uint amount) external {\n        // Grab the amount of synths. Will fail if not approved first\n        synthsUSD().transferFrom(msg.sender, address(this), amount);\n\n        // A minimum deposit amount is designed to protect purchasers from over paying\n        // gas for fullfilling multiple small synth deposits\n        if (amount < minimumDepositAmount) {\n            // We cant fail/revert the transaction or send the synths back in a reentrant call.\n            // So we will keep your synths balance seperate from the FIFO queue so you can withdraw them\n            smallDeposits[msg.sender] = smallDeposits[msg.sender].add(amount);\n\n            emit SynthDepositNotAccepted(msg.sender, amount, minimumDepositAmount);\n        } else {\n            // Ok, thanks for the deposit, let's queue it up.\n            deposits[depositEndIndex] = SynthDepositEntry({user: msg.sender, amount: amount});\n            emit SynthDeposit(msg.sender, amount, depositEndIndex);\n\n            // Walk our index forward as well.\n            depositEndIndex = depositEndIndex.add(1);\n\n            // And add it to our total.\n            totalSellableDeposits = totalSellableDeposits.add(amount);\n        }\n    }\n\n    /* ========== VIEWS ========== */\n\n    /**\n     * @notice Calculate how many SNX you will receive if you transfer\n     *         an amount of synths.\n     * @param amount The amount of synths (in 18 decimal places) you want to ask about\n     */\n    function synthetixReceivedForSynths(uint amount) public view returns (uint) {\n        // And what would that be worth in SNX based on the current price?\n        return amount.divideDecimal(exchangeRates().rateForCurrency(SNX));\n    }\n\n    /**\n     * @notice Calculate how many SNX you will receive if you transfer\n     *         an amount of ether.\n     * @param amount The amount of ether (in wei) you want to ask about\n     */\n    function synthetixReceivedForEther(uint amount) public view returns (uint) {\n        // How much is the ETH they sent us worth in sUSD (ignoring the transfer fee)?\n        uint valueSentInSynths = amount.multiplyDecimal(exchangeRates().rateForCurrency(ETH));\n\n        // Now, how many SNX will that USD amount buy?\n        return synthetixReceivedForSynths(valueSentInSynths);\n    }\n\n    /**\n     * @notice Calculate how many synths you will receive if you transfer\n     *         an amount of ether.\n     * @param amount The amount of ether (in wei) you want to ask about\n     */\n    function synthsReceivedForEther(uint amount) public view returns (uint) {\n        // How many synths would that amount of ether be worth?\n        return amount.multiplyDecimal(exchangeRates().rateForCurrency(ETH));\n    }\n\n    /* ========== INTERNAL VIEWS ========== */\n\n    function synthsUSD() internal view returns (IERC20) {\n        return IERC20(requireAndGetAddress(CONTRACT_SYNTHSUSD, \"Missing SynthsUSD address\"));\n    }\n\n    function synthetix() internal view returns (IERC20) {\n        return IERC20(requireAndGetAddress(CONTRACT_SYNTHETIX, \"Missing Synthetix address\"));\n    }\n\n    function exchangeRates() internal view returns (IExchangeRates) {\n        return IExchangeRates(requireAndGetAddress(CONTRACT_EXRATES, \"Missing ExchangeRates address\"));\n    }\n\n    // ========== MODIFIERS ==========\n\n    modifier rateNotStale(bytes32 currencyKey) {\n        require(!exchangeRates().rateIsStale(currencyKey), \"Rate stale or not a synth\");\n        _;\n    }\n\n    /* ========== EVENTS ========== */\n\n    event MaxEthPurchaseUpdated(uint amount);\n    event FundsWalletUpdated(address newFundsWallet);\n    event Exchange(string fromCurrency, uint fromAmount, string toCurrency, uint toAmount);\n    event SynthWithdrawal(address user, uint amount);\n    event SynthDeposit(address indexed user, uint amount, uint indexed depositIndex);\n    event SynthDepositRemoved(address indexed user, uint amount, uint indexed depositIndex);\n    event SynthDepositNotAccepted(address user, uint amount, uint minimum);\n    event MinimumDepositAmountUpdated(uint amount);\n    event NonPayableContract(address indexed receiver, uint amount);\n    event ClearedDeposit(\n        address indexed fromAddress,\n        address indexed toAddress,\n        uint fromETHAmount,\n        uint toAmount,\n        uint indexed depositIndex\n    );\n}\n",
  "sourcePath": "/Users/qizhang/Development/truffle_test2/contracts/Depot.sol",
  "compiler": {
    "name": "solc",
    "version": "0.5.16+commit.9c3226ce.Emscripten.clang"
  },
  "schemaVersion": "3.2.1",
  "updatedAt": "2020-07-05T03:58:12.805Z",
  "devdoc": {
    "methods": {
      "depositSynths(uint256)": {
        "params": {
          "amount": "The amount of sUSD you wish to deposit (must have been approved first)"
        }
      },
      "exchangeEtherForSNXAtRate(uint256,uint256)": {
        "params": {
          "guaranteedEtherRate": "The ether exchange rate which must be honored or the call will revert.",
          "guaranteedSynthetixRate": "The synthetix exchange rate which must be honored or the call will revert."
        }
      },
      "exchangeEtherForSynthsAtRate(uint256)": {
        "params": {
          "guaranteedRate": "The exchange rate (ether price) which must be honored or the call will revert."
        }
      },
      "exchangeSynthsForSNX(uint256)": {
        "params": {
          "synthAmount": "The amount of synths the user wishes to exchange."
        }
      },
      "exchangeSynthsForSNXAtRate(uint256,uint256)": {
        "params": {
          "guaranteedRate": "A rate (synthetix price) the caller wishes to insist upon.",
          "synthAmount": "The amount of synths the user wishes to exchange."
        }
      },
      "initiateSelfDestruct()": {
        "details": "Only the contract owner may call this."
      },
      "selfDestruct()": {
        "details": "Only the contract owner may call this."
      },
      "setFundsWallet(address)": {
        "params": {
          "_fundsWallet": "The new address to forward ETH and Synths to"
        }
      },
      "setMinimumDepositAmount(uint256)": {
        "params": {
          "_amount": "The new new minimum number of sUSD required to deposit"
        }
      },
      "setPaused(bool)": {
        "details": "Only the contract owner may call this."
      },
      "setSelfDestructBeneficiary(address)": {
        "details": "Only the contract owner may call this. The provided beneficiary must be non-null.",
        "params": {
          "_beneficiary": "The address to pay any eth contained in this contract to upon self-destruction."
        }
      },
      "synthetixReceivedForEther(uint256)": {
        "params": {
          "amount": "The amount of ether (in wei) you want to ask about"
        }
      },
      "synthetixReceivedForSynths(uint256)": {
        "params": {
          "amount": "The amount of synths (in 18 decimal places) you want to ask about"
        }
      },
      "synthsReceivedForEther(uint256)": {
        "params": {
          "amount": "The amount of ether (in wei) you want to ask about"
        }
      },
      "terminateSelfDestruct()": {
        "details": "Only the contract owner may call this."
      },
      "withdrawSynthetix(uint256)": {
        "params": {
          "amount": "The amount of SNX to attempt to withdraw (in 18 decimal places)."
        }
      }
    }
  },
  "userdoc": {
    "methods": {
      "depositSynths(uint256)": {
        "notice": "depositSynths: Allows users to deposit synths via the approve / transferFrom workflow"
      },
      "exchangeEtherForSNX()": {
        "notice": "Exchange ETH to SNX."
      },
      "exchangeEtherForSNXAtRate(uint256,uint256)": {
        "notice": "Exchange ETH to SNX while insisting on a particular set of rates. This allows a user to        exchange while protecting against frontrunning by the contract owner on the exchange rates."
      },
      "exchangeEtherForSynths()": {
        "notice": "Exchange ETH to sUSD."
      },
      "exchangeEtherForSynthsAtRate(uint256)": {
        "notice": "Exchange ETH to sUSD while insisting on a particular rate. This allows a user to        exchange while protecting against frontrunning by the contract owner on the exchange rate."
      },
      "exchangeSynthsForSNX(uint256)": {
        "notice": "Exchange sUSD for SNX"
      },
      "exchangeSynthsForSNXAtRate(uint256,uint256)": {
        "notice": "Exchange sUSD for SNX while insisting on a particular rate. This allows a user to        exchange while protecting against frontrunning by the contract owner on the exchange rate."
      },
      "initiateSelfDestruct()": {
        "notice": "Begin the self-destruction counter of this contract. Once the delay has elapsed, the contract may be self-destructed."
      },
      "selfDestruct()": {
        "notice": "If the self-destruction delay has elapsed, destroy this contract and remit any ether it owns to the beneficiary address."
      },
      "setFundsWallet(address)": {
        "notice": "Set the funds wallet where ETH raised is held"
      },
      "setMinimumDepositAmount(uint256)": {
        "notice": "Set the minimum deposit amount required to depoist sUSD into the FIFO queue"
      },
      "setPaused(bool)": {
        "notice": "Change the paused state of the contract"
      },
      "setSelfDestructBeneficiary(address)": {
        "notice": "Set the beneficiary address of this contract."
      },
      "synthetixReceivedForEther(uint256)": {
        "notice": "Calculate how many SNX you will receive if you transfer        an amount of ether."
      },
      "synthetixReceivedForSynths(uint256)": {
        "notice": "Calculate how many SNX you will receive if you transfer        an amount of synths."
      },
      "synthsReceivedForEther(uint256)": {
        "notice": "Calculate how many synths you will receive if you transfer        an amount of ether."
      },
      "terminateSelfDestruct()": {
        "notice": "Terminate and reset the self-destruction timer."
      },
      "withdrawMyDepositedSynths()": {
        "notice": "Allows a user to withdraw all of their previously deposited synths from this contract if needed.        Developer note: We could keep an index of address to deposits to make this operation more efficient        but then all the other operations on the queue become less efficient. It's expected that this        function will be very rarely used, so placing the inefficiency here is intentional. The usual        use case does not involve a withdrawal."
      },
      "withdrawSynthetix(uint256)": {
        "notice": "Allows the owner to withdraw SNX from this contract if needed."
      }
    }
  }
}