{
  "contractName": "EscrowChecker",
  "abi": [
    {
      "inputs": [
        {
          "internalType": "contract ISynthetixEscrow",
          "name": "_esc",
          "type": "address"
        }
      ],
      "payable": false,
      "stateMutability": "nonpayable",
      "type": "constructor"
    },
    {
      "constant": true,
      "inputs": [],
      "name": "synthetix_escrow",
      "outputs": [
        {
          "internalType": "contract ISynthetixEscrow",
          "name": "",
          "type": "address"
        }
      ],
      "payable": false,
      "stateMutability": "view",
      "type": "function"
    },
    {
      "constant": true,
      "inputs": [
        {
          "internalType": "address",
          "name": "account",
          "type": "address"
        }
      ],
      "name": "checkAccountSchedule",
      "outputs": [
        {
          "internalType": "uint256[16]",
          "name": "",
          "type": "uint256[16]"
        }
      ],
      "payable": false,
      "stateMutability": "view",
      "type": "function"
    }
  ],
  "bytecode": "0x608060405234801561001057600080fd5b506040516104933803806104938339818101604052602081101561003357600080fd5b8101908080519060200190929190505050806000806101000a81548173ffffffffffffffffffffffffffffffffffffffff021916908373ffffffffffffffffffffffffffffffffffffffff160217905550506103ff806100946000396000f3fe608060405234801561001057600080fd5b50600436106100365760003560e01c8063449d0eb11461003b5780639514c232146100bb575b600080fd5b61007d6004803603602081101561005157600080fd5b81019080803573ffffffffffffffffffffffffffffffffffffffff169060200190929190505050610105565b6040518082601060200280838360005b838110156100a857808201518184015260208101905061008d565b5050505090500191505060405180910390f35b6100c3610360565b604051808273ffffffffffffffffffffffffffffffffffffffff1673ffffffffffffffffffffffffffffffffffffffff16815260200191505060405180910390f35b61010d610385565b610115610385565b60008060009054906101000a900473ffffffffffffffffffffffffffffffffffffffff1673ffffffffffffffffffffffffffffffffffffffff1663204b676a856040518263ffffffff1660e01b8152600401808273ffffffffffffffffffffffffffffffffffffffff1673ffffffffffffffffffffffffffffffffffffffff16815260200191505060206040518083038186803b1580156101b557600080fd5b505afa1580156101c9573d6000803e3d6000fd5b505050506040513d60208110156101df57600080fd5b8101908080519060200190929190505050905060008090505b81811015610355576102086103a8565b6000809054906101000a900473ffffffffffffffffffffffffffffffffffffffff1673ffffffffffffffffffffffffffffffffffffffff1663da7bd3e987846040518363ffffffff1660e01b8152600401808373ffffffffffffffffffffffffffffffffffffffff1673ffffffffffffffffffffffffffffffffffffffff16815260200182815260200192505050604080518083038186803b1580156102ad57600080fd5b505afa1580156102c1573d6000803e3d6000fd5b505050506040513d601f19601f8201168201806040525060408110156102e657600080fd5b81019080919050509050806000600281106102fd57fe5b602002015184600284026010811061031157fe5b6020020181815250508060016002811061032757fe5b602002015184600160028502016010811061033e57fe5b6020020181815250505080806001019150506101f8565b508192505050919050565b6000809054906101000a900473ffffffffffffffffffffffffffffffffffffffff1681565b604051806102000160405280601090602082028038833980820191505090505090565b604051806040016040528060029060208202803883398082019150509050509056fea265627a7a72315820a730c463e17cb0488cb07a1992684f9432710a0cd3545724e5a7a210b21e627864736f6c63430005100032",
  "source": "pragma solidity ^0.5.16;\n\n\ninterface ISynthetixEscrow {\n    function numVestingEntries(address account) external view returns (uint);\n\n    function getVestingScheduleEntry(address account, uint index) external view returns (uint[2] memory);\n}\n\n\n// https://docs.synthetix.io/contracts/EscrowChecker\ncontract EscrowChecker {\n    ISynthetixEscrow public synthetix_escrow;\n\n    constructor(ISynthetixEscrow _esc) public {\n        synthetix_escrow = _esc;\n    }\n\n    function checkAccountSchedule(address account) public view returns (uint[16] memory) {\n        uint[16] memory _result;\n        uint schedules = synthetix_escrow.numVestingEntries(account);\n        for (uint i = 0; i < schedules; i++) {\n            uint[2] memory pair = synthetix_escrow.getVestingScheduleEntry(account, i);\n            _result[i * 2] = pair[0];\n            _result[i * 2 + 1] = pair[1];\n        }\n        return _result;\n    }\n}\n",
  "sourcePath": "/Users/qizhang/Development/truffle_test2/contracts/EscrowChecker.sol",
  "compiler": {
    "name": "solc",
    "version": "0.5.16+commit.9c3226ce.Emscripten.clang"
  },
  "schemaVersion": "3.2.1",
  "updatedAt": "2020-07-05T03:58:12.821Z",
  "devdoc": {
    "methods": {}
  },
  "userdoc": {
    "methods": {}
  }
}