{
  "contractName": "EternalStorage",
  "abi": [
    {
      "inputs": [
        {
          "internalType": "address",
          "name": "_owner",
          "type": "address"
        },
        {
          "internalType": "address",
          "name": "_associatedContract",
          "type": "address"
        }
      ],
      "payable": false,
      "stateMutability": "nonpayable",
      "type": "constructor"
    },
    {
      "anonymous": false,
      "inputs": [
        {
          "indexed": false,
          "internalType": "address",
          "name": "associatedContract",
          "type": "address"
        }
      ],
      "name": "AssociatedContractUpdated",
      "type": "event"
    },
    {
      "anonymous": false,
      "inputs": [
        {
          "indexed": false,
          "internalType": "address",
          "name": "oldOwner",
          "type": "address"
        },
        {
          "indexed": false,
          "internalType": "address",
          "name": "newOwner",
          "type": "address"
        }
      ],
      "name": "OwnerChanged",
      "type": "event"
    },
    {
      "anonymous": false,
      "inputs": [
        {
          "indexed": false,
          "internalType": "address",
          "name": "newOwner",
          "type": "address"
        }
      ],
      "name": "OwnerNominated",
      "type": "event"
    },
    {
      "constant": false,
      "inputs": [],
      "name": "acceptOwnership",
      "outputs": [],
      "payable": false,
      "stateMutability": "nonpayable",
      "type": "function"
    },
    {
      "constant": true,
      "inputs": [],
      "name": "associatedContract",
      "outputs": [
        {
          "internalType": "address",
          "name": "",
          "type": "address"
        }
      ],
      "payable": false,
      "stateMutability": "view",
      "type": "function"
    },
    {
      "constant": false,
      "inputs": [
        {
          "internalType": "address",
          "name": "_owner",
          "type": "address"
        }
      ],
      "name": "nominateNewOwner",
      "outputs": [],
      "payable": false,
      "stateMutability": "nonpayable",
      "type": "function"
    },
    {
      "constant": true,
      "inputs": [],
      "name": "nominatedOwner",
      "outputs": [
        {
          "internalType": "address",
          "name": "",
          "type": "address"
        }
      ],
      "payable": false,
      "stateMutability": "view",
      "type": "function"
    },
    {
      "constant": true,
      "inputs": [],
      "name": "owner",
      "outputs": [
        {
          "internalType": "address",
          "name": "",
          "type": "address"
        }
      ],
      "payable": false,
      "stateMutability": "view",
      "type": "function"
    },
    {
      "constant": false,
      "inputs": [
        {
          "internalType": "address",
          "name": "_associatedContract",
          "type": "address"
        }
      ],
      "name": "setAssociatedContract",
      "outputs": [],
      "payable": false,
      "stateMutability": "nonpayable",
      "type": "function"
    },
    {
      "constant": true,
      "inputs": [
        {
          "internalType": "bytes32",
          "name": "record",
          "type": "bytes32"
        }
      ],
      "name": "getUIntValue",
      "outputs": [
        {
          "internalType": "uint256",
          "name": "",
          "type": "uint256"
        }
      ],
      "payable": false,
      "stateMutability": "view",
      "type": "function"
    },
    {
      "constant": false,
      "inputs": [
        {
          "internalType": "bytes32",
          "name": "record",
          "type": "bytes32"
        },
        {
          "internalType": "uint256",
          "name": "value",
          "type": "uint256"
        }
      ],
      "name": "setUIntValue",
      "outputs": [],
      "payable": false,
      "stateMutability": "nonpayable",
      "type": "function"
    },
    {
      "constant": false,
      "inputs": [
        {
          "internalType": "bytes32",
          "name": "record",
          "type": "bytes32"
        }
      ],
      "name": "deleteUIntValue",
      "outputs": [],
      "payable": false,
      "stateMutability": "nonpayable",
      "type": "function"
    },
    {
      "constant": true,
      "inputs": [
        {
          "internalType": "bytes32",
          "name": "record",
          "type": "bytes32"
        }
      ],
      "name": "getStringValue",
      "outputs": [
        {
          "internalType": "string",
          "name": "",
          "type": "string"
        }
      ],
      "payable": false,
      "stateMutability": "view",
      "type": "function"
    },
    {
      "constant": false,
      "inputs": [
        {
          "internalType": "bytes32",
          "name": "record",
          "type": "bytes32"
        },
        {
          "internalType": "string",
          "name": "value",
          "type": "string"
        }
      ],
      "name": "setStringValue",
      "outputs": [],
      "payable": false,
      "stateMutability": "nonpayable",
      "type": "function"
    },
    {
      "constant": false,
      "inputs": [
        {
          "internalType": "bytes32",
          "name": "record",
          "type": "bytes32"
        }
      ],
      "name": "deleteStringValue",
      "outputs": [],
      "payable": false,
      "stateMutability": "nonpayable",
      "type": "function"
    },
    {
      "constant": true,
      "inputs": [
        {
          "internalType": "bytes32",
          "name": "record",
          "type": "bytes32"
        }
      ],
      "name": "getAddressValue",
      "outputs": [
        {
          "internalType": "address",
          "name": "",
          "type": "address"
        }
      ],
      "payable": false,
      "stateMutability": "view",
      "type": "function"
    },
    {
      "constant": false,
      "inputs": [
        {
          "internalType": "bytes32",
          "name": "record",
          "type": "bytes32"
        },
        {
          "internalType": "address",
          "name": "value",
          "type": "address"
        }
      ],
      "name": "setAddressValue",
      "outputs": [],
      "payable": false,
      "stateMutability": "nonpayable",
      "type": "function"
    },
    {
      "constant": false,
      "inputs": [
        {
          "internalType": "bytes32",
          "name": "record",
          "type": "bytes32"
        }
      ],
      "name": "deleteAddressValue",
      "outputs": [],
      "payable": false,
      "stateMutability": "nonpayable",
      "type": "function"
    },
    {
      "constant": true,
      "inputs": [
        {
          "internalType": "bytes32",
          "name": "record",
          "type": "bytes32"
        }
      ],
      "name": "getBytesValue",
      "outputs": [
        {
          "internalType": "bytes",
          "name": "",
          "type": "bytes"
        }
      ],
      "payable": false,
      "stateMutability": "view",
      "type": "function"
    },
    {
      "constant": false,
      "inputs": [
        {
          "internalType": "bytes32",
          "name": "record",
          "type": "bytes32"
        },
        {
          "internalType": "bytes",
          "name": "value",
          "type": "bytes"
        }
      ],
      "name": "setBytesValue",
      "outputs": [],
      "payable": false,
      "stateMutability": "nonpayable",
      "type": "function"
    },
    {
      "constant": false,
      "inputs": [
        {
          "internalType": "bytes32",
          "name": "record",
          "type": "bytes32"
        }
      ],
      "name": "deleteBytesValue",
      "outputs": [],
      "payable": false,
      "stateMutability": "nonpayable",
      "type": "function"
    },
    {
      "constant": true,
      "inputs": [
        {
          "internalType": "bytes32",
          "name": "record",
          "type": "bytes32"
        }
      ],
      "name": "getBytes32Value",
      "outputs": [
        {
          "internalType": "bytes32",
          "name": "",
          "type": "bytes32"
        }
      ],
      "payable": false,
      "stateMutability": "view",
      "type": "function"
    },
    {
      "constant": false,
      "inputs": [
        {
          "internalType": "bytes32",
          "name": "record",
          "type": "bytes32"
        },
        {
          "internalType": "bytes32",
          "name": "value",
          "type": "bytes32"
        }
      ],
      "name": "setBytes32Value",
      "outputs": [],
      "payable": false,
      "stateMutability": "nonpayable",
      "type": "function"
    },
    {
      "constant": false,
      "inputs": [
        {
          "internalType": "bytes32",
          "name": "record",
          "type": "bytes32"
        }
      ],
      "name": "deleteBytes32Value",
      "outputs": [],
      "payable": false,
      "stateMutability": "nonpayable",
      "type": "function"
    },
    {
      "constant": true,
      "inputs": [
        {
          "internalType": "bytes32",
          "name": "record",
          "type": "bytes32"
        }
      ],
      "name": "getBooleanValue",
      "outputs": [
        {
          "internalType": "bool",
          "name": "",
          "type": "bool"
        }
      ],
      "payable": false,
      "stateMutability": "view",
      "type": "function"
    },
    {
      "constant": false,
      "inputs": [
        {
          "internalType": "bytes32",
          "name": "record",
          "type": "bytes32"
        },
        {
          "internalType": "bool",
          "name": "value",
          "type": "bool"
        }
      ],
      "name": "setBooleanValue",
      "outputs": [],
      "payable": false,
      "stateMutability": "nonpayable",
      "type": "function"
    },
    {
      "constant": false,
      "inputs": [
        {
          "internalType": "bytes32",
          "name": "record",
          "type": "bytes32"
        }
      ],
      "name": "deleteBooleanValue",
      "outputs": [],
      "payable": false,
      "stateMutability": "nonpayable",
      "type": "function"
    },
    {
      "constant": true,
      "inputs": [
        {
          "internalType": "bytes32",
          "name": "record",
          "type": "bytes32"
        }
      ],
      "name": "getIntValue",
      "outputs": [
        {
          "internalType": "int256",
          "name": "",
          "type": "int256"
        }
      ],
      "payable": false,
      "stateMutability": "view",
      "type": "function"
    },
    {
      "constant": false,
      "inputs": [
        {
          "internalType": "bytes32",
          "name": "record",
          "type": "bytes32"
        },
        {
          "internalType": "int256",
          "name": "value",
          "type": "int256"
        }
      ],
      "name": "setIntValue",
      "outputs": [],
      "payable": false,
      "stateMutability": "nonpayable",
      "type": "function"
    },
    {
      "constant": false,
      "inputs": [
        {
          "internalType": "bytes32",
          "name": "record",
          "type": "bytes32"
        }
      ],
      "name": "deleteIntValue",
      "outputs": [],
      "payable": false,
      "stateMutability": "nonpayable",
      "type": "function"
    }
  ],
  "bytecode": "0x608060405234801561001057600080fd5b506040516121ab3803806121ab8339818101604052604081101561003357600080fd5b8101908080519060200190929190805190602001909291905050508082600073ffffffffffffffffffffffffffffffffffffffff168173ffffffffffffffffffffffffffffffffffffffff1614156100f3576040517f08c379a00000000000000000000000000000000000000000000000000000000081526004018080602001828103825260198152602001807f4f776e657220616464726573732063616e6e6f7420626520300000000000000081525060200191505060405180910390fd5b806000806101000a81548173ffffffffffffffffffffffffffffffffffffffff021916908373ffffffffffffffffffffffffffffffffffffffff1602179055507fb532073b38c83145e3e5135377a08bf9aab55bc0fd7c1179cd4fb995d2a5159c600082604051808373ffffffffffffffffffffffffffffffffffffffff1673ffffffffffffffffffffffffffffffffffffffff1681526020018273ffffffffffffffffffffffffffffffffffffffff1673ffffffffffffffffffffffffffffffffffffffff1681526020019250505060405180910390a150600073ffffffffffffffffffffffffffffffffffffffff166000809054906101000a900473ffffffffffffffffffffffffffffffffffffffff1673ffffffffffffffffffffffffffffffffffffffff161415610290576040517f08c379a00000000000000000000000000000000000000000000000000000000081526004018080602001828103825260118152602001807f4f776e6572206d7573742062652073657400000000000000000000000000000081525060200191505060405180910390fd5b80600260006101000a81548173ffffffffffffffffffffffffffffffffffffffff021916908373ffffffffffffffffffffffffffffffffffffffff1602179055507f73f20cff579e8a4086fa607db83867595f1b6a798e718c0bfa0b94a404128e0381604051808273ffffffffffffffffffffffffffffffffffffffff1673ffffffffffffffffffffffffffffffffffffffff16815260200191505060405180910390a1505050611e65806103466000396000f3fe608060405234801561001057600080fd5b50600436106101a95760003560e01c806353a47bb7116100f9578063a209a29c11610097578063ba69fcaa11610071578063ba69fcaa146107e8578063bdc963d814610816578063c9a52d2c14610858578063f5866066146108db576101a9565b8063a209a29c146106bf578063a77aa49e14610766578063aefc4ccb1461079e576101a9565b80638267a9ee116100d35780638267a9ee146105d75780638da5cb5b146106055780639007127b1461064f57806393fe424814610691576101a9565b806353a47bb7146105355780635a2bf25a1461057f57806379ba5097146105cd576101a9565b806325cf512d116101665780633eba9ed2116101405780633eba9ed2146103a257806344bfa56e146103dc5780634c77e5ba1461048357806352f445ca146104f1576101a9565b806325cf512d146103045780633562fd201461033c5780633cc1635c14610374576101a9565b8063025ec81a146101ae578063043106c0146101f05780630c55d9251461021e578063124f24181461024c5780631627540c1461027a57806317e7dd22146102be575b600080fd5b6101da600480360360208110156101c457600080fd5b810190808035906020019092919050505061095e565b6040518082815260200191505060405180910390f35b61021c6004803603602081101561020657600080fd5b810190808035906020019092919050505061097b565b005b61024a6004803603602081101561023457600080fd5b8101908080359060200190929190505050610a5a565b005b6102786004803603602081101561026257600080fd5b8101908080359060200190929190505050610b22565b005b6102bc6004803603602081101561029057600080fd5b81019080803573ffffffffffffffffffffffffffffffffffffffff169060200190929190505050610be2565b005b6102ea600480360360208110156102d457600080fd5b8101908080359060200190929190505050610d2e565b604051808215151515815260200191505060405180910390f35b61033a6004803603604081101561031a57600080fd5b810190808035906020019092919080359060200190929190505050610d58565b005b6103726004803603604081101561035257600080fd5b810190808035906020019092919080359060200190929190505050610e1a565b005b6103a06004803603602081101561038a57600080fd5b8101908080359060200190929190505050610edc565b005b6103da600480360360408110156103b857600080fd5b8101908080359060200190929190803515159060200190929190505050610fa8565b005b610408600480360360208110156103f257600080fd5b810190808035906020019092919050505061107d565b6040518080602001828103825283818151815260200191508051906020019080838360005b8381101561044857808201518184015260208101905061042d565b50505050905090810190601f1680156104755780820380516001836020036101000a031916815260200191505b509250505060405180910390f35b6104af6004803603602081101561049957600080fd5b8101908080359060200190929190505050611132565b604051808273ffffffffffffffffffffffffffffffffffffffff1673ffffffffffffffffffffffffffffffffffffffff16815260200191505060405180910390f35b6105336004803603602081101561050757600080fd5b81019080803573ffffffffffffffffffffffffffffffffffffffff16906020019092919050505061116f565b005b61053d6112bb565b604051808273ffffffffffffffffffffffffffffffffffffffff1673ffffffffffffffffffffffffffffffffffffffff16815260200191505060405180910390f35b6105cb6004803603604081101561059557600080fd5b8101908080359060200190929190803573ffffffffffffffffffffffffffffffffffffffff1690602001909291905050506112e1565b005b6105d56113dd565b005b610603600480360360208110156105ed57600080fd5b8101908080359060200190929190505050611603565b005b61060d6116c3565b604051808273ffffffffffffffffffffffffffffffffffffffff1673ffffffffffffffffffffffffffffffffffffffff16815260200191505060405180910390f35b61067b6004803603602081101561066557600080fd5b81019080803590602001909291905050506116e8565b6040518082815260200191505060405180910390f35b6106bd600480360360208110156106a757600080fd5b8101908080359060200190929190505050611705565b005b6106eb600480360360208110156106d557600080fd5b81019080803590602001909291905050506117c5565b6040518080602001828103825283818151815260200191508051906020019080838360005b8381101561072b578082015181840152602081019050610710565b50505050905090810190601f1680156107585780820380516001836020036101000a031916815260200191505b509250505060405180910390f35b61079c6004803603604081101561077c57600080fd5b81019080803590602001909291908035906020019092919050505061187a565b005b6107a661193c565b604051808273ffffffffffffffffffffffffffffffffffffffff1673ffffffffffffffffffffffffffffffffffffffff16815260200191505060405180910390f35b610814600480360360208110156107fe57600080fd5b8101908080359060200190929190505050611962565b005b6108426004803603602081101561082c57600080fd5b8101908080359060200190929190505050611a2a565b6040518082815260200191505060405180910390f35b6108d96004803603604081101561086e57600080fd5b81019080803590602001909291908035906020019064010000000081111561089557600080fd5b8201836020820111156108a757600080fd5b803590602001918460018302840111640100000000831117156108c957600080fd5b9091929391929390505050611a47565b005b61095c600480360360408110156108f157600080fd5b81019080803590602001909291908035906020019064010000000081111561091857600080fd5b82018360208201111561092a57600080fd5b8035906020019184600183028401116401000000008311171561094c57600080fd5b9091929391929390505050611b15565b005b600060076000838152602001908152602001600020549050919050565b600260009054906101000a900473ffffffffffffffffffffffffffffffffffffffff1673ffffffffffffffffffffffffffffffffffffffff163373ffffffffffffffffffffffffffffffffffffffff1614610a21576040517f08c379a0000000000000000000000000000000000000000000000000000000008152600401808060200182810382526034815260200180611dfd6034913960400191505060405180910390fd5b6005600082815260200190815260200160002060006101000a81549073ffffffffffffffffffffffffffffffffffffffff021916905550565b600260009054906101000a900473ffffffffffffffffffffffffffffffffffffffff1673ffffffffffffffffffffffffffffffffffffffff163373ffffffffffffffffffffffffffffffffffffffff1614610b00576040517f08c379a0000000000000000000000000000000000000000000000000000000008152600401808060200182810382526034815260200180611dfd6034913960400191505060405180910390fd5b600660008281526020019081526020016000206000610b1f9190611be3565b50565b600260009054906101000a900473ffffffffffffffffffffffffffffffffffffffff1673ffffffffffffffffffffffffffffffffffffffff163373ffffffffffffffffffffffffffffffffffffffff1614610bc8576040517f08c379a0000000000000000000000000000000000000000000000000000000008152600401808060200182810382526034815260200180611dfd6034913960400191505060405180910390fd5b600760008281526020019081526020016000206000905550565b6000809054906101000a900473ffffffffffffffffffffffffffffffffffffffff1673ffffffffffffffffffffffffffffffffffffffff163373ffffffffffffffffffffffffffffffffffffffff1614610c87576040517f08c379a000000000000000000000000000000000000000000000000000000000815260040180806020018281038252602f815260200180611dce602f913960400191505060405180910390fd5b80600160006101000a81548173ffffffffffffffffffffffffffffffffffffffff021916908373ffffffffffffffffffffffffffffffffffffffff1602179055507f906a1c6bd7e3091ea86693dd029a831c19049ce77f1dce2ce0bab1cacbabce2281604051808273ffffffffffffffffffffffffffffffffffffffff1673ffffffffffffffffffffffffffffffffffffffff16815260200191505060405180910390a150565b60006008600083815260200190815260200160002060009054906101000a900460ff169050919050565b600260009054906101000a900473ffffffffffffffffffffffffffffffffffffffff1673ffffffffffffffffffffffffffffffffffffffff163373ffffffffffffffffffffffffffffffffffffffff1614610dfe576040517f08c379a0000000000000000000000000000000000000000000000000000000008152600401808060200182810382526034815260200180611dfd6034913960400191505060405180910390fd5b8060076000848152602001908152602001600020819055505050565b600260009054906101000a900473ffffffffffffffffffffffffffffffffffffffff1673ffffffffffffffffffffffffffffffffffffffff163373ffffffffffffffffffffffffffffffffffffffff1614610ec0576040517f08c379a0000000000000000000000000000000000000000000000000000000008152600401808060200182810382526034815260200180611dfd6034913960400191505060405180910390fd5b8060036000848152602001908152602001600020819055505050565b600260009054906101000a900473ffffffffffffffffffffffffffffffffffffffff1673ffffffffffffffffffffffffffffffffffffffff163373ffffffffffffffffffffffffffffffffffffffff1614610f82576040517f08c379a0000000000000000000000000000000000000000000000000000000008152600401808060200182810382526034815260200180611dfd6034913960400191505060405180910390fd5b6008600082815260200190815260200160002060006101000a81549060ff021916905550565b600260009054906101000a900473ffffffffffffffffffffffffffffffffffffffff1673ffffffffffffffffffffffffffffffffffffffff163373ffffffffffffffffffffffffffffffffffffffff161461104e576040517f08c379a0000000000000000000000000000000000000000000000000000000008152600401808060200182810382526034815260200180611dfd6034913960400191505060405180910390fd5b806008600084815260200190815260200160002060006101000a81548160ff0219169083151502179055505050565b6060600660008381526020019081526020016000208054600181600116156101000203166002900480601f0160208091040260200160405190810160405280929190818152602001828054600181600116156101000203166002900480156111265780601f106110fb57610100808354040283529160200191611126565b820191906000526020600020905b81548152906001019060200180831161110957829003601f168201915b50505050509050919050565b60006005600083815260200190815260200160002060009054906101000a900473ffffffffffffffffffffffffffffffffffffffff169050919050565b6000809054906101000a900473ffffffffffffffffffffffffffffffffffffffff1673ffffffffffffffffffffffffffffffffffffffff163373ffffffffffffffffffffffffffffffffffffffff1614611214576040517f08c379a000000000000000000000000000000000000000000000000000000000815260040180806020018281038252602f815260200180611dce602f913960400191505060405180910390fd5b80600260006101000a81548173ffffffffffffffffffffffffffffffffffffffff021916908373ffffffffffffffffffffffffffffffffffffffff1602179055507f73f20cff579e8a4086fa607db83867595f1b6a798e718c0bfa0b94a404128e0381604051808273ffffffffffffffffffffffffffffffffffffffff1673ffffffffffffffffffffffffffffffffffffffff16815260200191505060405180910390a150565b600160009054906101000a900473ffffffffffffffffffffffffffffffffffffffff1681565b600260009054906101000a900473ffffffffffffffffffffffffffffffffffffffff1673ffffffffffffffffffffffffffffffffffffffff163373ffffffffffffffffffffffffffffffffffffffff1614611387576040517f08c379a0000000000000000000000000000000000000000000000000000000008152600401808060200182810382526034815260200180611dfd6034913960400191505060405180910390fd5b806005600084815260200190815260200160002060006101000a81548173ffffffffffffffffffffffffffffffffffffffff021916908373ffffffffffffffffffffffffffffffffffffffff1602179055505050565b600160009054906101000a900473ffffffffffffffffffffffffffffffffffffffff1673ffffffffffffffffffffffffffffffffffffffff163373ffffffffffffffffffffffffffffffffffffffff1614611483576040517f08c379a0000000000000000000000000000000000000000000000000000000008152600401808060200182810382526035815260200180611d996035913960400191505060405180910390fd5b7fb532073b38c83145e3e5135377a08bf9aab55bc0fd7c1179cd4fb995d2a5159c6000809054906101000a900473ffffffffffffffffffffffffffffffffffffffff16600160009054906101000a900473ffffffffffffffffffffffffffffffffffffffff16604051808373ffffffffffffffffffffffffffffffffffffffff1673ffffffffffffffffffffffffffffffffffffffff1681526020018273ffffffffffffffffffffffffffffffffffffffff1673ffffffffffffffffffffffffffffffffffffffff1681526020019250505060405180910390a1600160009054906101000a900473ffffffffffffffffffffffffffffffffffffffff166000806101000a81548173ffffffffffffffffffffffffffffffffffffffff021916908373ffffffffffffffffffffffffffffffffffffffff1602179055506000600160006101000a81548173ffffffffffffffffffffffffffffffffffffffff021916908373ffffffffffffffffffffffffffffffffffffffff160217905550565b600260009054906101000a900473ffffffffffffffffffffffffffffffffffffffff1673ffffffffffffffffffffffffffffffffffffffff163373ffffffffffffffffffffffffffffffffffffffff16146116a9576040517f08c379a0000000000000000000000000000000000000000000000000000000008152600401808060200182810382526034815260200180611dfd6034913960400191505060405180910390fd5b600960008281526020019081526020016000206000905550565b6000809054906101000a900473ffffffffffffffffffffffffffffffffffffffff1681565b600060096000838152602001908152602001600020549050919050565b600260009054906101000a900473ffffffffffffffffffffffffffffffffffffffff1673ffffffffffffffffffffffffffffffffffffffff163373ffffffffffffffffffffffffffffffffffffffff16146117ab576040517f08c379a0000000000000000000000000000000000000000000000000000000008152600401808060200182810382526034815260200180611dfd6034913960400191505060405180910390fd5b600360008281526020019081526020016000206000905550565b6060600460008381526020019081526020016000208054600181600116156101000203166002900480601f01602080910402602001604051908101604052809291908181526020018280546001816001161561010002031660029004801561186e5780601f106118435761010080835404028352916020019161186e565b820191906000526020600020905b81548152906001019060200180831161185157829003601f168201915b50505050509050919050565b600260009054906101000a900473ffffffffffffffffffffffffffffffffffffffff1673ffffffffffffffffffffffffffffffffffffffff163373ffffffffffffffffffffffffffffffffffffffff1614611920576040517f08c379a0000000000000000000000000000000000000000000000000000000008152600401808060200182810382526034815260200180611dfd6034913960400191505060405180910390fd5b8060096000848152602001908152602001600020819055505050565b600260009054906101000a900473ffffffffffffffffffffffffffffffffffffffff1681565b600260009054906101000a900473ffffffffffffffffffffffffffffffffffffffff1673ffffffffffffffffffffffffffffffffffffffff163373ffffffffffffffffffffffffffffffffffffffff1614611a08576040517f08c379a0000000000000000000000000000000000000000000000000000000008152600401808060200182810382526034815260200180611dfd6034913960400191505060405180910390fd5b600460008281526020019081526020016000206000611a279190611c2b565b50565b600060036000838152602001908152602001600020549050919050565b600260009054906101000a900473ffffffffffffffffffffffffffffffffffffffff1673ffffffffffffffffffffffffffffffffffffffff163373ffffffffffffffffffffffffffffffffffffffff1614611aed576040517f08c379a0000000000000000000000000000000000000000000000000000000008152600401808060200182810382526034815260200180611dfd6034913960400191505060405180910390fd5b8181600660008681526020019081526020016000209190611b0f929190611c73565b50505050565b600260009054906101000a900473ffffffffffffffffffffffffffffffffffffffff1673ffffffffffffffffffffffffffffffffffffffff163373ffffffffffffffffffffffffffffffffffffffff1614611bbb576040517f08c379a0000000000000000000000000000000000000000000000000000000008152600401808060200182810382526034815260200180611dfd6034913960400191505060405180910390fd5b8181600460008681526020019081526020016000209190611bdd929190611cf3565b50505050565b50805460018160011615610100020316600290046000825580601f10611c095750611c28565b601f016020900490600052602060002090810190611c279190611d73565b5b50565b50805460018160011615610100020316600290046000825580601f10611c515750611c70565b601f016020900490600052602060002090810190611c6f9190611d73565b5b50565b828054600181600116156101000203166002900490600052602060002090601f016020900481019282601f10611cb457803560ff1916838001178555611ce2565b82800160010185558215611ce2579182015b82811115611ce1578235825591602001919060010190611cc6565b5b509050611cef9190611d73565b5090565b828054600181600116156101000203166002900490600052602060002090601f016020900481019282601f10611d3457803560ff1916838001178555611d62565b82800160010185558215611d62579182015b82811115611d61578235825591602001919060010190611d46565b5b509050611d6f9190611d73565b5090565b611d9591905b80821115611d91576000816000905550600101611d79565b5090565b9056fe596f75206d757374206265206e6f6d696e61746564206265666f726520796f752063616e20616363657074206f776e6572736869704f6e6c792074686520636f6e7472616374206f776e6572206d617920706572666f726d207468697320616374696f6e4f6e6c7920746865206173736f63696174656420636f6e74726163742063616e20706572666f726d207468697320616374696f6ea265627a7a72315820f7d0a667eb3d8448a0a425ae0b10ac6710bb1d59b17134f504b2a86a5195aea964736f6c63430005100032",
  "source": "pragma solidity ^0.5.16;\n\n// Inheritance\nimport \"./Owned.sol\";\nimport \"./State.sol\";\n\n\n/**\n * @notice  This contract is based on the code available from this blog\n * https://blog.colony.io/writing-upgradeable-contracts-in-solidity-6743f0eecc88/\n * Implements support for storing a keccak256 key and value pairs. It is the more flexible\n * and extensible option. This ensures data schema changes can be implemented without\n * requiring upgrades to the storage contract.\n */\n// https://docs.synthetix.io/contracts/EternalStorage\ncontract EternalStorage is Owned, State {\n    constructor(address _owner, address _associatedContract) public Owned(_owner) State(_associatedContract) {}\n\n    /* ========== DATA TYPES ========== */\n    mapping(bytes32 => uint) internal UIntStorage;\n    mapping(bytes32 => string) internal StringStorage;\n    mapping(bytes32 => address) internal AddressStorage;\n    mapping(bytes32 => bytes) internal BytesStorage;\n    mapping(bytes32 => bytes32) internal Bytes32Storage;\n    mapping(bytes32 => bool) internal BooleanStorage;\n    mapping(bytes32 => int) internal IntStorage;\n\n    // UIntStorage;\n    function getUIntValue(bytes32 record) external view returns (uint) {\n        return UIntStorage[record];\n    }\n\n    function setUIntValue(bytes32 record, uint value) external onlyAssociatedContract {\n        UIntStorage[record] = value;\n    }\n\n    function deleteUIntValue(bytes32 record) external onlyAssociatedContract {\n        delete UIntStorage[record];\n    }\n\n    // StringStorage\n    function getStringValue(bytes32 record) external view returns (string memory) {\n        return StringStorage[record];\n    }\n\n    function setStringValue(bytes32 record, string calldata value) external onlyAssociatedContract {\n        StringStorage[record] = value;\n    }\n\n    function deleteStringValue(bytes32 record) external onlyAssociatedContract {\n        delete StringStorage[record];\n    }\n\n    // AddressStorage\n    function getAddressValue(bytes32 record) external view returns (address) {\n        return AddressStorage[record];\n    }\n\n    function setAddressValue(bytes32 record, address value) external onlyAssociatedContract {\n        AddressStorage[record] = value;\n    }\n\n    function deleteAddressValue(bytes32 record) external onlyAssociatedContract {\n        delete AddressStorage[record];\n    }\n\n    // BytesStorage\n    function getBytesValue(bytes32 record) external view returns (bytes memory) {\n        return BytesStorage[record];\n    }\n\n    function setBytesValue(bytes32 record, bytes calldata value) external onlyAssociatedContract {\n        BytesStorage[record] = value;\n    }\n\n    function deleteBytesValue(bytes32 record) external onlyAssociatedContract {\n        delete BytesStorage[record];\n    }\n\n    // Bytes32Storage\n    function getBytes32Value(bytes32 record) external view returns (bytes32) {\n        return Bytes32Storage[record];\n    }\n\n    function setBytes32Value(bytes32 record, bytes32 value) external onlyAssociatedContract {\n        Bytes32Storage[record] = value;\n    }\n\n    function deleteBytes32Value(bytes32 record) external onlyAssociatedContract {\n        delete Bytes32Storage[record];\n    }\n\n    // BooleanStorage\n    function getBooleanValue(bytes32 record) external view returns (bool) {\n        return BooleanStorage[record];\n    }\n\n    function setBooleanValue(bytes32 record, bool value) external onlyAssociatedContract {\n        BooleanStorage[record] = value;\n    }\n\n    function deleteBooleanValue(bytes32 record) external onlyAssociatedContract {\n        delete BooleanStorage[record];\n    }\n\n    // IntStorage\n    function getIntValue(bytes32 record) external view returns (int) {\n        return IntStorage[record];\n    }\n\n    function setIntValue(bytes32 record, int value) external onlyAssociatedContract {\n        IntStorage[record] = value;\n    }\n\n    function deleteIntValue(bytes32 record) external onlyAssociatedContract {\n        delete IntStorage[record];\n    }\n}\n",
  "sourcePath": "/Users/qizhang/Development/truffle_test2/contracts/EternalStorage.sol",
  "compiler": {
    "name": "solc",
    "version": "0.5.16+commit.9c3226ce.Emscripten.clang"
  },
  "schemaVersion": "3.2.1",
  "updatedAt": "2020-07-05T03:58:12.824Z",
  "devdoc": {
    "methods": {}
  },
  "userdoc": {
    "methods": {},
    "notice": "This contract is based on the code available from this blog https://blog.colony.io/writing-upgradeable-contracts-in-solidity-6743f0eecc88/ Implements support for storing a keccak256 key and value pairs. It is the more flexible and extensible option. This ensures data schema changes can be implemented without requiring upgrades to the storage contract."
  }
}