{
  "contractName": "EtherCollateral",
  "abi": [
    {
      "inputs": [
        {
          "internalType": "address",
          "name": "_owner",
          "type": "address"
        },
        {
          "internalType": "address",
          "name": "_resolver",
          "type": "address"
        }
      ],
      "payable": false,
      "stateMutability": "nonpayable",
      "type": "constructor"
    },
    {
      "anonymous": false,
      "inputs": [
        {
          "indexed": false,
          "internalType": "uint256",
          "name": "loanLimit",
          "type": "uint256"
        }
      ],
      "name": "AccountLoanLimitUpdated",
      "type": "event"
    },
    {
      "anonymous": false,
      "inputs": [
        {
          "indexed": false,
          "internalType": "uint256",
          "name": "ratio",
          "type": "uint256"
        }
      ],
      "name": "CollateralizationRatioUpdated",
      "type": "event"
    },
    {
      "anonymous": false,
      "inputs": [
        {
          "indexed": false,
          "internalType": "uint256",
          "name": "interestRate",
          "type": "uint256"
        }
      ],
      "name": "InterestRateUpdated",
      "type": "event"
    },
    {
      "anonymous": false,
      "inputs": [
        {
          "indexed": false,
          "internalType": "uint256",
          "name": "issueFeeRate",
          "type": "uint256"
        }
      ],
      "name": "IssueFeeRateUpdated",
      "type": "event"
    },
    {
      "anonymous": false,
      "inputs": [
        {
          "indexed": false,
          "internalType": "uint256",
          "name": "issueLimit",
          "type": "uint256"
        }
      ],
      "name": "IssueLimitUpdated",
      "type": "event"
    },
    {
      "anonymous": false,
      "inputs": [
        {
          "indexed": true,
          "internalType": "address",
          "name": "account",
          "type": "address"
        },
        {
          "indexed": false,
          "internalType": "uint256",
          "name": "loanID",
          "type": "uint256"
        },
        {
          "indexed": false,
          "internalType": "uint256",
          "name": "feesPaid",
          "type": "uint256"
        }
      ],
      "name": "LoanClosed",
      "type": "event"
    },
    {
      "anonymous": false,
      "inputs": [
        {
          "indexed": true,
          "internalType": "address",
          "name": "account",
          "type": "address"
        },
        {
          "indexed": false,
          "internalType": "uint256",
          "name": "loanID",
          "type": "uint256"
        },
        {
          "indexed": false,
          "internalType": "uint256",
          "name": "amount",
          "type": "uint256"
        }
      ],
      "name": "LoanCreated",
      "type": "event"
    },
    {
      "anonymous": false,
      "inputs": [
        {
          "indexed": true,
          "internalType": "address",
          "name": "account",
          "type": "address"
        },
        {
          "indexed": false,
          "internalType": "uint256",
          "name": "loanID",
          "type": "uint256"
        },
        {
          "indexed": false,
          "internalType": "address",
          "name": "liquidator",
          "type": "address"
        }
      ],
      "name": "LoanLiquidated",
      "type": "event"
    },
    {
      "anonymous": false,
      "inputs": [
        {
          "indexed": false,
          "internalType": "bool",
          "name": "loanLiquidationOpen",
          "type": "bool"
        }
      ],
      "name": "LoanLiquidationOpenUpdated",
      "type": "event"
    },
    {
      "anonymous": false,
      "inputs": [
        {
          "indexed": false,
          "internalType": "uint256",
          "name": "minLoanSize",
          "type": "uint256"
        }
      ],
      "name": "MinLoanSizeUpdated",
      "type": "event"
    },
    {
      "anonymous": false,
      "inputs": [
        {
          "indexed": false,
          "internalType": "address",
          "name": "oldOwner",
          "type": "address"
        },
        {
          "indexed": false,
          "internalType": "address",
          "name": "newOwner",
          "type": "address"
        }
      ],
      "name": "OwnerChanged",
      "type": "event"
    },
    {
      "anonymous": false,
      "inputs": [
        {
          "indexed": false,
          "internalType": "address",
          "name": "newOwner",
          "type": "address"
        }
      ],
      "name": "OwnerNominated",
      "type": "event"
    },
    {
      "anonymous": false,
      "inputs": [
        {
          "indexed": false,
          "internalType": "bool",
          "name": "isPaused",
          "type": "bool"
        }
      ],
      "name": "PauseChanged",
      "type": "event"
    },
    {
      "constant": true,
      "inputs": [],
      "name": "MAX_ADDRESSES_FROM_RESOLVER",
      "outputs": [
        {
          "internalType": "uint256",
          "name": "",
          "type": "uint256"
        }
      ],
      "payable": false,
      "stateMutability": "view",
      "type": "function"
    },
    {
      "constant": false,
      "inputs": [],
      "name": "acceptOwnership",
      "outputs": [],
      "payable": false,
      "stateMutability": "nonpayable",
      "type": "function"
    },
    {
      "constant": true,
      "inputs": [],
      "name": "accountLoanLimit",
      "outputs": [
        {
          "internalType": "uint256",
          "name": "",
          "type": "uint256"
        }
      ],
      "payable": false,
      "stateMutability": "view",
      "type": "function"
    },
    {
      "constant": true,
      "inputs": [
        {
          "internalType": "address",
          "name": "",
          "type": "address"
        }
      ],
      "name": "accountOpenLoanCounter",
      "outputs": [
        {
          "internalType": "uint256",
          "name": "",
          "type": "uint256"
        }
      ],
      "payable": false,
      "stateMutability": "view",
      "type": "function"
    },
    {
      "constant": true,
      "inputs": [
        {
          "internalType": "address",
          "name": "",
          "type": "address"
        },
        {
          "internalType": "uint256",
          "name": "",
          "type": "uint256"
        }
      ],
      "name": "accountsSynthLoans",
      "outputs": [
        {
          "internalType": "address",
          "name": "account",
          "type": "address"
        },
        {
          "internalType": "uint256",
          "name": "collateralAmount",
          "type": "uint256"
        },
        {
          "internalType": "uint256",
          "name": "loanAmount",
          "type": "uint256"
        },
        {
          "internalType": "uint256",
          "name": "timeCreated",
          "type": "uint256"
        },
        {
          "internalType": "uint256",
          "name": "loanID",
          "type": "uint256"
        },
        {
          "internalType": "uint256",
          "name": "timeClosed",
          "type": "uint256"
        }
      ],
      "payable": false,
      "stateMutability": "view",
      "type": "function"
    },
    {
      "constant": true,
      "inputs": [],
      "name": "collateralizationRatio",
      "outputs": [
        {
          "internalType": "uint256",
          "name": "",
          "type": "uint256"
        }
      ],
      "payable": false,
      "stateMutability": "view",
      "type": "function"
    },
    {
      "constant": true,
      "inputs": [],
      "name": "getResolverAddressesRequired",
      "outputs": [
        {
          "internalType": "bytes32[24]",
          "name": "addressesRequired",
          "type": "bytes32[24]"
        }
      ],
      "payable": false,
      "stateMutability": "view",
      "type": "function"
    },
    {
      "constant": true,
      "inputs": [],
      "name": "interestPerSecond",
      "outputs": [
        {
          "internalType": "uint256",
          "name": "",
          "type": "uint256"
        }
      ],
      "payable": false,
      "stateMutability": "view",
      "type": "function"
    },
    {
      "constant": true,
      "inputs": [],
      "name": "interestRate",
      "outputs": [
        {
          "internalType": "uint256",
          "name": "",
          "type": "uint256"
        }
      ],
      "payable": false,
      "stateMutability": "view",
      "type": "function"
    },
    {
      "constant": true,
      "inputs": [
        {
          "internalType": "contract AddressResolver",
          "name": "_resolver",
          "type": "address"
        }
      ],
      "name": "isResolverCached",
      "outputs": [
        {
          "internalType": "bool",
          "name": "",
          "type": "bool"
        }
      ],
      "payable": false,
      "stateMutability": "view",
      "type": "function"
    },
    {
      "constant": true,
      "inputs": [],
      "name": "issueFeeRate",
      "outputs": [
        {
          "internalType": "uint256",
          "name": "",
          "type": "uint256"
        }
      ],
      "payable": false,
      "stateMutability": "view",
      "type": "function"
    },
    {
      "constant": true,
      "inputs": [],
      "name": "issueLimit",
      "outputs": [
        {
          "internalType": "uint256",
          "name": "",
          "type": "uint256"
        }
      ],
      "payable": false,
      "stateMutability": "view",
      "type": "function"
    },
    {
      "constant": true,
      "inputs": [],
      "name": "lastPauseTime",
      "outputs": [
        {
          "internalType": "uint256",
          "name": "",
          "type": "uint256"
        }
      ],
      "payable": false,
      "stateMutability": "view",
      "type": "function"
    },
    {
      "constant": true,
      "inputs": [],
      "name": "liquidationDeadline",
      "outputs": [
        {
          "internalType": "uint256",
          "name": "",
          "type": "uint256"
        }
      ],
      "payable": false,
      "stateMutability": "view",
      "type": "function"
    },
    {
      "constant": true,
      "inputs": [],
      "name": "loanLiquidationOpen",
      "outputs": [
        {
          "internalType": "bool",
          "name": "",
          "type": "bool"
        }
      ],
      "payable": false,
      "stateMutability": "view",
      "type": "function"
    },
    {
      "constant": true,
      "inputs": [],
      "name": "minLoanSize",
      "outputs": [
        {
          "internalType": "uint256",
          "name": "",
          "type": "uint256"
        }
      ],
      "payable": false,
      "stateMutability": "view",
      "type": "function"
    },
    {
      "constant": false,
      "inputs": [
        {
          "internalType": "address",
          "name": "_owner",
          "type": "address"
        }
      ],
      "name": "nominateNewOwner",
      "outputs": [],
      "payable": false,
      "stateMutability": "nonpayable",
      "type": "function"
    },
    {
      "constant": true,
      "inputs": [],
      "name": "nominatedOwner",
      "outputs": [
        {
          "internalType": "address",
          "name": "",
          "type": "address"
        }
      ],
      "payable": false,
      "stateMutability": "view",
      "type": "function"
    },
    {
      "constant": true,
      "inputs": [],
      "name": "owner",
      "outputs": [
        {
          "internalType": "address",
          "name": "",
          "type": "address"
        }
      ],
      "payable": false,
      "stateMutability": "view",
      "type": "function"
    },
    {
      "constant": true,
      "inputs": [],
      "name": "paused",
      "outputs": [
        {
          "internalType": "bool",
          "name": "",
          "type": "bool"
        }
      ],
      "payable": false,
      "stateMutability": "view",
      "type": "function"
    },
    {
      "constant": true,
      "inputs": [],
      "name": "resolver",
      "outputs": [
        {
          "internalType": "contract AddressResolver",
          "name": "",
          "type": "address"
        }
      ],
      "payable": false,
      "stateMutability": "view",
      "type": "function"
    },
    {
      "constant": true,
      "inputs": [
        {
          "internalType": "uint256",
          "name": "",
          "type": "uint256"
        }
      ],
      "name": "resolverAddressesRequired",
      "outputs": [
        {
          "internalType": "bytes32",
          "name": "",
          "type": "bytes32"
        }
      ],
      "payable": false,
      "stateMutability": "view",
      "type": "function"
    },
    {
      "constant": false,
      "inputs": [
        {
          "internalType": "bool",
          "name": "_paused",
          "type": "bool"
        }
      ],
      "name": "setPaused",
      "outputs": [],
      "payable": false,
      "stateMutability": "nonpayable",
      "type": "function"
    },
    {
      "constant": false,
      "inputs": [
        {
          "internalType": "contract AddressResolver",
          "name": "_resolver",
          "type": "address"
        }
      ],
      "name": "setResolverAndSyncCache",
      "outputs": [],
      "payable": false,
      "stateMutability": "nonpayable",
      "type": "function"
    },
    {
      "constant": true,
      "inputs": [],
      "name": "totalIssuedSynths",
      "outputs": [
        {
          "internalType": "uint256",
          "name": "",
          "type": "uint256"
        }
      ],
      "payable": false,
      "stateMutability": "view",
      "type": "function"
    },
    {
      "constant": true,
      "inputs": [],
      "name": "totalLoansCreated",
      "outputs": [
        {
          "internalType": "uint256",
          "name": "",
          "type": "uint256"
        }
      ],
      "payable": false,
      "stateMutability": "view",
      "type": "function"
    },
    {
      "constant": true,
      "inputs": [],
      "name": "totalOpenLoanCount",
      "outputs": [
        {
          "internalType": "uint256",
          "name": "",
          "type": "uint256"
        }
      ],
      "payable": false,
      "stateMutability": "view",
      "type": "function"
    },
    {
      "constant": false,
      "inputs": [
        {
          "internalType": "uint256",
          "name": "ratio",
          "type": "uint256"
        }
      ],
      "name": "setCollateralizationRatio",
      "outputs": [],
      "payable": false,
      "stateMutability": "nonpayable",
      "type": "function"
    },
    {
      "constant": false,
      "inputs": [
        {
          "internalType": "uint256",
          "name": "_interestRate",
          "type": "uint256"
        }
      ],
      "name": "setInterestRate",
      "outputs": [],
      "payable": false,
      "stateMutability": "nonpayable",
      "type": "function"
    },
    {
      "constant": false,
      "inputs": [
        {
          "internalType": "uint256",
          "name": "_issueFeeRate",
          "type": "uint256"
        }
      ],
      "name": "setIssueFeeRate",
      "outputs": [],
      "payable": false,
      "stateMutability": "nonpayable",
      "type": "function"
    },
    {
      "constant": false,
      "inputs": [
        {
          "internalType": "uint256",
          "name": "_issueLimit",
          "type": "uint256"
        }
      ],
      "name": "setIssueLimit",
      "outputs": [],
      "payable": false,
      "stateMutability": "nonpayable",
      "type": "function"
    },
    {
      "constant": false,
      "inputs": [
        {
          "internalType": "uint256",
          "name": "_minLoanSize",
          "type": "uint256"
        }
      ],
      "name": "setMinLoanSize",
      "outputs": [],
      "payable": false,
      "stateMutability": "nonpayable",
      "type": "function"
    },
    {
      "constant": false,
      "inputs": [
        {
          "internalType": "uint256",
          "name": "_loanLimit",
          "type": "uint256"
        }
      ],
      "name": "setAccountLoanLimit",
      "outputs": [],
      "payable": false,
      "stateMutability": "nonpayable",
      "type": "function"
    },
    {
      "constant": false,
      "inputs": [
        {
          "internalType": "bool",
          "name": "_loanLiquidationOpen",
          "type": "bool"
        }
      ],
      "name": "setLoanLiquidationOpen",
      "outputs": [],
      "payable": false,
      "stateMutability": "nonpayable",
      "type": "function"
    },
    {
      "constant": true,
      "inputs": [],
      "name": "getContractInfo",
      "outputs": [
        {
          "internalType": "uint256",
          "name": "_collateralizationRatio",
          "type": "uint256"
        },
        {
          "internalType": "uint256",
          "name": "_issuanceRatio",
          "type": "uint256"
        },
        {
          "internalType": "uint256",
          "name": "_interestRate",
          "type": "uint256"
        },
        {
          "internalType": "uint256",
          "name": "_interestPerSecond",
          "type": "uint256"
        },
        {
          "internalType": "uint256",
          "name": "_issueFeeRate",
          "type": "uint256"
        },
        {
          "internalType": "uint256",
          "name": "_issueLimit",
          "type": "uint256"
        },
        {
          "internalType": "uint256",
          "name": "_minLoanSize",
          "type": "uint256"
        },
        {
          "internalType": "uint256",
          "name": "_totalIssuedSynths",
          "type": "uint256"
        },
        {
          "internalType": "uint256",
          "name": "_totalLoansCreated",
          "type": "uint256"
        },
        {
          "internalType": "uint256",
          "name": "_totalOpenLoanCount",
          "type": "uint256"
        },
        {
          "internalType": "uint256",
          "name": "_ethBalance",
          "type": "uint256"
        },
        {
          "internalType": "uint256",
          "name": "_liquidationDeadline",
          "type": "uint256"
        },
        {
          "internalType": "bool",
          "name": "_loanLiquidationOpen",
          "type": "bool"
        }
      ],
      "payable": false,
      "stateMutability": "view",
      "type": "function"
    },
    {
      "constant": true,
      "inputs": [],
      "name": "issuanceRatio",
      "outputs": [
        {
          "internalType": "uint256",
          "name": "",
          "type": "uint256"
        }
      ],
      "payable": false,
      "stateMutability": "view",
      "type": "function"
    },
    {
      "constant": true,
      "inputs": [
        {
          "internalType": "uint256",
          "name": "collateralAmount",
          "type": "uint256"
        }
      ],
      "name": "loanAmountFromCollateral",
      "outputs": [
        {
          "internalType": "uint256",
          "name": "",
          "type": "uint256"
        }
      ],
      "payable": false,
      "stateMutability": "view",
      "type": "function"
    },
    {
      "constant": true,
      "inputs": [
        {
          "internalType": "uint256",
          "name": "loanAmount",
          "type": "uint256"
        }
      ],
      "name": "collateralAmountForLoan",
      "outputs": [
        {
          "internalType": "uint256",
          "name": "",
          "type": "uint256"
        }
      ],
      "payable": false,
      "stateMutability": "view",
      "type": "function"
    },
    {
      "constant": true,
      "inputs": [
        {
          "internalType": "address",
          "name": "_account",
          "type": "address"
        },
        {
          "internalType": "uint256",
          "name": "_loanID",
          "type": "uint256"
        }
      ],
      "name": "currentInterestOnLoan",
      "outputs": [
        {
          "internalType": "uint256",
          "name": "",
          "type": "uint256"
        }
      ],
      "payable": false,
      "stateMutability": "view",
      "type": "function"
    },
    {
      "constant": true,
      "inputs": [
        {
          "internalType": "uint256",
          "name": "_loanAmount",
          "type": "uint256"
        },
        {
          "internalType": "uint256",
          "name": "_seconds",
          "type": "uint256"
        }
      ],
      "name": "accruedInterestOnLoan",
      "outputs": [
        {
          "internalType": "uint256",
          "name": "interestAmount",
          "type": "uint256"
        }
      ],
      "payable": false,
      "stateMutability": "view",
      "type": "function"
    },
    {
      "constant": true,
      "inputs": [
        {
          "internalType": "address",
          "name": "_account",
          "type": "address"
        },
        {
          "internalType": "uint256",
          "name": "_loanID",
          "type": "uint256"
        }
      ],
      "name": "calculateMintingFee",
      "outputs": [
        {
          "internalType": "uint256",
          "name": "",
          "type": "uint256"
        }
      ],
      "payable": false,
      "stateMutability": "view",
      "type": "function"
    },
    {
      "constant": true,
      "inputs": [
        {
          "internalType": "address",
          "name": "_account",
          "type": "address"
        }
      ],
      "name": "openLoanIDsByAccount",
      "outputs": [
        {
          "internalType": "uint256[]",
          "name": "",
          "type": "uint256[]"
        }
      ],
      "payable": false,
      "stateMutability": "view",
      "type": "function"
    },
    {
      "constant": true,
      "inputs": [
        {
          "internalType": "address",
          "name": "_account",
          "type": "address"
        },
        {
          "internalType": "uint256",
          "name": "_loanID",
          "type": "uint256"
        }
      ],
      "name": "getLoan",
      "outputs": [
        {
          "internalType": "address",
          "name": "account",
          "type": "address"
        },
        {
          "internalType": "uint256",
          "name": "collateralAmount",
          "type": "uint256"
        },
        {
          "internalType": "uint256",
          "name": "loanAmount",
          "type": "uint256"
        },
        {
          "internalType": "uint256",
          "name": "timeCreated",
          "type": "uint256"
        },
        {
          "internalType": "uint256",
          "name": "loanID",
          "type": "uint256"
        },
        {
          "internalType": "uint256",
          "name": "timeClosed",
          "type": "uint256"
        },
        {
          "internalType": "uint256",
          "name": "interest",
          "type": "uint256"
        },
        {
          "internalType": "uint256",
          "name": "totalFees",
          "type": "uint256"
        }
      ],
      "payable": false,
      "stateMutability": "view",
      "type": "function"
    },
    {
      "constant": true,
      "inputs": [
        {
          "internalType": "address",
          "name": "_account",
          "type": "address"
        },
        {
          "internalType": "uint256",
          "name": "_loanID",
          "type": "uint256"
        }
      ],
      "name": "loanLifeSpan",
      "outputs": [
        {
          "internalType": "uint256",
          "name": "loanLifeSpanResult",
          "type": "uint256"
        }
      ],
      "payable": false,
      "stateMutability": "view",
      "type": "function"
    },
    {
      "constant": false,
      "inputs": [],
      "name": "openLoan",
      "outputs": [
        {
          "internalType": "uint256",
          "name": "loanID",
          "type": "uint256"
        }
      ],
      "payable": true,
      "stateMutability": "payable",
      "type": "function"
    },
    {
      "constant": false,
      "inputs": [
        {
          "internalType": "uint256",
          "name": "loanID",
          "type": "uint256"
        }
      ],
      "name": "closeLoan",
      "outputs": [],
      "payable": false,
      "stateMutability": "nonpayable",
      "type": "function"
    },
    {
      "constant": false,
      "inputs": [
        {
          "internalType": "address",
          "name": "_loanCreatorsAddress",
          "type": "address"
        },
        {
          "internalType": "uint256",
          "name": "_loanID",
          "type": "uint256"
        }
      ],
      "name": "liquidateUnclosedLoan",
      "outputs": [],
      "payable": false,
      "stateMutability": "nonpayable",
      "type": "function"
    }
  ],
  "bytecode": "0x6080604052609673__SafeDecimalMath_______________________63907af6c06040518163ffffffff1660e01b815260040160206040518083038186803b1580156200004b57600080fd5b505af415801562000060573d6000803e3d6000fd5b505050506040513d60208110156200007757600080fd5b810190808051906020019092919050505002600655606473__SafeDecimalMath_______________________63907af6c06040518163ffffffff1660e01b815260040160206040518083038186803b158015620000d357600080fd5b505af4158015620000e8573d6000803e3d6000fd5b505050506040513d6020811015620000ff57600080fd5b8101908080519060200190929190505050600502816200011b57fe5b046007556200013f6301e133806007546200086e60201b620036ef1790919060201c565b6008556103e873__SafeDecimalMath_______________________63907af6c06040518163ffffffff1660e01b815260040160206040518083038186803b1580156200018a57600080fd5b505af41580156200019f573d6000803e3d6000fd5b505050506040513d6020811015620001b657600080fd5b810190808051906020019092919050505060050281620001d257fe5b0460095561138873__SafeDecimalMath_______________________63907af6c06040518163ffffffff1660e01b815260040160206040518083038186803b1580156200021e57600080fd5b505af415801562000233573d6000803e3d6000fd5b505050506040513d60208110156200024a57600080fd5b810190808051906020019092919050505002600a55600173__SafeDecimalMath_______________________63907af6c06040518163ffffffff1660e01b815260040160206040518083038186803b158015620002a657600080fd5b505af4158015620002bb573d6000803e3d6000fd5b505050506040513d6020811015620002d257600080fd5b810190808051906020019092919050505002600b556032600c556000600d60006101000a81548160ff0219169083151502179055506040518060a001604052807f53797374656d537461747573000000000000000000000000000000000000000081526020017f53796e746873455448000000000000000000000000000000000000000000000081526020017f53796e746873555344000000000000000000000000000000000000000000000081526020017f4465706f7400000000000000000000000000000000000000000000000000000081526020017f45786368616e67655261746573000000000000000000000000000000000000008152506014906005620003e09291906200098b565b50348015620003ee57600080fd5b506040516200543138038062005431833981810160405260408110156200041457600080fd5b8101908080519060200190929190805190602001909291905050508060146018806020026040519081016040528092919082601880156200046b576020028201915b81548152602001906001019080831162000456575b505050505083600073ffffffffffffffffffffffffffffffffffffffff168173ffffffffffffffffffffffffffffffffffffffff16141562000515576040517f08c379a00000000000000000000000000000000000000000000000000000000081526004018080602001828103825260198152602001807f4f776e657220616464726573732063616e6e6f7420626520300000000000000081525060200191505060405180910390fd5b806000806101000a81548173ffffffffffffffffffffffffffffffffffffffff021916908373ffffffffffffffffffffffffffffffffffffffff1602179055507fb532073b38c83145e3e5135377a08bf9aab55bc0fd7c1179cd4fb995d2a5159c600082604051808373ffffffffffffffffffffffffffffffffffffffff1673ffffffffffffffffffffffffffffffffffffffff1681526020018273ffffffffffffffffffffffffffffffffffffffff1673ffffffffffffffffffffffffffffffffffffffff1681526020019250505060405180910390a150600073ffffffffffffffffffffffffffffffffffffffff166000809054906101000a900473ffffffffffffffffffffffffffffffffffffffff1673ffffffffffffffffffffffffffffffffffffffff161415620006b3576040517f08c379a00000000000000000000000000000000000000000000000000000000081526004018080602001828103825260118152602001807f4f776e6572206d7573742062652073657400000000000000000000000000000081525060200191505060405180910390fd5b6001600360016101000a81548160ff021916908315150217905550600073ffffffffffffffffffffffffffffffffffffffff166000809054906101000a900473ffffffffffffffffffffffffffffffffffffffff1673ffffffffffffffffffffffffffffffffffffffff16141562000793576040517f08c379a00000000000000000000000000000000000000000000000000000000081526004018080602001828103825260118152602001807f4f776e6572206d7573742062652073657400000000000000000000000000000081525060200191505060405180910390fd5b60008090505b601881101562000816576000801b828260188110620007b457fe5b60200201511462000802576005828260188110620007ce57fe5b6020020151908060018154018082558091505090600182039060005260206000200160009091929091909150555062000808565b62000816565b808060010191505062000799565b5081600360026101000a81548173ffffffffffffffffffffffffffffffffffffffff021916908373ffffffffffffffffffffffffffffffffffffffff160217905550505062794a004201600e819055505050620009f8565b6000620008b883836040518060400160405280601a81526020017f536166654d6174683a206469766973696f6e206279207a65726f000000000000815250620008c060201b60201c565b905092915050565b6000808311829062000970576040517f08c379a00000000000000000000000000000000000000000000000000000000081526004018080602001828103825283818151815260200191508051906020019080838360005b838110156200093457808201518184015260208101905062000917565b50505050905090810190601f168015620009625780820380516001836020036101000a031916815260200191505b509250505060405180910390fd5b5060008385816200097d57fe5b049050809150509392505050565b8260188101928215620009bd579160200282015b82811115620009bc5782518255916020019190600101906200099f565b5b509050620009cc9190620009d0565b5090565b620009f591905b80821115620009f1576000816000905550600101620009d7565b5090565b90565b614a298062000a086000396000f3fe6080604052600436106102885760003560e01c80638c4638691161015a578063c6c9d828116100c1578063e3c1e58c1161007a578063e3c1e58c14610ec0578063e40108ed14610eef578063e5829d2014610f1a578063ee5f3f5c14610f55578063eea8f5da14610f80578063f53dfb8414610fab57610288565b8063c6c9d82814610d5a578063cf09b4ae14610da9578063d05951a014610dd4578063dcaf9c4414610e0f578063e220a81114610e3a578063e3235c9114610e9557610288565b8063a2e1734211610113578063a2e1734214610b4d578063a76cdfa514610ba6578063aa754a2a14610be1578063ab49848c14610c9f578063b410a03414610cf2578063bb8c6d6c14610d1d57610288565b80638c463869146109165780638da5cb5b146109855780638fdc8f3b146109dc57806391b4ded914610a2b5780639f7d568814610a56578063a1c5158614610a8157610288565b80634f069f66116101fe578063631e1444116101b7578063631e14441461075b5780636b231938146107c457806379ba5097146107e25780637c3a00fd146107f95780637cc1f8671461082457806389c937de146108a757610288565b80634f069f66146105e957806350e3b2e71461062457806353a47bb71461065f5780635c975abb146106b65780635d1a2229146106e55780635f84f3021461072057610288565b806323aa7f0f1161025057806323aa7f0f1461040257806327cff2e51461042d5780632f2bf15b1461049c578063361e2086146105425780633be99e6f1461056d5780634189bb49146105be57610288565b806304f3bcec1461028d578063089f7fb4146102e45780631474b279146103495780631627540c1461037457806316c38b3c146103c5575b600080fd5b34801561029957600080fd5b506102a2610ffa565b604051808273ffffffffffffffffffffffffffffffffffffffff1673ffffffffffffffffffffffffffffffffffffffff16815260200191505060405180910390f35b3480156102f057600080fd5b506103336004803603602081101561030757600080fd5b81019080803573ffffffffffffffffffffffffffffffffffffffff169060200190929190505050611020565b6040518082815260200191505060405180910390f35b34801561035557600080fd5b5061035e611038565b6040518082815260200191505060405180910390f35b34801561038057600080fd5b506103c36004803603602081101561039757600080fd5b81019080803573ffffffffffffffffffffffffffffffffffffffff16906020019092919050505061103e565b005b3480156103d157600080fd5b50610400600480360360208110156103e857600080fd5b8101908080351515906020019092919050505061118a565b005b34801561040e57600080fd5b506104176112d4565b6040518082815260200191505060405180910390f35b34801561043957600080fd5b506104866004803603604081101561045057600080fd5b81019080803573ffffffffffffffffffffffffffffffffffffffff169060200190929190803590602001909291905050506112da565b6040518082815260200191505060405180910390f35b3480156104a857600080fd5b506104eb600480360360208110156104bf57600080fd5b81019080803573ffffffffffffffffffffffffffffffffffffffff169060200190929190505050611302565b6040518080602001828103825283818151815260200191508051906020019060200280838360005b8381101561052e578082015181840152602081019050610513565b505050509050019250505060405180910390f35b34801561054e57600080fd5b5061055761155c565b6040518082815260200191505060405180910390f35b34801561057957600080fd5b506105bc6004803603602081101561059057600080fd5b81019080803573ffffffffffffffffffffffffffffffffffffffff169060200190929190505050611562565b005b3480156105ca57600080fd5b506105d36117c1565b6040518082815260200191505060405180910390f35b3480156105f557600080fd5b506106226004803603602081101561060c57600080fd5b81019080803590602001909291905050506117c7565b005b34801561063057600080fd5b5061065d6004803603602081101561064757600080fd5b81019080803590602001909291905050506118af565b005b34801561066b57600080fd5b50610674611997565b604051808273ffffffffffffffffffffffffffffffffffffffff1673ffffffffffffffffffffffffffffffffffffffff16815260200191505060405180910390f35b3480156106c257600080fd5b506106cb6119bd565b604051808215151515815260200191505060405180910390f35b3480156106f157600080fd5b5061071e6004803603602081101561070857600080fd5b81019080803590602001909291905050506119d0565b005b34801561072c57600080fd5b506107596004803603602081101561074357600080fd5b8101908080359060200190929190505050611b18565b005b34801561076757600080fd5b506107aa6004803603602081101561077e57600080fd5b81019080803573ffffffffffffffffffffffffffffffffffffffff169060200190929190505050611d50565b604051808215151515815260200191505060405180910390f35b6107cc611f82565b6040518082815260200191505060405180910390f35b3480156107ee57600080fd5b506107f7612682565b005b34801561080557600080fd5b5061080e6128a8565b6040518082815260200191505060405180910390f35b34801561083057600080fd5b506108396128ae565b604051808e81526020018d81526020018c81526020018b81526020018a8152602001898152602001888152602001878152602001868152602001858152602001848152602001838152602001821515151581526020019d505050505050505050505050505060405180910390f35b3480156108b357600080fd5b50610900600480360360408110156108ca57600080fd5b81019080803573ffffffffffffffffffffffffffffffffffffffff16906020019092919080359060200190929190505050612922565b6040518082815260200191505060405180910390f35b34801561092257600080fd5b5061096f6004803603604081101561093957600080fd5b81019080803573ffffffffffffffffffffffffffffffffffffffff1690602001909291908035906020019092919050505061295d565b6040518082815260200191505060405180910390f35b34801561099157600080fd5b5061099a612985565b604051808273ffffffffffffffffffffffffffffffffffffffff1673ffffffffffffffffffffffffffffffffffffffff16815260200191505060405180910390f35b3480156109e857600080fd5b50610a15600480360360208110156109ff57600080fd5b81019080803590602001909291905050506129aa565b6040518082815260200191505060405180910390f35b348015610a3757600080fd5b50610a406129cd565b6040518082815260200191505060405180910390f35b348015610a6257600080fd5b50610a6b6129d3565b6040518082815260200191505060405180910390f35b348015610a8d57600080fd5b50610ada60048036036040811015610aa457600080fd5b81019080803573ffffffffffffffffffffffffffffffffffffffff169060200190929190803590602001909291905050506129d9565b604051808973ffffffffffffffffffffffffffffffffffffffff1673ffffffffffffffffffffffffffffffffffffffff1681526020018881526020018781526020018681526020018581526020018481526020018381526020018281526020019850505050505050505060405180910390f35b348015610b5957600080fd5b50610b9060048036036040811015610b7057600080fd5b810190808035906020019092919080359060200190929190505050612a66565b6040518082815260200191505060405180910390f35b348015610bb257600080fd5b50610bdf60048036036020811015610bc957600080fd5b8101908080359060200190929190505050612a97565b005b348015610bed57600080fd5b50610c3a60048036036040811015610c0457600080fd5b81019080803573ffffffffffffffffffffffffffffffffffffffff16906020019092919080359060200190929190505050612b7f565b604051808773ffffffffffffffffffffffffffffffffffffffff1673ffffffffffffffffffffffffffffffffffffffff168152602001868152602001858152602001848152602001838152602001828152602001965050505050505060405180910390f35b348015610cab57600080fd5b50610cb4612bf5565b6040518082601860200280838360005b83811015610cdf578082015181840152602081019050610cc4565b5050505090500191505060405180910390f35b348015610cfe57600080fd5b50610d07612c4e565b6040518082815260200191505060405180910390f35b348015610d2957600080fd5b50610d5860048036036020811015610d4057600080fd5b81019080803515159060200190929190505050612c73565b005b348015610d6657600080fd5b50610d9360048036036020811015610d7d57600080fd5b8101908080359060200190929190505050612df6565b6040518082815260200191505060405180910390f35b348015610db557600080fd5b50610dbe612e17565b6040518082815260200191505060405180910390f35b348015610de057600080fd5b50610e0d60048036036020811015610df757600080fd5b8101908080359060200190929190505050612e1d565b005b348015610e1b57600080fd5b50610e24613007565b6040518082815260200191505060405180910390f35b348015610e4657600080fd5b50610e9360048036036040811015610e5d57600080fd5b81019080803573ffffffffffffffffffffffffffffffffffffffff1690602001909291908035906020019092919050505061300d565b005b348015610ea157600080fd5b50610eaa6132fc565b6040518082815260200191505060405180910390f35b348015610ecc57600080fd5b50610ed5613301565b604051808215151515815260200191505060405180910390f35b348015610efb57600080fd5b50610f04613314565b6040518082815260200191505060405180910390f35b348015610f2657600080fd5b50610f5360048036036020811015610f3d57600080fd5b810190808035906020019092919050505061331a565b005b348015610f6157600080fd5b50610f6a6134fe565b6040518082815260200191505060405180910390f35b348015610f8c57600080fd5b50610f95613504565b6040518082815260200191505060405180910390f35b348015610fb757600080fd5b50610fe460048036036020811015610fce57600080fd5b810190808035906020019092919050505061350a565b6040518082815260200191505060405180910390f35b600360029054906101000a900473ffffffffffffffffffffffffffffffffffffffff1681565b60136020528060005260406000206000915090505481565b600c5481565b6000809054906101000a900473ffffffffffffffffffffffffffffffffffffffff1673ffffffffffffffffffffffffffffffffffffffff163373ffffffffffffffffffffffffffffffffffffffff16146110e3576040517f08c379a000000000000000000000000000000000000000000000000000000000815260040180806020018281038252602f815260200180614859602f913960400191505060405180910390fd5b80600160006101000a81548173ffffffffffffffffffffffffffffffffffffffff021916908373ffffffffffffffffffffffffffffffffffffffff1602179055507f906a1c6bd7e3091ea86693dd029a831c19049ce77f1dce2ce0bab1cacbabce2281604051808273ffffffffffffffffffffffffffffffffffffffff1673ffffffffffffffffffffffffffffffffffffffff16815260200191505060405180910390a150565b6000809054906101000a900473ffffffffffffffffffffffffffffffffffffffff1673ffffffffffffffffffffffffffffffffffffffff163373ffffffffffffffffffffffffffffffffffffffff161461122f576040517f08c379a000000000000000000000000000000000000000000000000000000000815260040180806020018281038252602f815260200180614859602f913960400191505060405180910390fd5b600360009054906101000a900460ff161515811515141561124f576112d1565b80600360006101000a81548160ff021916908315150217905550600360009054906101000a900460ff161561128657426002819055505b7f8fb6c181ee25a520cf3dd6565006ef91229fcfe5a989566c2a3b8c115570cec5600360009054906101000a900460ff16604051808215151515815260200191505060405180910390a15b50565b60105481565b60006112e461474a565b6112ee8484613543565b90506112f9816136cd565b91505092915050565b606080601260008473ffffffffffffffffffffffffffffffffffffffff1673ffffffffffffffffffffffffffffffffffffffff168152602001908152602001600020805480602002602001604051908101604052809291908181526020016000905b8282101561141e57838290600052602060002090600602016040518060c00160405290816000820160009054906101000a900473ffffffffffffffffffffffffffffffffffffffff1673ffffffffffffffffffffffffffffffffffffffff1673ffffffffffffffffffffffffffffffffffffffff1681526020016001820154815260200160028201548152602001600382015481526020016004820154815260200160058201548152505081526020019060010190611364565b505050509050606081516040519080825280602002602001820160405280156114565781602001602082028038833980820191505090505b509050600080905060008090505b83518110156114d357600084828151811061147b57fe5b602002602001015160a0015114156114c65783818151811061149957fe5b6020026020010151608001518383815181106114b157fe5b60200260200101818152505081806001019250505b8080600101915050611464565b506060816040519080825280602002602001820160405280156115055781602001602082028038833980820191505090505b50905060008090505b8281101561154f5783818151811061152257fe5b602002602001015182828151811061153657fe5b602002602001018181525050808060010191505061150e565b5080945050505050919050565b60095481565b6000809054906101000a900473ffffffffffffffffffffffffffffffffffffffff1673ffffffffffffffffffffffffffffffffffffffff163373ffffffffffffffffffffffffffffffffffffffff1614611607576040517f08c379a000000000000000000000000000000000000000000000000000000000815260040180806020018281038252602f815260200180614859602f913960400191505060405180910390fd5b80600360026101000a81548173ffffffffffffffffffffffffffffffffffffffff021916908373ffffffffffffffffffffffffffffffffffffffff16021790555060008090505b6005805490508110156117bd5760006005828154811061166a57fe5b90600052602060002001549050600360029054906101000a900473ffffffffffffffffffffffffffffffffffffffff1673ffffffffffffffffffffffffffffffffffffffff1663dacb2d01826040518263ffffffff1660e01b81526004018082815260200180602001828103825260178152602001807f5265736f6c766572206d697373696e67207461726765740000000000000000008152506020019250505060206040518083038186803b15801561172357600080fd5b505afa158015611737573d6000803e3d6000fd5b505050506040513d602081101561174d57600080fd5b81019080805190602001909291905050506004600083815260200190815260200160002060006101000a81548173ffffffffffffffffffffffffffffffffffffffff021916908373ffffffffffffffffffffffffffffffffffffffff16021790555050808060010191505061164e565b5050565b60115481565b6000809054906101000a900473ffffffffffffffffffffffffffffffffffffffff1673ffffffffffffffffffffffffffffffffffffffff163373ffffffffffffffffffffffffffffffffffffffff161461186c576040517f08c379a000000000000000000000000000000000000000000000000000000000815260040180806020018281038252602f815260200180614859602f913960400191505060405180910390fd5b80600a819055507fbb72ce8874020b3b98429d653df927cac6618ac1932384b1446bf04bf9a1b7e5600a546040518082815260200191505060405180910390a150565b6000809054906101000a900473ffffffffffffffffffffffffffffffffffffffff1673ffffffffffffffffffffffffffffffffffffffff163373ffffffffffffffffffffffffffffffffffffffff1614611954576040517f08c379a000000000000000000000000000000000000000000000000000000000815260040180806020018281038252602f815260200180614859602f913960400191505060405180910390fd5b80600b819055507f8640e538c9503bd8d11554fc26280efe867c12195c0eee0aeede5f4a8d528839600b546040518082815260200191505060405180910390a150565b600160009054906101000a900473ffffffffffffffffffffffffffffffffffffffff1681565b600360009054906101000a900460ff1681565b6000809054906101000a900473ffffffffffffffffffffffffffffffffffffffff1673ffffffffffffffffffffffffffffffffffffffff163373ffffffffffffffffffffffffffffffffffffffff1614611a75576040517f08c379a000000000000000000000000000000000000000000000000000000000815260040180806020018281038252602f815260200180614859602f913960400191505060405180910390fd5b60006103e89050808210611ad4576040517f08c379a00000000000000000000000000000000000000000000000000000000081526004018080602001828103825260258152602001806147ef6025913960400191505060405180910390fd5b81600c819055507f59822dc2d999f6f0618e8b0db5cfc8496084574c769b09609d9b5f4394a310b6600c546040518082815260200191505060405180910390a15050565b6000809054906101000a900473ffffffffffffffffffffffffffffffffffffffff1673ffffffffffffffffffffffffffffffffffffffff163373ffffffffffffffffffffffffffffffffffffffff1614611bbd576040517f08c379a000000000000000000000000000000000000000000000000000000000815260040180806020018281038252602f815260200180614859602f913960400191505060405180910390fd5b6301e133808111611c19576040517f08c379a00000000000000000000000000000000000000000000000000000000081526004018080602001828103825260378152602001806149be6037913960400191505060405180910390fd5b73__SafeDecimalMath_______________________63907af6c06040518163ffffffff1660e01b815260040160206040518083038186803b158015611c5d57600080fd5b505af4158015611c71573d6000803e3d6000fd5b505050506040513d6020811015611c8757600080fd5b8101908080519060200190929190505050811115611cf0576040517f08c379a00000000000000000000000000000000000000000000000000000000081526004018080602001828103825260258152602001806149236025913960400191505060405180910390fd5b80600781905550611d0e6301e13380826136ef90919063ffffffff16565b6008819055507fa90e14be5aa57b910aa6dc16c31ff1b5cda380ae25a793b0d3f74df6131a7d746007546040518082815260200191505060405180910390a150565b60008173ffffffffffffffffffffffffffffffffffffffff16600360029054906101000a900473ffffffffffffffffffffffffffffffffffffffff1673ffffffffffffffffffffffffffffffffffffffff1614611db05760009050611f7d565b60008090505b600580549050811015611f7757600060058281548110611dd257fe5b906000526020600020015490506004600082815260200190815260200160002060009054906101000a900473ffffffffffffffffffffffffffffffffffffffff1673ffffffffffffffffffffffffffffffffffffffff16600360029054906101000a900473ffffffffffffffffffffffffffffffffffffffff1673ffffffffffffffffffffffffffffffffffffffff166321f8a721836040518263ffffffff1660e01b81526004018082815260200191505060206040518083038186803b158015611e9c57600080fd5b505afa158015611eb0573d6000803e3d6000fd5b505050506040513d6020811015611ec657600080fd5b810190808051906020019092919050505073ffffffffffffffffffffffffffffffffffffffff16141580611f595750600073ffffffffffffffffffffffffffffffffffffffff166004600083815260200190815260200160002060009054906101000a900473ffffffffffffffffffffffffffffffffffffffff1673ffffffffffffffffffffffffffffffffffffffff16145b15611f6957600092505050611f7d565b508080600101915050611db6565b50600190505b919050565b6000600360009054906101000a900460ff1615611fea576040517f08c379a000000000000000000000000000000000000000000000000000000000815260040180806020018281038252603c8152602001806148e7603c913960400191505060405180910390fd5b600360019054906101000a900460ff1661206c576040517f08c379a000000000000000000000000000000000000000000000000000000000815260040180806020018281038252601f8152602001807f5265656e7472616e637947756172643a207265656e7472616e742063616c6c0081525060200191505060405180910390fd5b6000600360016101000a81548160ff02191690831515021790555061208f613739565b73ffffffffffffffffffffffffffffffffffffffff16629919c06040518163ffffffff1660e01b815260040180807f7345544800000000000000000000000000000000000000000000000000000000815250602001905060206040518083038186803b1580156120fe57600080fd5b505afa158015612112573d6000803e3d6000fd5b505050506040513d602081101561212857600080fd5b8101908080519060200190929190505050156121ac576040517f08c379a000000000000000000000000000000000000000000000000000000000815260040180806020018281038252601d8152602001807f426c6f636b656420617320734554482072617465206973207374616c6500000081525060200191505060405180910390fd5b6121b461379f565b73ffffffffffffffffffffffffffffffffffffffff16637c3125416040518163ffffffff1660e01b815260040160006040518083038186803b1580156121f957600080fd5b505afa15801561220d573d6000803e3d6000fd5b50505050600b5434101561226c576040517f08c379a000000000000000000000000000000000000000000000000000000000815260040180806020018281038252603e8152602001806148a9603e913960400191505060405180910390fd5b60001515600d60009054906101000a900460ff161515146122f5576040517f08c379a000000000000000000000000000000000000000000000000000000000815260040180806020018281038252601e8152602001807f4c6f616e7320617265206e6f77206265696e67206c697175696461746564000081525060200191505060405180910390fd5b600c54601260003373ffffffffffffffffffffffffffffffffffffffff1673ffffffffffffffffffffffffffffffffffffffff1681526020019081526020016000208054905010612391576040517f08c379a00000000000000000000000000000000000000000000000000000000081526004018080602001828103825260228152602001806148146022913960400191505060405180910390fd5b600061239c346129aa565b9050600a546123b682600f5461380590919063ffffffff16565b1061240c576040517f08c379a00000000000000000000000000000000000000000000000000000000081526004018080602001828103825260238152602001806148366023913960400191505060405180910390fd5b61241461388d565b915061241e61474a565b6040518060c001604052803373ffffffffffffffffffffffffffffffffffffffff16815260200134815260200183815260200142815260200184815260200160008152509050601260003373ffffffffffffffffffffffffffffffffffffffff1673ffffffffffffffffffffffffffffffffffffffff168152602001908152602001600020819080600181540180825580915050906001820390600052602060002090600602016000909192909190915060008201518160000160006101000a81548173ffffffffffffffffffffffffffffffffffffffff021916908373ffffffffffffffffffffffffffffffffffffffff1602179055506020820151816001015560408201518160020155606082015181600301556080820151816004015560a0820151816005015550505061256082600f5461380590919063ffffffff16565b600f8190555061256e6138cf565b73ffffffffffffffffffffffffffffffffffffffff1663867904b433846040518363ffffffff1660e01b8152600401808373ffffffffffffffffffffffffffffffffffffffff1673ffffffffffffffffffffffffffffffffffffffff16815260200182815260200192505050600060405180830381600087803b1580156125f457600080fd5b505af1158015612608573d6000803e3d6000fd5b505050503373ffffffffffffffffffffffffffffffffffffffff167f58d170de3a12438e22d81380f353b2fcac86f0a708a1374deaa5c6322a95992f8484604051808381526020018281526020019250505060405180910390a250506001600360016101000a81548160ff02191690831515021790555090565b600160009054906101000a900473ffffffffffffffffffffffffffffffffffffffff1673ffffffffffffffffffffffffffffffffffffffff163373ffffffffffffffffffffffffffffffffffffffff1614612728576040517f08c379a00000000000000000000000000000000000000000000000000000000081526004018080602001828103825260358152602001806147ba6035913960400191505060405180910390fd5b7fb532073b38c83145e3e5135377a08bf9aab55bc0fd7c1179cd4fb995d2a5159c6000809054906101000a900473ffffffffffffffffffffffffffffffffffffffff16600160009054906101000a900473ffffffffffffffffffffffffffffffffffffffff16604051808373ffffffffffffffffffffffffffffffffffffffff1673ffffffffffffffffffffffffffffffffffffffff1681526020018273ffffffffffffffffffffffffffffffffffffffff1673ffffffffffffffffffffffffffffffffffffffff1681526020019250505060405180910390a1600160009054906101000a900473ffffffffffffffffffffffffffffffffffffffff166000806101000a81548173ffffffffffffffffffffffffffffffffffffffff021916908373ffffffffffffffffffffffffffffffffffffffff1602179055506000600160006101000a81548173ffffffffffffffffffffffffffffffffffffffff021916908373ffffffffffffffffffffffffffffffffffffffff160217905550565b60075481565b60008060008060008060008060008060008060006006549c506128cf612c4e565b9b506007549a5060085499506009549850600a549750600b549650600f54955060105494506011549350479250600e549150600d60009054906101000a900460ff169050909192939495969798999a9b9c565b600061292c61474a565b6129368484613543565b9050600061294382613935565b9050612953826040015182612a66565b9250505092915050565b600061296761474a565b6129718484613543565b905061297c81613935565b91505092915050565b6000809054906101000a900473ffffffffffffffffffffffffffffffffffffffff1681565b60006129c66129b7612c4e565b8361398790919063ffffffff16565b9050919050565b60025481565b600e5481565b6000806000806000806000806129ed61474a565b6129f78b8b613543565b905080600001519850806020015197508060400151965080606001519550806080015194508060a001519350612a398160400151612a3483613935565b612a66565b9250612a56612a47826136cd565b8461380590919063ffffffff16565b9150509295985092959890939650565b6000612a8f612a80836008546139b490919063ffffffff16565b84613a3a90919063ffffffff16565b905092915050565b6000809054906101000a900473ffffffffffffffffffffffffffffffffffffffff1673ffffffffffffffffffffffffffffffffffffffff163373ffffffffffffffffffffffffffffffffffffffff1614612b3c576040517f08c379a000000000000000000000000000000000000000000000000000000000815260040180806020018281038252602f815260200180614859602f913960400191505060405180910390fd5b806009819055507fe7bd72551c54d568cd97b00dc52d2787b5c5d4f0070d3582c1e8ba25141f799c6009546040518082815260200191505060405180910390a150565b60126020528160005260406000208181548110612b9857fe5b9060005260206000209060060201600091509150508060000160009054906101000a900473ffffffffffffffffffffffffffffffffffffffff16908060010154908060020154908060030154908060040154908060050154905086565b612bfd614796565b60008090505b600580549050811015612c4a5760058181548110612c1d57fe5b9060005260206000200154828260188110612c3457fe5b6020020181815250508080600101915050612c03565b5090565b6000612c6e60065468056bc75e2d63100000613a5690919063ffffffff16565b905090565b6000809054906101000a900473ffffffffffffffffffffffffffffffffffffffff1673ffffffffffffffffffffffffffffffffffffffff163373ffffffffffffffffffffffffffffffffffffffff1614612d18576040517f08c379a000000000000000000000000000000000000000000000000000000000815260040180806020018281038252602f815260200180614859602f913960400191505060405180910390fd5b600e544211612d8f576040517f08c379a000000000000000000000000000000000000000000000000000000000815260040180806020018281038252601b8152602001807f4265666f7265206c69717569646174696f6e20646561646c696e65000000000081525060200191505060405180910390fd5b80600d60006101000a81548160ff0219169083151502179055507faa52cf15c1fbb778214c66f64726e141551158858d1c06ca0392c6c5869c8567600d60009054906101000a900460ff16604051808215151515815260200191505060405180910390a150565b60058181548110612e0357fe5b906000526020600020016000915090505481565b600b5481565b600360019054906101000a900460ff16612e9f576040517f08c379a000000000000000000000000000000000000000000000000000000000815260040180806020018281038252601f8152602001807f5265656e7472616e637947756172643a207265656e7472616e742063616c6c0081525060200191505060405180910390fd5b6000600360016101000a81548160ff021916908315150217905550612ec2613739565b73ffffffffffffffffffffffffffffffffffffffff16629919c06040518163ffffffff1660e01b815260040180807f7345544800000000000000000000000000000000000000000000000000000000815250602001905060206040518083038186803b158015612f3157600080fd5b505afa158015612f45573d6000803e3d6000fd5b505050506040513d6020811015612f5b57600080fd5b810190808051906020019092919050505015612fdf576040517f08c379a000000000000000000000000000000000000000000000000000000000815260040180806020018281038252601d8152602001807f426c6f636b656420617320734554482072617465206973207374616c6500000081525060200191505060405180910390fd5b612fe93382613a72565b6001600360016101000a81548160ff02191690831515021790555050565b60065481565b600360019054906101000a900460ff1661308f576040517f08c379a000000000000000000000000000000000000000000000000000000000815260040180806020018281038252601f8152602001807f5265656e7472616e637947756172643a207265656e7472616e742063616c6c0081525060200191505060405180910390fd5b6000600360016101000a81548160ff0219169083151502179055506130b2613739565b73ffffffffffffffffffffffffffffffffffffffff16629919c06040518163ffffffff1660e01b815260040180807f7345544800000000000000000000000000000000000000000000000000000000815250602001905060206040518083038186803b15801561312157600080fd5b505afa158015613135573d6000803e3d6000fd5b505050506040513d602081101561314b57600080fd5b8101908080519060200190929190505050156131cf576040517f08c379a000000000000000000000000000000000000000000000000000000000815260040180806020018281038252601d8152602001807f426c6f636b656420617320734554482072617465206973207374616c6500000081525060200191505060405180910390fd5b600d60009054906101000a900460ff16613251576040517f08c379a00000000000000000000000000000000000000000000000000000000081526004018080602001828103825260178152602001807f4c69717569646174696f6e206973206e6f74206f70656e00000000000000000081525060200191505060405180910390fd5b61325b8282613a72565b8173ffffffffffffffffffffffffffffffffffffffff167fde21b2a43b0a2c2109c049fb1e4bb8653fd67d0ffd74fdcb662db381f1eeab388233604051808381526020018273ffffffffffffffffffffffffffffffffffffffff1673ffffffffffffffffffffffffffffffffffffffff1681526020019250505060405180910390a26001600360016101000a81548160ff0219169083151502179055505050565b601881565b600d60009054906101000a900460ff1681565b60085481565b6000809054906101000a900473ffffffffffffffffffffffffffffffffffffffff1673ffffffffffffffffffffffffffffffffffffffff163373ffffffffffffffffffffffffffffffffffffffff16146133bf576040517f08c379a000000000000000000000000000000000000000000000000000000000815260040180806020018281038252602f815260200180614859602f913960400191505060405180910390fd5b683635c9adc5dea0000081111561343e576040517f08c379a00000000000000000000000000000000000000000000000000000000081526004018080602001828103825260088152602001807f546f6f206869676800000000000000000000000000000000000000000000000081525060200191505060405180910390fd5b68056bc75e2d631000008110156134bd576040517f08c379a00000000000000000000000000000000000000000000000000000000081526004018080602001828103825260078152602001807f546f6f206c6f770000000000000000000000000000000000000000000000000081525060200191505060405180910390fd5b806006819055507ffb0ebe8c7316e6a251494c38876d13d9a3a029273fce7964c12aa2ce07869530816040518082815260200191505060405180910390a150565b600f5481565b600a5481565b600061353c61352d68056bc75e2d63100000600654613a5690919063ffffffff16565b8361398790919063ffffffff16565b9050919050565b61354b61474a565b6060601260008573ffffffffffffffffffffffffffffffffffffffff1673ffffffffffffffffffffffffffffffffffffffff168152602001908152602001600020805480602002602001604051908101604052809291908181526020016000905b8282101561366657838290600052602060002090600602016040518060c00160405290816000820160009054906101000a900473ffffffffffffffffffffffffffffffffffffffff1673ffffffffffffffffffffffffffffffffffffffff1673ffffffffffffffffffffffffffffffffffffffff16815260200160018201548152602001600282015481526020016003820154815260200160048201548152602001600582015481525050815260200190600101906135ac565b50505050905060008090505b81518110156136c4578382828151811061368857fe5b60200260200101516080015114156136b7578181815181106136a657fe5b6020026020010151925050506136c7565b8080600101915050613672565b50505b92915050565b60006136e86009548360400151613a3a90919063ffffffff16565b9050919050565b600061373183836040518060400160405280601a81526020017f536166654d6174683a206469766973696f6e206279207a65726f00000000000081525061420b565b905092915050565b600061379a7f45786368616e67655261746573000000000000000000000000000000000000006040518060400160405280601d81526020017f4d697373696e672045786368616e6765526174657320616464726573730000008152506142d1565b905090565b60006138007f53797374656d53746174757300000000000000000000000000000000000000006040518060400160405280601c81526020017f4d697373696e672053797374656d5374617475732061646472657373000000008152506142d1565b905090565b600080828401905083811015613883576040517f08c379a000000000000000000000000000000000000000000000000000000000815260040180806020018281038252601b8152602001807f536166654d6174683a206164646974696f6e206f766572666c6f77000000000081525060200191505060405180910390fd5b8091505092915050565b60006138a5600160115461380590919063ffffffff16565b6011819055506138c1600160105461380590919063ffffffff16565b601081905550601054905090565b60006139307f53796e74687345544800000000000000000000000000000000000000000000006040518060400160405280601981526020017f4d697373696e672053796e7468734554482061646472657373000000000000008152506142d1565b905090565b60008060008360a00151119050806139635761395e8360600151426143ed90919063ffffffff16565b61397f565b61397e83606001518460a001516143ed90919063ffffffff16565b5b915050919050565b6000601260ff16600a0a6139a483856139b490919063ffffffff16565b816139ab57fe5b04905092915050565b6000808314156139c75760009050613a34565b60008284029050828482816139d857fe5b0414613a2f576040517f08c379a00000000000000000000000000000000000000000000000000000000081526004018080602001828103825260218152602001806148886021913960400191505060405180910390fd5b809150505b92915050565b6000613a4e8383601260ff16600a0a614437565b905092915050565b6000613a6a8383601260ff16600a0a614490565b905092915050565b613a7a61379f565b73ffffffffffffffffffffffffffffffffffffffff16637c3125416040518163ffffffff1660e01b815260040160006040518083038186803b158015613abf57600080fd5b505afa158015613ad3573d6000803e3d6000fd5b50505050613adf61474a565b613ae98383613543565b90506000816080015111613b65576040517f08c379a00000000000000000000000000000000000000000000000000000000081526004018080602001828103825260138152602001807f4c6f616e20646f6573206e6f742065786973740000000000000000000000000081525060200191505060405180910390fd5b60008160a0015114613bdf576040517f08c379a00000000000000000000000000000000000000000000000000000000081526004018080602001828103825260138152602001807f4c6f616e20616c726561647920636c6f7365640000000000000000000000000081525060200191505060405180910390fd5b8060400151613bec6138cf565b73ffffffffffffffffffffffffffffffffffffffff166370a08231336040518263ffffffff1660e01b8152600401808273ffffffffffffffffffffffffffffffffffffffff1673ffffffffffffffffffffffffffffffffffffffff16815260200191505060206040518083038186803b158015613c6857600080fd5b505afa158015613c7c573d6000803e3d6000fd5b505050506040513d6020811015613c9257600080fd5b81019080805190602001909291905050501015613cfa576040517f08c379a000000000000000000000000000000000000000000000000000000000815260040180806020018281038252603e815260200180614980603e913960400191505060405180910390fd5b613d03816144eb565b613d1c8160400151600f546143ed90919063ffffffff16565b600f819055506000613d3a8260400151613d3584613935565b612a66565b90506000613d47836136cd565b90506000613d5e828461380590919063ffffffff16565b9050613d686138cf565b73ffffffffffffffffffffffffffffffffffffffff16639dc29fac3386604001516040518363ffffffff1660e01b8152600401808373ffffffffffffffffffffffffffffffffffffffff1673ffffffffffffffffffffffffffffffffffffffff16815260200182815260200192505050600060405180830381600087803b158015613df257600080fd5b505af1158015613e06573d6000803e3d6000fd5b5050505080613e136145be565b73ffffffffffffffffffffffffffffffffffffffff166370a08231613e36614624565b6040518263ffffffff1660e01b8152600401808273ffffffffffffffffffffffffffffffffffffffff1673ffffffffffffffffffffffffffffffffffffffff16815260200191505060206040518083038186803b158015613e9657600080fd5b505afa158015613eaa573d6000803e3d6000fd5b505050506040513d6020811015613ec057600080fd5b81019080805190602001909291905050501015613f28576040517f08c379a00000000000000000000000000000000000000000000000000000000081526004018080602001828103825260388152602001806149486038913960400191505060405180910390fd5b613f30614624565b73ffffffffffffffffffffffffffffffffffffffff16631f930115826040518263ffffffff1660e01b81526004016020604051808303818588803b158015613f7757600080fd5b505af1158015613f8b573d6000803e3d6000fd5b50505050506040513d6020811015613fa257600080fd5b810190808051906020019092919050505050613fbc6145be565b73ffffffffffffffffffffffffffffffffffffffff1663a9059cbb73feefeefeefeefeefeefeefeefeefeefeefeefeef613ff46145be565b73ffffffffffffffffffffffffffffffffffffffff166370a08231306040518263ffffffff1660e01b8152600401808273ffffffffffffffffffffffffffffffffffffffff1673ffffffffffffffffffffffffffffffffffffffff16815260200191505060206040518083038186803b15801561407057600080fd5b505afa158015614084573d6000803e3d6000fd5b505050506040513d602081101561409a57600080fd5b81019080805190602001909291905050506040518363ffffffff1660e01b8152600401808373ffffffffffffffffffffffffffffffffffffffff1673ffffffffffffffffffffffffffffffffffffffff16815260200182815260200192505050602060405180830381600087803b15801561411457600080fd5b505af1158015614128573d6000803e3d6000fd5b505050506040513d602081101561413e57600080fd5b8101908080519060200190929190505050503373ffffffffffffffffffffffffffffffffffffffff166108fc6141818387602001516143ed90919063ffffffff16565b9081150290604051600060405180830381858888f193505050501580156141ac573d6000803e3d6000fd5b508573ffffffffffffffffffffffffffffffffffffffff167f3cc9f5d298758bad94536f27fa6a3033c2793e0a387a2d78e72550a3b8dacf1e8683604051808381526020018281526020019250505060405180910390a2505050505050565b600080831182906142b7576040517f08c379a00000000000000000000000000000000000000000000000000000000081526004018080602001828103825283818151815260200191508051906020019080838360005b8381101561427c578082015181840152602081019050614261565b50505050905090810190601f1680156142a95780820380516001836020036101000a031916815260200191505b509250505060405180910390fd5b5060008385816142c357fe5b049050809150509392505050565b6000806004600085815260200190815260200160002060009054906101000a900473ffffffffffffffffffffffffffffffffffffffff169050600073ffffffffffffffffffffffffffffffffffffffff168173ffffffffffffffffffffffffffffffffffffffff16141583906143e2576040517f08c379a00000000000000000000000000000000000000000000000000000000081526004018080602001828103825283818151815260200191508051906020019080838360005b838110156143a757808201518184015260208101905061438c565b50505050905090810190601f1680156143d45780820380516001836020036101000a031916815260200191505b509250505060405180910390fd5b508091505092915050565b600061442f83836040518060400160405280601e81526020017f536166654d6174683a207375627472616374696f6e206f766572666c6f77000081525061468a565b905092915050565b600080600a838161444457fe5b0461445885876139b490919063ffffffff16565b8161445f57fe5b0490506005600a828161446e57fe5b061061447b57600a810190505b600a818161448557fe5b049150509392505050565b6000806144bb846144ad600a8602886139b490919063ffffffff16565b6136ef90919063ffffffff16565b90506005600a82816144c957fe5b06106144d657600a810190505b600a81816144e057fe5b049150509392505050565b600060126000836000015173ffffffffffffffffffffffffffffffffffffffff1673ffffffffffffffffffffffffffffffffffffffff168152602001908152602001600020905060008090505b818054905081101561459d57826080015182828154811061455557fe5b9060005260206000209060060201600401541415614590574282828154811061457a57fe5b9060005260206000209060060201600501819055505b8080600101915050614538565b506145b460016011546143ed90919063ffffffff16565b6011819055505050565b600061461f7f53796e74687355534400000000000000000000000000000000000000000000006040518060400160405280601981526020017f4d697373696e672053796e7468735553442061646472657373000000000000008152506142d1565b905090565b60006146857f4465706f740000000000000000000000000000000000000000000000000000006040518060400160405280601581526020017f4d697373696e67204465706f74206164647265737300000000000000000000008152506142d1565b905090565b6000838311158290614737576040517f08c379a00000000000000000000000000000000000000000000000000000000081526004018080602001828103825283818151815260200191508051906020019080838360005b838110156146fc5780820151818401526020810190506146e1565b50505050905090810190601f1680156147295780820380516001836020036101000a031916815260200191505b509250505060405180910390fd5b5060008385039050809150509392505050565b6040518060c00160405280600073ffffffffffffffffffffffffffffffffffffffff16815260200160008152602001600081526020016000815260200160008152602001600081525090565b60405180610300016040528060189060208202803883398082019150509050509056fe596f75206d757374206265206e6f6d696e61746564206265666f726520796f752063616e20616363657074206f776e6572736869704f776e65722063616e6e6f742073657420686967686572207468616e20484152445f43415045616368206163636f756e74206973206c696d74656420746f203530206c6f616e734c6f616e20416d6f756e7420657863656564732074686520737570706c79206361702e4f6e6c792074686520636f6e7472616374206f776e6572206d617920706572666f726d207468697320616374696f6e536166654d6174683a206d756c7469706c69636174696f6e206f766572666c6f774e6f7420656e6f7567682045544820746f206372656174652074686973206c6f616e2e20506c656173652073656520746865206d696e4c6f616e53697a655468697320616374696f6e2063616e6e6f7420626520706572666f726d6564207768696c652074686520636f6e747261637420697320706175736564496e7465726573742063616e6e6f74206265206d6f7265207468616e2031303025204150525468652073555344204465706f7420646f6573206e6f74206861766520656e6f756768207355534420746f2062757920666f722066656573596f7520646f206e6f742068617665207468652072657175697265642053796e74682062616c616e636520746f20636c6f73652074686973206c6f616e2e496e74657265737420726174652063616e6e6f74206265206c657373207468617420746865205345434f4e44535f494e5f415f59454152a265627a7a7231582023547cc532c1c49d3b45cb0fe87eb6e437795a04a5c73f2a17a4757fdc86475d64736f6c63430005100032",
  "deployedBytecode": "0x6080604052600436106102885760003560e01c80638c4638691161015a578063c6c9d828116100c1578063e3c1e58c1161007a578063e3c1e58c14610ec0578063e40108ed14610eef578063e5829d2014610f1a578063ee5f3f5c14610f55578063eea8f5da14610f80578063f53dfb8414610fab57610288565b8063c6c9d82814610d5a578063cf09b4ae14610da9578063d05951a014610dd4578063dcaf9c4414610e0f578063e220a81114610e3a578063e3235c9114610e9557610288565b8063a2e1734211610113578063a2e1734214610b4d578063a76cdfa514610ba6578063aa754a2a14610be1578063ab49848c14610c9f578063b410a03414610cf2578063bb8c6d6c14610d1d57610288565b80638c463869146109165780638da5cb5b146109855780638fdc8f3b146109dc57806391b4ded914610a2b5780639f7d568814610a56578063a1c5158614610a8157610288565b80634f069f66116101fe578063631e1444116101b7578063631e14441461075b5780636b231938146107c457806379ba5097146107e25780637c3a00fd146107f95780637cc1f8671461082457806389c937de146108a757610288565b80634f069f66146105e957806350e3b2e71461062457806353a47bb71461065f5780635c975abb146106b65780635d1a2229146106e55780635f84f3021461072057610288565b806323aa7f0f1161025057806323aa7f0f1461040257806327cff2e51461042d5780632f2bf15b1461049c578063361e2086146105425780633be99e6f1461056d5780634189bb49146105be57610288565b806304f3bcec1461028d578063089f7fb4146102e45780631474b279146103495780631627540c1461037457806316c38b3c146103c5575b600080fd5b34801561029957600080fd5b506102a2610ffa565b604051808273ffffffffffffffffffffffffffffffffffffffff1673ffffffffffffffffffffffffffffffffffffffff16815260200191505060405180910390f35b3480156102f057600080fd5b506103336004803603602081101561030757600080fd5b81019080803573ffffffffffffffffffffffffffffffffffffffff169060200190929190505050611020565b6040518082815260200191505060405180910390f35b34801561035557600080fd5b5061035e611038565b6040518082815260200191505060405180910390f35b34801561038057600080fd5b506103c36004803603602081101561039757600080fd5b81019080803573ffffffffffffffffffffffffffffffffffffffff16906020019092919050505061103e565b005b3480156103d157600080fd5b50610400600480360360208110156103e857600080fd5b8101908080351515906020019092919050505061118a565b005b34801561040e57600080fd5b506104176112d4565b6040518082815260200191505060405180910390f35b34801561043957600080fd5b506104866004803603604081101561045057600080fd5b81019080803573ffffffffffffffffffffffffffffffffffffffff169060200190929190803590602001909291905050506112da565b6040518082815260200191505060405180910390f35b3480156104a857600080fd5b506104eb600480360360208110156104bf57600080fd5b81019080803573ffffffffffffffffffffffffffffffffffffffff169060200190929190505050611302565b6040518080602001828103825283818151815260200191508051906020019060200280838360005b8381101561052e578082015181840152602081019050610513565b505050509050019250505060405180910390f35b34801561054e57600080fd5b5061055761155c565b6040518082815260200191505060405180910390f35b34801561057957600080fd5b506105bc6004803603602081101561059057600080fd5b81019080803573ffffffffffffffffffffffffffffffffffffffff169060200190929190505050611562565b005b3480156105ca57600080fd5b506105d36117c1565b6040518082815260200191505060405180910390f35b3480156105f557600080fd5b506106226004803603602081101561060c57600080fd5b81019080803590602001909291905050506117c7565b005b34801561063057600080fd5b5061065d6004803603602081101561064757600080fd5b81019080803590602001909291905050506118af565b005b34801561066b57600080fd5b50610674611997565b604051808273ffffffffffffffffffffffffffffffffffffffff1673ffffffffffffffffffffffffffffffffffffffff16815260200191505060405180910390f35b3480156106c257600080fd5b506106cb6119bd565b604051808215151515815260200191505060405180910390f35b3480156106f157600080fd5b5061071e6004803603602081101561070857600080fd5b81019080803590602001909291905050506119d0565b005b34801561072c57600080fd5b506107596004803603602081101561074357600080fd5b8101908080359060200190929190505050611b18565b005b34801561076757600080fd5b506107aa6004803603602081101561077e57600080fd5b81019080803573ffffffffffffffffffffffffffffffffffffffff169060200190929190505050611d50565b604051808215151515815260200191505060405180910390f35b6107cc611f82565b6040518082815260200191505060405180910390f35b3480156107ee57600080fd5b506107f7612682565b005b34801561080557600080fd5b5061080e6128a8565b6040518082815260200191505060405180910390f35b34801561083057600080fd5b506108396128ae565b604051808e81526020018d81526020018c81526020018b81526020018a8152602001898152602001888152602001878152602001868152602001858152602001848152602001838152602001821515151581526020019d505050505050505050505050505060405180910390f35b3480156108b357600080fd5b50610900600480360360408110156108ca57600080fd5b81019080803573ffffffffffffffffffffffffffffffffffffffff16906020019092919080359060200190929190505050612922565b6040518082815260200191505060405180910390f35b34801561092257600080fd5b5061096f6004803603604081101561093957600080fd5b81019080803573ffffffffffffffffffffffffffffffffffffffff1690602001909291908035906020019092919050505061295d565b6040518082815260200191505060405180910390f35b34801561099157600080fd5b5061099a612985565b604051808273ffffffffffffffffffffffffffffffffffffffff1673ffffffffffffffffffffffffffffffffffffffff16815260200191505060405180910390f35b3480156109e857600080fd5b50610a15600480360360208110156109ff57600080fd5b81019080803590602001909291905050506129aa565b6040518082815260200191505060405180910390f35b348015610a3757600080fd5b50610a406129cd565b6040518082815260200191505060405180910390f35b348015610a6257600080fd5b50610a6b6129d3565b6040518082815260200191505060405180910390f35b348015610a8d57600080fd5b50610ada60048036036040811015610aa457600080fd5b81019080803573ffffffffffffffffffffffffffffffffffffffff169060200190929190803590602001909291905050506129d9565b604051808973ffffffffffffffffffffffffffffffffffffffff1673ffffffffffffffffffffffffffffffffffffffff1681526020018881526020018781526020018681526020018581526020018481526020018381526020018281526020019850505050505050505060405180910390f35b348015610b5957600080fd5b50610b9060048036036040811015610b7057600080fd5b810190808035906020019092919080359060200190929190505050612a66565b6040518082815260200191505060405180910390f35b348015610bb257600080fd5b50610bdf60048036036020811015610bc957600080fd5b8101908080359060200190929190505050612a97565b005b348015610bed57600080fd5b50610c3a60048036036040811015610c0457600080fd5b81019080803573ffffffffffffffffffffffffffffffffffffffff16906020019092919080359060200190929190505050612b7f565b604051808773ffffffffffffffffffffffffffffffffffffffff1673ffffffffffffffffffffffffffffffffffffffff168152602001868152602001858152602001848152602001838152602001828152602001965050505050505060405180910390f35b348015610cab57600080fd5b50610cb4612bf5565b6040518082601860200280838360005b83811015610cdf578082015181840152602081019050610cc4565b5050505090500191505060405180910390f35b348015610cfe57600080fd5b50610d07612c4e565b6040518082815260200191505060405180910390f35b348015610d2957600080fd5b50610d5860048036036020811015610d4057600080fd5b81019080803515159060200190929190505050612c73565b005b348015610d6657600080fd5b50610d9360048036036020811015610d7d57600080fd5b8101908080359060200190929190505050612df6565b6040518082815260200191505060405180910390f35b348015610db557600080fd5b50610dbe612e17565b6040518082815260200191505060405180910390f35b348015610de057600080fd5b50610e0d60048036036020811015610df757600080fd5b8101908080359060200190929190505050612e1d565b005b348015610e1b57600080fd5b50610e24613007565b6040518082815260200191505060405180910390f35b348015610e4657600080fd5b50610e9360048036036040811015610e5d57600080fd5b81019080803573ffffffffffffffffffffffffffffffffffffffff1690602001909291908035906020019092919050505061300d565b005b348015610ea157600080fd5b50610eaa6132fc565b6040518082815260200191505060405180910390f35b348015610ecc57600080fd5b50610ed5613301565b604051808215151515815260200191505060405180910390f35b348015610efb57600080fd5b50610f04613314565b6040518082815260200191505060405180910390f35b348015610f2657600080fd5b50610f5360048036036020811015610f3d57600080fd5b810190808035906020019092919050505061331a565b005b348015610f6157600080fd5b50610f6a6134fe565b6040518082815260200191505060405180910390f35b348015610f8c57600080fd5b50610f95613504565b6040518082815260200191505060405180910390f35b348015610fb757600080fd5b50610fe460048036036020811015610fce57600080fd5b810190808035906020019092919050505061350a565b6040518082815260200191505060405180910390f35b600360029054906101000a900473ffffffffffffffffffffffffffffffffffffffff1681565b60136020528060005260406000206000915090505481565b600c5481565b6000809054906101000a900473ffffffffffffffffffffffffffffffffffffffff1673ffffffffffffffffffffffffffffffffffffffff163373ffffffffffffffffffffffffffffffffffffffff16146110e3576040517f08c379a000000000000000000000000000000000000000000000000000000000815260040180806020018281038252602f815260200180614859602f913960400191505060405180910390fd5b80600160006101000a81548173ffffffffffffffffffffffffffffffffffffffff021916908373ffffffffffffffffffffffffffffffffffffffff1602179055507f906a1c6bd7e3091ea86693dd029a831c19049ce77f1dce2ce0bab1cacbabce2281604051808273ffffffffffffffffffffffffffffffffffffffff1673ffffffffffffffffffffffffffffffffffffffff16815260200191505060405180910390a150565b6000809054906101000a900473ffffffffffffffffffffffffffffffffffffffff1673ffffffffffffffffffffffffffffffffffffffff163373ffffffffffffffffffffffffffffffffffffffff161461122f576040517f08c379a000000000000000000000000000000000000000000000000000000000815260040180806020018281038252602f815260200180614859602f913960400191505060405180910390fd5b600360009054906101000a900460ff161515811515141561124f576112d1565b80600360006101000a81548160ff021916908315150217905550600360009054906101000a900460ff161561128657426002819055505b7f8fb6c181ee25a520cf3dd6565006ef91229fcfe5a989566c2a3b8c115570cec5600360009054906101000a900460ff16604051808215151515815260200191505060405180910390a15b50565b60105481565b60006112e461474a565b6112ee8484613543565b90506112f9816136cd565b91505092915050565b606080601260008473ffffffffffffffffffffffffffffffffffffffff1673ffffffffffffffffffffffffffffffffffffffff168152602001908152602001600020805480602002602001604051908101604052809291908181526020016000905b8282101561141e57838290600052602060002090600602016040518060c00160405290816000820160009054906101000a900473ffffffffffffffffffffffffffffffffffffffff1673ffffffffffffffffffffffffffffffffffffffff1673ffffffffffffffffffffffffffffffffffffffff1681526020016001820154815260200160028201548152602001600382015481526020016004820154815260200160058201548152505081526020019060010190611364565b505050509050606081516040519080825280602002602001820160405280156114565781602001602082028038833980820191505090505b509050600080905060008090505b83518110156114d357600084828151811061147b57fe5b602002602001015160a0015114156114c65783818151811061149957fe5b6020026020010151608001518383815181106114b157fe5b60200260200101818152505081806001019250505b8080600101915050611464565b506060816040519080825280602002602001820160405280156115055781602001602082028038833980820191505090505b50905060008090505b8281101561154f5783818151811061152257fe5b602002602001015182828151811061153657fe5b602002602001018181525050808060010191505061150e565b5080945050505050919050565b60095481565b6000809054906101000a900473ffffffffffffffffffffffffffffffffffffffff1673ffffffffffffffffffffffffffffffffffffffff163373ffffffffffffffffffffffffffffffffffffffff1614611607576040517f08c379a000000000000000000000000000000000000000000000000000000000815260040180806020018281038252602f815260200180614859602f913960400191505060405180910390fd5b80600360026101000a81548173ffffffffffffffffffffffffffffffffffffffff021916908373ffffffffffffffffffffffffffffffffffffffff16021790555060008090505b6005805490508110156117bd5760006005828154811061166a57fe5b90600052602060002001549050600360029054906101000a900473ffffffffffffffffffffffffffffffffffffffff1673ffffffffffffffffffffffffffffffffffffffff1663dacb2d01826040518263ffffffff1660e01b81526004018082815260200180602001828103825260178152602001807f5265736f6c766572206d697373696e67207461726765740000000000000000008152506020019250505060206040518083038186803b15801561172357600080fd5b505afa158015611737573d6000803e3d6000fd5b505050506040513d602081101561174d57600080fd5b81019080805190602001909291905050506004600083815260200190815260200160002060006101000a81548173ffffffffffffffffffffffffffffffffffffffff021916908373ffffffffffffffffffffffffffffffffffffffff16021790555050808060010191505061164e565b5050565b60115481565b6000809054906101000a900473ffffffffffffffffffffffffffffffffffffffff1673ffffffffffffffffffffffffffffffffffffffff163373ffffffffffffffffffffffffffffffffffffffff161461186c576040517f08c379a000000000000000000000000000000000000000000000000000000000815260040180806020018281038252602f815260200180614859602f913960400191505060405180910390fd5b80600a819055507fbb72ce8874020b3b98429d653df927cac6618ac1932384b1446bf04bf9a1b7e5600a546040518082815260200191505060405180910390a150565b6000809054906101000a900473ffffffffffffffffffffffffffffffffffffffff1673ffffffffffffffffffffffffffffffffffffffff163373ffffffffffffffffffffffffffffffffffffffff1614611954576040517f08c379a000000000000000000000000000000000000000000000000000000000815260040180806020018281038252602f815260200180614859602f913960400191505060405180910390fd5b80600b819055507f8640e538c9503bd8d11554fc26280efe867c12195c0eee0aeede5f4a8d528839600b546040518082815260200191505060405180910390a150565b600160009054906101000a900473ffffffffffffffffffffffffffffffffffffffff1681565b600360009054906101000a900460ff1681565b6000809054906101000a900473ffffffffffffffffffffffffffffffffffffffff1673ffffffffffffffffffffffffffffffffffffffff163373ffffffffffffffffffffffffffffffffffffffff1614611a75576040517f08c379a000000000000000000000000000000000000000000000000000000000815260040180806020018281038252602f815260200180614859602f913960400191505060405180910390fd5b60006103e89050808210611ad4576040517f08c379a00000000000000000000000000000000000000000000000000000000081526004018080602001828103825260258152602001806147ef6025913960400191505060405180910390fd5b81600c819055507f59822dc2d999f6f0618e8b0db5cfc8496084574c769b09609d9b5f4394a310b6600c546040518082815260200191505060405180910390a15050565b6000809054906101000a900473ffffffffffffffffffffffffffffffffffffffff1673ffffffffffffffffffffffffffffffffffffffff163373ffffffffffffffffffffffffffffffffffffffff1614611bbd576040517f08c379a000000000000000000000000000000000000000000000000000000000815260040180806020018281038252602f815260200180614859602f913960400191505060405180910390fd5b6301e133808111611c19576040517f08c379a00000000000000000000000000000000000000000000000000000000081526004018080602001828103825260378152602001806149be6037913960400191505060405180910390fd5b73__SafeDecimalMath_______________________63907af6c06040518163ffffffff1660e01b815260040160206040518083038186803b158015611c5d57600080fd5b505af4158015611c71573d6000803e3d6000fd5b505050506040513d6020811015611c8757600080fd5b8101908080519060200190929190505050811115611cf0576040517f08c379a00000000000000000000000000000000000000000000000000000000081526004018080602001828103825260258152602001806149236025913960400191505060405180910390fd5b80600781905550611d0e6301e13380826136ef90919063ffffffff16565b6008819055507fa90e14be5aa57b910aa6dc16c31ff1b5cda380ae25a793b0d3f74df6131a7d746007546040518082815260200191505060405180910390a150565b60008173ffffffffffffffffffffffffffffffffffffffff16600360029054906101000a900473ffffffffffffffffffffffffffffffffffffffff1673ffffffffffffffffffffffffffffffffffffffff1614611db05760009050611f7d565b60008090505b600580549050811015611f7757600060058281548110611dd257fe5b906000526020600020015490506004600082815260200190815260200160002060009054906101000a900473ffffffffffffffffffffffffffffffffffffffff1673ffffffffffffffffffffffffffffffffffffffff16600360029054906101000a900473ffffffffffffffffffffffffffffffffffffffff1673ffffffffffffffffffffffffffffffffffffffff166321f8a721836040518263ffffffff1660e01b81526004018082815260200191505060206040518083038186803b158015611e9c57600080fd5b505afa158015611eb0573d6000803e3d6000fd5b505050506040513d6020811015611ec657600080fd5b810190808051906020019092919050505073ffffffffffffffffffffffffffffffffffffffff16141580611f595750600073ffffffffffffffffffffffffffffffffffffffff166004600083815260200190815260200160002060009054906101000a900473ffffffffffffffffffffffffffffffffffffffff1673ffffffffffffffffffffffffffffffffffffffff16145b15611f6957600092505050611f7d565b508080600101915050611db6565b50600190505b919050565b6000600360009054906101000a900460ff1615611fea576040517f08c379a000000000000000000000000000000000000000000000000000000000815260040180806020018281038252603c8152602001806148e7603c913960400191505060405180910390fd5b600360019054906101000a900460ff1661206c576040517f08c379a000000000000000000000000000000000000000000000000000000000815260040180806020018281038252601f8152602001807f5265656e7472616e637947756172643a207265656e7472616e742063616c6c0081525060200191505060405180910390fd5b6000600360016101000a81548160ff02191690831515021790555061208f613739565b73ffffffffffffffffffffffffffffffffffffffff16629919c06040518163ffffffff1660e01b815260040180807f7345544800000000000000000000000000000000000000000000000000000000815250602001905060206040518083038186803b1580156120fe57600080fd5b505afa158015612112573d6000803e3d6000fd5b505050506040513d602081101561212857600080fd5b8101908080519060200190929190505050156121ac576040517f08c379a000000000000000000000000000000000000000000000000000000000815260040180806020018281038252601d8152602001807f426c6f636b656420617320734554482072617465206973207374616c6500000081525060200191505060405180910390fd5b6121b461379f565b73ffffffffffffffffffffffffffffffffffffffff16637c3125416040518163ffffffff1660e01b815260040160006040518083038186803b1580156121f957600080fd5b505afa15801561220d573d6000803e3d6000fd5b50505050600b5434101561226c576040517f08c379a000000000000000000000000000000000000000000000000000000000815260040180806020018281038252603e8152602001806148a9603e913960400191505060405180910390fd5b60001515600d60009054906101000a900460ff161515146122f5576040517f08c379a000000000000000000000000000000000000000000000000000000000815260040180806020018281038252601e8152602001807f4c6f616e7320617265206e6f77206265696e67206c697175696461746564000081525060200191505060405180910390fd5b600c54601260003373ffffffffffffffffffffffffffffffffffffffff1673ffffffffffffffffffffffffffffffffffffffff1681526020019081526020016000208054905010612391576040517f08c379a00000000000000000000000000000000000000000000000000000000081526004018080602001828103825260228152602001806148146022913960400191505060405180910390fd5b600061239c346129aa565b9050600a546123b682600f5461380590919063ffffffff16565b1061240c576040517f08c379a00000000000000000000000000000000000000000000000000000000081526004018080602001828103825260238152602001806148366023913960400191505060405180910390fd5b61241461388d565b915061241e61474a565b6040518060c001604052803373ffffffffffffffffffffffffffffffffffffffff16815260200134815260200183815260200142815260200184815260200160008152509050601260003373ffffffffffffffffffffffffffffffffffffffff1673ffffffffffffffffffffffffffffffffffffffff168152602001908152602001600020819080600181540180825580915050906001820390600052602060002090600602016000909192909190915060008201518160000160006101000a81548173ffffffffffffffffffffffffffffffffffffffff021916908373ffffffffffffffffffffffffffffffffffffffff1602179055506020820151816001015560408201518160020155606082015181600301556080820151816004015560a0820151816005015550505061256082600f5461380590919063ffffffff16565b600f8190555061256e6138cf565b73ffffffffffffffffffffffffffffffffffffffff1663867904b433846040518363ffffffff1660e01b8152600401808373ffffffffffffffffffffffffffffffffffffffff1673ffffffffffffffffffffffffffffffffffffffff16815260200182815260200192505050600060405180830381600087803b1580156125f457600080fd5b505af1158015612608573d6000803e3d6000fd5b505050503373ffffffffffffffffffffffffffffffffffffffff167f58d170de3a12438e22d81380f353b2fcac86f0a708a1374deaa5c6322a95992f8484604051808381526020018281526020019250505060405180910390a250506001600360016101000a81548160ff02191690831515021790555090565b600160009054906101000a900473ffffffffffffffffffffffffffffffffffffffff1673ffffffffffffffffffffffffffffffffffffffff163373ffffffffffffffffffffffffffffffffffffffff1614612728576040517f08c379a00000000000000000000000000000000000000000000000000000000081526004018080602001828103825260358152602001806147ba6035913960400191505060405180910390fd5b7fb532073b38c83145e3e5135377a08bf9aab55bc0fd7c1179cd4fb995d2a5159c6000809054906101000a900473ffffffffffffffffffffffffffffffffffffffff16600160009054906101000a900473ffffffffffffffffffffffffffffffffffffffff16604051808373ffffffffffffffffffffffffffffffffffffffff1673ffffffffffffffffffffffffffffffffffffffff1681526020018273ffffffffffffffffffffffffffffffffffffffff1673ffffffffffffffffffffffffffffffffffffffff1681526020019250505060405180910390a1600160009054906101000a900473ffffffffffffffffffffffffffffffffffffffff166000806101000a81548173ffffffffffffffffffffffffffffffffffffffff021916908373ffffffffffffffffffffffffffffffffffffffff1602179055506000600160006101000a81548173ffffffffffffffffffffffffffffffffffffffff021916908373ffffffffffffffffffffffffffffffffffffffff160217905550565b60075481565b60008060008060008060008060008060008060006006549c506128cf612c4e565b9b506007549a5060085499506009549850600a549750600b549650600f54955060105494506011549350479250600e549150600d60009054906101000a900460ff169050909192939495969798999a9b9c565b600061292c61474a565b6129368484613543565b9050600061294382613935565b9050612953826040015182612a66565b9250505092915050565b600061296761474a565b6129718484613543565b905061297c81613935565b91505092915050565b6000809054906101000a900473ffffffffffffffffffffffffffffffffffffffff1681565b60006129c66129b7612c4e565b8361398790919063ffffffff16565b9050919050565b60025481565b600e5481565b6000806000806000806000806129ed61474a565b6129f78b8b613543565b905080600001519850806020015197508060400151965080606001519550806080015194508060a001519350612a398160400151612a3483613935565b612a66565b9250612a56612a47826136cd565b8461380590919063ffffffff16565b9150509295985092959890939650565b6000612a8f612a80836008546139b490919063ffffffff16565b84613a3a90919063ffffffff16565b905092915050565b6000809054906101000a900473ffffffffffffffffffffffffffffffffffffffff1673ffffffffffffffffffffffffffffffffffffffff163373ffffffffffffffffffffffffffffffffffffffff1614612b3c576040517f08c379a000000000000000000000000000000000000000000000000000000000815260040180806020018281038252602f815260200180614859602f913960400191505060405180910390fd5b806009819055507fe7bd72551c54d568cd97b00dc52d2787b5c5d4f0070d3582c1e8ba25141f799c6009546040518082815260200191505060405180910390a150565b60126020528160005260406000208181548110612b9857fe5b9060005260206000209060060201600091509150508060000160009054906101000a900473ffffffffffffffffffffffffffffffffffffffff16908060010154908060020154908060030154908060040154908060050154905086565b612bfd614796565b60008090505b600580549050811015612c4a5760058181548110612c1d57fe5b9060005260206000200154828260188110612c3457fe5b6020020181815250508080600101915050612c03565b5090565b6000612c6e60065468056bc75e2d63100000613a5690919063ffffffff16565b905090565b6000809054906101000a900473ffffffffffffffffffffffffffffffffffffffff1673ffffffffffffffffffffffffffffffffffffffff163373ffffffffffffffffffffffffffffffffffffffff1614612d18576040517f08c379a000000000000000000000000000000000000000000000000000000000815260040180806020018281038252602f815260200180614859602f913960400191505060405180910390fd5b600e544211612d8f576040517f08c379a000000000000000000000000000000000000000000000000000000000815260040180806020018281038252601b8152602001807f4265666f7265206c69717569646174696f6e20646561646c696e65000000000081525060200191505060405180910390fd5b80600d60006101000a81548160ff0219169083151502179055507faa52cf15c1fbb778214c66f64726e141551158858d1c06ca0392c6c5869c8567600d60009054906101000a900460ff16604051808215151515815260200191505060405180910390a150565b60058181548110612e0357fe5b906000526020600020016000915090505481565b600b5481565b600360019054906101000a900460ff16612e9f576040517f08c379a000000000000000000000000000000000000000000000000000000000815260040180806020018281038252601f8152602001807f5265656e7472616e637947756172643a207265656e7472616e742063616c6c0081525060200191505060405180910390fd5b6000600360016101000a81548160ff021916908315150217905550612ec2613739565b73ffffffffffffffffffffffffffffffffffffffff16629919c06040518163ffffffff1660e01b815260040180807f7345544800000000000000000000000000000000000000000000000000000000815250602001905060206040518083038186803b158015612f3157600080fd5b505afa158015612f45573d6000803e3d6000fd5b505050506040513d6020811015612f5b57600080fd5b810190808051906020019092919050505015612fdf576040517f08c379a000000000000000000000000000000000000000000000000000000000815260040180806020018281038252601d8152602001807f426c6f636b656420617320734554482072617465206973207374616c6500000081525060200191505060405180910390fd5b612fe93382613a72565b6001600360016101000a81548160ff02191690831515021790555050565b60065481565b600360019054906101000a900460ff1661308f576040517f08c379a000000000000000000000000000000000000000000000000000000000815260040180806020018281038252601f8152602001807f5265656e7472616e637947756172643a207265656e7472616e742063616c6c0081525060200191505060405180910390fd5b6000600360016101000a81548160ff0219169083151502179055506130b2613739565b73ffffffffffffffffffffffffffffffffffffffff16629919c06040518163ffffffff1660e01b815260040180807f7345544800000000000000000000000000000000000000000000000000000000815250602001905060206040518083038186803b15801561312157600080fd5b505afa158015613135573d6000803e3d6000fd5b505050506040513d602081101561314b57600080fd5b8101908080519060200190929190505050156131cf576040517f08c379a000000000000000000000000000000000000000000000000000000000815260040180806020018281038252601d8152602001807f426c6f636b656420617320734554482072617465206973207374616c6500000081525060200191505060405180910390fd5b600d60009054906101000a900460ff16613251576040517f08c379a00000000000000000000000000000000000000000000000000000000081526004018080602001828103825260178152602001807f4c69717569646174696f6e206973206e6f74206f70656e00000000000000000081525060200191505060405180910390fd5b61325b8282613a72565b8173ffffffffffffffffffffffffffffffffffffffff167fde21b2a43b0a2c2109c049fb1e4bb8653fd67d0ffd74fdcb662db381f1eeab388233604051808381526020018273ffffffffffffffffffffffffffffffffffffffff1673ffffffffffffffffffffffffffffffffffffffff1681526020019250505060405180910390a26001600360016101000a81548160ff0219169083151502179055505050565b601881565b600d60009054906101000a900460ff1681565b60085481565b6000809054906101000a900473ffffffffffffffffffffffffffffffffffffffff1673ffffffffffffffffffffffffffffffffffffffff163373ffffffffffffffffffffffffffffffffffffffff16146133bf576040517f08c379a000000000000000000000000000000000000000000000000000000000815260040180806020018281038252602f815260200180614859602f913960400191505060405180910390fd5b683635c9adc5dea0000081111561343e576040517f08c379a00000000000000000000000000000000000000000000000000000000081526004018080602001828103825260088152602001807f546f6f206869676800000000000000000000000000000000000000000000000081525060200191505060405180910390fd5b68056bc75e2d631000008110156134bd576040517f08c379a00000000000000000000000000000000000000000000000000000000081526004018080602001828103825260078152602001807f546f6f206c6f770000000000000000000000000000000000000000000000000081525060200191505060405180910390fd5b806006819055507ffb0ebe8c7316e6a251494c38876d13d9a3a029273fce7964c12aa2ce07869530816040518082815260200191505060405180910390a150565b600f5481565b600a5481565b600061353c61352d68056bc75e2d63100000600654613a5690919063ffffffff16565b8361398790919063ffffffff16565b9050919050565b61354b61474a565b6060601260008573ffffffffffffffffffffffffffffffffffffffff1673ffffffffffffffffffffffffffffffffffffffff168152602001908152602001600020805480602002602001604051908101604052809291908181526020016000905b8282101561366657838290600052602060002090600602016040518060c00160405290816000820160009054906101000a900473ffffffffffffffffffffffffffffffffffffffff1673ffffffffffffffffffffffffffffffffffffffff1673ffffffffffffffffffffffffffffffffffffffff16815260200160018201548152602001600282015481526020016003820154815260200160048201548152602001600582015481525050815260200190600101906135ac565b50505050905060008090505b81518110156136c4578382828151811061368857fe5b60200260200101516080015114156136b7578181815181106136a657fe5b6020026020010151925050506136c7565b8080600101915050613672565b50505b92915050565b60006136e86009548360400151613a3a90919063ffffffff16565b9050919050565b600061373183836040518060400160405280601a81526020017f536166654d6174683a206469766973696f6e206279207a65726f00000000000081525061420b565b905092915050565b600061379a7f45786368616e67655261746573000000000000000000000000000000000000006040518060400160405280601d81526020017f4d697373696e672045786368616e6765526174657320616464726573730000008152506142d1565b905090565b60006138007f53797374656d53746174757300000000000000000000000000000000000000006040518060400160405280601c81526020017f4d697373696e672053797374656d5374617475732061646472657373000000008152506142d1565b905090565b600080828401905083811015613883576040517f08c379a000000000000000000000000000000000000000000000000000000000815260040180806020018281038252601b8152602001807f536166654d6174683a206164646974696f6e206f766572666c6f77000000000081525060200191505060405180910390fd5b8091505092915050565b60006138a5600160115461380590919063ffffffff16565b6011819055506138c1600160105461380590919063ffffffff16565b601081905550601054905090565b60006139307f53796e74687345544800000000000000000000000000000000000000000000006040518060400160405280601981526020017f4d697373696e672053796e7468734554482061646472657373000000000000008152506142d1565b905090565b60008060008360a00151119050806139635761395e8360600151426143ed90919063ffffffff16565b61397f565b61397e83606001518460a001516143ed90919063ffffffff16565b5b915050919050565b6000601260ff16600a0a6139a483856139b490919063ffffffff16565b816139ab57fe5b04905092915050565b6000808314156139c75760009050613a34565b60008284029050828482816139d857fe5b0414613a2f576040517f08c379a00000000000000000000000000000000000000000000000000000000081526004018080602001828103825260218152602001806148886021913960400191505060405180910390fd5b809150505b92915050565b6000613a4e8383601260ff16600a0a614437565b905092915050565b6000613a6a8383601260ff16600a0a614490565b905092915050565b613a7a61379f565b73ffffffffffffffffffffffffffffffffffffffff16637c3125416040518163ffffffff1660e01b815260040160006040518083038186803b158015613abf57600080fd5b505afa158015613ad3573d6000803e3d6000fd5b50505050613adf61474a565b613ae98383613543565b90506000816080015111613b65576040517f08c379a00000000000000000000000000000000000000000000000000000000081526004018080602001828103825260138152602001807f4c6f616e20646f6573206e6f742065786973740000000000000000000000000081525060200191505060405180910390fd5b60008160a0015114613bdf576040517f08c379a00000000000000000000000000000000000000000000000000000000081526004018080602001828103825260138152602001807f4c6f616e20616c726561647920636c6f7365640000000000000000000000000081525060200191505060405180910390fd5b8060400151613bec6138cf565b73ffffffffffffffffffffffffffffffffffffffff166370a08231336040518263ffffffff1660e01b8152600401808273ffffffffffffffffffffffffffffffffffffffff1673ffffffffffffffffffffffffffffffffffffffff16815260200191505060206040518083038186803b158015613c6857600080fd5b505afa158015613c7c573d6000803e3d6000fd5b505050506040513d6020811015613c9257600080fd5b81019080805190602001909291905050501015613cfa576040517f08c379a000000000000000000000000000000000000000000000000000000000815260040180806020018281038252603e815260200180614980603e913960400191505060405180910390fd5b613d03816144eb565b613d1c8160400151600f546143ed90919063ffffffff16565b600f819055506000613d3a8260400151613d3584613935565b612a66565b90506000613d47836136cd565b90506000613d5e828461380590919063ffffffff16565b9050613d686138cf565b73ffffffffffffffffffffffffffffffffffffffff16639dc29fac3386604001516040518363ffffffff1660e01b8152600401808373ffffffffffffffffffffffffffffffffffffffff1673ffffffffffffffffffffffffffffffffffffffff16815260200182815260200192505050600060405180830381600087803b158015613df257600080fd5b505af1158015613e06573d6000803e3d6000fd5b5050505080613e136145be565b73ffffffffffffffffffffffffffffffffffffffff166370a08231613e36614624565b6040518263ffffffff1660e01b8152600401808273ffffffffffffffffffffffffffffffffffffffff1673ffffffffffffffffffffffffffffffffffffffff16815260200191505060206040518083038186803b158015613e9657600080fd5b505afa158015613eaa573d6000803e3d6000fd5b505050506040513d6020811015613ec057600080fd5b81019080805190602001909291905050501015613f28576040517f08c379a00000000000000000000000000000000000000000000000000000000081526004018080602001828103825260388152602001806149486038913960400191505060405180910390fd5b613f30614624565b73ffffffffffffffffffffffffffffffffffffffff16631f930115826040518263ffffffff1660e01b81526004016020604051808303818588803b158015613f7757600080fd5b505af1158015613f8b573d6000803e3d6000fd5b50505050506040513d6020811015613fa257600080fd5b810190808051906020019092919050505050613fbc6145be565b73ffffffffffffffffffffffffffffffffffffffff1663a9059cbb73feefeefeefeefeefeefeefeefeefeefeefeefeef613ff46145be565b73ffffffffffffffffffffffffffffffffffffffff166370a08231306040518263ffffffff1660e01b8152600401808273ffffffffffffffffffffffffffffffffffffffff1673ffffffffffffffffffffffffffffffffffffffff16815260200191505060206040518083038186803b15801561407057600080fd5b505afa158015614084573d6000803e3d6000fd5b505050506040513d602081101561409a57600080fd5b81019080805190602001909291905050506040518363ffffffff1660e01b8152600401808373ffffffffffffffffffffffffffffffffffffffff1673ffffffffffffffffffffffffffffffffffffffff16815260200182815260200192505050602060405180830381600087803b15801561411457600080fd5b505af1158015614128573d6000803e3d6000fd5b505050506040513d602081101561413e57600080fd5b8101908080519060200190929190505050503373ffffffffffffffffffffffffffffffffffffffff166108fc6141818387602001516143ed90919063ffffffff16565b9081150290604051600060405180830381858888f193505050501580156141ac573d6000803e3d6000fd5b508573ffffffffffffffffffffffffffffffffffffffff167f3cc9f5d298758bad94536f27fa6a3033c2793e0a387a2d78e72550a3b8dacf1e8683604051808381526020018281526020019250505060405180910390a2505050505050565b600080831182906142b7576040517f08c379a00000000000000000000000000000000000000000000000000000000081526004018080602001828103825283818151815260200191508051906020019080838360005b8381101561427c578082015181840152602081019050614261565b50505050905090810190601f1680156142a95780820380516001836020036101000a031916815260200191505b509250505060405180910390fd5b5060008385816142c357fe5b049050809150509392505050565b6000806004600085815260200190815260200160002060009054906101000a900473ffffffffffffffffffffffffffffffffffffffff169050600073ffffffffffffffffffffffffffffffffffffffff168173ffffffffffffffffffffffffffffffffffffffff16141583906143e2576040517f08c379a00000000000000000000000000000000000000000000000000000000081526004018080602001828103825283818151815260200191508051906020019080838360005b838110156143a757808201518184015260208101905061438c565b50505050905090810190601f1680156143d45780820380516001836020036101000a031916815260200191505b509250505060405180910390fd5b508091505092915050565b600061442f83836040518060400160405280601e81526020017f536166654d6174683a207375627472616374696f6e206f766572666c6f77000081525061468a565b905092915050565b600080600a838161444457fe5b0461445885876139b490919063ffffffff16565b8161445f57fe5b0490506005600a828161446e57fe5b061061447b57600a810190505b600a818161448557fe5b049150509392505050565b6000806144bb846144ad600a8602886139b490919063ffffffff16565b6136ef90919063ffffffff16565b90506005600a82816144c957fe5b06106144d657600a810190505b600a81816144e057fe5b049150509392505050565b600060126000836000015173ffffffffffffffffffffffffffffffffffffffff1673ffffffffffffffffffffffffffffffffffffffff168152602001908152602001600020905060008090505b818054905081101561459d57826080015182828154811061455557fe5b9060005260206000209060060201600401541415614590574282828154811061457a57fe5b9060005260206000209060060201600501819055505b8080600101915050614538565b506145b460016011546143ed90919063ffffffff16565b6011819055505050565b600061461f7f53796e74687355534400000000000000000000000000000000000000000000006040518060400160405280601981526020017f4d697373696e672053796e7468735553442061646472657373000000000000008152506142d1565b905090565b60006146857f4465706f740000000000000000000000000000000000000000000000000000006040518060400160405280601581526020017f4d697373696e67204465706f74206164647265737300000000000000000000008152506142d1565b905090565b6000838311158290614737576040517f08c379a00000000000000000000000000000000000000000000000000000000081526004018080602001828103825283818151815260200191508051906020019080838360005b838110156146fc5780820151818401526020810190506146e1565b50505050905090810190601f1680156147295780820380516001836020036101000a031916815260200191505b509250505060405180910390fd5b5060008385039050809150509392505050565b6040518060c00160405280600073ffffffffffffffffffffffffffffffffffffffff16815260200160008152602001600081526020016000815260200160008152602001600081525090565b60405180610300016040528060189060208202803883398082019150509050509056fe596f75206d757374206265206e6f6d696e61746564206265666f726520796f752063616e20616363657074206f776e6572736869704f776e65722063616e6e6f742073657420686967686572207468616e20484152445f43415045616368206163636f756e74206973206c696d74656420746f203530206c6f616e734c6f616e20416d6f756e7420657863656564732074686520737570706c79206361702e4f6e6c792074686520636f6e7472616374206f776e6572206d617920706572666f726d207468697320616374696f6e536166654d6174683a206d756c7469706c69636174696f6e206f766572666c6f774e6f7420656e6f7567682045544820746f206372656174652074686973206c6f616e2e20506c656173652073656520746865206d696e4c6f616e53697a655468697320616374696f6e2063616e6e6f7420626520706572666f726d6564207768696c652074686520636f6e747261637420697320706175736564496e7465726573742063616e6e6f74206265206d6f7265207468616e2031303025204150525468652073555344204465706f7420646f6573206e6f74206861766520656e6f756768207355534420746f2062757920666f722066656573596f7520646f206e6f742068617665207468652072657175697265642053796e74682062616c616e636520746f20636c6f73652074686973206c6f616e2e496e74657265737420726174652063616e6e6f74206265206c657373207468617420746865205345434f4e44535f494e5f415f59454152a265627a7a7231582023547cc532c1c49d3b45cb0fe87eb6e437795a04a5c73f2a17a4757fdc86475d64736f6c63430005100032",
  "source": "pragma solidity ^0.5.16;\n\n// Inheritance\nimport \"./Owned.sol\";\nimport \"./Pausable.sol\";\nimport \"openzeppelin-solidity/contracts/utils/ReentrancyGuard.sol\";\nimport \"./MixinResolver.sol\";\nimport \"./interfaces/IEtherCollateral.sol\";\n\n// Libraries\nimport \"./SafeDecimalMath.sol\";\n\n// Internal references\nimport \"./interfaces/ISystemStatus.sol\";\nimport \"./interfaces/IFeePool.sol\";\nimport \"./interfaces/ISynth.sol\";\nimport \"./interfaces/IERC20.sol\";\nimport \"./interfaces/IDepot.sol\";\nimport \"./interfaces/IExchangeRates.sol\";\n\n\n// https://docs.synthetix.io/contracts/EtherCollateral\ncontract EtherCollateral is Owned, Pausable, ReentrancyGuard, MixinResolver, IEtherCollateral {\n    using SafeMath for uint256;\n    using SafeDecimalMath for uint256;\n\n    // ========== CONSTANTS ==========\n    uint256 internal constant ONE_THOUSAND = 1e18 * 1000;\n    uint256 internal constant ONE_HUNDRED = 1e18 * 100;\n\n    uint256 internal constant SECONDS_IN_A_YEAR = 31536000; // Common Year\n\n    // Where fees are pooled in sUSD.\n    address internal constant FEE_ADDRESS = 0xfeEFEEfeefEeFeefEEFEEfEeFeefEEFeeFEEFEeF;\n\n    // ========== SETTER STATE VARIABLES ==========\n\n    // The ratio of Collateral to synths issued\n    uint256 public collateralizationRatio = SafeDecimalMath.unit() * 150;\n\n    // If updated, all outstanding loans will pay this interest rate in on closure of the loan. Default 5%\n    uint256 public interestRate = (5 * SafeDecimalMath.unit()) / 100;\n    uint256 public interestPerSecond = interestRate.div(SECONDS_IN_A_YEAR);\n\n    // Minting fee for issuing the synths. Default 50 bips.\n    uint256 public issueFeeRate = (5 * SafeDecimalMath.unit()) / 1000;\n\n    // Maximum amount of sETH that can be issued by the EtherCollateral contract. Default 5000\n    uint256 public issueLimit = SafeDecimalMath.unit() * 5000;\n\n    // Minimum amount of ETH to create loan preventing griefing and gas consumption. Min 1ETH = 0.6666666667 sETH\n    uint256 public minLoanSize = SafeDecimalMath.unit() * 1;\n\n    // Maximum number of loans an account can create\n    uint256 public accountLoanLimit = 50;\n\n    // If true then any wallet addres can close a loan not just the loan creator.\n    bool public loanLiquidationOpen = false;\n\n    // Time when remaining loans can be liquidated\n    uint256 public liquidationDeadline;\n\n    // ========== STATE VARIABLES ==========\n\n    // The total number of synths issued by the collateral in this contract\n    uint256 public totalIssuedSynths;\n\n    // Total number of loans ever created\n    uint256 public totalLoansCreated;\n\n    // Total number of open loans\n    uint256 public totalOpenLoanCount;\n\n    // Synth loan storage struct\n    struct SynthLoanStruct {\n        //  Acccount that created the loan\n        address account;\n        //  Amount (in collateral token ) that they deposited\n        uint256 collateralAmount;\n        //  Amount (in synths) that they issued to borrow\n        uint256 loanAmount;\n        // When the loan was created\n        uint256 timeCreated;\n        // ID for the loan\n        uint256 loanID;\n        // When the loan was paidback (closed)\n        uint256 timeClosed;\n    }\n\n    // Users Loans by address\n    mapping(address => SynthLoanStruct[]) public accountsSynthLoans;\n\n    // Account Open Loan Counter\n    mapping(address => uint256) public accountOpenLoanCounter;\n\n    /* ========== ADDRESS RESOLVER CONFIGURATION ========== */\n\n    bytes32 private constant CONTRACT_SYSTEMSTATUS = \"SystemStatus\";\n    bytes32 private constant CONTRACT_SYNTHSETH = \"SynthsETH\";\n    bytes32 private constant CONTRACT_SYNTHSUSD = \"SynthsUSD\";\n    bytes32 private constant CONTRACT_DEPOT = \"Depot\";\n    bytes32 private constant CONTRACT_EXRATES = \"ExchangeRates\";\n\n    bytes32[24] private addressesToCache = [\n        CONTRACT_SYSTEMSTATUS,\n        CONTRACT_SYNTHSETH,\n        CONTRACT_SYNTHSUSD,\n        CONTRACT_DEPOT,\n        CONTRACT_EXRATES\n    ];\n\n    // ========== CONSTRUCTOR ==========\n    constructor(address _owner, address _resolver)\n        public\n        Owned(_owner)\n        Pausable()\n        MixinResolver(_resolver, addressesToCache)\n    {\n        liquidationDeadline = now + 92 days; // Time before loans can be liquidated\n    }\n\n    // ========== SETTERS ==========\n\n    function setCollateralizationRatio(uint256 ratio) external onlyOwner {\n        require(ratio <= ONE_THOUSAND, \"Too high\");\n        require(ratio >= ONE_HUNDRED, \"Too low\");\n        collateralizationRatio = ratio;\n        emit CollateralizationRatioUpdated(ratio);\n    }\n\n    function setInterestRate(uint256 _interestRate) external onlyOwner {\n        require(_interestRate > SECONDS_IN_A_YEAR, \"Interest rate cannot be less that the SECONDS_IN_A_YEAR\");\n        require(_interestRate <= SafeDecimalMath.unit(), \"Interest cannot be more than 100% APR\");\n        interestRate = _interestRate;\n        interestPerSecond = _interestRate.div(SECONDS_IN_A_YEAR);\n        emit InterestRateUpdated(interestRate);\n    }\n\n    function setIssueFeeRate(uint256 _issueFeeRate) external onlyOwner {\n        issueFeeRate = _issueFeeRate;\n        emit IssueFeeRateUpdated(issueFeeRate);\n    }\n\n    function setIssueLimit(uint256 _issueLimit) external onlyOwner {\n        issueLimit = _issueLimit;\n        emit IssueLimitUpdated(issueLimit);\n    }\n\n    function setMinLoanSize(uint256 _minLoanSize) external onlyOwner {\n        minLoanSize = _minLoanSize;\n        emit MinLoanSizeUpdated(minLoanSize);\n    }\n\n    function setAccountLoanLimit(uint256 _loanLimit) external onlyOwner {\n        uint256 HARD_CAP = 1000;\n        require(_loanLimit < HARD_CAP, \"Owner cannot set higher than HARD_CAP\");\n        accountLoanLimit = _loanLimit;\n        emit AccountLoanLimitUpdated(accountLoanLimit);\n    }\n\n    function setLoanLiquidationOpen(bool _loanLiquidationOpen) external onlyOwner {\n        require(now > liquidationDeadline, \"Before liquidation deadline\");\n        loanLiquidationOpen = _loanLiquidationOpen;\n        emit LoanLiquidationOpenUpdated(loanLiquidationOpen);\n    }\n\n    // ========== PUBLIC VIEWS ==========\n\n    function getContractInfo()\n        external\n        view\n        returns (\n            uint256 _collateralizationRatio,\n            uint256 _issuanceRatio,\n            uint256 _interestRate,\n            uint256 _interestPerSecond,\n            uint256 _issueFeeRate,\n            uint256 _issueLimit,\n            uint256 _minLoanSize,\n            uint256 _totalIssuedSynths,\n            uint256 _totalLoansCreated,\n            uint256 _totalOpenLoanCount,\n            uint256 _ethBalance,\n            uint256 _liquidationDeadline,\n            bool _loanLiquidationOpen\n        )\n    {\n        _collateralizationRatio = collateralizationRatio;\n        _issuanceRatio = issuanceRatio();\n        _interestRate = interestRate;\n        _interestPerSecond = interestPerSecond;\n        _issueFeeRate = issueFeeRate;\n        _issueLimit = issueLimit;\n        _minLoanSize = minLoanSize;\n        _totalIssuedSynths = totalIssuedSynths;\n        _totalLoansCreated = totalLoansCreated;\n        _totalOpenLoanCount = totalOpenLoanCount;\n        _ethBalance = address(this).balance;\n        _liquidationDeadline = liquidationDeadline;\n        _loanLiquidationOpen = loanLiquidationOpen;\n    }\n\n    // returns value of 100 / collateralizationRatio.\n    // e.g. 100/150 = 0.666666666666666667\n    // or in wei 100000000000000000000/150000000000000000000 = 666666666666666667\n    function issuanceRatio() public view returns (uint256) {\n        // this Rounds so you get slightly more rather than slightly less\n        // 4999999999999999995000\n        return ONE_HUNDRED.divideDecimalRound(collateralizationRatio);\n    }\n\n    function loanAmountFromCollateral(uint256 collateralAmount) public view returns (uint256) {\n        return collateralAmount.multiplyDecimal(issuanceRatio());\n    }\n\n    function collateralAmountForLoan(uint256 loanAmount) external view returns (uint256) {\n        return loanAmount.multiplyDecimal(collateralizationRatio.divideDecimalRound(ONE_HUNDRED));\n    }\n\n    function currentInterestOnLoan(address _account, uint256 _loanID) external view returns (uint256) {\n        // Get the loan from storage\n        SynthLoanStruct memory synthLoan = _getLoanFromStorage(_account, _loanID);\n        uint256 loanLifeSpan = _loanLifeSpan(synthLoan);\n        return accruedInterestOnLoan(synthLoan.loanAmount, loanLifeSpan);\n    }\n\n    function accruedInterestOnLoan(uint256 _loanAmount, uint256 _seconds) public view returns (uint256 interestAmount) {\n        // Simple interest calculated per second\n        // Interest = Principal * rate * time\n        interestAmount = _loanAmount.multiplyDecimalRound(interestPerSecond.mul(_seconds));\n    }\n\n    function calculateMintingFee(address _account, uint256 _loanID) external view returns (uint256) {\n        // Get the loan from storage\n        SynthLoanStruct memory synthLoan = _getLoanFromStorage(_account, _loanID);\n        return _calculateMintingFee(synthLoan);\n    }\n\n    function openLoanIDsByAccount(address _account) external view returns (uint256[] memory) {\n        SynthLoanStruct[] memory synthLoans = accountsSynthLoans[_account];\n\n        uint256[] memory _openLoanIDs = new uint256[](synthLoans.length);\n        uint256 _counter = 0;\n\n        for (uint256 i = 0; i < synthLoans.length; i++) {\n            if (synthLoans[i].timeClosed == 0) {\n                _openLoanIDs[_counter] = synthLoans[i].loanID;\n                _counter++;\n            }\n        }\n        // Create the fixed size array to return\n        uint256[] memory _result = new uint256[](_counter);\n\n        // Copy loanIDs from dynamic array to fixed array\n        for (uint256 j = 0; j < _counter; j++) {\n            _result[j] = _openLoanIDs[j];\n        }\n        // Return an array with list of open Loan IDs\n        return _result;\n    }\n\n    function getLoan(address _account, uint256 _loanID)\n        external\n        view\n        returns (\n            address account,\n            uint256 collateralAmount,\n            uint256 loanAmount,\n            uint256 timeCreated,\n            uint256 loanID,\n            uint256 timeClosed,\n            uint256 interest,\n            uint256 totalFees\n        )\n    {\n        SynthLoanStruct memory synthLoan = _getLoanFromStorage(_account, _loanID);\n        account = synthLoan.account;\n        collateralAmount = synthLoan.collateralAmount;\n        loanAmount = synthLoan.loanAmount;\n        timeCreated = synthLoan.timeCreated;\n        loanID = synthLoan.loanID;\n        timeClosed = synthLoan.timeClosed;\n        interest = accruedInterestOnLoan(synthLoan.loanAmount, _loanLifeSpan(synthLoan));\n        totalFees = interest.add(_calculateMintingFee(synthLoan));\n    }\n\n    function loanLifeSpan(address _account, uint256 _loanID) external view returns (uint256 loanLifeSpanResult) {\n        SynthLoanStruct memory synthLoan = _getLoanFromStorage(_account, _loanID);\n        loanLifeSpanResult = _loanLifeSpan(synthLoan);\n    }\n\n    // ========== PUBLIC FUNCTIONS ==========\n\n    function openLoan() external payable notPaused nonReentrant sETHRateNotStale returns (uint256 loanID) {\n        systemStatus().requireIssuanceActive();\n\n        // Require ETH sent to be greater than minLoanSize\n        require(msg.value >= minLoanSize, \"Not enough ETH to create this loan. Please see the minLoanSize\");\n\n        // Require loanLiquidationOpen to be false or we are in liquidation phase\n        require(loanLiquidationOpen == false, \"Loans are now being liquidated\");\n\n        // Each account is limted to creating 50 (accountLoanLimit) loans\n        require(accountsSynthLoans[msg.sender].length < accountLoanLimit, \"Each account is limted to 50 loans\");\n\n        // Calculate issuance amount\n        uint256 loanAmount = loanAmountFromCollateral(msg.value);\n\n        // Require sETH to mint does not exceed cap\n        require(totalIssuedSynths.add(loanAmount) < issueLimit, \"Loan Amount exceeds the supply cap.\");\n\n        // Get a Loan ID\n        loanID = _incrementTotalLoansCounter();\n\n        // Create Loan storage object\n        SynthLoanStruct memory synthLoan = SynthLoanStruct({\n            account: msg.sender,\n            collateralAmount: msg.value,\n            loanAmount: loanAmount,\n            timeCreated: now,\n            loanID: loanID,\n            timeClosed: 0\n        });\n\n        // Record loan in mapping to account in an array of the accounts open loans\n        accountsSynthLoans[msg.sender].push(synthLoan);\n\n        // Increment totalIssuedSynths\n        totalIssuedSynths = totalIssuedSynths.add(loanAmount);\n\n        // Issue the synth\n        synthsETH().issue(msg.sender, loanAmount);\n\n        // Tell the Dapps a loan was created\n        emit LoanCreated(msg.sender, loanID, loanAmount);\n    }\n\n    function closeLoan(uint256 loanID) external nonReentrant sETHRateNotStale {\n        _closeLoan(msg.sender, loanID);\n    }\n\n    // Liquidation of an open loan available for anyone\n    function liquidateUnclosedLoan(address _loanCreatorsAddress, uint256 _loanID) external nonReentrant sETHRateNotStale {\n        require(loanLiquidationOpen, \"Liquidation is not open\");\n        // Close the creators loan and send collateral to the closer.\n        _closeLoan(_loanCreatorsAddress, _loanID);\n        // Tell the Dapps this loan was liquidated\n        emit LoanLiquidated(_loanCreatorsAddress, _loanID, msg.sender);\n    }\n\n    // ========== PRIVATE FUNCTIONS ==========\n\n    function _closeLoan(address account, uint256 loanID) private {\n        systemStatus().requireIssuanceActive();\n\n        // Get the loan from storage\n        SynthLoanStruct memory synthLoan = _getLoanFromStorage(account, loanID);\n\n        require(synthLoan.loanID > 0, \"Loan does not exist\");\n        require(synthLoan.timeClosed == 0, \"Loan already closed\");\n        require(\n            IERC20(address(synthsETH())).balanceOf(msg.sender) >= synthLoan.loanAmount,\n            \"You do not have the required Synth balance to close this loan.\"\n        );\n\n        // Record loan as closed\n        _recordLoanClosure(synthLoan);\n\n        // Decrement totalIssuedSynths\n        totalIssuedSynths = totalIssuedSynths.sub(synthLoan.loanAmount);\n\n        // Calculate and deduct interest(5%) and minting fee(50 bips) in ETH\n        uint256 interestAmount = accruedInterestOnLoan(synthLoan.loanAmount, _loanLifeSpan(synthLoan));\n        uint256 mintingFee = _calculateMintingFee(synthLoan);\n        uint256 totalFees = interestAmount.add(mintingFee);\n\n        // Burn all Synths issued for the loan\n        synthsETH().burn(msg.sender, synthLoan.loanAmount);\n\n        // Fee Distribution. Purchase sUSD with ETH from Depot\n        require(\n            IERC20(address(synthsUSD())).balanceOf(address(depot())) >= totalFees,\n            \"The sUSD Depot does not have enough sUSD to buy for fees\"\n        );\n        depot().exchangeEtherForSynths.value(totalFees)();\n\n        // Transfer the sUSD to distribute to SNX holders.\n        IERC20(address(synthsUSD())).transfer(FEE_ADDRESS, IERC20(address(synthsUSD())).balanceOf(address(this)));\n\n        // Send remainder ETH to caller\n        address(msg.sender).transfer(synthLoan.collateralAmount.sub(totalFees));\n\n        // Tell the Dapps\n        emit LoanClosed(account, loanID, totalFees);\n    }\n\n    function _getLoanFromStorage(address account, uint256 loanID) private view returns (SynthLoanStruct memory) {\n        SynthLoanStruct[] memory synthLoans = accountsSynthLoans[account];\n        for (uint256 i = 0; i < synthLoans.length; i++) {\n            if (synthLoans[i].loanID == loanID) {\n                return synthLoans[i];\n            }\n        }\n    }\n\n    function _recordLoanClosure(SynthLoanStruct memory synthLoan) private {\n        // Get storage pointer to the accounts array of loans\n        SynthLoanStruct[] storage synthLoans = accountsSynthLoans[synthLoan.account];\n        for (uint256 i = 0; i < synthLoans.length; i++) {\n            if (synthLoans[i].loanID == synthLoan.loanID) {\n                // Record the time the loan was closed\n                synthLoans[i].timeClosed = now;\n            }\n        }\n\n        // Reduce Total Open Loans Count\n        totalOpenLoanCount = totalOpenLoanCount.sub(1);\n    }\n\n    function _incrementTotalLoansCounter() private returns (uint256) {\n        // Increase the total Open loan count\n        totalOpenLoanCount = totalOpenLoanCount.add(1);\n        // Increase the total Loans Created count\n        totalLoansCreated = totalLoansCreated.add(1);\n        // Return total count to be used as a unique ID.\n        return totalLoansCreated;\n    }\n\n    function _calculateMintingFee(SynthLoanStruct memory synthLoan) private view returns (uint256 mintingFee) {\n        mintingFee = synthLoan.loanAmount.multiplyDecimalRound(issueFeeRate);\n    }\n\n    function _loanLifeSpan(SynthLoanStruct memory synthLoan) private view returns (uint256 loanLifeSpanResult) {\n        // Get time loan is open for, and if closed from the timeClosed\n        bool loanClosed = synthLoan.timeClosed > 0;\n        // Calculate loan life span in seconds as (Now - Loan creation time)\n        loanLifeSpanResult = loanClosed ? synthLoan.timeClosed.sub(synthLoan.timeCreated) : now.sub(synthLoan.timeCreated);\n    }\n\n    /* ========== INTERNAL VIEWS ========== */\n\n    function systemStatus() internal view returns (ISystemStatus) {\n        return ISystemStatus(requireAndGetAddress(CONTRACT_SYSTEMSTATUS, \"Missing SystemStatus address\"));\n    }\n\n    function synthsETH() internal view returns (ISynth) {\n        return ISynth(requireAndGetAddress(CONTRACT_SYNTHSETH, \"Missing SynthsETH address\"));\n    }\n\n    function synthsUSD() internal view returns (ISynth) {\n        return ISynth(requireAndGetAddress(CONTRACT_SYNTHSUSD, \"Missing SynthsUSD address\"));\n    }\n\n    function depot() internal view returns (IDepot) {\n        return IDepot(requireAndGetAddress(CONTRACT_DEPOT, \"Missing Depot address\"));\n    }\n\n    function exchangeRates() internal view returns (IExchangeRates) {\n        return IExchangeRates(requireAndGetAddress(CONTRACT_EXRATES, \"Missing ExchangeRates address\"));\n    }\n\n    /* ========== MODIFIERS ========== */\n\n    modifier sETHRateNotStale() {\n        require(!exchangeRates().rateIsStale(\"sETH\"), \"Blocked as sETH rate is stale\");\n        _;\n    }\n\n    // ========== EVENTS ==========\n\n    event CollateralizationRatioUpdated(uint256 ratio);\n    event InterestRateUpdated(uint256 interestRate);\n    event IssueFeeRateUpdated(uint256 issueFeeRate);\n    event IssueLimitUpdated(uint256 issueLimit);\n    event MinLoanSizeUpdated(uint256 minLoanSize);\n    event AccountLoanLimitUpdated(uint256 loanLimit);\n    event LoanLiquidationOpenUpdated(bool loanLiquidationOpen);\n    event LoanCreated(address indexed account, uint256 loanID, uint256 amount);\n    event LoanClosed(address indexed account, uint256 loanID, uint256 feesPaid);\n    event LoanLiquidated(address indexed account, uint256 loanID, address liquidator);\n}\n",
  "sourcePath": "/Users/qizhang/Development/truffle_test2/contracts/EtherCollateral.sol",
  "compiler": {
    "name": "solc",
    "version": "0.5.16+commit.9c3226ce.Emscripten.clang"
  },
  "schemaVersion": "3.2.1",
  "updatedAt": "2020-07-05T03:58:12.829Z",
  "devdoc": {
    "methods": {
      "setPaused(bool)": {
        "details": "Only the contract owner may call this."
      }
    }
  },
  "userdoc": {
    "methods": {
      "setPaused(bool)": {
        "notice": "Change the paused state of the contract"
      }
    }
  }
}