{
  "contractName": "ExchangeRates",
  "abi": [
    {
      "inputs": [
        {
          "internalType": "address",
          "name": "_owner",
          "type": "address"
        },
        {
          "internalType": "address",
          "name": "_oracle",
          "type": "address"
        },
        {
          "internalType": "bytes32[]",
          "name": "_currencyKeys",
          "type": "bytes32[]"
        },
        {
          "internalType": "uint256[]",
          "name": "_newRates",
          "type": "uint256[]"
        }
      ],
      "payable": false,
      "stateMutability": "nonpayable",
      "type": "constructor"
    },
    {
      "anonymous": false,
      "inputs": [
        {
          "indexed": false,
          "internalType": "bytes32",
          "name": "currencyKey",
          "type": "bytes32"
        },
        {
          "indexed": false,
          "internalType": "address",
          "name": "aggregator",
          "type": "address"
        }
      ],
      "name": "AggregatorAdded",
      "type": "event"
    },
    {
      "anonymous": false,
      "inputs": [
        {
          "indexed": false,
          "internalType": "bytes32",
          "name": "currencyKey",
          "type": "bytes32"
        },
        {
          "indexed": false,
          "internalType": "address",
          "name": "aggregator",
          "type": "address"
        }
      ],
      "name": "AggregatorRemoved",
      "type": "event"
    },
    {
      "anonymous": false,
      "inputs": [
        {
          "indexed": false,
          "internalType": "bytes32",
          "name": "currencyKey",
          "type": "bytes32"
        },
        {
          "indexed": false,
          "internalType": "uint256",
          "name": "entryPoint",
          "type": "uint256"
        },
        {
          "indexed": false,
          "internalType": "uint256",
          "name": "upperLimit",
          "type": "uint256"
        },
        {
          "indexed": false,
          "internalType": "uint256",
          "name": "lowerLimit",
          "type": "uint256"
        }
      ],
      "name": "InversePriceConfigured",
      "type": "event"
    },
    {
      "anonymous": false,
      "inputs": [
        {
          "indexed": false,
          "internalType": "bytes32",
          "name": "currencyKey",
          "type": "bytes32"
        }
      ],
      "name": "InversePriceFrozen",
      "type": "event"
    },
    {
      "anonymous": false,
      "inputs": [
        {
          "indexed": false,
          "internalType": "address",
          "name": "newOracle",
          "type": "address"
        }
      ],
      "name": "OracleUpdated",
      "type": "event"
    },
    {
      "anonymous": false,
      "inputs": [
        {
          "indexed": false,
          "internalType": "address",
          "name": "oldOwner",
          "type": "address"
        },
        {
          "indexed": false,
          "internalType": "address",
          "name": "newOwner",
          "type": "address"
        }
      ],
      "name": "OwnerChanged",
      "type": "event"
    },
    {
      "anonymous": false,
      "inputs": [
        {
          "indexed": false,
          "internalType": "address",
          "name": "newOwner",
          "type": "address"
        }
      ],
      "name": "OwnerNominated",
      "type": "event"
    },
    {
      "anonymous": false,
      "inputs": [
        {
          "indexed": false,
          "internalType": "bytes32",
          "name": "currencyKey",
          "type": "bytes32"
        }
      ],
      "name": "RateDeleted",
      "type": "event"
    },
    {
      "anonymous": false,
      "inputs": [
        {
          "indexed": false,
          "internalType": "uint256",
          "name": "rateStalePeriod",
          "type": "uint256"
        }
      ],
      "name": "RateStalePeriodUpdated",
      "type": "event"
    },
    {
      "anonymous": false,
      "inputs": [
        {
          "indexed": false,
          "internalType": "bytes32[]",
          "name": "currencyKeys",
          "type": "bytes32[]"
        },
        {
          "indexed": false,
          "internalType": "uint256[]",
          "name": "newRates",
          "type": "uint256[]"
        }
      ],
      "name": "RatesUpdated",
      "type": "event"
    },
    {
      "anonymous": false,
      "inputs": [
        {
          "indexed": false,
          "internalType": "address",
          "name": "newBeneficiary",
          "type": "address"
        }
      ],
      "name": "SelfDestructBeneficiaryUpdated",
      "type": "event"
    },
    {
      "anonymous": false,
      "inputs": [
        {
          "indexed": false,
          "internalType": "uint256",
          "name": "selfDestructDelay",
          "type": "uint256"
        }
      ],
      "name": "SelfDestructInitiated",
      "type": "event"
    },
    {
      "anonymous": false,
      "inputs": [],
      "name": "SelfDestructTerminated",
      "type": "event"
    },
    {
      "anonymous": false,
      "inputs": [
        {
          "indexed": false,
          "internalType": "address",
          "name": "beneficiary",
          "type": "address"
        }
      ],
      "name": "SelfDestructed",
      "type": "event"
    },
    {
      "constant": true,
      "inputs": [],
      "name": "SELFDESTRUCT_DELAY",
      "outputs": [
        {
          "internalType": "uint256",
          "name": "",
          "type": "uint256"
        }
      ],
      "payable": false,
      "stateMutability": "view",
      "type": "function"
    },
    {
      "constant": false,
      "inputs": [],
      "name": "acceptOwnership",
      "outputs": [],
      "payable": false,
      "stateMutability": "nonpayable",
      "type": "function"
    },
    {
      "constant": true,
      "inputs": [
        {
          "internalType": "uint256",
          "name": "",
          "type": "uint256"
        }
      ],
      "name": "aggregatorKeys",
      "outputs": [
        {
          "internalType": "bytes32",
          "name": "",
          "type": "bytes32"
        }
      ],
      "payable": false,
      "stateMutability": "view",
      "type": "function"
    },
    {
      "constant": true,
      "inputs": [
        {
          "internalType": "bytes32",
          "name": "",
          "type": "bytes32"
        }
      ],
      "name": "aggregators",
      "outputs": [
        {
          "internalType": "contract AggregatorInterface",
          "name": "",
          "type": "address"
        }
      ],
      "payable": false,
      "stateMutability": "view",
      "type": "function"
    },
    {
      "constant": true,
      "inputs": [
        {
          "internalType": "bytes32",
          "name": "",
          "type": "bytes32"
        }
      ],
      "name": "currentRoundForRate",
      "outputs": [
        {
          "internalType": "uint256",
          "name": "",
          "type": "uint256"
        }
      ],
      "payable": false,
      "stateMutability": "view",
      "type": "function"
    },
    {
      "constant": false,
      "inputs": [],
      "name": "initiateSelfDestruct",
      "outputs": [],
      "payable": false,
      "stateMutability": "nonpayable",
      "type": "function"
    },
    {
      "constant": true,
      "inputs": [],
      "name": "initiationTime",
      "outputs": [
        {
          "internalType": "uint256",
          "name": "",
          "type": "uint256"
        }
      ],
      "payable": false,
      "stateMutability": "view",
      "type": "function"
    },
    {
      "constant": true,
      "inputs": [
        {
          "internalType": "bytes32",
          "name": "",
          "type": "bytes32"
        }
      ],
      "name": "inversePricing",
      "outputs": [
        {
          "internalType": "uint256",
          "name": "entryPoint",
          "type": "uint256"
        },
        {
          "internalType": "uint256",
          "name": "upperLimit",
          "type": "uint256"
        },
        {
          "internalType": "uint256",
          "name": "lowerLimit",
          "type": "uint256"
        },
        {
          "internalType": "bool",
          "name": "frozen",
          "type": "bool"
        }
      ],
      "payable": false,
      "stateMutability": "view",
      "type": "function"
    },
    {
      "constant": true,
      "inputs": [
        {
          "internalType": "uint256",
          "name": "",
          "type": "uint256"
        }
      ],
      "name": "invertedKeys",
      "outputs": [
        {
          "internalType": "bytes32",
          "name": "",
          "type": "bytes32"
        }
      ],
      "payable": false,
      "stateMutability": "view",
      "type": "function"
    },
    {
      "constant": false,
      "inputs": [
        {
          "internalType": "address",
          "name": "_owner",
          "type": "address"
        }
      ],
      "name": "nominateNewOwner",
      "outputs": [],
      "payable": false,
      "stateMutability": "nonpayable",
      "type": "function"
    },
    {
      "constant": true,
      "inputs": [],
      "name": "nominatedOwner",
      "outputs": [
        {
          "internalType": "address",
          "name": "",
          "type": "address"
        }
      ],
      "payable": false,
      "stateMutability": "view",
      "type": "function"
    },
    {
      "constant": true,
      "inputs": [],
      "name": "oracle",
      "outputs": [
        {
          "internalType": "address",
          "name": "",
          "type": "address"
        }
      ],
      "payable": false,
      "stateMutability": "view",
      "type": "function"
    },
    {
      "constant": true,
      "inputs": [],
      "name": "owner",
      "outputs": [
        {
          "internalType": "address",
          "name": "",
          "type": "address"
        }
      ],
      "payable": false,
      "stateMutability": "view",
      "type": "function"
    },
    {
      "constant": true,
      "inputs": [],
      "name": "rateStalePeriod",
      "outputs": [
        {
          "internalType": "uint256",
          "name": "",
          "type": "uint256"
        }
      ],
      "payable": false,
      "stateMutability": "view",
      "type": "function"
    },
    {
      "constant": false,
      "inputs": [],
      "name": "selfDestruct",
      "outputs": [],
      "payable": false,
      "stateMutability": "nonpayable",
      "type": "function"
    },
    {
      "constant": true,
      "inputs": [],
      "name": "selfDestructBeneficiary",
      "outputs": [
        {
          "internalType": "address",
          "name": "",
          "type": "address"
        }
      ],
      "payable": false,
      "stateMutability": "view",
      "type": "function"
    },
    {
      "constant": true,
      "inputs": [],
      "name": "selfDestructInitiated",
      "outputs": [
        {
          "internalType": "bool",
          "name": "",
          "type": "bool"
        }
      ],
      "payable": false,
      "stateMutability": "view",
      "type": "function"
    },
    {
      "constant": false,
      "inputs": [
        {
          "internalType": "address payable",
          "name": "_beneficiary",
          "type": "address"
        }
      ],
      "name": "setSelfDestructBeneficiary",
      "outputs": [],
      "payable": false,
      "stateMutability": "nonpayable",
      "type": "function"
    },
    {
      "constant": false,
      "inputs": [],
      "name": "terminateSelfDestruct",
      "outputs": [],
      "payable": false,
      "stateMutability": "nonpayable",
      "type": "function"
    },
    {
      "constant": false,
      "inputs": [
        {
          "internalType": "address",
          "name": "_oracle",
          "type": "address"
        }
      ],
      "name": "setOracle",
      "outputs": [],
      "payable": false,
      "stateMutability": "nonpayable",
      "type": "function"
    },
    {
      "constant": false,
      "inputs": [
        {
          "internalType": "uint256",
          "name": "_time",
          "type": "uint256"
        }
      ],
      "name": "setRateStalePeriod",
      "outputs": [],
      "payable": false,
      "stateMutability": "nonpayable",
      "type": "function"
    },
    {
      "constant": false,
      "inputs": [
        {
          "internalType": "bytes32[]",
          "name": "currencyKeys",
          "type": "bytes32[]"
        },
        {
          "internalType": "uint256[]",
          "name": "newRates",
          "type": "uint256[]"
        },
        {
          "internalType": "uint256",
          "name": "timeSent",
          "type": "uint256"
        }
      ],
      "name": "updateRates",
      "outputs": [
        {
          "internalType": "bool",
          "name": "",
          "type": "bool"
        }
      ],
      "payable": false,
      "stateMutability": "nonpayable",
      "type": "function"
    },
    {
      "constant": false,
      "inputs": [
        {
          "internalType": "bytes32",
          "name": "currencyKey",
          "type": "bytes32"
        }
      ],
      "name": "deleteRate",
      "outputs": [],
      "payable": false,
      "stateMutability": "nonpayable",
      "type": "function"
    },
    {
      "constant": false,
      "inputs": [
        {
          "internalType": "bytes32",
          "name": "currencyKey",
          "type": "bytes32"
        },
        {
          "internalType": "uint256",
          "name": "entryPoint",
          "type": "uint256"
        },
        {
          "internalType": "uint256",
          "name": "upperLimit",
          "type": "uint256"
        },
        {
          "internalType": "uint256",
          "name": "lowerLimit",
          "type": "uint256"
        },
        {
          "internalType": "bool",
          "name": "freeze",
          "type": "bool"
        },
        {
          "internalType": "bool",
          "name": "freezeAtUpperLimit",
          "type": "bool"
        }
      ],
      "name": "setInversePricing",
      "outputs": [],
      "payable": false,
      "stateMutability": "nonpayable",
      "type": "function"
    },
    {
      "constant": false,
      "inputs": [
        {
          "internalType": "bytes32",
          "name": "currencyKey",
          "type": "bytes32"
        }
      ],
      "name": "removeInversePricing",
      "outputs": [],
      "payable": false,
      "stateMutability": "nonpayable",
      "type": "function"
    },
    {
      "constant": false,
      "inputs": [
        {
          "internalType": "bytes32",
          "name": "currencyKey",
          "type": "bytes32"
        },
        {
          "internalType": "address",
          "name": "aggregatorAddress",
          "type": "address"
        }
      ],
      "name": "addAggregator",
      "outputs": [],
      "payable": false,
      "stateMutability": "nonpayable",
      "type": "function"
    },
    {
      "constant": false,
      "inputs": [
        {
          "internalType": "bytes32",
          "name": "currencyKey",
          "type": "bytes32"
        }
      ],
      "name": "removeAggregator",
      "outputs": [],
      "payable": false,
      "stateMutability": "nonpayable",
      "type": "function"
    },
    {
      "constant": true,
      "inputs": [
        {
          "internalType": "bytes32",
          "name": "currencyKey",
          "type": "bytes32"
        }
      ],
      "name": "rateAndUpdatedTime",
      "outputs": [
        {
          "internalType": "uint256",
          "name": "rate",
          "type": "uint256"
        },
        {
          "internalType": "uint256",
          "name": "time",
          "type": "uint256"
        }
      ],
      "payable": false,
      "stateMutability": "view",
      "type": "function"
    },
    {
      "constant": true,
      "inputs": [
        {
          "internalType": "bytes32",
          "name": "currencyKey",
          "type": "bytes32"
        },
        {
          "internalType": "uint256",
          "name": "startingRoundId",
          "type": "uint256"
        },
        {
          "internalType": "uint256",
          "name": "startingTimestamp",
          "type": "uint256"
        },
        {
          "internalType": "uint256",
          "name": "timediff",
          "type": "uint256"
        }
      ],
      "name": "getLastRoundIdBeforeElapsedSecs",
      "outputs": [
        {
          "internalType": "uint256",
          "name": "",
          "type": "uint256"
        }
      ],
      "payable": false,
      "stateMutability": "view",
      "type": "function"
    },
    {
      "constant": true,
      "inputs": [
        {
          "internalType": "bytes32",
          "name": "currencyKey",
          "type": "bytes32"
        }
      ],
      "name": "getCurrentRoundId",
      "outputs": [
        {
          "internalType": "uint256",
          "name": "",
          "type": "uint256"
        }
      ],
      "payable": false,
      "stateMutability": "view",
      "type": "function"
    },
    {
      "constant": true,
      "inputs": [
        {
          "internalType": "bytes32",
          "name": "sourceCurrencyKey",
          "type": "bytes32"
        },
        {
          "internalType": "uint256",
          "name": "sourceAmount",
          "type": "uint256"
        },
        {
          "internalType": "bytes32",
          "name": "destinationCurrencyKey",
          "type": "bytes32"
        },
        {
          "internalType": "uint256",
          "name": "roundIdForSrc",
          "type": "uint256"
        },
        {
          "internalType": "uint256",
          "name": "roundIdForDest",
          "type": "uint256"
        }
      ],
      "name": "effectiveValueAtRound",
      "outputs": [
        {
          "internalType": "uint256",
          "name": "value",
          "type": "uint256"
        }
      ],
      "payable": false,
      "stateMutability": "view",
      "type": "function"
    },
    {
      "constant": true,
      "inputs": [
        {
          "internalType": "bytes32",
          "name": "currencyKey",
          "type": "bytes32"
        },
        {
          "internalType": "uint256",
          "name": "roundId",
          "type": "uint256"
        }
      ],
      "name": "rateAndTimestampAtRound",
      "outputs": [
        {
          "internalType": "uint256",
          "name": "rate",
          "type": "uint256"
        },
        {
          "internalType": "uint256",
          "name": "time",
          "type": "uint256"
        }
      ],
      "payable": false,
      "stateMutability": "view",
      "type": "function"
    },
    {
      "constant": true,
      "inputs": [
        {
          "internalType": "bytes32",
          "name": "currencyKey",
          "type": "bytes32"
        }
      ],
      "name": "lastRateUpdateTimes",
      "outputs": [
        {
          "internalType": "uint256",
          "name": "",
          "type": "uint256"
        }
      ],
      "payable": false,
      "stateMutability": "view",
      "type": "function"
    },
    {
      "constant": true,
      "inputs": [
        {
          "internalType": "bytes32[]",
          "name": "currencyKeys",
          "type": "bytes32[]"
        }
      ],
      "name": "lastRateUpdateTimesForCurrencies",
      "outputs": [
        {
          "internalType": "uint256[]",
          "name": "",
          "type": "uint256[]"
        }
      ],
      "payable": false,
      "stateMutability": "view",
      "type": "function"
    },
    {
      "constant": true,
      "inputs": [
        {
          "internalType": "bytes32",
          "name": "sourceCurrencyKey",
          "type": "bytes32"
        },
        {
          "internalType": "uint256",
          "name": "sourceAmount",
          "type": "uint256"
        },
        {
          "internalType": "bytes32",
          "name": "destinationCurrencyKey",
          "type": "bytes32"
        }
      ],
      "name": "effectiveValue",
      "outputs": [
        {
          "internalType": "uint256",
          "name": "value",
          "type": "uint256"
        }
      ],
      "payable": false,
      "stateMutability": "view",
      "type": "function"
    },
    {
      "constant": true,
      "inputs": [
        {
          "internalType": "bytes32",
          "name": "sourceCurrencyKey",
          "type": "bytes32"
        },
        {
          "internalType": "uint256",
          "name": "sourceAmount",
          "type": "uint256"
        },
        {
          "internalType": "bytes32",
          "name": "destinationCurrencyKey",
          "type": "bytes32"
        }
      ],
      "name": "effectiveValueAndRates",
      "outputs": [
        {
          "internalType": "uint256",
          "name": "value",
          "type": "uint256"
        },
        {
          "internalType": "uint256",
          "name": "sourceRate",
          "type": "uint256"
        },
        {
          "internalType": "uint256",
          "name": "destinationRate",
          "type": "uint256"
        }
      ],
      "payable": false,
      "stateMutability": "view",
      "type": "function"
    },
    {
      "constant": true,
      "inputs": [
        {
          "internalType": "bytes32",
          "name": "currencyKey",
          "type": "bytes32"
        }
      ],
      "name": "rateForCurrency",
      "outputs": [
        {
          "internalType": "uint256",
          "name": "",
          "type": "uint256"
        }
      ],
      "payable": false,
      "stateMutability": "view",
      "type": "function"
    },
    {
      "constant": true,
      "inputs": [
        {
          "internalType": "bytes32",
          "name": "currencyKey",
          "type": "bytes32"
        },
        {
          "internalType": "uint256",
          "name": "numRounds",
          "type": "uint256"
        }
      ],
      "name": "ratesAndUpdatedTimeForCurrencyLastNRounds",
      "outputs": [
        {
          "internalType": "uint256[]",
          "name": "rates",
          "type": "uint256[]"
        },
        {
          "internalType": "uint256[]",
          "name": "times",
          "type": "uint256[]"
        }
      ],
      "payable": false,
      "stateMutability": "view",
      "type": "function"
    },
    {
      "constant": true,
      "inputs": [
        {
          "internalType": "bytes32[]",
          "name": "currencyKeys",
          "type": "bytes32[]"
        }
      ],
      "name": "ratesForCurrencies",
      "outputs": [
        {
          "internalType": "uint256[]",
          "name": "",
          "type": "uint256[]"
        }
      ],
      "payable": false,
      "stateMutability": "view",
      "type": "function"
    },
    {
      "constant": true,
      "inputs": [
        {
          "internalType": "bytes32[]",
          "name": "currencyKeys",
          "type": "bytes32[]"
        }
      ],
      "name": "ratesAndStaleForCurrencies",
      "outputs": [
        {
          "internalType": "uint256[]",
          "name": "",
          "type": "uint256[]"
        },
        {
          "internalType": "bool",
          "name": "",
          "type": "bool"
        }
      ],
      "payable": false,
      "stateMutability": "view",
      "type": "function"
    },
    {
      "constant": true,
      "inputs": [
        {
          "internalType": "bytes32",
          "name": "currencyKey",
          "type": "bytes32"
        }
      ],
      "name": "rateIsStale",
      "outputs": [
        {
          "internalType": "bool",
          "name": "",
          "type": "bool"
        }
      ],
      "payable": false,
      "stateMutability": "view",
      "type": "function"
    },
    {
      "constant": true,
      "inputs": [
        {
          "internalType": "bytes32",
          "name": "currencyKey",
          "type": "bytes32"
        }
      ],
      "name": "rateIsFrozen",
      "outputs": [
        {
          "internalType": "bool",
          "name": "",
          "type": "bool"
        }
      ],
      "payable": false,
      "stateMutability": "view",
      "type": "function"
    },
    {
      "constant": true,
      "inputs": [
        {
          "internalType": "bytes32[]",
          "name": "currencyKeys",
          "type": "bytes32[]"
        }
      ],
      "name": "anyRateIsStale",
      "outputs": [
        {
          "internalType": "bool",
          "name": "",
          "type": "bool"
        }
      ],
      "payable": false,
      "stateMutability": "view",
      "type": "function"
    }
  ],
  "bytecode": "0x6080604052612a306008553480156200001757600080fd5b50604051620058b5380380620058b5833981810160405260808110156200003d57600080fd5b810190808051906020019092919080519060200190929190805160405193929190846401000000008211156200007257600080fd5b838201915060208201858111156200008957600080fd5b8251866020820283011164010000000082111715620000a757600080fd5b8083526020830192505050908051906020019060200280838360005b83811015620000e0578082015181840152602081019050620000c3565b50505050905001604052602001805160405193929190846401000000008211156200010a57600080fd5b838201915060208201858111156200012157600080fd5b82518660208202830111640100000000821117156200013f57600080fd5b8083526020830192505050908051906020019060200280838360005b83811015620001785780820151818401526020810190506200015b565b5050505090500160405250505083600073ffffffffffffffffffffffffffffffffffffffff168173ffffffffffffffffffffffffffffffffffffffff1614156200022a576040517f08c379a00000000000000000000000000000000000000000000000000000000081526004018080602001828103825260198152602001807f4f776e657220616464726573732063616e6e6f7420626520300000000000000081525060200191505060405180910390fd5b806000806101000a81548173ffffffffffffffffffffffffffffffffffffffff021916908373ffffffffffffffffffffffffffffffffffffffff1602179055507fb532073b38c83145e3e5135377a08bf9aab55bc0fd7c1179cd4fb995d2a5159c600082604051808373ffffffffffffffffffffffffffffffffffffffff1673ffffffffffffffffffffffffffffffffffffffff1681526020018273ffffffffffffffffffffffffffffffffffffffff1673ffffffffffffffffffffffffffffffffffffffff1681526020019250505060405180910390a150600073ffffffffffffffffffffffffffffffffffffffff166000809054906101000a900473ffffffffffffffffffffffffffffffffffffffff1673ffffffffffffffffffffffffffffffffffffffff161415620003c8576040517f08c379a00000000000000000000000000000000000000000000000000000000081526004018080602001828103825260118152602001807f4f776e6572206d7573742062652073657400000000000000000000000000000081525060200191505060405180910390fd5b6000809054906101000a900473ffffffffffffffffffffffffffffffffffffffff16600360016101000a81548173ffffffffffffffffffffffffffffffffffffffff021916908373ffffffffffffffffffffffffffffffffffffffff1602179055507fd5da63a0b864b315bc04128dedbc93888c8529ee6cf47ce664dc204339228c536000809054906101000a900473ffffffffffffffffffffffffffffffffffffffff16604051808273ffffffffffffffffffffffffffffffffffffffff1673ffffffffffffffffffffffffffffffffffffffff16815260200191505060405180910390a180518251146200050a576040517f08c379a000000000000000000000000000000000000000000000000000000000815260040180806020018281038252602f815260200180620057c3602f913960400191505060405180910390fd5b82600560006101000a81548173ffffffffffffffffffffffffffffffffffffffff021916908373ffffffffffffffffffffffffffffffffffffffff160217905550620005ff7f735553440000000000000000000000000000000000000000000000000000000073__SafeDecimalMath_______________________63907af6c06040518163ffffffff1660e01b815260040160206040518083038186803b158015620005b557600080fd5b505af4158015620005ca573d6000803e3d6000fd5b505050506040513d6020811015620005e157600080fd5b8101908080519060200190929190505050426200061d60201b60201c565b620006128282426200073660201b60201c565b505050505062001126565b600b6000848152602001908152602001600020600081548092919060010191905055506040518060400160405280837affffffffffffffffffffffffffffffffffffffffffffffffffffff1681526020018264ffffffffff16815250600460008581526020019081526020016000206000600b600087815260200190815260200160002054815260200190815260200160002060008201518160000160006101000a8154817affffffffffffffffffffffffffffffffffffffffffffffffffffff02191690837affffffffffffffffffffffffffffffffffffffffffffffffffffff160217905550602082015181600001601b6101000a81548164ffffffffff021916908364ffffffffff160217905550905050505050565b6000825184511462000794576040517f08c379a0000000000000000000000000000000000000000000000000000000008152600401808060200182810382526038815260200180620058446038913960400191505060405180910390fd5b610258420182106200080e576040517f08c379a000000000000000000000000000000000000000000000000000000000815260040180806020018281038252601f8152602001807f54696d6520697320746f6f2066617220696e746f20746865206675747572650081525060200191505060405180910390fd5b60008090505b8451811015620009b85760008582815181106200082d57fe5b6020026020010151905060008583815181106200084657fe5b60200260200101511415620008a7576040517f08c379a00000000000000000000000000000000000000000000000000000000081526004018080602001828103825260398152602001806200587c6039913960400191505060405180910390fd5b7f735553440000000000000000000000000000000000000000000000000000000081141562000922576040517f08c379a0000000000000000000000000000000000000000000000000000000008152600401808060200182810382526031815260200180620057f26031913960400191505060405180910390fd5b620009338162000a8960201b60201c565b841015620009425750620009aa565b62000968818684815181106200095457fe5b602002602001015162000aae60201b60201c565b8583815181106200097557fe5b602002602001018181525050620009a8818684815181106200099357fe5b6020026020010151866200061d60201b60201c565b505b808060010191505062000814565b507f1bc0fc8997efa076f59b5ef02c315bc5390f7a6d24d661ce12128c01a3b0ba578484604051808060200180602001838103835285818151815260200191508051906020019060200280838360005b8381101562000a2557808201518184015260208101905062000a08565b50505050905001838103825284818151815260200191508051906020019060200280838360005b8381101562000a6957808201518184015260208101905062000a4c565b5050505090500194505050505060405180910390a1600190509392505050565b600062000a9c8262000c0860201b60201c565b6020015164ffffffffff169050919050565b600080600960008581526020019081526020016000209050600081600001541162000add578291505062000c02565b600062000af08562000f0c60201b60201c565b90508160030160009054906101000a900460ff1662000bfc57600062000b2a6002846000015462000f4760201b62003b311790919060201c565b905084811162000b3e576000915062000b5b565b62000b58858262000fd260201b6200422f1790919060201c565b91505b8260010154821062000b74578260010154915062000b89565b8260020154821162000b8857826002015491505b5b826001015482148062000b9f5750826002015482145b1562000bfa5760018360030160006101000a81548160ff0219169083151502179055507f4b3d3f51dab37576ab4ca08ebdb81d4a4c587f25df5cc1f9a620a7faff84aba8866040518082815260200191505060405180910390a15b505b80925050505b92915050565b62000c12620010e8565b600073ffffffffffffffffffffffffffffffffffffffff166006600084815260200190815260200160002060009054906101000a900473ffffffffffffffffffffffffffffffffffffffff1673ffffffffffffffffffffffffffffffffffffffff161462000e2e5760405180604001604052806402540be4006006600086815260200190815260200160002060009054906101000a900473ffffffffffffffffffffffffffffffffffffffff1673ffffffffffffffffffffffffffffffffffffffff166350d25bcd6040518163ffffffff1660e01b815260040160206040518083038186803b15801562000d0557600080fd5b505afa15801562000d1a573d6000803e3d6000fd5b505050506040513d602081101562000d3157600080fd5b8101908080519060200190929190505050027affffffffffffffffffffffffffffffffffffffffffffffffffffff1681526020016006600085815260200190815260200160002060009054906101000a900473ffffffffffffffffffffffffffffffffffffffff1673ffffffffffffffffffffffffffffffffffffffff16638205bf6a6040518163ffffffff1660e01b815260040160206040518083038186803b15801562000ddf57600080fd5b505afa15801562000df4573d6000803e3d6000fd5b505050506040513d602081101562000e0b57600080fd5b810190808051906020019092919050505064ffffffffff16815250905062000f07565b600460008381526020019081526020016000206000600b60008581526020019081526020016000205481526020019081526020016000206040518060400160405290816000820160009054906101000a90047affffffffffffffffffffffffffffffffffffffffffffffffffffff167affffffffffffffffffffffffffffffffffffffffffffffffffffff167affffffffffffffffffffffffffffffffffffffffffffffffffffff16815260200160008201601b9054906101000a900464ffffffffff1664ffffffffff1664ffffffffff168152505090505b919050565b600062000f1f8262000c0860201b60201c565b600001517affffffffffffffffffffffffffffffffffffffffffffffffffffff169050919050565b60008083141562000f5c576000905062000fcc565b600082840290508284828162000f6e57fe5b041462000fc7576040517f08c379a0000000000000000000000000000000000000000000000000000000008152600401808060200182810382526021815260200180620058236021913960400191505060405180910390fd5b809150505b92915050565b60006200101c83836040518060400160405280601e81526020017f536166654d6174683a207375627472616374696f6e206f766572666c6f7700008152506200102460201b60201c565b905092915050565b6000838311158290620010d5576040517f08c379a00000000000000000000000000000000000000000000000000000000081526004018080602001828103825283818151815260200191508051906020019080838360005b83811015620010995780820151818401526020810190506200107c565b50505050905090810190601f168015620010c75780820380516001836020036101000a031916815260200191505b509250505060405180910390fd5b5060008385039050809150509392505050565b604051806040016040528060007affffffffffffffffffffffffffffffffffffffffffffffffffffff168152602001600064ffffffffff1681525090565b61468d80620011366000396000f3fe608060405234801561001057600080fd5b50600436106102685760003560e01c806379ba509711610151578063af3aea86116100c3578063bfa005ce11610087578063bfa005ce14610d70578063c2c8a67614610e60578063c58aaae614610f2e578063c8e6f39514610f78578063ce8480ea14610fa6578063fdadbc7e14610fe857610268565b8063af3aea8614610bc1578063b199c76414610c07578063b8225dec14610c6b578063babcb42314610c8d578063bd32aa4414610d6657610268565b80638295016a116101155780638295016a14610a675780638da5cb5b14610acb578063935f4abd14610b155780639cb8a26a14610b57578063a461fc8214610b61578063ac82f60814610b7f57610268565b806379ba50971461095f57806379cb657a146109695780637a018a1e146109975780637adbf973146109d95780637dc0d1d014610a1d57610268565b80632d7371e1116101ea57806345938849116101ae57806345938849146107865780634f72def6146107b457806353a47bb7146107f6578063654a60ac146108405780637103353e14610896578063728dec291461090457610268565b80632d7371e1146105ce5780632ea913d4146106a35780633278c960146106e55780633f0e084f146106ef5780634308a94f1461073d57610268565b806317c70de41161023157806317c70de41461044357806320714f8814610461578063266da16b146104a55780632bed9e0c1461050f5780632d2276741461053d57610268565b80629919c01461026d57806305a046e5146102b35780630ee4951b14610381578063109e46a21461039f5780631627540c146103ff575b600080fd5b6102996004803603602081101561028357600080fd5b810190808035906020019092919050505061103b565b604051808215151515815260200191505060405180910390f35b61032a600480360360208110156102c957600080fd5b81019080803590602001906401000000008111156102e657600080fd5b8201836020820111156102f857600080fd5b8035906020019184602083028401116401000000008311171561031a57600080fd5b9091929391929390505050611095565b6040518080602001828103825283818151815260200191508051906020019060200280838360005b8381101561036d578082015181840152602081019050610352565b505050509050019250505060405180910390f35b610389611129565b6040518082815260200191505060405180910390f35b6103e9600480360360808110156103b557600080fd5b810190808035906020019092919080359060200190929190803590602001909291908035906020019092919050505061112f565b6040518082815260200191505060405180910390f35b6104416004803603602081101561041557600080fd5b81019080803573ffffffffffffffffffffffffffffffffffffffff16906020019092919050505061118f565b005b61044b6112db565b6040518082815260200191505060405180910390f35b6104a36004803603602081101561047757600080fd5b81019080803573ffffffffffffffffffffffffffffffffffffffff1690602001909291905050506112e1565b005b6104f9600480360360a08110156104bb57600080fd5b8101908080359060200190929190803590602001909291908035906020019092919080359060200190929190803590602001909291905050506114d0565b6040518082815260200191505060405180910390f35b61053b6004803603602081101561052557600080fd5b8101908080359060200190929190505050611533565b005b6105b46004803603602081101561055357600080fd5b810190808035906020019064010000000081111561057057600080fd5b82018360208201111561058257600080fd5b803590602001918460208302840111640100000000831117156105a457600080fd5b909192939192939050505061176f565b604051808215151515815260200191505060405180910390f35b610604600480360360408110156105e457600080fd5b810190808035906020019092919080359060200190929190505050611817565b604051808060200180602001838103835285818151815260200191508051906020019060200280838360005b8381101561064b578082015181840152602081019050610630565b50505050905001838103825284818151815260200191508051906020019060200280838360005b8381101561068d578082015181840152602081019050610672565b5050505090500194505050505060405180910390f35b6106cf600480360360208110156106b957600080fd5b8101908080359060200190929190505050611909565b6040518082815260200191505060405180910390f35b6106ed61192a565b005b61073b6004803603604081101561070557600080fd5b8101908080359060200190929190803573ffffffffffffffffffffffffffffffffffffffff169060200190929190505050611a20565b005b6107696004803603602081101561075357600080fd5b8101908080359060200190929190505050611d18565b604051808381526020018281526020019250505060405180910390f35b6107b26004803603602081101561079c57600080fd5b8101908080359060200190929190505050611d6c565b005b6107e0600480360360208110156107ca57600080fd5b8101908080359060200190929190505050611f6e565b6040518082815260200191505060405180910390f35b6107fe611f8f565b604051808273ffffffffffffffffffffffffffffffffffffffff1673ffffffffffffffffffffffffffffffffffffffff16815260200191505060405180910390f35b6108806004803603606081101561085657600080fd5b81019080803590602001909291908035906020019092919080359060200190929190505050611fb5565b6040518082815260200191505060405180910390f35b6108c2600480360360208110156108ac57600080fd5b8101908080359060200190929190505050611fd0565b604051808273ffffffffffffffffffffffffffffffffffffffff1673ffffffffffffffffffffffffffffffffffffffff16815260200191505060405180910390f35b6109306004803603602081101561091a57600080fd5b8101908080359060200190929190505050612003565b604051808581526020018481526020018381526020018215151515815260200194505050505060405180910390f35b610967612040565b005b6109956004803603602081101561097f57600080fd5b8101908080359060200190929190505050612266565b005b6109c3600480360360208110156109ad57600080fd5b810190808035906020019092919050505061234e565b6040518082815260200191505060405180910390f35b610a1b600480360360208110156109ef57600080fd5b81019080803573ffffffffffffffffffffffffffffffffffffffff169060200190929190505050612360565b005b610a256124ce565b604051808273ffffffffffffffffffffffffffffffffffffffff1673ffffffffffffffffffffffffffffffffffffffff16815260200191505060405180910390f35b610aa760048036036060811015610a7d57600080fd5b810190808035906020019092919080359060200190929190803590602001909291905050506124f4565b60405180848152602001838152602001828152602001935050505060405180910390f35b610ad3612513565b604051808273ffffffffffffffffffffffffffffffffffffffff1673ffffffffffffffffffffffffffffffffffffffff16815260200191505060405180910390f35b610b4160048036036020811015610b2b57600080fd5b8101908080359060200190929190505050612538565b6040518082815260200191505060405180910390f35b610b5f612550565b005b610b696127b3565b6040518082815260200191505060405180910390f35b610bab60048036036020811015610b9557600080fd5b81019080803590602001909291905050506127ba565b6040518082815260200191505060405180910390f35b610bed60048036036020811015610bd757600080fd5b81019080803590602001909291905050506127ed565b604051808215151515815260200191505060405180910390f35b610c69600480360360c0811015610c1d57600080fd5b810190808035906020019092919080359060200190929190803590602001909291908035906020019092919080351515906020019092919080351515906020019092919050505061281a565b005b610c73612bc6565b604051808215151515815260200191505060405180910390f35b610d0460048036036020811015610ca357600080fd5b8101908080359060200190640100000000811115610cc057600080fd5b820183602082011115610cd257600080fd5b80359060200191846020830284011164010000000083111715610cf457600080fd5b9091929391929390505050612bd9565b604051808060200183151515158152602001828103825284818151815260200191508051906020019060200280838360005b83811015610d51578082015181840152602081019050610d36565b50505050905001935050505060405180910390f35b610d6e612d15565b005b610e4660048036036060811015610d8657600080fd5b8101908080359060200190640100000000811115610da357600080fd5b820183602082011115610db557600080fd5b80359060200191846020830284011164010000000083111715610dd757600080fd5b909192939192939080359060200190640100000000811115610df857600080fd5b820183602082011115610e0a57600080fd5b80359060200191846020830284011164010000000083111715610e2c57600080fd5b909192939192939080359060200190929190505050612e18565b604051808215151515815260200191505060405180910390f35b610ed760048036036020811015610e7657600080fd5b8101908080359060200190640100000000811115610e9357600080fd5b820183602082011115610ea557600080fd5b80359060200191846020830284011164010000000083111715610ec757600080fd5b9091929391929390505050612f58565b6040518080602001828103825283818151815260200191508051906020019060200280838360005b83811015610f1a578082015181840152602081019050610eff565b505050509050019250505060405180910390f35b610f36612fec565b604051808273ffffffffffffffffffffffffffffffffffffffff1673ffffffffffffffffffffffffffffffffffffffff16815260200191505060405180910390f35b610fa460048036036020811015610f8e57600080fd5b8101908080359060200190929190505050613012565b005b610fd260048036036020811015610fbc57600080fd5b8101908080359060200190929190505050613231565b6040518082815260200191505060405180910390f35b61101e60048036036040811015610ffe57600080fd5b810190808035906020019092919080359060200190929190505050613243565b604051808381526020018281526020019250505060405180910390f35b60007f735553440000000000000000000000000000000000000000000000000000000082141561106e5760009050611090565b4261108c60085461107e8561325b565b61327890919063ffffffff16565b1090505b919050565b606080838390506040519080825280602002602001820160405280156110ca5781602001602082028038833980820191505090505b50905060008090505b8484905081101561111e576110f98585838181106110ed57fe5b9050602002013561325b565b82828151811061110557fe5b60200260200101818152505080806001019150506110d3565b508091505092915050565b60085481565b60008084905060008090505b6001156111815761114f8760018401613300565b9050809150506000811480611165575083850181115b15611174578192505050611187565b818060010192505061113b565b81925050505b949350505050565b6000809054906101000a900473ffffffffffffffffffffffffffffffffffffffff1673ffffffffffffffffffffffffffffffffffffffff163373ffffffffffffffffffffffffffffffffffffffff1614611234576040517f08c379a000000000000000000000000000000000000000000000000000000000815260040180806020018281038252602f81526020018061451c602f913960400191505060405180910390fd5b80600160006101000a81548173ffffffffffffffffffffffffffffffffffffffff021916908373ffffffffffffffffffffffffffffffffffffffff1602179055507f906a1c6bd7e3091ea86693dd029a831c19049ce77f1dce2ce0bab1cacbabce2281604051808273ffffffffffffffffffffffffffffffffffffffff1673ffffffffffffffffffffffffffffffffffffffff16815260200191505060405180910390a150565b60025481565b6000809054906101000a900473ffffffffffffffffffffffffffffffffffffffff1673ffffffffffffffffffffffffffffffffffffffff163373ffffffffffffffffffffffffffffffffffffffff1614611386576040517f08c379a000000000000000000000000000000000000000000000000000000000815260040180806020018281038252602f81526020018061451c602f913960400191505060405180910390fd5b600073ffffffffffffffffffffffffffffffffffffffff168173ffffffffffffffffffffffffffffffffffffffff161415611429576040517f08c379a000000000000000000000000000000000000000000000000000000000815260040180806020018281038252601c8152602001807f42656e6566696369617279206d757374206e6f74206265207a65726f0000000081525060200191505060405180910390fd5b80600360016101000a81548173ffffffffffffffffffffffffffffffffffffffff021916908373ffffffffffffffffffffffffffffffffffffffff1602179055507fd5da63a0b864b315bc04128dedbc93888c8529ee6cf47ce664dc204339228c5381604051808273ffffffffffffffffffffffffffffffffffffffff1673ffffffffffffffffffffffffffffffffffffffff16815260200191505060405180910390a150565b6000838614156114e25784905061152a565b60006114ee8785613300565b50905060006114fd8685613300565b50905061152581611517848a61356c90919063ffffffff16565b61358890919063ffffffff16565b925050505b95945050505050565b6000809054906101000a900473ffffffffffffffffffffffffffffffffffffffff1673ffffffffffffffffffffffffffffffffffffffff163373ffffffffffffffffffffffffffffffffffffffff16146115d8576040517f08c379a000000000000000000000000000000000000000000000000000000000815260040180806020018281038252602f81526020018061451c602f913960400191505060405180910390fd5b60006006600083815260200190815260200160002060009054906101000a900473ffffffffffffffffffffffffffffffffffffffff169050600073ffffffffffffffffffffffffffffffffffffffff168173ffffffffffffffffffffffffffffffffffffffff1614156116b3576040517f08c379a000000000000000000000000000000000000000000000000000000000815260040180806020018281038252601c8152602001807f4e6f2061676772656761746f722065786973747320666f72206b65790000000081525060200191505060405180910390fd5b6006600083815260200190815260200160002060006101000a81549073ffffffffffffffffffffffffffffffffffffffff021916905560006116f68360076135a4565b9050801561176a577fec70e890fc7db7de4059b114c9093a1f41283d18ffcfbcac45566feea4d4f7778383604051808381526020018273ffffffffffffffffffffffffffffffffffffffff1673ffffffffffffffffffffffffffffffffffffffff1681526020019250505060405180910390a15b505050565b600080600090505b8383905081101561180b577f73555344000000000000000000000000000000000000000000000000000000008484838181106117af57fe5b90506020020135141580156117f15750426117ef6008546117e18787868181106117d557fe5b9050602002013561325b565b61327890919063ffffffff16565b105b15611800576001915050611811565b600181019050611777565b60009150505b92915050565b606080826040519080825280602002602001820160405280156118495781602001602082028038833980820191505090505b5091508260405190808252806020026020018201604052801561187b5781602001602082028038833980820191505090505b509050600061188985613660565b905060008090505b848110156118ff576118a38683613300565b8583815181106118af57fe5b602002602001018584815181106118c257fe5b602002602001018281525082815250505060008214156118e9578383935093505050611902565b8180600190039250508080600101915050611891565b50505b9250929050565b600a818154811061191657fe5b906000526020600020016000915090505481565b6000809054906101000a900473ffffffffffffffffffffffffffffffffffffffff1673ffffffffffffffffffffffffffffffffffffffff163373ffffffffffffffffffffffffffffffffffffffff16146119cf576040517f08c379a000000000000000000000000000000000000000000000000000000000815260040180806020018281038252602f81526020018061451c602f913960400191505060405180910390fd5b60006002819055506000600360006101000a81548160ff0219169083151502179055507f6adcc7125002935e0aa31697538ebbd65cfddf20431eb6ecdcfc3e238bfd082c60405160405180910390a1565b6000809054906101000a900473ffffffffffffffffffffffffffffffffffffffff1673ffffffffffffffffffffffffffffffffffffffff163373ffffffffffffffffffffffffffffffffffffffff1614611ac5576040517f08c379a000000000000000000000000000000000000000000000000000000000815260040180806020018281038252602f81526020018061451c602f913960400191505060405180910390fd5b600081905060008173ffffffffffffffffffffffffffffffffffffffff16638205bf6a6040518163ffffffff1660e01b815260040160206040518083038186803b158015611b1257600080fd5b505afa158015611b26573d6000803e3d6000fd5b505050506040513d6020811015611b3c57600080fd5b81019080805190602001909291905050501015611bc1576040517f08c379a000000000000000000000000000000000000000000000000000000000815260040180806020018281038252601b8152602001807f476976656e2041676772656761746f7220697320696e76616c6964000000000081525060200191505060405180910390fd5b600073ffffffffffffffffffffffffffffffffffffffff166006600085815260200190815260200160002060009054906101000a900473ffffffffffffffffffffffffffffffffffffffff1673ffffffffffffffffffffffffffffffffffffffff161415611c565760078390806001815401808255809150509060018203906000526020600020016000909192909190915055505b806006600085815260200190815260200160002060006101000a81548173ffffffffffffffffffffffffffffffffffffffff021916908373ffffffffffffffffffffffffffffffffffffffff1602179055507f0bcae573430f69c5361e5d76534d3f61d2d803958778680cd74be9dc6299bc638382604051808381526020018273ffffffffffffffffffffffffffffffffffffffff1673ffffffffffffffffffffffffffffffffffffffff1681526020019250505060405180910390a1505050565b600080611d236143ff565b611d2c846137a5565b905080600001518160200151817affffffffffffffffffffffffffffffffffffffffffffffffffffff1691508064ffffffffff1690509250925050915091565b600560009054906101000a900473ffffffffffffffffffffffffffffffffffffffff1673ffffffffffffffffffffffffffffffffffffffff163373ffffffffffffffffffffffffffffffffffffffff1614611e12576040517f08c379a00000000000000000000000000000000000000000000000000000000081526004018080602001828103825260278152602001806144f56027913960400191505060405180910390fd5b6000611e1d82613a9f565b11611e90576040517f08c379a000000000000000000000000000000000000000000000000000000000815260040180806020018281038252600c8152602001807f52617465206973207a65726f000000000000000000000000000000000000000081525060200191505060405180910390fd5b600460008281526020019081526020016000206000600b6000848152602001908152602001600020548152602001908152602001600020600080820160006101000a8154907affffffffffffffffffffffffffffffffffffffffffffffffffffff021916905560008201601b6101000a81549064ffffffffff02191690555050600b600082815260200190815260200160002060008154809291906001900391905055507fe69d655565c7ff1353d8eaeea62fb7904fa9696987431ec351be288c865f1ae1816040518082815260200191505060405180910390a150565b60078181548110611f7b57fe5b906000526020600020016000915090505481565b600160009054906101000a900473ffffffffffffffffffffffffffffffffffffffff1681565b6000611fc2848484613ad2565b905050809150509392505050565b60066020528060005260406000206000915054906101000a900473ffffffffffffffffffffffffffffffffffffffff1681565b60096020528060005260406000206000915090508060000154908060010154908060020154908060030160009054906101000a900460ff16905084565b600160009054906101000a900473ffffffffffffffffffffffffffffffffffffffff1673ffffffffffffffffffffffffffffffffffffffff163373ffffffffffffffffffffffffffffffffffffffff16146120e6576040517f08c379a000000000000000000000000000000000000000000000000000000000815260040180806020018281038252603581526020018061448f6035913960400191505060405180910390fd5b7fb532073b38c83145e3e5135377a08bf9aab55bc0fd7c1179cd4fb995d2a5159c6000809054906101000a900473ffffffffffffffffffffffffffffffffffffffff16600160009054906101000a900473ffffffffffffffffffffffffffffffffffffffff16604051808373ffffffffffffffffffffffffffffffffffffffff1673ffffffffffffffffffffffffffffffffffffffff1681526020018273ffffffffffffffffffffffffffffffffffffffff1673ffffffffffffffffffffffffffffffffffffffff1681526020019250505060405180910390a1600160009054906101000a900473ffffffffffffffffffffffffffffffffffffffff166000806101000a81548173ffffffffffffffffffffffffffffffffffffffff021916908373ffffffffffffffffffffffffffffffffffffffff1602179055506000600160006101000a81548173ffffffffffffffffffffffffffffffffffffffff021916908373ffffffffffffffffffffffffffffffffffffffff160217905550565b6000809054906101000a900473ffffffffffffffffffffffffffffffffffffffff1673ffffffffffffffffffffffffffffffffffffffff163373ffffffffffffffffffffffffffffffffffffffff161461230b576040517f08c379a000000000000000000000000000000000000000000000000000000000815260040180806020018281038252602f81526020018061451c602f913960400191505060405180910390fd5b806008819055507f16529d8c407b08938da67de7fa4319199baffce4f5d1971f812cc770b0237e666008546040518082815260200191505060405180910390a150565b600061235982613660565b9050919050565b6000809054906101000a900473ffffffffffffffffffffffffffffffffffffffff1673ffffffffffffffffffffffffffffffffffffffff163373ffffffffffffffffffffffffffffffffffffffff1614612405576040517f08c379a000000000000000000000000000000000000000000000000000000000815260040180806020018281038252602f81526020018061451c602f913960400191505060405180910390fd5b80600560006101000a81548173ffffffffffffffffffffffffffffffffffffffff021916908373ffffffffffffffffffffffffffffffffffffffff1602179055507f3df77beb5db05fcdd70a30fc8adf3f83f9501b68579455adbd100b8180940394600560009054906101000a900473ffffffffffffffffffffffffffffffffffffffff16604051808273ffffffffffffffffffffffffffffffffffffffff1673ffffffffffffffffffffffffffffffffffffffff16815260200191505060405180910390a150565b600560009054906101000a900473ffffffffffffffffffffffffffffffffffffffff1681565b6000806000612504868686613ad2565b92509250925093509350939050565b6000809054906101000a900473ffffffffffffffffffffffffffffffffffffffff1681565b600b6020528060005260406000206000915090505481565b6000809054906101000a900473ffffffffffffffffffffffffffffffffffffffff1673ffffffffffffffffffffffffffffffffffffffff163373ffffffffffffffffffffffffffffffffffffffff16146125f5576040517f08c379a000000000000000000000000000000000000000000000000000000000815260040180806020018281038252602f81526020018061451c602f913960400191505060405180910390fd5b600360009054906101000a900460ff16612677576040517f08c379a000000000000000000000000000000000000000000000000000000000815260040180806020018281038252601f8152602001807f53656c66204465737472756374206e6f742079657420696e697469617465640081525060200191505060405180910390fd5b426224ea0060025401106126f3576040517f08c379a000000000000000000000000000000000000000000000000000000000815260040180806020018281038252601b8152602001807f53656c662064657374727563742064656c6179206e6f74206d6574000000000081525060200191505060405180910390fd5b7f8a09e1677ced846cb537dc2b172043bd05a1a81ad7e0033a7ef8ba762df990b7600360019054906101000a900473ffffffffffffffffffffffffffffffffffffffff16604051808273ffffffffffffffffffffffffffffffffffffffff1673ffffffffffffffffffffffffffffffffffffffff16815260200191505060405180910390a1600360019054906101000a900473ffffffffffffffffffffffffffffffffffffffff1673ffffffffffffffffffffffffffffffffffffffff16ff5b6224ea0081565b60006127c5826137a5565b600001517affffffffffffffffffffffffffffffffffffffffffffffffffffff169050919050565b60006009600083815260200190815260200160002060030160009054906101000a900460ff169050919050565b6000809054906101000a900473ffffffffffffffffffffffffffffffffffffffff1673ffffffffffffffffffffffffffffffffffffffff163373ffffffffffffffffffffffffffffffffffffffff16146128bf576040517f08c379a000000000000000000000000000000000000000000000000000000000815260040180806020018281038252602f81526020018061451c602f913960400191505060405180910390fd5b60008311612935576040517f08c379a000000000000000000000000000000000000000000000000000000000815260040180806020018281038252601a8152602001807f6c6f7765724c696d6974206d7573742062652061626f7665203000000000000081525060200191505060405180910390fd5b84841161298d576040517f08c379a00000000000000000000000000000000000000000000000000000000081526004018080602001828103825260278152602001806146326027913960400191505060405180910390fd5b6129a1600286613b3190919063ffffffff16565b84106129f8576040517f08c379a000000000000000000000000000000000000000000000000000000000815260040180806020018281038252602e8152602001806145cb602e913960400191505060405180910390fd5b848310612a50576040517f08c379a00000000000000000000000000000000000000000000000000000000081526004018080602001828103825260278152602001806145a46027913960400191505060405180910390fd5b6000600960008881526020019081526020016000206000015411612a9b57600a8690806001815401808255809150509060018203906000526020600020016000909192909190915055505b846009600088815260200190815260200160002060000181905550836009600088815260200190815260200160002060010181905550826009600088815260200190815260200160002060020181905550816009600088815260200190815260200160002060030160006101000a81548160ff0219169083151502179055507f37efb38e92b0f94698f6df0c9070e2f00946862a042ac09e34ae8c547684240a868686866040518085815260200184815260200183815260200182815260200194505050505060405180910390a18115612bbe577f4b3d3f51dab37576ab4ca08ebdb81d4a4c587f25df5cc1f9a620a7faff84aba8866040518082815260200191505060405180910390a1612bbd8682612bb55784612bb7565b855b42613bb7565b5b505050505050565b600360009054906101000a900460ff1681565b60606000606084849050604051908082528060200260200182016040528015612c115781602001602082028038833980820191505090505b50905060008090506000600854905060008090505b87879050811015612d0457612c396143ff565b612c54898984818110612c4857fe5b905060200201356137a5565b905080600001517affffffffffffffffffffffffffffffffffffffffffffffffffffff16858381518110612c8457fe5b60200260200101818152505083612cf6577f7355534400000000000000000000000000000000000000000000000000000000898984818110612cc257fe5b9050602002013514158015612cf3575042612cf184836020015164ffffffffff1661327890919063ffffffff16565b105b93505b508080600101915050612c26565b508282945094505050509250929050565b6000809054906101000a900473ffffffffffffffffffffffffffffffffffffffff1673ffffffffffffffffffffffffffffffffffffffff163373ffffffffffffffffffffffffffffffffffffffff1614612dba576040517f08c379a000000000000000000000000000000000000000000000000000000000815260040180806020018281038252602f81526020018061451c602f913960400191505060405180910390fd5b426002819055506001600360006101000a81548160ff0219169083151502179055507fcbd94ca75b8dc45c9d80c77e851670e78843c0d75180cb81db3e2158228fa9a66224ea006040518082815260200191505060405180910390a1565b6000600560009054906101000a900473ffffffffffffffffffffffffffffffffffffffff1673ffffffffffffffffffffffffffffffffffffffff163373ffffffffffffffffffffffffffffffffffffffff1614612ec0576040517f08c379a00000000000000000000000000000000000000000000000000000000081526004018080602001828103825260278152602001806144f56027913960400191505060405180910390fd5b612f4d868680806020026020016040519081016040528093929190818152602001838360200280828437600081840152601f19601f82011690508083019250505050505050858580806020026020016040519081016040528093929190818152602001838360200280828437600081840152601f19601f8201169050808301925050505050505084613cd0565b905095945050505050565b60608083839050604051908082528060200260200182016040528015612f8d5781602001602082028038833980820191505090505b50905060008090505b84849050811015612fe157612fbc858583818110612fb057fe5b90506020020135613a9f565b828281518110612fc857fe5b6020026020010181815250508080600101915050612f96565b508091505092915050565b600360019054906101000a900473ffffffffffffffffffffffffffffffffffffffff1681565b6000809054906101000a900473ffffffffffffffffffffffffffffffffffffffff1673ffffffffffffffffffffffffffffffffffffffff163373ffffffffffffffffffffffffffffffffffffffff16146130b7576040517f08c379a000000000000000000000000000000000000000000000000000000000815260040180806020018281038252602f81526020018061451c602f913960400191505060405180910390fd5b6000600960008381526020019081526020016000206000015411613143576040517f08c379a00000000000000000000000000000000000000000000000000000000081526004018080602001828103825260188152602001807f4e6f20696e76657274656420707269636520657869737473000000000000000081525060200191505060405180910390fd5b60006009600083815260200190815260200160002060000181905550600060096000838152602001908152602001600020600101819055506000600960008381526020019081526020016000206002018190555060006009600083815260200190815260200160002060030160006101000a81548160ff02191690831515021790555060006131d382600a6135a4565b9050801561322d577f37efb38e92b0f94698f6df0c9070e2f00946862a042ac09e34ae8c547684240a8260008060006040518085815260200184815260200183815260200182815260200194505050505060405180910390a15b5050565b600061323c8261325b565b9050919050565b6000806132508484613300565b915091509250929050565b6000613266826137a5565b6020015164ffffffffff169050919050565b6000808284019050838110156132f6576040517f08c379a000000000000000000000000000000000000000000000000000000000815260040180806020018281038252601b8152602001807f536166654d6174683a206164646974696f6e206f766572666c6f77000000000081525060200191505060405180910390fd5b8091505092915050565b600080600073ffffffffffffffffffffffffffffffffffffffff166006600086815260200190815260200160002060009054906101000a900473ffffffffffffffffffffffffffffffffffffffff1673ffffffffffffffffffffffffffffffffffffffff16146134cb5760006006600086815260200190815260200160002060009054906101000a900473ffffffffffffffffffffffffffffffffffffffff1690506402540be4008173ffffffffffffffffffffffffffffffffffffffff1663b5ab58dc866040518263ffffffff1660e01b81526004018082815260200191505060206040518083038186803b1580156133f957600080fd5b505afa15801561340d573d6000803e3d6000fd5b505050506040513d602081101561342357600080fd5b8101908080519060200190929190505050028173ffffffffffffffffffffffffffffffffffffffff1663b633620c866040518263ffffffff1660e01b81526004018082815260200191505060206040518083038186803b15801561348657600080fd5b505afa15801561349a573d6000803e3d6000fd5b505050506040513d60208110156134b057600080fd5b81019080805190602001909291905050509250925050613565565b600060046000868152602001908152602001600020600085815260200190815260200160002090508060000160009054906101000a90047affffffffffffffffffffffffffffffffffffffffffffffffffffff1681600001601b9054906101000a900464ffffffffff16817affffffffffffffffffffffffffffffffffffffffffffffffffffff1691508064ffffffffff16905092509250505b9250929050565b60006135808383601260ff16600a0a613ff7565b905092915050565b600061359c8383601260ff16600a0a614050565b905092915050565b600080600090505b828054905081101561365457838382815481106135c557fe5b90600052602060002001541415613647578281815481106135e257fe5b90600052602060002001600090558260018480549050038154811061360357fe5b906000526020600020015483828154811061361a57fe5b90600052602060002001819055508280548091906001900361363c919061443d565b50600191505061365a565b80806001019150506135ac565b50600090505b92915050565b60008073ffffffffffffffffffffffffffffffffffffffff166006600084815260200190815260200160002060009054906101000a900473ffffffffffffffffffffffffffffffffffffffff1673ffffffffffffffffffffffffffffffffffffffff16146137895760006006600084815260200190815260200160002060009054906101000a900473ffffffffffffffffffffffffffffffffffffffff1690508073ffffffffffffffffffffffffffffffffffffffff1663668a0f026040518163ffffffff1660e01b815260040160206040518083038186803b15801561374657600080fd5b505afa15801561375a573d6000803e3d6000fd5b505050506040513d602081101561377057600080fd5b81019080805190602001909291905050509150506137a0565b600b60008381526020019081526020016000205490505b919050565b6137ad6143ff565b600073ffffffffffffffffffffffffffffffffffffffff166006600084815260200190815260200160002060009054906101000a900473ffffffffffffffffffffffffffffffffffffffff1673ffffffffffffffffffffffffffffffffffffffff16146139c15760405180604001604052806402540be4006006600086815260200190815260200160002060009054906101000a900473ffffffffffffffffffffffffffffffffffffffff1673ffffffffffffffffffffffffffffffffffffffff166350d25bcd6040518163ffffffff1660e01b815260040160206040518083038186803b15801561389e57600080fd5b505afa1580156138b2573d6000803e3d6000fd5b505050506040513d60208110156138c857600080fd5b8101908080519060200190929190505050027affffffffffffffffffffffffffffffffffffffffffffffffffffff1681526020016006600085815260200190815260200160002060009054906101000a900473ffffffffffffffffffffffffffffffffffffffff1673ffffffffffffffffffffffffffffffffffffffff16638205bf6a6040518163ffffffff1660e01b815260040160206040518083038186803b15801561397557600080fd5b505afa158015613989573d6000803e3d6000fd5b505050506040513d602081101561399f57600080fd5b810190808051906020019092919050505064ffffffffff168152509050613a9a565b600460008381526020019081526020016000206000600b60008581526020019081526020016000205481526020019081526020016000206040518060400160405290816000820160009054906101000a90047affffffffffffffffffffffffffffffffffffffffffffffffffffff167affffffffffffffffffffffffffffffffffffffffffffffffffffff167affffffffffffffffffffffffffffffffffffffffffffffffffffff16815260200160008201601b9054906101000a900464ffffffffff1664ffffffffff1664ffffffffff168152505090505b919050565b6000613aaa826137a5565b600001517affffffffffffffffffffffffffffffffffffffffffffffffffffff169050919050565b6000806000613ae086613a9f565b915083861415613af557819050849250613b28565b613afe84613a9f565b9050613b2581613b17848861356c90919063ffffffff16565b61358890919063ffffffff16565b92505b93509350939050565b600080831415613b445760009050613bb1565b6000828402905082848281613b5557fe5b0414613bac576040517f08c379a000000000000000000000000000000000000000000000000000000000815260040180806020018281038252602181526020018061454b6021913960400191505060405180910390fd5b809150505b92915050565b600b6000848152602001908152602001600020600081548092919060010191905055506040518060400160405280837affffffffffffffffffffffffffffffffffffffffffffffffffffff1681526020018264ffffffffff16815250600460008581526020019081526020016000206000600b600087815260200190815260200160002054815260200190815260200160002060008201518160000160006101000a8154817affffffffffffffffffffffffffffffffffffffffffffffffffffff02191690837affffffffffffffffffffffffffffffffffffffffffffffffffffff160217905550602082015181600001601b6101000a81548164ffffffffff021916908364ffffffffff160217905550905050505050565b60008251845114613d2c576040517f08c379a000000000000000000000000000000000000000000000000000000000815260040180806020018281038252603881526020018061456c6038913960400191505060405180910390fd5b61025842018210613da5576040517f08c379a000000000000000000000000000000000000000000000000000000000815260040180806020018281038252601f8152602001807f54696d6520697320746f6f2066617220696e746f20746865206675747572650081525060200191505060405180910390fd5b60008090505b8451811015613f2a576000858281518110613dc257fe5b602002602001015190506000858381518110613dda57fe5b60200260200101511415613e39576040517f08c379a00000000000000000000000000000000000000000000000000000000081526004018080602001828103825260398152602001806145f96039913960400191505060405180910390fd5b7f7355534400000000000000000000000000000000000000000000000000000000811415613eb2576040517f08c379a00000000000000000000000000000000000000000000000000000000081526004018080602001828103825260318152602001806144c46031913960400191505060405180910390fd5b613ebb8161325b565b841015613ec85750613f1d565b613ee581868481518110613ed857fe5b60200260200101516140ab565b858381518110613ef157fe5b602002602001018181525050613f1b81868481518110613f0d57fe5b602002602001015186613bb7565b505b8080600101915050613dab565b507f1bc0fc8997efa076f59b5ef02c315bc5390f7a6d24d661ce12128c01a3b0ba578484604051808060200180602001838103835285818151815260200191508051906020019060200280838360005b83811015613f95578082015181840152602081019050613f7a565b50505050905001838103825284818151815260200191508051906020019060200280838360005b83811015613fd7578082015181840152602081019050613fbc565b5050505090500194505050505060405180910390a1600190509392505050565b600080600a838161400457fe5b046140188587613b3190919063ffffffff16565b8161401f57fe5b0490506005600a828161402e57fe5b061061403b57600a810190505b600a818161404557fe5b049150509392505050565b60008061407b8461406d600a860288613b3190919063ffffffff16565b6141e590919063ffffffff16565b90506005600a828161408957fe5b061061409657600a810190505b600a81816140a057fe5b049150509392505050565b60008060096000858152602001908152602001600020905060008160000154116140d857829150506141df565b60006140e385613a9f565b90508160030160009054906101000a900460ff166141d957600061411560028460000154613b3190919063ffffffff16565b9050848111614127576000915061413d565b61413a858261422f90919063ffffffff16565b91505b826001015482106141545782600101549150614168565b8260020154821161416757826002015491505b5b826001015482148061417d5750826002015482145b156141d75760018360030160006101000a81548160ff0219169083151502179055507f4b3d3f51dab37576ab4ca08ebdb81d4a4c587f25df5cc1f9a620a7faff84aba8866040518082815260200191505060405180910390a15b505b80925050505b92915050565b600061422783836040518060400160405280601a81526020017f536166654d6174683a206469766973696f6e206279207a65726f000000000000815250614279565b905092915050565b600061427183836040518060400160405280601e81526020017f536166654d6174683a207375627472616374696f6e206f766572666c6f77000081525061433f565b905092915050565b60008083118290614325576040517f08c379a00000000000000000000000000000000000000000000000000000000081526004018080602001828103825283818151815260200191508051906020019080838360005b838110156142ea5780820151818401526020810190506142cf565b50505050905090810190601f1680156143175780820380516001836020036101000a031916815260200191505b509250505060405180910390fd5b50600083858161433157fe5b049050809150509392505050565b60008383111582906143ec576040517f08c379a00000000000000000000000000000000000000000000000000000000081526004018080602001828103825283818151815260200191508051906020019080838360005b838110156143b1578082015181840152602081019050614396565b50505050905090810190601f1680156143de5780820380516001836020036101000a031916815260200191505b509250505060405180910390fd5b5060008385039050809150509392505050565b604051806040016040528060007affffffffffffffffffffffffffffffffffffffffffffffffffffff168152602001600064ffffffffff1681525090565b815481835581811115614464578183600052602060002091820191016144639190614469565b5b505050565b61448b91905b8082111561448757600081600090555060010161446f565b5090565b9056fe596f75206d757374206265206e6f6d696e61746564206265666f726520796f752063616e20616363657074206f776e65727368697052617465206f6620735553442063616e6e6f7420626520757064617465642c206974277320616c7761797320554e49542e4f6e6c7920746865206f7261636c652063616e20706572666f726d207468697320616374696f6e4f6e6c792074686520636f6e7472616374206f776e6572206d617920706572666f726d207468697320616374696f6e536166654d6174683a206d756c7469706c69636174696f6e206f766572666c6f7743757272656e6379206b6579206172726179206c656e677468206d757374206d61746368207261746573206172726179206c656e6774682e6c6f7765724c696d6974206d7573742062652062656c6f772074686520656e747279506f696e7475707065724c696d6974206d757374206265206c657373207468616e20646f75626c6520656e747279506f696e745a65726f206973206e6f7420612076616c696420726174652c20706c656173652063616c6c2064656c6574655261746520696e73746561642e75707065724c696d6974206d7573742062652061626f76652074686520656e747279506f696e74a265627a7a72315820489c5439d992176e717f2e339f4b89ce984e86223a2b6021f6dbf6c8a92182c764736f6c6343000510003243757272656e6379206b6579206c656e67746820616e642072617465206c656e677468206d757374206d617463682e52617465206f6620735553442063616e6e6f7420626520757064617465642c206974277320616c7761797320554e49542e536166654d6174683a206d756c7469706c69636174696f6e206f766572666c6f7743757272656e6379206b6579206172726179206c656e677468206d757374206d61746368207261746573206172726179206c656e6774682e5a65726f206973206e6f7420612076616c696420726174652c20706c656173652063616c6c2064656c6574655261746520696e73746561642e",
  "source": "pragma solidity ^0.5.16;\n\n// Inheritance\nimport \"./Owned.sol\";\nimport \"./SelfDestructible.sol\";\nimport \"./interfaces/IExchangeRates.sol\";\n\n// Libraries\nimport \"./SafeDecimalMath.sol\";\n\n// Internal references\n// AggregatorInterface from Chainlink represents a decentralized pricing network for a single currency key\nimport \"@chainlink/contracts/src/v0.5/dev/AggregatorInterface.sol\";\n\n\n// https://docs.synthetix.io/contracts/source/contracts/ExchangeRates\ncontract ExchangeRates is Owned, SelfDestructible, IExchangeRates {\n    using SafeMath for uint;\n    using SafeDecimalMath for uint;\n\n    struct RateAndUpdatedTime {\n        uint216 rate;\n        uint40 time;\n    }\n\n    // Exchange rates and update times stored by currency code, e.g. 'SNX', or 'sUSD'\n    mapping(bytes32 => mapping(uint => RateAndUpdatedTime)) private _rates;\n\n    // The address of the oracle which pushes rate updates to this contract\n    address public oracle;\n\n    // Decentralized oracle networks that feed into pricing aggregators\n    mapping(bytes32 => AggregatorInterface) public aggregators;\n\n    // List of aggregator keys for convenient iteration\n    bytes32[] public aggregatorKeys;\n\n    // Do not allow the oracle to submit times any further forward into the future than this constant.\n    uint private constant ORACLE_FUTURE_LIMIT = 10 minutes;\n\n    // How long will the contract assume the rate of any asset is correct\n    uint public rateStalePeriod = 3 hours;\n\n    // For inverted prices, keep a mapping of their entry, limits and frozen status\n    struct InversePricing {\n        uint entryPoint;\n        uint upperLimit;\n        uint lowerLimit;\n        bool frozen;\n    }\n    mapping(bytes32 => InversePricing) public inversePricing;\n    bytes32[] public invertedKeys;\n\n    mapping(bytes32 => uint) public currentRoundForRate;\n\n    //\n    // ========== CONSTRUCTOR ==========\n\n    constructor(\n        address _owner,\n        address _oracle,\n        bytes32[] memory _currencyKeys,\n        uint[] memory _newRates\n    ) public Owned(_owner) SelfDestructible() {\n        require(_currencyKeys.length == _newRates.length, \"Currency key length and rate length must match.\");\n\n        oracle = _oracle;\n\n        // The sUSD rate is always 1 and is never stale.\n        _setRate(\"sUSD\", SafeDecimalMath.unit(), now);\n\n        internalUpdateRates(_currencyKeys, _newRates, now);\n    }\n\n    /* ========== SETTERS ========== */\n\n    function setOracle(address _oracle) external onlyOwner {\n        oracle = _oracle;\n        emit OracleUpdated(oracle);\n    }\n\n    function setRateStalePeriod(uint _time) external onlyOwner {\n        rateStalePeriod = _time;\n        emit RateStalePeriodUpdated(rateStalePeriod);\n    }\n\n    /* ========== MUTATIVE FUNCTIONS ========== */\n\n    function updateRates(\n        bytes32[] calldata currencyKeys,\n        uint[] calldata newRates,\n        uint timeSent\n    ) external onlyOracle returns (bool) {\n        return internalUpdateRates(currencyKeys, newRates, timeSent);\n    }\n\n    function deleteRate(bytes32 currencyKey) external onlyOracle {\n        require(_getRate(currencyKey) > 0, \"Rate is zero\");\n\n        delete _rates[currencyKey][currentRoundForRate[currencyKey]];\n\n        currentRoundForRate[currencyKey]--;\n\n        emit RateDeleted(currencyKey);\n    }\n\n    function setInversePricing(\n        bytes32 currencyKey,\n        uint entryPoint,\n        uint upperLimit,\n        uint lowerLimit,\n        bool freeze,\n        bool freezeAtUpperLimit\n    ) external onlyOwner {\n        // 0 < lowerLimit < entryPoint => 0 < entryPoint\n        require(lowerLimit > 0, \"lowerLimit must be above 0\");\n        require(upperLimit > entryPoint, \"upperLimit must be above the entryPoint\");\n        require(upperLimit < entryPoint.mul(2), \"upperLimit must be less than double entryPoint\");\n        require(lowerLimit < entryPoint, \"lowerLimit must be below the entryPoint\");\n\n        if (inversePricing[currencyKey].entryPoint <= 0) {\n            // then we are adding a new inverse pricing, so add this\n            invertedKeys.push(currencyKey);\n        }\n        inversePricing[currencyKey].entryPoint = entryPoint;\n        inversePricing[currencyKey].upperLimit = upperLimit;\n        inversePricing[currencyKey].lowerLimit = lowerLimit;\n        inversePricing[currencyKey].frozen = freeze;\n\n        emit InversePriceConfigured(currencyKey, entryPoint, upperLimit, lowerLimit);\n\n        // When indicating to freeze, we need to know the rate to freeze it at - either upper or lower\n        // this is useful in situations where ExchangeRates is updated and there are existing inverted\n        // rates already frozen in the current contract that need persisting across the upgrade\n        if (freeze) {\n            emit InversePriceFrozen(currencyKey);\n\n            _setRate(currencyKey, freezeAtUpperLimit ? upperLimit : lowerLimit, now);\n        }\n    }\n\n    function removeInversePricing(bytes32 currencyKey) external onlyOwner {\n        require(inversePricing[currencyKey].entryPoint > 0, \"No inverted price exists\");\n\n        inversePricing[currencyKey].entryPoint = 0;\n        inversePricing[currencyKey].upperLimit = 0;\n        inversePricing[currencyKey].lowerLimit = 0;\n        inversePricing[currencyKey].frozen = false;\n\n        // now remove inverted key from array\n        bool wasRemoved = removeFromArray(currencyKey, invertedKeys);\n\n        if (wasRemoved) {\n            emit InversePriceConfigured(currencyKey, 0, 0, 0);\n        }\n    }\n\n    function addAggregator(bytes32 currencyKey, address aggregatorAddress) external onlyOwner {\n        AggregatorInterface aggregator = AggregatorInterface(aggregatorAddress);\n        // This check tries to make sure that a valid aggregator is being added.\n        // It checks if the aggregator is an existing smart contract that has implemented `latestTimestamp` function.\n        require(aggregator.latestTimestamp() >= 0, \"Given Aggregator is invalid\");\n        if (address(aggregators[currencyKey]) == address(0)) {\n            aggregatorKeys.push(currencyKey);\n        }\n        aggregators[currencyKey] = aggregator;\n        emit AggregatorAdded(currencyKey, address(aggregator));\n    }\n\n    function removeAggregator(bytes32 currencyKey) external onlyOwner {\n        address aggregator = address(aggregators[currencyKey]);\n        require(aggregator != address(0), \"No aggregator exists for key\");\n        delete aggregators[currencyKey];\n\n        bool wasRemoved = removeFromArray(currencyKey, aggregatorKeys);\n\n        if (wasRemoved) {\n            emit AggregatorRemoved(currencyKey, aggregator);\n        }\n    }\n\n    /* ========== VIEWS ========== */\n\n    function rateAndUpdatedTime(bytes32 currencyKey) external view returns (uint rate, uint time) {\n        RateAndUpdatedTime memory rateAndTime = _getRateAndUpdatedTime(currencyKey);\n        return (rateAndTime.rate, rateAndTime.time);\n    }\n\n    function getLastRoundIdBeforeElapsedSecs(\n        bytes32 currencyKey,\n        uint startingRoundId,\n        uint startingTimestamp,\n        uint timediff\n    ) external view returns (uint) {\n        uint roundId = startingRoundId;\n        uint nextTimestamp = 0;\n        while (true) {\n            (, nextTimestamp) = _getRateAndTimestampAtRound(currencyKey, roundId + 1);\n            // if there's no new round, then the previous roundId was the latest\n            if (nextTimestamp == 0 || nextTimestamp > startingTimestamp + timediff) {\n                return roundId;\n            }\n            roundId++;\n        }\n        return roundId;\n    }\n\n    function getCurrentRoundId(bytes32 currencyKey) external view returns (uint) {\n        return _getCurrentRoundId(currencyKey);\n    }\n\n    function effectiveValueAtRound(\n        bytes32 sourceCurrencyKey,\n        uint sourceAmount,\n        bytes32 destinationCurrencyKey,\n        uint roundIdForSrc,\n        uint roundIdForDest\n    ) external view returns (uint value) {\n        // If there's no change in the currency, then just return the amount they gave us\n        if (sourceCurrencyKey == destinationCurrencyKey) return sourceAmount;\n\n        (uint srcRate, ) = _getRateAndTimestampAtRound(sourceCurrencyKey, roundIdForSrc);\n        (uint destRate, ) = _getRateAndTimestampAtRound(destinationCurrencyKey, roundIdForDest);\n        // Calculate the effective value by going from source -> USD -> destination\n        value = sourceAmount.multiplyDecimalRound(srcRate).divideDecimalRound(destRate);\n    }\n\n    function rateAndTimestampAtRound(bytes32 currencyKey, uint roundId) external view returns (uint rate, uint time) {\n        return _getRateAndTimestampAtRound(currencyKey, roundId);\n    }\n\n    function lastRateUpdateTimes(bytes32 currencyKey) external view returns (uint256) {\n        return _getUpdatedTime(currencyKey);\n    }\n\n    function lastRateUpdateTimesForCurrencies(bytes32[] calldata currencyKeys) external view returns (uint[] memory) {\n        uint[] memory lastUpdateTimes = new uint[](currencyKeys.length);\n\n        for (uint i = 0; i < currencyKeys.length; i++) {\n            lastUpdateTimes[i] = _getUpdatedTime(currencyKeys[i]);\n        }\n\n        return lastUpdateTimes;\n    }\n\n    function effectiveValue(\n        bytes32 sourceCurrencyKey,\n        uint sourceAmount,\n        bytes32 destinationCurrencyKey\n    ) external view returns (uint value) {\n        (value, , ) = _effectiveValueAndRates(sourceCurrencyKey, sourceAmount, destinationCurrencyKey);\n    }\n\n    function effectiveValueAndRates(\n        bytes32 sourceCurrencyKey,\n        uint sourceAmount,\n        bytes32 destinationCurrencyKey\n    )\n        external\n        view\n        returns (\n            uint value,\n            uint sourceRate,\n            uint destinationRate\n        )\n    {\n        return _effectiveValueAndRates(sourceCurrencyKey, sourceAmount, destinationCurrencyKey);\n    }\n\n    function rateForCurrency(bytes32 currencyKey) external view returns (uint) {\n        return _getRateAndUpdatedTime(currencyKey).rate;\n    }\n\n    function ratesAndUpdatedTimeForCurrencyLastNRounds(bytes32 currencyKey, uint numRounds)\n        external\n        view\n        returns (uint[] memory rates, uint[] memory times)\n    {\n        rates = new uint[](numRounds);\n        times = new uint[](numRounds);\n\n        uint roundId = _getCurrentRoundId(currencyKey);\n        for (uint i = 0; i < numRounds; i++) {\n            (rates[i], times[i]) = _getRateAndTimestampAtRound(currencyKey, roundId);\n            if (roundId == 0) {\n                // if we hit the last round, then return what we have\n                return (rates, times);\n            } else {\n                roundId--;\n            }\n        }\n    }\n\n    function ratesForCurrencies(bytes32[] calldata currencyKeys) external view returns (uint[] memory) {\n        uint[] memory _localRates = new uint[](currencyKeys.length);\n\n        for (uint i = 0; i < currencyKeys.length; i++) {\n            _localRates[i] = _getRate(currencyKeys[i]);\n        }\n\n        return _localRates;\n    }\n\n    function ratesAndStaleForCurrencies(bytes32[] calldata currencyKeys) external view returns (uint[] memory, bool) {\n        uint[] memory _localRates = new uint[](currencyKeys.length);\n\n        bool anyRateStale = false;\n        uint period = rateStalePeriod;\n        for (uint i = 0; i < currencyKeys.length; i++) {\n            RateAndUpdatedTime memory rateAndUpdateTime = _getRateAndUpdatedTime(currencyKeys[i]);\n            _localRates[i] = uint256(rateAndUpdateTime.rate);\n            if (!anyRateStale) {\n                anyRateStale = (currencyKeys[i] != \"sUSD\" && uint256(rateAndUpdateTime.time).add(period) < now);\n            }\n        }\n\n        return (_localRates, anyRateStale);\n    }\n\n    function rateIsStale(bytes32 currencyKey) external view returns (bool) {\n        // sUSD is a special case and is never stale.\n        if (currencyKey == \"sUSD\") return false;\n\n        return _getUpdatedTime(currencyKey).add(rateStalePeriod) < now;\n    }\n\n    function rateIsFrozen(bytes32 currencyKey) external view returns (bool) {\n        return inversePricing[currencyKey].frozen;\n    }\n\n    function anyRateIsStale(bytes32[] calldata currencyKeys) external view returns (bool) {\n        // Loop through each key and check whether the data point is stale.\n        uint256 i = 0;\n\n        while (i < currencyKeys.length) {\n            // sUSD is a special case and is never false\n            if (currencyKeys[i] != \"sUSD\" && _getUpdatedTime(currencyKeys[i]).add(rateStalePeriod) < now) {\n                return true;\n            }\n            i += 1;\n        }\n\n        return false;\n    }\n\n    /* ========== INTERNAL FUNCTIONS ========== */\n\n    function _setRate(\n        bytes32 currencyKey,\n        uint256 rate,\n        uint256 time\n    ) internal {\n        // Note: this will effectively start the rounds at 1, which matches Chainlink's Agggregators\n        currentRoundForRate[currencyKey]++;\n\n        _rates[currencyKey][currentRoundForRate[currencyKey]] = RateAndUpdatedTime({\n            rate: uint216(rate),\n            time: uint40(time)\n        });\n    }\n\n    function internalUpdateRates(\n        bytes32[] memory currencyKeys,\n        uint[] memory newRates,\n        uint timeSent\n    ) internal returns (bool) {\n        require(currencyKeys.length == newRates.length, \"Currency key array length must match rates array length.\");\n        require(timeSent < (now + ORACLE_FUTURE_LIMIT), \"Time is too far into the future\");\n\n        // Loop through each key and perform update.\n        for (uint i = 0; i < currencyKeys.length; i++) {\n            bytes32 currencyKey = currencyKeys[i];\n\n            // Should not set any rate to zero ever, as no asset will ever be\n            // truely worthless and still valid. In this scenario, we should\n            // delete the rate and remove it from the system.\n            require(newRates[i] != 0, \"Zero is not a valid rate, please call deleteRate instead.\");\n            require(currencyKey != \"sUSD\", \"Rate of sUSD cannot be updated, it's always UNIT.\");\n\n            // We should only update the rate if it's at least the same age as the last rate we've got.\n            if (timeSent < _getUpdatedTime(currencyKey)) {\n                continue;\n            }\n\n            newRates[i] = rateOrInverted(currencyKey, newRates[i]);\n\n            // Ok, go ahead with the update.\n            _setRate(currencyKey, newRates[i], timeSent);\n        }\n\n        emit RatesUpdated(currencyKeys, newRates);\n\n        return true;\n    }\n\n    function rateOrInverted(bytes32 currencyKey, uint rate) internal returns (uint) {\n        // if an inverse mapping exists, adjust the price accordingly\n        InversePricing storage inverse = inversePricing[currencyKey];\n        if (inverse.entryPoint <= 0) {\n            return rate;\n        }\n\n        // set the rate to the current rate initially (if it's frozen, this is what will be returned)\n        uint newInverseRate = _getRate(currencyKey);\n\n        // get the new inverted rate if not frozen\n        if (!inverse.frozen) {\n            uint doubleEntryPoint = inverse.entryPoint.mul(2);\n            if (doubleEntryPoint <= rate) {\n                // avoid negative numbers for unsigned ints, so set this to 0\n                // which by the requirement that lowerLimit be > 0 will\n                // cause this to freeze the price to the lowerLimit\n                newInverseRate = 0;\n            } else {\n                newInverseRate = doubleEntryPoint.sub(rate);\n            }\n\n            // now if new rate hits our limits, set it to the limit and freeze\n            if (newInverseRate >= inverse.upperLimit) {\n                newInverseRate = inverse.upperLimit;\n            } else if (newInverseRate <= inverse.lowerLimit) {\n                newInverseRate = inverse.lowerLimit;\n            }\n\n            if (newInverseRate == inverse.upperLimit || newInverseRate == inverse.lowerLimit) {\n                inverse.frozen = true;\n                emit InversePriceFrozen(currencyKey);\n            }\n        }\n\n        return newInverseRate;\n    }\n\n    function removeFromArray(bytes32 entry, bytes32[] storage array) internal returns (bool) {\n        for (uint i = 0; i < array.length; i++) {\n            if (array[i] == entry) {\n                delete array[i];\n\n                // Copy the last key into the place of the one we just deleted\n                // If there's only one key, this is array[0] = array[0].\n                // If we're deleting the last one, it's also a NOOP in the same way.\n                array[i] = array[array.length - 1];\n\n                // Decrease the size of the array by one.\n                array.length--;\n\n                return true;\n            }\n        }\n        return false;\n    }\n\n    function _getRateAndUpdatedTime(bytes32 currencyKey) internal view returns (RateAndUpdatedTime memory) {\n        if (address(aggregators[currencyKey]) != address(0)) {\n            return\n                RateAndUpdatedTime({\n                    rate: uint216(aggregators[currencyKey].latestAnswer() * 1e10),\n                    time: uint40(aggregators[currencyKey].latestTimestamp())\n                });\n        } else {\n            return _rates[currencyKey][currentRoundForRate[currencyKey]];\n        }\n    }\n\n    function _getCurrentRoundId(bytes32 currencyKey) internal view returns (uint) {\n        if (address(aggregators[currencyKey]) != address(0)) {\n            AggregatorInterface aggregator = aggregators[currencyKey];\n            return aggregator.latestRound();\n        } else {\n            return currentRoundForRate[currencyKey];\n        }\n    }\n\n    function _getRateAndTimestampAtRound(bytes32 currencyKey, uint roundId) internal view returns (uint rate, uint time) {\n        if (address(aggregators[currencyKey]) != address(0)) {\n            AggregatorInterface aggregator = aggregators[currencyKey];\n            return (uint(aggregator.getAnswer(roundId) * 1e10), aggregator.getTimestamp(roundId));\n        } else {\n            RateAndUpdatedTime storage update = _rates[currencyKey][roundId];\n            return (update.rate, update.time);\n        }\n    }\n\n    function _getRate(bytes32 currencyKey) internal view returns (uint256) {\n        return _getRateAndUpdatedTime(currencyKey).rate;\n    }\n\n    function _getUpdatedTime(bytes32 currencyKey) internal view returns (uint256) {\n        return _getRateAndUpdatedTime(currencyKey).time;\n    }\n\n    function _effectiveValueAndRates(\n        bytes32 sourceCurrencyKey,\n        uint sourceAmount,\n        bytes32 destinationCurrencyKey\n    )\n        internal\n        view\n        returns (\n            uint value,\n            uint sourceRate,\n            uint destinationRate\n        )\n    {\n        sourceRate = _getRate(sourceCurrencyKey);\n        // If there's no change in the currency, then just return the amount they gave us\n        if (sourceCurrencyKey == destinationCurrencyKey) {\n            destinationRate = sourceRate;\n            value = sourceAmount;\n        } else {\n            // Calculate the effective value by going from source -> USD -> destination\n            destinationRate = _getRate(destinationCurrencyKey);\n            value = sourceAmount.multiplyDecimalRound(sourceRate).divideDecimalRound(destinationRate);\n        }\n    }\n\n    /* ========== MODIFIERS ========== */\n\n    modifier onlyOracle {\n        require(msg.sender == oracle, \"Only the oracle can perform this action\");\n        _;\n    }\n\n    /* ========== EVENTS ========== */\n\n    event OracleUpdated(address newOracle);\n    event RateStalePeriodUpdated(uint rateStalePeriod);\n    event RatesUpdated(bytes32[] currencyKeys, uint[] newRates);\n    event RateDeleted(bytes32 currencyKey);\n    event InversePriceConfigured(bytes32 currencyKey, uint entryPoint, uint upperLimit, uint lowerLimit);\n    event InversePriceFrozen(bytes32 currencyKey);\n    event AggregatorAdded(bytes32 currencyKey, address aggregator);\n    event AggregatorRemoved(bytes32 currencyKey, address aggregator);\n}\n",
  "sourcePath": "/Users/qizhang/Development/truffle_test2/contracts/ExchangeRates.sol",
  "compiler": {
    "name": "solc",
    "version": "0.5.16+commit.9c3226ce.Emscripten.clang"
  },
  "schemaVersion": "3.2.1",
  "updatedAt": "2020-07-05T03:58:12.847Z",
  "devdoc": {
    "methods": {
      "initiateSelfDestruct()": {
        "details": "Only the contract owner may call this."
      },
      "selfDestruct()": {
        "details": "Only the contract owner may call this."
      },
      "setSelfDestructBeneficiary(address)": {
        "details": "Only the contract owner may call this. The provided beneficiary must be non-null.",
        "params": {
          "_beneficiary": "The address to pay any eth contained in this contract to upon self-destruction."
        }
      },
      "terminateSelfDestruct()": {
        "details": "Only the contract owner may call this."
      }
    }
  },
  "userdoc": {
    "methods": {
      "initiateSelfDestruct()": {
        "notice": "Begin the self-destruction counter of this contract. Once the delay has elapsed, the contract may be self-destructed."
      },
      "selfDestruct()": {
        "notice": "If the self-destruction delay has elapsed, destroy this contract and remit any ether it owns to the beneficiary address."
      },
      "setSelfDestructBeneficiary(address)": {
        "notice": "Set the beneficiary address of this contract."
      },
      "terminateSelfDestruct()": {
        "notice": "Terminate and reset the self-destruction timer."
      }
    }
  }
}