{
  "contractName": "Exchanger",
  "abi": [
    {
      "inputs": [
        {
          "internalType": "address",
          "name": "_owner",
          "type": "address"
        },
        {
          "internalType": "address",
          "name": "_resolver",
          "type": "address"
        }
      ],
      "payable": false,
      "stateMutability": "nonpayable",
      "type": "constructor"
    },
    {
      "anonymous": false,
      "inputs": [
        {
          "indexed": false,
          "internalType": "address",
          "name": "oldOwner",
          "type": "address"
        },
        {
          "indexed": false,
          "internalType": "address",
          "name": "newOwner",
          "type": "address"
        }
      ],
      "name": "OwnerChanged",
      "type": "event"
    },
    {
      "anonymous": false,
      "inputs": [
        {
          "indexed": false,
          "internalType": "address",
          "name": "newOwner",
          "type": "address"
        }
      ],
      "name": "OwnerNominated",
      "type": "event"
    },
    {
      "constant": true,
      "inputs": [],
      "name": "MAX_ADDRESSES_FROM_RESOLVER",
      "outputs": [
        {
          "internalType": "uint256",
          "name": "",
          "type": "uint256"
        }
      ],
      "payable": false,
      "stateMutability": "view",
      "type": "function"
    },
    {
      "constant": false,
      "inputs": [],
      "name": "acceptOwnership",
      "outputs": [],
      "payable": false,
      "stateMutability": "nonpayable",
      "type": "function"
    },
    {
      "constant": true,
      "inputs": [],
      "name": "getResolverAddressesRequired",
      "outputs": [
        {
          "internalType": "bytes32[24]",
          "name": "addressesRequired",
          "type": "bytes32[24]"
        }
      ],
      "payable": false,
      "stateMutability": "view",
      "type": "function"
    },
    {
      "constant": true,
      "inputs": [
        {
          "internalType": "contract AddressResolver",
          "name": "_resolver",
          "type": "address"
        }
      ],
      "name": "isResolverCached",
      "outputs": [
        {
          "internalType": "bool",
          "name": "",
          "type": "bool"
        }
      ],
      "payable": false,
      "stateMutability": "view",
      "type": "function"
    },
    {
      "constant": false,
      "inputs": [
        {
          "internalType": "address",
          "name": "_owner",
          "type": "address"
        }
      ],
      "name": "nominateNewOwner",
      "outputs": [],
      "payable": false,
      "stateMutability": "nonpayable",
      "type": "function"
    },
    {
      "constant": true,
      "inputs": [],
      "name": "nominatedOwner",
      "outputs": [
        {
          "internalType": "address",
          "name": "",
          "type": "address"
        }
      ],
      "payable": false,
      "stateMutability": "view",
      "type": "function"
    },
    {
      "constant": true,
      "inputs": [],
      "name": "owner",
      "outputs": [
        {
          "internalType": "address",
          "name": "",
          "type": "address"
        }
      ],
      "payable": false,
      "stateMutability": "view",
      "type": "function"
    },
    {
      "constant": true,
      "inputs": [],
      "name": "resolver",
      "outputs": [
        {
          "internalType": "contract AddressResolver",
          "name": "",
          "type": "address"
        }
      ],
      "payable": false,
      "stateMutability": "view",
      "type": "function"
    },
    {
      "constant": true,
      "inputs": [
        {
          "internalType": "uint256",
          "name": "",
          "type": "uint256"
        }
      ],
      "name": "resolverAddressesRequired",
      "outputs": [
        {
          "internalType": "bytes32",
          "name": "",
          "type": "bytes32"
        }
      ],
      "payable": false,
      "stateMutability": "view",
      "type": "function"
    },
    {
      "constant": false,
      "inputs": [
        {
          "internalType": "contract AddressResolver",
          "name": "_resolver",
          "type": "address"
        }
      ],
      "name": "setResolverAndSyncCache",
      "outputs": [],
      "payable": false,
      "stateMutability": "nonpayable",
      "type": "function"
    },
    {
      "constant": true,
      "inputs": [],
      "name": "waitingPeriodSecs",
      "outputs": [
        {
          "internalType": "uint256",
          "name": "",
          "type": "uint256"
        }
      ],
      "payable": false,
      "stateMutability": "view",
      "type": "function"
    },
    {
      "constant": true,
      "inputs": [
        {
          "internalType": "address",
          "name": "account",
          "type": "address"
        },
        {
          "internalType": "bytes32",
          "name": "currencyKey",
          "type": "bytes32"
        }
      ],
      "name": "maxSecsLeftInWaitingPeriod",
      "outputs": [
        {
          "internalType": "uint256",
          "name": "",
          "type": "uint256"
        }
      ],
      "payable": false,
      "stateMutability": "view",
      "type": "function"
    },
    {
      "constant": true,
      "inputs": [
        {
          "internalType": "address",
          "name": "account",
          "type": "address"
        },
        {
          "internalType": "bytes32",
          "name": "currencyKey",
          "type": "bytes32"
        }
      ],
      "name": "settlementOwing",
      "outputs": [
        {
          "internalType": "uint256",
          "name": "reclaimAmount",
          "type": "uint256"
        },
        {
          "internalType": "uint256",
          "name": "rebateAmount",
          "type": "uint256"
        },
        {
          "internalType": "uint256",
          "name": "numEntries",
          "type": "uint256"
        }
      ],
      "payable": false,
      "stateMutability": "view",
      "type": "function"
    },
    {
      "constant": true,
      "inputs": [
        {
          "internalType": "address",
          "name": "account",
          "type": "address"
        },
        {
          "internalType": "bytes32",
          "name": "currencyKey",
          "type": "bytes32"
        }
      ],
      "name": "hasWaitingPeriodOrSettlementOwing",
      "outputs": [
        {
          "internalType": "bool",
          "name": "",
          "type": "bool"
        }
      ],
      "payable": false,
      "stateMutability": "view",
      "type": "function"
    },
    {
      "constant": false,
      "inputs": [
        {
          "internalType": "uint256",
          "name": "_waitingPeriodSecs",
          "type": "uint256"
        }
      ],
      "name": "setWaitingPeriodSecs",
      "outputs": [],
      "payable": false,
      "stateMutability": "nonpayable",
      "type": "function"
    },
    {
      "constant": true,
      "inputs": [
        {
          "internalType": "address",
          "name": "from",
          "type": "address"
        },
        {
          "internalType": "bytes32",
          "name": "currencyKey",
          "type": "bytes32"
        },
        {
          "internalType": "uint256",
          "name": "amount",
          "type": "uint256"
        },
        {
          "internalType": "uint256",
          "name": "refunded",
          "type": "uint256"
        }
      ],
      "name": "calculateAmountAfterSettlement",
      "outputs": [
        {
          "internalType": "uint256",
          "name": "amountAfterSettlement",
          "type": "uint256"
        }
      ],
      "payable": false,
      "stateMutability": "view",
      "type": "function"
    },
    {
      "constant": false,
      "inputs": [
        {
          "internalType": "address",
          "name": "from",
          "type": "address"
        },
        {
          "internalType": "bytes32",
          "name": "sourceCurrencyKey",
          "type": "bytes32"
        },
        {
          "internalType": "uint256",
          "name": "sourceAmount",
          "type": "uint256"
        },
        {
          "internalType": "bytes32",
          "name": "destinationCurrencyKey",
          "type": "bytes32"
        },
        {
          "internalType": "address",
          "name": "destinationAddress",
          "type": "address"
        }
      ],
      "name": "exchange",
      "outputs": [
        {
          "internalType": "uint256",
          "name": "amountReceived",
          "type": "uint256"
        }
      ],
      "payable": false,
      "stateMutability": "nonpayable",
      "type": "function"
    },
    {
      "constant": false,
      "inputs": [
        {
          "internalType": "address",
          "name": "exchangeForAddress",
          "type": "address"
        },
        {
          "internalType": "address",
          "name": "from",
          "type": "address"
        },
        {
          "internalType": "bytes32",
          "name": "sourceCurrencyKey",
          "type": "bytes32"
        },
        {
          "internalType": "uint256",
          "name": "sourceAmount",
          "type": "uint256"
        },
        {
          "internalType": "bytes32",
          "name": "destinationCurrencyKey",
          "type": "bytes32"
        }
      ],
      "name": "exchangeOnBehalf",
      "outputs": [
        {
          "internalType": "uint256",
          "name": "amountReceived",
          "type": "uint256"
        }
      ],
      "payable": false,
      "stateMutability": "nonpayable",
      "type": "function"
    },
    {
      "constant": false,
      "inputs": [
        {
          "internalType": "address",
          "name": "from",
          "type": "address"
        },
        {
          "internalType": "bytes32",
          "name": "currencyKey",
          "type": "bytes32"
        }
      ],
      "name": "settle",
      "outputs": [
        {
          "internalType": "uint256",
          "name": "reclaimed",
          "type": "uint256"
        },
        {
          "internalType": "uint256",
          "name": "refunded",
          "type": "uint256"
        },
        {
          "internalType": "uint256",
          "name": "numEntriesSettled",
          "type": "uint256"
        }
      ],
      "payable": false,
      "stateMutability": "nonpayable",
      "type": "function"
    },
    {
      "constant": true,
      "inputs": [
        {
          "internalType": "bytes32",
          "name": "sourceCurrencyKey",
          "type": "bytes32"
        },
        {
          "internalType": "bytes32",
          "name": "destinationCurrencyKey",
          "type": "bytes32"
        }
      ],
      "name": "feeRateForExchange",
      "outputs": [
        {
          "internalType": "uint256",
          "name": "exchangeFeeRate",
          "type": "uint256"
        }
      ],
      "payable": false,
      "stateMutability": "view",
      "type": "function"
    },
    {
      "constant": true,
      "inputs": [
        {
          "internalType": "uint256",
          "name": "sourceAmount",
          "type": "uint256"
        },
        {
          "internalType": "bytes32",
          "name": "sourceCurrencyKey",
          "type": "bytes32"
        },
        {
          "internalType": "bytes32",
          "name": "destinationCurrencyKey",
          "type": "bytes32"
        }
      ],
      "name": "getAmountsForExchange",
      "outputs": [
        {
          "internalType": "uint256",
          "name": "amountReceived",
          "type": "uint256"
        },
        {
          "internalType": "uint256",
          "name": "fee",
          "type": "uint256"
        },
        {
          "internalType": "uint256",
          "name": "exchangeFeeRate",
          "type": "uint256"
        }
      ],
      "payable": false,
      "stateMutability": "view",
      "type": "function"
    }
  ],
  "bytecode": "0x60806040526040518060e001604052807f53797374656d537461747573000000000000000000000000000000000000000081526020017f45786368616e676553746174650000000000000000000000000000000000000081526020017f45786368616e676552617465730000000000000000000000000000000000000081526020017f53796e746865746978000000000000000000000000000000000000000000000081526020017f466565506f6f6c0000000000000000000000000000000000000000000000000081526020017f44656c6567617465417070726f76616c7300000000000000000000000000000081526020017f4973737565720000000000000000000000000000000000000000000000000000815250600690600762000129929190620004d3565b503480156200013757600080fd5b5060405162003ff438038062003ff4833981810160405260408110156200015d57600080fd5b810190808051906020019092919080519060200190929190505050806006601880602002604051908101604052809291908260188015620001b4576020028201915b8154815260200190600101908083116200019f575b505050505083600073ffffffffffffffffffffffffffffffffffffffff168173ffffffffffffffffffffffffffffffffffffffff1614156200025e576040517f08c379a00000000000000000000000000000000000000000000000000000000081526004018080602001828103825260198152602001807f4f776e657220616464726573732063616e6e6f7420626520300000000000000081525060200191505060405180910390fd5b806000806101000a81548173ffffffffffffffffffffffffffffffffffffffff021916908373ffffffffffffffffffffffffffffffffffffffff1602179055507fb532073b38c83145e3e5135377a08bf9aab55bc0fd7c1179cd4fb995d2a5159c600082604051808373ffffffffffffffffffffffffffffffffffffffff1673ffffffffffffffffffffffffffffffffffffffff1681526020018273ffffffffffffffffffffffffffffffffffffffff1673ffffffffffffffffffffffffffffffffffffffff1681526020019250505060405180910390a150600073ffffffffffffffffffffffffffffffffffffffff166000809054906101000a900473ffffffffffffffffffffffffffffffffffffffff1673ffffffffffffffffffffffffffffffffffffffff161415620003fc576040517f08c379a00000000000000000000000000000000000000000000000000000000081526004018080602001828103825260118152602001807f4f776e6572206d7573742062652073657400000000000000000000000000000081525060200191505060405180910390fd5b60008090505b60188110156200047f576000801b8282601881106200041d57fe5b6020020151146200046b5760048282601881106200043757fe5b6020020151908060018154018082558091505090600182039060005260206000200160009091929091909150555062000471565b6200047f565b808060010191505062000402565b5081600260006101000a81548173ffffffffffffffffffffffffffffffffffffffff021916908373ffffffffffffffffffffffffffffffffffffffff160217905550505060b4600581905550505062000540565b826018810192821562000505579160200282015b8281111562000504578251825591602001919060010190620004e7565b5b50905062000514919062000518565b5090565b6200053d91905b80821115620005395760008160009055506001016200051f565b5090565b90565b613aa480620005506000396000f3fe608060405234801561001057600080fd5b50600436106101375760003560e01c8063631e1444116100b85780638da5cb5b1161007c5780638da5cb5b1461063a578063ab49848c14610684578063c6c9d828146106ca578063d6f32e061461070c578063e3235c9114610772578063f450aa341461079057610137565b8063631e1444146104f2578063635a38721461054e5780636a1c47581461057c57806379ba509714610612578063892571171461061c57610137565b80631a5c6095116100ff5780631a5c6095146103325780631b16802c1461037e5780633be99e6f146103ee5780634c268fc81461043257806353a47bb7146104a857610137565b806304f3bcec1461013c578063059c29ec146101865780630a1e187d146101e85780631627540c1461027e57806319d5c665146102c2575b600080fd5b6101446107f4565b604051808273ffffffffffffffffffffffffffffffffffffffff1673ffffffffffffffffffffffffffffffffffffffff16815260200191505060405180910390f35b6101d26004803603604081101561019c57600080fd5b81019080803573ffffffffffffffffffffffffffffffffffffffff1690602001909291908035906020019092919050505061081a565b6040518082815260200191505060405180910390f35b610268600480360360a08110156101fe57600080fd5b81019080803573ffffffffffffffffffffffffffffffffffffffff169060200190929190803590602001909291908035906020019092919080359060200190929190803573ffffffffffffffffffffffffffffffffffffffff1690602001909291905050506108f3565b6040518082815260200191505060405180910390f35b6102c06004803603602081101561029457600080fd5b81019080803573ffffffffffffffffffffffffffffffffffffffff169060200190929190505050610a62565b005b61030e600480360360408110156102d857600080fd5b81019080803573ffffffffffffffffffffffffffffffffffffffff16906020019092919080359060200190929190505050610bae565b60405180848152602001838152602001828152602001935050505060405180910390f35b6103686004803603604081101561034857600080fd5b810190808035906020019092919080359060200190929190505050610f19565b6040518082815260200191505060405180910390f35b6103ca6004803603604081101561039457600080fd5b81019080803573ffffffffffffffffffffffffffffffffffffffff16906020019092919080359060200190929190505050610f2d565b60405180848152602001838152602001828152602001935050505060405180910390f35b6104306004803603602081101561040457600080fd5b81019080803573ffffffffffffffffffffffffffffffffffffffff169060200190929190505050611020565b005b6104926004803603608081101561044857600080fd5b81019080803573ffffffffffffffffffffffffffffffffffffffff16906020019092919080359060200190929190803590602001909291908035906020019092919050505061127f565b6040518082815260200191505060405180910390f35b6104b0611406565b604051808273ffffffffffffffffffffffffffffffffffffffff1673ffffffffffffffffffffffffffffffffffffffff16815260200191505060405180910390f35b6105346004803603602081101561050857600080fd5b81019080803573ffffffffffffffffffffffffffffffffffffffff16906020019092919050505061142c565b604051808215151515815260200191505060405180910390f35b61057a6004803603602081101561056457600080fd5b810190808035906020019092919050505061165e565b005b6105fc600480360360a081101561059257600080fd5b81019080803573ffffffffffffffffffffffffffffffffffffffff169060200190929190803573ffffffffffffffffffffffffffffffffffffffff16906020019092919080359060200190929190803590602001909291908035906020019092919050505061170d565b6040518082815260200191505060405180910390f35b61061a6119e1565b005b610624611c07565b6040518082815260200191505060405180910390f35b610642611c0d565b604051808273ffffffffffffffffffffffffffffffffffffffff1673ffffffffffffffffffffffffffffffffffffffff16815260200191505060405180910390f35b61068c611c32565b6040518082601860200280838360005b838110156106b757808201518184015260208101905061069c565b5050505090500191505060405180910390f35b6106f6600480360360208110156106e057600080fd5b8101908080359060200190929190505050611c8b565b6040518082815260200191505060405180910390f35b6107586004803603604081101561072257600080fd5b81019080803573ffffffffffffffffffffffffffffffffffffffff16906020019092919080359060200190929190505050611cac565b604051808215151515815260200191505060405180910390f35b61077a611ce5565b6040518082815260200191505060405180910390f35b6107d0600480360360608110156107a657600080fd5b81019080803590602001909291908035906020019092919080359060200190929190505050611cea565b60405180848152602001838152602001828152602001935050505060405180910390f35b600260009054906101000a900473ffffffffffffffffffffffffffffffffffffffff1681565b60006108eb610827611d0f565b73ffffffffffffffffffffffffffffffffffffffff1663f1406dc885856040518363ffffffff1660e01b8152600401808373ffffffffffffffffffffffffffffffffffffffff1673ffffffffffffffffffffffffffffffffffffffff1681526020018281526020019250505060206040518083038186803b1580156108ab57600080fd5b505afa1580156108bf573d6000803e3d6000fd5b505050506040513d60208110156108d557600080fd5b8101908080519060200190929190505050611d75565b905092915050565b6000806108fe611dd6565b90508073ffffffffffffffffffffffffffffffffffffffff163373ffffffffffffffffffffffffffffffffffffffff1614806109f457506000801b8173ffffffffffffffffffffffffffffffffffffffff166316b2213f336040518263ffffffff1660e01b8152600401808273ffffffffffffffffffffffffffffffffffffffff1673ffffffffffffffffffffffffffffffffffffffff16815260200191505060206040518083038186803b1580156109b657600080fd5b505afa1580156109ca573d6000803e3d6000fd5b505050506040513d60208110156109e057600080fd5b810190808051906020019092919050505014155b610a49576040517f08c379a00000000000000000000000000000000000000000000000000000000081526004018080602001828103825260458152602001806139b86045913960600191505060405180910390fd5b610a568787878787611e3c565b91505095945050505050565b6000809054906101000a900473ffffffffffffffffffffffffffffffffffffffff1673ffffffffffffffffffffffffffffffffffffffff163373ffffffffffffffffffffffffffffffffffffffff1614610b07576040517f08c379a000000000000000000000000000000000000000000000000000000000815260040180806020018281038252602f8152602001806139fd602f913960400191505060405180910390fd5b80600160006101000a81548173ffffffffffffffffffffffffffffffffffffffff021916908373ffffffffffffffffffffffffffffffffffffffff1602179055507f906a1c6bd7e3091ea86693dd029a831c19049ce77f1dce2ce0bab1cacbabce2281604051808273ffffffffffffffffffffffffffffffffffffffff1673ffffffffffffffffffffffffffffffffffffffff16815260200191505060405180910390a150565b6000806000610bbb611d0f565b73ffffffffffffffffffffffffffffffffffffffff1663b44e975386866040518363ffffffff1660e01b8152600401808373ffffffffffffffffffffffffffffffffffffffff1673ffffffffffffffffffffffffffffffffffffffff1681526020018281526020019250505060206040518083038186803b158015610c3f57600080fd5b505afa158015610c53573d6000803e3d6000fd5b505050506040513d6020811015610c6957600080fd5b8101908080519060200190929190505050905060008090505b81811015610f08576000806000806000610c9a611d0f565b73ffffffffffffffffffffffffffffffffffffffff166315987eb68c8c896040518463ffffffff1660e01b8152600401808473ffffffffffffffffffffffffffffffffffffffff1673ffffffffffffffffffffffffffffffffffffffff16815260200183815260200182815260200193505050506101006040518083038186803b158015610d2757600080fd5b505afa158015610d3b573d6000803e3d6000fd5b505050506040513d610100811015610d5257600080fd5b81019080805190602001909291908051906020019092919080519060200190929190805190602001909291908051906020019092919080519060200190929190805190602001909291908051906020019092919050505050505094509450945094509450600080610dc48d8d8a6124bf565b915091506000610dd2612758565b73ffffffffffffffffffffffffffffffffffffffff1663266da16b89898987876040518663ffffffff1660e01b8152600401808681526020018581526020018481526020018381526020018281526020019550505050505060206040518083038186803b158015610e4257600080fd5b505afa158015610e56573d6000803e3d6000fd5b505050506040513d6020811015610e6c57600080fd5b810190808051906020019092919050505090506000610e8b82866127be565b905080861115610ec157610eba610eab828861286b90919063ffffffff16565b8e6128b590919063ffffffff16565b9c50610ef2565b85811115610ef157610eee610edf878361286b90919063ffffffff16565b8d6128b590919063ffffffff16565b9b505b5b5050505050505050508080600101915050610c82565b508282829250925092509250925092565b6000610f25838361293d565b905092915050565b600080600083610f3b6129da565b73ffffffffffffffffffffffffffffffffffffffff16637118d4316040518163ffffffff1660e01b815260040160006040518083038186803b158015610f8057600080fd5b505afa158015610f94573d6000803e3d6000fd5b50505050610fa06129da565b73ffffffffffffffffffffffffffffffffffffffff166342a28e21826040518263ffffffff1660e01b81526004018082815260200191505060006040518083038186803b158015610ff057600080fd5b505afa158015611004573d6000803e3d6000fd5b505050506110128686612a40565b935093509350509250925092565b6000809054906101000a900473ffffffffffffffffffffffffffffffffffffffff1673ffffffffffffffffffffffffffffffffffffffff163373ffffffffffffffffffffffffffffffffffffffff16146110c5576040517f08c379a000000000000000000000000000000000000000000000000000000000815260040180806020018281038252602f8152602001806139fd602f913960400191505060405180910390fd5b80600260006101000a81548173ffffffffffffffffffffffffffffffffffffffff021916908373ffffffffffffffffffffffffffffffffffffffff16021790555060008090505b60048054905081101561127b5760006004828154811061112857fe5b90600052602060002001549050600260009054906101000a900473ffffffffffffffffffffffffffffffffffffffff1673ffffffffffffffffffffffffffffffffffffffff1663dacb2d01826040518263ffffffff1660e01b81526004018082815260200180602001828103825260178152602001807f5265736f6c766572206d697373696e67207461726765740000000000000000008152506020019250505060206040518083038186803b1580156111e157600080fd5b505afa1580156111f5573d6000803e3d6000fd5b505050506040513d602081101561120b57600080fd5b81019080805190602001909291905050506003600083815260200190815260200160002060006101000a81548173ffffffffffffffffffffffffffffffffffffffff021916908373ffffffffffffffffffffffffffffffffffffffff16021790555050808060010191505061110c565b5050565b6000829050600061128e612bc5565b73ffffffffffffffffffffffffffffffffffffffff166332608039866040518263ffffffff1660e01b81526004018082815260200191505060206040518083038186803b1580156112de57600080fd5b505afa1580156112f2573d6000803e3d6000fd5b505050506040513d602081101561130857600080fd5b810190808051906020019092919050505073ffffffffffffffffffffffffffffffffffffffff166370a08231876040518263ffffffff1660e01b8152600401808273ffffffffffffffffffffffffffffffffffffffff1673ffffffffffffffffffffffffffffffffffffffff16815260200191505060206040518083038186803b15801561139557600080fd5b505afa1580156113a9573d6000803e3d6000fd5b505050506040513d60208110156113bf57600080fd5b81019080805190602001909291905050509050808211156113de578091505b60008311156113fd576113fa83836128b590919063ffffffff16565b91505b50949350505050565b600160009054906101000a900473ffffffffffffffffffffffffffffffffffffffff1681565b60008173ffffffffffffffffffffffffffffffffffffffff16600260009054906101000a900473ffffffffffffffffffffffffffffffffffffffff1673ffffffffffffffffffffffffffffffffffffffff161461148c5760009050611659565b60008090505b600480549050811015611653576000600482815481106114ae57fe5b906000526020600020015490506003600082815260200190815260200160002060009054906101000a900473ffffffffffffffffffffffffffffffffffffffff1673ffffffffffffffffffffffffffffffffffffffff16600260009054906101000a900473ffffffffffffffffffffffffffffffffffffffff1673ffffffffffffffffffffffffffffffffffffffff166321f8a721836040518263ffffffff1660e01b81526004018082815260200191505060206040518083038186803b15801561157857600080fd5b505afa15801561158c573d6000803e3d6000fd5b505050506040513d60208110156115a257600080fd5b810190808051906020019092919050505073ffffffffffffffffffffffffffffffffffffffff161415806116355750600073ffffffffffffffffffffffffffffffffffffffff166003600083815260200190815260200160002060009054906101000a900473ffffffffffffffffffffffffffffffffffffffff1673ffffffffffffffffffffffffffffffffffffffff16145b1561164557600092505050611659565b508080600101915050611492565b50600190505b919050565b6000809054906101000a900473ffffffffffffffffffffffffffffffffffffffff1673ffffffffffffffffffffffffffffffffffffffff163373ffffffffffffffffffffffffffffffffffffffff1614611703576040517f08c379a000000000000000000000000000000000000000000000000000000000815260040180806020018281038252602f8152602001806139fd602f913960400191505060405180910390fd5b8060058190555050565b600080611718611dd6565b90508073ffffffffffffffffffffffffffffffffffffffff163373ffffffffffffffffffffffffffffffffffffffff16148061180e57506000801b8173ffffffffffffffffffffffffffffffffffffffff166316b2213f336040518263ffffffff1660e01b8152600401808273ffffffffffffffffffffffffffffffffffffffff1673ffffffffffffffffffffffffffffffffffffffff16815260200191505060206040518083038186803b1580156117d057600080fd5b505afa1580156117e4573d6000803e3d6000fd5b505050506040513d60208110156117fa57600080fd5b810190808051906020019092919050505014155b611863576040517f08c379a00000000000000000000000000000000000000000000000000000000081526004018080602001828103825260458152602001806139b86045913960600191505060405180910390fd5b61186b612c2b565b73ffffffffffffffffffffffffffffffffffffffff1663faf431bb88886040518363ffffffff1660e01b8152600401808373ffffffffffffffffffffffffffffffffffffffff1673ffffffffffffffffffffffffffffffffffffffff1681526020018273ffffffffffffffffffffffffffffffffffffffff1673ffffffffffffffffffffffffffffffffffffffff1681526020019250505060206040518083038186803b15801561191b57600080fd5b505afa15801561192f573d6000803e3d6000fd5b505050506040513d602081101561194557600080fd5b81019080805190602001909291905050506119c8576040517f08c379a000000000000000000000000000000000000000000000000000000000815260040180806020018281038252601d8152602001807f4e6f7420617070726f76656420746f20616374206f6e20626568616c6600000081525060200191505060405180910390fd5b6119d5878686868b611e3c565b91505095945050505050565b600160009054906101000a900473ffffffffffffffffffffffffffffffffffffffff1673ffffffffffffffffffffffffffffffffffffffff163373ffffffffffffffffffffffffffffffffffffffff1614611a87576040517f08c379a00000000000000000000000000000000000000000000000000000000081526004018080602001828103825260358152602001806139626035913960400191505060405180910390fd5b7fb532073b38c83145e3e5135377a08bf9aab55bc0fd7c1179cd4fb995d2a5159c6000809054906101000a900473ffffffffffffffffffffffffffffffffffffffff16600160009054906101000a900473ffffffffffffffffffffffffffffffffffffffff16604051808373ffffffffffffffffffffffffffffffffffffffff1673ffffffffffffffffffffffffffffffffffffffff1681526020018273ffffffffffffffffffffffffffffffffffffffff1673ffffffffffffffffffffffffffffffffffffffff1681526020019250505060405180910390a1600160009054906101000a900473ffffffffffffffffffffffffffffffffffffffff166000806101000a81548173ffffffffffffffffffffffffffffffffffffffff021916908373ffffffffffffffffffffffffffffffffffffffff1602179055506000600160006101000a81548173ffffffffffffffffffffffffffffffffffffffff021916908373ffffffffffffffffffffffffffffffffffffffff160217905550565b60055481565b6000809054906101000a900473ffffffffffffffffffffffffffffffffffffffff1681565b611c3a61393e565b60008090505b600480549050811015611c875760048181548110611c5a57fe5b9060005260206000200154828260188110611c7157fe5b6020020181815250508080600101915050611c40565b5090565b60048181548110611c9857fe5b906000526020600020016000915090505481565b600080611cb9848461081a565b14611cc75760019050611cdf565b6000611cd38484610bae565b50509050600081119150505b92915050565b601881565b6000806000611cfa868686612c74565b80935081945082955050505093509350939050565b6000611d707f45786368616e67655374617465000000000000000000000000000000000000006040518060400160405280601d81526020017f4d697373696e672045786368616e676553746174652061646472657373000000815250612d56565b905090565b600080821480611d995750611d95600554836128b590919063ffffffff16565b4210155b15611da75760009050611dd1565b611dce42611dc0600554856128b590919063ffffffff16565b61286b90919063ffffffff16565b90505b919050565b6000611e377f53796e74686574697800000000000000000000000000000000000000000000006040518060400160405280601981526020017f4d697373696e672053796e746865746978206164647265737300000000000000815250612d56565b905090565b600082851415611eb4576040517f08c379a00000000000000000000000000000000000000000000000000000000081526004018080602001828103825260138152602001807f43616e27742062652073616d652073796e74680000000000000000000000000081525060200191505060405180910390fd5b60008411611f2a576040517f08c379a000000000000000000000000000000000000000000000000000000000815260040180806020018281038252600b8152602001807f5a65726f20616d6f756e7400000000000000000000000000000000000000000081525060200191505060405180910390fd5b60606002604051908082528060200260200182016040528015611f5c5781602001602082028038833980820191505090505b5090508581600081518110611f6d57fe5b6020026020010181815250508381600181518110611f8757fe5b602002602001018181525050611f9b612758565b73ffffffffffffffffffffffffffffffffffffffff16632d227674826040518263ffffffff1660e01b81526004018080602001828103825283818151815260200191508051906020019060200280838360005b83811015612009578082015181840152602081019050611fee565b505050509050019250505060206040518083038186803b15801561202c57600080fd5b505afa158015612040573d6000803e3d6000fd5b505050506040513d602081101561205657600080fd5b8101908080519060200190929190505050156120da576040517f08c379a00000000000000000000000000000000000000000000000000000000081526004018080602001828103825260208152602001807f5372632f646573742072617465207374616c65206f72206e6f7420666f756e6481525060200191505060405180910390fd5b6000806120e78989612a40565b92509250506000879050600082111561211f576121068a8a8a8661127f565b9050600081141561211e5760009450505050506124b6565b5b612127612bc5565b73ffffffffffffffffffffffffffffffffffffffff1663326080398a6040518263ffffffff1660e01b81526004018082815260200191505060206040518083038186803b15801561217757600080fd5b505afa15801561218b573d6000803e3d6000fd5b505050506040513d60208110156121a157600080fd5b810190808051906020019092919050505073ffffffffffffffffffffffffffffffffffffffff16639dc29fac8b836040518363ffffffff1660e01b8152600401808373ffffffffffffffffffffffffffffffffffffffff1673ffffffffffffffffffffffffffffffffffffffff16815260200182815260200192505050600060405180830381600087803b15801561223857600080fd5b505af115801561224c573d6000803e3d6000fd5b5050505060008061225e838c8b612c74565b809350819450829950505050612272612bc5565b73ffffffffffffffffffffffffffffffffffffffff1663326080398a6040518263ffffffff1660e01b81526004018082815260200191505060206040518083038186803b1580156122c257600080fd5b505afa1580156122d6573d6000803e3d6000fd5b505050506040513d60208110156122ec57600080fd5b810190808051906020019092919050505073ffffffffffffffffffffffffffffffffffffffff1663867904b489896040518363ffffffff1660e01b8152600401808373ffffffffffffffffffffffffffffffffffffffff1673ffffffffffffffffffffffffffffffffffffffff16815260200182815260200192505050600060405180830381600087803b15801561238357600080fd5b505af1158015612397573d6000803e3d6000fd5b5050505060008211156123af576123ae828a612e72565b5b6123b7611dd6565b73ffffffffffffffffffffffffffffffffffffffff16636c00f3108d8d868d8c8e6040518763ffffffff1660e01b8152600401808773ffffffffffffffffffffffffffffffffffffffff1673ffffffffffffffffffffffffffffffffffffffff1681526020018681526020018581526020018481526020018381526020018273ffffffffffffffffffffffffffffffffffffffff1673ffffffffffffffffffffffffffffffffffffffff1681526020019650505050505050600060405180830381600087803b15801561248957600080fd5b505af115801561249d573d6000803e3d6000fd5b505050506124af888c858c8b86613188565b5050505050505b95945050505050565b60008060008060008060006124d2611d0f565b73ffffffffffffffffffffffffffffffffffffffff166315987eb68b8b8b6040518463ffffffff1660e01b8152600401808473ffffffffffffffffffffffffffffffffffffffff1673ffffffffffffffffffffffffffffffffffffffff16815260200183815260200182815260200193505050506101006040518083038186803b15801561255f57600080fd5b505afa158015612573573d6000803e3d6000fd5b505050506040513d61010081101561258a57600080fd5b8101908080519060200190929190805190602001909291908051906020019092919080519060200190929190805190602001909291908051906020019092919080519060200190929190805190602001909291905050509750975097505050955050945060006125f8612758565b90508073ffffffffffffffffffffffffffffffffffffffff1663109e46a28785876005546040518563ffffffff1660e01b81526004018085815260200184815260200183815260200182815260200194505050505060206040518083038186803b15801561266557600080fd5b505afa158015612679573d6000803e3d6000fd5b505050506040513d602081101561268f57600080fd5b810190808051906020019092919050505097508073ffffffffffffffffffffffffffffffffffffffff1663109e46a28684876005546040518563ffffffff1660e01b81526004018085815260200184815260200183815260200182815260200194505050505060206040518083038186803b15801561270d57600080fd5b505afa158015612721573d6000803e3d6000fd5b505050506040513d602081101561273757600080fd5b81019080805190602001909291905050509650505050505050935093915050565b60006127b97f45786368616e67655261746573000000000000000000000000000000000000006040518060400160405280601d81526020017f4d697373696e672045786368616e676552617465732061646472657373000000815250612d56565b905090565b60006128636128548373__SafeDecimalMath_______________________63907af6c06040518163ffffffff1660e01b815260040160206040518083038186803b15801561280b57600080fd5b505af415801561281f573d6000803e3d6000fd5b505050506040513d602081101561283557600080fd5b810190808051906020019092919050505061286b90919063ffffffff16565b8461339d90919063ffffffff16565b905092915050565b60006128ad83836040518060400160405280601e81526020017f536166654d6174683a207375627472616374696f6e206f766572666c6f7700008152506133ca565b905092915050565b600080828401905083811015612933576040517f08c379a000000000000000000000000000000000000000000000000000000000815260040180806020018281038252601b8152602001807f536166654d6174683a206164646974696f6e206f766572666c6f77000000000081525060200191505060405180910390fd5b8091505092915050565b600061294761348a565b73ffffffffffffffffffffffffffffffffffffffff166380803fff836040518263ffffffff1660e01b81526004018082815260200191505060206040518083038186803b15801561299757600080fd5b505afa1580156129ab573d6000803e3d6000fd5b505050506040513d60208110156129c157600080fd5b8101908080519060200190929190505050905092915050565b6000612a3b7f53797374656d53746174757300000000000000000000000000000000000000006040518060400160405280601c81526020017f4d697373696e672053797374656d537461747573206164647265737300000000815250612d56565b905090565b600080600080612a50868661081a565b14612aa6576040517f08c379a0000000000000000000000000000000000000000000000000000000008152600401808060200182810382526023815260200180613a4d6023913960400191505060405180910390fd5b6000806000612ab58888610bae565b92509250925081831115612ae857612ad6828461286b90919063ffffffff16565b9550612ae38888886134f0565b612b12565b82821115612b1157612b03838361286b90919063ffffffff16565b9450612b108888876136d4565b5b5b809350612b1d611d0f565b73ffffffffffffffffffffffffffffffffffffffff1663d0d3d62a89896040518363ffffffff1660e01b8152600401808373ffffffffffffffffffffffffffffffffffffffff1673ffffffffffffffffffffffffffffffffffffffff16815260200182815260200192505050600060405180830381600087803b158015612ba357600080fd5b505af1158015612bb7573d6000803e3d6000fd5b505050505050509250925092565b6000612c267f49737375657200000000000000000000000000000000000000000000000000006040518060400160405280601681526020017f4d697373696e6720497373756572206164647265737300000000000000000000815250612d56565b905090565b6000612c6f7f44656c6567617465417070726f76616c7300000000000000000000000000000060405180606001604052806021815260200161399760219139612d56565b905090565b600080600080612c82612758565b73ffffffffffffffffffffffffffffffffffffffff1663654a60ac8789886040518463ffffffff1660e01b815260040180848152602001838152602001828152602001935050505060206040518083038186803b158015612ce257600080fd5b505afa158015612cf6573d6000803e3d6000fd5b505050506040513d6020811015612d0c57600080fd5b81019080805190602001909291905050509050612d29868661293d565b9150612d3581836127be565b9350612d4a848261286b90919063ffffffff16565b92505093509350939050565b6000806003600085815260200190815260200160002060009054906101000a900473ffffffffffffffffffffffffffffffffffffffff169050600073ffffffffffffffffffffffffffffffffffffffff168173ffffffffffffffffffffffffffffffffffffffff1614158390612e67576040517f08c379a00000000000000000000000000000000000000000000000000000000081526004018080602001828103825283818151815260200191508051906020019080838360005b83811015612e2c578082015181840152602081019050612e11565b50505050905090810190601f168015612e595780820380516001836020036101000a031916815260200191505b509250505060405180910390fd5b508091505092915050565b6000612e7c612758565b73ffffffffffffffffffffffffffffffffffffffff1663654a60ac83857f73555344000000000000000000000000000000000000000000000000000000006040518463ffffffff1660e01b815260040180848152602001838152602001828152602001935050505060206040518083038186803b158015612efc57600080fd5b505afa158015612f10573d6000803e3d6000fd5b505050506040513d6020811015612f2657600080fd5b81019080805190602001909291905050509050612f41612bc5565b73ffffffffffffffffffffffffffffffffffffffff1663326080397f73555344000000000000000000000000000000000000000000000000000000006040518263ffffffff1660e01b81526004018082815260200191505060206040518083038186803b158015612fb157600080fd5b505afa158015612fc5573d6000803e3d6000fd5b505050506040513d6020811015612fdb57600080fd5b810190808051906020019092919050505073ffffffffffffffffffffffffffffffffffffffff1663867904b461300f61348a565b73ffffffffffffffffffffffffffffffffffffffff1663eb1edd616040518163ffffffff1660e01b815260040160206040518083038186803b15801561305457600080fd5b505afa158015613068573d6000803e3d6000fd5b505050506040513d602081101561307e57600080fd5b8101908080519060200190929190505050836040518363ffffffff1660e01b8152600401808373ffffffffffffffffffffffffffffffffffffffff1673ffffffffffffffffffffffffffffffffffffffff16815260200182815260200192505050600060405180830381600087803b1580156130f957600080fd5b505af115801561310d573d6000803e3d6000fd5b5050505061311961348a565b73ffffffffffffffffffffffffffffffffffffffff166322bf55ef826040518263ffffffff1660e01b815260040180828152602001915050600060405180830381600087803b15801561316b57600080fd5b505af115801561317f573d6000803e3d6000fd5b50505050505050565b6000613192612758565b905060008173ffffffffffffffffffffffffffffffffffffffff16637a018a1e886040518263ffffffff1660e01b81526004018082815260200191505060206040518083038186803b1580156131e757600080fd5b505afa1580156131fb573d6000803e3d6000fd5b505050506040513d602081101561321157600080fd5b8101908080519060200190929190505050905060008273ffffffffffffffffffffffffffffffffffffffff16637a018a1e876040518263ffffffff1660e01b81526004018082815260200191505060206040518083038186803b15801561327757600080fd5b505afa15801561328b573d6000803e3d6000fd5b505050506040513d60208110156132a157600080fd5b810190808051906020019092919050505090506132bc611d0f565b73ffffffffffffffffffffffffffffffffffffffff16633ca9d85c8a8a8a8a8a8a428a8a6040518a63ffffffff1660e01b8152600401808a73ffffffffffffffffffffffffffffffffffffffff1673ffffffffffffffffffffffffffffffffffffffff1681526020018981526020018881526020018781526020018681526020018581526020018481526020018381526020018281526020019950505050505050505050600060405180830381600087803b15801561337a57600080fd5b505af115801561338e573d6000803e3d6000fd5b50505050505050505050505050565b6000601260ff16600a0a6133ba83856138b890919063ffffffff16565b816133c157fe5b04905092915050565b6000838311158290613477576040517f08c379a00000000000000000000000000000000000000000000000000000000081526004018080602001828103825283818151815260200191508051906020019080838360005b8381101561343c578082015181840152602081019050613421565b50505050905090810190601f1680156134695780820380516001836020036101000a031916815260200191505b509250505060405180910390fd5b5060008385039050809150509392505050565b60006134eb7f466565506f6f6c000000000000000000000000000000000000000000000000006040518060400160405280601781526020017f4d697373696e6720466565506f6f6c2061646472657373000000000000000000815250612d56565b905090565b6134f8612bc5565b73ffffffffffffffffffffffffffffffffffffffff166332608039836040518263ffffffff1660e01b81526004018082815260200191505060206040518083038186803b15801561354857600080fd5b505afa15801561355c573d6000803e3d6000fd5b505050506040513d602081101561357257600080fd5b810190808051906020019092919050505073ffffffffffffffffffffffffffffffffffffffff16639dc29fac84836040518363ffffffff1660e01b8152600401808373ffffffffffffffffffffffffffffffffffffffff1673ffffffffffffffffffffffffffffffffffffffff16815260200182815260200192505050600060405180830381600087803b15801561360957600080fd5b505af115801561361d573d6000803e3d6000fd5b50505050613629611dd6565b73ffffffffffffffffffffffffffffffffffffffff1663ace88afd8484846040518463ffffffff1660e01b8152600401808473ffffffffffffffffffffffffffffffffffffffff1673ffffffffffffffffffffffffffffffffffffffff1681526020018381526020018281526020019350505050600060405180830381600087803b1580156136b757600080fd5b505af11580156136cb573d6000803e3d6000fd5b50505050505050565b6136dc612bc5565b73ffffffffffffffffffffffffffffffffffffffff166332608039836040518263ffffffff1660e01b81526004018082815260200191505060206040518083038186803b15801561372c57600080fd5b505afa158015613740573d6000803e3d6000fd5b505050506040513d602081101561375657600080fd5b810190808051906020019092919050505073ffffffffffffffffffffffffffffffffffffffff1663867904b484836040518363ffffffff1660e01b8152600401808373ffffffffffffffffffffffffffffffffffffffff1673ffffffffffffffffffffffffffffffffffffffff16815260200182815260200192505050600060405180830381600087803b1580156137ed57600080fd5b505af1158015613801573d6000803e3d6000fd5b5050505061380d611dd6565b73ffffffffffffffffffffffffffffffffffffffff16636f01a9868484846040518463ffffffff1660e01b8152600401808473ffffffffffffffffffffffffffffffffffffffff1673ffffffffffffffffffffffffffffffffffffffff1681526020018381526020018281526020019350505050600060405180830381600087803b15801561389b57600080fd5b505af11580156138af573d6000803e3d6000fd5b50505050505050565b6000808314156138cb5760009050613938565b60008284029050828482816138dc57fe5b0414613933576040517f08c379a0000000000000000000000000000000000000000000000000000000008152600401808060200182810382526021815260200180613a2c6021913960400191505060405180910390fd5b809150505b92915050565b60405180610300016040528060189060208202803883398082019150509050509056fe596f75206d757374206265206e6f6d696e61746564206265666f726520796f752063616e20616363657074206f776e6572736869704d697373696e672044656c6567617465417070726f76616c73206164647265737345786368616e6765723a204f6e6c792073796e746865746978206f7220612073796e746820636f6e74726163742063616e20706572666f726d207468697320616374696f6e4f6e6c792074686520636f6e7472616374206f776e6572206d617920706572666f726d207468697320616374696f6e536166654d6174683a206d756c7469706c69636174696f6e206f766572666c6f7743616e6e6f7420736574746c6520647572696e672077616974696e6720706572696f64a265627a7a723158202d253703afedfc350098d2e32e6055adaf201c55f2f7649109fc16f87fc5345064736f6c63430005100032",
  "source": "pragma solidity ^0.5.16;\n\n// Inheritance\nimport \"./Owned.sol\";\nimport \"./MixinResolver.sol\";\nimport \"./interfaces/IExchanger.sol\";\n\n// Libraries\nimport \"./SafeDecimalMath.sol\";\n\n// Internal references\nimport \"./interfaces/IERC20.sol\";\nimport \"./interfaces/ISystemStatus.sol\";\nimport \"./interfaces/IExchangeState.sol\";\nimport \"./interfaces/IExchangeRates.sol\";\nimport \"./interfaces/ISynthetix.sol\";\nimport \"./interfaces/IFeePool.sol\";\nimport \"./interfaces/IDelegateApprovals.sol\";\nimport \"./interfaces/IIssuer.sol\";\n\n\n// Used to have strongly-typed access to internal mutative functions in Synthetix\ninterface ISynthetixInternal {\n    function emitSynthExchange(\n        address account,\n        bytes32 fromCurrencyKey,\n        uint fromAmount,\n        bytes32 toCurrencyKey,\n        uint toAmount,\n        address toAddress\n    ) external;\n\n    function emitExchangeReclaim(\n        address account,\n        bytes32 currencyKey,\n        uint amount\n    ) external;\n\n    function emitExchangeRebate(\n        address account,\n        bytes32 currencyKey,\n        uint amount\n    ) external;\n}\n\n\n// https://docs.synthetix.io/contracts/Exchanger\ncontract Exchanger is Owned, MixinResolver, IExchanger {\n    using SafeMath for uint;\n    using SafeDecimalMath for uint;\n\n    bytes32 private constant sUSD = \"sUSD\";\n\n    uint public waitingPeriodSecs;\n\n    /* ========== ADDRESS RESOLVER CONFIGURATION ========== */\n\n    bytes32 private constant CONTRACT_SYSTEMSTATUS = \"SystemStatus\";\n    bytes32 private constant CONTRACT_EXCHANGESTATE = \"ExchangeState\";\n    bytes32 private constant CONTRACT_EXRATES = \"ExchangeRates\";\n    bytes32 private constant CONTRACT_SYNTHETIX = \"Synthetix\";\n    bytes32 private constant CONTRACT_FEEPOOL = \"FeePool\";\n    bytes32 private constant CONTRACT_DELEGATEAPPROVALS = \"DelegateApprovals\";\n    bytes32 private constant CONTRACT_ISSUER = \"Issuer\";\n\n    bytes32[24] private addressesToCache = [\n        CONTRACT_SYSTEMSTATUS,\n        CONTRACT_EXCHANGESTATE,\n        CONTRACT_EXRATES,\n        CONTRACT_SYNTHETIX,\n        CONTRACT_FEEPOOL,\n        CONTRACT_DELEGATEAPPROVALS,\n        CONTRACT_ISSUER\n    ];\n\n    constructor(address _owner, address _resolver) public Owned(_owner) MixinResolver(_resolver, addressesToCache) {\n        waitingPeriodSecs = 3 minutes;\n    }\n\n    /* ========== VIEWS ========== */\n\n    function systemStatus() internal view returns (ISystemStatus) {\n        return ISystemStatus(requireAndGetAddress(CONTRACT_SYSTEMSTATUS, \"Missing SystemStatus address\"));\n    }\n\n    function exchangeState() internal view returns (IExchangeState) {\n        return IExchangeState(requireAndGetAddress(CONTRACT_EXCHANGESTATE, \"Missing ExchangeState address\"));\n    }\n\n    function exchangeRates() internal view returns (IExchangeRates) {\n        return IExchangeRates(requireAndGetAddress(CONTRACT_EXRATES, \"Missing ExchangeRates address\"));\n    }\n\n    function synthetix() internal view returns (ISynthetix) {\n        return ISynthetix(requireAndGetAddress(CONTRACT_SYNTHETIX, \"Missing Synthetix address\"));\n    }\n\n    function feePool() internal view returns (IFeePool) {\n        return IFeePool(requireAndGetAddress(CONTRACT_FEEPOOL, \"Missing FeePool address\"));\n    }\n\n    function delegateApprovals() internal view returns (IDelegateApprovals) {\n        return IDelegateApprovals(requireAndGetAddress(CONTRACT_DELEGATEAPPROVALS, \"Missing DelegateApprovals address\"));\n    }\n\n    function issuer() internal view returns (IIssuer) {\n        return IIssuer(requireAndGetAddress(CONTRACT_ISSUER, \"Missing Issuer address\"));\n    }\n\n    function maxSecsLeftInWaitingPeriod(address account, bytes32 currencyKey) public view returns (uint) {\n        return secsLeftInWaitingPeriodForExchange(exchangeState().getMaxTimestamp(account, currencyKey));\n    }\n\n    function settlementOwing(address account, bytes32 currencyKey)\n        public\n        view\n        returns (\n            uint reclaimAmount,\n            uint rebateAmount,\n            uint numEntries\n        )\n    {\n        // Need to sum up all reclaim and rebate amounts for the user and the currency key\n        numEntries = exchangeState().getLengthOfEntries(account, currencyKey);\n\n        // For each unsettled exchange\n        for (uint i = 0; i < numEntries; i++) {\n            // fetch the entry from storage\n            (bytes32 src, uint amount, bytes32 dest, uint amountReceived, uint exchangeFeeRate, , , ) = exchangeState()\n                .getEntryAt(account, currencyKey, i);\n\n            // determine the last round ids for src and dest pairs when period ended or latest if not over\n            (uint srcRoundIdAtPeriodEnd, uint destRoundIdAtPeriodEnd) = getRoundIdsAtPeriodEnd(account, currencyKey, i);\n\n            // given these round ids, determine what effective value they should have received\n            uint destinationAmount = exchangeRates().effectiveValueAtRound(\n                src,\n                amount,\n                dest,\n                srcRoundIdAtPeriodEnd,\n                destRoundIdAtPeriodEnd\n            );\n\n            // and deduct the fee from this amount using the exchangeFeeRate from storage\n            uint amountShouldHaveReceived = _getAmountReceivedForExchange(destinationAmount, exchangeFeeRate);\n\n            if (amountReceived > amountShouldHaveReceived) {\n                // if they received more than they should have, add to the reclaim tally\n                reclaimAmount = reclaimAmount.add(amountReceived.sub(amountShouldHaveReceived));\n            } else if (amountShouldHaveReceived > amountReceived) {\n                // if less, add to the rebate tally\n                rebateAmount = rebateAmount.add(amountShouldHaveReceived.sub(amountReceived));\n            }\n        }\n\n        return (reclaimAmount, rebateAmount, numEntries);\n    }\n\n    function hasWaitingPeriodOrSettlementOwing(address account, bytes32 currencyKey) external view returns (bool) {\n        if (maxSecsLeftInWaitingPeriod(account, currencyKey) != 0) {\n            return true;\n        }\n\n        (uint reclaimAmount, , ) = settlementOwing(account, currencyKey);\n\n        return reclaimAmount > 0;\n    }\n\n    /* ========== SETTERS ========== */\n\n    function setWaitingPeriodSecs(uint _waitingPeriodSecs) external onlyOwner {\n        waitingPeriodSecs = _waitingPeriodSecs;\n    }\n\n    function calculateAmountAfterSettlement(\n        address from,\n        bytes32 currencyKey,\n        uint amount,\n        uint refunded\n    ) public view returns (uint amountAfterSettlement) {\n        amountAfterSettlement = amount;\n\n        // balance of a synth will show an amount after settlement\n        uint balanceOfSourceAfterSettlement = IERC20(address(issuer().synths(currencyKey))).balanceOf(from);\n\n        // when there isn't enough supply (either due to reclamation settlement or because the number is too high)\n        if (amountAfterSettlement > balanceOfSourceAfterSettlement) {\n            // then the amount to exchange is reduced to their remaining supply\n            amountAfterSettlement = balanceOfSourceAfterSettlement;\n        }\n\n        if (refunded > 0) {\n            amountAfterSettlement = amountAfterSettlement.add(refunded);\n        }\n    }\n\n    /* ========== MUTATIVE FUNCTIONS ========== */\n    function exchange(\n        address from,\n        bytes32 sourceCurrencyKey,\n        uint sourceAmount,\n        bytes32 destinationCurrencyKey,\n        address destinationAddress\n    ) external onlySynthetixorSynth returns (uint amountReceived) {\n        amountReceived = _exchange(from, sourceCurrencyKey, sourceAmount, destinationCurrencyKey, destinationAddress);\n    }\n\n    function exchangeOnBehalf(\n        address exchangeForAddress,\n        address from,\n        bytes32 sourceCurrencyKey,\n        uint sourceAmount,\n        bytes32 destinationCurrencyKey\n    ) external onlySynthetixorSynth returns (uint amountReceived) {\n        require(delegateApprovals().canExchangeFor(exchangeForAddress, from), \"Not approved to act on behalf\");\n        amountReceived = _exchange(\n            exchangeForAddress,\n            sourceCurrencyKey,\n            sourceAmount,\n            destinationCurrencyKey,\n            exchangeForAddress\n        );\n    }\n\n    function _exchange(\n        address from,\n        bytes32 sourceCurrencyKey,\n        uint sourceAmount,\n        bytes32 destinationCurrencyKey,\n        address destinationAddress\n    ) internal returns (uint amountReceived) {\n        require(sourceCurrencyKey != destinationCurrencyKey, \"Can't be same synth\");\n        require(sourceAmount > 0, \"Zero amount\");\n\n        bytes32[] memory synthKeys = new bytes32[](2);\n        synthKeys[0] = sourceCurrencyKey;\n        synthKeys[1] = destinationCurrencyKey;\n        require(!exchangeRates().anyRateIsStale(synthKeys), \"Src/dest rate stale or not found\");\n\n        (, uint refunded, uint numEntriesSettled) = _internalSettle(from, sourceCurrencyKey);\n\n        uint sourceAmountAfterSettlement = sourceAmount;\n\n        // when settlement was required\n        if (numEntriesSettled > 0) {\n            // ensure the sourceAmount takes this into account\n            sourceAmountAfterSettlement = calculateAmountAfterSettlement(from, sourceCurrencyKey, sourceAmount, refunded);\n\n            // If, after settlement the user has no balance left (highly unlikely), then return to prevent\n            // emitting events of 0 and don't revert so as to ensure the settlement queue is emptied\n            if (sourceAmountAfterSettlement == 0) {\n                return 0;\n            }\n        }\n\n        // Note: We don't need to check their balance as the burn() below will do a safe subtraction which requires\n        // the subtraction to not overflow, which would happen if their balance is not sufficient.\n\n        // Burn the source amount\n        issuer().synths(sourceCurrencyKey).burn(from, sourceAmountAfterSettlement);\n\n        uint fee;\n        uint exchangeFeeRate;\n\n        (amountReceived, fee, exchangeFeeRate) = _getAmountsForExchangeMinusFees(\n            sourceAmountAfterSettlement,\n            sourceCurrencyKey,\n            destinationCurrencyKey\n        );\n\n        // Issue their new synths\n        issuer().synths(destinationCurrencyKey).issue(destinationAddress, amountReceived);\n\n        // Remit the fee if required\n        if (fee > 0) {\n            remitFee(fee, destinationCurrencyKey);\n        }\n\n        // Nothing changes as far as issuance data goes because the total value in the system hasn't changed.\n\n        // Let the DApps know there was a Synth exchange\n        ISynthetixInternal(address(synthetix())).emitSynthExchange(\n            from,\n            sourceCurrencyKey,\n            sourceAmountAfterSettlement,\n            destinationCurrencyKey,\n            amountReceived,\n            destinationAddress\n        );\n\n        // persist the exchange information for the dest key\n        appendExchange(\n            destinationAddress,\n            sourceCurrencyKey,\n            sourceAmountAfterSettlement,\n            destinationCurrencyKey,\n            amountReceived,\n            exchangeFeeRate\n        );\n    }\n\n    // Note: this function can intentionally be called by anyone on behalf of anyone else (the caller just pays the gas)\n    function settle(address from, bytes32 currencyKey)\n        external\n        synthActive(currencyKey)\n        returns (\n            uint reclaimed,\n            uint refunded,\n            uint numEntriesSettled\n        )\n    {\n        return _internalSettle(from, currencyKey);\n    }\n\n    /* ========== INTERNAL FUNCTIONS ========== */\n    function remitFee(uint fee, bytes32 currencyKey) internal {\n        // Remit the fee in sUSDs\n        uint usdFeeAmount = exchangeRates().effectiveValue(currencyKey, fee, sUSD);\n        issuer().synths(sUSD).issue(feePool().FEE_ADDRESS(), usdFeeAmount);\n        // Tell the fee pool about this.\n        feePool().recordFeePaid(usdFeeAmount);\n    }\n\n    function _internalSettle(address from, bytes32 currencyKey)\n        internal\n        returns (\n            uint reclaimed,\n            uint refunded,\n            uint numEntriesSettled\n        )\n    {\n        require(maxSecsLeftInWaitingPeriod(from, currencyKey) == 0, \"Cannot settle during waiting period\");\n\n        (uint reclaimAmount, uint rebateAmount, uint entries) = settlementOwing(from, currencyKey);\n\n        if (reclaimAmount > rebateAmount) {\n            reclaimed = reclaimAmount.sub(rebateAmount);\n            reclaim(from, currencyKey, reclaimed);\n        } else if (rebateAmount > reclaimAmount) {\n            refunded = rebateAmount.sub(reclaimAmount);\n            refund(from, currencyKey, refunded);\n        }\n\n        numEntriesSettled = entries;\n\n        // Now remove all entries, even if no reclaim and no rebate\n        exchangeState().removeEntries(from, currencyKey);\n    }\n\n    function reclaim(\n        address from,\n        bytes32 currencyKey,\n        uint amount\n    ) internal {\n        // burn amount from user\n        issuer().synths(currencyKey).burn(from, amount);\n        ISynthetixInternal(address(synthetix())).emitExchangeReclaim(from, currencyKey, amount);\n    }\n\n    function refund(\n        address from,\n        bytes32 currencyKey,\n        uint amount\n    ) internal {\n        // issue amount to user\n        issuer().synths(currencyKey).issue(from, amount);\n        ISynthetixInternal(address(synthetix())).emitExchangeRebate(from, currencyKey, amount);\n    }\n\n    function secsLeftInWaitingPeriodForExchange(uint timestamp) internal view returns (uint) {\n        if (timestamp == 0 || now >= timestamp.add(waitingPeriodSecs)) {\n            return 0;\n        }\n\n        return timestamp.add(waitingPeriodSecs).sub(now);\n    }\n\n    function feeRateForExchange(bytes32 sourceCurrencyKey, bytes32 destinationCurrencyKey)\n        external\n        view\n        returns (uint exchangeFeeRate)\n    {\n        exchangeFeeRate = _feeRateForExchange(sourceCurrencyKey, destinationCurrencyKey);\n    }\n\n    function _feeRateForExchange(\n        bytes32, // API for source in case pricing model evolves to include source rate /* sourceCurrencyKey */\n        bytes32 destinationCurrencyKey\n    ) internal view returns (uint exchangeFeeRate) {\n        exchangeFeeRate = feePool().getExchangeFeeRateForSynth(destinationCurrencyKey);\n    }\n\n    function getAmountsForExchange(\n        uint sourceAmount,\n        bytes32 sourceCurrencyKey,\n        bytes32 destinationCurrencyKey\n    )\n        external\n        view\n        returns (\n            uint amountReceived,\n            uint fee,\n            uint exchangeFeeRate\n        )\n    {\n        (amountReceived, fee, exchangeFeeRate) = _getAmountsForExchangeMinusFees(\n            sourceAmount,\n            sourceCurrencyKey,\n            destinationCurrencyKey\n        );\n    }\n\n    function _getAmountsForExchangeMinusFees(\n        uint sourceAmount,\n        bytes32 sourceCurrencyKey,\n        bytes32 destinationCurrencyKey\n    )\n        internal\n        view\n        returns (\n            uint amountReceived,\n            uint fee,\n            uint exchangeFeeRate\n        )\n    {\n        uint destinationAmount = exchangeRates().effectiveValue(sourceCurrencyKey, sourceAmount, destinationCurrencyKey);\n        exchangeFeeRate = _feeRateForExchange(sourceCurrencyKey, destinationCurrencyKey);\n        amountReceived = _getAmountReceivedForExchange(destinationAmount, exchangeFeeRate);\n        fee = destinationAmount.sub(amountReceived);\n    }\n\n    function _getAmountReceivedForExchange(uint destinationAmount, uint exchangeFeeRate)\n        internal\n        pure\n        returns (uint amountReceived)\n    {\n        amountReceived = destinationAmount.multiplyDecimal(SafeDecimalMath.unit().sub(exchangeFeeRate));\n    }\n\n    function appendExchange(\n        address account,\n        bytes32 src,\n        uint amount,\n        bytes32 dest,\n        uint amountReceived,\n        uint exchangeFeeRate\n    ) internal {\n        IExchangeRates exRates = exchangeRates();\n        uint roundIdForSrc = exRates.getCurrentRoundId(src);\n        uint roundIdForDest = exRates.getCurrentRoundId(dest);\n        exchangeState().appendExchangeEntry(\n            account,\n            src,\n            amount,\n            dest,\n            amountReceived,\n            exchangeFeeRate,\n            now,\n            roundIdForSrc,\n            roundIdForDest\n        );\n    }\n\n    function getRoundIdsAtPeriodEnd(\n        address account,\n        bytes32 currencyKey,\n        uint index\n    ) internal view returns (uint srcRoundIdAtPeriodEnd, uint destRoundIdAtPeriodEnd) {\n        (bytes32 src, , bytes32 dest, , , uint timestamp, uint roundIdForSrc, uint roundIdForDest) = exchangeState()\n            .getEntryAt(account, currencyKey, index);\n\n        IExchangeRates exRates = exchangeRates();\n        srcRoundIdAtPeriodEnd = exRates.getLastRoundIdBeforeElapsedSecs(src, roundIdForSrc, timestamp, waitingPeriodSecs);\n        destRoundIdAtPeriodEnd = exRates.getLastRoundIdBeforeElapsedSecs(dest, roundIdForDest, timestamp, waitingPeriodSecs);\n    }\n\n    // ========== MODIFIERS ==========\n\n    modifier onlySynthetixorSynth() {\n        ISynthetix _synthetix = synthetix();\n        require(\n            msg.sender == address(_synthetix) || _synthetix.synthsByAddress(msg.sender) != bytes32(0),\n            \"Exchanger: Only synthetix or a synth contract can perform this action\"\n        );\n        _;\n    }\n\n    modifier synthActive(bytes32 currencyKey) {\n        systemStatus().requireExchangeActive();\n\n        systemStatus().requireSynthActive(currencyKey);\n        _;\n    }\n}\n",
  "sourcePath": "/Users/qizhang/Development/truffle_test2/contracts/Exchanger.sol",
  "compiler": {
    "name": "solc",
    "version": "0.5.16+commit.9c3226ce.Emscripten.clang"
  },
  "schemaVersion": "3.2.1",
  "updatedAt": "2020-07-05T03:58:12.872Z",
  "devdoc": {
    "methods": {}
  },
  "userdoc": {
    "methods": {}
  }
}