{
  "contractName": "FeePoolState",
  "abi": [
    {
      "inputs": [
        {
          "internalType": "address",
          "name": "_owner",
          "type": "address"
        },
        {
          "internalType": "contract IFeePool",
          "name": "_feePool",
          "type": "address"
        }
      ],
      "payable": false,
      "stateMutability": "nonpayable",
      "type": "constructor"
    },
    {
      "anonymous": false,
      "inputs": [
        {
          "indexed": true,
          "internalType": "address",
          "name": "account",
          "type": "address"
        },
        {
          "indexed": false,
          "internalType": "uint256",
          "name": "debtRatio",
          "type": "uint256"
        },
        {
          "indexed": false,
          "internalType": "uint256",
          "name": "feePeriodCloseIndex",
          "type": "uint256"
        }
      ],
      "name": "IssuanceDebtRatioEntry",
      "type": "event"
    },
    {
      "anonymous": false,
      "inputs": [
        {
          "indexed": false,
          "internalType": "address",
          "name": "oldOwner",
          "type": "address"
        },
        {
          "indexed": false,
          "internalType": "address",
          "name": "newOwner",
          "type": "address"
        }
      ],
      "name": "OwnerChanged",
      "type": "event"
    },
    {
      "anonymous": false,
      "inputs": [
        {
          "indexed": false,
          "internalType": "address",
          "name": "newOwner",
          "type": "address"
        }
      ],
      "name": "OwnerNominated",
      "type": "event"
    },
    {
      "anonymous": false,
      "inputs": [
        {
          "indexed": false,
          "internalType": "address",
          "name": "newBeneficiary",
          "type": "address"
        }
      ],
      "name": "SelfDestructBeneficiaryUpdated",
      "type": "event"
    },
    {
      "anonymous": false,
      "inputs": [
        {
          "indexed": false,
          "internalType": "uint256",
          "name": "selfDestructDelay",
          "type": "uint256"
        }
      ],
      "name": "SelfDestructInitiated",
      "type": "event"
    },
    {
      "anonymous": false,
      "inputs": [],
      "name": "SelfDestructTerminated",
      "type": "event"
    },
    {
      "anonymous": false,
      "inputs": [
        {
          "indexed": false,
          "internalType": "address",
          "name": "beneficiary",
          "type": "address"
        }
      ],
      "name": "SelfDestructed",
      "type": "event"
    },
    {
      "constant": true,
      "inputs": [],
      "name": "FEE_PERIOD_LENGTH",
      "outputs": [
        {
          "internalType": "uint8",
          "name": "",
          "type": "uint8"
        }
      ],
      "payable": false,
      "stateMutability": "view",
      "type": "function"
    },
    {
      "constant": true,
      "inputs": [],
      "name": "SELFDESTRUCT_DELAY",
      "outputs": [
        {
          "internalType": "uint256",
          "name": "",
          "type": "uint256"
        }
      ],
      "payable": false,
      "stateMutability": "view",
      "type": "function"
    },
    {
      "constant": false,
      "inputs": [],
      "name": "acceptOwnership",
      "outputs": [],
      "payable": false,
      "stateMutability": "nonpayable",
      "type": "function"
    },
    {
      "constant": true,
      "inputs": [
        {
          "internalType": "address",
          "name": "",
          "type": "address"
        },
        {
          "internalType": "uint256",
          "name": "",
          "type": "uint256"
        }
      ],
      "name": "accountIssuanceLedger",
      "outputs": [
        {
          "internalType": "uint256",
          "name": "debtPercentage",
          "type": "uint256"
        },
        {
          "internalType": "uint256",
          "name": "debtEntryIndex",
          "type": "uint256"
        }
      ],
      "payable": false,
      "stateMutability": "view",
      "type": "function"
    },
    {
      "constant": true,
      "inputs": [],
      "name": "feePool",
      "outputs": [
        {
          "internalType": "address",
          "name": "",
          "type": "address"
        }
      ],
      "payable": false,
      "stateMutability": "view",
      "type": "function"
    },
    {
      "constant": false,
      "inputs": [],
      "name": "initiateSelfDestruct",
      "outputs": [],
      "payable": false,
      "stateMutability": "nonpayable",
      "type": "function"
    },
    {
      "constant": true,
      "inputs": [],
      "name": "initiationTime",
      "outputs": [
        {
          "internalType": "uint256",
          "name": "",
          "type": "uint256"
        }
      ],
      "payable": false,
      "stateMutability": "view",
      "type": "function"
    },
    {
      "constant": false,
      "inputs": [
        {
          "internalType": "address",
          "name": "_owner",
          "type": "address"
        }
      ],
      "name": "nominateNewOwner",
      "outputs": [],
      "payable": false,
      "stateMutability": "nonpayable",
      "type": "function"
    },
    {
      "constant": true,
      "inputs": [],
      "name": "nominatedOwner",
      "outputs": [
        {
          "internalType": "address",
          "name": "",
          "type": "address"
        }
      ],
      "payable": false,
      "stateMutability": "view",
      "type": "function"
    },
    {
      "constant": true,
      "inputs": [],
      "name": "owner",
      "outputs": [
        {
          "internalType": "address",
          "name": "",
          "type": "address"
        }
      ],
      "payable": false,
      "stateMutability": "view",
      "type": "function"
    },
    {
      "constant": false,
      "inputs": [],
      "name": "selfDestruct",
      "outputs": [],
      "payable": false,
      "stateMutability": "nonpayable",
      "type": "function"
    },
    {
      "constant": true,
      "inputs": [],
      "name": "selfDestructBeneficiary",
      "outputs": [
        {
          "internalType": "address",
          "name": "",
          "type": "address"
        }
      ],
      "payable": false,
      "stateMutability": "view",
      "type": "function"
    },
    {
      "constant": true,
      "inputs": [],
      "name": "selfDestructInitiated",
      "outputs": [
        {
          "internalType": "bool",
          "name": "",
          "type": "bool"
        }
      ],
      "payable": false,
      "stateMutability": "view",
      "type": "function"
    },
    {
      "constant": false,
      "inputs": [
        {
          "internalType": "address payable",
          "name": "_beneficiary",
          "type": "address"
        }
      ],
      "name": "setSelfDestructBeneficiary",
      "outputs": [],
      "payable": false,
      "stateMutability": "nonpayable",
      "type": "function"
    },
    {
      "constant": true,
      "inputs": [],
      "name": "setupExpiryTime",
      "outputs": [
        {
          "internalType": "uint256",
          "name": "",
          "type": "uint256"
        }
      ],
      "payable": false,
      "stateMutability": "view",
      "type": "function"
    },
    {
      "constant": false,
      "inputs": [],
      "name": "terminateSelfDestruct",
      "outputs": [],
      "payable": false,
      "stateMutability": "nonpayable",
      "type": "function"
    },
    {
      "constant": false,
      "inputs": [
        {
          "internalType": "contract IFeePool",
          "name": "_feePool",
          "type": "address"
        }
      ],
      "name": "setFeePool",
      "outputs": [],
      "payable": false,
      "stateMutability": "nonpayable",
      "type": "function"
    },
    {
      "constant": true,
      "inputs": [
        {
          "internalType": "address",
          "name": "account",
          "type": "address"
        },
        {
          "internalType": "uint256",
          "name": "index",
          "type": "uint256"
        }
      ],
      "name": "getAccountsDebtEntry",
      "outputs": [
        {
          "internalType": "uint256",
          "name": "debtPercentage",
          "type": "uint256"
        },
        {
          "internalType": "uint256",
          "name": "debtEntryIndex",
          "type": "uint256"
        }
      ],
      "payable": false,
      "stateMutability": "view",
      "type": "function"
    },
    {
      "constant": true,
      "inputs": [
        {
          "internalType": "address",
          "name": "account",
          "type": "address"
        },
        {
          "internalType": "uint256",
          "name": "closingDebtIndex",
          "type": "uint256"
        }
      ],
      "name": "applicableIssuanceData",
      "outputs": [
        {
          "internalType": "uint256",
          "name": "",
          "type": "uint256"
        },
        {
          "internalType": "uint256",
          "name": "",
          "type": "uint256"
        }
      ],
      "payable": false,
      "stateMutability": "view",
      "type": "function"
    },
    {
      "constant": false,
      "inputs": [
        {
          "internalType": "address",
          "name": "account",
          "type": "address"
        },
        {
          "internalType": "uint256",
          "name": "debtRatio",
          "type": "uint256"
        },
        {
          "internalType": "uint256",
          "name": "debtEntryIndex",
          "type": "uint256"
        },
        {
          "internalType": "uint256",
          "name": "currentPeriodStartDebtIndex",
          "type": "uint256"
        }
      ],
      "name": "appendAccountIssuanceRecord",
      "outputs": [],
      "payable": false,
      "stateMutability": "nonpayable",
      "type": "function"
    },
    {
      "constant": false,
      "inputs": [
        {
          "internalType": "address[]",
          "name": "accounts",
          "type": "address[]"
        },
        {
          "internalType": "uint256[]",
          "name": "ratios",
          "type": "uint256[]"
        },
        {
          "internalType": "uint256",
          "name": "periodToInsert",
          "type": "uint256"
        },
        {
          "internalType": "uint256",
          "name": "feePeriodCloseIndex",
          "type": "uint256"
        }
      ],
      "name": "importIssuerData",
      "outputs": [],
      "payable": false,
      "stateMutability": "nonpayable",
      "type": "function"
    }
  ],
  "bytecode": "0x608060405234801561001057600080fd5b50604051611fee380380611fee8339818101604052604081101561003357600080fd5b81019080805190602001909291908051906020019092919050505062375f0082600073ffffffffffffffffffffffffffffffffffffffff168173ffffffffffffffffffffffffffffffffffffffff1614156100f6576040517f08c379a00000000000000000000000000000000000000000000000000000000081526004018080602001828103825260198152602001807f4f776e657220616464726573732063616e6e6f7420626520300000000000000081525060200191505060405180910390fd5b806000806101000a81548173ffffffffffffffffffffffffffffffffffffffff021916908373ffffffffffffffffffffffffffffffffffffffff1602179055507fb532073b38c83145e3e5135377a08bf9aab55bc0fd7c1179cd4fb995d2a5159c600082604051808373ffffffffffffffffffffffffffffffffffffffff1673ffffffffffffffffffffffffffffffffffffffff1681526020018273ffffffffffffffffffffffffffffffffffffffff1673ffffffffffffffffffffffffffffffffffffffff1681526020019250505060405180910390a150600073ffffffffffffffffffffffffffffffffffffffff166000809054906101000a900473ffffffffffffffffffffffffffffffffffffffff1673ffffffffffffffffffffffffffffffffffffffff161415610293576040517f08c379a00000000000000000000000000000000000000000000000000000000081526004018080602001828103825260118152602001807f4f776e6572206d7573742062652073657400000000000000000000000000000081525060200191505060405180910390fd5b6000809054906101000a900473ffffffffffffffffffffffffffffffffffffffff16600360016101000a81548173ffffffffffffffffffffffffffffffffffffffff021916908373ffffffffffffffffffffffffffffffffffffffff1602179055507fd5da63a0b864b315bc04128dedbc93888c8529ee6cf47ce664dc204339228c536000809054906101000a900473ffffffffffffffffffffffffffffffffffffffff16604051808273ffffffffffffffffffffffffffffffffffffffff1673ffffffffffffffffffffffffffffffffffffffff16815260200191505060405180910390a18042016004819055505080600560006101000a81548173ffffffffffffffffffffffffffffffffffffffff021916908373ffffffffffffffffffffffffffffffffffffffff1602179055505050611c19806103d56000396000f3fe608060405234801561001057600080fd5b50600436106101375760003560e01c80638da5cb5b116100b8578063b326f84e1161007c578063b326f84e1461050b578063b8225dec14610574578063bd32aa4414610596578063c58aaae6146105a0578063cff2ddad146105ea578063d29c000a1461060e57610137565b80638da5cb5b146103ed57806394e1a448146104375780639cb8a26a14610499578063a461fc82146104a3578063ae2e933b146104c157610137565b806339a3f63f116100ff57806339a3f63f1461023057806346ba2d901461031257806353a47bb71461033057806379ba50971461037a5780637de655451461038457610137565b80631627540c1461013c57806317c70de41461018057806319db22281461019e57806320714f88146101e25780633278c96014610226575b600080fd5b61017e6004803603602081101561015257600080fd5b81019080803573ffffffffffffffffffffffffffffffffffffffff169060200190929190505050610677565b005b6101886107c3565b6040518082815260200191505060405180910390f35b6101e0600480360360208110156101b457600080fd5b81019080803573ffffffffffffffffffffffffffffffffffffffff1690602001909291905050506107c9565b005b610224600480360360208110156101f857600080fd5b81019080803573ffffffffffffffffffffffffffffffffffffffff1690602001909291905050506108b2565b005b61022e610aa1565b005b6103106004803603608081101561024657600080fd5b810190808035906020019064010000000081111561026357600080fd5b82018360208201111561027557600080fd5b8035906020019184602083028401116401000000008311171561029757600080fd5b9091929391929390803590602001906401000000008111156102b857600080fd5b8201836020820111156102ca57600080fd5b803590602001918460208302840111640100000000831117156102ec57600080fd5b90919293919293908035906020019092919080359060200190929190505050610b97565b005b61031a610ed6565b6040518082815260200191505060405180910390f35b610338610edc565b604051808273ffffffffffffffffffffffffffffffffffffffff1673ffffffffffffffffffffffffffffffffffffffff16815260200191505060405180910390f35b610382610f02565b005b6103d06004803603604081101561039a57600080fd5b81019080803573ffffffffffffffffffffffffffffffffffffffff16906020019092919080359060200190929190505050611128565b604051808381526020018281526020019250505060405180910390f35b6103f561115c565b604051808273ffffffffffffffffffffffffffffffffffffffff1673ffffffffffffffffffffffffffffffffffffffff16815260200191505060405180910390f35b6104976004803603608081101561044d57600080fd5b81019080803573ffffffffffffffffffffffffffffffffffffffff169060200190929190803590602001909291908035906020019092919080359060200190929190505050611181565b005b6104a161133f565b005b6104ab6115a2565b6040518082815260200191505060405180910390f35b6104c96115a9565b604051808273ffffffffffffffffffffffffffffffffffffffff1673ffffffffffffffffffffffffffffffffffffffff16815260200191505060405180910390f35b6105576004803603604081101561052157600080fd5b81019080803573ffffffffffffffffffffffffffffffffffffffff169060200190929190803590602001909291905050506115cf565b604051808381526020018281526020019250505060405180910390f35b61057c6116dd565b604051808215151515815260200191505060405180910390f35b61059e6116f0565b005b6105a86117f3565b604051808273ffffffffffffffffffffffffffffffffffffffff1673ffffffffffffffffffffffffffffffffffffffff16815260200191505060405180910390f35b6105f2611819565b604051808260ff1660ff16815260200191505060405180910390f35b61065a6004803603604081101561062457600080fd5b81019080803573ffffffffffffffffffffffffffffffffffffffff1690602001909291908035906020019092919050505061181e565b604051808381526020018281526020019250505060405180910390f35b6000809054906101000a900473ffffffffffffffffffffffffffffffffffffffff1673ffffffffffffffffffffffffffffffffffffffff163373ffffffffffffffffffffffffffffffffffffffff161461071c576040517f08c379a000000000000000000000000000000000000000000000000000000000815260040180806020018281038252602f815260200180611b8d602f913960400191505060405180910390fd5b80600160006101000a81548173ffffffffffffffffffffffffffffffffffffffff021916908373ffffffffffffffffffffffffffffffffffffffff1602179055507f906a1c6bd7e3091ea86693dd029a831c19049ce77f1dce2ce0bab1cacbabce2281604051808273ffffffffffffffffffffffffffffffffffffffff1673ffffffffffffffffffffffffffffffffffffffff16815260200191505060405180910390a150565b60025481565b6000809054906101000a900473ffffffffffffffffffffffffffffffffffffffff1673ffffffffffffffffffffffffffffffffffffffff163373ffffffffffffffffffffffffffffffffffffffff161461086e576040517f08c379a000000000000000000000000000000000000000000000000000000000815260040180806020018281038252602f815260200180611b8d602f913960400191505060405180910390fd5b80600560006101000a81548173ffffffffffffffffffffffffffffffffffffffff021916908373ffffffffffffffffffffffffffffffffffffffff16021790555050565b6000809054906101000a900473ffffffffffffffffffffffffffffffffffffffff1673ffffffffffffffffffffffffffffffffffffffff163373ffffffffffffffffffffffffffffffffffffffff1614610957576040517f08c379a000000000000000000000000000000000000000000000000000000000815260040180806020018281038252602f815260200180611b8d602f913960400191505060405180910390fd5b600073ffffffffffffffffffffffffffffffffffffffff168173ffffffffffffffffffffffffffffffffffffffff1614156109fa576040517f08c379a000000000000000000000000000000000000000000000000000000000815260040180806020018281038252601c8152602001807f42656e6566696369617279206d757374206e6f74206265207a65726f0000000081525060200191505060405180910390fd5b80600360016101000a81548173ffffffffffffffffffffffffffffffffffffffff021916908373ffffffffffffffffffffffffffffffffffffffff1602179055507fd5da63a0b864b315bc04128dedbc93888c8529ee6cf47ce664dc204339228c5381604051808273ffffffffffffffffffffffffffffffffffffffff1673ffffffffffffffffffffffffffffffffffffffff16815260200191505060405180910390a150565b6000809054906101000a900473ffffffffffffffffffffffffffffffffffffffff1673ffffffffffffffffffffffffffffffffffffffff163373ffffffffffffffffffffffffffffffffffffffff1614610b46576040517f08c379a000000000000000000000000000000000000000000000000000000000815260040180806020018281038252602f815260200180611b8d602f913960400191505060405180910390fd5b60006002819055506000600360006101000a81548160ff0219169083151502179055507f6adcc7125002935e0aa31697538ebbd65cfddf20431eb6ecdcfc3e238bfd082c60405160405180910390a1565b6000809054906101000a900473ffffffffffffffffffffffffffffffffffffffff1673ffffffffffffffffffffffffffffffffffffffff163373ffffffffffffffffffffffffffffffffffffffff1614610c3c576040517f08c379a000000000000000000000000000000000000000000000000000000000815260040180806020018281038252602f815260200180611b8d602f913960400191505060405180910390fd5b6004544210610c96576040517f08c379a0000000000000000000000000000000000000000000000000000000008152600401808060200182810382526029815260200180611bbc6029913960400191505060405180910390fd5b838390508686905014610d11576040517f08c379a000000000000000000000000000000000000000000000000000000000815260040180806020018281038252600f8152602001807f4c656e677468206d69736d61746368000000000000000000000000000000000081525060200191505060405180910390fd5b60008090505b86869050811015610ecd57848482818110610d2e57fe5b9050602002013560066000898985818110610d4557fe5b9050602002013573ffffffffffffffffffffffffffffffffffffffff1673ffffffffffffffffffffffffffffffffffffffff1673ffffffffffffffffffffffffffffffffffffffff1681526020019081526020016000208460068110610da757fe5b60020201600001819055508160066000898985818110610dc357fe5b9050602002013573ffffffffffffffffffffffffffffffffffffffff1673ffffffffffffffffffffffffffffffffffffffff1673ffffffffffffffffffffffffffffffffffffffff1681526020019081526020016000208460068110610e2557fe5b6002020160010181905550868682818110610e3c57fe5b9050602002013573ffffffffffffffffffffffffffffffffffffffff1673ffffffffffffffffffffffffffffffffffffffff167f3846bc3c5dca9c6ef89995aa7b28d43a5a99aa2e3ea230494da474b8d4b29aea868684818110610e9c57fe5b9050602002013584604051808381526020018281526020019250505060405180910390a28080600101915050610d17565b50505050505050565b60045481565b600160009054906101000a900473ffffffffffffffffffffffffffffffffffffffff1681565b600160009054906101000a900473ffffffffffffffffffffffffffffffffffffffff1673ffffffffffffffffffffffffffffffffffffffff163373ffffffffffffffffffffffffffffffffffffffff1614610fa8576040517f08c379a0000000000000000000000000000000000000000000000000000000008152600401808060200182810382526035815260200180611b046035913960400191505060405180910390fd5b7fb532073b38c83145e3e5135377a08bf9aab55bc0fd7c1179cd4fb995d2a5159c6000809054906101000a900473ffffffffffffffffffffffffffffffffffffffff16600160009054906101000a900473ffffffffffffffffffffffffffffffffffffffff16604051808373ffffffffffffffffffffffffffffffffffffffff1673ffffffffffffffffffffffffffffffffffffffff1681526020018273ffffffffffffffffffffffffffffffffffffffff1673ffffffffffffffffffffffffffffffffffffffff1681526020019250505060405180910390a1600160009054906101000a900473ffffffffffffffffffffffffffffffffffffffff166000806101000a81548173ffffffffffffffffffffffffffffffffffffffff021916908373ffffffffffffffffffffffffffffffffffffffff1602179055506000600160006101000a81548173ffffffffffffffffffffffffffffffffffffffff021916908373ffffffffffffffffffffffffffffffffffffffff160217905550565b6006602052816000526040600020816006811061114157fe5b60020201600091509150508060000154908060010154905082565b6000809054906101000a900473ffffffffffffffffffffffffffffffffffffffff1681565b600560009054906101000a900473ffffffffffffffffffffffffffffffffffffffff1673ffffffffffffffffffffffffffffffffffffffff163373ffffffffffffffffffffffffffffffffffffffff1614611227576040517f08c379a0000000000000000000000000000000000000000000000000000000008152600401808060200182810382526031815260200180611b5c6031913960400191505060405180910390fd5b80600660008673ffffffffffffffffffffffffffffffffffffffff1673ffffffffffffffffffffffffffffffffffffffff16815260200190815260200160002060006006811061127357fe5b6002020160010154101561128b5761128a8461193a565b5b82600660008673ffffffffffffffffffffffffffffffffffffffff1673ffffffffffffffffffffffffffffffffffffffff1681526020019081526020016000206000600681106112d757fe5b600202016000018190555081600660008673ffffffffffffffffffffffffffffffffffffffff1673ffffffffffffffffffffffffffffffffffffffff16815260200190815260200160002060006006811061132e57fe5b600202016001018190555050505050565b6000809054906101000a900473ffffffffffffffffffffffffffffffffffffffff1673ffffffffffffffffffffffffffffffffffffffff163373ffffffffffffffffffffffffffffffffffffffff16146113e4576040517f08c379a000000000000000000000000000000000000000000000000000000000815260040180806020018281038252602f815260200180611b8d602f913960400191505060405180910390fd5b600360009054906101000a900460ff16611466576040517f08c379a000000000000000000000000000000000000000000000000000000000815260040180806020018281038252601f8152602001807f53656c66204465737472756374206e6f742079657420696e697469617465640081525060200191505060405180910390fd5b426224ea0060025401106114e2576040517f08c379a000000000000000000000000000000000000000000000000000000000815260040180806020018281038252601b8152602001807f53656c662064657374727563742064656c6179206e6f74206d6574000000000081525060200191505060405180910390fd5b7f8a09e1677ced846cb537dc2b172043bd05a1a81ad7e0033a7ef8ba762df990b7600360019054906101000a900473ffffffffffffffffffffffffffffffffffffffff16604051808273ffffffffffffffffffffffffffffffffffffffff1673ffffffffffffffffffffffffffffffffffffffff16815260200191505060405180910390a1600360019054906101000a900473ffffffffffffffffffffffffffffffffffffffff1673ffffffffffffffffffffffffffffffffffffffff16ff5b6224ea0081565b600560009054906101000a900473ffffffffffffffffffffffffffffffffffffffff1681565b600080600660ff16831061162e576040517f08c379a0000000000000000000000000000000000000000000000000000000008152600401808060200182810382526023815260200180611b396023913960400191505060405180910390fd5b600660008573ffffffffffffffffffffffffffffffffffffffff1673ffffffffffffffffffffffffffffffffffffffff168152602001908152602001600020836006811061167857fe5b60020201600001549150600660008573ffffffffffffffffffffffffffffffffffffffff1673ffffffffffffffffffffffffffffffffffffffff16815260200190815260200160002083600681106116cc57fe5b600202016001015490509250929050565b600360009054906101000a900460ff1681565b6000809054906101000a900473ffffffffffffffffffffffffffffffffffffffff1673ffffffffffffffffffffffffffffffffffffffff163373ffffffffffffffffffffffffffffffffffffffff1614611795576040517f08c379a000000000000000000000000000000000000000000000000000000000815260040180806020018281038252602f815260200180611b8d602f913960400191505060405180910390fd5b426002819055506001600360006101000a81548160ff0219169083151502179055507fcbd94ca75b8dc45c9d80c77e851670e78843c0d75180cb81db3e2158228fa9a66224ea006040518082815260200191505060405180910390a1565b600360019054906101000a900473ffffffffffffffffffffffffffffffffffffffff1681565b600681565b600080611829611abc565b600660008673ffffffffffffffffffffffffffffffffffffffff1673ffffffffffffffffffffffffffffffffffffffff168152602001908152602001600020600680602002604051908101604052809291906000905b828210156118bb57838260020201604051806040016040529081600082015481526020016001820154815250508152602001906001019061187f565b50505050905060008090505b600660ff16811015611930578181600681106118df57fe5b6020020151602001518510611923578181600681106118fa57fe5b60200201516000015182826006811061190f57fe5b602002015160200151935093505050611933565b80806001019150506118c7565b50505b9250929050565b6000600260060360ff1690505b600660ff16811015611ab8576000600182019050600660008473ffffffffffffffffffffffffffffffffffffffff1673ffffffffffffffffffffffffffffffffffffffff16815260200190815260200160002082600681106119a557fe5b6002020160000154600660008573ffffffffffffffffffffffffffffffffffffffff1673ffffffffffffffffffffffffffffffffffffffff16815260200190815260200160002082600681106119f757fe5b6002020160000181905550600660008473ffffffffffffffffffffffffffffffffffffffff1673ffffffffffffffffffffffffffffffffffffffff1681526020019081526020016000208260068110611a4c57fe5b6002020160010154600660008573ffffffffffffffffffffffffffffffffffffffff1673ffffffffffffffffffffffffffffffffffffffff1681526020019081526020016000208260068110611a9e57fe5b600202016001018190555050808060019003915050611947565b5050565b6040518060c001604052806006905b611ad3611ae9565b815260200190600190039081611acb5790505090565b60405180604001604052806000815260200160008152509056fe596f75206d757374206265206e6f6d696e61746564206265666f726520796f752063616e20616363657074206f776e657273686970696e646578206578636565647320746865204645455f504552494f445f4c454e4754484f6e6c792074686520466565506f6f6c20636f6e74726163742063616e20706572666f726d207468697320616374696f6e4f6e6c792074686520636f6e7472616374206f776e6572206d617920706572666f726d207468697320616374696f6e43616e206f6e6c7920706572666f726d207468697320616374696f6e20647572696e67207365747570a265627a7a72315820af2957f148a49f074444738411eeef8c5a87e855c96a67a93f46b2f3c16627c764736f6c63430005100032",
  "source": "pragma solidity ^0.5.16;\n\n// Inheritance\nimport \"./Owned.sol\";\nimport \"./SelfDestructible.sol\";\nimport \"./LimitedSetup.sol\";\n\n// Libraries\nimport \"./SafeDecimalMath.sol\";\n\n// Internal references\nimport \"./interfaces/IFeePool.sol\";\n\n\n// https://docs.synthetix.io/contracts/FeePoolState\ncontract FeePoolState is Owned, SelfDestructible, LimitedSetup {\n    using SafeMath for uint;\n    using SafeDecimalMath for uint;\n\n    /* ========== STATE VARIABLES ========== */\n\n    uint8 public constant FEE_PERIOD_LENGTH = 6;\n\n    address public feePool;\n\n    // The IssuanceData activity that's happened in a fee period.\n    struct IssuanceData {\n        uint debtPercentage;\n        uint debtEntryIndex;\n    }\n\n    // The IssuanceData activity that's happened in a fee period.\n    mapping(address => IssuanceData[FEE_PERIOD_LENGTH]) public accountIssuanceLedger;\n\n    constructor(address _owner, IFeePool _feePool) public Owned(_owner) SelfDestructible() LimitedSetup(6 weeks) {\n        feePool = address(_feePool);\n    }\n\n    /* ========== SETTERS ========== */\n\n    /**\n     * @notice set the FeePool contract as it is the only authority to be able to call\n     * appendAccountIssuanceRecord with the onlyFeePool modifer\n     * @dev Must be set by owner when FeePool logic is upgraded\n     */\n    function setFeePool(IFeePool _feePool) external onlyOwner {\n        feePool = address(_feePool);\n    }\n\n    /* ========== VIEWS ========== */\n\n    /**\n     * @notice Get an accounts issuanceData for\n     * @param account users account\n     * @param index Index in the array to retrieve. Upto FEE_PERIOD_LENGTH\n     */\n    function getAccountsDebtEntry(address account, uint index)\n        public\n        view\n        returns (uint debtPercentage, uint debtEntryIndex)\n    {\n        require(index < FEE_PERIOD_LENGTH, \"index exceeds the FEE_PERIOD_LENGTH\");\n\n        debtPercentage = accountIssuanceLedger[account][index].debtPercentage;\n        debtEntryIndex = accountIssuanceLedger[account][index].debtEntryIndex;\n    }\n\n    /**\n     * @notice Find the oldest debtEntryIndex for the corresponding closingDebtIndex\n     * @param account users account\n     * @param closingDebtIndex the last periods debt index on close\n     */\n    function applicableIssuanceData(address account, uint closingDebtIndex) external view returns (uint, uint) {\n        IssuanceData[FEE_PERIOD_LENGTH] memory issuanceData = accountIssuanceLedger[account];\n\n        // We want to use the user's debtEntryIndex at when the period closed\n        // Find the oldest debtEntryIndex for the corresponding closingDebtIndex\n        for (uint i = 0; i < FEE_PERIOD_LENGTH; i++) {\n            if (closingDebtIndex >= issuanceData[i].debtEntryIndex) {\n                return (issuanceData[i].debtPercentage, issuanceData[i].debtEntryIndex);\n            }\n        }\n    }\n\n    /* ========== MUTATIVE FUNCTIONS ========== */\n\n    /**\n     * @notice Logs an accounts issuance data in the current fee period which is then stored historically\n     * @param account Message.Senders account address\n     * @param debtRatio Debt of this account as a percentage of the global debt.\n     * @param debtEntryIndex The index in the global debt ledger. synthetix.synthetixState().issuanceData(account)\n     * @param currentPeriodStartDebtIndex The startingDebtIndex of the current fee period\n     * @dev onlyFeePool to call me on synthetix.issue() & synthetix.burn() calls to store the locked SNX\n     * per fee period so we know to allocate the correct proportions of fees and rewards per period\n      accountIssuanceLedger[account][0] has the latest locked amount for the current period. This can be update as many time\n      accountIssuanceLedger[account][1-2] has the last locked amount for a previous period they minted or burned\n     */\n    function appendAccountIssuanceRecord(\n        address account,\n        uint debtRatio,\n        uint debtEntryIndex,\n        uint currentPeriodStartDebtIndex\n    ) external onlyFeePool {\n        // Is the current debtEntryIndex within this fee period\n        if (accountIssuanceLedger[account][0].debtEntryIndex < currentPeriodStartDebtIndex) {\n            // If its older then shift the previous IssuanceData entries periods down to make room for the new one.\n            issuanceDataIndexOrder(account);\n        }\n\n        // Always store the latest IssuanceData entry at [0]\n        accountIssuanceLedger[account][0].debtPercentage = debtRatio;\n        accountIssuanceLedger[account][0].debtEntryIndex = debtEntryIndex;\n    }\n\n    /**\n     * @notice Pushes down the entire array of debt ratios per fee period\n     */\n    function issuanceDataIndexOrder(address account) private {\n        for (uint i = FEE_PERIOD_LENGTH - 2; i < FEE_PERIOD_LENGTH; i--) {\n            uint next = i + 1;\n            accountIssuanceLedger[account][next].debtPercentage = accountIssuanceLedger[account][i].debtPercentage;\n            accountIssuanceLedger[account][next].debtEntryIndex = accountIssuanceLedger[account][i].debtEntryIndex;\n        }\n    }\n\n    /**\n     * @notice Import issuer data from synthetixState.issuerData on FeePeriodClose() block #\n     * @dev Only callable by the contract owner, and only for 6 weeks after deployment.\n     * @param accounts Array of issuing addresses\n     * @param ratios Array of debt ratios\n     * @param periodToInsert The Fee Period to insert the historical records into\n     * @param feePeriodCloseIndex An accounts debtEntryIndex is valid when within the fee peroid,\n     * since the input ratio will be an average of the pervious periods it just needs to be\n     * > recentFeePeriods[periodToInsert].startingDebtIndex\n     * < recentFeePeriods[periodToInsert - 1].startingDebtIndex\n     */\n    function importIssuerData(\n        address[] calldata accounts,\n        uint[] calldata ratios,\n        uint periodToInsert,\n        uint feePeriodCloseIndex\n    ) external onlyOwner onlyDuringSetup {\n        require(accounts.length == ratios.length, \"Length mismatch\");\n\n        for (uint i = 0; i < accounts.length; i++) {\n            accountIssuanceLedger[accounts[i]][periodToInsert].debtPercentage = ratios[i];\n            accountIssuanceLedger[accounts[i]][periodToInsert].debtEntryIndex = feePeriodCloseIndex;\n            emit IssuanceDebtRatioEntry(accounts[i], ratios[i], feePeriodCloseIndex);\n        }\n    }\n\n    /* ========== MODIFIERS ========== */\n\n    modifier onlyFeePool {\n        require(msg.sender == address(feePool), \"Only the FeePool contract can perform this action\");\n        _;\n    }\n\n    /* ========== Events ========== */\n    event IssuanceDebtRatioEntry(address indexed account, uint debtRatio, uint feePeriodCloseIndex);\n}\n",
  "sourcePath": "/Users/qizhang/Development/truffle_test2/contracts/FeePoolState.sol",
  "compiler": {
    "name": "solc",
    "version": "0.5.16+commit.9c3226ce.Emscripten.clang"
  },
  "schemaVersion": "3.2.1",
  "updatedAt": "2020-07-05T03:58:12.945Z",
  "devdoc": {
    "methods": {
      "appendAccountIssuanceRecord(address,uint256,uint256,uint256)": {
        "details": "onlyFeePool to call me on synthetix.issue() & synthetix.burn() calls to store the locked SNX per fee period so we know to allocate the correct proportions of fees and rewards per period accountIssuanceLedger[account][0] has the latest locked amount for the current period. This can be update as many time accountIssuanceLedger[account][1-2] has the last locked amount for a previous period they minted or burned",
        "params": {
          "account": "Message.Senders account address",
          "currentPeriodStartDebtIndex": "The startingDebtIndex of the current fee period",
          "debtEntryIndex": "The index in the global debt ledger. synthetix.synthetixState().issuanceData(account)",
          "debtRatio": "Debt of this account as a percentage of the global debt."
        }
      },
      "applicableIssuanceData(address,uint256)": {
        "params": {
          "account": "users account",
          "closingDebtIndex": "the last periods debt index on close"
        }
      },
      "getAccountsDebtEntry(address,uint256)": {
        "params": {
          "account": "users account",
          "index": "Index in the array to retrieve. Upto FEE_PERIOD_LENGTH"
        }
      },
      "importIssuerData(address[],uint256[],uint256,uint256)": {
        "details": "Only callable by the contract owner, and only for 6 weeks after deployment.",
        "params": {
          "accounts": "Array of issuing addresses",
          "feePeriodCloseIndex": "An accounts debtEntryIndex is valid when within the fee peroid, since the input ratio will be an average of the pervious periods it just needs to be > recentFeePeriods[periodToInsert].startingDebtIndex < recentFeePeriods[periodToInsert - 1].startingDebtIndex",
          "periodToInsert": "The Fee Period to insert the historical records into",
          "ratios": "Array of debt ratios"
        }
      },
      "initiateSelfDestruct()": {
        "details": "Only the contract owner may call this."
      },
      "selfDestruct()": {
        "details": "Only the contract owner may call this."
      },
      "setFeePool(address)": {
        "details": "Must be set by owner when FeePool logic is upgraded"
      },
      "setSelfDestructBeneficiary(address)": {
        "details": "Only the contract owner may call this. The provided beneficiary must be non-null.",
        "params": {
          "_beneficiary": "The address to pay any eth contained in this contract to upon self-destruction."
        }
      },
      "terminateSelfDestruct()": {
        "details": "Only the contract owner may call this."
      }
    }
  },
  "userdoc": {
    "methods": {
      "appendAccountIssuanceRecord(address,uint256,uint256,uint256)": {
        "notice": "Logs an accounts issuance data in the current fee period which is then stored historically"
      },
      "applicableIssuanceData(address,uint256)": {
        "notice": "Find the oldest debtEntryIndex for the corresponding closingDebtIndex"
      },
      "getAccountsDebtEntry(address,uint256)": {
        "notice": "Get an accounts issuanceData for"
      },
      "importIssuerData(address[],uint256[],uint256,uint256)": {
        "notice": "Import issuer data from synthetixState.issuerData on FeePeriodClose() block #"
      },
      "initiateSelfDestruct()": {
        "notice": "Begin the self-destruction counter of this contract. Once the delay has elapsed, the contract may be self-destructed."
      },
      "selfDestruct()": {
        "notice": "If the self-destruction delay has elapsed, destroy this contract and remit any ether it owns to the beneficiary address."
      },
      "setFeePool(address)": {
        "notice": "set the FeePool contract as it is the only authority to be able to call appendAccountIssuanceRecord with the onlyFeePool modifer"
      },
      "setSelfDestructBeneficiary(address)": {
        "notice": "Set the beneficiary address of this contract."
      },
      "terminateSelfDestruct()": {
        "notice": "Terminate and reset the self-destruction timer."
      }
    }
  }
}