{
  "contractName": "FeePool",
  "abi": [
    {
      "inputs": [
        {
          "internalType": "address payable",
          "name": "_proxy",
          "type": "address"
        },
        {
          "internalType": "address",
          "name": "_owner",
          "type": "address"
        },
        {
          "internalType": "address",
          "name": "_resolver",
          "type": "address"
        }
      ],
      "payable": false,
      "stateMutability": "nonpayable",
      "type": "constructor"
    },
    {
      "anonymous": false,
      "inputs": [
        {
          "indexed": false,
          "internalType": "uint256",
          "name": "feePeriodId",
          "type": "uint256"
        }
      ],
      "name": "FeePeriodClosed",
      "type": "event"
    },
    {
      "anonymous": false,
      "inputs": [
        {
          "indexed": false,
          "internalType": "uint256",
          "name": "newFeePeriodDuration",
          "type": "uint256"
        }
      ],
      "name": "FeePeriodDurationUpdated",
      "type": "event"
    },
    {
      "anonymous": false,
      "inputs": [
        {
          "indexed": false,
          "internalType": "address",
          "name": "account",
          "type": "address"
        },
        {
          "indexed": false,
          "internalType": "uint256",
          "name": "sUSDAmount",
          "type": "uint256"
        },
        {
          "indexed": false,
          "internalType": "uint256",
          "name": "snxRewards",
          "type": "uint256"
        }
      ],
      "name": "FeesClaimed",
      "type": "event"
    },
    {
      "anonymous": false,
      "inputs": [
        {
          "indexed": true,
          "internalType": "address",
          "name": "account",
          "type": "address"
        },
        {
          "indexed": false,
          "internalType": "uint256",
          "name": "debtRatio",
          "type": "uint256"
        },
        {
          "indexed": false,
          "internalType": "uint256",
          "name": "debtEntryIndex",
          "type": "uint256"
        },
        {
          "indexed": false,
          "internalType": "uint256",
          "name": "feePeriodStartingDebtIndex",
          "type": "uint256"
        }
      ],
      "name": "IssuanceDebtRatioEntry",
      "type": "event"
    },
    {
      "anonymous": false,
      "inputs": [
        {
          "indexed": false,
          "internalType": "address",
          "name": "oldOwner",
          "type": "address"
        },
        {
          "indexed": false,
          "internalType": "address",
          "name": "newOwner",
          "type": "address"
        }
      ],
      "name": "OwnerChanged",
      "type": "event"
    },
    {
      "anonymous": false,
      "inputs": [
        {
          "indexed": false,
          "internalType": "address",
          "name": "newOwner",
          "type": "address"
        }
      ],
      "name": "OwnerNominated",
      "type": "event"
    },
    {
      "anonymous": false,
      "inputs": [
        {
          "indexed": false,
          "internalType": "address",
          "name": "proxyAddress",
          "type": "address"
        }
      ],
      "name": "ProxyUpdated",
      "type": "event"
    },
    {
      "anonymous": false,
      "inputs": [
        {
          "indexed": false,
          "internalType": "address",
          "name": "newBeneficiary",
          "type": "address"
        }
      ],
      "name": "SelfDestructBeneficiaryUpdated",
      "type": "event"
    },
    {
      "anonymous": false,
      "inputs": [
        {
          "indexed": false,
          "internalType": "uint256",
          "name": "selfDestructDelay",
          "type": "uint256"
        }
      ],
      "name": "SelfDestructInitiated",
      "type": "event"
    },
    {
      "anonymous": false,
      "inputs": [],
      "name": "SelfDestructTerminated",
      "type": "event"
    },
    {
      "anonymous": false,
      "inputs": [
        {
          "indexed": false,
          "internalType": "address",
          "name": "beneficiary",
          "type": "address"
        }
      ],
      "name": "SelfDestructed",
      "type": "event"
    },
    {
      "anonymous": false,
      "inputs": [
        {
          "indexed": false,
          "internalType": "bytes32",
          "name": "synthKey",
          "type": "bytes32"
        },
        {
          "indexed": false,
          "internalType": "uint256",
          "name": "newExchangeFeeRate",
          "type": "uint256"
        }
      ],
      "name": "SynthExchangeFeeUpdated",
      "type": "event"
    },
    {
      "constant": true,
      "inputs": [],
      "name": "FEE_ADDRESS",
      "outputs": [
        {
          "internalType": "address",
          "name": "",
          "type": "address"
        }
      ],
      "payable": false,
      "stateMutability": "view",
      "type": "function"
    },
    {
      "constant": true,
      "inputs": [],
      "name": "FEE_PERIOD_LENGTH",
      "outputs": [
        {
          "internalType": "uint8",
          "name": "",
          "type": "uint8"
        }
      ],
      "payable": false,
      "stateMutability": "view",
      "type": "function"
    },
    {
      "constant": true,
      "inputs": [],
      "name": "MAX_ADDRESSES_FROM_RESOLVER",
      "outputs": [
        {
          "internalType": "uint256",
          "name": "",
          "type": "uint256"
        }
      ],
      "payable": false,
      "stateMutability": "view",
      "type": "function"
    },
    {
      "constant": true,
      "inputs": [],
      "name": "MAX_EXCHANGE_FEE_RATE",
      "outputs": [
        {
          "internalType": "uint256",
          "name": "",
          "type": "uint256"
        }
      ],
      "payable": false,
      "stateMutability": "view",
      "type": "function"
    },
    {
      "constant": true,
      "inputs": [],
      "name": "MAX_FEE_PERIOD_DURATION",
      "outputs": [
        {
          "internalType": "uint256",
          "name": "",
          "type": "uint256"
        }
      ],
      "payable": false,
      "stateMutability": "view",
      "type": "function"
    },
    {
      "constant": true,
      "inputs": [],
      "name": "MIN_FEE_PERIOD_DURATION",
      "outputs": [
        {
          "internalType": "uint256",
          "name": "",
          "type": "uint256"
        }
      ],
      "payable": false,
      "stateMutability": "view",
      "type": "function"
    },
    {
      "constant": true,
      "inputs": [],
      "name": "SELFDESTRUCT_DELAY",
      "outputs": [
        {
          "internalType": "uint256",
          "name": "",
          "type": "uint256"
        }
      ],
      "payable": false,
      "stateMutability": "view",
      "type": "function"
    },
    {
      "constant": false,
      "inputs": [],
      "name": "acceptOwnership",
      "outputs": [],
      "payable": false,
      "stateMutability": "nonpayable",
      "type": "function"
    },
    {
      "constant": true,
      "inputs": [],
      "name": "feePeriodDuration",
      "outputs": [
        {
          "internalType": "uint256",
          "name": "",
          "type": "uint256"
        }
      ],
      "payable": false,
      "stateMutability": "view",
      "type": "function"
    },
    {
      "constant": true,
      "inputs": [],
      "name": "getResolverAddressesRequired",
      "outputs": [
        {
          "internalType": "bytes32[24]",
          "name": "addressesRequired",
          "type": "bytes32[24]"
        }
      ],
      "payable": false,
      "stateMutability": "view",
      "type": "function"
    },
    {
      "constant": false,
      "inputs": [],
      "name": "initiateSelfDestruct",
      "outputs": [],
      "payable": false,
      "stateMutability": "nonpayable",
      "type": "function"
    },
    {
      "constant": true,
      "inputs": [],
      "name": "initiationTime",
      "outputs": [
        {
          "internalType": "uint256",
          "name": "",
          "type": "uint256"
        }
      ],
      "payable": false,
      "stateMutability": "view",
      "type": "function"
    },
    {
      "constant": true,
      "inputs": [],
      "name": "integrationProxy",
      "outputs": [
        {
          "internalType": "contract Proxy",
          "name": "",
          "type": "address"
        }
      ],
      "payable": false,
      "stateMutability": "view",
      "type": "function"
    },
    {
      "constant": true,
      "inputs": [
        {
          "internalType": "contract AddressResolver",
          "name": "_resolver",
          "type": "address"
        }
      ],
      "name": "isResolverCached",
      "outputs": [
        {
          "internalType": "bool",
          "name": "",
          "type": "bool"
        }
      ],
      "payable": false,
      "stateMutability": "view",
      "type": "function"
    },
    {
      "constant": true,
      "inputs": [],
      "name": "messageSender",
      "outputs": [
        {
          "internalType": "address",
          "name": "",
          "type": "address"
        }
      ],
      "payable": false,
      "stateMutability": "view",
      "type": "function"
    },
    {
      "constant": false,
      "inputs": [
        {
          "internalType": "address",
          "name": "_owner",
          "type": "address"
        }
      ],
      "name": "nominateNewOwner",
      "outputs": [],
      "payable": false,
      "stateMutability": "nonpayable",
      "type": "function"
    },
    {
      "constant": true,
      "inputs": [],
      "name": "nominatedOwner",
      "outputs": [
        {
          "internalType": "address",
          "name": "",
          "type": "address"
        }
      ],
      "payable": false,
      "stateMutability": "view",
      "type": "function"
    },
    {
      "constant": true,
      "inputs": [],
      "name": "owner",
      "outputs": [
        {
          "internalType": "address",
          "name": "",
          "type": "address"
        }
      ],
      "payable": false,
      "stateMutability": "view",
      "type": "function"
    },
    {
      "constant": true,
      "inputs": [],
      "name": "proxy",
      "outputs": [
        {
          "internalType": "contract Proxy",
          "name": "",
          "type": "address"
        }
      ],
      "payable": false,
      "stateMutability": "view",
      "type": "function"
    },
    {
      "constant": true,
      "inputs": [],
      "name": "resolver",
      "outputs": [
        {
          "internalType": "contract AddressResolver",
          "name": "",
          "type": "address"
        }
      ],
      "payable": false,
      "stateMutability": "view",
      "type": "function"
    },
    {
      "constant": true,
      "inputs": [
        {
          "internalType": "uint256",
          "name": "",
          "type": "uint256"
        }
      ],
      "name": "resolverAddressesRequired",
      "outputs": [
        {
          "internalType": "bytes32",
          "name": "",
          "type": "bytes32"
        }
      ],
      "payable": false,
      "stateMutability": "view",
      "type": "function"
    },
    {
      "constant": false,
      "inputs": [],
      "name": "selfDestruct",
      "outputs": [],
      "payable": false,
      "stateMutability": "nonpayable",
      "type": "function"
    },
    {
      "constant": true,
      "inputs": [],
      "name": "selfDestructBeneficiary",
      "outputs": [
        {
          "internalType": "address",
          "name": "",
          "type": "address"
        }
      ],
      "payable": false,
      "stateMutability": "view",
      "type": "function"
    },
    {
      "constant": true,
      "inputs": [],
      "name": "selfDestructInitiated",
      "outputs": [
        {
          "internalType": "bool",
          "name": "",
          "type": "bool"
        }
      ],
      "payable": false,
      "stateMutability": "view",
      "type": "function"
    },
    {
      "constant": false,
      "inputs": [
        {
          "internalType": "address payable",
          "name": "_integrationProxy",
          "type": "address"
        }
      ],
      "name": "setIntegrationProxy",
      "outputs": [],
      "payable": false,
      "stateMutability": "nonpayable",
      "type": "function"
    },
    {
      "constant": false,
      "inputs": [
        {
          "internalType": "address",
          "name": "sender",
          "type": "address"
        }
      ],
      "name": "setMessageSender",
      "outputs": [],
      "payable": false,
      "stateMutability": "nonpayable",
      "type": "function"
    },
    {
      "constant": false,
      "inputs": [
        {
          "internalType": "address payable",
          "name": "_proxy",
          "type": "address"
        }
      ],
      "name": "setProxy",
      "outputs": [],
      "payable": false,
      "stateMutability": "nonpayable",
      "type": "function"
    },
    {
      "constant": false,
      "inputs": [
        {
          "internalType": "contract AddressResolver",
          "name": "_resolver",
          "type": "address"
        }
      ],
      "name": "setResolverAndSyncCache",
      "outputs": [],
      "payable": false,
      "stateMutability": "nonpayable",
      "type": "function"
    },
    {
      "constant": false,
      "inputs": [
        {
          "internalType": "address payable",
          "name": "_beneficiary",
          "type": "address"
        }
      ],
      "name": "setSelfDestructBeneficiary",
      "outputs": [],
      "payable": false,
      "stateMutability": "nonpayable",
      "type": "function"
    },
    {
      "constant": true,
      "inputs": [],
      "name": "setupExpiryTime",
      "outputs": [
        {
          "internalType": "uint256",
          "name": "",
          "type": "uint256"
        }
      ],
      "payable": false,
      "stateMutability": "view",
      "type": "function"
    },
    {
      "constant": true,
      "inputs": [],
      "name": "targetThreshold",
      "outputs": [
        {
          "internalType": "uint256",
          "name": "",
          "type": "uint256"
        }
      ],
      "payable": false,
      "stateMutability": "view",
      "type": "function"
    },
    {
      "constant": false,
      "inputs": [],
      "name": "terminateSelfDestruct",
      "outputs": [],
      "payable": false,
      "stateMutability": "nonpayable",
      "type": "function"
    },
    {
      "constant": true,
      "inputs": [
        {
          "internalType": "uint256",
          "name": "index",
          "type": "uint256"
        }
      ],
      "name": "recentFeePeriods",
      "outputs": [
        {
          "internalType": "uint64",
          "name": "feePeriodId",
          "type": "uint64"
        },
        {
          "internalType": "uint64",
          "name": "startingDebtIndex",
          "type": "uint64"
        },
        {
          "internalType": "uint64",
          "name": "startTime",
          "type": "uint64"
        },
        {
          "internalType": "uint256",
          "name": "feesToDistribute",
          "type": "uint256"
        },
        {
          "internalType": "uint256",
          "name": "feesClaimed",
          "type": "uint256"
        },
        {
          "internalType": "uint256",
          "name": "rewardsToDistribute",
          "type": "uint256"
        },
        {
          "internalType": "uint256",
          "name": "rewardsClaimed",
          "type": "uint256"
        }
      ],
      "payable": false,
      "stateMutability": "view",
      "type": "function"
    },
    {
      "constant": false,
      "inputs": [
        {
          "internalType": "address",
          "name": "account",
          "type": "address"
        },
        {
          "internalType": "uint256",
          "name": "debtRatio",
          "type": "uint256"
        },
        {
          "internalType": "uint256",
          "name": "debtEntryIndex",
          "type": "uint256"
        }
      ],
      "name": "appendAccountIssuanceRecord",
      "outputs": [],
      "payable": false,
      "stateMutability": "nonpayable",
      "type": "function"
    },
    {
      "constant": false,
      "inputs": [
        {
          "internalType": "uint256",
          "name": "_feePeriodDuration",
          "type": "uint256"
        }
      ],
      "name": "setFeePeriodDuration",
      "outputs": [],
      "payable": false,
      "stateMutability": "nonpayable",
      "type": "function"
    },
    {
      "constant": false,
      "inputs": [
        {
          "internalType": "uint256",
          "name": "_percent",
          "type": "uint256"
        }
      ],
      "name": "setTargetThreshold",
      "outputs": [],
      "payable": false,
      "stateMutability": "nonpayable",
      "type": "function"
    },
    {
      "constant": false,
      "inputs": [
        {
          "internalType": "uint256",
          "name": "amount",
          "type": "uint256"
        }
      ],
      "name": "recordFeePaid",
      "outputs": [],
      "payable": false,
      "stateMutability": "nonpayable",
      "type": "function"
    },
    {
      "constant": false,
      "inputs": [
        {
          "internalType": "uint256",
          "name": "amount",
          "type": "uint256"
        }
      ],
      "name": "setRewardsToDistribute",
      "outputs": [],
      "payable": false,
      "stateMutability": "nonpayable",
      "type": "function"
    },
    {
      "constant": false,
      "inputs": [],
      "name": "closeCurrentFeePeriod",
      "outputs": [],
      "payable": false,
      "stateMutability": "nonpayable",
      "type": "function"
    },
    {
      "constant": false,
      "inputs": [],
      "name": "claimFees",
      "outputs": [
        {
          "internalType": "bool",
          "name": "",
          "type": "bool"
        }
      ],
      "payable": false,
      "stateMutability": "nonpayable",
      "type": "function"
    },
    {
      "constant": false,
      "inputs": [
        {
          "internalType": "address",
          "name": "claimingForAddress",
          "type": "address"
        }
      ],
      "name": "claimOnBehalf",
      "outputs": [
        {
          "internalType": "bool",
          "name": "",
          "type": "bool"
        }
      ],
      "payable": false,
      "stateMutability": "nonpayable",
      "type": "function"
    },
    {
      "constant": false,
      "inputs": [
        {
          "internalType": "uint256",
          "name": "feePeriodIndex",
          "type": "uint256"
        },
        {
          "internalType": "uint256",
          "name": "feePeriodId",
          "type": "uint256"
        },
        {
          "internalType": "uint256",
          "name": "startingDebtIndex",
          "type": "uint256"
        },
        {
          "internalType": "uint256",
          "name": "startTime",
          "type": "uint256"
        },
        {
          "internalType": "uint256",
          "name": "feesToDistribute",
          "type": "uint256"
        },
        {
          "internalType": "uint256",
          "name": "feesClaimed",
          "type": "uint256"
        },
        {
          "internalType": "uint256",
          "name": "rewardsToDistribute",
          "type": "uint256"
        },
        {
          "internalType": "uint256",
          "name": "rewardsClaimed",
          "type": "uint256"
        }
      ],
      "name": "importFeePeriod",
      "outputs": [],
      "payable": false,
      "stateMutability": "nonpayable",
      "type": "function"
    },
    {
      "constant": false,
      "inputs": [
        {
          "internalType": "bytes32[]",
          "name": "synthKeys",
          "type": "bytes32[]"
        },
        {
          "internalType": "uint256[]",
          "name": "exchangeFeeRates",
          "type": "uint256[]"
        }
      ],
      "name": "setExchangeFeeRateForSynths",
      "outputs": [],
      "payable": false,
      "stateMutability": "nonpayable",
      "type": "function"
    },
    {
      "constant": true,
      "inputs": [
        {
          "internalType": "bytes32",
          "name": "synthKey",
          "type": "bytes32"
        }
      ],
      "name": "getExchangeFeeRateForSynth",
      "outputs": [
        {
          "internalType": "uint256",
          "name": "exchangeFeeRate",
          "type": "uint256"
        }
      ],
      "payable": false,
      "stateMutability": "view",
      "type": "function"
    },
    {
      "constant": false,
      "inputs": [
        {
          "internalType": "address",
          "name": "account",
          "type": "address"
        },
        {
          "internalType": "uint256",
          "name": "quantity",
          "type": "uint256"
        }
      ],
      "name": "appendVestingEntry",
      "outputs": [],
      "payable": false,
      "stateMutability": "nonpayable",
      "type": "function"
    },
    {
      "constant": true,
      "inputs": [],
      "name": "totalFeesAvailable",
      "outputs": [
        {
          "internalType": "uint256",
          "name": "",
          "type": "uint256"
        }
      ],
      "payable": false,
      "stateMutability": "view",
      "type": "function"
    },
    {
      "constant": true,
      "inputs": [],
      "name": "totalRewardsAvailable",
      "outputs": [
        {
          "internalType": "uint256",
          "name": "",
          "type": "uint256"
        }
      ],
      "payable": false,
      "stateMutability": "view",
      "type": "function"
    },
    {
      "constant": true,
      "inputs": [
        {
          "internalType": "address",
          "name": "account",
          "type": "address"
        }
      ],
      "name": "feesAvailable",
      "outputs": [
        {
          "internalType": "uint256",
          "name": "",
          "type": "uint256"
        },
        {
          "internalType": "uint256",
          "name": "",
          "type": "uint256"
        }
      ],
      "payable": false,
      "stateMutability": "view",
      "type": "function"
    },
    {
      "constant": true,
      "inputs": [
        {
          "internalType": "address",
          "name": "account",
          "type": "address"
        }
      ],
      "name": "isFeesClaimable",
      "outputs": [
        {
          "internalType": "bool",
          "name": "feesClaimable",
          "type": "bool"
        }
      ],
      "payable": false,
      "stateMutability": "view",
      "type": "function"
    },
    {
      "constant": true,
      "inputs": [
        {
          "internalType": "address",
          "name": "account",
          "type": "address"
        }
      ],
      "name": "feesByPeriod",
      "outputs": [
        {
          "internalType": "uint256[2][2]",
          "name": "results",
          "type": "uint256[2][2]"
        }
      ],
      "payable": false,
      "stateMutability": "view",
      "type": "function"
    },
    {
      "constant": true,
      "inputs": [
        {
          "internalType": "address",
          "name": "account",
          "type": "address"
        },
        {
          "internalType": "uint256",
          "name": "period",
          "type": "uint256"
        }
      ],
      "name": "effectiveDebtRatioForPeriod",
      "outputs": [
        {
          "internalType": "uint256",
          "name": "",
          "type": "uint256"
        }
      ],
      "payable": false,
      "stateMutability": "view",
      "type": "function"
    },
    {
      "constant": true,
      "inputs": [
        {
          "internalType": "address",
          "name": "_claimingAddress",
          "type": "address"
        }
      ],
      "name": "getLastFeeWithdrawal",
      "outputs": [
        {
          "internalType": "uint256",
          "name": "",
          "type": "uint256"
        }
      ],
      "payable": false,
      "stateMutability": "view",
      "type": "function"
    },
    {
      "constant": true,
      "inputs": [],
      "name": "getPenaltyThresholdRatio",
      "outputs": [
        {
          "internalType": "uint256",
          "name": "",
          "type": "uint256"
        }
      ],
      "payable": false,
      "stateMutability": "view",
      "type": "function"
    }
  ],
  "bytecode": "0x60806040527f7355534400000000000000000000000000000000000000000000000000000000600b5562093a80601755606473__SafeDecimalMath_______________________63907af6c06040518163ffffffff1660e01b815260040160206040518083038186803b1580156200007657600080fd5b505af41580156200008b573d6000803e3d6000fd5b505050506040513d6020811015620000a257600080fd5b810190808051906020019092919050505060010281620000be57fe5b046018556040518061014001604052807f53797374656d537461747573000000000000000000000000000000000000000081526020017f53796e746865746978000000000000000000000000000000000000000000000081526020017f466565506f6f6c5374617465000000000000000000000000000000000000000081526020017f466565506f6f6c457465726e616c53746f72616765000000000000000000000081526020017f45786368616e676572000000000000000000000000000000000000000000000081526020017f497373756572000000000000000000000000000000000000000000000000000081526020017f53796e746865746978537461746500000000000000000000000000000000000081526020017f526577617264457363726f77000000000000000000000000000000000000000081526020017f44656c6567617465417070726f76616c7300000000000000000000000000000081526020017f52657761726473446973747269627574696f6e00000000000000000000000000815250601990600a6200025a929190620009d1565b503480156200026857600080fd5b5060405162007e9838038062007e98833981810160405260608110156200028e57600080fd5b81019080805190602001909291908051906020019092919080519060200190929190505050806019601880602002604051908101604052809291908260188015620002ef576020028201915b815481526020019060010190808311620002da575b5050505050621baf808585600073ffffffffffffffffffffffffffffffffffffffff168173ffffffffffffffffffffffffffffffffffffffff1614156200039e576040517f08c379a00000000000000000000000000000000000000000000000000000000081526004018080602001828103825260198152602001807f4f776e657220616464726573732063616e6e6f7420626520300000000000000081525060200191505060405180910390fd5b806000806101000a81548173ffffffffffffffffffffffffffffffffffffffff021916908373ffffffffffffffffffffffffffffffffffffffff1602179055507fb532073b38c83145e3e5135377a08bf9aab55bc0fd7c1179cd4fb995d2a5159c600082604051808373ffffffffffffffffffffffffffffffffffffffff1673ffffffffffffffffffffffffffffffffffffffff1681526020018273ffffffffffffffffffffffffffffffffffffffff1673ffffffffffffffffffffffffffffffffffffffff1681526020019250505060405180910390a150600073ffffffffffffffffffffffffffffffffffffffff166000809054906101000a900473ffffffffffffffffffffffffffffffffffffffff1673ffffffffffffffffffffffffffffffffffffffff1614156200053c576040517f08c379a00000000000000000000000000000000000000000000000000000000081526004018080602001828103825260118152602001807f4f776e6572206d7573742062652073657400000000000000000000000000000081525060200191505060405180910390fd5b80600260006101000a81548173ffffffffffffffffffffffffffffffffffffffff021916908373ffffffffffffffffffffffffffffffffffffffff1602179055507ffc80377ca9c49cc11ae6982f390a42db976d5530af7c43889264b13fbbd7c57e81604051808273ffffffffffffffffffffffffffffffffffffffff1673ffffffffffffffffffffffffffffffffffffffff16815260200191505060405180910390a150600073ffffffffffffffffffffffffffffffffffffffff166000809054906101000a900473ffffffffffffffffffffffffffffffffffffffff1673ffffffffffffffffffffffffffffffffffffffff161415620006a6576040517f08c379a00000000000000000000000000000000000000000000000000000000081526004018080602001828103825260118152602001807f4f776e6572206d7573742062652073657400000000000000000000000000000081525060200191505060405180910390fd5b6000809054906101000a900473ffffffffffffffffffffffffffffffffffffffff16600660016101000a81548173ffffffffffffffffffffffffffffffffffffffff021916908373ffffffffffffffffffffffffffffffffffffffff1602179055507fd5da63a0b864b315bc04128dedbc93888c8529ee6cf47ce664dc204339228c536000809054906101000a900473ffffffffffffffffffffffffffffffffffffffff16604051808273ffffffffffffffffffffffffffffffffffffffff1673ffffffffffffffffffffffffffffffffffffffff16815260200191505060405180910390a180420160078190555050600073ffffffffffffffffffffffffffffffffffffffff166000809054906101000a900473ffffffffffffffffffffffffffffffffffffffff1673ffffffffffffffffffffffffffffffffffffffff1614156200085b576040517f08c379a00000000000000000000000000000000000000000000000000000000081526004018080602001828103825260118152602001807f4f776e6572206d7573742062652073657400000000000000000000000000000081525060200191505060405180910390fd5b60008090505b6018811015620008de576000801b8282601881106200087c57fe5b602002015114620008ca57600a8282601881106200089657fe5b60200201519080600181540180825580915050906001820390600052602060002001600090919290919091505550620008d0565b620008de565b808060010191505062000861565b5081600860006101000a81548173ffffffffffffffffffffffffffffffffffffffff021916908373ffffffffffffffffffffffffffffffffffffffff16021790555050506001620009366000620009a460201b60201c565b60000160006101000a81548167ffffffffffffffff021916908367ffffffffffffffff16021790555042620009726000620009a460201b60201c565b60000160106101000a81548167ffffffffffffffff021916908367ffffffffffffffff16021790555050505062000a3e565b6000600c600260ff16836016540181620009ba57fe5b0660028110620009c657fe5b600502019050919050565b826018810192821562000a03579160200282015b8281111562000a02578251825591602001919060010190620009e5565b5b50905062000a12919062000a16565b5090565b62000a3b91905b8082111562000a3757600081600090555060010162000a1d565b5090565b90565b61744a8062000a4e6000396000f3fe608060405234801561001057600080fd5b50600436106103275760003560e01c806380803fff116101b8578063bd32aa4411610104578063e0e6393d116100a2578063ec5568891161007c578063ec55688914610f45578063f344da6714610f8f578063fb1b4c7e14610fad578063fd1f498d14610fcb57610327565b8063e0e6393d14610ebf578063e3235c9114610edd578063eb1edd6114610efb57610327565b8063cff2ddad116100de578063cff2ddad14610e11578063d294f09314610e35578063d62ae39914610e57578063d67bdd2514610e7557610327565b8063bd32aa4414610d7b578063c58aaae614610d85578063c6c9d82814610dcf57610327565b8063a461fc8211610171578063b10090b81161014b578063b10090b814610c52578063b5ddb9c714610cc7578063b8225dec14610d15578063bc67f83214610d3757610327565b8063a461fc8214610bd0578063ab49848c14610bee578063ac83419314610c3457610327565b806380803fff14610a545780638664527414610a965780638da5cb5b14610aee57806397107d6d14610b385780639cb8a26a14610b7c5780639cbdaeb614610b8657610327565b80633278c9601161027757806353a47bb711610230578063631e14441161020a578063631e1444146109745780636466f45e146109d05780636de813f114610a2c57806379ba509714610a4a57610327565b806353a47bb7146108b0578063569249d0146108fa57806359a2f19f1461091857610327565b80633278c960146106ef57806333140016146106f95780633be99e6f1461079c5780633ebc457a146107e05780633fcd2240146107ea57806346ba2d901461089257610327565b80631627540c116102e457806322425fa4116102be57806322425fa4146105a757806322bf55ef146105c557806328a1170d146105f35780632cce0e54146106c157610327565b80631627540c1461050157806317c70de41461054557806320714f881461056357610327565b806304c49f2c1461032c57806304f3bcec1461035a57806307ea50cd146103a45780630813071c146103fc5780630de586151461045e578063131b0ae7146104bd575b600080fd5b6103586004803603602081101561034257600080fd5b8101908080359060200190929190505050610ff9565b005b61036261132f565b604051808273ffffffffffffffffffffffffffffffffffffffff1673ffffffffffffffffffffffffffffffffffffffff16815260200191505060405180910390f35b6103e6600480360360208110156103ba57600080fd5b81019080803573ffffffffffffffffffffffffffffffffffffffff169060200190929190505050611355565b6040518082815260200191505060405180910390f35b6104486004803603604081101561041257600080fd5b81019080803573ffffffffffffffffffffffffffffffffffffffff1690602001909291908035906020019092919050505061146e565b6040518082815260200191505060405180910390f35b6104a06004803603602081101561047457600080fd5b81019080803573ffffffffffffffffffffffffffffffffffffffff1690602001909291905050506116d5565b604051808381526020018281526020019250505060405180910390f35b6104ff600480360360208110156104d357600080fd5b81019080803573ffffffffffffffffffffffffffffffffffffffff169060200190929190505050611790565b005b6105436004803603602081101561051757600080fd5b81019080803573ffffffffffffffffffffffffffffffffffffffff169060200190929190505050611879565b005b61054d6119c5565b6040518082815260200191505060405180910390f35b6105a56004803603602081101561057957600080fd5b81019080803573ffffffffffffffffffffffffffffffffffffffff1690602001909291905050506119cb565b005b6105af611bba565b6040518082815260200191505060405180910390f35b6105f1600480360360208110156105db57600080fd5b8101908080359060200190929190505050611bc0565b005b6106bf6004803603604081101561060957600080fd5b810190808035906020019064010000000081111561062657600080fd5b82018360208201111561063857600080fd5b8035906020019184602083028401116401000000008311171561065a57600080fd5b90919293919293908035906020019064010000000081111561067b57600080fd5b82018360208201111561068d57600080fd5b803590602001918460208302840111640100000000831117156106af57600080fd5b9091929391929390505050611d57565b005b6106ed600480360360208110156106d757600080fd5b81019080803590602001909291905050506121d2565b005b6106f7612527565b005b61073b6004803603602081101561070f57600080fd5b81019080803573ffffffffffffffffffffffffffffffffffffffff16906020019092919050505061261d565b604051808260026000925b8184101561078c5782846020020151600260200280838360005b8381101561077b578082015181840152602081019050610760565b505050509050019260010192610746565b9250505091505060405180910390f35b6107de600480360360208110156107b257600080fd5b81019080803573ffffffffffffffffffffffffffffffffffffffff169060200190929190505050612997565b005b6107e8612bf6565b005b6108166004803603602081101561080057600080fd5b810190808035906020019092919050505061301d565b604051808867ffffffffffffffff1667ffffffffffffffff1681526020018767ffffffffffffffff1667ffffffffffffffff1681526020018667ffffffffffffffff1667ffffffffffffffff16815260200185815260200184815260200183815260200182815260200197505050505050505060405180910390f35b61089a613141565b6040518082815260200191505060405180910390f35b6108b8613147565b604051808273ffffffffffffffffffffffffffffffffffffffff1673ffffffffffffffffffffffffffffffffffffffff16815260200191505060405180910390f35b61090261316d565b6040518082815260200191505060405180910390f35b61095a6004803603602081101561092e57600080fd5b81019080803573ffffffffffffffffffffffffffffffffffffffff1690602001909291905050506131de565b604051808215151515815260200191505060405180910390f35b6109b66004803603602081101561098a57600080fd5b81019080803573ffffffffffffffffffffffffffffffffffffffff1690602001909291905050506131f3565b604051808215151515815260200191505060405180910390f35b610a12600480360360208110156109e657600080fd5b81019080803573ffffffffffffffffffffffffffffffffffffffff169060200190929190505050613425565b604051808215151515815260200191505060405180910390f35b610a34613770565b6040518082815260200191505060405180910390f35b610a526137e1565b005b610a8060048036036020811015610a6a57600080fd5b8101908080359060200190929190505050613a07565b6040518082815260200191505060405180910390f35b610aec60048036036060811015610aac57600080fd5b81019080803573ffffffffffffffffffffffffffffffffffffffff1690602001909291908035906020019092919080359060200190929190505050613af1565b005b610af6613cb6565b604051808273ffffffffffffffffffffffffffffffffffffffff1673ffffffffffffffffffffffffffffffffffffffff16815260200191505060405180910390f35b610b7a60048036036020811015610b4e57600080fd5b81019080803573ffffffffffffffffffffffffffffffffffffffff169060200190929190505050613cdb565b005b610b84613e27565b005b610b8e61408a565b604051808273ffffffffffffffffffffffffffffffffffffffff1673ffffffffffffffffffffffffffffffffffffffff16815260200191505060405180910390f35b610bd86140b0565b6040518082815260200191505060405180910390f35b610bf66140b7565b6040518082601860200280838360005b83811015610c21578082015181840152602081019050610c06565b5050505090500191505060405180910390f35b610c3c614110565b6040518082815260200191505060405180910390f35b610cc56004803603610100811015610c6957600080fd5b810190808035906020019092919080359060200190929190803590602001909291908035906020019092919080359060200190929190803590602001909291908035906020019092919080359060200190929190505050614248565b005b610d1360048036036040811015610cdd57600080fd5b81019080803573ffffffffffffffffffffffffffffffffffffffff1690602001909291908035906020019092919050505061471e565b005b610d1d614b20565b604051808215151515815260200191505060405180910390f35b610d7960048036036020811015610d4d57600080fd5b81019080803573ffffffffffffffffffffffffffffffffffffffff169060200190929190505050614b33565b005b610d83614c92565b005b610d8d614d95565b604051808273ffffffffffffffffffffffffffffffffffffffff1673ffffffffffffffffffffffffffffffffffffffff16815260200191505060405180910390f35b610dfb60048036036020811015610de557600080fd5b8101908080359060200190929190505050614dbb565b6040518082815260200191505060405180910390f35b610e19614ddc565b604051808260ff1660ff16815260200191505060405180910390f35b610e3d614de1565b604051808215151515815260200191505060405180910390f35b610e5f614fc5565b6040518082815260200191505060405180910390f35b610e7d614fcc565b604051808273ffffffffffffffffffffffffffffffffffffffff1673ffffffffffffffffffffffffffffffffffffffff16815260200191505060405180910390f35b610ec7614ff2565b6040518082815260200191505060405180910390f35b610ee5614ff8565b6040518082815260200191505060405180910390f35b610f03614ffd565b604051808273ffffffffffffffffffffffffffffffffffffffff1673ffffffffffffffffffffffffffffffffffffffff16815260200191505060405180910390f35b610f4d615015565b604051808273ffffffffffffffffffffffffffffffffffffffff1673ffffffffffffffffffffffffffffffffffffffff16815260200191505060405180910390f35b610f9761503b565b6040518082815260200191505060405180910390f35b610fb5615042565b6040518082815260200191505060405180910390f35b610ff760048036036020811015610fe157600080fd5b810190808035906020019092919050505061504e565b005b600260009054906101000a900473ffffffffffffffffffffffffffffffffffffffff1673ffffffffffffffffffffffffffffffffffffffff163373ffffffffffffffffffffffffffffffffffffffff16141580156110a55750600360009054906101000a900473ffffffffffffffffffffffffffffffffffffffff1673ffffffffffffffffffffffffffffffffffffffff163373ffffffffffffffffffffffffffffffffffffffff1614155b80156110ff57503373ffffffffffffffffffffffffffffffffffffffff16600460009054906101000a900473ffffffffffffffffffffffffffffffffffffffff1673ffffffffffffffffffffffffffffffffffffffff1614155b156111465733600460006101000a81548173ffffffffffffffffffffffffffffffffffffffff021916908373ffffffffffffffffffffffffffffffffffffffff1602179055505b6000809054906101000a900473ffffffffffffffffffffffffffffffffffffffff1673ffffffffffffffffffffffffffffffffffffffff16600460009054906101000a900473ffffffffffffffffffffffffffffffffffffffff1673ffffffffffffffffffffffffffffffffffffffff161461122a576040517f08c379a00000000000000000000000000000000000000000000000000000000081526004018080602001828103825260138152602001807f4f776e6572206f6e6c792066756e6374696f6e0000000000000000000000000081525060200191505060405180910390fd5b620151808110156112a3576040517f08c379a000000000000000000000000000000000000000000000000000000000815260040180806020018281038252601f8152602001807f76616c7565203c204d494e5f4645455f504552494f445f4455524154494f4e0081525060200191505060405180910390fd5b624f1a0081111561131c576040517f08c379a000000000000000000000000000000000000000000000000000000000815260040180806020018281038252601f8152602001807f76616c7565203e204d41585f4645455f504552494f445f4455524154494f4e0081525060200191505060405180910390fd5b8060178190555061132c81615188565b50565b600860009054906101000a900473ffffffffffffffffffffffffffffffffffffffff1681565b600061135f6152e8565b73ffffffffffffffffffffffffffffffffffffffff1663bdc963d87f6c6173745f6665655f7769746864726177616c0000000000000000000000000084604051602001808381526020018273ffffffffffffffffffffffffffffffffffffffff1673ffffffffffffffffffffffffffffffffffffffff1660601b815260140192505050604051602081830303815290604052805190602001206040518263ffffffff1660e01b81526004018082815260200191505060206040518083038186803b15801561142c57600080fd5b505afa158015611440573d6000803e3d6000fd5b505050506040513d602081101561145657600080fd5b81019080805190602001909291905050509050919050565b6000808214156114e6576040517f08c379a00000000000000000000000000000000000000000000000000000000081526004018080602001828103825260208152602001807f43757272656e7420706572696f64206973206e6f7420636c6f7365642079657481525060200191505060405180910390fd5b600260ff16821061155f576040517f08c379a000000000000000000000000000000000000000000000000000000000815260040180806020018281038252601d8152602001807f4578636565647320746865204645455f504552494f445f4c454e47544800000081525060200191505060405180910390fd5b600061156d60018403615331565b60000160089054906101000a900467ffffffffffffffff1667ffffffffffffffff16141561159e57600090506116cf565b60006115e160016115b160018603615331565b60000160089054906101000a900467ffffffffffffffff1667ffffffffffffffff1661535c90919063ffffffff16565b90506000806115ee6153a6565b73ffffffffffffffffffffffffffffffffffffffff1663d29c000a87856040518363ffffffff1660e01b8152600401808373ffffffffffffffffffffffffffffffffffffffff1673ffffffffffffffffffffffffffffffffffffffff16815260200182815260200192505050604080518083038186803b15801561167157600080fd5b505afa158015611685573d6000803e3d6000fd5b505050506040513d604081101561169b57600080fd5b81019080805190602001909291908051906020019092919050505080925081935050506116c983838361540c565b93505050505b92915050565b6000806116e061712c565b6116e98461261d565b9050600080905060008090506000600190505b600260ff168110156117815761173c84826002811061171757fe5b602002015160006002811061172857fe5b60200201518461556490919063ffffffff16565b925061177284826002811061174d57fe5b602002015160016002811061175e57fe5b60200201518361556490919063ffffffff16565b915080806001019150506116fc565b50818194509450505050915091565b6000809054906101000a900473ffffffffffffffffffffffffffffffffffffffff1673ffffffffffffffffffffffffffffffffffffffff163373ffffffffffffffffffffffffffffffffffffffff1614611835576040517f08c379a000000000000000000000000000000000000000000000000000000000815260040180806020018281038252602f81526020018061730c602f913960400191505060405180910390fd5b80600360006101000a81548173ffffffffffffffffffffffffffffffffffffffff021916908373ffffffffffffffffffffffffffffffffffffffff16021790555050565b6000809054906101000a900473ffffffffffffffffffffffffffffffffffffffff1673ffffffffffffffffffffffffffffffffffffffff163373ffffffffffffffffffffffffffffffffffffffff161461191e576040517f08c379a000000000000000000000000000000000000000000000000000000000815260040180806020018281038252602f81526020018061730c602f913960400191505060405180910390fd5b80600160006101000a81548173ffffffffffffffffffffffffffffffffffffffff021916908373ffffffffffffffffffffffffffffffffffffffff1602179055507f906a1c6bd7e3091ea86693dd029a831c19049ce77f1dce2ce0bab1cacbabce2281604051808273ffffffffffffffffffffffffffffffffffffffff1673ffffffffffffffffffffffffffffffffffffffff16815260200191505060405180910390a150565b60055481565b6000809054906101000a900473ffffffffffffffffffffffffffffffffffffffff1673ffffffffffffffffffffffffffffffffffffffff163373ffffffffffffffffffffffffffffffffffffffff1614611a70576040517f08c379a000000000000000000000000000000000000000000000000000000000815260040180806020018281038252602f81526020018061730c602f913960400191505060405180910390fd5b600073ffffffffffffffffffffffffffffffffffffffff168173ffffffffffffffffffffffffffffffffffffffff161415611b13576040517f08c379a000000000000000000000000000000000000000000000000000000000815260040180806020018281038252601c8152602001807f42656e6566696369617279206d757374206e6f74206265207a65726f0000000081525060200191505060405180910390fd5b80600660016101000a81548173ffffffffffffffffffffffffffffffffffffffff021916908373ffffffffffffffffffffffffffffffffffffffff1602179055507fd5da63a0b864b315bc04128dedbc93888c8529ee6cf47ce664dc204339228c5381604051808273ffffffffffffffffffffffffffffffffffffffff1673ffffffffffffffffffffffffffffffffffffffff16815260200191505060405180910390a150565b60175481565b6000611bca6155ec565b73ffffffffffffffffffffffffffffffffffffffff163373ffffffffffffffffffffffffffffffffffffffff1614905060008060001b611c08615652565b73ffffffffffffffffffffffffffffffffffffffff166316b2213f336040518263ffffffff1660e01b8152600401808273ffffffffffffffffffffffffffffffffffffffff1673ffffffffffffffffffffffffffffffffffffffff16815260200191505060206040518083038186803b158015611c8457600080fd5b505afa158015611c98573d6000803e3d6000fd5b505050506040513d6020811015611cae57600080fd5b8101908080519060200190929190505050141590508180611ccc5750805b611d21576040517f08c379a00000000000000000000000000000000000000000000000000000000081526004018080602001828103825260218152602001806173d06021913960400191505060405180910390fd5b611d4183611d2f6000615331565b6001015461556490919063ffffffff16565b611d4b6000615331565b60010181905550505050565b600260009054906101000a900473ffffffffffffffffffffffffffffffffffffffff1673ffffffffffffffffffffffffffffffffffffffff163373ffffffffffffffffffffffffffffffffffffffff1614158015611e035750600360009054906101000a900473ffffffffffffffffffffffffffffffffffffffff1673ffffffffffffffffffffffffffffffffffffffff163373ffffffffffffffffffffffffffffffffffffffff1614155b8015611e5d57503373ffffffffffffffffffffffffffffffffffffffff16600460009054906101000a900473ffffffffffffffffffffffffffffffffffffffff1673ffffffffffffffffffffffffffffffffffffffff1614155b15611ea45733600460006101000a81548173ffffffffffffffffffffffffffffffffffffffff021916908373ffffffffffffffffffffffffffffffffffffffff1602179055505b6000809054906101000a900473ffffffffffffffffffffffffffffffffffffffff1673ffffffffffffffffffffffffffffffffffffffff16600460009054906101000a900473ffffffffffffffffffffffffffffffffffffffff1673ffffffffffffffffffffffffffffffffffffffff1614611f88576040517f08c379a00000000000000000000000000000000000000000000000000000000081526004018080602001828103825260138152602001807f4f776e6572206f6e6c792066756e6374696f6e0000000000000000000000000081525060200191505060405180910390fd5b818190508484905014612003576040517f08c379a00000000000000000000000000000000000000000000000000000000081526004018080602001828103825260188152602001807f4172726179206c656e6774687320646f6e74206d61746368000000000000000081525060200191505060405180910390fd5b60008090505b848490508110156121cb5767016345785d8a000083838381811061202957fe5b9050602002013511156120a4576040517f08c379a000000000000000000000000000000000000000000000000000000000815260040180806020018281038252601e8152602001807f4d41585f45584348414e47455f4645455f52415445206578636565646564000081525060200191505060405180910390fd5b6120ac6152e8565b73ffffffffffffffffffffffffffffffffffffffff16633562fd207f73796e74685f65786368616e67655f6665655f726174650000000000000000008787858181106120f457fe5b9050602002013560405160200180838152602001828152602001925050506040516020818303038152906040528051906020012085858581811061213457fe5b905060200201356040518363ffffffff1660e01b81526004018083815260200182815260200192505050600060405180830381600087803b15801561217857600080fd5b505af115801561218c573d6000803e3d6000fd5b505050506121be85858381811061219f57fe5b905060200201358484848181106121b257fe5b905060200201356156b8565b8080600101915050612009565b5050505050565b600260009054906101000a900473ffffffffffffffffffffffffffffffffffffffff1673ffffffffffffffffffffffffffffffffffffffff163373ffffffffffffffffffffffffffffffffffffffff161415801561227e5750600360009054906101000a900473ffffffffffffffffffffffffffffffffffffffff1673ffffffffffffffffffffffffffffffffffffffff163373ffffffffffffffffffffffffffffffffffffffff1614155b80156122d857503373ffffffffffffffffffffffffffffffffffffffff16600460009054906101000a900473ffffffffffffffffffffffffffffffffffffffff1673ffffffffffffffffffffffffffffffffffffffff1614155b1561231f5733600460006101000a81548173ffffffffffffffffffffffffffffffffffffffff021916908373ffffffffffffffffffffffffffffffffffffffff1602179055505b6000809054906101000a900473ffffffffffffffffffffffffffffffffffffffff1673ffffffffffffffffffffffffffffffffffffffff16600460009054906101000a900473ffffffffffffffffffffffffffffffffffffffff1673ffffffffffffffffffffffffffffffffffffffff1614612403576040517f08c379a00000000000000000000000000000000000000000000000000000000081526004018080602001828103825260138152602001807f4f776e6572206f6e6c792066756e6374696f6e0000000000000000000000000081525060200191505060405180910390fd5b603281111561247a576040517f08c379a00000000000000000000000000000000000000000000000000000000081526004018080602001828103825260128152602001807f5468726573686f6c6420746f6f2068696768000000000000000000000000000081525060200191505060405180910390fd5b61251e606461251073__SafeDecimalMath_______________________63907af6c06040518163ffffffff1660e01b815260040160206040518083038186803b1580156124c657600080fd5b505af41580156124da573d6000803e3d6000fd5b505050506040513d60208110156124f057600080fd5b81019080805190602001909291905050508461582190919063ffffffff16565b6158a790919063ffffffff16565b60188190555050565b6000809054906101000a900473ffffffffffffffffffffffffffffffffffffffff1673ffffffffffffffffffffffffffffffffffffffff163373ffffffffffffffffffffffffffffffffffffffff16146125cc576040517f08c379a000000000000000000000000000000000000000000000000000000000815260040180806020018281038252602f81526020018061730c602f913960400191505060405180910390fd5b60006005819055506000600660006101000a81548160ff0219169083151502179055507f6adcc7125002935e0aa31697538ebbd65cfddf20431eb6ecdcfc3e238bfd082c60405160405180910390a1565b61262561712c565b60008060006126326153a6565b90508073ffffffffffffffffffffffffffffffffffffffff1663b326f84e8660006040518363ffffffff1660e01b8152600401808373ffffffffffffffffffffffffffffffffffffffff1673ffffffffffffffffffffffffffffffffffffffff16815260200182815260200192505050604080518083038186803b1580156126b957600080fd5b505afa1580156126cd573d6000803e3d6000fd5b505050506040513d60408110156126e357600080fd5b81019080805190602001909291908051906020019092919050505080935081945050506000821480156127165750600083145b1561272f5761272361712c565b80945050505050612992565b60008061273e600086866158f1565b8092508193505050818660006002811061275457fe5b602002015160006002811061276557fe5b602002018181525050808660006002811061277c57fe5b602002015160016002811061278d57fe5b60200201818152505060006127a188611355565b90506000600160020360ff1690505b600081111561298a57600060018203905060006127cc82615331565b60000160089054906101000a900467ffffffffffffffff1667ffffffffffffffff169050600081118015612829575061280483615331565b60000160009054906101000a900467ffffffffffffffff1667ffffffffffffffff1684105b1561297a57600061284460018361535c90919063ffffffff16565b90508773ffffffffffffffffffffffffffffffffffffffff1663d29c000a8d836040518363ffffffff1660e01b8152600401808373ffffffffffffffffffffffffffffffffffffffff1673ffffffffffffffffffffffffffffffffffffffff16815260200182815260200192505050604080518083038186803b1580156128ca57600080fd5b505afa1580156128de573d6000803e3d6000fd5b505050506040513d60408110156128f457600080fd5b810190808051906020019092919080519060200190929190505050809a50819b505050612922848b8b6158f1565b8097508198505050868b856002811061293757fe5b602002015160006002811061294857fe5b602002018181525050858b856002811061295e57fe5b602002015160016002811061296f57fe5b602002018181525050505b50508080600190039150506127b0565b505050505050505b919050565b6000809054906101000a900473ffffffffffffffffffffffffffffffffffffffff1673ffffffffffffffffffffffffffffffffffffffff163373ffffffffffffffffffffffffffffffffffffffff1614612a3c576040517f08c379a000000000000000000000000000000000000000000000000000000000815260040180806020018281038252602f81526020018061730c602f913960400191505060405180910390fd5b80600860006101000a81548173ffffffffffffffffffffffffffffffffffffffff021916908373ffffffffffffffffffffffffffffffffffffffff16021790555060008090505b600a80549050811015612bf2576000600a8281548110612a9f57fe5b90600052602060002001549050600860009054906101000a900473ffffffffffffffffffffffffffffffffffffffff1673ffffffffffffffffffffffffffffffffffffffff1663dacb2d01826040518263ffffffff1660e01b81526004018082815260200180602001828103825260178152602001807f5265736f6c766572206d697373696e67207461726765740000000000000000008152506020019250505060206040518083038186803b158015612b5857600080fd5b505afa158015612b6c573d6000803e3d6000fd5b505050506040513d6020811015612b8257600080fd5b81019080805190602001909291905050506009600083815260200190815260200160002060006101000a81548173ffffffffffffffffffffffffffffffffffffffff021916908373ffffffffffffffffffffffffffffffffffffffff160217905550508080600101915050612a83565b5050565b612bfe6159d9565b73ffffffffffffffffffffffffffffffffffffffff16637c3125416040518163ffffffff1660e01b815260040160006040518083038186803b158015612c4357600080fd5b505afa158015612c57573d6000803e3d6000fd5b505050506017544203612c6a6000615331565b60000160109054906101000a900467ffffffffffffffff1667ffffffffffffffff161115612d00576040517f08c379a000000000000000000000000000000000000000000000000000000000815260040180806020018281038252601d8152602001807f546f6f206561726c7920746f20636c6f73652066656520706572696f6400000081525060200191505060405180910390fd5b6000612d116002800360ff16615331565b90506000612d25600160020360ff16615331565b9050612d588260010154612d4a8360020154846001015461535c90919063ffffffff16565b61556490919063ffffffff16565b612d676002800360ff16615331565b60010181905550612d9f8260030154612d918360040154846003015461535c90919063ffffffff16565b61556490919063ffffffff16565b612dae6002800360ff16615331565b60030181905550612df7600260ff16612de96001612ddb600260ff1660165461556490919063ffffffff16565b61535c90919063ffffffff16565b615a3f90919063ffffffff16565b601681905550600c60165460028110612e0c57fe5b60050201600080820160006101000a81549067ffffffffffffffff02191690556000820160086101000a81549067ffffffffffffffff02191690556000820160106101000a81549067ffffffffffffffff021916905560018201600090556002820160009055600382016000905560048201600090555050612ec36001612e936001615331565b60000160009054906101000a900467ffffffffffffffff1667ffffffffffffffff1661556490919063ffffffff16565b612ecd6000615331565b60000160006101000a81548167ffffffffffffffff021916908367ffffffffffffffff160217905550612efe615a89565b73ffffffffffffffffffffffffffffffffffffffff1663cd92eba96040518163ffffffff1660e01b815260040160206040518083038186803b158015612f4357600080fd5b505afa158015612f57573d6000803e3d6000fd5b505050506040513d6020811015612f6d57600080fd5b8101908080519060200190929190505050612f886000615331565b60000160086101000a81548167ffffffffffffffff021916908367ffffffffffffffff16021790555042612fbc6000615331565b60000160106101000a81548167ffffffffffffffff021916908367ffffffffffffffff160217905550613019612ff26001615331565b60000160009054906101000a900467ffffffffffffffff1667ffffffffffffffff16615aef565b5050565b6000806000806000806000613030617159565b61303989615331565b6040518060e00160405290816000820160009054906101000a900467ffffffffffffffff1667ffffffffffffffff1667ffffffffffffffff1681526020016000820160089054906101000a900467ffffffffffffffff1667ffffffffffffffff1667ffffffffffffffff1681526020016000820160109054906101000a900467ffffffffffffffff1667ffffffffffffffff1667ffffffffffffffff1681526020016001820154815260200160028201548152602001600382015481526020016004820154815250509050806000015181602001518260400151836060015184608001518560a001518660c00151975097509750975097509750975050919395979092949650565b60075481565b600160009054906101000a900473ffffffffffffffffffffffffffffffffffffffff1681565b600080600090506000600190505b600260ff168110156131d6576131a661319382615331565b600101548361556490919063ffffffff16565b91506131c76131b482615331565b600201548361535c90919063ffffffff16565b9150808060010191505061317b565b508091505090565b60006131e982615c6c565b5080915050919050565b60008173ffffffffffffffffffffffffffffffffffffffff16600860009054906101000a900473ffffffffffffffffffffffffffffffffffffffff1673ffffffffffffffffffffffffffffffffffffffff16146132535760009050613420565b60008090505b600a8054905081101561341a576000600a828154811061327557fe5b906000526020600020015490506009600082815260200190815260200160002060009054906101000a900473ffffffffffffffffffffffffffffffffffffffff1673ffffffffffffffffffffffffffffffffffffffff16600860009054906101000a900473ffffffffffffffffffffffffffffffffffffffff1673ffffffffffffffffffffffffffffffffffffffff166321f8a721836040518263ffffffff1660e01b81526004018082815260200191505060206040518083038186803b15801561333f57600080fd5b505afa158015613353573d6000803e3d6000fd5b505050506040513d602081101561336957600080fd5b810190808051906020019092919050505073ffffffffffffffffffffffffffffffffffffffff161415806133fc5750600073ffffffffffffffffffffffffffffffffffffffff166009600083815260200190815260200160002060009054906101000a900473ffffffffffffffffffffffffffffffffffffffff1673ffffffffffffffffffffffffffffffffffffffff16145b1561340c57600092505050613420565b508080600101915050613259565b50600190505b919050565b600061342f6159d9565b73ffffffffffffffffffffffffffffffffffffffff16637c3125416040518163ffffffff1660e01b815260040160006040518083038186803b15801561347457600080fd5b505afa158015613488573d6000803e3d6000fd5b50505050600260009054906101000a900473ffffffffffffffffffffffffffffffffffffffff1673ffffffffffffffffffffffffffffffffffffffff163373ffffffffffffffffffffffffffffffffffffffff16141580156135385750600360009054906101000a900473ffffffffffffffffffffffffffffffffffffffff1673ffffffffffffffffffffffffffffffffffffffff163373ffffffffffffffffffffffffffffffffffffffff1614155b801561359257503373ffffffffffffffffffffffffffffffffffffffff16600460009054906101000a900473ffffffffffffffffffffffffffffffffffffffff1673ffffffffffffffffffffffffffffffffffffffff1614155b156135d95733600460006101000a81548173ffffffffffffffffffffffffffffffffffffffff021916908373ffffffffffffffffffffffffffffffffffffffff1602179055505b6135e1615eb3565b73ffffffffffffffffffffffffffffffffffffffff166321f4ae5783600460009054906101000a900473ffffffffffffffffffffffffffffffffffffffff166040518363ffffffff1660e01b8152600401808373ffffffffffffffffffffffffffffffffffffffff1673ffffffffffffffffffffffffffffffffffffffff1681526020018273ffffffffffffffffffffffffffffffffffffffff1673ffffffffffffffffffffffffffffffffffffffff1681526020019250505060206040518083038186803b1580156136b357600080fd5b505afa1580156136c7573d6000803e3d6000fd5b505050506040513d60208110156136dd57600080fd5b8101908080519060200190929190505050613760576040517f08c379a000000000000000000000000000000000000000000000000000000000815260040180806020018281038252601f8152602001807f4e6f7420617070726f76656420746f20636c61696d206f6e20626568616c660081525060200191505060405180910390fd5b61376982615efc565b9050919050565b600080600090506000600190505b600260ff168110156137d9576137a961379682615331565b600301548361556490919063ffffffff16565b91506137ca6137b782615331565b600401548361535c90919063ffffffff16565b9150808060010191505061377e565b508091505090565b600160009054906101000a900473ffffffffffffffffffffffffffffffffffffffff1673ffffffffffffffffffffffffffffffffffffffff163373ffffffffffffffffffffffffffffffffffffffff1614613887576040517f08c379a00000000000000000000000000000000000000000000000000000000081526004018080602001828103825260358152602001806171fa6035913960400191505060405180910390fd5b7fb532073b38c83145e3e5135377a08bf9aab55bc0fd7c1179cd4fb995d2a5159c6000809054906101000a900473ffffffffffffffffffffffffffffffffffffffff16600160009054906101000a900473ffffffffffffffffffffffffffffffffffffffff16604051808373ffffffffffffffffffffffffffffffffffffffff1673ffffffffffffffffffffffffffffffffffffffff1681526020018273ffffffffffffffffffffffffffffffffffffffff1673ffffffffffffffffffffffffffffffffffffffff1681526020019250505060405180910390a1600160009054906101000a900473ffffffffffffffffffffffffffffffffffffffff166000806101000a81548173ffffffffffffffffffffffffffffffffffffffff021916908373ffffffffffffffffffffffffffffffffffffffff1602179055506000600160006101000a81548173ffffffffffffffffffffffffffffffffffffffff021916908373ffffffffffffffffffffffffffffffffffffffff160217905550565b6000613a116152e8565b73ffffffffffffffffffffffffffffffffffffffff1663bdc963d87f73796e74685f65786368616e67655f6665655f72617465000000000000000000846040516020018083815260200182815260200192505050604051602081830303815290604052805190602001206040518263ffffffff1660e01b81526004018082815260200191505060206040518083038186803b158015613aaf57600080fd5b505afa158015613ac3573d6000803e3d6000fd5b505050506040513d6020811015613ad957600080fd5b81019080805190602001909291905050509050919050565b613af9615652565b73ffffffffffffffffffffffffffffffffffffffff163373ffffffffffffffffffffffffffffffffffffffff1614613b99576040517f08c379a000000000000000000000000000000000000000000000000000000000815260040180806020018281038252601f8152602001807f466565506f6f6c3a204f6e6c792049737375657220417574686f72697365640081525060200191505060405180910390fd5b613ba16153a6565b73ffffffffffffffffffffffffffffffffffffffff166394e1a448848484613bc96000615331565b60000160089054906101000a900467ffffffffffffffff166040518563ffffffff1660e01b8152600401808573ffffffffffffffffffffffffffffffffffffffff1673ffffffffffffffffffffffffffffffffffffffff1681526020018481526020018381526020018267ffffffffffffffff168152602001945050505050600060405180830381600087803b158015613c6257600080fd5b505af1158015613c76573d6000803e3d6000fd5b50505050613cb1838383613c8a6000615331565b60000160089054906101000a900467ffffffffffffffff1667ffffffffffffffff16616104565b505050565b6000809054906101000a900473ffffffffffffffffffffffffffffffffffffffff1681565b6000809054906101000a900473ffffffffffffffffffffffffffffffffffffffff1673ffffffffffffffffffffffffffffffffffffffff163373ffffffffffffffffffffffffffffffffffffffff1614613d80576040517f08c379a000000000000000000000000000000000000000000000000000000000815260040180806020018281038252602f81526020018061730c602f913960400191505060405180910390fd5b80600260006101000a81548173ffffffffffffffffffffffffffffffffffffffff021916908373ffffffffffffffffffffffffffffffffffffffff1602179055507ffc80377ca9c49cc11ae6982f390a42db976d5530af7c43889264b13fbbd7c57e81604051808273ffffffffffffffffffffffffffffffffffffffff1673ffffffffffffffffffffffffffffffffffffffff16815260200191505060405180910390a150565b6000809054906101000a900473ffffffffffffffffffffffffffffffffffffffff1673ffffffffffffffffffffffffffffffffffffffff163373ffffffffffffffffffffffffffffffffffffffff1614613ecc576040517f08c379a000000000000000000000000000000000000000000000000000000000815260040180806020018281038252602f81526020018061730c602f913960400191505060405180910390fd5b600660009054906101000a900460ff16613f4e576040517f08c379a000000000000000000000000000000000000000000000000000000000815260040180806020018281038252601f8152602001807f53656c66204465737472756374206e6f742079657420696e697469617465640081525060200191505060405180910390fd5b426224ea006005540110613fca576040517f08c379a000000000000000000000000000000000000000000000000000000000815260040180806020018281038252601b8152602001807f53656c662064657374727563742064656c6179206e6f74206d6574000000000081525060200191505060405180910390fd5b7f8a09e1677ced846cb537dc2b172043bd05a1a81ad7e0033a7ef8ba762df990b7600660019054906101000a900473ffffffffffffffffffffffffffffffffffffffff16604051808273ffffffffffffffffffffffffffffffffffffffff1673ffffffffffffffffffffffffffffffffffffffff16815260200191505060405180910390a1600660019054906101000a900473ffffffffffffffffffffffffffffffffffffffff1673ffffffffffffffffffffffffffffffffffffffff16ff5b600360009054906101000a900473ffffffffffffffffffffffffffffffffffffffff1681565b6224ea0081565b6140bf6171b4565b60008090505b600a8054905081101561410c57600a81815481106140df57fe5b90600052602060002001548282601881106140f657fe5b60200201818152505080806001019150506140c5565b5090565b60008061411b615a89565b73ffffffffffffffffffffffffffffffffffffffff1663b410a0346040518163ffffffff1660e01b815260040160206040518083038186803b15801561416057600080fd5b505afa158015614174573d6000803e3d6000fd5b505050506040513d602081101561418a57600080fd5b8101908080519060200190929190505050905061424261423360185473__SafeDecimalMath_______________________63907af6c06040518163ffffffff1660e01b815260040160206040518083038186803b1580156141ea57600080fd5b505af41580156141fe573d6000803e3d6000fd5b505050506040513d602081101561421457600080fd5b810190808051906020019092919050505061556490919063ffffffff16565b8261628c90919063ffffffff16565b91505090565b600260009054906101000a900473ffffffffffffffffffffffffffffffffffffffff1673ffffffffffffffffffffffffffffffffffffffff163373ffffffffffffffffffffffffffffffffffffffff16141580156142f45750600360009054906101000a900473ffffffffffffffffffffffffffffffffffffffff1673ffffffffffffffffffffffffffffffffffffffff163373ffffffffffffffffffffffffffffffffffffffff1614155b801561434e57503373ffffffffffffffffffffffffffffffffffffffff16600460009054906101000a900473ffffffffffffffffffffffffffffffffffffffff1673ffffffffffffffffffffffffffffffffffffffff1614155b156143955733600460006101000a81548173ffffffffffffffffffffffffffffffffffffffff021916908373ffffffffffffffffffffffffffffffffffffffff1602179055505b6000809054906101000a900473ffffffffffffffffffffffffffffffffffffffff1673ffffffffffffffffffffffffffffffffffffffff16600460009054906101000a900473ffffffffffffffffffffffffffffffffffffffff1673ffffffffffffffffffffffffffffffffffffffff1614614479576040517f08c379a00000000000000000000000000000000000000000000000000000000081526004018080602001828103825260138152602001807f4f776e6572206f6e6c792066756e6374696f6e0000000000000000000000000081525060200191505060405180910390fd5b60075442106144d3576040517f08c379a000000000000000000000000000000000000000000000000000000000815260040180806020018281038252602981526020018061737f6029913960400191505060405180910390fd5b6144db615a89565b73ffffffffffffffffffffffffffffffffffffffff1663cd92eba96040518163ffffffff1660e01b815260040160206040518083038186803b15801561452057600080fd5b505afa158015614534573d6000803e3d6000fd5b505050506040513d602081101561454a57600080fd5b81019080805190602001909291905050508611156145d0576040517f08c379a00000000000000000000000000000000000000000000000000000000081526004018080602001828103825260168152602001807f43616e6e6f7420696d706f72742062616420646174610000000000000000000081525060200191505060405180910390fd5b6040518060e001604052808867ffffffffffffffff1681526020018767ffffffffffffffff1681526020018667ffffffffffffffff16815260200185815260200184815260200183815260200182815250600c61464e600260ff166146408c60165461556490919063ffffffff16565b615a3f90919063ffffffff16565b6002811061465857fe5b6005020160008201518160000160006101000a81548167ffffffffffffffff021916908367ffffffffffffffff16021790555060208201518160000160086101000a81548167ffffffffffffffff021916908367ffffffffffffffff16021790555060408201518160000160106101000a81548167ffffffffffffffff021916908367ffffffffffffffff160217905550606082015181600101556080820151816002015560a0820151816003015560c082015181600401559050505050505050505050565b600260009054906101000a900473ffffffffffffffffffffffffffffffffffffffff1673ffffffffffffffffffffffffffffffffffffffff163373ffffffffffffffffffffffffffffffffffffffff16141580156147ca5750600360009054906101000a900473ffffffffffffffffffffffffffffffffffffffff1673ffffffffffffffffffffffffffffffffffffffff163373ffffffffffffffffffffffffffffffffffffffff1614155b801561482457503373ffffffffffffffffffffffffffffffffffffffff16600460009054906101000a900473ffffffffffffffffffffffffffffffffffffffff1673ffffffffffffffffffffffffffffffffffffffff1614155b1561486b5733600460006101000a81548173ffffffffffffffffffffffffffffffffffffffff021916908373ffffffffffffffffffffffffffffffffffffffff1602179055505b6000809054906101000a900473ffffffffffffffffffffffffffffffffffffffff1673ffffffffffffffffffffffffffffffffffffffff16600460009054906101000a900473ffffffffffffffffffffffffffffffffffffffff1673ffffffffffffffffffffffffffffffffffffffff161461494f576040517f08c379a00000000000000000000000000000000000000000000000000000000081526004018080602001828103825260138152602001807f4f776e6572206f6e6c792066756e6374696f6e0000000000000000000000000081525060200191505060405180910390fd5b6149576162b9565b73ffffffffffffffffffffffffffffffffffffffff166323b872dd600460009054906101000a900473ffffffffffffffffffffffffffffffffffffffff1661499d61631f565b846040518463ffffffff1660e01b8152600401808473ffffffffffffffffffffffffffffffffffffffff1673ffffffffffffffffffffffffffffffffffffffff1681526020018373ffffffffffffffffffffffffffffffffffffffff1673ffffffffffffffffffffffffffffffffffffffff1681526020018281526020019350505050602060405180830381600087803b158015614a3a57600080fd5b505af1158015614a4e573d6000803e3d6000fd5b505050506040513d6020811015614a6457600080fd5b810190808051906020019092919050505050614a7e61631f565b73ffffffffffffffffffffffffffffffffffffffff1663b5ddb9c783836040518363ffffffff1660e01b8152600401808373ffffffffffffffffffffffffffffffffffffffff1673ffffffffffffffffffffffffffffffffffffffff16815260200182815260200192505050600060405180830381600087803b158015614b0457600080fd5b505af1158015614b18573d6000803e3d6000fd5b505050505050565b600660009054906101000a900460ff1681565b600260009054906101000a900473ffffffffffffffffffffffffffffffffffffffff1673ffffffffffffffffffffffffffffffffffffffff163373ffffffffffffffffffffffffffffffffffffffff161480614bdc5750600360009054906101000a900473ffffffffffffffffffffffffffffffffffffffff1673ffffffffffffffffffffffffffffffffffffffff163373ffffffffffffffffffffffffffffffffffffffff16145b614c4e576040517f08c379a00000000000000000000000000000000000000000000000000000000081526004018080602001828103825260178152602001807f4f6e6c79207468652070726f78792063616e2063616c6c00000000000000000081525060200191505060405180910390fd5b80600460006101000a81548173ffffffffffffffffffffffffffffffffffffffff021916908373ffffffffffffffffffffffffffffffffffffffff16021790555050565b6000809054906101000a900473ffffffffffffffffffffffffffffffffffffffff1673ffffffffffffffffffffffffffffffffffffffff163373ffffffffffffffffffffffffffffffffffffffff1614614d37576040517f08c379a000000000000000000000000000000000000000000000000000000000815260040180806020018281038252602f81526020018061730c602f913960400191505060405180910390fd5b426005819055506001600660006101000a81548160ff0219169083151502179055507fcbd94ca75b8dc45c9d80c77e851670e78843c0d75180cb81db3e2158228fa9a66224ea006040518082815260200191505060405180910390a1565b600660019054906101000a900473ffffffffffffffffffffffffffffffffffffffff1681565b600a8181548110614dc857fe5b906000526020600020016000915090505481565b600281565b6000614deb6159d9565b73ffffffffffffffffffffffffffffffffffffffff16637c3125416040518163ffffffff1660e01b815260040160006040518083038186803b158015614e3057600080fd5b505afa158015614e44573d6000803e3d6000fd5b50505050600260009054906101000a900473ffffffffffffffffffffffffffffffffffffffff1673ffffffffffffffffffffffffffffffffffffffff163373ffffffffffffffffffffffffffffffffffffffff1614158015614ef45750600360009054906101000a900473ffffffffffffffffffffffffffffffffffffffff1673ffffffffffffffffffffffffffffffffffffffff163373ffffffffffffffffffffffffffffffffffffffff1614155b8015614f4e57503373ffffffffffffffffffffffffffffffffffffffff16600460009054906101000a900473ffffffffffffffffffffffffffffffffffffffff1673ffffffffffffffffffffffffffffffffffffffff1614155b15614f955733600460006101000a81548173ffffffffffffffffffffffffffffffffffffffff021916908373ffffffffffffffffffffffffffffffffffffffff1602179055505b614fc0600460009054906101000a900473ffffffffffffffffffffffffffffffffffffffff16615efc565b905090565b6201518081565b600460009054906101000a900473ffffffffffffffffffffffffffffffffffffffff1681565b60185481565b601881565b73feefeefeefeefeefeefeefeefeefeefeefeefeef81565b600260009054906101000a900473ffffffffffffffffffffffffffffffffffffffff1681565b624f1a0081565b67016345785d8a000081565b6000615058616385565b90508073ffffffffffffffffffffffffffffffffffffffff16600460009054906101000a900473ffffffffffffffffffffffffffffffffffffffff1673ffffffffffffffffffffffffffffffffffffffff1614806150e157508073ffffffffffffffffffffffffffffffffffffffff163373ffffffffffffffffffffffffffffffffffffffff16145b615153576040517f08c379a000000000000000000000000000000000000000000000000000000000815260040180806020018281038252601e8152602001807f43616c6c6572206973206e6f742072657761726473417574686f72697479000081525060200191505060405180910390fd5b615173826151616000615331565b6003015461556490919063ffffffff16565b61517d6000615331565b600301819055505050565b600260009054906101000a900473ffffffffffffffffffffffffffffffffffffffff1673ffffffffffffffffffffffffffffffffffffffff1663907dff978260405160200180828152602001915050604051602081830303815290604052600160405180806172eb602191396021019050604051809103902060008060006040518763ffffffff1660e01b815260040180806020018781526020018681526020018560001b81526020018460001b81526020018360001b8152602001828103825288818151815260200191508051906020019080838360005b8381101561527c578082015181840152602081019050615261565b50505050905090810190601f1680156152a95780820380516001836020036101000a031916815260200191505b50975050505050505050600060405180830381600087803b1580156152cd57600080fd5b505af11580156152e1573d6000803e3d6000fd5b5050505050565b600061532c7f466565506f6f6c457465726e616c53746f7261676500000000000000000000006040518060600160405280602581526020016173f1602591396163ce565b905090565b6000600c600260ff1683601654018161534657fe5b066002811061535157fe5b600502019050919050565b600061539e83836040518060400160405280601e81526020017f536166654d6174683a207375627472616374696f6e206f766572666c6f7700008152506164ea565b905092915050565b60006154077f466565506f6f6c537461746500000000000000000000000000000000000000006040518060400160405280601c81526020017f4d697373696e6720466565506f6f6c53746174652061646472657373000000008152506163ce565b905090565b600080615417615a89565b90506000615556856155488473ffffffffffffffffffffffffffffffffffffffff166308d95cd5886040518263ffffffff1660e01b81526004018082815260200191505060206040518083038186803b15801561547357600080fd5b505afa158015615487573d6000803e3d6000fd5b505050506040513d602081101561549d57600080fd5b81019080805190602001909291905050508573ffffffffffffffffffffffffffffffffffffffff166308d95cd58b6040518263ffffffff1660e01b81526004018082815260200191505060206040518083038186803b1580156154ff57600080fd5b505afa158015615513573d6000803e3d6000fd5b505050506040513d602081101561552957600080fd5b81019080805190602001909291905050506165aa90919063ffffffff16565b6165c690919063ffffffff16565b905080925050509392505050565b6000808284019050838110156155e2576040517f08c379a000000000000000000000000000000000000000000000000000000000815260040180806020018281038252601b8152602001807f536166654d6174683a206164646974696f6e206f766572666c6f77000000000081525060200191505060405180910390fd5b8091505092915050565b600061564d7f45786368616e67657200000000000000000000000000000000000000000000006040518060400160405280601981526020017f4d697373696e672045786368616e6765722061646472657373000000000000008152506163ce565b905090565b60006156b37f49737375657200000000000000000000000000000000000000000000000000006040518060400160405280601681526020017f4d697373696e67204973737565722061646472657373000000000000000000008152506163ce565b905090565b600260009054906101000a900473ffffffffffffffffffffffffffffffffffffffff1673ffffffffffffffffffffffffffffffffffffffff1663907dff9783836040516020018083815260200182815260200192505050604051602081830303815290604052600160405180806173a8602891396028019050604051809103902060008060006040518763ffffffff1660e01b815260040180806020018781526020018681526020018560001b81526020018460001b81526020018360001b8152602001828103825288818151815260200191508051906020019080838360005b838110156157b4578082015181840152602081019050615799565b50505050905090810190601f1680156157e15780820380516001836020036101000a031916815260200191505b50975050505050505050600060405180830381600087803b15801561580557600080fd5b505af1158015615819573d6000803e3d6000fd5b505050505050565b60008083141561583457600090506158a1565b600082840290508284828161584557fe5b041461589c576040517f08c379a000000000000000000000000000000000000000000000000000000000815260040180806020018281038252602181526020018061735e6021913960400191505060405180910390fd5b809150505b92915050565b60006158e983836040518060400160405280601a81526020017f536166654d6174683a206469766973696f6e206279207a65726f0000000000008152506165e2565b905092915050565b600080600084141561590f57600080819150809050915091506159d1565b60008490506000861115615971576000615960600161593060018a03615331565b60000160089054906101000a900467ffffffffffffffff1667ffffffffffffffff1661535c90919063ffffffff16565b905061596d81878761540c565b9150505b60006159928261598089615331565b6001015461628c90919063ffffffff16565b905060006159b5836159a38a615331565b6003015461628c90919063ffffffff16565b90506159c0826166a8565b6159c9826166a8565b945094505050505b935093915050565b6000615a3a7f53797374656d53746174757300000000000000000000000000000000000000006040518060400160405280601c81526020017f4d697373696e672053797374656d5374617475732061646472657373000000008152506163ce565b905090565b6000615a8183836040518060400160405280601881526020017f536166654d6174683a206d6f64756c6f206279207a65726f00000000000000008152506166f7565b905092915050565b6000615aea7f53796e74686574697853746174650000000000000000000000000000000000006040518060400160405280601e81526020017f4d697373696e672053796e7468657469785374617465206164647265737300008152506163ce565b905090565b600260009054906101000a900473ffffffffffffffffffffffffffffffffffffffff1673ffffffffffffffffffffffffffffffffffffffff1663907dff978260405160200180828152602001915050604051602081830303815290604052600160405180807f466565506572696f64436c6f7365642875696e743235362900000000000000008152506018019050604051809103902060008060006040518763ffffffff1660e01b815260040180806020018781526020018681526020018560001b81526020018460001b81526020018360001b8152602001828103825288818151815260200191508051906020019080838360005b83811015615c00578082015181840152602081019050615be5565b50505050905090810190601f168015615c2d5780820380516001836020036101000a031916815260200191505b50975050505050505050600060405180830381600087803b158015615c5157600080fd5b505af1158015615c65573d6000803e3d6000fd5b5050505050565b600080600080615c7a615652565b73ffffffffffffffffffffffffffffffffffffffff1663a6eb4f95866040518263ffffffff1660e01b8152600401808273ffffffffffffffffffffffffffffffffffffffff1673ffffffffffffffffffffffffffffffffffffffff168152602001915050604080518083038186803b158015615cf557600080fd5b505afa158015615d09573d6000803e3d6000fd5b505050506040513d6040811015615d1f57600080fd5b810190808051906020019092919080519060200190929190505050915091506000615d48615a89565b73ffffffffffffffffffffffffffffffffffffffff1663b410a0346040518163ffffffff1660e01b815260040160206040518083038186803b158015615d8d57600080fd5b505afa158015615da1573d6000803e3d6000fd5b505050506040513d6020811015615db757600080fd5b8101908080519060200190929190505050905080831015615de15760018294509450505050615eae565b6000615e88615e7960185473__SafeDecimalMath_______________________63907af6c06040518163ffffffff1660e01b815260040160206040518083038186803b158015615e3057600080fd5b505af4158015615e44573d6000803e3d6000fd5b505050506040513d6020811015615e5a57600080fd5b810190808051906020019092919050505061556490919063ffffffff16565b8361628c90919063ffffffff16565b905080841115615ea2576000839550955050505050615eae565b60018395509550505050505b915091565b6000615ef77f44656c6567617465417070726f76616c73000000000000000000000000000000604051806060016040528060218152602001617253602191396163ce565b905090565b600080600090506000809050600080600080615f1788615c6c565b9150915081615f8e576040517f08c379a000000000000000000000000000000000000000000000000000000000815260040180806020018281038252601f8152602001807f432d526174696f2062656c6f772070656e616c7479207468726573686f6c640081525060200191505060405180910390fd5b8015616002576040517f08c379a000000000000000000000000000000000000000000000000000000000815260040180806020018281038252601c8152602001807f412073796e7468206f7220534e582072617465206973207374616c650000000081525060200191505060405180910390fd5b61600b886116d5565b809450819550505060008411806160225750600083115b616077576040517f08c379a00000000000000000000000000000000000000000000000000000000081526004018080602001828103825260408152602001806172ab6040913960400191505060405180910390fd5b6160ac886160856001615331565b60000160009054906101000a900467ffffffffffffffff1667ffffffffffffffff166167b8565b60008411156160cb576160be846168b3565b94506160ca88866169bf565b5b60008311156160ea576160dd83616c67565b95506160e98887616d78565b5b6160f5888688616eda565b60019650505050505050919050565b600260009054906101000a900473ffffffffffffffffffffffffffffffffffffffff1673ffffffffffffffffffffffffffffffffffffffff1663907dff978484846040516020018084815260200183815260200182815260200193505050506040516020818303038152906040526002604051808061727460379139603701905060405180910390208873ffffffffffffffffffffffffffffffffffffffff1660001b6000806040518763ffffffff1660e01b815260040180806020018781526020018681526020018581526020018460001b81526020018360001b8152602001828103825288818151815260200191508051906020019080838360005b8381101561621d578082015181840152602081019050616202565b50505050905090810190601f16801561624a5780820380516001836020036101000a031916815260200191505b50975050505050505050600060405180830381600087803b15801561626e57600080fd5b505af1158015616282573d6000803e3d6000fd5b5050505050505050565b6000601260ff16600a0a6162a9838561582190919063ffffffff16565b816162b057fe5b04905092915050565b600061631a7f53796e74686574697800000000000000000000000000000000000000000000006040518060400160405280601981526020017f4d697373696e672053796e7468657469782061646472657373000000000000008152506163ce565b905090565b60006163807f526577617264457363726f7700000000000000000000000000000000000000006040518060400160405280601c81526020017f4d697373696e6720526577617264457363726f772061646472657373000000008152506163ce565b905090565b60006163c97f52657761726473446973747269627574696f6e0000000000000000000000000060405180606001604052806023815260200161733b602391396163ce565b905090565b6000806009600085815260200190815260200160002060009054906101000a900473ffffffffffffffffffffffffffffffffffffffff169050600073ffffffffffffffffffffffffffffffffffffffff168173ffffffffffffffffffffffffffffffffffffffff16141583906164df576040517f08c379a00000000000000000000000000000000000000000000000000000000081526004018080602001828103825283818151815260200191508051906020019080838360005b838110156164a4578082015181840152602081019050616489565b50505050905090810190601f1680156164d15780820380516001836020036101000a031916815260200191505b509250505060405180910390fd5b508091505092915050565b6000838311158290616597576040517f08c379a00000000000000000000000000000000000000000000000000000000081526004018080602001828103825283818151815260200191508051906020019080838360005b8381101561655c578082015181840152602081019050616541565b50505050905090810190601f1680156165895780820380516001836020036101000a031916815260200191505b509250505060405180910390fd5b5060008385039050809150509392505050565b60006165be8383601b60ff16600a0a617078565b905092915050565b60006165da8383601b60ff16600a0a6170d3565b905092915050565b6000808311829061668e576040517f08c379a00000000000000000000000000000000000000000000000000000000081526004018080602001828103825283818151815260200191508051906020019080838360005b83811015616653578082015181840152602081019050616638565b50505050905090810190601f1680156166805780820380516001836020036101000a031916815260200191505b509250505060405180910390fd5b50600083858161669a57fe5b049050809150509392505050565b600080600a6012601b0360ff16600a0a816166bf57fe5b0483816166c857fe5b0490506005600a82816166d757fe5b06106166e457600a810190505b600a81816166ee57fe5b04915050919050565b60008083141582906167a4576040517f08c379a00000000000000000000000000000000000000000000000000000000081526004018080602001828103825283818151815260200191508051906020019080838360005b8381101561676957808201518184015260208101905061674e565b50505050905090810190601f1680156167965780820380516001836020036101000a031916815260200191505b509250505060405180910390fd5b508284816167ae57fe5b0690509392505050565b6167c06152e8565b73ffffffffffffffffffffffffffffffffffffffff16633562fd207f6c6173745f6665655f7769746864726177616c0000000000000000000000000084604051602001808381526020018273ffffffffffffffffffffffffffffffffffffffff1673ffffffffffffffffffffffffffffffffffffffff1660601b81526014019250505060405160208183030381529060405280519060200120836040518363ffffffff1660e01b81526004018083815260200182815260200192505050600060405180830381600087803b15801561689757600080fd5b505af11580156168ab573d6000803e3d6000fd5b505050505050565b600080829050600080600160020360ff1690505b600260ff168110156169b35760006168de82615331565b6002015490506000616905826168f385615331565b6001015461535c90919063ffffffff16565b905060008111156169a357600085821061691f5785616921565b815b9050616936818461556490919063ffffffff16565b61693f85615331565b60020181905550616959818761535c90919063ffffffff16565b955061696e818661556490919063ffffffff16565b94506000861415616987578496505050505050506169ba565b6000841480156169975750600086115b156169a157600095505b505b50508080600190039150506168c7565b5080925050505b919050565b8173feefeefeefeefeefeefeefeefeefeefeefeefeef73ffffffffffffffffffffffffffffffffffffffff168173ffffffffffffffffffffffffffffffffffffffff161415616a76576040517f08c379a00000000000000000000000000000000000000000000000000000000081526004018080602001828103825260178152602001807f4665652061646472657373206e6f7420616c6c6f77656400000000000000000081525060200191505060405180910390fd5b6000616a80615652565b73ffffffffffffffffffffffffffffffffffffffff166332608039600b546040518263ffffffff1660e01b81526004018082815260200191505060206040518083038186803b158015616ad257600080fd5b505afa158015616ae6573d6000803e3d6000fd5b505050506040513d6020811015616afc57600080fd5b810190808051906020019092919050505090508073ffffffffffffffffffffffffffffffffffffffff16639dc29fac73feefeefeefeefeefeefeefeefeefeefeefeefeef856040518363ffffffff1660e01b8152600401808373ffffffffffffffffffffffffffffffffffffffff1673ffffffffffffffffffffffffffffffffffffffff16815260200182815260200192505050600060405180830381600087803b158015616baa57600080fd5b505af1158015616bbe573d6000803e3d6000fd5b505050508073ffffffffffffffffffffffffffffffffffffffff1663867904b485856040518363ffffffff1660e01b8152600401808373ffffffffffffffffffffffffffffffffffffffff1673ffffffffffffffffffffffffffffffffffffffff16815260200182815260200192505050600060405180830381600087803b158015616c4957600080fd5b505af1158015616c5d573d6000803e3d6000fd5b5050505050505050565b600080829050600080600160020360ff1690505b600260ff16811015616d6c576000616cb4616c9583615331565b60040154616ca284615331565b6003015461535c90919063ffffffff16565b90506000811115616d5d576000848210616cce5784616cd0565b815b9050616cf181616cdf85615331565b6004015461556490919063ffffffff16565b616cfa84615331565b60040181905550616d14818661535c90919063ffffffff16565b9450616d29818561556490919063ffffffff16565b93506000851415616d41578395505050505050616d73565b600083148015616d515750600085115b15616d5b57600094505b505b50808060019003915050616c7b565b5080925050505b919050565b8173feefeefeefeefeefeefeefeefeefeefeefeefeef73ffffffffffffffffffffffffffffffffffffffff168173ffffffffffffffffffffffffffffffffffffffff161415616e2f576040517f08c379a00000000000000000000000000000000000000000000000000000000081526004018080602001828103825260178152602001807f4665652061646472657373206e6f7420616c6c6f77656400000000000000000081525060200191505060405180910390fd5b616e3761631f565b73ffffffffffffffffffffffffffffffffffffffff1663b5ddb9c784846040518363ffffffff1660e01b8152600401808373ffffffffffffffffffffffffffffffffffffffff1673ffffffffffffffffffffffffffffffffffffffff16815260200182815260200192505050600060405180830381600087803b158015616ebd57600080fd5b505af1158015616ed1573d6000803e3d6000fd5b50505050505050565b600260009054906101000a900473ffffffffffffffffffffffffffffffffffffffff1673ffffffffffffffffffffffffffffffffffffffff1663907dff97848484604051602001808473ffffffffffffffffffffffffffffffffffffffff1673ffffffffffffffffffffffffffffffffffffffff16815260200183815260200182815260200193505050506040516020818303038152906040526001604051808061722f602491396024019050604051809103902060008060006040518763ffffffff1660e01b815260040180806020018781526020018681526020018560001b81526020018460001b81526020018360001b8152602001828103825288818151815260200191508051906020019080838360005b8381101561700a578082015181840152602081019050616fef565b50505050905090810190601f1680156170375780820380516001836020036101000a031916815260200191505b50975050505050505050600060405180830381600087803b15801561705b57600080fd5b505af115801561706f573d6000803e3d6000fd5b50505050505050565b6000806170a384617095600a86028861582190919063ffffffff16565b6158a790919063ffffffff16565b90506005600a82816170b157fe5b06106170be57600a810190505b600a81816170c857fe5b049150509392505050565b600080600a83816170e057fe5b046170f4858761582190919063ffffffff16565b816170fb57fe5b0490506005600a828161710a57fe5b061061711757600a810190505b600a818161712157fe5b049150509392505050565b60405180604001604052806002905b6171436171d7565b81526020019060019003908161713b5790505090565b6040518060e00160405280600067ffffffffffffffff168152602001600067ffffffffffffffff168152602001600067ffffffffffffffff168152602001600081526020016000815260200160008152602001600081525090565b604051806103000160405280601890602082028038833980820191505090505090565b604051806040016040528060029060208202803883398082019150509050509056fe596f75206d757374206265206e6f6d696e61746564206265666f726520796f752063616e20616363657074206f776e65727368697046656573436c61696d656428616464726573732c75696e743235362c75696e74323536294d697373696e672044656c6567617465417070726f76616c73206164647265737349737375616e636544656274526174696f456e74727928616464726573732c75696e743235362c75696e743235362c75696e74323536294e6f2066656573206f72207265776172647320617661696c61626c6520666f7220706572696f642c206f72206665657320616c726561647920636c61696d6564466565506572696f644475726174696f6e557064617465642875696e74323536294f6e6c792074686520636f6e7472616374206f776e6572206d617920706572666f726d207468697320616374696f6e4d697373696e672052657761726473446973747269627574696f6e2061646472657373536166654d6174683a206d756c7469706c69636174696f6e206f766572666c6f7743616e206f6e6c7920706572666f726d207468697320616374696f6e20647572696e6720736574757053796e746845786368616e67654665655570646174656428627974657333322c75696e74323536294f6e6c792045786368616e6765722c2053796e74687320417574686f72697365644d697373696e6720466565506f6f6c457465726e616c53746f726167652061646472657373a265627a7a723158202f34c0cf502520874aae93ad571add11d9fdf092f443dc0a77d51c19968e4c2264736f6c63430005100032",
  "deployedBytecode": "0x608060405234801561001057600080fd5b50600436106103275760003560e01c806380803fff116101b8578063bd32aa4411610104578063e0e6393d116100a2578063ec5568891161007c578063ec55688914610f45578063f344da6714610f8f578063fb1b4c7e14610fad578063fd1f498d14610fcb57610327565b8063e0e6393d14610ebf578063e3235c9114610edd578063eb1edd6114610efb57610327565b8063cff2ddad116100de578063cff2ddad14610e11578063d294f09314610e35578063d62ae39914610e57578063d67bdd2514610e7557610327565b8063bd32aa4414610d7b578063c58aaae614610d85578063c6c9d82814610dcf57610327565b8063a461fc8211610171578063b10090b81161014b578063b10090b814610c52578063b5ddb9c714610cc7578063b8225dec14610d15578063bc67f83214610d3757610327565b8063a461fc8214610bd0578063ab49848c14610bee578063ac83419314610c3457610327565b806380803fff14610a545780638664527414610a965780638da5cb5b14610aee57806397107d6d14610b385780639cb8a26a14610b7c5780639cbdaeb614610b8657610327565b80633278c9601161027757806353a47bb711610230578063631e14441161020a578063631e1444146109745780636466f45e146109d05780636de813f114610a2c57806379ba509714610a4a57610327565b806353a47bb7146108b0578063569249d0146108fa57806359a2f19f1461091857610327565b80633278c960146106ef57806333140016146106f95780633be99e6f1461079c5780633ebc457a146107e05780633fcd2240146107ea57806346ba2d901461089257610327565b80631627540c116102e457806322425fa4116102be57806322425fa4146105a757806322bf55ef146105c557806328a1170d146105f35780632cce0e54146106c157610327565b80631627540c1461050157806317c70de41461054557806320714f881461056357610327565b806304c49f2c1461032c57806304f3bcec1461035a57806307ea50cd146103a45780630813071c146103fc5780630de586151461045e578063131b0ae7146104bd575b600080fd5b6103586004803603602081101561034257600080fd5b8101908080359060200190929190505050610ff9565b005b61036261132f565b604051808273ffffffffffffffffffffffffffffffffffffffff1673ffffffffffffffffffffffffffffffffffffffff16815260200191505060405180910390f35b6103e6600480360360208110156103ba57600080fd5b81019080803573ffffffffffffffffffffffffffffffffffffffff169060200190929190505050611355565b6040518082815260200191505060405180910390f35b6104486004803603604081101561041257600080fd5b81019080803573ffffffffffffffffffffffffffffffffffffffff1690602001909291908035906020019092919050505061146e565b6040518082815260200191505060405180910390f35b6104a06004803603602081101561047457600080fd5b81019080803573ffffffffffffffffffffffffffffffffffffffff1690602001909291905050506116d5565b604051808381526020018281526020019250505060405180910390f35b6104ff600480360360208110156104d357600080fd5b81019080803573ffffffffffffffffffffffffffffffffffffffff169060200190929190505050611790565b005b6105436004803603602081101561051757600080fd5b81019080803573ffffffffffffffffffffffffffffffffffffffff169060200190929190505050611879565b005b61054d6119c5565b6040518082815260200191505060405180910390f35b6105a56004803603602081101561057957600080fd5b81019080803573ffffffffffffffffffffffffffffffffffffffff1690602001909291905050506119cb565b005b6105af611bba565b6040518082815260200191505060405180910390f35b6105f1600480360360208110156105db57600080fd5b8101908080359060200190929190505050611bc0565b005b6106bf6004803603604081101561060957600080fd5b810190808035906020019064010000000081111561062657600080fd5b82018360208201111561063857600080fd5b8035906020019184602083028401116401000000008311171561065a57600080fd5b90919293919293908035906020019064010000000081111561067b57600080fd5b82018360208201111561068d57600080fd5b803590602001918460208302840111640100000000831117156106af57600080fd5b9091929391929390505050611d57565b005b6106ed600480360360208110156106d757600080fd5b81019080803590602001909291905050506121d2565b005b6106f7612527565b005b61073b6004803603602081101561070f57600080fd5b81019080803573ffffffffffffffffffffffffffffffffffffffff16906020019092919050505061261d565b604051808260026000925b8184101561078c5782846020020151600260200280838360005b8381101561077b578082015181840152602081019050610760565b505050509050019260010192610746565b9250505091505060405180910390f35b6107de600480360360208110156107b257600080fd5b81019080803573ffffffffffffffffffffffffffffffffffffffff169060200190929190505050612997565b005b6107e8612bf6565b005b6108166004803603602081101561080057600080fd5b810190808035906020019092919050505061301d565b604051808867ffffffffffffffff1667ffffffffffffffff1681526020018767ffffffffffffffff1667ffffffffffffffff1681526020018667ffffffffffffffff1667ffffffffffffffff16815260200185815260200184815260200183815260200182815260200197505050505050505060405180910390f35b61089a613141565b6040518082815260200191505060405180910390f35b6108b8613147565b604051808273ffffffffffffffffffffffffffffffffffffffff1673ffffffffffffffffffffffffffffffffffffffff16815260200191505060405180910390f35b61090261316d565b6040518082815260200191505060405180910390f35b61095a6004803603602081101561092e57600080fd5b81019080803573ffffffffffffffffffffffffffffffffffffffff1690602001909291905050506131de565b604051808215151515815260200191505060405180910390f35b6109b66004803603602081101561098a57600080fd5b81019080803573ffffffffffffffffffffffffffffffffffffffff1690602001909291905050506131f3565b604051808215151515815260200191505060405180910390f35b610a12600480360360208110156109e657600080fd5b81019080803573ffffffffffffffffffffffffffffffffffffffff169060200190929190505050613425565b604051808215151515815260200191505060405180910390f35b610a34613770565b6040518082815260200191505060405180910390f35b610a526137e1565b005b610a8060048036036020811015610a6a57600080fd5b8101908080359060200190929190505050613a07565b6040518082815260200191505060405180910390f35b610aec60048036036060811015610aac57600080fd5b81019080803573ffffffffffffffffffffffffffffffffffffffff1690602001909291908035906020019092919080359060200190929190505050613af1565b005b610af6613cb6565b604051808273ffffffffffffffffffffffffffffffffffffffff1673ffffffffffffffffffffffffffffffffffffffff16815260200191505060405180910390f35b610b7a60048036036020811015610b4e57600080fd5b81019080803573ffffffffffffffffffffffffffffffffffffffff169060200190929190505050613cdb565b005b610b84613e27565b005b610b8e61408a565b604051808273ffffffffffffffffffffffffffffffffffffffff1673ffffffffffffffffffffffffffffffffffffffff16815260200191505060405180910390f35b610bd86140b0565b6040518082815260200191505060405180910390f35b610bf66140b7565b6040518082601860200280838360005b83811015610c21578082015181840152602081019050610c06565b5050505090500191505060405180910390f35b610c3c614110565b6040518082815260200191505060405180910390f35b610cc56004803603610100811015610c6957600080fd5b810190808035906020019092919080359060200190929190803590602001909291908035906020019092919080359060200190929190803590602001909291908035906020019092919080359060200190929190505050614248565b005b610d1360048036036040811015610cdd57600080fd5b81019080803573ffffffffffffffffffffffffffffffffffffffff1690602001909291908035906020019092919050505061471e565b005b610d1d614b20565b604051808215151515815260200191505060405180910390f35b610d7960048036036020811015610d4d57600080fd5b81019080803573ffffffffffffffffffffffffffffffffffffffff169060200190929190505050614b33565b005b610d83614c92565b005b610d8d614d95565b604051808273ffffffffffffffffffffffffffffffffffffffff1673ffffffffffffffffffffffffffffffffffffffff16815260200191505060405180910390f35b610dfb60048036036020811015610de557600080fd5b8101908080359060200190929190505050614dbb565b6040518082815260200191505060405180910390f35b610e19614ddc565b604051808260ff1660ff16815260200191505060405180910390f35b610e3d614de1565b604051808215151515815260200191505060405180910390f35b610e5f614fc5565b6040518082815260200191505060405180910390f35b610e7d614fcc565b604051808273ffffffffffffffffffffffffffffffffffffffff1673ffffffffffffffffffffffffffffffffffffffff16815260200191505060405180910390f35b610ec7614ff2565b6040518082815260200191505060405180910390f35b610ee5614ff8565b6040518082815260200191505060405180910390f35b610f03614ffd565b604051808273ffffffffffffffffffffffffffffffffffffffff1673ffffffffffffffffffffffffffffffffffffffff16815260200191505060405180910390f35b610f4d615015565b604051808273ffffffffffffffffffffffffffffffffffffffff1673ffffffffffffffffffffffffffffffffffffffff16815260200191505060405180910390f35b610f9761503b565b6040518082815260200191505060405180910390f35b610fb5615042565b6040518082815260200191505060405180910390f35b610ff760048036036020811015610fe157600080fd5b810190808035906020019092919050505061504e565b005b600260009054906101000a900473ffffffffffffffffffffffffffffffffffffffff1673ffffffffffffffffffffffffffffffffffffffff163373ffffffffffffffffffffffffffffffffffffffff16141580156110a55750600360009054906101000a900473ffffffffffffffffffffffffffffffffffffffff1673ffffffffffffffffffffffffffffffffffffffff163373ffffffffffffffffffffffffffffffffffffffff1614155b80156110ff57503373ffffffffffffffffffffffffffffffffffffffff16600460009054906101000a900473ffffffffffffffffffffffffffffffffffffffff1673ffffffffffffffffffffffffffffffffffffffff1614155b156111465733600460006101000a81548173ffffffffffffffffffffffffffffffffffffffff021916908373ffffffffffffffffffffffffffffffffffffffff1602179055505b6000809054906101000a900473ffffffffffffffffffffffffffffffffffffffff1673ffffffffffffffffffffffffffffffffffffffff16600460009054906101000a900473ffffffffffffffffffffffffffffffffffffffff1673ffffffffffffffffffffffffffffffffffffffff161461122a576040517f08c379a00000000000000000000000000000000000000000000000000000000081526004018080602001828103825260138152602001807f4f776e6572206f6e6c792066756e6374696f6e0000000000000000000000000081525060200191505060405180910390fd5b620151808110156112a3576040517f08c379a000000000000000000000000000000000000000000000000000000000815260040180806020018281038252601f8152602001807f76616c7565203c204d494e5f4645455f504552494f445f4455524154494f4e0081525060200191505060405180910390fd5b624f1a0081111561131c576040517f08c379a000000000000000000000000000000000000000000000000000000000815260040180806020018281038252601f8152602001807f76616c7565203e204d41585f4645455f504552494f445f4455524154494f4e0081525060200191505060405180910390fd5b8060178190555061132c81615188565b50565b600860009054906101000a900473ffffffffffffffffffffffffffffffffffffffff1681565b600061135f6152e8565b73ffffffffffffffffffffffffffffffffffffffff1663bdc963d87f6c6173745f6665655f7769746864726177616c0000000000000000000000000084604051602001808381526020018273ffffffffffffffffffffffffffffffffffffffff1673ffffffffffffffffffffffffffffffffffffffff1660601b815260140192505050604051602081830303815290604052805190602001206040518263ffffffff1660e01b81526004018082815260200191505060206040518083038186803b15801561142c57600080fd5b505afa158015611440573d6000803e3d6000fd5b505050506040513d602081101561145657600080fd5b81019080805190602001909291905050509050919050565b6000808214156114e6576040517f08c379a00000000000000000000000000000000000000000000000000000000081526004018080602001828103825260208152602001807f43757272656e7420706572696f64206973206e6f7420636c6f7365642079657481525060200191505060405180910390fd5b600260ff16821061155f576040517f08c379a000000000000000000000000000000000000000000000000000000000815260040180806020018281038252601d8152602001807f4578636565647320746865204645455f504552494f445f4c454e47544800000081525060200191505060405180910390fd5b600061156d60018403615331565b60000160089054906101000a900467ffffffffffffffff1667ffffffffffffffff16141561159e57600090506116cf565b60006115e160016115b160018603615331565b60000160089054906101000a900467ffffffffffffffff1667ffffffffffffffff1661535c90919063ffffffff16565b90506000806115ee6153a6565b73ffffffffffffffffffffffffffffffffffffffff1663d29c000a87856040518363ffffffff1660e01b8152600401808373ffffffffffffffffffffffffffffffffffffffff1673ffffffffffffffffffffffffffffffffffffffff16815260200182815260200192505050604080518083038186803b15801561167157600080fd5b505afa158015611685573d6000803e3d6000fd5b505050506040513d604081101561169b57600080fd5b81019080805190602001909291908051906020019092919050505080925081935050506116c983838361540c565b93505050505b92915050565b6000806116e061712c565b6116e98461261d565b9050600080905060008090506000600190505b600260ff168110156117815761173c84826002811061171757fe5b602002015160006002811061172857fe5b60200201518461556490919063ffffffff16565b925061177284826002811061174d57fe5b602002015160016002811061175e57fe5b60200201518361556490919063ffffffff16565b915080806001019150506116fc565b50818194509450505050915091565b6000809054906101000a900473ffffffffffffffffffffffffffffffffffffffff1673ffffffffffffffffffffffffffffffffffffffff163373ffffffffffffffffffffffffffffffffffffffff1614611835576040517f08c379a000000000000000000000000000000000000000000000000000000000815260040180806020018281038252602f81526020018061730c602f913960400191505060405180910390fd5b80600360006101000a81548173ffffffffffffffffffffffffffffffffffffffff021916908373ffffffffffffffffffffffffffffffffffffffff16021790555050565b6000809054906101000a900473ffffffffffffffffffffffffffffffffffffffff1673ffffffffffffffffffffffffffffffffffffffff163373ffffffffffffffffffffffffffffffffffffffff161461191e576040517f08c379a000000000000000000000000000000000000000000000000000000000815260040180806020018281038252602f81526020018061730c602f913960400191505060405180910390fd5b80600160006101000a81548173ffffffffffffffffffffffffffffffffffffffff021916908373ffffffffffffffffffffffffffffffffffffffff1602179055507f906a1c6bd7e3091ea86693dd029a831c19049ce77f1dce2ce0bab1cacbabce2281604051808273ffffffffffffffffffffffffffffffffffffffff1673ffffffffffffffffffffffffffffffffffffffff16815260200191505060405180910390a150565b60055481565b6000809054906101000a900473ffffffffffffffffffffffffffffffffffffffff1673ffffffffffffffffffffffffffffffffffffffff163373ffffffffffffffffffffffffffffffffffffffff1614611a70576040517f08c379a000000000000000000000000000000000000000000000000000000000815260040180806020018281038252602f81526020018061730c602f913960400191505060405180910390fd5b600073ffffffffffffffffffffffffffffffffffffffff168173ffffffffffffffffffffffffffffffffffffffff161415611b13576040517f08c379a000000000000000000000000000000000000000000000000000000000815260040180806020018281038252601c8152602001807f42656e6566696369617279206d757374206e6f74206265207a65726f0000000081525060200191505060405180910390fd5b80600660016101000a81548173ffffffffffffffffffffffffffffffffffffffff021916908373ffffffffffffffffffffffffffffffffffffffff1602179055507fd5da63a0b864b315bc04128dedbc93888c8529ee6cf47ce664dc204339228c5381604051808273ffffffffffffffffffffffffffffffffffffffff1673ffffffffffffffffffffffffffffffffffffffff16815260200191505060405180910390a150565b60175481565b6000611bca6155ec565b73ffffffffffffffffffffffffffffffffffffffff163373ffffffffffffffffffffffffffffffffffffffff1614905060008060001b611c08615652565b73ffffffffffffffffffffffffffffffffffffffff166316b2213f336040518263ffffffff1660e01b8152600401808273ffffffffffffffffffffffffffffffffffffffff1673ffffffffffffffffffffffffffffffffffffffff16815260200191505060206040518083038186803b158015611c8457600080fd5b505afa158015611c98573d6000803e3d6000fd5b505050506040513d6020811015611cae57600080fd5b8101908080519060200190929190505050141590508180611ccc5750805b611d21576040517f08c379a00000000000000000000000000000000000000000000000000000000081526004018080602001828103825260218152602001806173d06021913960400191505060405180910390fd5b611d4183611d2f6000615331565b6001015461556490919063ffffffff16565b611d4b6000615331565b60010181905550505050565b600260009054906101000a900473ffffffffffffffffffffffffffffffffffffffff1673ffffffffffffffffffffffffffffffffffffffff163373ffffffffffffffffffffffffffffffffffffffff1614158015611e035750600360009054906101000a900473ffffffffffffffffffffffffffffffffffffffff1673ffffffffffffffffffffffffffffffffffffffff163373ffffffffffffffffffffffffffffffffffffffff1614155b8015611e5d57503373ffffffffffffffffffffffffffffffffffffffff16600460009054906101000a900473ffffffffffffffffffffffffffffffffffffffff1673ffffffffffffffffffffffffffffffffffffffff1614155b15611ea45733600460006101000a81548173ffffffffffffffffffffffffffffffffffffffff021916908373ffffffffffffffffffffffffffffffffffffffff1602179055505b6000809054906101000a900473ffffffffffffffffffffffffffffffffffffffff1673ffffffffffffffffffffffffffffffffffffffff16600460009054906101000a900473ffffffffffffffffffffffffffffffffffffffff1673ffffffffffffffffffffffffffffffffffffffff1614611f88576040517f08c379a00000000000000000000000000000000000000000000000000000000081526004018080602001828103825260138152602001807f4f776e6572206f6e6c792066756e6374696f6e0000000000000000000000000081525060200191505060405180910390fd5b818190508484905014612003576040517f08c379a00000000000000000000000000000000000000000000000000000000081526004018080602001828103825260188152602001807f4172726179206c656e6774687320646f6e74206d61746368000000000000000081525060200191505060405180910390fd5b60008090505b848490508110156121cb5767016345785d8a000083838381811061202957fe5b9050602002013511156120a4576040517f08c379a000000000000000000000000000000000000000000000000000000000815260040180806020018281038252601e8152602001807f4d41585f45584348414e47455f4645455f52415445206578636565646564000081525060200191505060405180910390fd5b6120ac6152e8565b73ffffffffffffffffffffffffffffffffffffffff16633562fd207f73796e74685f65786368616e67655f6665655f726174650000000000000000008787858181106120f457fe5b9050602002013560405160200180838152602001828152602001925050506040516020818303038152906040528051906020012085858581811061213457fe5b905060200201356040518363ffffffff1660e01b81526004018083815260200182815260200192505050600060405180830381600087803b15801561217857600080fd5b505af115801561218c573d6000803e3d6000fd5b505050506121be85858381811061219f57fe5b905060200201358484848181106121b257fe5b905060200201356156b8565b8080600101915050612009565b5050505050565b600260009054906101000a900473ffffffffffffffffffffffffffffffffffffffff1673ffffffffffffffffffffffffffffffffffffffff163373ffffffffffffffffffffffffffffffffffffffff161415801561227e5750600360009054906101000a900473ffffffffffffffffffffffffffffffffffffffff1673ffffffffffffffffffffffffffffffffffffffff163373ffffffffffffffffffffffffffffffffffffffff1614155b80156122d857503373ffffffffffffffffffffffffffffffffffffffff16600460009054906101000a900473ffffffffffffffffffffffffffffffffffffffff1673ffffffffffffffffffffffffffffffffffffffff1614155b1561231f5733600460006101000a81548173ffffffffffffffffffffffffffffffffffffffff021916908373ffffffffffffffffffffffffffffffffffffffff1602179055505b6000809054906101000a900473ffffffffffffffffffffffffffffffffffffffff1673ffffffffffffffffffffffffffffffffffffffff16600460009054906101000a900473ffffffffffffffffffffffffffffffffffffffff1673ffffffffffffffffffffffffffffffffffffffff1614612403576040517f08c379a00000000000000000000000000000000000000000000000000000000081526004018080602001828103825260138152602001807f4f776e6572206f6e6c792066756e6374696f6e0000000000000000000000000081525060200191505060405180910390fd5b603281111561247a576040517f08c379a00000000000000000000000000000000000000000000000000000000081526004018080602001828103825260128152602001807f5468726573686f6c6420746f6f2068696768000000000000000000000000000081525060200191505060405180910390fd5b61251e606461251073__SafeDecimalMath_______________________63907af6c06040518163ffffffff1660e01b815260040160206040518083038186803b1580156124c657600080fd5b505af41580156124da573d6000803e3d6000fd5b505050506040513d60208110156124f057600080fd5b81019080805190602001909291905050508461582190919063ffffffff16565b6158a790919063ffffffff16565b60188190555050565b6000809054906101000a900473ffffffffffffffffffffffffffffffffffffffff1673ffffffffffffffffffffffffffffffffffffffff163373ffffffffffffffffffffffffffffffffffffffff16146125cc576040517f08c379a000000000000000000000000000000000000000000000000000000000815260040180806020018281038252602f81526020018061730c602f913960400191505060405180910390fd5b60006005819055506000600660006101000a81548160ff0219169083151502179055507f6adcc7125002935e0aa31697538ebbd65cfddf20431eb6ecdcfc3e238bfd082c60405160405180910390a1565b61262561712c565b60008060006126326153a6565b90508073ffffffffffffffffffffffffffffffffffffffff1663b326f84e8660006040518363ffffffff1660e01b8152600401808373ffffffffffffffffffffffffffffffffffffffff1673ffffffffffffffffffffffffffffffffffffffff16815260200182815260200192505050604080518083038186803b1580156126b957600080fd5b505afa1580156126cd573d6000803e3d6000fd5b505050506040513d60408110156126e357600080fd5b81019080805190602001909291908051906020019092919050505080935081945050506000821480156127165750600083145b1561272f5761272361712c565b80945050505050612992565b60008061273e600086866158f1565b8092508193505050818660006002811061275457fe5b602002015160006002811061276557fe5b602002018181525050808660006002811061277c57fe5b602002015160016002811061278d57fe5b60200201818152505060006127a188611355565b90506000600160020360ff1690505b600081111561298a57600060018203905060006127cc82615331565b60000160089054906101000a900467ffffffffffffffff1667ffffffffffffffff169050600081118015612829575061280483615331565b60000160009054906101000a900467ffffffffffffffff1667ffffffffffffffff1684105b1561297a57600061284460018361535c90919063ffffffff16565b90508773ffffffffffffffffffffffffffffffffffffffff1663d29c000a8d836040518363ffffffff1660e01b8152600401808373ffffffffffffffffffffffffffffffffffffffff1673ffffffffffffffffffffffffffffffffffffffff16815260200182815260200192505050604080518083038186803b1580156128ca57600080fd5b505afa1580156128de573d6000803e3d6000fd5b505050506040513d60408110156128f457600080fd5b810190808051906020019092919080519060200190929190505050809a50819b505050612922848b8b6158f1565b8097508198505050868b856002811061293757fe5b602002015160006002811061294857fe5b602002018181525050858b856002811061295e57fe5b602002015160016002811061296f57fe5b602002018181525050505b50508080600190039150506127b0565b505050505050505b919050565b6000809054906101000a900473ffffffffffffffffffffffffffffffffffffffff1673ffffffffffffffffffffffffffffffffffffffff163373ffffffffffffffffffffffffffffffffffffffff1614612a3c576040517f08c379a000000000000000000000000000000000000000000000000000000000815260040180806020018281038252602f81526020018061730c602f913960400191505060405180910390fd5b80600860006101000a81548173ffffffffffffffffffffffffffffffffffffffff021916908373ffffffffffffffffffffffffffffffffffffffff16021790555060008090505b600a80549050811015612bf2576000600a8281548110612a9f57fe5b90600052602060002001549050600860009054906101000a900473ffffffffffffffffffffffffffffffffffffffff1673ffffffffffffffffffffffffffffffffffffffff1663dacb2d01826040518263ffffffff1660e01b81526004018082815260200180602001828103825260178152602001807f5265736f6c766572206d697373696e67207461726765740000000000000000008152506020019250505060206040518083038186803b158015612b5857600080fd5b505afa158015612b6c573d6000803e3d6000fd5b505050506040513d6020811015612b8257600080fd5b81019080805190602001909291905050506009600083815260200190815260200160002060006101000a81548173ffffffffffffffffffffffffffffffffffffffff021916908373ffffffffffffffffffffffffffffffffffffffff160217905550508080600101915050612a83565b5050565b612bfe6159d9565b73ffffffffffffffffffffffffffffffffffffffff16637c3125416040518163ffffffff1660e01b815260040160006040518083038186803b158015612c4357600080fd5b505afa158015612c57573d6000803e3d6000fd5b505050506017544203612c6a6000615331565b60000160109054906101000a900467ffffffffffffffff1667ffffffffffffffff161115612d00576040517f08c379a000000000000000000000000000000000000000000000000000000000815260040180806020018281038252601d8152602001807f546f6f206561726c7920746f20636c6f73652066656520706572696f6400000081525060200191505060405180910390fd5b6000612d116002800360ff16615331565b90506000612d25600160020360ff16615331565b9050612d588260010154612d4a8360020154846001015461535c90919063ffffffff16565b61556490919063ffffffff16565b612d676002800360ff16615331565b60010181905550612d9f8260030154612d918360040154846003015461535c90919063ffffffff16565b61556490919063ffffffff16565b612dae6002800360ff16615331565b60030181905550612df7600260ff16612de96001612ddb600260ff1660165461556490919063ffffffff16565b61535c90919063ffffffff16565b615a3f90919063ffffffff16565b601681905550600c60165460028110612e0c57fe5b60050201600080820160006101000a81549067ffffffffffffffff02191690556000820160086101000a81549067ffffffffffffffff02191690556000820160106101000a81549067ffffffffffffffff021916905560018201600090556002820160009055600382016000905560048201600090555050612ec36001612e936001615331565b60000160009054906101000a900467ffffffffffffffff1667ffffffffffffffff1661556490919063ffffffff16565b612ecd6000615331565b60000160006101000a81548167ffffffffffffffff021916908367ffffffffffffffff160217905550612efe615a89565b73ffffffffffffffffffffffffffffffffffffffff1663cd92eba96040518163ffffffff1660e01b815260040160206040518083038186803b158015612f4357600080fd5b505afa158015612f57573d6000803e3d6000fd5b505050506040513d6020811015612f6d57600080fd5b8101908080519060200190929190505050612f886000615331565b60000160086101000a81548167ffffffffffffffff021916908367ffffffffffffffff16021790555042612fbc6000615331565b60000160106101000a81548167ffffffffffffffff021916908367ffffffffffffffff160217905550613019612ff26001615331565b60000160009054906101000a900467ffffffffffffffff1667ffffffffffffffff16615aef565b5050565b6000806000806000806000613030617159565b61303989615331565b6040518060e00160405290816000820160009054906101000a900467ffffffffffffffff1667ffffffffffffffff1667ffffffffffffffff1681526020016000820160089054906101000a900467ffffffffffffffff1667ffffffffffffffff1667ffffffffffffffff1681526020016000820160109054906101000a900467ffffffffffffffff1667ffffffffffffffff1667ffffffffffffffff1681526020016001820154815260200160028201548152602001600382015481526020016004820154815250509050806000015181602001518260400151836060015184608001518560a001518660c00151975097509750975097509750975050919395979092949650565b60075481565b600160009054906101000a900473ffffffffffffffffffffffffffffffffffffffff1681565b600080600090506000600190505b600260ff168110156131d6576131a661319382615331565b600101548361556490919063ffffffff16565b91506131c76131b482615331565b600201548361535c90919063ffffffff16565b9150808060010191505061317b565b508091505090565b60006131e982615c6c565b5080915050919050565b60008173ffffffffffffffffffffffffffffffffffffffff16600860009054906101000a900473ffffffffffffffffffffffffffffffffffffffff1673ffffffffffffffffffffffffffffffffffffffff16146132535760009050613420565b60008090505b600a8054905081101561341a576000600a828154811061327557fe5b906000526020600020015490506009600082815260200190815260200160002060009054906101000a900473ffffffffffffffffffffffffffffffffffffffff1673ffffffffffffffffffffffffffffffffffffffff16600860009054906101000a900473ffffffffffffffffffffffffffffffffffffffff1673ffffffffffffffffffffffffffffffffffffffff166321f8a721836040518263ffffffff1660e01b81526004018082815260200191505060206040518083038186803b15801561333f57600080fd5b505afa158015613353573d6000803e3d6000fd5b505050506040513d602081101561336957600080fd5b810190808051906020019092919050505073ffffffffffffffffffffffffffffffffffffffff161415806133fc5750600073ffffffffffffffffffffffffffffffffffffffff166009600083815260200190815260200160002060009054906101000a900473ffffffffffffffffffffffffffffffffffffffff1673ffffffffffffffffffffffffffffffffffffffff16145b1561340c57600092505050613420565b508080600101915050613259565b50600190505b919050565b600061342f6159d9565b73ffffffffffffffffffffffffffffffffffffffff16637c3125416040518163ffffffff1660e01b815260040160006040518083038186803b15801561347457600080fd5b505afa158015613488573d6000803e3d6000fd5b50505050600260009054906101000a900473ffffffffffffffffffffffffffffffffffffffff1673ffffffffffffffffffffffffffffffffffffffff163373ffffffffffffffffffffffffffffffffffffffff16141580156135385750600360009054906101000a900473ffffffffffffffffffffffffffffffffffffffff1673ffffffffffffffffffffffffffffffffffffffff163373ffffffffffffffffffffffffffffffffffffffff1614155b801561359257503373ffffffffffffffffffffffffffffffffffffffff16600460009054906101000a900473ffffffffffffffffffffffffffffffffffffffff1673ffffffffffffffffffffffffffffffffffffffff1614155b156135d95733600460006101000a81548173ffffffffffffffffffffffffffffffffffffffff021916908373ffffffffffffffffffffffffffffffffffffffff1602179055505b6135e1615eb3565b73ffffffffffffffffffffffffffffffffffffffff166321f4ae5783600460009054906101000a900473ffffffffffffffffffffffffffffffffffffffff166040518363ffffffff1660e01b8152600401808373ffffffffffffffffffffffffffffffffffffffff1673ffffffffffffffffffffffffffffffffffffffff1681526020018273ffffffffffffffffffffffffffffffffffffffff1673ffffffffffffffffffffffffffffffffffffffff1681526020019250505060206040518083038186803b1580156136b357600080fd5b505afa1580156136c7573d6000803e3d6000fd5b505050506040513d60208110156136dd57600080fd5b8101908080519060200190929190505050613760576040517f08c379a000000000000000000000000000000000000000000000000000000000815260040180806020018281038252601f8152602001807f4e6f7420617070726f76656420746f20636c61696d206f6e20626568616c660081525060200191505060405180910390fd5b61376982615efc565b9050919050565b600080600090506000600190505b600260ff168110156137d9576137a961379682615331565b600301548361556490919063ffffffff16565b91506137ca6137b782615331565b600401548361535c90919063ffffffff16565b9150808060010191505061377e565b508091505090565b600160009054906101000a900473ffffffffffffffffffffffffffffffffffffffff1673ffffffffffffffffffffffffffffffffffffffff163373ffffffffffffffffffffffffffffffffffffffff1614613887576040517f08c379a00000000000000000000000000000000000000000000000000000000081526004018080602001828103825260358152602001806171fa6035913960400191505060405180910390fd5b7fb532073b38c83145e3e5135377a08bf9aab55bc0fd7c1179cd4fb995d2a5159c6000809054906101000a900473ffffffffffffffffffffffffffffffffffffffff16600160009054906101000a900473ffffffffffffffffffffffffffffffffffffffff16604051808373ffffffffffffffffffffffffffffffffffffffff1673ffffffffffffffffffffffffffffffffffffffff1681526020018273ffffffffffffffffffffffffffffffffffffffff1673ffffffffffffffffffffffffffffffffffffffff1681526020019250505060405180910390a1600160009054906101000a900473ffffffffffffffffffffffffffffffffffffffff166000806101000a81548173ffffffffffffffffffffffffffffffffffffffff021916908373ffffffffffffffffffffffffffffffffffffffff1602179055506000600160006101000a81548173ffffffffffffffffffffffffffffffffffffffff021916908373ffffffffffffffffffffffffffffffffffffffff160217905550565b6000613a116152e8565b73ffffffffffffffffffffffffffffffffffffffff1663bdc963d87f73796e74685f65786368616e67655f6665655f72617465000000000000000000846040516020018083815260200182815260200192505050604051602081830303815290604052805190602001206040518263ffffffff1660e01b81526004018082815260200191505060206040518083038186803b158015613aaf57600080fd5b505afa158015613ac3573d6000803e3d6000fd5b505050506040513d6020811015613ad957600080fd5b81019080805190602001909291905050509050919050565b613af9615652565b73ffffffffffffffffffffffffffffffffffffffff163373ffffffffffffffffffffffffffffffffffffffff1614613b99576040517f08c379a000000000000000000000000000000000000000000000000000000000815260040180806020018281038252601f8152602001807f466565506f6f6c3a204f6e6c792049737375657220417574686f72697365640081525060200191505060405180910390fd5b613ba16153a6565b73ffffffffffffffffffffffffffffffffffffffff166394e1a448848484613bc96000615331565b60000160089054906101000a900467ffffffffffffffff166040518563ffffffff1660e01b8152600401808573ffffffffffffffffffffffffffffffffffffffff1673ffffffffffffffffffffffffffffffffffffffff1681526020018481526020018381526020018267ffffffffffffffff168152602001945050505050600060405180830381600087803b158015613c6257600080fd5b505af1158015613c76573d6000803e3d6000fd5b50505050613cb1838383613c8a6000615331565b60000160089054906101000a900467ffffffffffffffff1667ffffffffffffffff16616104565b505050565b6000809054906101000a900473ffffffffffffffffffffffffffffffffffffffff1681565b6000809054906101000a900473ffffffffffffffffffffffffffffffffffffffff1673ffffffffffffffffffffffffffffffffffffffff163373ffffffffffffffffffffffffffffffffffffffff1614613d80576040517f08c379a000000000000000000000000000000000000000000000000000000000815260040180806020018281038252602f81526020018061730c602f913960400191505060405180910390fd5b80600260006101000a81548173ffffffffffffffffffffffffffffffffffffffff021916908373ffffffffffffffffffffffffffffffffffffffff1602179055507ffc80377ca9c49cc11ae6982f390a42db976d5530af7c43889264b13fbbd7c57e81604051808273ffffffffffffffffffffffffffffffffffffffff1673ffffffffffffffffffffffffffffffffffffffff16815260200191505060405180910390a150565b6000809054906101000a900473ffffffffffffffffffffffffffffffffffffffff1673ffffffffffffffffffffffffffffffffffffffff163373ffffffffffffffffffffffffffffffffffffffff1614613ecc576040517f08c379a000000000000000000000000000000000000000000000000000000000815260040180806020018281038252602f81526020018061730c602f913960400191505060405180910390fd5b600660009054906101000a900460ff16613f4e576040517f08c379a000000000000000000000000000000000000000000000000000000000815260040180806020018281038252601f8152602001807f53656c66204465737472756374206e6f742079657420696e697469617465640081525060200191505060405180910390fd5b426224ea006005540110613fca576040517f08c379a000000000000000000000000000000000000000000000000000000000815260040180806020018281038252601b8152602001807f53656c662064657374727563742064656c6179206e6f74206d6574000000000081525060200191505060405180910390fd5b7f8a09e1677ced846cb537dc2b172043bd05a1a81ad7e0033a7ef8ba762df990b7600660019054906101000a900473ffffffffffffffffffffffffffffffffffffffff16604051808273ffffffffffffffffffffffffffffffffffffffff1673ffffffffffffffffffffffffffffffffffffffff16815260200191505060405180910390a1600660019054906101000a900473ffffffffffffffffffffffffffffffffffffffff1673ffffffffffffffffffffffffffffffffffffffff16ff5b600360009054906101000a900473ffffffffffffffffffffffffffffffffffffffff1681565b6224ea0081565b6140bf6171b4565b60008090505b600a8054905081101561410c57600a81815481106140df57fe5b90600052602060002001548282601881106140f657fe5b60200201818152505080806001019150506140c5565b5090565b60008061411b615a89565b73ffffffffffffffffffffffffffffffffffffffff1663b410a0346040518163ffffffff1660e01b815260040160206040518083038186803b15801561416057600080fd5b505afa158015614174573d6000803e3d6000fd5b505050506040513d602081101561418a57600080fd5b8101908080519060200190929190505050905061424261423360185473__SafeDecimalMath_______________________63907af6c06040518163ffffffff1660e01b815260040160206040518083038186803b1580156141ea57600080fd5b505af41580156141fe573d6000803e3d6000fd5b505050506040513d602081101561421457600080fd5b810190808051906020019092919050505061556490919063ffffffff16565b8261628c90919063ffffffff16565b91505090565b600260009054906101000a900473ffffffffffffffffffffffffffffffffffffffff1673ffffffffffffffffffffffffffffffffffffffff163373ffffffffffffffffffffffffffffffffffffffff16141580156142f45750600360009054906101000a900473ffffffffffffffffffffffffffffffffffffffff1673ffffffffffffffffffffffffffffffffffffffff163373ffffffffffffffffffffffffffffffffffffffff1614155b801561434e57503373ffffffffffffffffffffffffffffffffffffffff16600460009054906101000a900473ffffffffffffffffffffffffffffffffffffffff1673ffffffffffffffffffffffffffffffffffffffff1614155b156143955733600460006101000a81548173ffffffffffffffffffffffffffffffffffffffff021916908373ffffffffffffffffffffffffffffffffffffffff1602179055505b6000809054906101000a900473ffffffffffffffffffffffffffffffffffffffff1673ffffffffffffffffffffffffffffffffffffffff16600460009054906101000a900473ffffffffffffffffffffffffffffffffffffffff1673ffffffffffffffffffffffffffffffffffffffff1614614479576040517f08c379a00000000000000000000000000000000000000000000000000000000081526004018080602001828103825260138152602001807f4f776e6572206f6e6c792066756e6374696f6e0000000000000000000000000081525060200191505060405180910390fd5b60075442106144d3576040517f08c379a000000000000000000000000000000000000000000000000000000000815260040180806020018281038252602981526020018061737f6029913960400191505060405180910390fd5b6144db615a89565b73ffffffffffffffffffffffffffffffffffffffff1663cd92eba96040518163ffffffff1660e01b815260040160206040518083038186803b15801561452057600080fd5b505afa158015614534573d6000803e3d6000fd5b505050506040513d602081101561454a57600080fd5b81019080805190602001909291905050508611156145d0576040517f08c379a00000000000000000000000000000000000000000000000000000000081526004018080602001828103825260168152602001807f43616e6e6f7420696d706f72742062616420646174610000000000000000000081525060200191505060405180910390fd5b6040518060e001604052808867ffffffffffffffff1681526020018767ffffffffffffffff1681526020018667ffffffffffffffff16815260200185815260200184815260200183815260200182815250600c61464e600260ff166146408c60165461556490919063ffffffff16565b615a3f90919063ffffffff16565b6002811061465857fe5b6005020160008201518160000160006101000a81548167ffffffffffffffff021916908367ffffffffffffffff16021790555060208201518160000160086101000a81548167ffffffffffffffff021916908367ffffffffffffffff16021790555060408201518160000160106101000a81548167ffffffffffffffff021916908367ffffffffffffffff160217905550606082015181600101556080820151816002015560a0820151816003015560c082015181600401559050505050505050505050565b600260009054906101000a900473ffffffffffffffffffffffffffffffffffffffff1673ffffffffffffffffffffffffffffffffffffffff163373ffffffffffffffffffffffffffffffffffffffff16141580156147ca5750600360009054906101000a900473ffffffffffffffffffffffffffffffffffffffff1673ffffffffffffffffffffffffffffffffffffffff163373ffffffffffffffffffffffffffffffffffffffff1614155b801561482457503373ffffffffffffffffffffffffffffffffffffffff16600460009054906101000a900473ffffffffffffffffffffffffffffffffffffffff1673ffffffffffffffffffffffffffffffffffffffff1614155b1561486b5733600460006101000a81548173ffffffffffffffffffffffffffffffffffffffff021916908373ffffffffffffffffffffffffffffffffffffffff1602179055505b6000809054906101000a900473ffffffffffffffffffffffffffffffffffffffff1673ffffffffffffffffffffffffffffffffffffffff16600460009054906101000a900473ffffffffffffffffffffffffffffffffffffffff1673ffffffffffffffffffffffffffffffffffffffff161461494f576040517f08c379a00000000000000000000000000000000000000000000000000000000081526004018080602001828103825260138152602001807f4f776e6572206f6e6c792066756e6374696f6e0000000000000000000000000081525060200191505060405180910390fd5b6149576162b9565b73ffffffffffffffffffffffffffffffffffffffff166323b872dd600460009054906101000a900473ffffffffffffffffffffffffffffffffffffffff1661499d61631f565b846040518463ffffffff1660e01b8152600401808473ffffffffffffffffffffffffffffffffffffffff1673ffffffffffffffffffffffffffffffffffffffff1681526020018373ffffffffffffffffffffffffffffffffffffffff1673ffffffffffffffffffffffffffffffffffffffff1681526020018281526020019350505050602060405180830381600087803b158015614a3a57600080fd5b505af1158015614a4e573d6000803e3d6000fd5b505050506040513d6020811015614a6457600080fd5b810190808051906020019092919050505050614a7e61631f565b73ffffffffffffffffffffffffffffffffffffffff1663b5ddb9c783836040518363ffffffff1660e01b8152600401808373ffffffffffffffffffffffffffffffffffffffff1673ffffffffffffffffffffffffffffffffffffffff16815260200182815260200192505050600060405180830381600087803b158015614b0457600080fd5b505af1158015614b18573d6000803e3d6000fd5b505050505050565b600660009054906101000a900460ff1681565b600260009054906101000a900473ffffffffffffffffffffffffffffffffffffffff1673ffffffffffffffffffffffffffffffffffffffff163373ffffffffffffffffffffffffffffffffffffffff161480614bdc5750600360009054906101000a900473ffffffffffffffffffffffffffffffffffffffff1673ffffffffffffffffffffffffffffffffffffffff163373ffffffffffffffffffffffffffffffffffffffff16145b614c4e576040517f08c379a00000000000000000000000000000000000000000000000000000000081526004018080602001828103825260178152602001807f4f6e6c79207468652070726f78792063616e2063616c6c00000000000000000081525060200191505060405180910390fd5b80600460006101000a81548173ffffffffffffffffffffffffffffffffffffffff021916908373ffffffffffffffffffffffffffffffffffffffff16021790555050565b6000809054906101000a900473ffffffffffffffffffffffffffffffffffffffff1673ffffffffffffffffffffffffffffffffffffffff163373ffffffffffffffffffffffffffffffffffffffff1614614d37576040517f08c379a000000000000000000000000000000000000000000000000000000000815260040180806020018281038252602f81526020018061730c602f913960400191505060405180910390fd5b426005819055506001600660006101000a81548160ff0219169083151502179055507fcbd94ca75b8dc45c9d80c77e851670e78843c0d75180cb81db3e2158228fa9a66224ea006040518082815260200191505060405180910390a1565b600660019054906101000a900473ffffffffffffffffffffffffffffffffffffffff1681565b600a8181548110614dc857fe5b906000526020600020016000915090505481565b600281565b6000614deb6159d9565b73ffffffffffffffffffffffffffffffffffffffff16637c3125416040518163ffffffff1660e01b815260040160006040518083038186803b158015614e3057600080fd5b505afa158015614e44573d6000803e3d6000fd5b50505050600260009054906101000a900473ffffffffffffffffffffffffffffffffffffffff1673ffffffffffffffffffffffffffffffffffffffff163373ffffffffffffffffffffffffffffffffffffffff1614158015614ef45750600360009054906101000a900473ffffffffffffffffffffffffffffffffffffffff1673ffffffffffffffffffffffffffffffffffffffff163373ffffffffffffffffffffffffffffffffffffffff1614155b8015614f4e57503373ffffffffffffffffffffffffffffffffffffffff16600460009054906101000a900473ffffffffffffffffffffffffffffffffffffffff1673ffffffffffffffffffffffffffffffffffffffff1614155b15614f955733600460006101000a81548173ffffffffffffffffffffffffffffffffffffffff021916908373ffffffffffffffffffffffffffffffffffffffff1602179055505b614fc0600460009054906101000a900473ffffffffffffffffffffffffffffffffffffffff16615efc565b905090565b6201518081565b600460009054906101000a900473ffffffffffffffffffffffffffffffffffffffff1681565b60185481565b601881565b73feefeefeefeefeefeefeefeefeefeefeefeefeef81565b600260009054906101000a900473ffffffffffffffffffffffffffffffffffffffff1681565b624f1a0081565b67016345785d8a000081565b6000615058616385565b90508073ffffffffffffffffffffffffffffffffffffffff16600460009054906101000a900473ffffffffffffffffffffffffffffffffffffffff1673ffffffffffffffffffffffffffffffffffffffff1614806150e157508073ffffffffffffffffffffffffffffffffffffffff163373ffffffffffffffffffffffffffffffffffffffff16145b615153576040517f08c379a000000000000000000000000000000000000000000000000000000000815260040180806020018281038252601e8152602001807f43616c6c6572206973206e6f742072657761726473417574686f72697479000081525060200191505060405180910390fd5b615173826151616000615331565b6003015461556490919063ffffffff16565b61517d6000615331565b600301819055505050565b600260009054906101000a900473ffffffffffffffffffffffffffffffffffffffff1673ffffffffffffffffffffffffffffffffffffffff1663907dff978260405160200180828152602001915050604051602081830303815290604052600160405180806172eb602191396021019050604051809103902060008060006040518763ffffffff1660e01b815260040180806020018781526020018681526020018560001b81526020018460001b81526020018360001b8152602001828103825288818151815260200191508051906020019080838360005b8381101561527c578082015181840152602081019050615261565b50505050905090810190601f1680156152a95780820380516001836020036101000a031916815260200191505b50975050505050505050600060405180830381600087803b1580156152cd57600080fd5b505af11580156152e1573d6000803e3d6000fd5b5050505050565b600061532c7f466565506f6f6c457465726e616c53746f7261676500000000000000000000006040518060600160405280602581526020016173f1602591396163ce565b905090565b6000600c600260ff1683601654018161534657fe5b066002811061535157fe5b600502019050919050565b600061539e83836040518060400160405280601e81526020017f536166654d6174683a207375627472616374696f6e206f766572666c6f7700008152506164ea565b905092915050565b60006154077f466565506f6f6c537461746500000000000000000000000000000000000000006040518060400160405280601c81526020017f4d697373696e6720466565506f6f6c53746174652061646472657373000000008152506163ce565b905090565b600080615417615a89565b90506000615556856155488473ffffffffffffffffffffffffffffffffffffffff166308d95cd5886040518263ffffffff1660e01b81526004018082815260200191505060206040518083038186803b15801561547357600080fd5b505afa158015615487573d6000803e3d6000fd5b505050506040513d602081101561549d57600080fd5b81019080805190602001909291905050508573ffffffffffffffffffffffffffffffffffffffff166308d95cd58b6040518263ffffffff1660e01b81526004018082815260200191505060206040518083038186803b1580156154ff57600080fd5b505afa158015615513573d6000803e3d6000fd5b505050506040513d602081101561552957600080fd5b81019080805190602001909291905050506165aa90919063ffffffff16565b6165c690919063ffffffff16565b905080925050509392505050565b6000808284019050838110156155e2576040517f08c379a000000000000000000000000000000000000000000000000000000000815260040180806020018281038252601b8152602001807f536166654d6174683a206164646974696f6e206f766572666c6f77000000000081525060200191505060405180910390fd5b8091505092915050565b600061564d7f45786368616e67657200000000000000000000000000000000000000000000006040518060400160405280601981526020017f4d697373696e672045786368616e6765722061646472657373000000000000008152506163ce565b905090565b60006156b37f49737375657200000000000000000000000000000000000000000000000000006040518060400160405280601681526020017f4d697373696e67204973737565722061646472657373000000000000000000008152506163ce565b905090565b600260009054906101000a900473ffffffffffffffffffffffffffffffffffffffff1673ffffffffffffffffffffffffffffffffffffffff1663907dff9783836040516020018083815260200182815260200192505050604051602081830303815290604052600160405180806173a8602891396028019050604051809103902060008060006040518763ffffffff1660e01b815260040180806020018781526020018681526020018560001b81526020018460001b81526020018360001b8152602001828103825288818151815260200191508051906020019080838360005b838110156157b4578082015181840152602081019050615799565b50505050905090810190601f1680156157e15780820380516001836020036101000a031916815260200191505b50975050505050505050600060405180830381600087803b15801561580557600080fd5b505af1158015615819573d6000803e3d6000fd5b505050505050565b60008083141561583457600090506158a1565b600082840290508284828161584557fe5b041461589c576040517f08c379a000000000000000000000000000000000000000000000000000000000815260040180806020018281038252602181526020018061735e6021913960400191505060405180910390fd5b809150505b92915050565b60006158e983836040518060400160405280601a81526020017f536166654d6174683a206469766973696f6e206279207a65726f0000000000008152506165e2565b905092915050565b600080600084141561590f57600080819150809050915091506159d1565b60008490506000861115615971576000615960600161593060018a03615331565b60000160089054906101000a900467ffffffffffffffff1667ffffffffffffffff1661535c90919063ffffffff16565b905061596d81878761540c565b9150505b60006159928261598089615331565b6001015461628c90919063ffffffff16565b905060006159b5836159a38a615331565b6003015461628c90919063ffffffff16565b90506159c0826166a8565b6159c9826166a8565b945094505050505b935093915050565b6000615a3a7f53797374656d53746174757300000000000000000000000000000000000000006040518060400160405280601c81526020017f4d697373696e672053797374656d5374617475732061646472657373000000008152506163ce565b905090565b6000615a8183836040518060400160405280601881526020017f536166654d6174683a206d6f64756c6f206279207a65726f00000000000000008152506166f7565b905092915050565b6000615aea7f53796e74686574697853746174650000000000000000000000000000000000006040518060400160405280601e81526020017f4d697373696e672053796e7468657469785374617465206164647265737300008152506163ce565b905090565b600260009054906101000a900473ffffffffffffffffffffffffffffffffffffffff1673ffffffffffffffffffffffffffffffffffffffff1663907dff978260405160200180828152602001915050604051602081830303815290604052600160405180807f466565506572696f64436c6f7365642875696e743235362900000000000000008152506018019050604051809103902060008060006040518763ffffffff1660e01b815260040180806020018781526020018681526020018560001b81526020018460001b81526020018360001b8152602001828103825288818151815260200191508051906020019080838360005b83811015615c00578082015181840152602081019050615be5565b50505050905090810190601f168015615c2d5780820380516001836020036101000a031916815260200191505b50975050505050505050600060405180830381600087803b158015615c5157600080fd5b505af1158015615c65573d6000803e3d6000fd5b5050505050565b600080600080615c7a615652565b73ffffffffffffffffffffffffffffffffffffffff1663a6eb4f95866040518263ffffffff1660e01b8152600401808273ffffffffffffffffffffffffffffffffffffffff1673ffffffffffffffffffffffffffffffffffffffff168152602001915050604080518083038186803b158015615cf557600080fd5b505afa158015615d09573d6000803e3d6000fd5b505050506040513d6040811015615d1f57600080fd5b810190808051906020019092919080519060200190929190505050915091506000615d48615a89565b73ffffffffffffffffffffffffffffffffffffffff1663b410a0346040518163ffffffff1660e01b815260040160206040518083038186803b158015615d8d57600080fd5b505afa158015615da1573d6000803e3d6000fd5b505050506040513d6020811015615db757600080fd5b8101908080519060200190929190505050905080831015615de15760018294509450505050615eae565b6000615e88615e7960185473__SafeDecimalMath_______________________63907af6c06040518163ffffffff1660e01b815260040160206040518083038186803b158015615e3057600080fd5b505af4158015615e44573d6000803e3d6000fd5b505050506040513d6020811015615e5a57600080fd5b810190808051906020019092919050505061556490919063ffffffff16565b8361628c90919063ffffffff16565b905080841115615ea2576000839550955050505050615eae565b60018395509550505050505b915091565b6000615ef77f44656c6567617465417070726f76616c73000000000000000000000000000000604051806060016040528060218152602001617253602191396163ce565b905090565b600080600090506000809050600080600080615f1788615c6c565b9150915081615f8e576040517f08c379a000000000000000000000000000000000000000000000000000000000815260040180806020018281038252601f8152602001807f432d526174696f2062656c6f772070656e616c7479207468726573686f6c640081525060200191505060405180910390fd5b8015616002576040517f08c379a000000000000000000000000000000000000000000000000000000000815260040180806020018281038252601c8152602001807f412073796e7468206f7220534e582072617465206973207374616c650000000081525060200191505060405180910390fd5b61600b886116d5565b809450819550505060008411806160225750600083115b616077576040517f08c379a00000000000000000000000000000000000000000000000000000000081526004018080602001828103825260408152602001806172ab6040913960400191505060405180910390fd5b6160ac886160856001615331565b60000160009054906101000a900467ffffffffffffffff1667ffffffffffffffff166167b8565b60008411156160cb576160be846168b3565b94506160ca88866169bf565b5b60008311156160ea576160dd83616c67565b95506160e98887616d78565b5b6160f5888688616eda565b60019650505050505050919050565b600260009054906101000a900473ffffffffffffffffffffffffffffffffffffffff1673ffffffffffffffffffffffffffffffffffffffff1663907dff978484846040516020018084815260200183815260200182815260200193505050506040516020818303038152906040526002604051808061727460379139603701905060405180910390208873ffffffffffffffffffffffffffffffffffffffff1660001b6000806040518763ffffffff1660e01b815260040180806020018781526020018681526020018581526020018460001b81526020018360001b8152602001828103825288818151815260200191508051906020019080838360005b8381101561621d578082015181840152602081019050616202565b50505050905090810190601f16801561624a5780820380516001836020036101000a031916815260200191505b50975050505050505050600060405180830381600087803b15801561626e57600080fd5b505af1158015616282573d6000803e3d6000fd5b5050505050505050565b6000601260ff16600a0a6162a9838561582190919063ffffffff16565b816162b057fe5b04905092915050565b600061631a7f53796e74686574697800000000000000000000000000000000000000000000006040518060400160405280601981526020017f4d697373696e672053796e7468657469782061646472657373000000000000008152506163ce565b905090565b60006163807f526577617264457363726f7700000000000000000000000000000000000000006040518060400160405280601c81526020017f4d697373696e6720526577617264457363726f772061646472657373000000008152506163ce565b905090565b60006163c97f52657761726473446973747269627574696f6e0000000000000000000000000060405180606001604052806023815260200161733b602391396163ce565b905090565b6000806009600085815260200190815260200160002060009054906101000a900473ffffffffffffffffffffffffffffffffffffffff169050600073ffffffffffffffffffffffffffffffffffffffff168173ffffffffffffffffffffffffffffffffffffffff16141583906164df576040517f08c379a00000000000000000000000000000000000000000000000000000000081526004018080602001828103825283818151815260200191508051906020019080838360005b838110156164a4578082015181840152602081019050616489565b50505050905090810190601f1680156164d15780820380516001836020036101000a031916815260200191505b509250505060405180910390fd5b508091505092915050565b6000838311158290616597576040517f08c379a00000000000000000000000000000000000000000000000000000000081526004018080602001828103825283818151815260200191508051906020019080838360005b8381101561655c578082015181840152602081019050616541565b50505050905090810190601f1680156165895780820380516001836020036101000a031916815260200191505b509250505060405180910390fd5b5060008385039050809150509392505050565b60006165be8383601b60ff16600a0a617078565b905092915050565b60006165da8383601b60ff16600a0a6170d3565b905092915050565b6000808311829061668e576040517f08c379a00000000000000000000000000000000000000000000000000000000081526004018080602001828103825283818151815260200191508051906020019080838360005b83811015616653578082015181840152602081019050616638565b50505050905090810190601f1680156166805780820380516001836020036101000a031916815260200191505b509250505060405180910390fd5b50600083858161669a57fe5b049050809150509392505050565b600080600a6012601b0360ff16600a0a816166bf57fe5b0483816166c857fe5b0490506005600a82816166d757fe5b06106166e457600a810190505b600a81816166ee57fe5b04915050919050565b60008083141582906167a4576040517f08c379a00000000000000000000000000000000000000000000000000000000081526004018080602001828103825283818151815260200191508051906020019080838360005b8381101561676957808201518184015260208101905061674e565b50505050905090810190601f1680156167965780820380516001836020036101000a031916815260200191505b509250505060405180910390fd5b508284816167ae57fe5b0690509392505050565b6167c06152e8565b73ffffffffffffffffffffffffffffffffffffffff16633562fd207f6c6173745f6665655f7769746864726177616c0000000000000000000000000084604051602001808381526020018273ffffffffffffffffffffffffffffffffffffffff1673ffffffffffffffffffffffffffffffffffffffff1660601b81526014019250505060405160208183030381529060405280519060200120836040518363ffffffff1660e01b81526004018083815260200182815260200192505050600060405180830381600087803b15801561689757600080fd5b505af11580156168ab573d6000803e3d6000fd5b505050505050565b600080829050600080600160020360ff1690505b600260ff168110156169b35760006168de82615331565b6002015490506000616905826168f385615331565b6001015461535c90919063ffffffff16565b905060008111156169a357600085821061691f5785616921565b815b9050616936818461556490919063ffffffff16565b61693f85615331565b60020181905550616959818761535c90919063ffffffff16565b955061696e818661556490919063ffffffff16565b94506000861415616987578496505050505050506169ba565b6000841480156169975750600086115b156169a157600095505b505b50508080600190039150506168c7565b5080925050505b919050565b8173feefeefeefeefeefeefeefeefeefeefeefeefeef73ffffffffffffffffffffffffffffffffffffffff168173ffffffffffffffffffffffffffffffffffffffff161415616a76576040517f08c379a00000000000000000000000000000000000000000000000000000000081526004018080602001828103825260178152602001807f4665652061646472657373206e6f7420616c6c6f77656400000000000000000081525060200191505060405180910390fd5b6000616a80615652565b73ffffffffffffffffffffffffffffffffffffffff166332608039600b546040518263ffffffff1660e01b81526004018082815260200191505060206040518083038186803b158015616ad257600080fd5b505afa158015616ae6573d6000803e3d6000fd5b505050506040513d6020811015616afc57600080fd5b810190808051906020019092919050505090508073ffffffffffffffffffffffffffffffffffffffff16639dc29fac73feefeefeefeefeefeefeefeefeefeefeefeefeef856040518363ffffffff1660e01b8152600401808373ffffffffffffffffffffffffffffffffffffffff1673ffffffffffffffffffffffffffffffffffffffff16815260200182815260200192505050600060405180830381600087803b158015616baa57600080fd5b505af1158015616bbe573d6000803e3d6000fd5b505050508073ffffffffffffffffffffffffffffffffffffffff1663867904b485856040518363ffffffff1660e01b8152600401808373ffffffffffffffffffffffffffffffffffffffff1673ffffffffffffffffffffffffffffffffffffffff16815260200182815260200192505050600060405180830381600087803b158015616c4957600080fd5b505af1158015616c5d573d6000803e3d6000fd5b5050505050505050565b600080829050600080600160020360ff1690505b600260ff16811015616d6c576000616cb4616c9583615331565b60040154616ca284615331565b6003015461535c90919063ffffffff16565b90506000811115616d5d576000848210616cce5784616cd0565b815b9050616cf181616cdf85615331565b6004015461556490919063ffffffff16565b616cfa84615331565b60040181905550616d14818661535c90919063ffffffff16565b9450616d29818561556490919063ffffffff16565b93506000851415616d41578395505050505050616d73565b600083148015616d515750600085115b15616d5b57600094505b505b50808060019003915050616c7b565b5080925050505b919050565b8173feefeefeefeefeefeefeefeefeefeefeefeefeef73ffffffffffffffffffffffffffffffffffffffff168173ffffffffffffffffffffffffffffffffffffffff161415616e2f576040517f08c379a00000000000000000000000000000000000000000000000000000000081526004018080602001828103825260178152602001807f4665652061646472657373206e6f7420616c6c6f77656400000000000000000081525060200191505060405180910390fd5b616e3761631f565b73ffffffffffffffffffffffffffffffffffffffff1663b5ddb9c784846040518363ffffffff1660e01b8152600401808373ffffffffffffffffffffffffffffffffffffffff1673ffffffffffffffffffffffffffffffffffffffff16815260200182815260200192505050600060405180830381600087803b158015616ebd57600080fd5b505af1158015616ed1573d6000803e3d6000fd5b50505050505050565b600260009054906101000a900473ffffffffffffffffffffffffffffffffffffffff1673ffffffffffffffffffffffffffffffffffffffff1663907dff97848484604051602001808473ffffffffffffffffffffffffffffffffffffffff1673ffffffffffffffffffffffffffffffffffffffff16815260200183815260200182815260200193505050506040516020818303038152906040526001604051808061722f602491396024019050604051809103902060008060006040518763ffffffff1660e01b815260040180806020018781526020018681526020018560001b81526020018460001b81526020018360001b8152602001828103825288818151815260200191508051906020019080838360005b8381101561700a578082015181840152602081019050616fef565b50505050905090810190601f1680156170375780820380516001836020036101000a031916815260200191505b50975050505050505050600060405180830381600087803b15801561705b57600080fd5b505af115801561706f573d6000803e3d6000fd5b50505050505050565b6000806170a384617095600a86028861582190919063ffffffff16565b6158a790919063ffffffff16565b90506005600a82816170b157fe5b06106170be57600a810190505b600a81816170c857fe5b049150509392505050565b600080600a83816170e057fe5b046170f4858761582190919063ffffffff16565b816170fb57fe5b0490506005600a828161710a57fe5b061061711757600a810190505b600a818161712157fe5b049150509392505050565b60405180604001604052806002905b6171436171d7565b81526020019060019003908161713b5790505090565b6040518060e00160405280600067ffffffffffffffff168152602001600067ffffffffffffffff168152602001600067ffffffffffffffff168152602001600081526020016000815260200160008152602001600081525090565b604051806103000160405280601890602082028038833980820191505090505090565b604051806040016040528060029060208202803883398082019150509050509056fe596f75206d757374206265206e6f6d696e61746564206265666f726520796f752063616e20616363657074206f776e65727368697046656573436c61696d656428616464726573732c75696e743235362c75696e74323536294d697373696e672044656c6567617465417070726f76616c73206164647265737349737375616e636544656274526174696f456e74727928616464726573732c75696e743235362c75696e743235362c75696e74323536294e6f2066656573206f72207265776172647320617661696c61626c6520666f7220706572696f642c206f72206665657320616c726561647920636c61696d6564466565506572696f644475726174696f6e557064617465642875696e74323536294f6e6c792074686520636f6e7472616374206f776e6572206d617920706572666f726d207468697320616374696f6e4d697373696e672052657761726473446973747269627574696f6e2061646472657373536166654d6174683a206d756c7469706c69636174696f6e206f766572666c6f7743616e206f6e6c7920706572666f726d207468697320616374696f6e20647572696e6720736574757053796e746845786368616e67654665655570646174656428627974657333322c75696e74323536294f6e6c792045786368616e6765722c2053796e74687320417574686f72697365644d697373696e6720466565506f6f6c457465726e616c53746f726167652061646472657373a265627a7a723158202f34c0cf502520874aae93ad571add11d9fdf092f443dc0a77d51c19968e4c2264736f6c63430005100032",
  "source": "pragma solidity ^0.5.16;\n\n// Inheritance\nimport \"./Owned.sol\";\nimport \"./Proxyable.sol\";\nimport \"./SelfDestructible.sol\";\nimport \"./LimitedSetup.sol\";\nimport \"./MixinResolver.sol\";\nimport \"./interfaces/IFeePool.sol\";\n\n// Libraries\nimport \"./SafeDecimalMath.sol\";\n\n// Internal references\nimport \"./interfaces/IERC20.sol\";\nimport \"./interfaces/ISynth.sol\";\nimport \"./interfaces/ISystemStatus.sol\";\nimport \"./interfaces/ISynthetix.sol\";\nimport \"./FeePoolState.sol\";\nimport \"./FeePoolEternalStorage.sol\";\nimport \"./interfaces/IExchanger.sol\";\nimport \"./interfaces/IIssuer.sol\";\nimport \"./interfaces/ISynthetixState.sol\";\nimport \"./interfaces/IRewardEscrow.sol\";\nimport \"./interfaces/IDelegateApprovals.sol\";\nimport \"./interfaces/IRewardsDistribution.sol\";\n\n\n// https://docs.synthetix.io/contracts/FeePool\ncontract FeePool is Owned, Proxyable, SelfDestructible, LimitedSetup, MixinResolver, IFeePool {\n    using SafeMath for uint;\n    using SafeDecimalMath for uint;\n\n    // Exchange fee may not exceed 10%.\n    uint public constant MAX_EXCHANGE_FEE_RATE = 1e18 / 10;\n\n    // Where fees are pooled in sUSD.\n    address public constant FEE_ADDRESS = 0xfeEFEEfeefEeFeefEEFEEfEeFeefEEFeeFEEFEeF;\n\n    // sUSD currencyKey. Fees stored and paid in sUSD\n    bytes32 private sUSD = \"sUSD\";\n\n    // This struct represents the issuance activity that's happened in a fee period.\n    struct FeePeriod {\n        uint64 feePeriodId;\n        uint64 startingDebtIndex;\n        uint64 startTime;\n        uint feesToDistribute;\n        uint feesClaimed;\n        uint rewardsToDistribute;\n        uint rewardsClaimed;\n    }\n\n    // A staker(mintr) can claim from the previous fee period (7 days) only.\n    // Fee Periods stored and managed from [0], such that [0] is always\n    // the current active fee period which is not claimable until the\n    // public function closeCurrentFeePeriod() is called closing the\n    // current weeks collected fees. [1] is last weeks feeperiod\n    uint8 public constant FEE_PERIOD_LENGTH = 2;\n\n    FeePeriod[FEE_PERIOD_LENGTH] private _recentFeePeriods;\n    uint256 private _currentFeePeriod;\n\n    // How long a fee period lasts at a minimum. It is required for\n    // anyone to roll over the periods, so they are not guaranteed\n    // to roll over at exactly this duration, but the contract enforces\n    // that they cannot roll over any quicker than this duration.\n    uint public feePeriodDuration = 1 weeks;\n    // The fee period must be between 1 day and 60 days.\n    uint public constant MIN_FEE_PERIOD_DURATION = 1 days;\n    uint public constant MAX_FEE_PERIOD_DURATION = 60 days;\n\n    // Users are unable to claim fees if their collateralisation ratio drifts out of target treshold\n    uint public targetThreshold = (1 * SafeDecimalMath.unit()) / 100;\n\n    /* ========== ADDRESS RESOLVER CONFIGURATION ========== */\n\n    bytes32 private constant CONTRACT_SYSTEMSTATUS = \"SystemStatus\";\n    bytes32 private constant CONTRACT_SYNTHETIX = \"Synthetix\";\n    bytes32 private constant CONTRACT_FEEPOOLSTATE = \"FeePoolState\";\n    bytes32 private constant CONTRACT_FEEPOOLETERNALSTORAGE = \"FeePoolEternalStorage\";\n    bytes32 private constant CONTRACT_EXCHANGER = \"Exchanger\";\n    bytes32 private constant CONTRACT_ISSUER = \"Issuer\";\n    bytes32 private constant CONTRACT_SYNTHETIXSTATE = \"SynthetixState\";\n    bytes32 private constant CONTRACT_REWARDESCROW = \"RewardEscrow\";\n    bytes32 private constant CONTRACT_DELEGATEAPPROVALS = \"DelegateApprovals\";\n    bytes32 private constant CONTRACT_REWARDSDISTRIBUTION = \"RewardsDistribution\";\n\n    bytes32[24] private addressesToCache = [\n        CONTRACT_SYSTEMSTATUS,\n        CONTRACT_SYNTHETIX,\n        CONTRACT_FEEPOOLSTATE,\n        CONTRACT_FEEPOOLETERNALSTORAGE,\n        CONTRACT_EXCHANGER,\n        CONTRACT_ISSUER,\n        CONTRACT_SYNTHETIXSTATE,\n        CONTRACT_REWARDESCROW,\n        CONTRACT_DELEGATEAPPROVALS,\n        CONTRACT_REWARDSDISTRIBUTION\n    ];\n\n    /* ========== ETERNAL STORAGE CONSTANTS ========== */\n\n    bytes32 private constant LAST_FEE_WITHDRAWAL = \"last_fee_withdrawal\";\n    bytes32 private constant SYNTH_EXCHANGE_FEE_RATE = \"synth_exchange_fee_rate\";\n\n    constructor(\n        address payable _proxy,\n        address _owner,\n        address _resolver\n    )\n        public\n        Owned(_owner)\n        SelfDestructible()\n        Proxyable(_proxy)\n        LimitedSetup(3 weeks)\n        MixinResolver(_resolver, addressesToCache)\n    {\n        // Set our initial fee period\n        _recentFeePeriodsStorage(0).feePeriodId = 1;\n        _recentFeePeriodsStorage(0).startTime = uint64(now);\n    }\n\n    /* ========== VIEWS ========== */\n\n    function systemStatus() internal view returns (ISystemStatus) {\n        return ISystemStatus(requireAndGetAddress(CONTRACT_SYSTEMSTATUS, \"Missing SystemStatus address\"));\n    }\n\n    function synthetix() internal view returns (ISynthetix) {\n        return ISynthetix(requireAndGetAddress(CONTRACT_SYNTHETIX, \"Missing Synthetix address\"));\n    }\n\n    function feePoolState() internal view returns (FeePoolState) {\n        return FeePoolState(requireAndGetAddress(CONTRACT_FEEPOOLSTATE, \"Missing FeePoolState address\"));\n    }\n\n    function feePoolEternalStorage() internal view returns (FeePoolEternalStorage) {\n        return\n            FeePoolEternalStorage(\n                requireAndGetAddress(CONTRACT_FEEPOOLETERNALSTORAGE, \"Missing FeePoolEternalStorage address\")\n            );\n    }\n\n    function exchanger() internal view returns (IExchanger) {\n        return IExchanger(requireAndGetAddress(CONTRACT_EXCHANGER, \"Missing Exchanger address\"));\n    }\n\n    function issuer() internal view returns (IIssuer) {\n        return IIssuer(requireAndGetAddress(CONTRACT_ISSUER, \"Missing Issuer address\"));\n    }\n\n    function synthetixState() internal view returns (ISynthetixState) {\n        return ISynthetixState(requireAndGetAddress(CONTRACT_SYNTHETIXSTATE, \"Missing SynthetixState address\"));\n    }\n\n    function rewardEscrow() internal view returns (IRewardEscrow) {\n        return IRewardEscrow(requireAndGetAddress(CONTRACT_REWARDESCROW, \"Missing RewardEscrow address\"));\n    }\n\n    function delegateApprovals() internal view returns (IDelegateApprovals) {\n        return IDelegateApprovals(requireAndGetAddress(CONTRACT_DELEGATEAPPROVALS, \"Missing DelegateApprovals address\"));\n    }\n\n    function rewardsDistribution() internal view returns (IRewardsDistribution) {\n        return\n            IRewardsDistribution(requireAndGetAddress(CONTRACT_REWARDSDISTRIBUTION, \"Missing RewardsDistribution address\"));\n    }\n\n    function recentFeePeriods(uint index)\n        external\n        view\n        returns (\n            uint64 feePeriodId,\n            uint64 startingDebtIndex,\n            uint64 startTime,\n            uint feesToDistribute,\n            uint feesClaimed,\n            uint rewardsToDistribute,\n            uint rewardsClaimed\n        )\n    {\n        FeePeriod memory feePeriod = _recentFeePeriodsStorage(index);\n        return (\n            feePeriod.feePeriodId,\n            feePeriod.startingDebtIndex,\n            feePeriod.startTime,\n            feePeriod.feesToDistribute,\n            feePeriod.feesClaimed,\n            feePeriod.rewardsToDistribute,\n            feePeriod.rewardsClaimed\n        );\n    }\n\n    function _recentFeePeriodsStorage(uint index) internal view returns (FeePeriod storage) {\n        return _recentFeePeriods[(_currentFeePeriod + index) % FEE_PERIOD_LENGTH];\n    }\n\n    /* ========== MUTATIVE FUNCTIONS ========== */\n\n    /**\n     * @notice Logs an accounts issuance data per fee period\n     * @param account Message.Senders account address\n     * @param debtRatio Debt percentage this account has locked after minting or burning their synth\n     * @param debtEntryIndex The index in the global debt ledger. synthetixState.issuanceData(account)\n     * @dev onlyIssuer to call me on synthetix.issue() & synthetix.burn() calls to store the locked SNX\n     * per fee period so we know to allocate the correct proportions of fees and rewards per period\n     */\n    function appendAccountIssuanceRecord(\n        address account,\n        uint debtRatio,\n        uint debtEntryIndex\n    ) external onlyIssuer {\n        feePoolState().appendAccountIssuanceRecord(\n            account,\n            debtRatio,\n            debtEntryIndex,\n            _recentFeePeriodsStorage(0).startingDebtIndex\n        );\n\n        emitIssuanceDebtRatioEntry(account, debtRatio, debtEntryIndex, _recentFeePeriodsStorage(0).startingDebtIndex);\n    }\n\n    /**\n     * @notice Set the fee period duration\n     */\n    function setFeePeriodDuration(uint _feePeriodDuration) external optionalProxy_onlyOwner {\n        require(_feePeriodDuration >= MIN_FEE_PERIOD_DURATION, \"value < MIN_FEE_PERIOD_DURATION\");\n        require(_feePeriodDuration <= MAX_FEE_PERIOD_DURATION, \"value > MAX_FEE_PERIOD_DURATION\");\n\n        feePeriodDuration = _feePeriodDuration;\n\n        emitFeePeriodDurationUpdated(_feePeriodDuration);\n    }\n\n    function setTargetThreshold(uint _percent) external optionalProxy_onlyOwner {\n        require(_percent <= 50, \"Threshold too high\");\n        targetThreshold = _percent.mul(SafeDecimalMath.unit()).div(100);\n    }\n\n    /**\n     * @notice The Exchanger contract informs us when fees are paid.\n     * @param amount susd amount in fees being paid.\n     */\n    function recordFeePaid(uint amount) external onlyExchangerOrSynth {\n        // Keep track off fees in sUSD in the open fee pool period.\n        _recentFeePeriodsStorage(0).feesToDistribute = _recentFeePeriodsStorage(0).feesToDistribute.add(amount);\n    }\n\n    /**\n     * @notice The RewardsDistribution contract informs us how many SNX rewards are sent to RewardEscrow to be claimed.\n     */\n    function setRewardsToDistribute(uint amount) external {\n        address rewardsAuthority = address(rewardsDistribution());\n        require(messageSender == rewardsAuthority || msg.sender == rewardsAuthority, \"Caller is not rewardsAuthority\");\n        // Add the amount of SNX rewards to distribute on top of any rolling unclaimed amount\n        _recentFeePeriodsStorage(0).rewardsToDistribute = _recentFeePeriodsStorage(0).rewardsToDistribute.add(amount);\n    }\n\n    /**\n     * @notice Close the current fee period and start a new one.\n     */\n    function closeCurrentFeePeriod() external issuanceActive {\n        require(_recentFeePeriodsStorage(0).startTime <= (now - feePeriodDuration), \"Too early to close fee period\");\n\n        // Note:  when FEE_PERIOD_LENGTH = 2, periodClosing is the current period & periodToRollover is the last open claimable period\n        FeePeriod storage periodClosing = _recentFeePeriodsStorage(FEE_PERIOD_LENGTH - 2);\n        FeePeriod storage periodToRollover = _recentFeePeriodsStorage(FEE_PERIOD_LENGTH - 1);\n\n        // Any unclaimed fees from the last period in the array roll back one period.\n        // Because of the subtraction here, they're effectively proportionally redistributed to those who\n        // have already claimed from the old period, available in the new period.\n        // The subtraction is important so we don't create a ticking time bomb of an ever growing\n        // number of fees that can never decrease and will eventually overflow at the end of the fee pool.\n        _recentFeePeriodsStorage(FEE_PERIOD_LENGTH - 2).feesToDistribute = periodToRollover\n            .feesToDistribute\n            .sub(periodToRollover.feesClaimed)\n            .add(periodClosing.feesToDistribute);\n        _recentFeePeriodsStorage(FEE_PERIOD_LENGTH - 2).rewardsToDistribute = periodToRollover\n            .rewardsToDistribute\n            .sub(periodToRollover.rewardsClaimed)\n            .add(periodClosing.rewardsToDistribute);\n\n        // Shift the previous fee periods across to make room for the new one.\n        _currentFeePeriod = _currentFeePeriod.add(FEE_PERIOD_LENGTH).sub(1).mod(FEE_PERIOD_LENGTH);\n\n        // Clear the first element of the array to make sure we don't have any stale values.\n        delete _recentFeePeriods[_currentFeePeriod];\n\n        // Open up the new fee period.\n        // Increment periodId from the recent closed period feePeriodId\n        _recentFeePeriodsStorage(0).feePeriodId = uint64(uint256(_recentFeePeriodsStorage(1).feePeriodId).add(1));\n        _recentFeePeriodsStorage(0).startingDebtIndex = uint64(synthetixState().debtLedgerLength());\n        _recentFeePeriodsStorage(0).startTime = uint64(now);\n\n        emitFeePeriodClosed(_recentFeePeriodsStorage(1).feePeriodId);\n    }\n\n    /**\n     * @notice Claim fees for last period when available or not already withdrawn.\n     */\n    function claimFees() external issuanceActive optionalProxy returns (bool) {\n        return _claimFees(messageSender);\n    }\n\n    /**\n     * @notice Delegated claimFees(). Call from the deletegated address\n     * and the fees will be sent to the claimingForAddress.\n     * approveClaimOnBehalf() must be called first to approve the deletage address\n     * @param claimingForAddress The account you are claiming fees for\n     */\n    function claimOnBehalf(address claimingForAddress) external issuanceActive optionalProxy returns (bool) {\n        require(delegateApprovals().canClaimFor(claimingForAddress, messageSender), \"Not approved to claim on behalf\");\n\n        return _claimFees(claimingForAddress);\n    }\n\n    function _claimFees(address claimingAddress) internal returns (bool) {\n        uint rewardsPaid = 0;\n        uint feesPaid = 0;\n        uint availableFees;\n        uint availableRewards;\n\n        // Address won't be able to claim fees if it is too far below the target c-ratio.\n        // It will need to burn synths then try claiming again.\n        (bool feesClaimable, bool anyRateIsStale) = _isFeesClaimableAndAnyRatesStale(claimingAddress);\n\n        require(feesClaimable, \"C-Ratio below penalty threshold\");\n\n        require(!anyRateIsStale, \"A synth or SNX rate is stale\");\n\n        // Get the claimingAddress available fees and rewards\n        (availableFees, availableRewards) = feesAvailable(claimingAddress);\n\n        require(\n            availableFees > 0 || availableRewards > 0,\n            \"No fees or rewards available for period, or fees already claimed\"\n        );\n\n        // Record the address has claimed for this period\n        _setLastFeeWithdrawal(claimingAddress, _recentFeePeriodsStorage(1).feePeriodId);\n\n        if (availableFees > 0) {\n            // Record the fee payment in our recentFeePeriods\n            feesPaid = _recordFeePayment(availableFees);\n\n            // Send them their fees\n            _payFees(claimingAddress, feesPaid);\n        }\n\n        if (availableRewards > 0) {\n            // Record the reward payment in our recentFeePeriods\n            rewardsPaid = _recordRewardPayment(availableRewards);\n\n            // Send them their rewards\n            _payRewards(claimingAddress, rewardsPaid);\n        }\n\n        emitFeesClaimed(claimingAddress, feesPaid, rewardsPaid);\n\n        return true;\n    }\n\n    /**\n     * @notice Admin function to import the FeePeriod data from the previous contract\n     */\n    function importFeePeriod(\n        uint feePeriodIndex,\n        uint feePeriodId,\n        uint startingDebtIndex,\n        uint startTime,\n        uint feesToDistribute,\n        uint feesClaimed,\n        uint rewardsToDistribute,\n        uint rewardsClaimed\n    ) public optionalProxy_onlyOwner onlyDuringSetup {\n        require(startingDebtIndex <= synthetixState().debtLedgerLength(), \"Cannot import bad data\");\n\n        _recentFeePeriods[_currentFeePeriod.add(feePeriodIndex).mod(FEE_PERIOD_LENGTH)] = FeePeriod({\n            feePeriodId: uint64(feePeriodId),\n            startingDebtIndex: uint64(startingDebtIndex),\n            startTime: uint64(startTime),\n            feesToDistribute: feesToDistribute,\n            feesClaimed: feesClaimed,\n            rewardsToDistribute: rewardsToDistribute,\n            rewardsClaimed: rewardsClaimed\n        });\n    }\n\n    function setExchangeFeeRateForSynths(bytes32[] calldata synthKeys, uint256[] calldata exchangeFeeRates) external optionalProxy_onlyOwner\n    {\n        require(synthKeys.length == exchangeFeeRates.length, \"Array lengths dont match\");\n        for (uint i = 0; i < synthKeys.length; i++) {\n            require(exchangeFeeRates[i] <= MAX_EXCHANGE_FEE_RATE, \"MAX_EXCHANGE_FEE_RATE exceeded\");\n            feePoolEternalStorage().setUIntValue(\n                keccak256(abi.encodePacked(SYNTH_EXCHANGE_FEE_RATE, synthKeys[i])),\n                exchangeFeeRates[i]\n            );\n            emitExchangeFeeUpdated(synthKeys[i], exchangeFeeRates[i]);\n        }\n    }\n\n    function getExchangeFeeRateForSynth(bytes32 synthKey) external view returns (uint exchangeFeeRate) {\n        exchangeFeeRate = feePoolEternalStorage().getUIntValue(\n            keccak256(abi.encodePacked(SYNTH_EXCHANGE_FEE_RATE, synthKey))\n        );\n    }\n\n    /**\n     * @notice Owner can escrow SNX. Owner to send the tokens to the RewardEscrow\n     * @param account Address to escrow tokens for\n     * @param quantity Amount of tokens to escrow\n     */\n    function appendVestingEntry(address account, uint quantity) public optionalProxy_onlyOwner {\n        // Transfer SNX from messageSender to the Reward Escrow\n        IERC20(address(synthetix())).transferFrom(messageSender, address(rewardEscrow()), quantity);\n\n        // Create Vesting Entry\n        rewardEscrow().appendVestingEntry(account, quantity);\n    }\n\n    /**\n     * @notice Record the fee payment in our recentFeePeriods.\n     * @param sUSDAmount The amount of fees priced in sUSD.\n     */\n    function _recordFeePayment(uint sUSDAmount) internal returns (uint) {\n        // Don't assign to the parameter\n        uint remainingToAllocate = sUSDAmount;\n\n        uint feesPaid;\n        // Start at the oldest period and record the amount, moving to newer periods\n        // until we've exhausted the amount.\n        // The condition checks for overflow because we're going to 0 with an unsigned int.\n        for (uint i = FEE_PERIOD_LENGTH - 1; i < FEE_PERIOD_LENGTH; i--) {\n            uint feesAlreadyClaimed = _recentFeePeriodsStorage(i).feesClaimed;\n            uint delta = _recentFeePeriodsStorage(i).feesToDistribute.sub(feesAlreadyClaimed);\n\n            if (delta > 0) {\n                // Take the smaller of the amount left to claim in the period and the amount we need to allocate\n                uint amountInPeriod = delta < remainingToAllocate ? delta : remainingToAllocate;\n\n                _recentFeePeriodsStorage(i).feesClaimed = feesAlreadyClaimed.add(amountInPeriod);\n                remainingToAllocate = remainingToAllocate.sub(amountInPeriod);\n                feesPaid = feesPaid.add(amountInPeriod);\n\n                // No need to continue iterating if we've recorded the whole amount;\n                if (remainingToAllocate == 0) return feesPaid;\n\n                // We've exhausted feePeriods to distribute and no fees remain in last period\n                // User last to claim would in this scenario have their remainder slashed\n                if (i == 0 && remainingToAllocate > 0) {\n                    remainingToAllocate = 0;\n                }\n            }\n        }\n\n        return feesPaid;\n    }\n\n    /**\n     * @notice Record the reward payment in our recentFeePeriods.\n     * @param snxAmount The amount of SNX tokens.\n     */\n    function _recordRewardPayment(uint snxAmount) internal returns (uint) {\n        // Don't assign to the parameter\n        uint remainingToAllocate = snxAmount;\n\n        uint rewardPaid;\n\n        // Start at the oldest period and record the amount, moving to newer periods\n        // until we've exhausted the amount.\n        // The condition checks for overflow because we're going to 0 with an unsigned int.\n        for (uint i = FEE_PERIOD_LENGTH - 1; i < FEE_PERIOD_LENGTH; i--) {\n            uint toDistribute = _recentFeePeriodsStorage(i).rewardsToDistribute.sub(\n                _recentFeePeriodsStorage(i).rewardsClaimed\n            );\n\n            if (toDistribute > 0) {\n                // Take the smaller of the amount left to claim in the period and the amount we need to allocate\n                uint amountInPeriod = toDistribute < remainingToAllocate ? toDistribute : remainingToAllocate;\n\n                _recentFeePeriodsStorage(i).rewardsClaimed = _recentFeePeriodsStorage(i).rewardsClaimed.add(amountInPeriod);\n                remainingToAllocate = remainingToAllocate.sub(amountInPeriod);\n                rewardPaid = rewardPaid.add(amountInPeriod);\n\n                // No need to continue iterating if we've recorded the whole amount;\n                if (remainingToAllocate == 0) return rewardPaid;\n\n                // We've exhausted feePeriods to distribute and no rewards remain in last period\n                // User last to claim would in this scenario have their remainder slashed\n                // due to rounding up of PreciseDecimal\n                if (i == 0 && remainingToAllocate > 0) {\n                    remainingToAllocate = 0;\n                }\n            }\n        }\n        return rewardPaid;\n    }\n\n    /**\n     * @notice Send the fees to claiming address.\n     * @param account The address to send the fees to.\n     * @param sUSDAmount The amount of fees priced in sUSD.\n     */\n    function _payFees(address account, uint sUSDAmount) internal notFeeAddress(account) {\n        // Grab the sUSD Synth\n        ISynth sUSDSynth = issuer().synths(sUSD);\n\n        // NOTE: we do not control the FEE_ADDRESS so it is not possible to do an\n        // ERC20.approve() transaction to allow this feePool to call ERC20.transferFrom\n        // to the accounts address\n\n        // Burn the source amount\n        sUSDSynth.burn(FEE_ADDRESS, sUSDAmount);\n\n        // Mint their new synths\n        sUSDSynth.issue(account, sUSDAmount);\n    }\n\n    /**\n     * @notice Send the rewards to claiming address - will be locked in rewardEscrow.\n     * @param account The address to send the fees to.\n     * @param snxAmount The amount of SNX.\n     */\n    function _payRewards(address account, uint snxAmount) internal notFeeAddress(account) {\n        // Record vesting entry for claiming address and amount\n        // SNX already minted to rewardEscrow balance\n        rewardEscrow().appendVestingEntry(account, snxAmount);\n    }\n\n    /**\n     * @notice The total fees available in the system to be withdrawnn in sUSD\n     */\n    function totalFeesAvailable() external view returns (uint) {\n        uint totalFees = 0;\n\n        // Fees in fee period [0] are not yet available for withdrawal\n        for (uint i = 1; i < FEE_PERIOD_LENGTH; i++) {\n            totalFees = totalFees.add(_recentFeePeriodsStorage(i).feesToDistribute);\n            totalFees = totalFees.sub(_recentFeePeriodsStorage(i).feesClaimed);\n        }\n\n        return totalFees;\n    }\n\n    /**\n     * @notice The total SNX rewards available in the system to be withdrawn\n     */\n    function totalRewardsAvailable() external view returns (uint) {\n        uint totalRewards = 0;\n\n        // Rewards in fee period [0] are not yet available for withdrawal\n        for (uint i = 1; i < FEE_PERIOD_LENGTH; i++) {\n            totalRewards = totalRewards.add(_recentFeePeriodsStorage(i).rewardsToDistribute);\n            totalRewards = totalRewards.sub(_recentFeePeriodsStorage(i).rewardsClaimed);\n        }\n\n        return totalRewards;\n    }\n\n    /**\n     * @notice The fees available to be withdrawn by a specific account, priced in sUSD\n     * @dev Returns two amounts, one for fees and one for SNX rewards\n     */\n    function feesAvailable(address account) public view returns (uint, uint) {\n        // Add up the fees\n        uint[2][FEE_PERIOD_LENGTH] memory userFees = feesByPeriod(account);\n\n        uint totalFees = 0;\n        uint totalRewards = 0;\n\n        // Fees & Rewards in fee period [0] are not yet available for withdrawal\n        for (uint i = 1; i < FEE_PERIOD_LENGTH; i++) {\n            totalFees = totalFees.add(userFees[i][0]);\n            totalRewards = totalRewards.add(userFees[i][1]);\n        }\n\n        // And convert totalFees to sUSD\n        // Return totalRewards as is in SNX amount\n        return (totalFees, totalRewards);\n    }\n\n    function _isFeesClaimableAndAnyRatesStale(address account) internal view returns (bool, bool) {\n        // Threshold is calculated from ratio % above the target ratio (issuanceRatio).\n        //  0  <  10%:   Claimable\n        // 10% > above:  Unable to claim\n        (uint ratio, bool anyRateIsStale) = issuer().collateralisationRatioAndAnyRatesStale(account);\n        uint targetRatio = synthetixState().issuanceRatio();\n\n        // Claimable if collateral ratio below target ratio\n        if (ratio < targetRatio) {\n            return (true, anyRateIsStale);\n        }\n\n        // Calculate the threshold for collateral ratio before fees can't be claimed.\n        uint ratio_threshold = targetRatio.multiplyDecimal(SafeDecimalMath.unit().add(targetThreshold));\n\n        // Not claimable if collateral ratio above threshold\n        if (ratio > ratio_threshold) {\n            return (false, anyRateIsStale);\n        }\n\n        return (true, anyRateIsStale);\n    }\n\n    function isFeesClaimable(address account) external view returns (bool feesClaimable) {\n        (feesClaimable, ) = _isFeesClaimableAndAnyRatesStale(account);\n    }\n\n    /**\n     * @notice Calculates fees by period for an account, priced in sUSD\n     * @param account The address you want to query the fees for\n     */\n    function feesByPeriod(address account) public view returns (uint[2][FEE_PERIOD_LENGTH] memory results) {\n        // What's the user's debt entry index and the debt they owe to the system at current feePeriod\n        uint userOwnershipPercentage;\n        uint debtEntryIndex;\n        FeePoolState _feePoolState = feePoolState();\n\n        (userOwnershipPercentage, debtEntryIndex) = _feePoolState.getAccountsDebtEntry(account, 0);\n\n        // If they don't have any debt ownership and they never minted, they don't have any fees.\n        // User ownership can reduce to 0 if user burns all synths,\n        // however they could have fees applicable for periods they had minted in before so we check debtEntryIndex.\n        if (debtEntryIndex == 0 && userOwnershipPercentage == 0) {\n            uint[2][FEE_PERIOD_LENGTH] memory nullResults;\n            return nullResults;\n        }\n\n        // The [0] fee period is not yet ready to claim, but it is a fee period that they can have\n        // fees owing for, so we need to report on it anyway.\n        uint feesFromPeriod;\n        uint rewardsFromPeriod;\n        (feesFromPeriod, rewardsFromPeriod) = _feesAndRewardsFromPeriod(0, userOwnershipPercentage, debtEntryIndex);\n\n        results[0][0] = feesFromPeriod;\n        results[0][1] = rewardsFromPeriod;\n\n        // Retrieve user's last fee claim by periodId\n        uint lastFeeWithdrawal = getLastFeeWithdrawal(account);\n\n        // Go through our fee periods from the oldest feePeriod[FEE_PERIOD_LENGTH - 1] and figure out what we owe them.\n        // Condition checks for periods > 0\n        for (uint i = FEE_PERIOD_LENGTH - 1; i > 0; i--) {\n            uint next = i - 1;\n            uint nextPeriodStartingDebtIndex = _recentFeePeriodsStorage(next).startingDebtIndex;\n\n            // We can skip the period, as no debt minted during period (next period's startingDebtIndex is still 0)\n            if (nextPeriodStartingDebtIndex > 0 && lastFeeWithdrawal < _recentFeePeriodsStorage(i).feePeriodId) {\n                // We calculate a feePeriod's closingDebtIndex by looking at the next feePeriod's startingDebtIndex\n                // we can use the most recent issuanceData[0] for the current feePeriod\n                // else find the applicableIssuanceData for the feePeriod based on the StartingDebtIndex of the period\n                uint closingDebtIndex = uint256(nextPeriodStartingDebtIndex).sub(1);\n\n                // Gas optimisation - to reuse debtEntryIndex if found new applicable one\n                // if applicable is 0,0 (none found) we keep most recent one from issuanceData[0]\n                // return if userOwnershipPercentage = 0)\n                (userOwnershipPercentage, debtEntryIndex) = _feePoolState.applicableIssuanceData(account, closingDebtIndex);\n\n                (feesFromPeriod, rewardsFromPeriod) = _feesAndRewardsFromPeriod(i, userOwnershipPercentage, debtEntryIndex);\n\n                results[i][0] = feesFromPeriod;\n                results[i][1] = rewardsFromPeriod;\n            }\n        }\n    }\n\n    /**\n     * @notice ownershipPercentage is a high precision decimals uint based on\n     * wallet's debtPercentage. Gives a precise amount of the feesToDistribute\n     * for fees in the period. Precision factor is removed before results are\n     * returned.\n     * @dev The reported fees owing for the current period [0] are just a\n     * running balance until the fee period closes\n     */\n    function _feesAndRewardsFromPeriod(\n        uint period,\n        uint ownershipPercentage,\n        uint debtEntryIndex\n    ) internal view returns (uint, uint) {\n        // If it's zero, they haven't issued, and they have no fees OR rewards.\n        if (ownershipPercentage == 0) return (0, 0);\n\n        uint debtOwnershipForPeriod = ownershipPercentage;\n\n        // If period has closed we want to calculate debtPercentage for the period\n        if (period > 0) {\n            uint closingDebtIndex = uint256(_recentFeePeriodsStorage(period - 1).startingDebtIndex).sub(1);\n            debtOwnershipForPeriod = _effectiveDebtRatioForPeriod(closingDebtIndex, ownershipPercentage, debtEntryIndex);\n        }\n\n        // Calculate their percentage of the fees / rewards in this period\n        // This is a high precision integer.\n        uint feesFromPeriod = _recentFeePeriodsStorage(period).feesToDistribute.multiplyDecimal(debtOwnershipForPeriod);\n\n        uint rewardsFromPeriod = _recentFeePeriodsStorage(period).rewardsToDistribute.multiplyDecimal(\n            debtOwnershipForPeriod\n        );\n\n        return (feesFromPeriod.preciseDecimalToDecimal(), rewardsFromPeriod.preciseDecimalToDecimal());\n    }\n\n    function _effectiveDebtRatioForPeriod(\n        uint closingDebtIndex,\n        uint ownershipPercentage,\n        uint debtEntryIndex\n    ) internal view returns (uint) {\n        // Figure out their global debt percentage delta at end of fee Period.\n        // This is a high precision integer.\n        ISynthetixState _synthetixState = synthetixState();\n        uint feePeriodDebtOwnership = _synthetixState\n            .debtLedger(closingDebtIndex)\n            .divideDecimalRoundPrecise(_synthetixState.debtLedger(debtEntryIndex))\n            .multiplyDecimalRoundPrecise(ownershipPercentage);\n\n        return feePeriodDebtOwnership;\n    }\n\n    function effectiveDebtRatioForPeriod(address account, uint period) external view returns (uint) {\n        require(period != 0, \"Current period is not closed yet\");\n        require(period < FEE_PERIOD_LENGTH, \"Exceeds the FEE_PERIOD_LENGTH\");\n\n        // If the period being checked is uninitialised then return 0. This is only at the start of the system.\n        if (_recentFeePeriodsStorage(period - 1).startingDebtIndex == 0) return 0;\n\n        uint closingDebtIndex = uint256(_recentFeePeriodsStorage(period - 1).startingDebtIndex).sub(1);\n\n        uint ownershipPercentage;\n        uint debtEntryIndex;\n        (ownershipPercentage, debtEntryIndex) = feePoolState().applicableIssuanceData(account, closingDebtIndex);\n\n        // internal function will check closingDebtIndex has corresponding debtLedger entry\n        return _effectiveDebtRatioForPeriod(closingDebtIndex, ownershipPercentage, debtEntryIndex);\n    }\n\n    /**\n     * @notice Get the feePeriodID of the last claim this account made\n     * @param _claimingAddress account to check the last fee period ID claim for\n     * @return uint of the feePeriodID this account last claimed\n     */\n    function getLastFeeWithdrawal(address _claimingAddress) public view returns (uint) {\n        return feePoolEternalStorage().getUIntValue(keccak256(abi.encodePacked(LAST_FEE_WITHDRAWAL, _claimingAddress)));\n    }\n\n    /**\n     * @notice Calculate the collateral ratio before user is blocked from claiming.\n     */\n    function getPenaltyThresholdRatio() public view returns (uint) {\n        uint targetRatio = synthetixState().issuanceRatio();\n\n        return targetRatio.multiplyDecimal(SafeDecimalMath.unit().add(targetThreshold));\n    }\n\n    /**\n     * @notice Set the feePeriodID of the last claim this account made\n     * @param _claimingAddress account to set the last feePeriodID claim for\n     * @param _feePeriodID the feePeriodID this account claimed fees for\n     */\n    function _setLastFeeWithdrawal(address _claimingAddress, uint _feePeriodID) internal {\n        feePoolEternalStorage().setUIntValue(\n            keccak256(abi.encodePacked(LAST_FEE_WITHDRAWAL, _claimingAddress)),\n            _feePeriodID\n        );\n    }\n\n    /* ========== Modifiers ========== */\n    modifier onlyExchangerOrSynth {\n        bool isExchanger = msg.sender == address(exchanger());\n        bool isSynth = issuer().synthsByAddress(msg.sender) != bytes32(0);\n\n        require(isExchanger || isSynth, \"Only Exchanger, Synths Authorised\");\n        _;\n    }\n\n    modifier onlyIssuer {\n        require(msg.sender == address(issuer()), \"FeePool: Only Issuer Authorised\");\n        _;\n    }\n\n    modifier notFeeAddress(address account) {\n        require(account != FEE_ADDRESS, \"Fee address not allowed\");\n        _;\n    }\n\n    modifier issuanceActive() {\n        systemStatus().requireIssuanceActive();\n        _;\n    }\n\n    /* ========== Proxy Events ========== */\n\n    event IssuanceDebtRatioEntry(\n        address indexed account,\n        uint debtRatio,\n        uint debtEntryIndex,\n        uint feePeriodStartingDebtIndex\n    );\n    bytes32 private constant ISSUANCEDEBTRATIOENTRY_SIG = keccak256(\n        \"IssuanceDebtRatioEntry(address,uint256,uint256,uint256)\"\n    );\n\n    function emitIssuanceDebtRatioEntry(\n        address account,\n        uint debtRatio,\n        uint debtEntryIndex,\n        uint feePeriodStartingDebtIndex\n    ) internal {\n        proxy._emit(\n            abi.encode(debtRatio, debtEntryIndex, feePeriodStartingDebtIndex),\n            2,\n            ISSUANCEDEBTRATIOENTRY_SIG,\n            bytes32(uint256(uint160(account))),\n            0,\n            0\n        );\n    }\n\n    event SynthExchangeFeeUpdated(bytes32 synthKey, uint newExchangeFeeRate);\n    bytes32 private constant SYNTHEXCHANGEFEEUPDATED_SIG = keccak256(\"SynthExchangeFeeUpdated(bytes32,uint256)\");\n\n    function emitExchangeFeeUpdated(bytes32 synthKey, uint newExchangeFeeRate) internal {\n        proxy._emit(abi.encode(synthKey, newExchangeFeeRate), 1, SYNTHEXCHANGEFEEUPDATED_SIG, 0, 0, 0);\n    }\n\n    event FeePeriodDurationUpdated(uint newFeePeriodDuration);\n    bytes32 private constant FEEPERIODDURATIONUPDATED_SIG = keccak256(\"FeePeriodDurationUpdated(uint256)\");\n\n    function emitFeePeriodDurationUpdated(uint newFeePeriodDuration) internal {\n        proxy._emit(abi.encode(newFeePeriodDuration), 1, FEEPERIODDURATIONUPDATED_SIG, 0, 0, 0);\n    }\n\n    event FeePeriodClosed(uint feePeriodId);\n    bytes32 private constant FEEPERIODCLOSED_SIG = keccak256(\"FeePeriodClosed(uint256)\");\n\n    function emitFeePeriodClosed(uint feePeriodId) internal {\n        proxy._emit(abi.encode(feePeriodId), 1, FEEPERIODCLOSED_SIG, 0, 0, 0);\n    }\n\n    event FeesClaimed(address account, uint sUSDAmount, uint snxRewards);\n    bytes32 private constant FEESCLAIMED_SIG = keccak256(\"FeesClaimed(address,uint256,uint256)\");\n\n    function emitFeesClaimed(\n        address account,\n        uint sUSDAmount,\n        uint snxRewards\n    ) internal {\n        proxy._emit(abi.encode(account, sUSDAmount, snxRewards), 1, FEESCLAIMED_SIG, 0, 0, 0);\n    }\n}\n",
  "sourcePath": "/Users/qizhang/Development/truffle_test2/contracts/FeePool.sol",
  "compiler": {
    "name": "solc",
    "version": "0.5.16+commit.9c3226ce.Emscripten.clang"
  },
  "schemaVersion": "3.2.1",
  "updatedAt": "2020-07-05T03:58:12.912Z",
  "devdoc": {
    "methods": {
      "appendAccountIssuanceRecord(address,uint256,uint256)": {
        "details": "onlyIssuer to call me on synthetix.issue() & synthetix.burn() calls to store the locked SNX per fee period so we know to allocate the correct proportions of fees and rewards per period",
        "params": {
          "account": "Message.Senders account address",
          "debtEntryIndex": "The index in the global debt ledger. synthetixState.issuanceData(account)",
          "debtRatio": "Debt percentage this account has locked after minting or burning their synth"
        }
      },
      "appendVestingEntry(address,uint256)": {
        "params": {
          "account": "Address to escrow tokens for",
          "quantity": "Amount of tokens to escrow"
        }
      },
      "claimOnBehalf(address)": {
        "params": {
          "claimingForAddress": "The account you are claiming fees for"
        }
      },
      "feesAvailable(address)": {
        "details": "Returns two amounts, one for fees and one for SNX rewards"
      },
      "feesByPeriod(address)": {
        "params": {
          "account": "The address you want to query the fees for"
        }
      },
      "getLastFeeWithdrawal(address)": {
        "params": {
          "_claimingAddress": "account to check the last fee period ID claim for"
        },
        "return": "uint of the feePeriodID this account last claimed"
      },
      "initiateSelfDestruct()": {
        "details": "Only the contract owner may call this."
      },
      "recordFeePaid(uint256)": {
        "params": {
          "amount": "susd amount in fees being paid."
        }
      },
      "selfDestruct()": {
        "details": "Only the contract owner may call this."
      },
      "setSelfDestructBeneficiary(address)": {
        "details": "Only the contract owner may call this. The provided beneficiary must be non-null.",
        "params": {
          "_beneficiary": "The address to pay any eth contained in this contract to upon self-destruction."
        }
      },
      "terminateSelfDestruct()": {
        "details": "Only the contract owner may call this."
      }
    }
  },
  "userdoc": {
    "methods": {
      "appendAccountIssuanceRecord(address,uint256,uint256)": {
        "notice": "Logs an accounts issuance data per fee period"
      },
      "appendVestingEntry(address,uint256)": {
        "notice": "Owner can escrow SNX. Owner to send the tokens to the RewardEscrow"
      },
      "claimFees()": {
        "notice": "Claim fees for last period when available or not already withdrawn."
      },
      "claimOnBehalf(address)": {
        "notice": "Delegated claimFees(). Call from the deletegated address and the fees will be sent to the claimingForAddress. approveClaimOnBehalf() must be called first to approve the deletage address"
      },
      "closeCurrentFeePeriod()": {
        "notice": "Close the current fee period and start a new one."
      },
      "feesAvailable(address)": {
        "notice": "The fees available to be withdrawn by a specific account, priced in sUSD"
      },
      "feesByPeriod(address)": {
        "notice": "Calculates fees by period for an account, priced in sUSD"
      },
      "getLastFeeWithdrawal(address)": {
        "notice": "Get the feePeriodID of the last claim this account made"
      },
      "getPenaltyThresholdRatio()": {
        "notice": "Calculate the collateral ratio before user is blocked from claiming."
      },
      "importFeePeriod(uint256,uint256,uint256,uint256,uint256,uint256,uint256,uint256)": {
        "notice": "Admin function to import the FeePeriod data from the previous contract"
      },
      "initiateSelfDestruct()": {
        "notice": "Begin the self-destruction counter of this contract. Once the delay has elapsed, the contract may be self-destructed."
      },
      "recordFeePaid(uint256)": {
        "notice": "The Exchanger contract informs us when fees are paid."
      },
      "selfDestruct()": {
        "notice": "If the self-destruction delay has elapsed, destroy this contract and remit any ether it owns to the beneficiary address."
      },
      "setFeePeriodDuration(uint256)": {
        "notice": "Set the fee period duration"
      },
      "setRewardsToDistribute(uint256)": {
        "notice": "The RewardsDistribution contract informs us how many SNX rewards are sent to RewardEscrow to be claimed."
      },
      "setSelfDestructBeneficiary(address)": {
        "notice": "Set the beneficiary address of this contract."
      },
      "terminateSelfDestruct()": {
        "notice": "Terminate and reset the self-destruction timer."
      },
      "totalFeesAvailable()": {
        "notice": "The total fees available in the system to be withdrawnn in sUSD"
      },
      "totalRewardsAvailable()": {
        "notice": "The total SNX rewards available in the system to be withdrawn"
      }
    }
  }
}