{
  "contractName": "Issuer",
  "abi": [
    {
      "inputs": [
        {
          "internalType": "address",
          "name": "_owner",
          "type": "address"
        },
        {
          "internalType": "address",
          "name": "_resolver",
          "type": "address"
        }
      ],
      "payable": false,
      "stateMutability": "nonpayable",
      "type": "constructor"
    },
    {
      "anonymous": false,
      "inputs": [
        {
          "indexed": false,
          "internalType": "uint256",
          "name": "minimumStakeTime",
          "type": "uint256"
        }
      ],
      "name": "MinimumStakeTimeUpdated",
      "type": "event"
    },
    {
      "anonymous": false,
      "inputs": [
        {
          "indexed": false,
          "internalType": "address",
          "name": "oldOwner",
          "type": "address"
        },
        {
          "indexed": false,
          "internalType": "address",
          "name": "newOwner",
          "type": "address"
        }
      ],
      "name": "OwnerChanged",
      "type": "event"
    },
    {
      "anonymous": false,
      "inputs": [
        {
          "indexed": false,
          "internalType": "address",
          "name": "newOwner",
          "type": "address"
        }
      ],
      "name": "OwnerNominated",
      "type": "event"
    },
    {
      "anonymous": false,
      "inputs": [
        {
          "indexed": false,
          "internalType": "bytes32",
          "name": "currencyKey",
          "type": "bytes32"
        },
        {
          "indexed": false,
          "internalType": "address",
          "name": "synth",
          "type": "address"
        }
      ],
      "name": "SynthAdded",
      "type": "event"
    },
    {
      "anonymous": false,
      "inputs": [
        {
          "indexed": false,
          "internalType": "bytes32",
          "name": "currencyKey",
          "type": "bytes32"
        },
        {
          "indexed": false,
          "internalType": "address",
          "name": "synth",
          "type": "address"
        }
      ],
      "name": "SynthRemoved",
      "type": "event"
    },
    {
      "constant": true,
      "inputs": [],
      "name": "LAST_ISSUE_EVENT",
      "outputs": [
        {
          "internalType": "bytes32",
          "name": "",
          "type": "bytes32"
        }
      ],
      "payable": false,
      "stateMutability": "view",
      "type": "function"
    },
    {
      "constant": true,
      "inputs": [],
      "name": "MAX_ADDRESSES_FROM_RESOLVER",
      "outputs": [
        {
          "internalType": "uint256",
          "name": "",
          "type": "uint256"
        }
      ],
      "payable": false,
      "stateMutability": "view",
      "type": "function"
    },
    {
      "constant": true,
      "inputs": [],
      "name": "MAX_MINIMUM_STAKING_TIME",
      "outputs": [
        {
          "internalType": "uint256",
          "name": "",
          "type": "uint256"
        }
      ],
      "payable": false,
      "stateMutability": "view",
      "type": "function"
    },
    {
      "constant": false,
      "inputs": [],
      "name": "acceptOwnership",
      "outputs": [],
      "payable": false,
      "stateMutability": "nonpayable",
      "type": "function"
    },
    {
      "constant": true,
      "inputs": [
        {
          "internalType": "uint256",
          "name": "",
          "type": "uint256"
        }
      ],
      "name": "availableSynths",
      "outputs": [
        {
          "internalType": "contract ISynth",
          "name": "",
          "type": "address"
        }
      ],
      "payable": false,
      "stateMutability": "view",
      "type": "function"
    },
    {
      "constant": true,
      "inputs": [],
      "name": "getResolverAddressesRequired",
      "outputs": [
        {
          "internalType": "bytes32[24]",
          "name": "addressesRequired",
          "type": "bytes32[24]"
        }
      ],
      "payable": false,
      "stateMutability": "view",
      "type": "function"
    },
    {
      "constant": true,
      "inputs": [
        {
          "internalType": "contract AddressResolver",
          "name": "_resolver",
          "type": "address"
        }
      ],
      "name": "isResolverCached",
      "outputs": [
        {
          "internalType": "bool",
          "name": "",
          "type": "bool"
        }
      ],
      "payable": false,
      "stateMutability": "view",
      "type": "function"
    },
    {
      "constant": true,
      "inputs": [],
      "name": "minimumStakeTime",
      "outputs": [
        {
          "internalType": "uint256",
          "name": "",
          "type": "uint256"
        }
      ],
      "payable": false,
      "stateMutability": "view",
      "type": "function"
    },
    {
      "constant": false,
      "inputs": [
        {
          "internalType": "address",
          "name": "_owner",
          "type": "address"
        }
      ],
      "name": "nominateNewOwner",
      "outputs": [],
      "payable": false,
      "stateMutability": "nonpayable",
      "type": "function"
    },
    {
      "constant": true,
      "inputs": [],
      "name": "nominatedOwner",
      "outputs": [
        {
          "internalType": "address",
          "name": "",
          "type": "address"
        }
      ],
      "payable": false,
      "stateMutability": "view",
      "type": "function"
    },
    {
      "constant": true,
      "inputs": [],
      "name": "owner",
      "outputs": [
        {
          "internalType": "address",
          "name": "",
          "type": "address"
        }
      ],
      "payable": false,
      "stateMutability": "view",
      "type": "function"
    },
    {
      "constant": true,
      "inputs": [],
      "name": "resolver",
      "outputs": [
        {
          "internalType": "contract AddressResolver",
          "name": "",
          "type": "address"
        }
      ],
      "payable": false,
      "stateMutability": "view",
      "type": "function"
    },
    {
      "constant": true,
      "inputs": [
        {
          "internalType": "uint256",
          "name": "",
          "type": "uint256"
        }
      ],
      "name": "resolverAddressesRequired",
      "outputs": [
        {
          "internalType": "bytes32",
          "name": "",
          "type": "bytes32"
        }
      ],
      "payable": false,
      "stateMutability": "view",
      "type": "function"
    },
    {
      "constant": false,
      "inputs": [
        {
          "internalType": "contract AddressResolver",
          "name": "_resolver",
          "type": "address"
        }
      ],
      "name": "setResolverAndSyncCache",
      "outputs": [],
      "payable": false,
      "stateMutability": "nonpayable",
      "type": "function"
    },
    {
      "constant": true,
      "inputs": [
        {
          "internalType": "bytes32",
          "name": "",
          "type": "bytes32"
        }
      ],
      "name": "synths",
      "outputs": [
        {
          "internalType": "contract ISynth",
          "name": "",
          "type": "address"
        }
      ],
      "payable": false,
      "stateMutability": "view",
      "type": "function"
    },
    {
      "constant": true,
      "inputs": [
        {
          "internalType": "address",
          "name": "",
          "type": "address"
        }
      ],
      "name": "synthsByAddress",
      "outputs": [
        {
          "internalType": "bytes32",
          "name": "",
          "type": "bytes32"
        }
      ],
      "payable": false,
      "stateMutability": "view",
      "type": "function"
    },
    {
      "constant": true,
      "inputs": [
        {
          "internalType": "address",
          "name": "account",
          "type": "address"
        }
      ],
      "name": "canBurnSynths",
      "outputs": [
        {
          "internalType": "bool",
          "name": "",
          "type": "bool"
        }
      ],
      "payable": false,
      "stateMutability": "view",
      "type": "function"
    },
    {
      "constant": true,
      "inputs": [],
      "name": "availableCurrencyKeys",
      "outputs": [
        {
          "internalType": "bytes32[]",
          "name": "",
          "type": "bytes32[]"
        }
      ],
      "payable": false,
      "stateMutability": "view",
      "type": "function"
    },
    {
      "constant": true,
      "inputs": [],
      "name": "availableSynthCount",
      "outputs": [
        {
          "internalType": "uint256",
          "name": "",
          "type": "uint256"
        }
      ],
      "payable": false,
      "stateMutability": "view",
      "type": "function"
    },
    {
      "constant": true,
      "inputs": [],
      "name": "anySynthOrSNXRateIsStale",
      "outputs": [
        {
          "internalType": "bool",
          "name": "anyRateStale",
          "type": "bool"
        }
      ],
      "payable": false,
      "stateMutability": "view",
      "type": "function"
    },
    {
      "constant": true,
      "inputs": [
        {
          "internalType": "bytes32",
          "name": "currencyKey",
          "type": "bytes32"
        },
        {
          "internalType": "bool",
          "name": "excludeEtherCollateral",
          "type": "bool"
        }
      ],
      "name": "totalIssuedSynths",
      "outputs": [
        {
          "internalType": "uint256",
          "name": "totalIssued",
          "type": "uint256"
        }
      ],
      "payable": false,
      "stateMutability": "view",
      "type": "function"
    },
    {
      "constant": true,
      "inputs": [
        {
          "internalType": "address",
          "name": "account",
          "type": "address"
        }
      ],
      "name": "lastIssueEvent",
      "outputs": [
        {
          "internalType": "uint256",
          "name": "",
          "type": "uint256"
        }
      ],
      "payable": false,
      "stateMutability": "view",
      "type": "function"
    },
    {
      "constant": true,
      "inputs": [
        {
          "internalType": "address",
          "name": "_issuer",
          "type": "address"
        }
      ],
      "name": "collateralisationRatio",
      "outputs": [
        {
          "internalType": "uint256",
          "name": "cratio",
          "type": "uint256"
        }
      ],
      "payable": false,
      "stateMutability": "view",
      "type": "function"
    },
    {
      "constant": true,
      "inputs": [
        {
          "internalType": "address",
          "name": "_issuer",
          "type": "address"
        }
      ],
      "name": "collateralisationRatioAndAnyRatesStale",
      "outputs": [
        {
          "internalType": "uint256",
          "name": "cratio",
          "type": "uint256"
        },
        {
          "internalType": "bool",
          "name": "anyRateIsStale",
          "type": "bool"
        }
      ],
      "payable": false,
      "stateMutability": "view",
      "type": "function"
    },
    {
      "constant": true,
      "inputs": [
        {
          "internalType": "address",
          "name": "account",
          "type": "address"
        }
      ],
      "name": "collateral",
      "outputs": [
        {
          "internalType": "uint256",
          "name": "",
          "type": "uint256"
        }
      ],
      "payable": false,
      "stateMutability": "view",
      "type": "function"
    },
    {
      "constant": true,
      "inputs": [
        {
          "internalType": "address",
          "name": "_issuer",
          "type": "address"
        },
        {
          "internalType": "bytes32",
          "name": "currencyKey",
          "type": "bytes32"
        }
      ],
      "name": "debtBalanceOf",
      "outputs": [
        {
          "internalType": "uint256",
          "name": "debtBalance",
          "type": "uint256"
        }
      ],
      "payable": false,
      "stateMutability": "view",
      "type": "function"
    },
    {
      "constant": true,
      "inputs": [
        {
          "internalType": "address",
          "name": "_issuer",
          "type": "address"
        }
      ],
      "name": "remainingIssuableSynths",
      "outputs": [
        {
          "internalType": "uint256",
          "name": "maxIssuable",
          "type": "uint256"
        },
        {
          "internalType": "uint256",
          "name": "alreadyIssued",
          "type": "uint256"
        },
        {
          "internalType": "uint256",
          "name": "totalSystemDebt",
          "type": "uint256"
        }
      ],
      "payable": false,
      "stateMutability": "view",
      "type": "function"
    },
    {
      "constant": true,
      "inputs": [
        {
          "internalType": "address",
          "name": "_issuer",
          "type": "address"
        }
      ],
      "name": "maxIssuableSynths",
      "outputs": [
        {
          "internalType": "uint256",
          "name": "",
          "type": "uint256"
        }
      ],
      "payable": false,
      "stateMutability": "view",
      "type": "function"
    },
    {
      "constant": true,
      "inputs": [
        {
          "internalType": "address",
          "name": "account",
          "type": "address"
        },
        {
          "internalType": "uint256",
          "name": "balance",
          "type": "uint256"
        }
      ],
      "name": "transferableSynthetixAndAnyRateIsStale",
      "outputs": [
        {
          "internalType": "uint256",
          "name": "transferable",
          "type": "uint256"
        },
        {
          "internalType": "bool",
          "name": "anyRateIsStale",
          "type": "bool"
        }
      ],
      "payable": false,
      "stateMutability": "view",
      "type": "function"
    },
    {
      "constant": false,
      "inputs": [
        {
          "internalType": "uint256",
          "name": "_seconds",
          "type": "uint256"
        }
      ],
      "name": "setMinimumStakeTime",
      "outputs": [],
      "payable": false,
      "stateMutability": "nonpayable",
      "type": "function"
    },
    {
      "constant": false,
      "inputs": [
        {
          "internalType": "contract ISynth",
          "name": "synth",
          "type": "address"
        }
      ],
      "name": "addSynth",
      "outputs": [],
      "payable": false,
      "stateMutability": "nonpayable",
      "type": "function"
    },
    {
      "constant": false,
      "inputs": [
        {
          "internalType": "bytes32",
          "name": "currencyKey",
          "type": "bytes32"
        }
      ],
      "name": "removeSynth",
      "outputs": [],
      "payable": false,
      "stateMutability": "nonpayable",
      "type": "function"
    },
    {
      "constant": false,
      "inputs": [
        {
          "internalType": "address",
          "name": "issueForAddress",
          "type": "address"
        },
        {
          "internalType": "address",
          "name": "from",
          "type": "address"
        },
        {
          "internalType": "uint256",
          "name": "amount",
          "type": "uint256"
        }
      ],
      "name": "issueSynthsOnBehalf",
      "outputs": [],
      "payable": false,
      "stateMutability": "nonpayable",
      "type": "function"
    },
    {
      "constant": false,
      "inputs": [
        {
          "internalType": "address",
          "name": "issueForAddress",
          "type": "address"
        },
        {
          "internalType": "address",
          "name": "from",
          "type": "address"
        }
      ],
      "name": "issueMaxSynthsOnBehalf",
      "outputs": [],
      "payable": false,
      "stateMutability": "nonpayable",
      "type": "function"
    },
    {
      "constant": false,
      "inputs": [
        {
          "internalType": "address",
          "name": "from",
          "type": "address"
        },
        {
          "internalType": "uint256",
          "name": "amount",
          "type": "uint256"
        }
      ],
      "name": "issueSynths",
      "outputs": [],
      "payable": false,
      "stateMutability": "nonpayable",
      "type": "function"
    },
    {
      "constant": false,
      "inputs": [
        {
          "internalType": "address",
          "name": "from",
          "type": "address"
        }
      ],
      "name": "issueMaxSynths",
      "outputs": [],
      "payable": false,
      "stateMutability": "nonpayable",
      "type": "function"
    },
    {
      "constant": false,
      "inputs": [
        {
          "internalType": "address",
          "name": "burnForAddress",
          "type": "address"
        },
        {
          "internalType": "address",
          "name": "from",
          "type": "address"
        },
        {
          "internalType": "uint256",
          "name": "amount",
          "type": "uint256"
        }
      ],
      "name": "burnSynthsOnBehalf",
      "outputs": [],
      "payable": false,
      "stateMutability": "nonpayable",
      "type": "function"
    },
    {
      "constant": false,
      "inputs": [
        {
          "internalType": "address",
          "name": "from",
          "type": "address"
        },
        {
          "internalType": "uint256",
          "name": "amount",
          "type": "uint256"
        }
      ],
      "name": "burnSynths",
      "outputs": [],
      "payable": false,
      "stateMutability": "nonpayable",
      "type": "function"
    },
    {
      "constant": false,
      "inputs": [
        {
          "internalType": "address",
          "name": "burnForAddress",
          "type": "address"
        },
        {
          "internalType": "address",
          "name": "from",
          "type": "address"
        }
      ],
      "name": "burnSynthsToTargetOnBehalf",
      "outputs": [],
      "payable": false,
      "stateMutability": "nonpayable",
      "type": "function"
    },
    {
      "constant": false,
      "inputs": [
        {
          "internalType": "address",
          "name": "from",
          "type": "address"
        }
      ],
      "name": "burnSynthsToTarget",
      "outputs": [],
      "payable": false,
      "stateMutability": "nonpayable",
      "type": "function"
    },
    {
      "constant": false,
      "inputs": [
        {
          "internalType": "address",
          "name": "account",
          "type": "address"
        },
        {
          "internalType": "uint256",
          "name": "susdAmount",
          "type": "uint256"
        },
        {
          "internalType": "address",
          "name": "liquidator",
          "type": "address"
        }
      ],
      "name": "liquidateDelinquentAccount",
      "outputs": [
        {
          "internalType": "uint256",
          "name": "totalRedeemed",
          "type": "uint256"
        },
        {
          "internalType": "uint256",
          "name": "amountToLiquidate",
          "type": "uint256"
        }
      ],
      "payable": false,
      "stateMutability": "nonpayable",
      "type": "function"
    }
  ],
  "bytecode": "0x6080604052620151806005556040518061016001604052807f53796e746865746978000000000000000000000000000000000000000000000081526020017f45786368616e676572000000000000000000000000000000000000000000000081526020017f45786368616e676552617465730000000000000000000000000000000000000081526020017f53796e746865746978537461746500000000000000000000000000000000000081526020017f466565506f6f6c0000000000000000000000000000000000000000000000000081526020017f44656c6567617465417070726f76616c7300000000000000000000000000000081526020017f49737375616e6365457465726e616c53746f726167650000000000000000000081526020017f4574686572436f6c6c61746572616c000000000000000000000000000000000081526020017f526577617264457363726f77000000000000000000000000000000000000000081526020017f53796e746865746978457363726f77000000000000000000000000000000000081526020017f4c69717569646174696f6e730000000000000000000000000000000000000000815250600990600b620001c99291906200056b565b50348015620001d757600080fd5b50604051620076843803806200768483398181016040526040811015620001fd57600080fd5b81019080805190602001909291908051906020019092919050505080600960188060200260405190810160405280929190826018801562000254576020028201915b8154815260200190600101908083116200023f575b505050505083600073ffffffffffffffffffffffffffffffffffffffff168173ffffffffffffffffffffffffffffffffffffffff161415620002fe576040517f08c379a00000000000000000000000000000000000000000000000000000000081526004018080602001828103825260198152602001807f4f776e657220616464726573732063616e6e6f7420626520300000000000000081525060200191505060405180910390fd5b806000806101000a81548173ffffffffffffffffffffffffffffffffffffffff021916908373ffffffffffffffffffffffffffffffffffffffff1602179055507fb532073b38c83145e3e5135377a08bf9aab55bc0fd7c1179cd4fb995d2a5159c600082604051808373ffffffffffffffffffffffffffffffffffffffff1673ffffffffffffffffffffffffffffffffffffffff1681526020018273ffffffffffffffffffffffffffffffffffffffff1673ffffffffffffffffffffffffffffffffffffffff1681526020019250505060405180910390a150600073ffffffffffffffffffffffffffffffffffffffff166000809054906101000a900473ffffffffffffffffffffffffffffffffffffffff1673ffffffffffffffffffffffffffffffffffffffff1614156200049c576040517f08c379a00000000000000000000000000000000000000000000000000000000081526004018080602001828103825260118152602001807f4f776e6572206d7573742062652073657400000000000000000000000000000081525060200191505060405180910390fd5b60008090505b60188110156200051f576000801b828260188110620004bd57fe5b6020020151146200050b576004828260188110620004d757fe5b6020020151908060018154018082558091505090600182039060005260206000200160009091929091909150555062000511565b6200051f565b8080600101915050620004a2565b5081600260006101000a81548173ffffffffffffffffffffffffffffffffffffffff021916908373ffffffffffffffffffffffffffffffffffffffff16021790555050505050620005d8565b82601881019282156200059d579160200282015b828111156200059c5782518255916020019190600101906200057f565b5b509050620005ac9190620005b0565b5090565b620005d591905b80821115620005d1576000816000905550600101620005b7565b5090565b90565b61709c80620005e86000396000f3fe608060405234801561001057600080fd5b50600436106102535760003560e01c8063849cf58811610146578063bff4fdfc116100c3578063dbf6334011610087578063dbf6334014610d42578063dd3d2b2e14610d60578063e3235c9114610db8578063e942204614610dd6578063f354cad114610e04578063fd864ccf14610e2657610253565b8063bff4fdfc14610b91578063c6c9d82814610bed578063c897713214610c2f578063d37c4d8b14610c73578063db2b91cf14610cd557610253565b8063a5fdc5de1161010a578063a5fdc5de146109b9578063a63c4df414610a11578063a6eb4f9514610a9a578063ab49848c14610afd578063b06e8c6514610b4357610253565b8063849cf588146108475780638ce2f55b1461088b5780638da5cb5b146108a95780639a5154b4146108f3578063a311c7c21461096157610253565b806332608039116101d4578063631e144411610198578063631e1444146106c657806372cb051f1461072257806379ba5097146107815780637b1001b71461078b578063835e119c146107d957610253565b806332608039146105185780633be99e6f1461058657806344ec6b62146105ca578063497d704a1461063857806353a47bb71461067c57610253565b8063129e05e61161021b578063129e05e6146103dc5780631627540c146103fa57806316b2213f1461043e578063242df9e1146104965780632b3f41aa146104b457610253565b8063042e06881461025857806304f3bcec146102a657806305b3c1c9146102f05780630b887dae146103485780631137aedf14610376575b600080fd5b6102a46004803603604081101561026e57600080fd5b81019080803573ffffffffffffffffffffffffffffffffffffffff16906020019092919080359060200190929190505050610e8a565b005b6102ae61102a565b604051808273ffffffffffffffffffffffffffffffffffffffff1673ffffffffffffffffffffffffffffffffffffffff16815260200191505060405180910390f35b6103326004803603602081101561030657600080fd5b81019080803573ffffffffffffffffffffffffffffffffffffffff169060200190929190505050611050565b6040518082815260200191505060405180910390f35b6103746004803603602081101561035e57600080fd5b8101908080359060200190929190505050611062565b005b6103b86004803603602081101561038c57600080fd5b81019080803573ffffffffffffffffffffffffffffffffffffffff169060200190929190505050611665565b60405180848152602001838152602001828152602001935050505060405180910390f35b6103e4611687565b6040518082815260200191505060405180910390f35b61043c6004803603602081101561041057600080fd5b81019080803573ffffffffffffffffffffffffffffffffffffffff1690602001909291905050506116ab565b005b6104806004803603602081101561045457600080fd5b81019080803573ffffffffffffffffffffffffffffffffffffffff1690602001909291905050506117f7565b6040518082815260200191505060405180910390f35b61049e61180f565b6040518082815260200191505060405180910390f35b610516600480360360408110156104ca57600080fd5b81019080803573ffffffffffffffffffffffffffffffffffffffff169060200190929190803573ffffffffffffffffffffffffffffffffffffffff169060200190929190505050611815565b005b6105446004803603602081101561052e57600080fd5b8101908080359060200190929190505050611a12565b604051808273ffffffffffffffffffffffffffffffffffffffff1673ffffffffffffffffffffffffffffffffffffffff16815260200191505060405180910390f35b6105c86004803603602081101561059c57600080fd5b81019080803573ffffffffffffffffffffffffffffffffffffffff169060200190929190505050611a45565b005b610636600480360360608110156105e057600080fd5b81019080803573ffffffffffffffffffffffffffffffffffffffff169060200190929190803573ffffffffffffffffffffffffffffffffffffffff16906020019092919080359060200190929190505050611ca4565b005b61067a6004803603602081101561064e57600080fd5b81019080803573ffffffffffffffffffffffffffffffffffffffff169060200190929190505050611faa565b005b610684612041565b604051808273ffffffffffffffffffffffffffffffffffffffff1673ffffffffffffffffffffffffffffffffffffffff16815260200191505060405180910390f35b610708600480360360208110156106dc57600080fd5b81019080803573ffffffffffffffffffffffffffffffffffffffff169060200190929190505050612067565b604051808215151515815260200191505060405180910390f35b61072a612299565b6040518080602001828103825283818151815260200191508051906020019060200280838360005b8381101561076d578082015181840152602081019050610752565b505050509050019250505060405180910390f35b6107896122aa565b005b6107c3600480360360408110156107a157600080fd5b81019080803590602001909291908035151590602001909291905050506124d0565b6040518082815260200191505060405180910390f35b610805600480360360208110156107ef57600080fd5b81019080803590602001909291905050506124e7565b604051808273ffffffffffffffffffffffffffffffffffffffff1673ffffffffffffffffffffffffffffffffffffffff16815260200191505060405180910390f35b6108896004803603602081101561085d57600080fd5b81019080803573ffffffffffffffffffffffffffffffffffffffff169060200190929190505050612523565b005b610893612944565b6040518082815260200191505060405180910390f35b6108b161294b565b604051808273ffffffffffffffffffffffffffffffffffffffff1673ffffffffffffffffffffffffffffffffffffffff16815260200191505060405180910390f35b61095f6004803603606081101561090957600080fd5b81019080803573ffffffffffffffffffffffffffffffffffffffff169060200190929190803573ffffffffffffffffffffffffffffffffffffffff16906020019092919080359060200190929190505050612970565b005b6109a36004803603602081101561097757600080fd5b81019080803573ffffffffffffffffffffffffffffffffffffffff169060200190929190505050612b6f565b6040518082815260200191505060405180910390f35b6109fb600480360360208110156109cf57600080fd5b81019080803573ffffffffffffffffffffffffffffffffffffffff169060200190929190505050612b84565b6040518082815260200191505060405180910390f35b610a7d60048036036060811015610a2757600080fd5b81019080803573ffffffffffffffffffffffffffffffffffffffff16906020019092919080359060200190929190803573ffffffffffffffffffffffffffffffffffffffff169060200190929190505050612b96565b604051808381526020018281526020019250505060405180910390f35b610adc60048036036020811015610ab057600080fd5b81019080803573ffffffffffffffffffffffffffffffffffffffff1690602001909291905050506136dc565b60405180838152602001821515151581526020019250505060405180910390f35b610b056136f1565b6040518082601860200280838360005b83811015610b30578082015181840152602081019050610b15565b5050505090500191505060405180910390f35b610b8f60048036036040811015610b5957600080fd5b81019080803573ffffffffffffffffffffffffffffffffffffffff1690602001909291908035906020019092919050505061374a565b005b610bd360048036036020811015610ba757600080fd5b81019080803573ffffffffffffffffffffffffffffffffffffffff1690602001909291905050506137e3565b604051808215151515815260200191505060405180910390f35b610c1960048036036020811015610c0357600080fd5b81019080803590602001909291905050506137f5565b6040518082815260200191505060405180910390f35b610c7160048036036020811015610c4557600080fd5b81019080803573ffffffffffffffffffffffffffffffffffffffff169060200190929190505050613816565b005b610cbf60048036036040811015610c8957600080fd5b81019080803573ffffffffffffffffffffffffffffffffffffffff1690602001909291908035906020019092919050505061393f565b6040518082815260200191505060405180910390f35b610d2160048036036040811015610ceb57600080fd5b81019080803573ffffffffffffffffffffffffffffffffffffffff16906020019092919080359060200190929190505050613a40565b60405180838152602001821515151581526020019250505060405180910390f35b610d4a613b46565b6040518082815260200191505060405180910390f35b610da260048036036020811015610d7657600080fd5b81019080803573ffffffffffffffffffffffffffffffffffffffff169060200190929190505050613b53565b6040518082815260200191505060405180910390f35b610dc0613b65565b6040518082815260200191505060405180910390f35b610e0260048036036020811015610dec57600080fd5b8101908080359060200190929190505050613b6a565b005b610e0c613ccb565b604051808215151515815260200191505060405180910390f35b610e8860048036036040811015610e3c57600080fd5b81019080803573ffffffffffffffffffffffffffffffffffffffff169060200190929190803573ffffffffffffffffffffffffffffffffffffffff169060200190929190505050613e60565b005b610e926140ef565b73ffffffffffffffffffffffffffffffffffffffff163373ffffffffffffffffffffffffffffffffffffffff1614610f15576040517f08c379a000000000000000000000000000000000000000000000000000000000815260040180806020018281038252603b815260200180616fb7603b913960400191505060405180910390fd5b600080600080610f2486614155565b93509350935093508015610fa0576040517f08c379a000000000000000000000000000000000000000000000000000000000815260040180806020018281038252601c8152602001807f412073796e7468206f7220534e582072617465206973207374616c650000000081525060200191505060405180910390fd5b83851115611016576040517f08c379a00000000000000000000000000000000000000000000000000000000081526004018080602001828103825260108152602001807f416d6f756e7420746f6f206c617267650000000000000000000000000000000081525060200191505060405180910390fd5b611022868685856141c9565b505050505050565b600260009054906101000a900473ffffffffffffffffffffffffffffffffffffffff1681565b600061105b826142df565b9050919050565b6000809054906101000a900473ffffffffffffffffffffffffffffffffffffffff1673ffffffffffffffffffffffffffffffffffffffff163373ffffffffffffffffffffffffffffffffffffffff1614611107576040517f08c379a000000000000000000000000000000000000000000000000000000000815260040180806020018281038252602f815260200180616ff2602f913960400191505060405180910390fd5b600073ffffffffffffffffffffffffffffffffffffffff166007600083815260200190815260200160002060009054906101000a900473ffffffffffffffffffffffffffffffffffffffff1673ffffffffffffffffffffffffffffffffffffffff1614156111dd576040517f08c379a00000000000000000000000000000000000000000000000000000000081526004018080602001828103825260148152602001807f53796e746820646f6573206e6f7420657869737400000000000000000000000081525060200191505060405180910390fd5b60006007600083815260200190815260200160002060009054906101000a900473ffffffffffffffffffffffffffffffffffffffff1673ffffffffffffffffffffffffffffffffffffffff166318160ddd6040518163ffffffff1660e01b815260040160206040518083038186803b15801561125857600080fd5b505afa15801561126c573d6000803e3d6000fd5b505050506040513d602081101561128257600080fd5b810190808051906020019092919050505014611306576040517f08c379a00000000000000000000000000000000000000000000000000000000081526004018080602001828103825260138152602001807f53796e746820737570706c79206578697374730000000000000000000000000081525060200191505060405180910390fd5b7f735553440000000000000000000000000000000000000000000000000000000081141561139c576040517f08c379a00000000000000000000000000000000000000000000000000000000081526004018080602001828103825260138152602001807f43616e6e6f742072656d6f76652073796e74680000000000000000000000000081525060200191505060405180910390fd5b60006007600083815260200190815260200160002060009054906101000a900473ffffffffffffffffffffffffffffffffffffffff16905060008090505b600680549050811015611549578173ffffffffffffffffffffffffffffffffffffffff166006828154811061140b57fe5b9060005260206000200160009054906101000a900473ffffffffffffffffffffffffffffffffffffffff1673ffffffffffffffffffffffffffffffffffffffff16141561153c576006818154811061145f57fe5b9060005260206000200160006101000a81549073ffffffffffffffffffffffffffffffffffffffff02191690556006600160068054905003815481106114a157fe5b9060005260206000200160009054906101000a900473ffffffffffffffffffffffffffffffffffffffff16600682815481106114d957fe5b9060005260206000200160006101000a81548173ffffffffffffffffffffffffffffffffffffffff021916908373ffffffffffffffffffffffffffffffffffffffff16021790555060068054809190600190036115369190616eec565b50611549565b80806001019150506113da565b50600860006007600085815260200190815260200160002060009054906101000a900473ffffffffffffffffffffffffffffffffffffffff1673ffffffffffffffffffffffffffffffffffffffff1673ffffffffffffffffffffffffffffffffffffffff168152602001908152602001600020600090556007600083815260200190815260200160002060006101000a81549073ffffffffffffffffffffffffffffffffffffffff02191690557f6166f5c475cc1cd535c6cdf14a6d5edb811e34117031fc2863392a136eb655d08282604051808381526020018273ffffffffffffffffffffffffffffffffffffffff1673ffffffffffffffffffffffffffffffffffffffff1681526020019250505060405180910390a15050565b600080600061167384614155565b508093508194508295505050509193909250565b7f4c4153545f49535355455f4556454e540000000000000000000000000000000081565b6000809054906101000a900473ffffffffffffffffffffffffffffffffffffffff1673ffffffffffffffffffffffffffffffffffffffff163373ffffffffffffffffffffffffffffffffffffffff1614611750576040517f08c379a000000000000000000000000000000000000000000000000000000000815260040180806020018281038252602f815260200180616ff2602f913960400191505060405180910390fd5b80600160006101000a81548173ffffffffffffffffffffffffffffffffffffffff021916908373ffffffffffffffffffffffffffffffffffffffff1602179055507f906a1c6bd7e3091ea86693dd029a831c19049ce77f1dce2ce0bab1cacbabce2281604051808273ffffffffffffffffffffffffffffffffffffffff1673ffffffffffffffffffffffffffffffffffffffff16815260200191505060405180910390a150565b60086020528060005260406000206000915090505481565b60055481565b61181d6140ef565b73ffffffffffffffffffffffffffffffffffffffff163373ffffffffffffffffffffffffffffffffffffffff16146118a0576040517f08c379a000000000000000000000000000000000000000000000000000000000815260040180806020018281038252603b815260200180616fb7603b913960400191505060405180910390fd5b6118a8614471565b73ffffffffffffffffffffffffffffffffffffffff16637d3f0ba283836040518363ffffffff1660e01b8152600401808373ffffffffffffffffffffffffffffffffffffffff1673ffffffffffffffffffffffffffffffffffffffff1681526020018273ffffffffffffffffffffffffffffffffffffffff1673ffffffffffffffffffffffffffffffffffffffff1681526020019250505060206040518083038186803b15801561195857600080fd5b505afa15801561196c573d6000803e3d6000fd5b505050506040513d602081101561198257600080fd5b8101908080519060200190929190505050611a05576040517f08c379a000000000000000000000000000000000000000000000000000000000815260040180806020018281038252601d8152602001807f4e6f7420617070726f76656420746f20616374206f6e20626568616c6600000081525060200191505060405180910390fd5b611a0e826144ba565b5050565b60076020528060005260406000206000915054906101000a900473ffffffffffffffffffffffffffffffffffffffff1681565b6000809054906101000a900473ffffffffffffffffffffffffffffffffffffffff1673ffffffffffffffffffffffffffffffffffffffff163373ffffffffffffffffffffffffffffffffffffffff1614611aea576040517f08c379a000000000000000000000000000000000000000000000000000000000815260040180806020018281038252602f815260200180616ff2602f913960400191505060405180910390fd5b80600260006101000a81548173ffffffffffffffffffffffffffffffffffffffff021916908373ffffffffffffffffffffffffffffffffffffffff16021790555060008090505b600480549050811015611ca057600060048281548110611b4d57fe5b90600052602060002001549050600260009054906101000a900473ffffffffffffffffffffffffffffffffffffffff1673ffffffffffffffffffffffffffffffffffffffff1663dacb2d01826040518263ffffffff1660e01b81526004018082815260200180602001828103825260178152602001807f5265736f6c766572206d697373696e67207461726765740000000000000000008152506020019250505060206040518083038186803b158015611c0657600080fd5b505afa158015611c1a573d6000803e3d6000fd5b505050506040513d6020811015611c3057600080fd5b81019080805190602001909291905050506003600083815260200190815260200160002060006101000a81548173ffffffffffffffffffffffffffffffffffffffff021916908373ffffffffffffffffffffffffffffffffffffffff160217905550508080600101915050611b31565b5050565b611cac6140ef565b73ffffffffffffffffffffffffffffffffffffffff163373ffffffffffffffffffffffffffffffffffffffff1614611d2f576040517f08c379a000000000000000000000000000000000000000000000000000000000815260040180806020018281038252603b815260200180616fb7603b913960400191505060405180910390fd5b611d37614471565b73ffffffffffffffffffffffffffffffffffffffff16630487261784846040518363ffffffff1660e01b8152600401808373ffffffffffffffffffffffffffffffffffffffff1673ffffffffffffffffffffffffffffffffffffffff1681526020018273ffffffffffffffffffffffffffffffffffffffff1673ffffffffffffffffffffffffffffffffffffffff1681526020019250505060206040518083038186803b158015611de757600080fd5b505afa158015611dfb573d6000803e3d6000fd5b505050506040513d6020811015611e1157600080fd5b8101908080519060200190929190505050611e94576040517f08c379a000000000000000000000000000000000000000000000000000000000815260040180806020018281038252601d8152602001807f4e6f7420617070726f76656420746f20616374206f6e20626568616c6600000081525060200191505060405180910390fd5b600080600080611ea387614155565b93509350935093508015611f1f576040517f08c379a000000000000000000000000000000000000000000000000000000000815260040180806020018281038252601c8152602001807f412073796e7468206f7220534e582072617465206973207374616c650000000081525060200191505060405180910390fd5b83851115611f95576040517f08c379a00000000000000000000000000000000000000000000000000000000081526004018080602001828103825260108152602001807f416d6f756e7420746f6f206c617267650000000000000000000000000000000081525060200191505060405180910390fd5b611fa1878685856141c9565b50505050505050565b611fb26140ef565b73ffffffffffffffffffffffffffffffffffffffff163373ffffffffffffffffffffffffffffffffffffffff1614612035576040517f08c379a000000000000000000000000000000000000000000000000000000000815260040180806020018281038252603b815260200180616fb7603b913960400191505060405180910390fd5b61203e816144ba565b50565b600160009054906101000a900473ffffffffffffffffffffffffffffffffffffffff1681565b60008173ffffffffffffffffffffffffffffffffffffffff16600260009054906101000a900473ffffffffffffffffffffffffffffffffffffffff1673ffffffffffffffffffffffffffffffffffffffff16146120c75760009050612294565b60008090505b60048054905081101561228e576000600482815481106120e957fe5b906000526020600020015490506003600082815260200190815260200160002060009054906101000a900473ffffffffffffffffffffffffffffffffffffffff1673ffffffffffffffffffffffffffffffffffffffff16600260009054906101000a900473ffffffffffffffffffffffffffffffffffffffff1673ffffffffffffffffffffffffffffffffffffffff166321f8a721836040518263ffffffff1660e01b81526004018082815260200191505060206040518083038186803b1580156121b357600080fd5b505afa1580156121c7573d6000803e3d6000fd5b505050506040513d60208110156121dd57600080fd5b810190808051906020019092919050505073ffffffffffffffffffffffffffffffffffffffff161415806122705750600073ffffffffffffffffffffffffffffffffffffffff166003600083815260200190815260200160002060009054906101000a900473ffffffffffffffffffffffffffffffffffffffff1673ffffffffffffffffffffffffffffffffffffffff16145b1561228057600092505050612294565b5080806001019150506120cd565b50600190505b919050565b60606122a56000614612565b905090565b600160009054906101000a900473ffffffffffffffffffffffffffffffffffffffff1673ffffffffffffffffffffffffffffffffffffffff163373ffffffffffffffffffffffffffffffffffffffff1614612350576040517f08c379a0000000000000000000000000000000000000000000000000000000008152600401808060200182810382526035815260200180616f616035913960400191505060405180910390fd5b7fb532073b38c83145e3e5135377a08bf9aab55bc0fd7c1179cd4fb995d2a5159c6000809054906101000a900473ffffffffffffffffffffffffffffffffffffffff16600160009054906101000a900473ffffffffffffffffffffffffffffffffffffffff16604051808373ffffffffffffffffffffffffffffffffffffffff1673ffffffffffffffffffffffffffffffffffffffff1681526020018273ffffffffffffffffffffffffffffffffffffffff1673ffffffffffffffffffffffffffffffffffffffff1681526020019250505060405180910390a1600160009054906101000a900473ffffffffffffffffffffffffffffffffffffffff166000806101000a81548173ffffffffffffffffffffffffffffffffffffffff021916908373ffffffffffffffffffffffffffffffffffffffff1602179055506000600160006101000a81548173ffffffffffffffffffffffffffffffffffffffff021916908373ffffffffffffffffffffffffffffffffffffffff160217905550565b60006124dc838361475d565b508091505092915050565b600681815481106124f457fe5b906000526020600020016000915054906101000a900473ffffffffffffffffffffffffffffffffffffffff1681565b6000809054906101000a900473ffffffffffffffffffffffffffffffffffffffff1673ffffffffffffffffffffffffffffffffffffffff163373ffffffffffffffffffffffffffffffffffffffff16146125c8576040517f08c379a000000000000000000000000000000000000000000000000000000000815260040180806020018281038252602f815260200180616ff2602f913960400191505060405180910390fd5b60008173ffffffffffffffffffffffffffffffffffffffff1663dbd06c856040518163ffffffff1660e01b815260040160206040518083038186803b15801561261057600080fd5b505afa158015612624573d6000803e3d6000fd5b505050506040513d602081101561263a57600080fd5b81019080805190602001909291905050509050600073ffffffffffffffffffffffffffffffffffffffff166007600083815260200190815260200160002060009054906101000a900473ffffffffffffffffffffffffffffffffffffffff1673ffffffffffffffffffffffffffffffffffffffff1614612722576040517f08c379a00000000000000000000000000000000000000000000000000000000081526004018080602001828103825260148152602001807f53796e746820616c72656164792065786973747300000000000000000000000081525060200191505060405180910390fd5b6000801b600860008473ffffffffffffffffffffffffffffffffffffffff1673ffffffffffffffffffffffffffffffffffffffff16815260200190815260200160002054146127d9576040517f08c379a000000000000000000000000000000000000000000000000000000000815260040180806020018281038252601c8152602001807f53796e7468206164647265737320616c7265616479206578697374730000000081525060200191505060405180910390fd5b60068290806001815401808255809150509060018203906000526020600020016000909192909190916101000a81548173ffffffffffffffffffffffffffffffffffffffff021916908373ffffffffffffffffffffffffffffffffffffffff16021790555050816007600083815260200190815260200160002060006101000a81548173ffffffffffffffffffffffffffffffffffffffff021916908373ffffffffffffffffffffffffffffffffffffffff16021790555080600860008473ffffffffffffffffffffffffffffffffffffffff1673ffffffffffffffffffffffffffffffffffffffff168152602001908152602001600020819055507f0a2b6ebf143b3e9fcd67e17748ad315174746100c27228468b2c98c302c628848183604051808381526020018273ffffffffffffffffffffffffffffffffffffffff1673ffffffffffffffffffffffffffffffffffffffff1681526020019250505060405180910390a15050565b62093a8081565b6000809054906101000a900473ffffffffffffffffffffffffffffffffffffffff1681565b6129786140ef565b73ffffffffffffffffffffffffffffffffffffffff163373ffffffffffffffffffffffffffffffffffffffff16146129fb576040517f08c379a000000000000000000000000000000000000000000000000000000000815260040180806020018281038252603b815260200180616fb7603b913960400191505060405180910390fd5b612a03614471565b73ffffffffffffffffffffffffffffffffffffffff16637d3f0ba284846040518363ffffffff1660e01b8152600401808373ffffffffffffffffffffffffffffffffffffffff1673ffffffffffffffffffffffffffffffffffffffff1681526020018273ffffffffffffffffffffffffffffffffffffffff1673ffffffffffffffffffffffffffffffffffffffff1681526020019250505060206040518083038186803b158015612ab357600080fd5b505afa158015612ac7573d6000803e3d6000fd5b505050506040513d6020811015612add57600080fd5b8101908080519060200190929190505050612b60576040517f08c379a000000000000000000000000000000000000000000000000000000000815260040180806020018281038252601d8152602001807f4e6f7420617070726f76656420746f20616374206f6e20626568616c6600000081525060200191505060405180910390fd5b612b6a8382614c22565b505050565b6000612b7a82614fee565b5080915050919050565b6000612b8f8261506c565b9050919050565b600080612ba16140ef565b73ffffffffffffffffffffffffffffffffffffffff163373ffffffffffffffffffffffffffffffffffffffff1614612c24576040517f08c379a000000000000000000000000000000000000000000000000000000000815260040180806020018281038252603b815260200180616fb7603b913960400191505060405180910390fd5b612c2c615357565b73ffffffffffffffffffffffffffffffffffffffff1663d6f32e06847f73555344000000000000000000000000000000000000000000000000000000006040518363ffffffff1660e01b8152600401808373ffffffffffffffffffffffffffffffffffffffff1673ffffffffffffffffffffffffffffffffffffffff1681526020018281526020019250505060206040518083038186803b158015612cd057600080fd5b505afa158015612ce4573d6000803e3d6000fd5b505050506040513d6020811015612cfa57600080fd5b810190808051906020019092919050505015612d7e576040517f08c379a00000000000000000000000000000000000000000000000000000000081526004018080602001828103825260188152602001807f73555344206e6565647320746f20626520736574746c6564000000000000000081525060200191505060405180910390fd5b6000612d886153bd565b90508073ffffffffffffffffffffffffffffffffffffffff1663c49e80a6876040518263ffffffff1660e01b8152600401808273ffffffffffffffffffffffffffffffffffffffff1673ffffffffffffffffffffffffffffffffffffffff16815260200191505060206040518083038186803b158015612e0757600080fd5b505afa158015612e1b573d6000803e3d6000fd5b505050506040513d6020811015612e3157600080fd5b8101908080519060200190929190505050612eb4576040517f08c379a00000000000000000000000000000000000000000000000000000000081526004018080602001828103825260208152602001807f4163636f756e74206e6f74206f70656e20666f72206c69717569646174696f6e81525060200191505060405180910390fd5b84600760007f7355534400000000000000000000000000000000000000000000000000000000815260200190815260200160002060009054906101000a900473ffffffffffffffffffffffffffffffffffffffff1673ffffffffffffffffffffffffffffffffffffffff166370a08231866040518263ffffffff1660e01b8152600401808273ffffffffffffffffffffffffffffffffffffffff1673ffffffffffffffffffffffffffffffffffffffff16815260200191505060206040518083038186803b158015612f8557600080fd5b505afa158015612f99573d6000803e3d6000fd5b505050506040513d6020811015612faf57600080fd5b81019080805190602001909291905050501015613034576040517f08c379a000000000000000000000000000000000000000000000000000000000815260040180806020018281038252600f8152602001807f4e6f7420656e6f7567682073555344000000000000000000000000000000000081525060200191505060405180910390fd5b60008173ffffffffffffffffffffffffffffffffffffffff166323f5589a6040518163ffffffff1660e01b815260040160206040518083038186803b15801561307c57600080fd5b505afa158015613090573d6000803e3d6000fd5b505050506040513d60208110156130a657600080fd5b8101908080519060200190929190505050905060006130c48861506c565b905060006130d0615423565b73ffffffffffffffffffffffffffffffffffffffff1663654a60ac837f73555344000000000000000000000000000000000000000000000000000000006040518363ffffffff1660e01b815260040180807f534e5800000000000000000000000000000000000000000000000000000000008152506020018381526020018281526020019250505060206040518083038186803b15801561317057600080fd5b505afa158015613184573d6000803e3d6000fd5b505050506040513d602081101561319a57600080fd5b8101908080519060200190929190505050905060008060006131dc8c7f7355534400000000000000000000000000000000000000000000000000000000615489565b9250925092508015613256576040517f08c379a000000000000000000000000000000000000000000000000000000000815260040180806020018281038252601c8152602001807f412073796e7468206f7220534e582072617465206973207374616c650000000081525060200191505060405180910390fd5b60008773ffffffffffffffffffffffffffffffffffffffff16630ac045d585876040518363ffffffff1660e01b8152600401808381526020018281526020019250505060206040518083038186803b1580156132b157600080fd5b505afa1580156132c5573d6000803e3d6000fd5b505050506040513d60208110156132db57600080fd5b810190808051906020019092919050505090508b81106132fb578b6132fd565b805b98506000613309615423565b73ffffffffffffffffffffffffffffffffffffffff1663654a60ac7f73555344000000000000000000000000000000000000000000000000000000008c6040518363ffffffff1660e01b815260040180838152602001828152602001807f534e5800000000000000000000000000000000000000000000000000000000008152506020019250505060206040518083038186803b1580156133a957600080fd5b505afa1580156133bd573d6000803e3d6000fd5b505050506040513d60208110156133d357600080fd5b8101908080519060200190929190505050905061348961347a8973__SafeDecimalMath_______________________63907af6c06040518163ffffffff1660e01b815260040160206040518083038186803b15801561343157600080fd5b505af4158015613445573d6000803e3d6000fd5b505050506040513d602081101561345b57600080fd5b810190808051906020019092919050505061570190919063ffffffff16565b8261578990919063ffffffff16565b9a50868b111561361e57869a5061349e615423565b73ffffffffffffffffffffffffffffffffffffffff1663654a60ac61355c61354d8b73__SafeDecimalMath_______________________63907af6c06040518163ffffffff1660e01b815260040160206040518083038186803b15801561350457600080fd5b505af4158015613518573d6000803e3d6000fd5b505050506040513d602081101561352e57600080fd5b810190808051906020019092919050505061570190919063ffffffff16565b8a6157b690919063ffffffff16565b7f73555344000000000000000000000000000000000000000000000000000000006040518363ffffffff1660e01b815260040180807f534e5800000000000000000000000000000000000000000000000000000000008152506020018381526020018281526020019250505060206040518083038186803b1580156135e057600080fd5b505afa1580156135f4573d6000803e3d6000fd5b505050506040513d602081101561360a57600080fd5b810190808051906020019092919050505099505b61362b8e8d8c88886157ec565b818a14156136cb578873ffffffffffffffffffffffffffffffffffffffff1663974e9e7f8f6040518263ffffffff1660e01b8152600401808273ffffffffffffffffffffffffffffffffffffffff1673ffffffffffffffffffffffffffffffffffffffff168152602001915050600060405180830381600087803b1580156136b257600080fd5b505af11580156136c6573d6000803e3d6000fd5b505050505b505050505050505050935093915050565b6000806136e883614fee565b91509150915091565b6136f9616f18565b60008090505b600480549050811015613746576004818154811061371957fe5b906000526020600020015482826018811061373057fe5b60200201818152505080806001019150506136ff565b5090565b6137526140ef565b73ffffffffffffffffffffffffffffffffffffffff163373ffffffffffffffffffffffffffffffffffffffff16146137d5576040517f08c379a000000000000000000000000000000000000000000000000000000000815260040180806020018281038252603b815260200180616fb7603b913960400191505060405180910390fd5b6137df8282614c22565b5050565b60006137ee826158fa565b9050919050565b6004818154811061380257fe5b906000526020600020016000915090505481565b61381e6140ef565b73ffffffffffffffffffffffffffffffffffffffff163373ffffffffffffffffffffffffffffffffffffffff16146138a1576040517f08c379a000000000000000000000000000000000000000000000000000000000815260040180806020018281038252603b815260200180616fb7603b913960400191505060405180910390fd5b6000806000806138b085614155565b9350935093509350801561392c576040517f08c379a000000000000000000000000000000000000000000000000000000000815260040180806020018281038252601c8152602001807f412073796e7468206f7220534e582072617465206973207374616c650000000081525060200191505060405180910390fd5b613938858585856141c9565b5050505050565b60008061394a615923565b905060008173ffffffffffffffffffffffffffffffffffffffff16638b3f8088866040518263ffffffff1660e01b8152600401808273ffffffffffffffffffffffffffffffffffffffff1673ffffffffffffffffffffffffffffffffffffffff168152602001915050604080518083038186803b1580156139ca57600080fd5b505afa1580156139de573d6000803e3d6000fd5b505050506040513d60408110156139f457600080fd5b8101908080519060200190929190805190602001909291905050505090506000811415613a2657600092505050613a3a565b613a308585615489565b9050508093505050505b92915050565b6000806000613a6f857f534e580000000000000000000000000000000000000000000000000000000000615489565b905080935081925050506000613b15613a86615923565b73ffffffffffffffffffffffffffffffffffffffff1663b410a0346040518163ffffffff1660e01b815260040160206040518083038186803b158015613acb57600080fd5b505afa158015613adf573d6000803e3d6000fd5b505050506040513d6020811015613af557600080fd5b81019080805190602001909291905050508361598990919063ffffffff16565b9050848110613b275760009350613b3d565b613b3a81866159a590919063ffffffff16565b93505b50509250929050565b6000600680549050905090565b6000613b5e826159ef565b9050919050565b601881565b6000809054906101000a900473ffffffffffffffffffffffffffffffffffffffff1673ffffffffffffffffffffffffffffffffffffffff163373ffffffffffffffffffffffffffffffffffffffff1614613c0f576040517f08c379a000000000000000000000000000000000000000000000000000000000815260040180806020018281038252602f815260200180616ff2602f913960400191505060405180910390fd5b62093a80811115613c88576040517f08c379a00000000000000000000000000000000000000000000000000000000081526004018080602001828103825260208152602001807f7374616b652074696d6520657863656564206d6178696d756d2031207765656b81525060200191505060405180910390fd5b806005819055507f2b0fa66d155c9598699cb6569577f27b95729bbf580268eed39db6bc4e8144776005546040518082815260200191505060405180910390a150565b60006060613cd96001614612565b9050613ce3615423565b73ffffffffffffffffffffffffffffffffffffffff1663babcb423826040518263ffffffff1660e01b81526004018080602001828103825283818151815260200191508051906020019060200280838360005b83811015613d51578082015181840152602081019050613d36565b505050509050019250505060006040518083038186803b158015613d7457600080fd5b505afa158015613d88573d6000803e3d6000fd5b505050506040513d6000823e3d601f19601f820116820180604052506040811015613db257600080fd5b8101908080516040519392919084640100000000821115613dd257600080fd5b83820191506020820185811115613de857600080fd5b8251866020820283011164010000000082111715613e0557600080fd5b8083526020830192505050908051906020019060200280838360005b83811015613e3c578082015181840152602081019050613e21565b50505050905001604052602001805190602001909291905050509050809250505090565b613e686140ef565b73ffffffffffffffffffffffffffffffffffffffff163373ffffffffffffffffffffffffffffffffffffffff1614613eeb576040517f08c379a000000000000000000000000000000000000000000000000000000000815260040180806020018281038252603b815260200180616fb7603b913960400191505060405180910390fd5b613ef3614471565b73ffffffffffffffffffffffffffffffffffffffff16630487261783836040518363ffffffff1660e01b8152600401808373ffffffffffffffffffffffffffffffffffffffff1673ffffffffffffffffffffffffffffffffffffffff1681526020018273ffffffffffffffffffffffffffffffffffffffff1673ffffffffffffffffffffffffffffffffffffffff1681526020019250505060206040518083038186803b158015613fa357600080fd5b505afa158015613fb7573d6000803e3d6000fd5b505050506040513d6020811015613fcd57600080fd5b8101908080519060200190929190505050614050576040517f08c379a000000000000000000000000000000000000000000000000000000000815260040180806020018281038252601d8152602001807f4e6f7420617070726f76656420746f20616374206f6e20626568616c6600000081525060200191505060405180910390fd5b60008060008061405f86614155565b935093509350935080156140db576040517f08c379a000000000000000000000000000000000000000000000000000000000815260040180806020018281038252601c8152602001807f412073796e7468206f7220534e582072617465206973207374616c650000000081525060200191505060405180910390fd5b6140e7868585856141c9565b505050505050565b60006141507f53796e74686574697800000000000000000000000000000000000000000000006040518060400160405280601981526020017f4d697373696e672053796e746865746978206164647265737300000000000000815250615b08565b905090565b600080600080614185857f7355534400000000000000000000000000000000000000000000000000000000615489565b80935081945082955050505061419a856142df565b93508383106141ac57600093506141c2565b6141bf83856159a590919063ffffffff16565b93505b9193509193565b6141d584848484615c24565b6141de846160ac565b600760007f7355534400000000000000000000000000000000000000000000000000000000815260200190815260200160002060009054906101000a900473ffffffffffffffffffffffffffffffffffffffff1673ffffffffffffffffffffffffffffffffffffffff1663867904b485856040518363ffffffff1660e01b8152600401808373ffffffffffffffffffffffffffffffffffffffff1673ffffffffffffffffffffffffffffffffffffffff16815260200182815260200192505050600060405180830381600087803b1580156142b857600080fd5b505af11580156142cc573d6000803e3d6000fd5b505050506142d9846161a6565b50505050565b6000806142ea615423565b73ffffffffffffffffffffffffffffffffffffffff1663654a60ac61430e8561506c565b7f73555344000000000000000000000000000000000000000000000000000000006040518363ffffffff1660e01b815260040180807f534e5800000000000000000000000000000000000000000000000000000000008152506020018381526020018281526020019250505060206040518083038186803b15801561439257600080fd5b505afa1580156143a6573d6000803e3d6000fd5b505050506040513d60208110156143bc57600080fd5b810190808051906020019092919050505090506144696143da615923565b73ffffffffffffffffffffffffffffffffffffffff1663b410a0346040518163ffffffff1660e01b815260040160206040518083038186803b15801561441f57600080fd5b505afa158015614433573d6000803e3d6000fd5b505050506040513d602081101561444957600080fd5b81019080805190602001909291905050508261578990919063ffffffff16565b915050919050565b60006144b57f44656c6567617465417070726f76616c73000000000000000000000000000000604051806060016040528060218152602001616f9660219139615b08565b905090565b60008060006144e9847f7355534400000000000000000000000000000000000000000000000000000000615489565b9250925092508015614563576040517f08c379a000000000000000000000000000000000000000000000000000000000815260040180806020018281038252601c8152602001807f412073796e7468206f7220534e582072617465206973207374616c650000000081525060200191505060405180910390fd5b600083116145d9576040517f08c379a00000000000000000000000000000000000000000000000000000000081526004018080602001828103825260128152602001807f4e6f206465627420746f20666f7267697665000000000000000000000000000081525060200191505060405180910390fd5b60006145e4856142df565b905060006145fb82866159a590919063ffffffff16565b905061460a868287878661632c565b505050505050565b60608082614621576000614624565b60015b60ff166006805490500160405190808252806020026020018201604052801561465c5781602001602082028038833980820191505090505b50905060008090505b60068054905081101561470e57600860006006838154811061468357fe5b9060005260206000200160009054906101000a900473ffffffffffffffffffffffffffffffffffffffff1673ffffffffffffffffffffffffffffffffffffffff1673ffffffffffffffffffffffffffffffffffffffff168152602001908152602001600020548282815181106146f557fe5b6020026020010181815250508080600101915050614665565b508215614754577f534e580000000000000000000000000000000000000000000000000000000000816006805490508151811061474757fe5b6020026020010181815250505b80915050919050565b6000806000809050600060606147736001614612565b905060606000614781615423565b73ffffffffffffffffffffffffffffffffffffffff1663babcb423846040518263ffffffff1660e01b81526004018080602001828103825283818151815260200191508051906020019060200280838360005b838110156147ef5780820151818401526020810190506147d4565b505050509050019250505060006040518083038186803b15801561481257600080fd5b505afa158015614826573d6000803e3d6000fd5b505050506040513d6000823e3d601f19601f82011682018060405250604081101561485057600080fd5b810190808051604051939291908464010000000082111561487057600080fd5b8382019150602082018581111561488657600080fd5b82518660208202830111640100000000821117156148a357600080fd5b8083526020830192505050908051906020019060200280838360005b838110156148da5780820151818401526020810190506148bf565b50505050905001604052602001805190602001909291905050509150915060008090505b6001845103811015614b1657600084828151811061491857fe5b602002602001015190508a8114156149415783828151811061493657fe5b602002602001015195505b60006007600083815260200190815260200160002060009054906101000a900473ffffffffffffffffffffffffffffffffffffffff1673ffffffffffffffffffffffffffffffffffffffff166318160ddd6040518163ffffffff1660e01b815260040160206040518083038186803b1580156149bc57600080fd5b505afa1580156149d0573d6000803e3d6000fd5b505050506040513d60208110156149e657600080fd5b810190808051906020019092919050505090508a8015614a2557507f734554480000000000000000000000000000000000000000000000000000000082145b15614ac757614ac4614a3561650c565b73ffffffffffffffffffffffffffffffffffffffff1663ee5f3f5c6040518163ffffffff1660e01b815260040160206040518083038186803b158015614a7a57600080fd5b505afa158015614a8e573d6000803e3d6000fd5b505050506040513d6020811015614aa457600080fd5b8101908080519060200190929190505050826159a590919063ffffffff16565b90505b6000614aef868581518110614ad857fe5b60200260200101518361657290919063ffffffff16565b9050614b04818a61570190919063ffffffff16565b985050505080806001019150506148fe565b507f534e580000000000000000000000000000000000000000000000000000000000891415614b5e5781600184510381518110614b4f57fe5b60200260200101519350614bfe565b6000841415614bfd57614b6f615423565b73ffffffffffffffffffffffffffffffffffffffff1663ac82f6088a6040518263ffffffff1660e01b81526004018082815260200191505060206040518083038186803b158015614bbf57600080fd5b505afa158015614bd3573d6000803e3d6000fd5b505050506040513d6020811015614be957600080fd5b810190808051906020019092919050505093505b5b614c11848661598990919063ffffffff16565b819650965050505050509250929050565b614c2b826158fa565b614c9d576040517f08c379a000000000000000000000000000000000000000000000000000000000815260040180806020018281038252601e8152602001807f4d696e696d756d207374616b652074696d65206e6f742072656163686564000081525060200191505060405180910390fd5b600080614ca8615357565b73ffffffffffffffffffffffffffffffffffffffff16631b16802c857f73555344000000000000000000000000000000000000000000000000000000006040518363ffffffff1660e01b8152600401808373ffffffffffffffffffffffffffffffffffffffff1673ffffffffffffffffffffffffffffffffffffffff16815260200182815260200192505050606060405180830381600087803b158015614d4e57600080fd5b505af1158015614d62573d6000803e3d6000fd5b505050506040513d6060811015614d7857600080fd5b8101908080519060200190929190805190602001909291908051906020019092919050505092509250506000806000614dd1877f7355534400000000000000000000000000000000000000000000000000000000615489565b9250925092508015614e4b576040517f08c379a000000000000000000000000000000000000000000000000000000000815260040180806020018281038252601c8152602001807f412073796e7468206f7220534e582072617465206973207374616c650000000081525060200191505060405180910390fd5b60008311614ec1576040517f08c379a00000000000000000000000000000000000000000000000000000000081526004018080602001828103825260128152602001807f4e6f206465627420746f20666f7267697665000000000000000000000000000081525060200191505060405180910390fd5b60008690506000851115614fc957614ed7615357565b73ffffffffffffffffffffffffffffffffffffffff16634c268fc8897f73555344000000000000000000000000000000000000000000000000000000008a8a6040518563ffffffff1660e01b8152600401808573ffffffffffffffffffffffffffffffffffffffff1673ffffffffffffffffffffffffffffffffffffffff16815260200184815260200183815260200182815260200194505050505060206040518083038186803b158015614f8b57600080fd5b505afa158015614f9f573d6000803e3d6000fd5b505050506040513d6020811015614fb557600080fd5b810190808051906020019092919050505090505b6000614fd4896142df565b9050614fe3898387878561632c565b505050505050505050565b6000806000614ffc8461506c565b905060008061502b867f534e580000000000000000000000000000000000000000000000000000000000615489565b9250509150600083141561504b5760008181915094509450505050615067565b61505e838361598990919063ffffffff16565b81945094505050505b915091565b60008061507761658e565b73ffffffffffffffffffffffffffffffffffffffff166370a08231846040518263ffffffff1660e01b8152600401808273ffffffffffffffffffffffffffffffffffffffff1673ffffffffffffffffffffffffffffffffffffffff16815260200191505060206040518083038186803b1580156150f357600080fd5b505afa158015615107573d6000803e3d6000fd5b505050506040513d602081101561511d57600080fd5b81019080805190602001909291905050509050600073ffffffffffffffffffffffffffffffffffffffff166151506165f4565b73ffffffffffffffffffffffffffffffffffffffff161461523f5761523c6151766165f4565b73ffffffffffffffffffffffffffffffffffffffff166370a08231856040518263ffffffff1660e01b8152600401808273ffffffffffffffffffffffffffffffffffffffff1673ffffffffffffffffffffffffffffffffffffffff16815260200191505060206040518083038186803b1580156151f257600080fd5b505afa158015615206573d6000803e3d6000fd5b505050506040513d602081101561521c57600080fd5b81019080805190602001909291905050508261570190919063ffffffff16565b90505b600073ffffffffffffffffffffffffffffffffffffffff1661525f61665a565b73ffffffffffffffffffffffffffffffffffffffff161461534e5761534b61528561665a565b73ffffffffffffffffffffffffffffffffffffffff166370a08231856040518263ffffffff1660e01b8152600401808273ffffffffffffffffffffffffffffffffffffffff1673ffffffffffffffffffffffffffffffffffffffff16815260200191505060206040518083038186803b15801561530157600080fd5b505afa158015615315573d6000803e3d6000fd5b505050506040513d602081101561532b57600080fd5b81019080805190602001909291905050508261570190919063ffffffff16565b90505b80915050919050565b60006153b87f45786368616e67657200000000000000000000000000000000000000000000006040518060400160405280601981526020017f4d697373696e672045786368616e676572206164647265737300000000000000815250615b08565b905090565b600061541e7f4c69717569646174696f6e7300000000000000000000000000000000000000006040518060400160405280601c81526020017f4d697373696e67204c69717569646174696f6e73206164647265737300000000815250615b08565b905090565b60006154847f45786368616e67655261746573000000000000000000000000000000000000006040518060400160405280601d81526020017f4d697373696e672045786368616e676552617465732061646472657373000000815250615b08565b905090565b600080600080615497615923565b90506000808273ffffffffffffffffffffffffffffffffffffffff16638b3f8088896040518263ffffffff1660e01b8152600401808273ffffffffffffffffffffffffffffffffffffffff1673ffffffffffffffffffffffffffffffffffffffff168152602001915050604080518083038186803b15801561551857600080fd5b505afa15801561552c573d6000803e3d6000fd5b505050506040513d604081101561554257600080fd5b810190808051906020019092919080519060200190929190505050809250819350505061557087600161475d565b8095508196505050600082141561559657600085858292509550955095505050506156fa565b60006156c8836156ba8673ffffffffffffffffffffffffffffffffffffffff166308d95cd5866040518263ffffffff1660e01b81526004018082815260200191505060206040518083038186803b1580156155f057600080fd5b505afa158015615604573d6000803e3d6000fd5b505050506040513d602081101561561a57600080fd5b81019080805190602001909291905050508773ffffffffffffffffffffffffffffffffffffffff1663463177126040518163ffffffff1660e01b815260040160206040518083038186803b15801561567157600080fd5b505afa158015615685573d6000803e3d6000fd5b505050506040513d602081101561569b57600080fd5b81019080805190602001909291905050506166c090919063ffffffff16565b6166dc90919063ffffffff16565b905060006156e7826156d9896166f8565b6166dc90919063ffffffff16565b90506156f28161671e565b975050505050505b9250925092565b60008082840190508381101561577f576040517f08c379a000000000000000000000000000000000000000000000000000000000815260040180806020018281038252601b8152602001807f536166654d6174683a206164646974696f6e206f766572666c6f77000000000081525060200191505060405180910390fd5b8091505092915050565b6000601260ff16600a0a6157a6838561676d90919063ffffffff16565b816157ad57fe5b04905092915050565b60006157e4826157d6601260ff16600a0a8661676d90919063ffffffff16565b6167f390919063ffffffff16565b905092915050565b6157f88584848461683d565b600760007f7355534400000000000000000000000000000000000000000000000000000000815260200190815260200160002060009054906101000a900473ffffffffffffffffffffffffffffffffffffffff1673ffffffffffffffffffffffffffffffffffffffff16639dc29fac85856040518363ffffffff1660e01b8152600401808373ffffffffffffffffffffffffffffffffffffffff1673ffffffffffffffffffffffffffffffffffffffff16815260200182815260200192505050600060405180830381600087803b1580156158d257600080fd5b505af11580156158e6573d6000803e3d6000fd5b505050506158f3856161a6565b5050505050565b600061591960055461590b846159ef565b61570190919063ffffffff16565b4210159050919050565b60006159847f53796e74686574697853746174650000000000000000000000000000000000006040518060400160405280601e81526020017f4d697373696e672053796e746865746978537461746520616464726573730000815250615b08565b905090565b600061599d8383601260ff16600a0a616c03565b905092915050565b60006159e783836040518060400160405280601e81526020017f536166654d6174683a207375627472616374696f6e206f766572666c6f770000815250616c5e565b905092915050565b60006159f9616d1e565b73ffffffffffffffffffffffffffffffffffffffff1663bdc963d87f4c4153545f49535355455f4556454e540000000000000000000000000000000084604051602001808381526020018273ffffffffffffffffffffffffffffffffffffffff1673ffffffffffffffffffffffffffffffffffffffff1660601b815260140192505050604051602081830303815290604052805190602001206040518263ffffffff1660e01b81526004018082815260200191505060206040518083038186803b158015615ac657600080fd5b505afa158015615ada573d6000803e3d6000fd5b505050506040513d6020811015615af057600080fd5b81019080805190602001909291905050509050919050565b6000806003600085815260200190815260200160002060009054906101000a900473ffffffffffffffffffffffffffffffffffffffff169050600073ffffffffffffffffffffffffffffffffffffffff168173ffffffffffffffffffffffffffffffffffffffff1614158390615c19576040517f08c379a00000000000000000000000000000000000000000000000000000000081526004018080602001828103825283818151815260200191508051906020019080838360005b83811015615bde578082015181840152602081019050615bc3565b50505050905090810190601f168015615c0b5780820380516001836020036101000a031916815260200191505b509250505060405180910390fd5b508091505092915050565b6000615c2e615923565b90506000615c45838661570190919063ffffffff16565b90506000615c5c82876166c090919063ffffffff16565b90506000615cf18273__SafeDecimalMath_______________________63d5e5e6e66040518163ffffffff1660e01b815260040160206040518083038186803b158015615ca857600080fd5b505af4158015615cbc573d6000803e3d6000fd5b505050506040513d6020811015615cd257600080fd5b81019080805190602001909291905050506159a590919063ffffffff16565b90506000861115615d2457615d2183615d13888a61570190919063ffffffff16565b6166c090919063ffffffff16565b91505b6000861415615d8e578373ffffffffffffffffffffffffffffffffffffffff16631bfba5956040518163ffffffff1660e01b8152600401600060405180830381600087803b158015615d7557600080fd5b505af1158015615d89573d6000803e3d6000fd5b505050505b8373ffffffffffffffffffffffffffffffffffffffff1663a764eb4589846040518363ffffffff1660e01b8152600401808373ffffffffffffffffffffffffffffffffffffffff1673ffffffffffffffffffffffffffffffffffffffff16815260200182815260200192505050600060405180830381600087803b158015615e1557600080fd5b505af1158015615e29573d6000803e3d6000fd5b5050505060008473ffffffffffffffffffffffffffffffffffffffff1663cd92eba96040518163ffffffff1660e01b815260040160206040518083038186803b158015615e7557600080fd5b505afa158015615e89573d6000803e3d6000fd5b505050506040513d6020811015615e9f57600080fd5b81019080805190602001909291905050501115615fb8578373ffffffffffffffffffffffffffffffffffffffff16633d31e97b615f65838773ffffffffffffffffffffffffffffffffffffffff1663463177126040518163ffffffff1660e01b815260040160206040518083038186803b158015615f1c57600080fd5b505afa158015615f30573d6000803e3d6000fd5b505050506040513d6020811015615f4657600080fd5b81019080805190602001909291905050506166dc90919063ffffffff16565b6040518263ffffffff1660e01b815260040180828152602001915050600060405180830381600087803b158015615f9b57600080fd5b505af1158015615faf573d6000803e3d6000fd5b505050506160a2565b8373ffffffffffffffffffffffffffffffffffffffff16633d31e97b73__SafeDecimalMath_______________________63d5e5e6e66040518163ffffffff1660e01b815260040160206040518083038186803b15801561601857600080fd5b505af415801561602c573d6000803e3d6000fd5b505050506040513d602081101561604257600080fd5b81019080805190602001909291905050506040518263ffffffff1660e01b815260040180828152602001915050600060405180830381600087803b15801561608957600080fd5b505af115801561609d573d6000803e3d6000fd5b505050505b5050505050505050565b6160b4616d1e565b73ffffffffffffffffffffffffffffffffffffffff16633562fd207f4c4153545f49535355455f4556454e540000000000000000000000000000000083604051602001808381526020018273ffffffffffffffffffffffffffffffffffffffff1673ffffffffffffffffffffffffffffffffffffffff1660601b81526014019250505060405160208183030381529060405280519060200120426040518363ffffffff1660e01b81526004018083815260200182815260200192505050600060405180830381600087803b15801561618b57600080fd5b505af115801561619f573d6000803e3d6000fd5b5050505050565b6000806161b1615923565b73ffffffffffffffffffffffffffffffffffffffff16638b3f8088846040518263ffffffff1660e01b8152600401808273ffffffffffffffffffffffffffffffffffffffff1673ffffffffffffffffffffffffffffffffffffffff168152602001915050604080518083038186803b15801561622c57600080fd5b505afa158015616240573d6000803e3d6000fd5b505050506040513d604081101561625657600080fd5b8101908080519060200190929190805190602001909291905050508092508193505050616281616d67565b73ffffffffffffffffffffffffffffffffffffffff1663866452748484846040518463ffffffff1660e01b8152600401808473ffffffffffffffffffffffffffffffffffffffff1673ffffffffffffffffffffffffffffffffffffffff1681526020018381526020018281526020019350505050600060405180830381600087803b15801561630f57600080fd5b505af1158015616323573d6000803e3d6000fd5b50505050505050565b600084841061633b578461633d565b835b905061634b8682868661683d565b6000819050600760007f7355534400000000000000000000000000000000000000000000000000000000815260200190815260200160002060009054906101000a900473ffffffffffffffffffffffffffffffffffffffff1673ffffffffffffffffffffffffffffffffffffffff16639dc29fac88836040518363ffffffff1660e01b8152600401808373ffffffffffffffffffffffffffffffffffffffff1673ffffffffffffffffffffffffffffffffffffffff16815260200182815260200192505050600060405180830381600087803b15801561642a57600080fd5b505af115801561643e573d6000803e3d6000fd5b5050505061644b876161a6565b8261645f82876159a590919063ffffffff16565b116165035761646c6153bd565b73ffffffffffffffffffffffffffffffffffffffff1663974e9e7f886040518263ffffffff1660e01b8152600401808273ffffffffffffffffffffffffffffffffffffffff1673ffffffffffffffffffffffffffffffffffffffff168152602001915050600060405180830381600087803b1580156164ea57600080fd5b505af11580156164fe573d6000803e3d6000fd5b505050505b50505050505050565b600061656d7f4574686572436f6c6c61746572616c00000000000000000000000000000000006040518060400160405280601f81526020017f4d697373696e67204574686572436f6c6c61746572616c206164647265737300815250615b08565b905090565b60006165868383601260ff16600a0a616dcd565b905092915050565b60006165ef7f53796e74686574697800000000000000000000000000000000000000000000006040518060400160405280601981526020017f4d697373696e672053796e746865746978206164647265737300000000000000815250615b08565b905090565b60006166557f53796e746865746978457363726f7700000000000000000000000000000000006040518060400160405280601f81526020017f4d697373696e672053796e746865746978457363726f77206164647265737300815250615b08565b905090565b60006166bb7f526577617264457363726f7700000000000000000000000000000000000000006040518060400160405280601c81526020017f4d697373696e6720526577617264457363726f77206164647265737300000000815250615b08565b905090565b60006166d48383601b60ff16600a0a616c03565b905092915050565b60006166f08383601b60ff16600a0a616dcd565b905092915050565b60006167176012601b0360ff16600a0a8361676d90919063ffffffff16565b9050919050565b600080600a6012601b0360ff16600a0a8161673557fe5b04838161673e57fe5b0490506005600a828161674d57fe5b061061675a57600a810190505b600a818161676457fe5b04915050919050565b60008083141561678057600090506167ed565b600082840290508284828161679157fe5b04146167e8576040517f08c379a00000000000000000000000000000000000000000000000000000000081526004018080602001828103825260218152602001806170216021913960400191505060405180910390fd5b809150505b92915050565b600061683583836040518060400160405280601a81526020017f536166654d6174683a206469766973696f6e206279207a65726f000000000000815250616e26565b905092915050565b6000616847615923565b90506000849050600061686382856159a590919063ffffffff16565b90506000809050600082111561691f57600061688883856166c090919063ffffffff16565b905061691b8173__SafeDecimalMath_______________________63d5e5e6e66040518163ffffffff1660e01b815260040160206040518083038186803b1580156168d257600080fd5b505af41580156168e6573d6000803e3d6000fd5b505050506040513d60208110156168fc57600080fd5b810190808051906020019092919050505061570190919063ffffffff16565b9150505b85831415616a2c578373ffffffffffffffffffffffffffffffffffffffff1663a764eb458960006040518363ffffffff1660e01b8152600401808373ffffffffffffffffffffffffffffffffffffffff1673ffffffffffffffffffffffffffffffffffffffff16815260200182815260200192505050600060405180830381600087803b1580156169af57600080fd5b505af11580156169c3573d6000803e3d6000fd5b505050508373ffffffffffffffffffffffffffffffffffffffff1663ba08f2996040518163ffffffff1660e01b8152600401600060405180830381600087803b158015616a0f57600080fd5b505af1158015616a23573d6000803e3d6000fd5b50505050616afc565b6000616a4184886159a590919063ffffffff16565b90506000616a5884836166c090919063ffffffff16565b90508573ffffffffffffffffffffffffffffffffffffffff1663a764eb458b836040518363ffffffff1660e01b8152600401808373ffffffffffffffffffffffffffffffffffffffff1673ffffffffffffffffffffffffffffffffffffffff16815260200182815260200192505050600060405180830381600087803b158015616ae157600080fd5b505af1158015616af5573d6000803e3d6000fd5b5050505050505b8373ffffffffffffffffffffffffffffffffffffffff16633d31e97b616bab838773ffffffffffffffffffffffffffffffffffffffff1663463177126040518163ffffffff1660e01b815260040160206040518083038186803b158015616b6257600080fd5b505afa158015616b76573d6000803e3d6000fd5b505050506040513d6020811015616b8c57600080fd5b81019080805190602001909291905050506166dc90919063ffffffff16565b6040518263ffffffff1660e01b815260040180828152602001915050600060405180830381600087803b158015616be157600080fd5b505af1158015616bf5573d6000803e3d6000fd5b505050505050505050505050565b600080616c2e84616c20600a86028861676d90919063ffffffff16565b6167f390919063ffffffff16565b90506005600a8281616c3c57fe5b0610616c4957600a810190505b600a8181616c5357fe5b049150509392505050565b6000838311158290616d0b576040517f08c379a00000000000000000000000000000000000000000000000000000000081526004018080602001828103825283818151815260200191508051906020019080838360005b83811015616cd0578082015181840152602081019050616cb5565b50505050905090810190601f168015616cfd5780820380516001836020036101000a031916815260200191505b509250505060405180910390fd5b5060008385039050809150509392505050565b6000616d627f49737375616e6365457465726e616c53746f726167650000000000000000000060405180606001604052806026815260200161704260269139615b08565b905090565b6000616dc87f466565506f6f6c000000000000000000000000000000000000000000000000006040518060400160405280601781526020017f4d697373696e6720466565506f6f6c2061646472657373000000000000000000815250615b08565b905090565b600080600a8381616dda57fe5b04616dee858761676d90919063ffffffff16565b81616df557fe5b0490506005600a8281616e0457fe5b0610616e1157600a810190505b600a8181616e1b57fe5b049150509392505050565b60008083118290616ed2576040517f08c379a00000000000000000000000000000000000000000000000000000000081526004018080602001828103825283818151815260200191508051906020019080838360005b83811015616e97578082015181840152602081019050616e7c565b50505050905090810190601f168015616ec45780820380516001836020036101000a031916815260200191505b509250505060405180910390fd5b506000838581616ede57fe5b049050809150509392505050565b815481835581811115616f1357818360005260206000209182019101616f129190616f3b565b5b505050565b604051806103000160405280601890602082028038833980820191505090505090565b616f5d91905b80821115616f59576000816000905550600101616f41565b5090565b9056fe596f75206d757374206265206e6f6d696e61746564206265666f726520796f752063616e20616363657074206f776e6572736869704d697373696e672044656c6567617465417070726f76616c7320616464726573734973737565723a204f6e6c79207468652073796e74686574697820636f6e74726163742063616e20706572666f726d207468697320616374696f6e4f6e6c792074686520636f6e7472616374206f776e6572206d617920706572666f726d207468697320616374696f6e536166654d6174683a206d756c7469706c69636174696f6e206f766572666c6f774d697373696e672049737375616e6365457465726e616c53746f726167652061646472657373a265627a7a7231582045845faff9015d1a8991c63d180d1643ed99c4cc06c090c16948b40098efb0ad64736f6c63430005100032",
  "source": "pragma solidity ^0.5.16;\n\n// Inheritance\nimport \"./Owned.sol\";\nimport \"./MixinResolver.sol\";\nimport \"./interfaces/IIssuer.sol\";\n\n// Libraries\nimport \"./SafeDecimalMath.sol\";\n\n// Internal references\nimport \"./interfaces/ISynth.sol\";\nimport \"./interfaces/ISynthetix.sol\";\nimport \"./interfaces/IFeePool.sol\";\nimport \"./interfaces/ISynthetixState.sol\";\nimport \"./interfaces/IExchanger.sol\";\nimport \"./interfaces/IDelegateApprovals.sol\";\nimport \"./IssuanceEternalStorage.sol\";\nimport \"./interfaces/IExchangeRates.sol\";\nimport \"./interfaces/IEtherCollateral.sol\";\nimport \"./interfaces/IRewardEscrow.sol\";\nimport \"./interfaces/IHasBalance.sol\";\nimport \"./interfaces/IERC20.sol\";\nimport \"./interfaces/ILiquidations.sol\";\n\n\n// https://docs.synthetix.io/contracts/Issuer\ncontract Issuer is Owned, MixinResolver, IIssuer {\n    using SafeMath for uint;\n    using SafeDecimalMath for uint;\n\n    bytes32 private constant sUSD = \"sUSD\";\n    bytes32 public constant LAST_ISSUE_EVENT = \"LAST_ISSUE_EVENT\";\n\n    // Minimum Stake time may not exceed 1 weeks.\n    uint public constant MAX_MINIMUM_STAKING_TIME = 1 weeks;\n\n    uint public minimumStakeTime = 24 hours; // default minimum waiting period after issuing synths\n\n    // Available Synths which can be used with the system\n    ISynth[] public availableSynths;\n    mapping(bytes32 => ISynth) public synths;\n    mapping(address => bytes32) public synthsByAddress;\n\n    /* ========== ADDRESS RESOLVER CONFIGURATION ========== */\n\n    bytes32 private constant CONTRACT_SYNTHETIX = \"Synthetix\";\n    bytes32 private constant CONTRACT_EXCHANGER = \"Exchanger\";\n    bytes32 private constant CONTRACT_EXRATES = \"ExchangeRates\";\n    bytes32 private constant CONTRACT_SYNTHETIXSTATE = \"SynthetixState\";\n    bytes32 private constant CONTRACT_FEEPOOL = \"FeePool\";\n    bytes32 private constant CONTRACT_DELEGATEAPPROVALS = \"DelegateApprovals\";\n    bytes32 private constant CONTRACT_ISSUANCEETERNALSTORAGE = \"IssuanceEternalStorage\";\n    bytes32 private constant CONTRACT_ETHERCOLLATERAL = \"EtherCollateral\";\n    bytes32 private constant CONTRACT_REWARDESCROW = \"RewardEscrow\";\n    bytes32 private constant CONTRACT_SYNTHETIXESCROW = \"SynthetixEscrow\";\n    bytes32 private constant CONTRACT_LIQUIDATIONS = \"Liquidations\";\n\n    bytes32[24] private addressesToCache = [\n        CONTRACT_SYNTHETIX,\n        CONTRACT_EXCHANGER,\n        CONTRACT_EXRATES,\n        CONTRACT_SYNTHETIXSTATE,\n        CONTRACT_FEEPOOL,\n        CONTRACT_DELEGATEAPPROVALS,\n        CONTRACT_ISSUANCEETERNALSTORAGE,\n        CONTRACT_ETHERCOLLATERAL,\n        CONTRACT_REWARDESCROW,\n        CONTRACT_SYNTHETIXESCROW,\n        CONTRACT_LIQUIDATIONS\n    ];\n\n    constructor(address _owner, address _resolver) public Owned(_owner) MixinResolver(_resolver, addressesToCache) {}\n\n    /* ========== VIEWS ========== */\n    function synthetix() internal view returns (ISynthetix) {\n        return ISynthetix(requireAndGetAddress(CONTRACT_SYNTHETIX, \"Missing Synthetix address\"));\n    }\n\n    function synthetixERC20() internal view returns (IERC20) {\n        return IERC20(requireAndGetAddress(CONTRACT_SYNTHETIX, \"Missing Synthetix address\"));\n    }\n\n    function exchanger() internal view returns (IExchanger) {\n        return IExchanger(requireAndGetAddress(CONTRACT_EXCHANGER, \"Missing Exchanger address\"));\n    }\n\n    function exchangeRates() internal view returns (IExchangeRates) {\n        return IExchangeRates(requireAndGetAddress(CONTRACT_EXRATES, \"Missing ExchangeRates address\"));\n    }\n\n    function synthetixState() internal view returns (ISynthetixState) {\n        return ISynthetixState(requireAndGetAddress(CONTRACT_SYNTHETIXSTATE, \"Missing SynthetixState address\"));\n    }\n\n    function feePool() internal view returns (IFeePool) {\n        return IFeePool(requireAndGetAddress(CONTRACT_FEEPOOL, \"Missing FeePool address\"));\n    }\n\n    function liquidations() internal view returns (ILiquidations) {\n        return ILiquidations(requireAndGetAddress(CONTRACT_LIQUIDATIONS, \"Missing Liquidations address\"));\n    }\n\n    function delegateApprovals() internal view returns (IDelegateApprovals) {\n        return IDelegateApprovals(requireAndGetAddress(CONTRACT_DELEGATEAPPROVALS, \"Missing DelegateApprovals address\"));\n    }\n\n    function issuanceEternalStorage() internal view returns (IssuanceEternalStorage) {\n        return\n            IssuanceEternalStorage(\n                requireAndGetAddress(CONTRACT_ISSUANCEETERNALSTORAGE, \"Missing IssuanceEternalStorage address\")\n            );\n    }\n\n    function etherCollateral() internal view returns (IEtherCollateral) {\n        return IEtherCollateral(requireAndGetAddress(CONTRACT_ETHERCOLLATERAL, \"Missing EtherCollateral address\"));\n    }\n\n    function rewardEscrow() internal view returns (IRewardEscrow) {\n        return IRewardEscrow(requireAndGetAddress(CONTRACT_REWARDESCROW, \"Missing RewardEscrow address\"));\n    }\n\n    function synthetixEscrow() internal view returns (IHasBalance) {\n        return IHasBalance(requireAndGetAddress(CONTRACT_SYNTHETIXESCROW, \"Missing SynthetixEscrow address\"));\n    }\n\n    function _availableCurrencyKeysWithOptionalSNX(bool withSNX) internal view returns (bytes32[] memory) {\n        bytes32[] memory currencyKeys = new bytes32[](availableSynths.length + (withSNX ? 1 : 0));\n\n        for (uint i = 0; i < availableSynths.length; i++) {\n            currencyKeys[i] = synthsByAddress[address(availableSynths[i])];\n        }\n\n        if (withSNX) {\n            currencyKeys[availableSynths.length] = \"SNX\";\n        }\n\n        return currencyKeys;\n    }\n\n    function _totalIssuedSynths(bytes32 currencyKey, bool excludeEtherCollateral)\n        internal\n        view\n        returns (uint totalIssued, bool anyRateIsStale)\n    {\n        uint total = 0;\n        uint currencyRate;\n\n        bytes32[] memory synthsAndSNX = _availableCurrencyKeysWithOptionalSNX(true);\n\n        // In order to reduce gas usage, fetch all rates and stale at once\n        (uint[] memory rates, bool anyRateStale) = exchangeRates().ratesAndStaleForCurrencies(synthsAndSNX);\n\n        // Then instead of invoking exchangeRates().effectiveValue() for each synth, use the rate already fetched\n        for (uint i = 0; i < synthsAndSNX.length - 1; i++) {\n            bytes32 synth = synthsAndSNX[i];\n            if (synth == currencyKey) {\n                currencyRate = rates[i];\n            }\n            uint totalSynths = IERC20(address(synths[synth])).totalSupply();\n\n            // minus total issued synths from Ether Collateral from sETH.totalSupply()\n            if (excludeEtherCollateral && synth == \"sETH\") {\n                totalSynths = totalSynths.sub(etherCollateral().totalIssuedSynths());\n            }\n\n            uint synthValue = totalSynths.multiplyDecimalRound(rates[i]);\n            total = total.add(synthValue);\n        }\n\n        if (currencyKey == \"SNX\") {\n            // if no rate while iterating through synths, then try SNX\n            currencyRate = rates[synthsAndSNX.length - 1];\n        } else if (currencyRate == 0) {\n            // and, in an edge case where the requested rate isn't a synth or SNX, then do the lookup\n            currencyRate = exchangeRates().rateForCurrency(currencyKey);\n        }\n\n        return (total.divideDecimalRound(currencyRate), anyRateStale);\n    }\n\n    function _debtBalanceOfAndTotalDebt(address _issuer, bytes32 currencyKey)\n        internal\n        view\n        returns (\n            uint debtBalance,\n            uint totalSystemValue,\n            bool anyRateIsStale\n        )\n    {\n        ISynthetixState state = synthetixState();\n\n        // What was their initial debt ownership?\n        uint initialDebtOwnership;\n        uint debtEntryIndex;\n        (initialDebtOwnership, debtEntryIndex) = state.issuanceData(_issuer);\n\n        // What's the total value of the system excluding ETH backed synths in their requested currency?\n        (totalSystemValue, anyRateIsStale) = _totalIssuedSynths(currencyKey, true);\n\n        // If it's zero, they haven't issued, and they have no debt.\n        // Note: it's more gas intensive to put this check here rather than before _totalIssuedSynths\n        // if they have 0 SNX, but it's a necessary trade-off\n        if (initialDebtOwnership == 0) return (0, totalSystemValue, anyRateIsStale);\n\n        // Figure out the global debt percentage delta from when they entered the system.\n        // This is a high precision integer of 27 (1e27) decimals.\n        uint currentDebtOwnership = state\n            .lastDebtLedgerEntry()\n            .divideDecimalRoundPrecise(state.debtLedger(debtEntryIndex))\n            .multiplyDecimalRoundPrecise(initialDebtOwnership);\n\n        // Their debt balance is their portion of the total system value.\n        uint highPrecisionBalance = totalSystemValue.decimalToPreciseDecimal().multiplyDecimalRoundPrecise(\n            currentDebtOwnership\n        );\n\n        // Convert back into 18 decimals (1e18)\n        debtBalance = highPrecisionBalance.preciseDecimalToDecimal();\n    }\n\n    function _canBurnSynths(address account) internal view returns (bool) {\n        return now >= _lastIssueEvent(account).add(minimumStakeTime);\n    }\n\n    function _lastIssueEvent(address account) internal view returns (uint) {\n        //  Get the timestamp of the last issue this account made\n        return issuanceEternalStorage().getUIntValue(keccak256(abi.encodePacked(LAST_ISSUE_EVENT, account)));\n    }\n\n    function _remainingIssuableSynths(address _issuer)\n        internal\n        view\n        returns (\n            uint maxIssuable,\n            uint alreadyIssued,\n            uint totalSystemDebt,\n            bool anyRateIsStale\n        )\n    {\n        (alreadyIssued, totalSystemDebt, anyRateIsStale) = _debtBalanceOfAndTotalDebt(_issuer, sUSD);\n        maxIssuable = _maxIssuableSynths(_issuer);\n\n        if (alreadyIssued >= maxIssuable) {\n            maxIssuable = 0;\n        } else {\n            maxIssuable = maxIssuable.sub(alreadyIssued);\n        }\n    }\n\n    function _maxIssuableSynths(address _issuer) internal view returns (uint) {\n        // What is the value of their SNX balance in sUSD\n        uint destinationValue = exchangeRates().effectiveValue(\"SNX\", _collateral(_issuer), sUSD);\n\n        // They're allowed to issue up to issuanceRatio of that value\n        return destinationValue.multiplyDecimal(synthetixState().issuanceRatio());\n    }\n\n    function _collateralisationRatio(address _issuer) internal view returns (uint, bool) {\n        uint totalOwnedSynthetix = _collateral(_issuer);\n\n        (uint debtBalance, , bool anyRateIsStale) = _debtBalanceOfAndTotalDebt(_issuer, \"SNX\");\n\n        // it's more gas intensive to put this check here if they have 0 SNX, but it complies with the interface\n        if (totalOwnedSynthetix == 0) return (0, anyRateIsStale);\n\n        return (debtBalance.divideDecimalRound(totalOwnedSynthetix), anyRateIsStale);\n    }\n\n    function _collateral(address account) internal view returns (uint) {\n        uint balance = synthetixERC20().balanceOf(account);\n\n        if (address(synthetixEscrow()) != address(0)) {\n            balance = balance.add(synthetixEscrow().balanceOf(account));\n        }\n\n        if (address(rewardEscrow()) != address(0)) {\n            balance = balance.add(rewardEscrow().balanceOf(account));\n        }\n\n        return balance;\n    }\n\n    /* ========== VIEWS ========== */\n\n    function canBurnSynths(address account) external view returns (bool) {\n        return _canBurnSynths(account);\n    }\n\n    function availableCurrencyKeys() external view returns (bytes32[] memory) {\n        return _availableCurrencyKeysWithOptionalSNX(false);\n    }\n\n    function availableSynthCount() external view returns (uint) {\n        return availableSynths.length;\n    }\n\n    function anySynthOrSNXRateIsStale() external view returns (bool anyRateStale) {\n        bytes32[] memory currencyKeysWithSNX = _availableCurrencyKeysWithOptionalSNX(true);\n\n        (, anyRateStale) = exchangeRates().ratesAndStaleForCurrencies(currencyKeysWithSNX);\n    }\n\n    function totalIssuedSynths(bytes32 currencyKey, bool excludeEtherCollateral) external view returns (uint totalIssued) {\n        (totalIssued, ) = _totalIssuedSynths(currencyKey, excludeEtherCollateral);\n    }\n\n    function lastIssueEvent(address account) external view returns (uint) {\n        return _lastIssueEvent(account);\n    }\n\n    function collateralisationRatio(address _issuer) external view returns (uint cratio) {\n        (cratio, ) = _collateralisationRatio(_issuer);\n    }\n\n    function collateralisationRatioAndAnyRatesStale(address _issuer)\n        external\n        view\n        returns (uint cratio, bool anyRateIsStale)\n    {\n        return _collateralisationRatio(_issuer);\n    }\n\n    function collateral(address account) external view returns (uint) {\n        return _collateral(account);\n    }\n\n    function debtBalanceOf(address _issuer, bytes32 currencyKey) external view returns (uint debtBalance) {\n        ISynthetixState state = synthetixState();\n\n        // What was their initial debt ownership?\n        (uint initialDebtOwnership, ) = state.issuanceData(_issuer);\n\n        // If it's zero, they haven't issued, and they have no debt.\n        if (initialDebtOwnership == 0) return 0;\n\n        (debtBalance, , ) = _debtBalanceOfAndTotalDebt(_issuer, currencyKey);\n    }\n\n    function remainingIssuableSynths(address _issuer)\n        external\n        view\n        returns (\n            uint maxIssuable,\n            uint alreadyIssued,\n            uint totalSystemDebt\n        )\n    {\n        (maxIssuable, alreadyIssued, totalSystemDebt, ) = _remainingIssuableSynths(_issuer);\n    }\n\n    function maxIssuableSynths(address _issuer) external view returns (uint) {\n        return _maxIssuableSynths(_issuer);\n    }\n\n    function transferableSynthetixAndAnyRateIsStale(address account, uint balance)\n        external\n        view\n        returns (uint transferable, bool anyRateIsStale)\n    {\n        // How many SNX do they have, excluding escrow?\n        // Note: We're excluding escrow here because we're interested in their transferable amount\n        // and escrowed SNX are not transferable.\n\n        // How many of those will be locked by the amount they've issued?\n        // Assuming issuance ratio is 20%, then issuing 20 SNX of value would require\n        // 100 SNX to be locked in their wallet to maintain their collateralisation ratio\n        // The locked synthetix value can exceed their balance.\n        uint debtBalance;\n        (debtBalance, , anyRateIsStale) = _debtBalanceOfAndTotalDebt(account, \"SNX\");\n        uint lockedSynthetixValue = debtBalance.divideDecimalRound(synthetixState().issuanceRatio());\n\n        // If we exceed the balance, no SNX are transferable, otherwise the difference is.\n        if (lockedSynthetixValue >= balance) {\n            transferable = 0;\n        } else {\n            transferable = balance.sub(lockedSynthetixValue);\n        }\n    }\n\n    /* ========== SETTERS ========== */\n\n    function setMinimumStakeTime(uint _seconds) external onlyOwner {\n        // Set the min stake time on locking synthetix\n        require(_seconds <= MAX_MINIMUM_STAKING_TIME, \"stake time exceed maximum 1 week\");\n        minimumStakeTime = _seconds;\n        emit MinimumStakeTimeUpdated(minimumStakeTime);\n    }\n\n    /* ========== MUTATIVE FUNCTIONS ========== */\n\n    function addSynth(ISynth synth) external onlyOwner {\n        bytes32 currencyKey = synth.currencyKey();\n\n        require(synths[currencyKey] == ISynth(0), \"Synth already exists\");\n        require(synthsByAddress[address(synth)] == bytes32(0), \"Synth address already exists\");\n\n        availableSynths.push(synth);\n        synths[currencyKey] = synth;\n        synthsByAddress[address(synth)] = currencyKey;\n\n        emit SynthAdded(currencyKey, address(synth));\n    }\n\n    function removeSynth(bytes32 currencyKey) external onlyOwner {\n        require(address(synths[currencyKey]) != address(0), \"Synth does not exist\");\n        require(IERC20(address(synths[currencyKey])).totalSupply() == 0, \"Synth supply exists\");\n        require(currencyKey != sUSD, \"Cannot remove synth\");\n\n        // Save the address we're removing for emitting the event at the end.\n        address synthToRemove = address(synths[currencyKey]);\n\n        // Remove the synth from the availableSynths array.\n        for (uint i = 0; i < availableSynths.length; i++) {\n            if (address(availableSynths[i]) == synthToRemove) {\n                delete availableSynths[i];\n\n                // Copy the last synth into the place of the one we just deleted\n                // If there's only one synth, this is synths[0] = synths[0].\n                // If we're deleting the last one, it's also a NOOP in the same way.\n                availableSynths[i] = availableSynths[availableSynths.length - 1];\n\n                // Decrease the size of the array by one.\n                availableSynths.length--;\n\n                break;\n            }\n        }\n\n        // And remove it from the synths mapping\n        delete synthsByAddress[address(synths[currencyKey])];\n        delete synths[currencyKey];\n\n        emit SynthRemoved(currencyKey, synthToRemove);\n    }\n\n    function issueSynthsOnBehalf(\n        address issueForAddress,\n        address from,\n        uint amount\n    ) external onlySynthetix {\n        require(delegateApprovals().canIssueFor(issueForAddress, from), \"Not approved to act on behalf\");\n\n        (uint maxIssuable, uint existingDebt, uint totalSystemDebt, bool anyRateIsStale) = _remainingIssuableSynths(\n            issueForAddress\n        );\n\n        require(!anyRateIsStale, \"A synth or SNX rate is stale\");\n\n        require(amount <= maxIssuable, \"Amount too large\");\n\n        _internalIssueSynths(issueForAddress, amount, existingDebt, totalSystemDebt);\n    }\n\n    function issueMaxSynthsOnBehalf(address issueForAddress, address from) external onlySynthetix {\n        require(delegateApprovals().canIssueFor(issueForAddress, from), \"Not approved to act on behalf\");\n\n        (uint maxIssuable, uint existingDebt, uint totalSystemDebt, bool anyRateIsStale) = _remainingIssuableSynths(\n            issueForAddress\n        );\n\n        require(!anyRateIsStale, \"A synth or SNX rate is stale\");\n\n        _internalIssueSynths(issueForAddress, maxIssuable, existingDebt, totalSystemDebt);\n    }\n\n    function issueSynths(address from, uint amount) external onlySynthetix {\n        // Get remaining issuable in sUSD and existingDebt\n        (uint maxIssuable, uint existingDebt, uint totalSystemDebt, bool anyRateIsStale) = _remainingIssuableSynths(from);\n\n        require(!anyRateIsStale, \"A synth or SNX rate is stale\");\n\n        require(amount <= maxIssuable, \"Amount too large\");\n\n        _internalIssueSynths(from, amount, existingDebt, totalSystemDebt);\n    }\n\n    function issueMaxSynths(address from) external onlySynthetix {\n        // Figure out the maximum we can issue in that currency\n        (uint maxIssuable, uint existingDebt, uint totalSystemDebt, bool anyRateIsStale) = _remainingIssuableSynths(from);\n\n        require(!anyRateIsStale, \"A synth or SNX rate is stale\");\n\n        _internalIssueSynths(from, maxIssuable, existingDebt, totalSystemDebt);\n    }\n\n    function burnSynthsOnBehalf(\n        address burnForAddress,\n        address from,\n        uint amount\n    ) external onlySynthetix {\n        require(delegateApprovals().canBurnFor(burnForAddress, from), \"Not approved to act on behalf\");\n        _burnSynths(burnForAddress, amount);\n    }\n\n    function burnSynths(address from, uint amount) external onlySynthetix {\n        _burnSynths(from, amount);\n    }\n\n    /* ========== INTERNAL FUNCTIONS ========== */\n\n    function _internalIssueSynths(\n        address from,\n        uint amount,\n        uint existingDebt,\n        uint totalSystemDebt\n    ) internal {\n        // Keep track of the debt they're about to create\n        _addToDebtRegister(from, amount, existingDebt, totalSystemDebt);\n\n        // record issue timestamp\n        _setLastIssueEvent(from);\n\n        // Create their synths\n        synths[sUSD].issue(from, amount);\n\n        // Store their locked SNX amount to determine their fee % for the period\n        _appendAccountIssuanceRecord(from);\n    }\n\n    // Burn synths requires minimum stake time is elapsed\n    function _burnSynths(address from, uint amount) internal {\n        require(_canBurnSynths(from), \"Minimum stake time not reached\");\n\n        // First settle anything pending into sUSD as burning or issuing impacts the size of the debt pool\n        (, uint refunded, uint numEntriesSettled) = exchanger().settle(from, sUSD);\n\n        // How much debt do they have?\n        (uint existingDebt, uint totalSystemValue, bool anyRateIsStale) = _debtBalanceOfAndTotalDebt(from, sUSD);\n\n        require(!anyRateIsStale, \"A synth or SNX rate is stale\");\n\n        require(existingDebt > 0, \"No debt to forgive\");\n\n        uint debtToRemoveAfterSettlement = amount;\n\n        if (numEntriesSettled > 0) {\n            debtToRemoveAfterSettlement = exchanger().calculateAmountAfterSettlement(from, sUSD, amount, refunded);\n        }\n\n        uint maxIssuableSynthsForAccount = _maxIssuableSynths(from);\n\n        _internalBurnSynths(from, debtToRemoveAfterSettlement, existingDebt, totalSystemValue, maxIssuableSynthsForAccount);\n    }\n\n    function _burnSynthsForLiquidation(\n        address burnForAddress,\n        address liquidator,\n        uint amount,\n        uint existingDebt,\n        uint totalDebtIssued\n    ) internal {\n        // liquidation requires sUSD to be already settled / not in waiting period\n\n        // Remove liquidated debt from the ledger\n        _removeFromDebtRegister(burnForAddress, amount, existingDebt, totalDebtIssued);\n\n        // synth.burn does a safe subtraction on balance (so it will revert if there are not enough synths).\n        synths[sUSD].burn(liquidator, amount);\n\n        // Store their debtRatio against a feeperiod to determine their fee/rewards % for the period\n        _appendAccountIssuanceRecord(burnForAddress);\n    }\n\n    function burnSynthsToTargetOnBehalf(address burnForAddress, address from) external onlySynthetix {\n        require(delegateApprovals().canBurnFor(burnForAddress, from), \"Not approved to act on behalf\");\n        _burnSynthsToTarget(burnForAddress);\n    }\n\n    function burnSynthsToTarget(address from) external onlySynthetix {\n        _burnSynthsToTarget(from);\n    }\n\n    // Burns your sUSD to the target c-ratio so you can claim fees\n    // Skip settle anything pending into sUSD as user will still have debt remaining after target c-ratio\n    function _burnSynthsToTarget(address from) internal {\n        // How much debt do they have?\n        (uint existingDebt, uint totalSystemValue, bool anyRateIsStale) = _debtBalanceOfAndTotalDebt(from, sUSD);\n\n        require(!anyRateIsStale, \"A synth or SNX rate is stale\");\n\n        require(existingDebt > 0, \"No debt to forgive\");\n\n        uint maxIssuableSynthsForAccount = _maxIssuableSynths(from);\n\n        // The amount of sUSD to burn to fix c-ratio. The safe sub will revert if its < 0\n        uint amountToBurnToTarget = existingDebt.sub(maxIssuableSynthsForAccount);\n\n        // Burn will fail if you dont have the required sUSD in your wallet\n        _internalBurnSynths(from, amountToBurnToTarget, existingDebt, totalSystemValue, maxIssuableSynthsForAccount);\n    }\n\n    function _internalBurnSynths(\n        address from,\n        uint amount,\n        uint existingDebt,\n        uint totalSystemValue,\n        uint maxIssuableSynthsForAccount\n    ) internal {\n        // If they're trying to burn more debt than they actually owe, rather than fail the transaction, let's just\n        // clear their debt and leave them be.\n        uint amountToRemove = existingDebt < amount ? existingDebt : amount;\n\n        // Remove their debt from the ledger\n        _removeFromDebtRegister(from, amountToRemove, existingDebt, totalSystemValue);\n\n        uint amountToBurn = amountToRemove;\n\n        // synth.burn does a safe subtraction on balance (so it will revert if there are not enough synths).\n        synths[sUSD].burn(from, amountToBurn);\n\n        // Store their debtRatio against a feeperiod to determine their fee/rewards % for the period\n        _appendAccountIssuanceRecord(from);\n\n        // Check and remove liquidation if existingDebt after burning is <= maxIssuableSynths\n        // Issuance ratio is fixed so should remove any liquidations\n        if (existingDebt.sub(amountToBurn) <= maxIssuableSynthsForAccount) {\n            liquidations().removeAccountInLiquidation(from);\n        }\n    }\n\n    function liquidateDelinquentAccount(\n        address account,\n        uint susdAmount,\n        address liquidator\n    ) external onlySynthetix returns (uint totalRedeemed, uint amountToLiquidate) {\n        // Ensure waitingPeriod and sUSD balance is settled as burning impacts the size of debt pool\n        require(!exchanger().hasWaitingPeriodOrSettlementOwing(liquidator, sUSD), \"sUSD needs to be settled\");\n        ILiquidations _liquidations = liquidations();\n\n        // Check account is liquidation open\n        require(_liquidations.isOpenForLiquidation(account), \"Account not open for liquidation\");\n\n        // require liquidator has enough sUSD\n        require(IERC20(address(synths[sUSD])).balanceOf(liquidator) >= susdAmount, \"Not enough sUSD\");\n\n        uint liquidationPenalty = _liquidations.liquidationPenalty();\n\n        uint collateralForAccount = _collateral(account);\n\n        // What is the value of their SNX balance in sUSD?\n        uint collateralValue = exchangeRates().effectiveValue(\"SNX\", collateralForAccount, sUSD);\n\n        // What is their debt in sUSD?\n        (uint debtBalance, uint totalDebtIssued, bool anyRateIsStale) = _debtBalanceOfAndTotalDebt(account, sUSD);\n\n        require(!anyRateIsStale, \"A synth or SNX rate is stale\");\n\n        uint amountToFixRatio = _liquidations.calculateAmountToFixCollateral(debtBalance, collateralValue);\n\n        // Cap amount to liquidate to repair collateral ratio based on issuance ratio\n        amountToLiquidate = amountToFixRatio < susdAmount ? amountToFixRatio : susdAmount;\n\n        // what's the equivalent amount of snx for the amountToLiquidate?\n        uint snxRedeemed = exchangeRates().effectiveValue(sUSD, amountToLiquidate, \"SNX\");\n\n        // Add penalty\n        totalRedeemed = snxRedeemed.multiplyDecimal(SafeDecimalMath.unit().add(liquidationPenalty));\n\n        // if total SNX to redeem is greater than account's collateral\n        // account is under collateralised, liquidate all collateral and reduce sUSD to burn\n        // an insurance fund will be added to cover these undercollateralised positions\n        if (totalRedeemed > collateralForAccount) {\n            // set totalRedeemed to all collateral\n            totalRedeemed = collateralForAccount;\n\n            // whats the equivalent sUSD to burn for all collateral less penalty\n            amountToLiquidate = exchangeRates().effectiveValue(\n                \"SNX\",\n                collateralForAccount.divideDecimal(SafeDecimalMath.unit().add(liquidationPenalty)),\n                sUSD\n            );\n        }\n\n        // burn sUSD from messageSender (liquidator) and reduce account's debt\n        _burnSynthsForLiquidation(account, liquidator, amountToLiquidate, debtBalance, totalDebtIssued);\n\n        if (amountToLiquidate == amountToFixRatio) {\n            // Remove liquidation\n            _liquidations.removeAccountInLiquidation(account);\n        }\n    }\n\n    function _setLastIssueEvent(address account) internal {\n        // Set the timestamp of the last issueSynths\n        issuanceEternalStorage().setUIntValue(keccak256(abi.encodePacked(LAST_ISSUE_EVENT, account)), block.timestamp);\n    }\n\n    function _appendAccountIssuanceRecord(address from) internal {\n        uint initialDebtOwnership;\n        uint debtEntryIndex;\n        (initialDebtOwnership, debtEntryIndex) = synthetixState().issuanceData(from);\n\n        feePool().appendAccountIssuanceRecord(from, initialDebtOwnership, debtEntryIndex);\n    }\n\n    function _addToDebtRegister(\n        address from,\n        uint amount,\n        uint existingDebt,\n        uint totalDebtIssued\n    ) internal {\n        ISynthetixState state = synthetixState();\n\n        // What will the new total be including the new value?\n        uint newTotalDebtIssued = amount.add(totalDebtIssued);\n\n        // What is their percentage (as a high precision int) of the total debt?\n        uint debtPercentage = amount.divideDecimalRoundPrecise(newTotalDebtIssued);\n\n        // And what effect does this percentage change have on the global debt holding of other issuers?\n        // The delta specifically needs to not take into account any existing debt as it's already\n        // accounted for in the delta from when they issued previously.\n        // The delta is a high precision integer.\n        uint delta = SafeDecimalMath.preciseUnit().sub(debtPercentage);\n\n        // And what does their debt ownership look like including this previous stake?\n        if (existingDebt > 0) {\n            debtPercentage = amount.add(existingDebt).divideDecimalRoundPrecise(newTotalDebtIssued);\n        }\n\n        // Are they a new issuer? If so, record them.\n        if (existingDebt == 0) {\n            state.incrementTotalIssuerCount();\n        }\n\n        // Save the debt entry parameters\n        state.setCurrentIssuanceData(from, debtPercentage);\n\n        // And if we're the first, push 1 as there was no effect to any other holders, otherwise push\n        // the change for the rest of the debt holders. The debt ledger holds high precision integers.\n        if (state.debtLedgerLength() > 0) {\n            state.appendDebtLedgerValue(state.lastDebtLedgerEntry().multiplyDecimalRoundPrecise(delta));\n        } else {\n            state.appendDebtLedgerValue(SafeDecimalMath.preciseUnit());\n        }\n    }\n\n    function _removeFromDebtRegister(\n        address from,\n        uint amount,\n        uint existingDebt,\n        uint totalDebtIssued\n    ) internal {\n        ISynthetixState state = synthetixState();\n\n        uint debtToRemove = amount;\n\n        // What will the new total after taking out the withdrawn amount\n        uint newTotalDebtIssued = totalDebtIssued.sub(debtToRemove);\n\n        uint delta = 0;\n\n        // What will the debt delta be if there is any debt left?\n        // Set delta to 0 if no more debt left in system after user\n        if (newTotalDebtIssued > 0) {\n            // What is the percentage of the withdrawn debt (as a high precision int) of the total debt after?\n            uint debtPercentage = debtToRemove.divideDecimalRoundPrecise(newTotalDebtIssued);\n\n            // And what effect does this percentage change have on the global debt holding of other issuers?\n            // The delta specifically needs to not take into account any existing debt as it's already\n            // accounted for in the delta from when they issued previously.\n            delta = SafeDecimalMath.preciseUnit().add(debtPercentage);\n        }\n\n        // Are they exiting the system, or are they just decreasing their debt position?\n        if (debtToRemove == existingDebt) {\n            state.setCurrentIssuanceData(from, 0);\n            state.decrementTotalIssuerCount();\n        } else {\n            // What percentage of the debt will they be left with?\n            uint newDebt = existingDebt.sub(debtToRemove);\n            uint newDebtPercentage = newDebt.divideDecimalRoundPrecise(newTotalDebtIssued);\n\n            // Store the debt percentage and debt ledger as high precision integers\n            state.setCurrentIssuanceData(from, newDebtPercentage);\n        }\n\n        // Update our cumulative ledger. This is also a high precision integer.\n        state.appendDebtLedgerValue(state.lastDebtLedgerEntry().multiplyDecimalRoundPrecise(delta));\n    }\n\n    /* ========== MODIFIERS ========== */\n\n    modifier onlySynthetix() {\n        require(msg.sender == address(synthetix()), \"Issuer: Only the synthetix contract can perform this action\");\n        _;\n    }\n\n    /* ========== EVENTS ========== */\n\n    event MinimumStakeTimeUpdated(uint minimumStakeTime);\n\n    event SynthAdded(bytes32 currencyKey, address synth);\n    event SynthRemoved(bytes32 currencyKey, address synth);\n}\n",
  "sourcePath": "/Users/qizhang/Development/truffle_test2/contracts/Issuer.sol",
  "compiler": {
    "name": "solc",
    "version": "0.5.16+commit.9c3226ce.Emscripten.clang"
  },
  "schemaVersion": "3.2.1",
  "updatedAt": "2020-07-05T03:58:12.953Z",
  "devdoc": {
    "methods": {}
  },
  "userdoc": {
    "methods": {}
  }
}