{
  "contractName": "Liquidations",
  "abi": [
    {
      "inputs": [
        {
          "internalType": "address",
          "name": "_owner",
          "type": "address"
        },
        {
          "internalType": "address",
          "name": "_resolver",
          "type": "address"
        }
      ],
      "payable": false,
      "stateMutability": "nonpayable",
      "type": "constructor"
    },
    {
      "anonymous": false,
      "inputs": [
        {
          "indexed": true,
          "internalType": "address",
          "name": "account",
          "type": "address"
        },
        {
          "indexed": false,
          "internalType": "uint256",
          "name": "deadline",
          "type": "uint256"
        }
      ],
      "name": "AccountFlaggedForLiquidation",
      "type": "event"
    },
    {
      "anonymous": false,
      "inputs": [
        {
          "indexed": true,
          "internalType": "address",
          "name": "account",
          "type": "address"
        },
        {
          "indexed": false,
          "internalType": "uint256",
          "name": "time",
          "type": "uint256"
        }
      ],
      "name": "AccountRemovedFromLiquidation",
      "type": "event"
    },
    {
      "anonymous": false,
      "inputs": [
        {
          "indexed": false,
          "internalType": "uint256",
          "name": "newDelay",
          "type": "uint256"
        }
      ],
      "name": "LiquidationDelayUpdated",
      "type": "event"
    },
    {
      "anonymous": false,
      "inputs": [
        {
          "indexed": false,
          "internalType": "uint256",
          "name": "newPenalty",
          "type": "uint256"
        }
      ],
      "name": "LiquidationPenaltyUpdated",
      "type": "event"
    },
    {
      "anonymous": false,
      "inputs": [
        {
          "indexed": false,
          "internalType": "uint256",
          "name": "newRatio",
          "type": "uint256"
        }
      ],
      "name": "LiquidationRatioUpdated",
      "type": "event"
    },
    {
      "anonymous": false,
      "inputs": [
        {
          "indexed": false,
          "internalType": "address",
          "name": "oldOwner",
          "type": "address"
        },
        {
          "indexed": false,
          "internalType": "address",
          "name": "newOwner",
          "type": "address"
        }
      ],
      "name": "OwnerChanged",
      "type": "event"
    },
    {
      "anonymous": false,
      "inputs": [
        {
          "indexed": false,
          "internalType": "address",
          "name": "newOwner",
          "type": "address"
        }
      ],
      "name": "OwnerNominated",
      "type": "event"
    },
    {
      "constant": true,
      "inputs": [],
      "name": "LIQUIDATION_CALLER",
      "outputs": [
        {
          "internalType": "bytes32",
          "name": "",
          "type": "bytes32"
        }
      ],
      "payable": false,
      "stateMutability": "view",
      "type": "function"
    },
    {
      "constant": true,
      "inputs": [],
      "name": "LIQUIDATION_DEADLINE",
      "outputs": [
        {
          "internalType": "bytes32",
          "name": "",
          "type": "bytes32"
        }
      ],
      "payable": false,
      "stateMutability": "view",
      "type": "function"
    },
    {
      "constant": true,
      "inputs": [],
      "name": "MAX_ADDRESSES_FROM_RESOLVER",
      "outputs": [
        {
          "internalType": "uint256",
          "name": "",
          "type": "uint256"
        }
      ],
      "payable": false,
      "stateMutability": "view",
      "type": "function"
    },
    {
      "constant": true,
      "inputs": [],
      "name": "MAX_LIQUIDATION_DELAY",
      "outputs": [
        {
          "internalType": "uint256",
          "name": "",
          "type": "uint256"
        }
      ],
      "payable": false,
      "stateMutability": "view",
      "type": "function"
    },
    {
      "constant": true,
      "inputs": [],
      "name": "MAX_LIQUIDATION_PENALTY",
      "outputs": [
        {
          "internalType": "uint256",
          "name": "",
          "type": "uint256"
        }
      ],
      "payable": false,
      "stateMutability": "view",
      "type": "function"
    },
    {
      "constant": true,
      "inputs": [],
      "name": "MAX_LIQUIDATION_RATIO",
      "outputs": [
        {
          "internalType": "uint256",
          "name": "",
          "type": "uint256"
        }
      ],
      "payable": false,
      "stateMutability": "view",
      "type": "function"
    },
    {
      "constant": true,
      "inputs": [],
      "name": "MIN_LIQUIDATION_DELAY",
      "outputs": [
        {
          "internalType": "uint256",
          "name": "",
          "type": "uint256"
        }
      ],
      "payable": false,
      "stateMutability": "view",
      "type": "function"
    },
    {
      "constant": true,
      "inputs": [],
      "name": "RATIO_FROM_TARGET_BUFFER",
      "outputs": [
        {
          "internalType": "uint256",
          "name": "",
          "type": "uint256"
        }
      ],
      "payable": false,
      "stateMutability": "view",
      "type": "function"
    },
    {
      "constant": false,
      "inputs": [],
      "name": "acceptOwnership",
      "outputs": [],
      "payable": false,
      "stateMutability": "nonpayable",
      "type": "function"
    },
    {
      "constant": true,
      "inputs": [],
      "name": "getResolverAddressesRequired",
      "outputs": [
        {
          "internalType": "bytes32[24]",
          "name": "addressesRequired",
          "type": "bytes32[24]"
        }
      ],
      "payable": false,
      "stateMutability": "view",
      "type": "function"
    },
    {
      "constant": true,
      "inputs": [
        {
          "internalType": "contract AddressResolver",
          "name": "_resolver",
          "type": "address"
        }
      ],
      "name": "isResolverCached",
      "outputs": [
        {
          "internalType": "bool",
          "name": "",
          "type": "bool"
        }
      ],
      "payable": false,
      "stateMutability": "view",
      "type": "function"
    },
    {
      "constant": true,
      "inputs": [],
      "name": "liquidationDelay",
      "outputs": [
        {
          "internalType": "uint256",
          "name": "",
          "type": "uint256"
        }
      ],
      "payable": false,
      "stateMutability": "view",
      "type": "function"
    },
    {
      "constant": true,
      "inputs": [],
      "name": "liquidationPenalty",
      "outputs": [
        {
          "internalType": "uint256",
          "name": "",
          "type": "uint256"
        }
      ],
      "payable": false,
      "stateMutability": "view",
      "type": "function"
    },
    {
      "constant": true,
      "inputs": [],
      "name": "liquidationRatio",
      "outputs": [
        {
          "internalType": "uint256",
          "name": "",
          "type": "uint256"
        }
      ],
      "payable": false,
      "stateMutability": "view",
      "type": "function"
    },
    {
      "constant": false,
      "inputs": [
        {
          "internalType": "address",
          "name": "_owner",
          "type": "address"
        }
      ],
      "name": "nominateNewOwner",
      "outputs": [],
      "payable": false,
      "stateMutability": "nonpayable",
      "type": "function"
    },
    {
      "constant": true,
      "inputs": [],
      "name": "nominatedOwner",
      "outputs": [
        {
          "internalType": "address",
          "name": "",
          "type": "address"
        }
      ],
      "payable": false,
      "stateMutability": "view",
      "type": "function"
    },
    {
      "constant": true,
      "inputs": [],
      "name": "owner",
      "outputs": [
        {
          "internalType": "address",
          "name": "",
          "type": "address"
        }
      ],
      "payable": false,
      "stateMutability": "view",
      "type": "function"
    },
    {
      "constant": true,
      "inputs": [],
      "name": "resolver",
      "outputs": [
        {
          "internalType": "contract AddressResolver",
          "name": "",
          "type": "address"
        }
      ],
      "payable": false,
      "stateMutability": "view",
      "type": "function"
    },
    {
      "constant": true,
      "inputs": [
        {
          "internalType": "uint256",
          "name": "",
          "type": "uint256"
        }
      ],
      "name": "resolverAddressesRequired",
      "outputs": [
        {
          "internalType": "bytes32",
          "name": "",
          "type": "bytes32"
        }
      ],
      "payable": false,
      "stateMutability": "view",
      "type": "function"
    },
    {
      "constant": false,
      "inputs": [
        {
          "internalType": "contract AddressResolver",
          "name": "_resolver",
          "type": "address"
        }
      ],
      "name": "setResolverAndSyncCache",
      "outputs": [],
      "payable": false,
      "stateMutability": "nonpayable",
      "type": "function"
    },
    {
      "constant": true,
      "inputs": [],
      "name": "liquidationCollateralRatio",
      "outputs": [
        {
          "internalType": "uint256",
          "name": "",
          "type": "uint256"
        }
      ],
      "payable": false,
      "stateMutability": "view",
      "type": "function"
    },
    {
      "constant": true,
      "inputs": [
        {
          "internalType": "address",
          "name": "account",
          "type": "address"
        }
      ],
      "name": "getLiquidationDeadlineForAccount",
      "outputs": [
        {
          "internalType": "uint256",
          "name": "",
          "type": "uint256"
        }
      ],
      "payable": false,
      "stateMutability": "view",
      "type": "function"
    },
    {
      "constant": true,
      "inputs": [
        {
          "internalType": "address",
          "name": "account",
          "type": "address"
        }
      ],
      "name": "isOpenForLiquidation",
      "outputs": [
        {
          "internalType": "bool",
          "name": "",
          "type": "bool"
        }
      ],
      "payable": false,
      "stateMutability": "view",
      "type": "function"
    },
    {
      "constant": true,
      "inputs": [
        {
          "internalType": "address",
          "name": "account",
          "type": "address"
        }
      ],
      "name": "isLiquidationDeadlinePassed",
      "outputs": [
        {
          "internalType": "bool",
          "name": "",
          "type": "bool"
        }
      ],
      "payable": false,
      "stateMutability": "view",
      "type": "function"
    },
    {
      "constant": true,
      "inputs": [
        {
          "internalType": "uint256",
          "name": "debtBalance",
          "type": "uint256"
        },
        {
          "internalType": "uint256",
          "name": "collateral",
          "type": "uint256"
        }
      ],
      "name": "calculateAmountToFixCollateral",
      "outputs": [
        {
          "internalType": "uint256",
          "name": "",
          "type": "uint256"
        }
      ],
      "payable": false,
      "stateMutability": "view",
      "type": "function"
    },
    {
      "constant": false,
      "inputs": [
        {
          "internalType": "uint256",
          "name": "time",
          "type": "uint256"
        }
      ],
      "name": "setLiquidationDelay",
      "outputs": [],
      "payable": false,
      "stateMutability": "nonpayable",
      "type": "function"
    },
    {
      "constant": false,
      "inputs": [
        {
          "internalType": "uint256",
          "name": "_liquidationRatio",
          "type": "uint256"
        }
      ],
      "name": "setLiquidationRatio",
      "outputs": [],
      "payable": false,
      "stateMutability": "nonpayable",
      "type": "function"
    },
    {
      "constant": false,
      "inputs": [
        {
          "internalType": "uint256",
          "name": "penalty",
          "type": "uint256"
        }
      ],
      "name": "setLiquidationPenalty",
      "outputs": [],
      "payable": false,
      "stateMutability": "nonpayable",
      "type": "function"
    },
    {
      "constant": false,
      "inputs": [
        {
          "internalType": "address",
          "name": "account",
          "type": "address"
        }
      ],
      "name": "flagAccountForLiquidation",
      "outputs": [],
      "payable": false,
      "stateMutability": "nonpayable",
      "type": "function"
    },
    {
      "constant": false,
      "inputs": [
        {
          "internalType": "address",
          "name": "account",
          "type": "address"
        }
      ],
      "name": "removeAccountInLiquidation",
      "outputs": [],
      "payable": false,
      "stateMutability": "nonpayable",
      "type": "function"
    },
    {
      "constant": false,
      "inputs": [
        {
          "internalType": "address",
          "name": "account",
          "type": "address"
        }
      ],
      "name": "checkAndRemoveAccountInLiquidation",
      "outputs": [],
      "payable": false,
      "stateMutability": "nonpayable",
      "type": "function"
    }
  ],
  "bytecode": "0x60806040526040518060c001604052807f53797374656d537461747573000000000000000000000000000000000000000081526020017f53796e746865746978000000000000000000000000000000000000000000000081526020017f457465726e616c53746f726167654c69717569646174696f6e7300000000000081526020017f53796e746865746978537461746500000000000000000000000000000000000081526020017f497373756572000000000000000000000000000000000000000000000000000081526020017f45786368616e6765526174657300000000000000000000000000000000000000815250600590600662000103929190620004c4565b5062127500601d556706f05b59d3b20000601e5567016345785d8a0000601f553480156200013057600080fd5b506040516200373838038062003738833981810160405260408110156200015657600080fd5b810190808051906020019092919080519060200190929190505050806005601880602002604051908101604052809291908260188015620001ad576020028201915b81548152602001906001019080831162000198575b505050505083600073ffffffffffffffffffffffffffffffffffffffff168173ffffffffffffffffffffffffffffffffffffffff16141562000257576040517f08c379a00000000000000000000000000000000000000000000000000000000081526004018080602001828103825260198152602001807f4f776e657220616464726573732063616e6e6f7420626520300000000000000081525060200191505060405180910390fd5b806000806101000a81548173ffffffffffffffffffffffffffffffffffffffff021916908373ffffffffffffffffffffffffffffffffffffffff1602179055507fb532073b38c83145e3e5135377a08bf9aab55bc0fd7c1179cd4fb995d2a5159c600082604051808373ffffffffffffffffffffffffffffffffffffffff1673ffffffffffffffffffffffffffffffffffffffff1681526020018273ffffffffffffffffffffffffffffffffffffffff1673ffffffffffffffffffffffffffffffffffffffff1681526020019250505060405180910390a150600073ffffffffffffffffffffffffffffffffffffffff166000809054906101000a900473ffffffffffffffffffffffffffffffffffffffff1673ffffffffffffffffffffffffffffffffffffffff161415620003f5576040517f08c379a00000000000000000000000000000000000000000000000000000000081526004018080602001828103825260118152602001807f4f776e6572206d7573742062652073657400000000000000000000000000000081525060200191505060405180910390fd5b60008090505b601881101562000478576000801b8282601881106200041657fe5b602002015114620004645760048282601881106200043057fe5b602002015190806001815401808255809150509060018203906000526020600020016000909192909190915055506200046a565b62000478565b8080600101915050620003fb565b5081600260006101000a81548173ffffffffffffffffffffffffffffffffffffffff021916908373ffffffffffffffffffffffffffffffffffffffff1602179055505050505062000531565b8260188101928215620004f6579160200282015b82811115620004f5578251825591602001919060010190620004d8565b5b50905062000505919062000509565b5090565b6200052e91905b808211156200052a57600081600090555060010162000510565b5090565b90565b6131f780620005416000396000f3fe608060405234801561001057600080fd5b50600436106101e55760003560e01c8063828afc4b1161010f578063ad2bc2d5116100a2578063c6c9d82811610071578063c6c9d82814610796578063d45c0d7e146107d8578063e3235c911461081c578063f1076b251461083a576101e5565b8063ad2bc2d5146106ba578063add0989d146106fe578063b2ea70541461071c578063c49e80a61461073a576101e5565b8063974e9e7f116100de578063974e9e7f146105f4578063a0cf745114610638578063a4ce5b7114610656578063ab49848c14610674576101e5565b8063828afc4b146105065780638d1bd1be1461055e5780638da5cb5b1461057c578063946ce8cd146105c6576101e5565b806339a9df1b11610187578063631e144411610156578063631e1444146104645780636a058966146104c057806374e889c9146104de57806379ba5097146104fc576101e5565b806339a9df1b1461034c5780633be99e6f146103a857806353a47bb7146103ec5780635e0117d614610436576101e5565b80631627540c116101c35780631627540c1461029e5780631775765f146102e257806323f5589a146103005780632806a7431461031e576101e5565b806304f3bcec146101ea578063085f95cd146102345780630ac045d514610252575b600080fd5b6101f2610858565b604051808273ffffffffffffffffffffffffffffffffffffffff1673ffffffffffffffffffffffffffffffffffffffff16815260200191505060405180910390f35b61023c61087e565b6040518082815260200191505060405180910390f35b6102886004803603604081101561026857600080fd5b81019080803590602001909291908035906020019092919050505061088a565b6040518082815260200191505060405180910390f35b6102e0600480360360208110156102b457600080fd5b81019080803573ffffffffffffffffffffffffffffffffffffffff169060200190929190505050610a1f565b005b6102ea610b6b565b6040518082815260200191505060405180910390f35b610308610b71565b6040518082815260200191505060405180910390f35b61034a6004803603602081101561033457600080fd5b8101908080359060200190929190505050610b77565b005b61038e6004803603602081101561036257600080fd5b81019080803573ffffffffffffffffffffffffffffffffffffffff169060200190929190505050610cbe565b604051808215151515815260200191505060405180910390f35b6103ea600480360360208110156103be57600080fd5b81019080803573ffffffffffffffffffffffffffffffffffffffff169060200190929190505050610ce8565b005b6103f4610f47565b604051808273ffffffffffffffffffffffffffffffffffffffff1673ffffffffffffffffffffffffffffffffffffffff16815260200191505060405180910390f35b6104626004803603602081101561044c57600080fd5b8101908080359060200190929190505050610f6d565b005b6104a66004803603602081101561047a57600080fd5b81019080803573ffffffffffffffffffffffffffffffffffffffff169060200190929190505050611145565b604051808215151515815260200191505060405180910390f35b6104c8611377565b6040518082815260200191505060405180910390f35b6104e661139b565b6040518082815260200191505060405180910390f35b6105046113bf565b005b6105486004803603602081101561051c57600080fd5b81019080803573ffffffffffffffffffffffffffffffffffffffff1690602001909291905050506115e5565b6040518082815260200191505060405180910390f35b610566611607565b6040518082815260200191505060405180910390f35b6105846116a1565b604051808273ffffffffffffffffffffffffffffffffffffffff1673ffffffffffffffffffffffffffffffffffffffff16815260200191505060405180910390f35b6105f2600480360360208110156105dc57600080fd5b81019080803590602001909291905050506116c6565b005b6106366004803603602081101561060a57600080fd5b81019080803573ffffffffffffffffffffffffffffffffffffffff1690602001909291905050506119b1565b005b610640611a6a565b6040518082815260200191505060405180910390f35b61065e611a70565b6040518082815260200191505060405180910390f35b61067c611a7c565b6040518082601860200280838360005b838110156106a757808201518184015260208101905061068c565b5050505090500191505060405180910390f35b6106fc600480360360208110156106d057600080fd5b81019080803573ffffffffffffffffffffffffffffffffffffffff169060200190929190505050611ad5565b005b610706611e4e565b6040518082815260200191505060405180910390f35b610724611e55565b6040518082815260200191505060405180910390f35b61077c6004803603602081101561075057600080fd5b81019080803573ffffffffffffffffffffffffffffffffffffffff169060200190929190505050611e61565b604051808215151515815260200191505060405180910390f35b6107c2600480360360208110156107ac57600080fd5b8101908080359060200190929190505050611ff9565b6040518082815260200191505060405180910390f35b61081a600480360360208110156107ee57600080fd5b81019080803573ffffffffffffffffffffffffffffffffffffffff16906020019092919050505061201a565b005b6108246123ac565b6040518082815260200191505060405180910390f35b6108426123b1565b6040518082815260200191505060405180910390f35b600260009054906101000a900473ffffffffffffffffffffffffffffffffffffffff1681565b6703782dace9d9000081565b6000806108956123b8565b73ffffffffffffffffffffffffffffffffffffffff1663b410a0346040518163ffffffff1660e01b815260040160206040518083038186803b1580156108da57600080fd5b505afa1580156108ee573d6000803e3d6000fd5b505050506040513d602081101561090457600080fd5b81019080805190602001909291905050509050600073__SafeDecimalMath_______________________63907af6c06040518163ffffffff1660e01b815260040160206040518083038186803b15801561095d57600080fd5b505af4158015610971573d6000803e3d6000fd5b505050506040513d602081101561098757600080fd5b8101908080519060200190929190505050905060006109c16109b2848761241e90919063ffffffff16565b8761244b90919063ffffffff16565b905060006109fe6109ef856109e1601f548761249590919063ffffffff16565b61241e90919063ffffffff16565b8461244b90919063ffffffff16565b9050610a13818361251d90919063ffffffff16565b94505050505092915050565b6000809054906101000a900473ffffffffffffffffffffffffffffffffffffffff1673ffffffffffffffffffffffffffffffffffffffff163373ffffffffffffffffffffffffffffffffffffffff1614610ac4576040517f08c379a000000000000000000000000000000000000000000000000000000000815260040180806020018281038252602f8152602001806130e6602f913960400191505060405180910390fd5b80600160006101000a81548173ffffffffffffffffffffffffffffffffffffffff021916908373ffffffffffffffffffffffffffffffffffffffff1602179055507f906a1c6bd7e3091ea86693dd029a831c19049ce77f1dce2ce0bab1cacbabce2281604051808273ffffffffffffffffffffffffffffffffffffffff1673ffffffffffffffffffffffffffffffffffffffff16815260200191505060405180910390a150565b601e5481565b601f5481565b6000809054906101000a900473ffffffffffffffffffffffffffffffffffffffff1673ffffffffffffffffffffffffffffffffffffffff163373ffffffffffffffffffffffffffffffffffffffff1614610c1c576040517f08c379a000000000000000000000000000000000000000000000000000000000815260040180806020018281038252602f8152602001806130e6602f913960400191505060405180910390fd5b6703782dace9d90000811115610c7d576040517f08c379a0000000000000000000000000000000000000000000000000000000008152600401808060200182810382526021815260200180612ff96021913960400191505060405180910390fd5b80601f819055507fbfb22c07314f4682bba789860ceb851eb8cea2d867920332b2a42cf56be5b2e9816040518082815260200191505060405180910390a150565b6000610cc8612fa5565b610cd183612553565b9050610ce0816000015161265e565b915050919050565b6000809054906101000a900473ffffffffffffffffffffffffffffffffffffffff1673ffffffffffffffffffffffffffffffffffffffff163373ffffffffffffffffffffffffffffffffffffffff1614610d8d576040517f08c379a000000000000000000000000000000000000000000000000000000000815260040180806020018281038252602f8152602001806130e6602f913960400191505060405180910390fd5b80600260006101000a81548173ffffffffffffffffffffffffffffffffffffffff021916908373ffffffffffffffffffffffffffffffffffffffff16021790555060008090505b600480549050811015610f4357600060048281548110610df057fe5b90600052602060002001549050600260009054906101000a900473ffffffffffffffffffffffffffffffffffffffff1673ffffffffffffffffffffffffffffffffffffffff1663dacb2d01826040518263ffffffff1660e01b81526004018082815260200180602001828103825260178152602001807f5265736f6c766572206d697373696e67207461726765740000000000000000008152506020019250505060206040518083038186803b158015610ea957600080fd5b505afa158015610ebd573d6000803e3d6000fd5b505050506040513d6020811015610ed357600080fd5b81019080805190602001909291905050506003600083815260200190815260200160002060006101000a81548173ffffffffffffffffffffffffffffffffffffffff021916908373ffffffffffffffffffffffffffffffffffffffff160217905550508080600101915050610dd4565b5050565b600160009054906101000a900473ffffffffffffffffffffffffffffffffffffffff1681565b6000809054906101000a900473ffffffffffffffffffffffffffffffffffffffff1673ffffffffffffffffffffffffffffffffffffffff163373ffffffffffffffffffffffffffffffffffffffff1614611012576040517f08c379a000000000000000000000000000000000000000000000000000000000815260040180806020018281038252602f8152602001806130e6602f913960400191505060405180910390fd5b62278d0081111561108b576040517f08c379a00000000000000000000000000000000000000000000000000000000081526004018080602001828103825260198152602001807f4d757374206265206c657373207468616e20333020646179730000000000000081525060200191505060405180910390fd5b62015180811015611104576040517f08c379a000000000000000000000000000000000000000000000000000000000815260040180806020018281038252601a8152602001807f4d7573742062652067726561746572207468616e20312064617900000000000081525060200191505060405180910390fd5b80601d819055507f9917e32433edcb65f8982c1b2c26c3469468308456f93cf34b98c1b0459c5398816040518082815260200191505060405180910390a150565b60008173ffffffffffffffffffffffffffffffffffffffff16600260009054906101000a900473ffffffffffffffffffffffffffffffffffffffff1673ffffffffffffffffffffffffffffffffffffffff16146111a55760009050611372565b60008090505b60048054905081101561136c576000600482815481106111c757fe5b906000526020600020015490506003600082815260200190815260200160002060009054906101000a900473ffffffffffffffffffffffffffffffffffffffff1673ffffffffffffffffffffffffffffffffffffffff16600260009054906101000a900473ffffffffffffffffffffffffffffffffffffffff1673ffffffffffffffffffffffffffffffffffffffff166321f8a721836040518263ffffffff1660e01b81526004018082815260200191505060206040518083038186803b15801561129157600080fd5b505afa1580156112a5573d6000803e3d6000fd5b505050506040513d60208110156112bb57600080fd5b810190808051906020019092919050505073ffffffffffffffffffffffffffffffffffffffff1614158061134e5750600073ffffffffffffffffffffffffffffffffffffffff166003600083815260200190815260200160002060009054906101000a900473ffffffffffffffffffffffffffffffffffffffff1673ffffffffffffffffffffffffffffffffffffffff16145b1561135e57600092505050611372565b5080806001019150506111ab565b50600190505b919050565b7f4c69717569646174696f6e43616c6c657200000000000000000000000000000081565b7f4c69717569646174696f6e446561646c696e650000000000000000000000000081565b600160009054906101000a900473ffffffffffffffffffffffffffffffffffffffff1673ffffffffffffffffffffffffffffffffffffffff163373ffffffffffffffffffffffffffffffffffffffff1614611465576040517f08c379a000000000000000000000000000000000000000000000000000000000815260040180806020018281038252603581526020018061301a6035913960400191505060405180910390fd5b7fb532073b38c83145e3e5135377a08bf9aab55bc0fd7c1179cd4fb995d2a5159c6000809054906101000a900473ffffffffffffffffffffffffffffffffffffffff16600160009054906101000a900473ffffffffffffffffffffffffffffffffffffffff16604051808373ffffffffffffffffffffffffffffffffffffffff1673ffffffffffffffffffffffffffffffffffffffff1681526020018273ffffffffffffffffffffffffffffffffffffffff1673ffffffffffffffffffffffffffffffffffffffff1681526020019250505060405180910390a1600160009054906101000a900473ffffffffffffffffffffffffffffffffffffffff166000806101000a81548173ffffffffffffffffffffffffffffffffffffffff021916908373ffffffffffffffffffffffffffffffffffffffff1602179055506000600160006101000a81548173ffffffffffffffffffffffffffffffffffffffff021916908373ffffffffffffffffffffffffffffffffffffffff160217905550565b60006115ef612fa5565b6115f883612553565b90508060000151915050919050565b600061169c601e5473__SafeDecimalMath_______________________63907af6c06040518163ffffffff1660e01b815260040160206040518083038186803b15801561165357600080fd5b505af4158015611667573d6000803e3d6000fd5b505050506040513d602081101561167d57600080fd5b810190808051906020019092919050505061267590919063ffffffff16565b905090565b6000809054906101000a900473ffffffffffffffffffffffffffffffffffffffff1681565b6000809054906101000a900473ffffffffffffffffffffffffffffffffffffffff1673ffffffffffffffffffffffffffffffffffffffff163373ffffffffffffffffffffffffffffffffffffffff161461176b576040517f08c379a000000000000000000000000000000000000000000000000000000000815260040180806020018281038252602f8152602001806130e6602f913960400191505060405180910390fd5b611818611801601f5473__SafeDecimalMath_______________________63907af6c06040518163ffffffff1660e01b815260040160206040518083038186803b1580156117b857600080fd5b505af41580156117cc573d6000803e3d6000fd5b505050506040513d60208110156117e257600080fd5b810190808051906020019092919050505061249590919063ffffffff16565b670de0b6b3a764000061251d90919063ffffffff16565b811115611870576040517f08c379a00000000000000000000000000000000000000000000000000000000081526004018080602001828103825260388152602001806130ae6038913960400191505060405180910390fd5b6000611914671bc16d674ec800006118866123b8565b73ffffffffffffffffffffffffffffffffffffffff1663b410a0346040518163ffffffff1660e01b815260040160206040518083038186803b1580156118cb57600080fd5b505afa1580156118df573d6000803e3d6000fd5b505050506040513d60208110156118f557600080fd5b810190808051906020019092919050505061241e90919063ffffffff16565b90508082101561196f576040517f08c379a000000000000000000000000000000000000000000000000000000000815260040180806020018281038252602881526020018061319b6028913960400191505060405180910390fd5b81601e819055507f5568be83e5cf7405adf8fb39305e2cdf49c43336606d23c3e0d3fe54e205150a826040518082815260200191505060405180910390a15050565b6119b9612691565b73ffffffffffffffffffffffffffffffffffffffff163373ffffffffffffffffffffffffffffffffffffffff1614611a3c576040517f08c379a000000000000000000000000000000000000000000000000000000000815260040180806020018281038252603e815260200180613115603e913960400191505060405180910390fd5b611a44612fa5565b611a4d82612553565b9050600081600001511115611a6657611a65826126f7565b5b5050565b601d5481565b671bc16d674ec8000081565b611a84612fd5565b60008090505b600480549050811015611ad15760048181548110611aa457fe5b9060005260206000200154828260188110611abb57fe5b6020020181815250508080600101915050611a8a565b5090565b7f534e580000000000000000000000000000000000000000000000000000000000611afe61287e565b73ffffffffffffffffffffffffffffffffffffffff16629919c0826040518263ffffffff1660e01b81526004018082815260200191505060206040518083038186803b158015611b4d57600080fd5b505afa158015611b61573d6000803e3d6000fd5b505050506040513d6020811015611b7757600080fd5b810190808051906020019092919050505015611bfb576040517f08c379a00000000000000000000000000000000000000000000000000000000081526004018080602001828103825260198152602001807f52617465207374616c65206f72206e6f7420612073796e74680000000000000081525060200191505060405180910390fd5b611c036128e4565b73ffffffffffffffffffffffffffffffffffffffff1663086dabd16040518163ffffffff1660e01b815260040160006040518083038186803b158015611c4857600080fd5b505afa158015611c5c573d6000803e3d6000fd5b50505050611c68612fa5565b611c7183612553565b90506000816000015111611ced576040517f08c379a000000000000000000000000000000000000000000000000000000000815260040180806020018281038252601e8152602001807f4163636f756e7420686173206e6f206c69717569646174696f6e20736574000081525060200191505060405180910390fd5b6000611cf761294a565b73ffffffffffffffffffffffffffffffffffffffff1663a311c7c2856040518263ffffffff1660e01b8152600401808273ffffffffffffffffffffffffffffffffffffffff1673ffffffffffffffffffffffffffffffffffffffff16815260200191505060206040518083038186803b158015611d7357600080fd5b505afa158015611d87573d6000803e3d6000fd5b505050506040513d6020811015611d9d57600080fd5b81019080805190602001909291905050509050611db86123b8565b73ffffffffffffffffffffffffffffffffffffffff1663b410a0346040518163ffffffff1660e01b815260040160206040518083038186803b158015611dfd57600080fd5b505afa158015611e11573d6000803e3d6000fd5b505050506040513d6020811015611e2757600080fd5b81019080805190602001909291905050508111611e4857611e47846126f7565b5b50505050565b6201518081565b670de0b6b3a764000081565b600080611e6c61294a565b73ffffffffffffffffffffffffffffffffffffffff1663a311c7c2846040518263ffffffff1660e01b8152600401808273ffffffffffffffffffffffffffffffffffffffff1673ffffffffffffffffffffffffffffffffffffffff16815260200191505060206040518083038186803b158015611ee857600080fd5b505afa158015611efc573d6000803e3d6000fd5b505050506040513d6020811015611f1257600080fd5b81019080805190602001909291905050509050611f2d6123b8565b73ffffffffffffffffffffffffffffffffffffffff1663b410a0346040518163ffffffff1660e01b815260040160206040518083038186803b158015611f7257600080fd5b505afa158015611f86573d6000803e3d6000fd5b505050506040513d6020811015611f9c57600080fd5b81019080805190602001909291905050508111611fbd576000915050611ff4565b611fc5612fa5565b611fce84612553565b9050611fdd816000015161265e565b15611fed57600192505050611ff4565b6000925050505b919050565b6004818154811061200657fe5b906000526020600020016000915090505481565b7f534e58000000000000000000000000000000000000000000000000000000000061204361287e565b73ffffffffffffffffffffffffffffffffffffffff16629919c0826040518263ffffffff1660e01b81526004018082815260200191505060206040518083038186803b15801561209257600080fd5b505afa1580156120a6573d6000803e3d6000fd5b505050506040513d60208110156120bc57600080fd5b810190808051906020019092919050505015612140576040517f08c379a00000000000000000000000000000000000000000000000000000000081526004018080602001828103825260198152602001807f52617465207374616c65206f72206e6f7420612073796e74680000000000000081525060200191505060405180910390fd5b6121486128e4565b73ffffffffffffffffffffffffffffffffffffffff1663086dabd16040518163ffffffff1660e01b815260040160006040518083038186803b15801561218d57600080fd5b505afa1580156121a1573d6000803e3d6000fd5b505050506121ad612fa5565b6121b683612553565b90506000816000015114612215576040517f08c379a00000000000000000000000000000000000000000000000000000000081526004018080602001828103825260278152602001806131746027913960400191505060405180910390fd5b600061221f61294a565b73ffffffffffffffffffffffffffffffffffffffff1663a311c7c2856040518263ffffffff1660e01b8152600401808273ffffffffffffffffffffffffffffffffffffffff1673ffffffffffffffffffffffffffffffffffffffff16815260200191505060206040518083038186803b15801561229b57600080fd5b505afa1580156122af573d6000803e3d6000fd5b505050506040513d60208110156122c557600080fd5b81019080805190602001909291905050509050601e54811015612333576040517f08c379a00000000000000000000000000000000000000000000000000000000081526004018080602001828103825260358152602001806130796035913960400191505060405180910390fd5b600061234a601d544261249590919063ffffffff16565b90506123578582336129b0565b8473ffffffffffffffffffffffffffffffffffffffff167fc77e4625de0c70adaf3bd1aabb5f22f9eae8f565367c706fc209030c13857996826040518082815260200191505060405180910390a25050505050565b601881565b62278d0081565b60006124197f53796e74686574697853746174650000000000000000000000000000000000006040518060400160405280601e81526020017f4d697373696e672053796e746865746978537461746520616464726573730000815250612b27565b905090565b6000601260ff16600a0a61243b8385612c4390919063ffffffff16565b8161244257fe5b04905092915050565b600061248d83836040518060400160405280601e81526020017f536166654d6174683a207375627472616374696f6e206f766572666c6f770000815250612cc9565b905092915050565b600080828401905083811015612513576040517f08c379a000000000000000000000000000000000000000000000000000000000815260040180806020018281038252601b8152602001807f536166654d6174683a206164646974696f6e206f766572666c6f77000000000081525060200191505060405180910390fd5b8091505092915050565b600061254b8261253d601260ff16600a0a86612c4390919063ffffffff16565b612d8990919063ffffffff16565b905092915050565b61255b612fa5565b612563612dd3565b73ffffffffffffffffffffffffffffffffffffffff1663bdc963d86125a87f4c69717569646174696f6e446561646c696e650000000000000000000000000085612e1c565b6040518263ffffffff1660e01b81526004018082815260200191505060206040518083038186803b1580156125dc57600080fd5b505afa1580156125f0573d6000803e3d6000fd5b505050506040513d602081101561260657600080fd5b81019080805190602001909291905050508160000181815250506000816020019073ffffffffffffffffffffffffffffffffffffffff16908173ffffffffffffffffffffffffffffffffffffffff1681525050919050565b6000808211801561266e57508142115b9050919050565b60006126898383601260ff16600a0a612e84565b905092915050565b60006126f27f49737375657200000000000000000000000000000000000000000000000000006040518060400160405280601681526020017f4d697373696e6720497373756572206164647265737300000000000000000000815250612b27565b905090565b6126ff612dd3565b73ffffffffffffffffffffffffffffffffffffffff166393fe42486127447f4c69717569646174696f6e446561646c696e650000000000000000000000000084612e1c565b6040518263ffffffff1660e01b815260040180828152602001915050600060405180830381600087803b15801561277a57600080fd5b505af115801561278e573d6000803e3d6000fd5b5050505061279a612dd3565b73ffffffffffffffffffffffffffffffffffffffff1663043106c06127df7f4c69717569646174696f6e43616c6c657200000000000000000000000000000084612e1c565b6040518263ffffffff1660e01b815260040180828152602001915050600060405180830381600087803b15801561281557600080fd5b505af1158015612829573d6000803e3d6000fd5b505050508073ffffffffffffffffffffffffffffffffffffffff167f9b6ac8997b4f2edd0a27c1beb32f7c14d522e9c16f46e79daa5a144016bd6c87426040518082815260200191505060405180910390a250565b60006128df7f45786368616e67655261746573000000000000000000000000000000000000006040518060400160405280601d81526020017f4d697373696e672045786368616e676552617465732061646472657373000000815250612b27565b905090565b60006129457f53797374656d53746174757300000000000000000000000000000000000000006040518060400160405280601c81526020017f4d697373696e672053797374656d537461747573206164647265737300000000815250612b27565b905090565b60006129ab7f53796e74686574697800000000000000000000000000000000000000000000006040518060400160405280601981526020017f4d697373696e672053796e746865746978206164647265737300000000000000815250612b27565b905090565b6129b8612dd3565b73ffffffffffffffffffffffffffffffffffffffff16633562fd206129fd7f4c69717569646174696f6e446561646c696e650000000000000000000000000086612e1c565b846040518363ffffffff1660e01b81526004018083815260200182815260200192505050600060405180830381600087803b158015612a3b57600080fd5b505af1158015612a4f573d6000803e3d6000fd5b50505050612a5b612dd3565b73ffffffffffffffffffffffffffffffffffffffff16635a2bf25a612aa07f4c69717569646174696f6e43616c6c657200000000000000000000000000000086612e1c565b836040518363ffffffff1660e01b8152600401808381526020018273ffffffffffffffffffffffffffffffffffffffff1673ffffffffffffffffffffffffffffffffffffffff16815260200192505050600060405180830381600087803b158015612b0a57600080fd5b505af1158015612b1e573d6000803e3d6000fd5b50505050505050565b6000806003600085815260200190815260200160002060009054906101000a900473ffffffffffffffffffffffffffffffffffffffff169050600073ffffffffffffffffffffffffffffffffffffffff168173ffffffffffffffffffffffffffffffffffffffff1614158390612c38576040517f08c379a00000000000000000000000000000000000000000000000000000000081526004018080602001828103825283818151815260200191508051906020019080838360005b83811015612bfd578082015181840152602081019050612be2565b50505050905090810190601f168015612c2a5780820380516001836020036101000a031916815260200191505b509250505060405180910390fd5b508091505092915050565b600080831415612c565760009050612cc3565b6000828402905082848281612c6757fe5b0414612cbe576040517f08c379a00000000000000000000000000000000000000000000000000000000081526004018080602001828103825260218152602001806131536021913960400191505060405180910390fd5b809150505b92915050565b6000838311158290612d76576040517f08c379a00000000000000000000000000000000000000000000000000000000081526004018080602001828103825283818151815260200191508051906020019080838360005b83811015612d3b578082015181840152602081019050612d20565b50505050905090810190601f168015612d685780820380516001836020036101000a031916815260200191505b509250505060405180910390fd5b5060008385039050809150509392505050565b6000612dcb83836040518060400160405280601a81526020017f536166654d6174683a206469766973696f6e206279207a65726f000000000000815250612edf565b905092915050565b6000612e177f457465726e616c53746f726167654c69717569646174696f6e730000000000006040518060600160405280602a815260200161304f602a9139612b27565b905090565b60008282604051602001808381526020018273ffffffffffffffffffffffffffffffffffffffff1673ffffffffffffffffffffffffffffffffffffffff1660601b81526014019250505060405160208183030381529060405280519060200120905092915050565b600080612eaf84612ea1600a860288612c4390919063ffffffff16565b612d8990919063ffffffff16565b90506005600a8281612ebd57fe5b0610612eca57600a810190505b600a8181612ed457fe5b049150509392505050565b60008083118290612f8b576040517f08c379a00000000000000000000000000000000000000000000000000000000081526004018080602001828103825283818151815260200191508051906020019080838360005b83811015612f50578082015181840152602081019050612f35565b50505050905090810190601f168015612f7d5780820380516001836020036101000a031916815260200191505b509250505060405180910390fd5b506000838581612f9757fe5b049050809150509392505050565b604051806040016040528060008152602001600073ffffffffffffffffffffffffffffffffffffffff1681525090565b60405180610300016040528060189060208202803883398082019150509050509056fe70656e616c7479203e204d41585f4c49515549444154494f4e5f50454e414c5459596f75206d757374206265206e6f6d696e61746564206265666f726520796f752063616e20616363657074206f776e6572736869704d697373696e6720457465726e616c53746f726167654c69717569646174696f6e7320616464726573734163636f756e742069737375616e636520726174696f206973206c657373207468616e206c69717569646174696f6e20726174696f6c69717569646174696f6e526174696f203e204d41585f4c49515549444154494f4e5f524154494f202f202831202b2070656e616c7479294f6e6c792074686520636f6e7472616374206f776e6572206d617920706572666f726d207468697320616374696f6e4c69717569646174696f6e733a204f6e6c79207468652049737375657220636f6e74726163742063616e20706572666f726d207468697320616374696f6e536166654d6174683a206d756c7469706c69636174696f6e206f766572666c6f774163636f756e7420616c726561647920666c616767656420666f72206c69717569646174696f6e6c69717569646174696f6e526174696f203c204d494e5f4c49515549444154494f4e5f524154494fa265627a7a7231582074b6193b3a64b7bb697bdafd2f2fa04cd18e2ddfaf95c0d43fe6a6d6db76e96764736f6c63430005100032",
  "source": "pragma solidity ^0.5.16;\n\n// Inheritance\nimport \"./Owned.sol\";\nimport \"./MixinResolver.sol\";\nimport \"./interfaces/ILiquidations.sol\";\n\n// Libraries\nimport \"./SafeDecimalMath.sol\";\n\n// Internal references\nimport \"./EternalStorage.sol\";\nimport \"./interfaces/ISynthetix.sol\";\nimport \"./interfaces/ISynthetixState.sol\";\nimport \"./interfaces/IExchangeRates.sol\";\nimport \"./interfaces/IIssuer.sol\";\nimport \"./interfaces/ISystemStatus.sol\";\n\n\n// https://docs.synthetix.io/contracts/Liquidations\ncontract Liquidations is Owned, MixinResolver, ILiquidations {\n    using SafeMath for uint;\n    using SafeDecimalMath for uint;\n\n    struct LiquidationEntry {\n        uint deadline;\n        address caller;\n    }\n\n    /* ========== ADDRESS RESOLVER CONFIGURATION ========== */\n\n    bytes32 private constant CONTRACT_SYSTEMSTATUS = \"SystemStatus\";\n    bytes32 private constant CONTRACT_SYNTHETIX = \"Synthetix\";\n    bytes32 private constant CONTRACT_ETERNALSTORAGE_LIQUIDATIONS = \"EternalStorageLiquidations\";\n    bytes32 private constant CONTRACT_SYNTHETIXSTATE = \"SynthetixState\";\n    bytes32 private constant CONTRACT_ISSUER = \"Issuer\";\n    bytes32 private constant CONTRACT_EXRATES = \"ExchangeRates\";\n\n    bytes32[24] private addressesToCache = [\n        CONTRACT_SYSTEMSTATUS,\n        CONTRACT_SYNTHETIX,\n        CONTRACT_ETERNALSTORAGE_LIQUIDATIONS,\n        CONTRACT_SYNTHETIXSTATE,\n        CONTRACT_ISSUER,\n        CONTRACT_EXRATES\n    ];\n\n    /* ========== CONSTANTS ========== */\n    uint public constant MAX_LIQUIDATION_RATIO = 1e18; // 100% issuance ratio\n\n    uint public constant MAX_LIQUIDATION_PENALTY = 1e18 / 4; // Max 25% liquidation penalty / bonus\n\n    uint public constant RATIO_FROM_TARGET_BUFFER = 2e18; // 200% - mininimum buffer between issuance ratio and liquidation ratio\n\n    uint public constant MAX_LIQUIDATION_DELAY = 30 days;\n    uint public constant MIN_LIQUIDATION_DELAY = 1 days;\n\n    // Storage keys\n    bytes32 public constant LIQUIDATION_DEADLINE = \"LiquidationDeadline\";\n    bytes32 public constant LIQUIDATION_CALLER = \"LiquidationCaller\";\n\n    /* ========== STATE VARIABLES ========== */\n    uint public liquidationDelay = 2 weeks; // liquidation time delay after address flagged\n    uint public liquidationRatio = 1e18 / 2; // 0.5 issuance ratio when account can be flagged for liquidation\n    uint public liquidationPenalty = 1e18 / 10; // 10%\n\n    constructor(address _owner, address _resolver) public Owned(_owner) MixinResolver(_resolver, addressesToCache) {}\n\n    /* ========== VIEWS ========== */\n    function synthetix() internal view returns (ISynthetix) {\n        return ISynthetix(requireAndGetAddress(CONTRACT_SYNTHETIX, \"Missing Synthetix address\"));\n    }\n\n    function synthetixState() internal view returns (ISynthetixState) {\n        return ISynthetixState(requireAndGetAddress(CONTRACT_SYNTHETIXSTATE, \"Missing SynthetixState address\"));\n    }\n\n    function systemStatus() internal view returns (ISystemStatus) {\n        return ISystemStatus(requireAndGetAddress(CONTRACT_SYSTEMSTATUS, \"Missing SystemStatus address\"));\n    }\n\n    function issuer() internal view returns (IIssuer) {\n        return IIssuer(requireAndGetAddress(CONTRACT_ISSUER, \"Missing Issuer address\"));\n    }\n\n    function exchangeRates() internal view returns (IExchangeRates) {\n        return IExchangeRates(requireAndGetAddress(CONTRACT_EXRATES, \"Missing ExchangeRates address\"));\n    }\n\n    // refactor to synthetix storage eternal storage contract once that's ready\n    function eternalStorageLiquidations() internal view returns (EternalStorage) {\n        return\n            EternalStorage(\n                requireAndGetAddress(CONTRACT_ETERNALSTORAGE_LIQUIDATIONS, \"Missing EternalStorageLiquidations address\")\n            );\n    }\n\n    /* ========== VIEWS ========== */\n\n    function liquidationCollateralRatio() external view returns (uint) {\n        return SafeDecimalMath.unit().divideDecimalRound(liquidationRatio);\n    }\n\n    function getLiquidationDeadlineForAccount(address account) external view returns (uint) {\n        LiquidationEntry memory liquidation = _getLiquidationEntryForAccount(account);\n        return liquidation.deadline;\n    }\n\n    function isOpenForLiquidation(address account) external view returns (bool) {\n        uint accountCollateralisationRatio = synthetix().collateralisationRatio(account);\n\n        // Liquidation closed if collateral ratio less than or equal target issuance Ratio\n        // Account with no snx collateral will also not be open for liquidation (ratio is 0)\n        if (accountCollateralisationRatio <= synthetixState().issuanceRatio()) {\n            return false;\n        }\n\n        LiquidationEntry memory liquidation = _getLiquidationEntryForAccount(account);\n\n        // liquidation cap at issuanceRatio is checked above\n        if (_deadlinePassed(liquidation.deadline)) {\n            return true;\n        }\n        return false;\n    }\n\n    function isLiquidationDeadlinePassed(address account) external view returns (bool) {\n        LiquidationEntry memory liquidation = _getLiquidationEntryForAccount(account);\n        return _deadlinePassed(liquidation.deadline);\n    }\n\n    function _deadlinePassed(uint deadline) internal view returns (bool) {\n        // check deadline is set > 0\n        // check now > deadline\n        return deadline > 0 && now > deadline;\n    }\n\n    /**\n     * r = target issuance ratio\n     * D = debt balance\n     * V = Collateral\n     * P = liquidation penalty\n     * Calculates amount of synths = (D - V * r) / (1 - (1 + P) * r)\n     */\n    function calculateAmountToFixCollateral(uint debtBalance, uint collateral) external view returns (uint) {\n        uint ratio = synthetixState().issuanceRatio();\n        uint unit = SafeDecimalMath.unit();\n\n        uint dividend = debtBalance.sub(collateral.multiplyDecimal(ratio));\n        uint divisor = unit.sub(unit.add(liquidationPenalty).multiplyDecimal(ratio));\n\n        return dividend.divideDecimal(divisor);\n    }\n\n    // get liquidationEntry for account\n    // returns deadline = 0 when not set\n    function _getLiquidationEntryForAccount(address account) internal view returns (LiquidationEntry memory _liquidation) {\n        _liquidation.deadline = eternalStorageLiquidations().getUIntValue(_getKey(LIQUIDATION_DEADLINE, account));\n\n        // liquidation caller not used\n        _liquidation.caller = address(0);\n    }\n\n    function _getKey(bytes32 _scope, address _account) internal pure returns (bytes32) {\n        return keccak256(abi.encodePacked(_scope, _account));\n    }\n\n    /* ========== SETTERS ========== */\n    function setLiquidationDelay(uint time) external onlyOwner {\n        require(time <= MAX_LIQUIDATION_DELAY, \"Must be less than 30 days\");\n        require(time >= MIN_LIQUIDATION_DELAY, \"Must be greater than 1 day\");\n\n        liquidationDelay = time;\n\n        emit LiquidationDelayUpdated(time);\n    }\n\n    // Accounts Collateral/Issuance ratio is higher when there is less collateral backing their debt\n    // Upper bound liquidationRatio is 1 + penalty (100% + 10% = 110%) to allow collateral to cover debt and penalty\n    function setLiquidationRatio(uint _liquidationRatio) external onlyOwner {\n        require(\n            _liquidationRatio <= MAX_LIQUIDATION_RATIO.divideDecimal(SafeDecimalMath.unit().add(liquidationPenalty)),\n            \"liquidationRatio > MAX_LIQUIDATION_RATIO / (1 + penalty)\"\n        );\n\n        // MIN_LIQUIDATION_RATIO is a product of target issuance ratio * RATIO_FROM_TARGET_BUFFER\n        // Ensures that liquidation ratio is set so that there is a buffer between the issuance ratio and liquidation ratio.\n        uint MIN_LIQUIDATION_RATIO = synthetixState().issuanceRatio().multiplyDecimal(RATIO_FROM_TARGET_BUFFER);\n        require(_liquidationRatio >= MIN_LIQUIDATION_RATIO, \"liquidationRatio < MIN_LIQUIDATION_RATIO\");\n\n        liquidationRatio = _liquidationRatio;\n\n        emit LiquidationRatioUpdated(_liquidationRatio);\n    }\n\n    function setLiquidationPenalty(uint penalty) external onlyOwner {\n        require(penalty <= MAX_LIQUIDATION_PENALTY, \"penalty > MAX_LIQUIDATION_PENALTY\");\n        liquidationPenalty = penalty;\n\n        emit LiquidationPenaltyUpdated(penalty);\n    }\n\n    /* ========== MUTATIVE FUNCTIONS ========== */\n\n    // totalIssuedSynths checks synths for staleness\n    // check snx rate is not stale\n    function flagAccountForLiquidation(address account) external rateNotStale(\"SNX\") {\n        systemStatus().requireSystemActive();\n\n        LiquidationEntry memory liquidation = _getLiquidationEntryForAccount(account);\n        require(liquidation.deadline == 0, \"Account already flagged for liquidation\");\n\n        uint accountsCollateralisationRatio = synthetix().collateralisationRatio(account);\n\n        // if accounts issuance ratio is greater than or equal to liquidation ratio set liquidation entry\n        require(accountsCollateralisationRatio >= liquidationRatio, \"Account issuance ratio is less than liquidation ratio\");\n\n        uint deadline = now.add(liquidationDelay);\n\n        _storeLiquidationEntry(account, deadline, msg.sender);\n\n        emit AccountFlaggedForLiquidation(account, deadline);\n    }\n\n    // Internal function to remove account from liquidations\n    // Does not check collateral ratio is fixed\n    function removeAccountInLiquidation(address account) external onlyIssuer {\n        LiquidationEntry memory liquidation = _getLiquidationEntryForAccount(account);\n        if (liquidation.deadline > 0) {\n            _removeLiquidationEntry(account);\n        }\n    }\n\n    // Public function to allow an account to remove from liquidations\n    // Checks collateral ratio is fixed - below target issuance ratio\n    // Check SNX rate is not stale\n    function checkAndRemoveAccountInLiquidation(address account) external rateNotStale(\"SNX\") {\n        systemStatus().requireSystemActive();\n\n        LiquidationEntry memory liquidation = _getLiquidationEntryForAccount(account);\n\n        require(liquidation.deadline > 0, \"Account has no liquidation set\");\n\n        uint accountsCollateralisationRatio = synthetix().collateralisationRatio(account);\n\n        // Remove from liquidations if accountsCollateralisationRatio is fixed (less than equal target issuance ratio)\n        if (accountsCollateralisationRatio <= synthetixState().issuanceRatio()) {\n            _removeLiquidationEntry(account);\n        }\n    }\n\n    function _storeLiquidationEntry(\n        address _account,\n        uint _deadline,\n        address _caller\n    ) internal {\n        // record liquidation deadline\n        eternalStorageLiquidations().setUIntValue(_getKey(LIQUIDATION_DEADLINE, _account), _deadline);\n        eternalStorageLiquidations().setAddressValue(_getKey(LIQUIDATION_CALLER, _account), _caller);\n    }\n\n    function _removeLiquidationEntry(address _account) internal {\n        // delete liquidation deadline\n        eternalStorageLiquidations().deleteUIntValue(_getKey(LIQUIDATION_DEADLINE, _account));\n        // delete liquidation caller\n        eternalStorageLiquidations().deleteAddressValue(_getKey(LIQUIDATION_CALLER, _account));\n\n        emit AccountRemovedFromLiquidation(_account, now);\n    }\n\n    /* ========== MODIFIERS ========== */\n    modifier onlyIssuer() {\n        require(msg.sender == address(issuer()), \"Liquidations: Only the Issuer contract can perform this action\");\n        _;\n    }\n\n    modifier rateNotStale(bytes32 currencyKey) {\n        require(!exchangeRates().rateIsStale(currencyKey), \"Rate stale or not a synth\");\n        _;\n    }\n\n    /* ========== EVENTS ========== */\n\n    event AccountFlaggedForLiquidation(address indexed account, uint deadline);\n    event AccountRemovedFromLiquidation(address indexed account, uint time);\n    event LiquidationDelayUpdated(uint newDelay);\n    event LiquidationRatioUpdated(uint newRatio);\n    event LiquidationPenaltyUpdated(uint newPenalty);\n}\n",
  "sourcePath": "/Users/qizhang/Development/truffle_test2/contracts/Liquidations.sol",
  "compiler": {
    "name": "solc",
    "version": "0.5.16+commit.9c3226ce.Emscripten.clang"
  },
  "schemaVersion": "3.2.1",
  "updatedAt": "2020-07-05T03:58:12.984Z",
  "devdoc": {
    "methods": {}
  },
  "userdoc": {
    "methods": {
      "calculateAmountToFixCollateral(uint256,uint256)": {
        "notice": "r = target issuance ratio D = debt balance V = Collateral P = liquidation penalty Calculates amount of synths = (D - V * r) / (1 - (1 + P) * r)"
      }
    }
  }
}