{
  "contractName": "Proxy",
  "abi": [
    {
      "inputs": [
        {
          "internalType": "address",
          "name": "_owner",
          "type": "address"
        }
      ],
      "payable": false,
      "stateMutability": "nonpayable",
      "type": "constructor"
    },
    {
      "anonymous": false,
      "inputs": [
        {
          "indexed": false,
          "internalType": "address",
          "name": "oldOwner",
          "type": "address"
        },
        {
          "indexed": false,
          "internalType": "address",
          "name": "newOwner",
          "type": "address"
        }
      ],
      "name": "OwnerChanged",
      "type": "event"
    },
    {
      "anonymous": false,
      "inputs": [
        {
          "indexed": false,
          "internalType": "address",
          "name": "newOwner",
          "type": "address"
        }
      ],
      "name": "OwnerNominated",
      "type": "event"
    },
    {
      "anonymous": false,
      "inputs": [
        {
          "indexed": false,
          "internalType": "contract Proxyable",
          "name": "newTarget",
          "type": "address"
        }
      ],
      "name": "TargetUpdated",
      "type": "event"
    },
    {
      "payable": true,
      "stateMutability": "payable",
      "type": "fallback"
    },
    {
      "constant": false,
      "inputs": [],
      "name": "acceptOwnership",
      "outputs": [],
      "payable": false,
      "stateMutability": "nonpayable",
      "type": "function"
    },
    {
      "constant": false,
      "inputs": [
        {
          "internalType": "address",
          "name": "_owner",
          "type": "address"
        }
      ],
      "name": "nominateNewOwner",
      "outputs": [],
      "payable": false,
      "stateMutability": "nonpayable",
      "type": "function"
    },
    {
      "constant": true,
      "inputs": [],
      "name": "nominatedOwner",
      "outputs": [
        {
          "internalType": "address",
          "name": "",
          "type": "address"
        }
      ],
      "payable": false,
      "stateMutability": "view",
      "type": "function"
    },
    {
      "constant": true,
      "inputs": [],
      "name": "owner",
      "outputs": [
        {
          "internalType": "address",
          "name": "",
          "type": "address"
        }
      ],
      "payable": false,
      "stateMutability": "view",
      "type": "function"
    },
    {
      "constant": true,
      "inputs": [],
      "name": "target",
      "outputs": [
        {
          "internalType": "contract Proxyable",
          "name": "",
          "type": "address"
        }
      ],
      "payable": false,
      "stateMutability": "view",
      "type": "function"
    },
    {
      "constant": false,
      "inputs": [
        {
          "internalType": "contract Proxyable",
          "name": "_target",
          "type": "address"
        }
      ],
      "name": "setTarget",
      "outputs": [],
      "payable": false,
      "stateMutability": "nonpayable",
      "type": "function"
    },
    {
      "constant": false,
      "inputs": [
        {
          "internalType": "bytes",
          "name": "callData",
          "type": "bytes"
        },
        {
          "internalType": "uint256",
          "name": "numTopics",
          "type": "uint256"
        },
        {
          "internalType": "bytes32",
          "name": "topic1",
          "type": "bytes32"
        },
        {
          "internalType": "bytes32",
          "name": "topic2",
          "type": "bytes32"
        },
        {
          "internalType": "bytes32",
          "name": "topic3",
          "type": "bytes32"
        },
        {
          "internalType": "bytes32",
          "name": "topic4",
          "type": "bytes32"
        }
      ],
      "name": "_emit",
      "outputs": [],
      "payable": false,
      "stateMutability": "nonpayable",
      "type": "function"
    }
  ],
  "bytecode": "0x608060405234801561001057600080fd5b50604051610ce8380380610ce88339818101604052602081101561003357600080fd5b810190808051906020019092919050505080600073ffffffffffffffffffffffffffffffffffffffff168173ffffffffffffffffffffffffffffffffffffffff1614156100e8576040517f08c379a00000000000000000000000000000000000000000000000000000000081526004018080602001828103825260198152602001807f4f776e657220616464726573732063616e6e6f7420626520300000000000000081525060200191505060405180910390fd5b806000806101000a81548173ffffffffffffffffffffffffffffffffffffffff021916908373ffffffffffffffffffffffffffffffffffffffff1602179055507fb532073b38c83145e3e5135377a08bf9aab55bc0fd7c1179cd4fb995d2a5159c600082604051808373ffffffffffffffffffffffffffffffffffffffff1673ffffffffffffffffffffffffffffffffffffffff1681526020018273ffffffffffffffffffffffffffffffffffffffff1673ffffffffffffffffffffffffffffffffffffffff1681526020019250505060405180910390a15050610b17806101d16000396000f3fe6080604052600436106100705760003560e01c806379ba50971161004e57806379ba5097146102475780638da5cb5b1461025e578063907dff97146102b5578063d4b839921461036d57610070565b80631627540c1461014e57806353a47bb71461019f578063776d1a01146101f6575b600260009054906101000a900473ffffffffffffffffffffffffffffffffffffffff1673ffffffffffffffffffffffffffffffffffffffff1663bc67f832336040518263ffffffff1660e01b8152600401808273ffffffffffffffffffffffffffffffffffffffff1673ffffffffffffffffffffffffffffffffffffffff168152602001915050600060405180830381600087803b15801561011157600080fd5b505af1158015610125573d6000803e3d6000fd5b5050505060405136600082376000803683346002545af13d6000833e8061014a573d82fd5b3d82f35b34801561015a57600080fd5b5061019d6004803603602081101561017157600080fd5b81019080803573ffffffffffffffffffffffffffffffffffffffff1690602001909291905050506103c4565b005b3480156101ab57600080fd5b506101b4610510565b604051808273ffffffffffffffffffffffffffffffffffffffff1673ffffffffffffffffffffffffffffffffffffffff16815260200191505060405180910390f35b34801561020257600080fd5b506102456004803603602081101561021957600080fd5b81019080803573ffffffffffffffffffffffffffffffffffffffff169060200190929190505050610536565b005b34801561025357600080fd5b5061025c610682565b005b34801561026a57600080fd5b506102736108a8565b604051808273ffffffffffffffffffffffffffffffffffffffff1673ffffffffffffffffffffffffffffffffffffffff16815260200191505060405180910390f35b3480156102c157600080fd5b5061036b600480360360c08110156102d857600080fd5b81019080803590602001906401000000008111156102f557600080fd5b82018360208201111561030757600080fd5b8035906020019184600183028401116401000000008311171561032957600080fd5b909192939192939080359060200190929190803590602001909291908035906020019092919080359060200190929190803590602001909291905050506108cd565b005b34801561037957600080fd5b50610382610a58565b604051808273ffffffffffffffffffffffffffffffffffffffff1673ffffffffffffffffffffffffffffffffffffffff16815260200191505060405180910390f35b6000809054906101000a900473ffffffffffffffffffffffffffffffffffffffff1673ffffffffffffffffffffffffffffffffffffffff163373ffffffffffffffffffffffffffffffffffffffff1614610469576040517f08c379a000000000000000000000000000000000000000000000000000000000815260040180806020018281038252602f815260200180610ab4602f913960400191505060405180910390fd5b80600160006101000a81548173ffffffffffffffffffffffffffffffffffffffff021916908373ffffffffffffffffffffffffffffffffffffffff1602179055507f906a1c6bd7e3091ea86693dd029a831c19049ce77f1dce2ce0bab1cacbabce2281604051808273ffffffffffffffffffffffffffffffffffffffff1673ffffffffffffffffffffffffffffffffffffffff16815260200191505060405180910390a150565b600160009054906101000a900473ffffffffffffffffffffffffffffffffffffffff1681565b6000809054906101000a900473ffffffffffffffffffffffffffffffffffffffff1673ffffffffffffffffffffffffffffffffffffffff163373ffffffffffffffffffffffffffffffffffffffff16146105db576040517f08c379a000000000000000000000000000000000000000000000000000000000815260040180806020018281038252602f815260200180610ab4602f913960400191505060405180910390fd5b80600260006101000a81548173ffffffffffffffffffffffffffffffffffffffff021916908373ffffffffffffffffffffffffffffffffffffffff1602179055507f814250a3b8c79fcbe2ead2c131c952a278491c8f4322a79fe84b5040a810373e81604051808273ffffffffffffffffffffffffffffffffffffffff1673ffffffffffffffffffffffffffffffffffffffff16815260200191505060405180910390a150565b600160009054906101000a900473ffffffffffffffffffffffffffffffffffffffff1673ffffffffffffffffffffffffffffffffffffffff163373ffffffffffffffffffffffffffffffffffffffff1614610728576040517f08c379a0000000000000000000000000000000000000000000000000000000008152600401808060200182810382526035815260200180610a7f6035913960400191505060405180910390fd5b7fb532073b38c83145e3e5135377a08bf9aab55bc0fd7c1179cd4fb995d2a5159c6000809054906101000a900473ffffffffffffffffffffffffffffffffffffffff16600160009054906101000a900473ffffffffffffffffffffffffffffffffffffffff16604051808373ffffffffffffffffffffffffffffffffffffffff1673ffffffffffffffffffffffffffffffffffffffff1681526020018273ffffffffffffffffffffffffffffffffffffffff1673ffffffffffffffffffffffffffffffffffffffff1681526020019250505060405180910390a1600160009054906101000a900473ffffffffffffffffffffffffffffffffffffffff166000806101000a81548173ffffffffffffffffffffffffffffffffffffffff021916908373ffffffffffffffffffffffffffffffffffffffff1602179055506000600160006101000a81548173ffffffffffffffffffffffffffffffffffffffff021916908373ffffffffffffffffffffffffffffffffffffffff160217905550565b6000809054906101000a900473ffffffffffffffffffffffffffffffffffffffff1681565b600260009054906101000a900473ffffffffffffffffffffffffffffffffffffffff1673ffffffffffffffffffffffffffffffffffffffff163373ffffffffffffffffffffffffffffffffffffffff1614610990576040517f08c379a00000000000000000000000000000000000000000000000000000000081526004018080602001828103825260148152602001807f4d7573742062652070726f78792074617267657400000000000000000000000081525060200191505060405180910390fd5b6000878790509050606088888080601f016020809104026020016040519081016040528093929190818152602001838380828437600081840152601f19601f8201169050808301925050505050505090508660008114610a0f5760018114610a1a5760028114610a265760038114610a335760048114610a4157610a4c565b8260208301a0610a4c565b868360208401a1610a4c565b85878460208501a2610a4c565b8486888560208601a3610a4c565b838587898660208701a45b50505050505050505050565b600260009054906101000a900473ffffffffffffffffffffffffffffffffffffffff168156fe596f75206d757374206265206e6f6d696e61746564206265666f726520796f752063616e20616363657074206f776e6572736869704f6e6c792074686520636f6e7472616374206f776e6572206d617920706572666f726d207468697320616374696f6ea265627a7a72315820dc9b9bf85275a26fd2a63d912264000a551196ba33bd28524673ef41f8bc551964736f6c63430005100032",
  "source": "pragma solidity ^0.5.16;\n\n// Inheritance\nimport \"./Owned.sol\";\n\n// Internal references\nimport \"./Proxyable.sol\";\n\n\n// https://docs.synthetix.io/contracts/Proxy\ncontract Proxy is Owned {\n    Proxyable public target;\n\n    constructor(address _owner) public Owned(_owner) {}\n\n    function setTarget(Proxyable _target) external onlyOwner {\n        target = _target;\n        emit TargetUpdated(_target);\n    }\n\n    function _emit(\n        bytes calldata callData,\n        uint numTopics,\n        bytes32 topic1,\n        bytes32 topic2,\n        bytes32 topic3,\n        bytes32 topic4\n    ) external onlyTarget {\n        uint size = callData.length;\n        bytes memory _callData = callData;\n\n        assembly {\n            /* The first 32 bytes of callData contain its length (as specified by the abi).\n             * Length is assumed to be a uint256 and therefore maximum of 32 bytes\n             * in length. It is also leftpadded to be a multiple of 32 bytes.\n             * This means moving call_data across 32 bytes guarantees we correctly access\n             * the data itself. */\n            switch numTopics\n                case 0 {\n                    log0(add(_callData, 32), size)\n                }\n                case 1 {\n                    log1(add(_callData, 32), size, topic1)\n                }\n                case 2 {\n                    log2(add(_callData, 32), size, topic1, topic2)\n                }\n                case 3 {\n                    log3(add(_callData, 32), size, topic1, topic2, topic3)\n                }\n                case 4 {\n                    log4(add(_callData, 32), size, topic1, topic2, topic3, topic4)\n                }\n        }\n    }\n\n    // solhint-disable no-complex-fallback\n    function() external payable {\n        // Mutable call setting Proxyable.messageSender as this is using call not delegatecall\n        target.setMessageSender(msg.sender);\n\n        assembly {\n            let free_ptr := mload(0x40)\n            calldatacopy(free_ptr, 0, calldatasize)\n\n            /* We must explicitly forward ether to the underlying contract as well. */\n            let result := call(gas, sload(target_slot), callvalue, free_ptr, calldatasize, 0, 0)\n            returndatacopy(free_ptr, 0, returndatasize)\n\n            if iszero(result) {\n                revert(free_ptr, returndatasize)\n            }\n            return(free_ptr, returndatasize)\n        }\n    }\n\n    modifier onlyTarget {\n        require(Proxyable(msg.sender) == target, \"Must be proxy target\");\n        _;\n    }\n\n    event TargetUpdated(Proxyable newTarget);\n}\n",
  "sourcePath": "/Users/qizhang/Development/truffle_test2/contracts/Proxy.sol",
  "compiler": {
    "name": "solc",
    "version": "0.5.16+commit.9c3226ce.Emscripten.clang"
  },
  "schemaVersion": "3.2.1",
  "updatedAt": "2020-07-05T03:58:13.014Z",
  "devdoc": {
    "methods": {}
  },
  "userdoc": {
    "methods": {}
  }
}