{
  "contractName": "RewardEscrow",
  "abi": [
    {
      "inputs": [
        {
          "internalType": "address",
          "name": "_owner",
          "type": "address"
        },
        {
          "internalType": "contract ISynthetix",
          "name": "_synthetix",
          "type": "address"
        },
        {
          "internalType": "contract IFeePool",
          "name": "_feePool",
          "type": "address"
        }
      ],
      "payable": false,
      "stateMutability": "nonpayable",
      "type": "constructor"
    },
    {
      "anonymous": false,
      "inputs": [
        {
          "indexed": false,
          "internalType": "address",
          "name": "newFeePool",
          "type": "address"
        }
      ],
      "name": "FeePoolUpdated",
      "type": "event"
    },
    {
      "anonymous": false,
      "inputs": [
        {
          "indexed": false,
          "internalType": "address",
          "name": "oldOwner",
          "type": "address"
        },
        {
          "indexed": false,
          "internalType": "address",
          "name": "newOwner",
          "type": "address"
        }
      ],
      "name": "OwnerChanged",
      "type": "event"
    },
    {
      "anonymous": false,
      "inputs": [
        {
          "indexed": false,
          "internalType": "address",
          "name": "newOwner",
          "type": "address"
        }
      ],
      "name": "OwnerNominated",
      "type": "event"
    },
    {
      "anonymous": false,
      "inputs": [
        {
          "indexed": false,
          "internalType": "address",
          "name": "newSynthetix",
          "type": "address"
        }
      ],
      "name": "SynthetixUpdated",
      "type": "event"
    },
    {
      "anonymous": false,
      "inputs": [
        {
          "indexed": true,
          "internalType": "address",
          "name": "beneficiary",
          "type": "address"
        },
        {
          "indexed": false,
          "internalType": "uint256",
          "name": "time",
          "type": "uint256"
        },
        {
          "indexed": false,
          "internalType": "uint256",
          "name": "value",
          "type": "uint256"
        }
      ],
      "name": "Vested",
      "type": "event"
    },
    {
      "anonymous": false,
      "inputs": [
        {
          "indexed": true,
          "internalType": "address",
          "name": "beneficiary",
          "type": "address"
        },
        {
          "indexed": false,
          "internalType": "uint256",
          "name": "time",
          "type": "uint256"
        },
        {
          "indexed": false,
          "internalType": "uint256",
          "name": "value",
          "type": "uint256"
        }
      ],
      "name": "VestingEntryCreated",
      "type": "event"
    },
    {
      "constant": true,
      "inputs": [],
      "name": "MAX_VESTING_ENTRIES",
      "outputs": [
        {
          "internalType": "uint256",
          "name": "",
          "type": "uint256"
        }
      ],
      "payable": false,
      "stateMutability": "view",
      "type": "function"
    },
    {
      "constant": false,
      "inputs": [],
      "name": "acceptOwnership",
      "outputs": [],
      "payable": false,
      "stateMutability": "nonpayable",
      "type": "function"
    },
    {
      "constant": true,
      "inputs": [],
      "name": "feePool",
      "outputs": [
        {
          "internalType": "contract IFeePool",
          "name": "",
          "type": "address"
        }
      ],
      "payable": false,
      "stateMutability": "view",
      "type": "function"
    },
    {
      "constant": false,
      "inputs": [
        {
          "internalType": "address",
          "name": "_owner",
          "type": "address"
        }
      ],
      "name": "nominateNewOwner",
      "outputs": [],
      "payable": false,
      "stateMutability": "nonpayable",
      "type": "function"
    },
    {
      "constant": true,
      "inputs": [],
      "name": "nominatedOwner",
      "outputs": [
        {
          "internalType": "address",
          "name": "",
          "type": "address"
        }
      ],
      "payable": false,
      "stateMutability": "view",
      "type": "function"
    },
    {
      "constant": true,
      "inputs": [],
      "name": "owner",
      "outputs": [
        {
          "internalType": "address",
          "name": "",
          "type": "address"
        }
      ],
      "payable": false,
      "stateMutability": "view",
      "type": "function"
    },
    {
      "constant": true,
      "inputs": [],
      "name": "synthetix",
      "outputs": [
        {
          "internalType": "contract ISynthetix",
          "name": "",
          "type": "address"
        }
      ],
      "payable": false,
      "stateMutability": "view",
      "type": "function"
    },
    {
      "constant": true,
      "inputs": [
        {
          "internalType": "address",
          "name": "",
          "type": "address"
        }
      ],
      "name": "totalEscrowedAccountBalance",
      "outputs": [
        {
          "internalType": "uint256",
          "name": "",
          "type": "uint256"
        }
      ],
      "payable": false,
      "stateMutability": "view",
      "type": "function"
    },
    {
      "constant": true,
      "inputs": [],
      "name": "totalEscrowedBalance",
      "outputs": [
        {
          "internalType": "uint256",
          "name": "",
          "type": "uint256"
        }
      ],
      "payable": false,
      "stateMutability": "view",
      "type": "function"
    },
    {
      "constant": true,
      "inputs": [
        {
          "internalType": "address",
          "name": "",
          "type": "address"
        }
      ],
      "name": "totalVestedAccountBalance",
      "outputs": [
        {
          "internalType": "uint256",
          "name": "",
          "type": "uint256"
        }
      ],
      "payable": false,
      "stateMutability": "view",
      "type": "function"
    },
    {
      "constant": true,
      "inputs": [
        {
          "internalType": "address",
          "name": "",
          "type": "address"
        },
        {
          "internalType": "uint256",
          "name": "",
          "type": "uint256"
        },
        {
          "internalType": "uint256",
          "name": "",
          "type": "uint256"
        }
      ],
      "name": "vestingSchedules",
      "outputs": [
        {
          "internalType": "uint256",
          "name": "",
          "type": "uint256"
        }
      ],
      "payable": false,
      "stateMutability": "view",
      "type": "function"
    },
    {
      "constant": false,
      "inputs": [
        {
          "internalType": "contract ISynthetix",
          "name": "_synthetix",
          "type": "address"
        }
      ],
      "name": "setSynthetix",
      "outputs": [],
      "payable": false,
      "stateMutability": "nonpayable",
      "type": "function"
    },
    {
      "constant": false,
      "inputs": [
        {
          "internalType": "contract IFeePool",
          "name": "_feePool",
          "type": "address"
        }
      ],
      "name": "setFeePool",
      "outputs": [],
      "payable": false,
      "stateMutability": "nonpayable",
      "type": "function"
    },
    {
      "constant": true,
      "inputs": [
        {
          "internalType": "address",
          "name": "account",
          "type": "address"
        }
      ],
      "name": "balanceOf",
      "outputs": [
        {
          "internalType": "uint256",
          "name": "",
          "type": "uint256"
        }
      ],
      "payable": false,
      "stateMutability": "view",
      "type": "function"
    },
    {
      "constant": true,
      "inputs": [
        {
          "internalType": "address",
          "name": "account",
          "type": "address"
        }
      ],
      "name": "numVestingEntries",
      "outputs": [
        {
          "internalType": "uint256",
          "name": "",
          "type": "uint256"
        }
      ],
      "payable": false,
      "stateMutability": "view",
      "type": "function"
    },
    {
      "constant": true,
      "inputs": [
        {
          "internalType": "address",
          "name": "account",
          "type": "address"
        },
        {
          "internalType": "uint256",
          "name": "index",
          "type": "uint256"
        }
      ],
      "name": "getVestingScheduleEntry",
      "outputs": [
        {
          "internalType": "uint256[2]",
          "name": "",
          "type": "uint256[2]"
        }
      ],
      "payable": false,
      "stateMutability": "view",
      "type": "function"
    },
    {
      "constant": true,
      "inputs": [
        {
          "internalType": "address",
          "name": "account",
          "type": "address"
        },
        {
          "internalType": "uint256",
          "name": "index",
          "type": "uint256"
        }
      ],
      "name": "getVestingTime",
      "outputs": [
        {
          "internalType": "uint256",
          "name": "",
          "type": "uint256"
        }
      ],
      "payable": false,
      "stateMutability": "view",
      "type": "function"
    },
    {
      "constant": true,
      "inputs": [
        {
          "internalType": "address",
          "name": "account",
          "type": "address"
        },
        {
          "internalType": "uint256",
          "name": "index",
          "type": "uint256"
        }
      ],
      "name": "getVestingQuantity",
      "outputs": [
        {
          "internalType": "uint256",
          "name": "",
          "type": "uint256"
        }
      ],
      "payable": false,
      "stateMutability": "view",
      "type": "function"
    },
    {
      "constant": true,
      "inputs": [
        {
          "internalType": "address",
          "name": "account",
          "type": "address"
        }
      ],
      "name": "getNextVestingIndex",
      "outputs": [
        {
          "internalType": "uint256",
          "name": "",
          "type": "uint256"
        }
      ],
      "payable": false,
      "stateMutability": "view",
      "type": "function"
    },
    {
      "constant": true,
      "inputs": [
        {
          "internalType": "address",
          "name": "account",
          "type": "address"
        }
      ],
      "name": "getNextVestingEntry",
      "outputs": [
        {
          "internalType": "uint256[2]",
          "name": "",
          "type": "uint256[2]"
        }
      ],
      "payable": false,
      "stateMutability": "view",
      "type": "function"
    },
    {
      "constant": true,
      "inputs": [
        {
          "internalType": "address",
          "name": "account",
          "type": "address"
        }
      ],
      "name": "getNextVestingTime",
      "outputs": [
        {
          "internalType": "uint256",
          "name": "",
          "type": "uint256"
        }
      ],
      "payable": false,
      "stateMutability": "view",
      "type": "function"
    },
    {
      "constant": true,
      "inputs": [
        {
          "internalType": "address",
          "name": "account",
          "type": "address"
        }
      ],
      "name": "getNextVestingQuantity",
      "outputs": [
        {
          "internalType": "uint256",
          "name": "",
          "type": "uint256"
        }
      ],
      "payable": false,
      "stateMutability": "view",
      "type": "function"
    },
    {
      "constant": true,
      "inputs": [
        {
          "internalType": "address",
          "name": "account",
          "type": "address"
        }
      ],
      "name": "checkAccountSchedule",
      "outputs": [
        {
          "internalType": "uint256[520]",
          "name": "",
          "type": "uint256[520]"
        }
      ],
      "payable": false,
      "stateMutability": "view",
      "type": "function"
    },
    {
      "constant": false,
      "inputs": [
        {
          "internalType": "address",
          "name": "account",
          "type": "address"
        },
        {
          "internalType": "uint256",
          "name": "quantity",
          "type": "uint256"
        }
      ],
      "name": "appendVestingEntry",
      "outputs": [],
      "payable": false,
      "stateMutability": "nonpayable",
      "type": "function"
    },
    {
      "constant": false,
      "inputs": [],
      "name": "vest",
      "outputs": [],
      "payable": false,
      "stateMutability": "nonpayable",
      "type": "function"
    }
  ],
  "bytecode": "0x608060405234801561001057600080fd5b506040516122f13803806122f18339818101604052606081101561003357600080fd5b8101908080519060200190929190805190602001909291908051906020019092919050505082600073ffffffffffffffffffffffffffffffffffffffff168173ffffffffffffffffffffffffffffffffffffffff1614156100fc576040517f08c379a00000000000000000000000000000000000000000000000000000000081526004018080602001828103825260198152602001807f4f776e657220616464726573732063616e6e6f7420626520300000000000000081525060200191505060405180910390fd5b806000806101000a81548173ffffffffffffffffffffffffffffffffffffffff021916908373ffffffffffffffffffffffffffffffffffffffff1602179055507fb532073b38c83145e3e5135377a08bf9aab55bc0fd7c1179cd4fb995d2a5159c600082604051808373ffffffffffffffffffffffffffffffffffffffff1673ffffffffffffffffffffffffffffffffffffffff1681526020018273ffffffffffffffffffffffffffffffffffffffff1673ffffffffffffffffffffffffffffffffffffffff1681526020019250505060405180910390a15081600260006101000a81548173ffffffffffffffffffffffffffffffffffffffff021916908373ffffffffffffffffffffffffffffffffffffffff16021790555080600360006101000a81548173ffffffffffffffffffffffffffffffffffffffff021916908373ffffffffffffffffffffffffffffffffffffffff160217905550505050612088806102696000396000f3fe608060405234801561001057600080fd5b50600436106101735760003560e01c806370a08231116100de5780639b217f9011610097578063d0cc82e311610071578063d0cc82e3146107df578063da7bd3e9146107fd578063ee1d036c14610887578063fec9f9da146108e957610173565b80639b217f90146106e5578063ae2e933b14610747578063b5ddb9c71461079157610173565b806370a082311461057957806371e780f3146105d1578063759b5225146105ef57806379ba5097146106395780638da5cb5b1461064357806397f465271461068d57610173565b8063326a3cfb11610130578063326a3cfb14610388578063449d0eb1146103e0578063458efde31461046157806345e5441f1461046b57806353a47bb7146104d75780636b3905c41461052157610173565b80631627540c1461017857806319db2228146101bc57806319e740c014610200578063204b676a14610258578063227d517a146102b05780632f5bb66114610308575b600080fd5b6101ba6004803603602081101561018e57600080fd5b81019080803573ffffffffffffffffffffffffffffffffffffffff16906020019092919050505061092d565b005b6101fe600480360360208110156101d257600080fd5b81019080803573ffffffffffffffffffffffffffffffffffffffff169060200190929190505050610a79565b005b6102426004803603602081101561021657600080fd5b81019080803573ffffffffffffffffffffffffffffffffffffffff169060200190929190505050610bc5565b6040518082815260200191505060405180910390f35b61029a6004803603602081101561026e57600080fd5b81019080803573ffffffffffffffffffffffffffffffffffffffff169060200190929190505050610c14565b6040518082815260200191505060405180910390f35b6102f2600480360360208110156102c657600080fd5b81019080803573ffffffffffffffffffffffffffffffffffffffff169060200190929190505050610c60565b6040518082815260200191505060405180910390f35b61034a6004803603602081101561031e57600080fd5b81019080803573ffffffffffffffffffffffffffffffffffffffff169060200190929190505050610c78565b6040518082600260200280838360005b8381101561037557808201518184015260208101905061035a565b5050505090500191505060405180910390f35b6103ca6004803603602081101561039e57600080fd5b81019080803573ffffffffffffffffffffffffffffffffffffffff169060200190929190505050610ccf565b6040518082815260200191505060405180910390f35b610422600480360360208110156103f657600080fd5b81019080803573ffffffffffffffffffffffffffffffffffffffff169060200190929190505050610ce7565b604051808261020860200280838360005b8381101561044e578082015181840152602081019050610433565b5050505090500191505060405180910390f35b610469610d98565b005b6104c16004803603606081101561048157600080fd5b81019080803573ffffffffffffffffffffffffffffffffffffffff169060200190929190803590602001909291908035906020019092919050505061111f565b6040518082815260200191505060405180910390f35b6104df61115e565b604051808273ffffffffffffffffffffffffffffffffffffffff1673ffffffffffffffffffffffffffffffffffffffff16815260200191505060405180910390f35b6105636004803603602081101561053757600080fd5b81019080803573ffffffffffffffffffffffffffffffffffffffff169060200190929190505050611184565b6040518082815260200191505060405180910390f35b6105bb6004803603602081101561058f57600080fd5b81019080803573ffffffffffffffffffffffffffffffffffffffff1690602001909291905050506111a7565b6040518082815260200191505060405180910390f35b6105d96111f0565b6040518082815260200191505060405180910390f35b6105f76111f6565b604051808273ffffffffffffffffffffffffffffffffffffffff1673ffffffffffffffffffffffffffffffffffffffff16815260200191505060405180910390f35b61064161121c565b005b61064b611442565b604051808273ffffffffffffffffffffffffffffffffffffffff1673ffffffffffffffffffffffffffffffffffffffff16815260200191505060405180910390f35b6106cf600480360360208110156106a357600080fd5b81019080803573ffffffffffffffffffffffffffffffffffffffff169060200190929190505050611467565b6040518082815260200191505060405180910390f35b610731600480360360408110156106fb57600080fd5b81019080803573ffffffffffffffffffffffffffffffffffffffff1690602001909291908035906020019092919050505061148a565b6040518082815260200191505060405180910390f35b61074f6114af565b604051808273ffffffffffffffffffffffffffffffffffffffff1673ffffffffffffffffffffffffffffffffffffffff16815260200191505060405180910390f35b6107dd600480360360408110156107a757600080fd5b81019080803573ffffffffffffffffffffffffffffffffffffffff169060200190929190803590602001909291905050506114d5565b005b6107e761158f565b6040518082815260200191505060405180910390f35b6108496004803603604081101561081357600080fd5b81019080803573ffffffffffffffffffffffffffffffffffffffff16906020019092919080359060200190929190505050611595565b6040518082600260200280838360005b83811015610874578082015181840152602081019050610859565b5050505090500191505060405180910390f35b6108d36004803603604081101561089d57600080fd5b81019080803573ffffffffffffffffffffffffffffffffffffffff16906020019092919080359060200190929190505050611639565b6040518082815260200191505060405180910390f35b61092b600480360360208110156108ff57600080fd5b81019080803573ffffffffffffffffffffffffffffffffffffffff16906020019092919050505061165e565b005b6000809054906101000a900473ffffffffffffffffffffffffffffffffffffffff1673ffffffffffffffffffffffffffffffffffffffff163373ffffffffffffffffffffffffffffffffffffffff16146109d2576040517f08c379a000000000000000000000000000000000000000000000000000000000815260040180806020018281038252602f815260200180611ff3602f913960400191505060405180910390fd5b80600160006101000a81548173ffffffffffffffffffffffffffffffffffffffff021916908373ffffffffffffffffffffffffffffffffffffffff1602179055507f906a1c6bd7e3091ea86693dd029a831c19049ce77f1dce2ce0bab1cacbabce2281604051808273ffffffffffffffffffffffffffffffffffffffff1673ffffffffffffffffffffffffffffffffffffffff16815260200191505060405180910390a150565b6000809054906101000a900473ffffffffffffffffffffffffffffffffffffffff1673ffffffffffffffffffffffffffffffffffffffff163373ffffffffffffffffffffffffffffffffffffffff1614610b1e576040517f08c379a000000000000000000000000000000000000000000000000000000000815260040180806020018281038252602f815260200180611ff3602f913960400191505060405180910390fd5b80600360006101000a81548173ffffffffffffffffffffffffffffffffffffffff021916908373ffffffffffffffffffffffffffffffffffffffff1602179055507f6d1d088acfe4f30d6014f6f693c61c16258f9784a6ed8439b2c59213eecb629581604051808273ffffffffffffffffffffffffffffffffffffffff1673ffffffffffffffffffffffffffffffffffffffff16815260200191505060405180910390a150565b600080610bd1836117aa565b905060008090505b81811015610c09576000610bed858361148a565b14610bfc578092505050610c0f565b8080600101915050610bd9565b50809150505b919050565b6000600460008373ffffffffffffffffffffffffffffffffffffffff1673ffffffffffffffffffffffffffffffffffffffff168152602001908152602001600020805490509050919050565b60066020528060005260406000206000915090505481565b610c80611e4f565b6000610c8b83610bc5565b9050610c96836117aa565b811415610cbc576040518060400160405280600081526020016000815250915050610cca565b610cc68382611595565b9150505b919050565b60056020528060005260406000206000915090505481565b610cef611e71565b610cf7611e71565b6000610d02846117aa565b905060008090505b81811015610d8d57610d1a611e4f565b610d248683611595565b905080600060028110610d3357fe5b602002015184600284026102088110610d4857fe5b60200201818152505080600160028110610d5e57fe5b602002015184600160028502016102088110610d7657fe5b602002018181525050508080600101915050610d0a565b508192505050919050565b6000610da3336117aa565b9050600080600090505b82811015610e91576000610dc1338361148a565b905042811115610dd15750610e91565b6000610ddd3384611639565b90506000811115610e82576040518060400160405280600060ff168152602001600060ff16815250600460003373ffffffffffffffffffffffffffffffffffffffff1673ffffffffffffffffffffffffffffffffffffffff1681526020019081526020016000208481548110610e4f57fe5b9060005260206000209060020201906002610e6b929190611e95565b50610e7f81856117f690919063ffffffff16565b93505b50508080600101915050610dad565b506000811461111b57610eaf8160075461187e90919063ffffffff16565b600781905550610f0781600560003373ffffffffffffffffffffffffffffffffffffffff1673ffffffffffffffffffffffffffffffffffffffff1681526020019081526020016000205461187e90919063ffffffff16565b600560003373ffffffffffffffffffffffffffffffffffffffff1673ffffffffffffffffffffffffffffffffffffffff16815260200190815260200160002081905550610f9c81600660003373ffffffffffffffffffffffffffffffffffffffff1673ffffffffffffffffffffffffffffffffffffffff168152602001908152602001600020546117f690919063ffffffff16565b600660003373ffffffffffffffffffffffffffffffffffffffff1673ffffffffffffffffffffffffffffffffffffffff16815260200190815260200160002081905550600260009054906101000a900473ffffffffffffffffffffffffffffffffffffffff1673ffffffffffffffffffffffffffffffffffffffff1663a9059cbb33836040518363ffffffff1660e01b8152600401808373ffffffffffffffffffffffffffffffffffffffff1673ffffffffffffffffffffffffffffffffffffffff16815260200182815260200192505050602060405180830381600087803b15801561108857600080fd5b505af115801561109c573d6000803e3d6000fd5b505050506040513d60208110156110b257600080fd5b8101908080519060200190929190505050503373ffffffffffffffffffffffffffffffffffffffff167ffbeff59d2bfda0d79ea8a29f8c57c66d48c7a13eabbdb90908d9115ec41c9dc64283604051808381526020018281526020019250505060405180910390a25b5050565b6004602052826000526040600020828154811061113857fe5b9060005260206000209060020201816002811061115157fe5b0160009250925050505481565b600160009054906101000a900473ffffffffffffffffffffffffffffffffffffffff1681565b600061118f82610c78565b60006002811061119b57fe5b60200201519050919050565b6000600560008373ffffffffffffffffffffffffffffffffffffffff1673ffffffffffffffffffffffffffffffffffffffff168152602001908152602001600020549050919050565b60075481565b600260009054906101000a900473ffffffffffffffffffffffffffffffffffffffff1681565b600160009054906101000a900473ffffffffffffffffffffffffffffffffffffffff1673ffffffffffffffffffffffffffffffffffffffff163373ffffffffffffffffffffffffffffffffffffffff16146112c2576040517f08c379a0000000000000000000000000000000000000000000000000000000008152600401808060200182810382526035815260200180611f406035913960400191505060405180910390fd5b7fb532073b38c83145e3e5135377a08bf9aab55bc0fd7c1179cd4fb995d2a5159c6000809054906101000a900473ffffffffffffffffffffffffffffffffffffffff16600160009054906101000a900473ffffffffffffffffffffffffffffffffffffffff16604051808373ffffffffffffffffffffffffffffffffffffffff1673ffffffffffffffffffffffffffffffffffffffff1681526020018273ffffffffffffffffffffffffffffffffffffffff1673ffffffffffffffffffffffffffffffffffffffff1681526020019250505060405180910390a1600160009054906101000a900473ffffffffffffffffffffffffffffffffffffffff166000806101000a81548173ffffffffffffffffffffffffffffffffffffffff021916908373ffffffffffffffffffffffffffffffffffffffff1602179055506000600160006101000a81548173ffffffffffffffffffffffffffffffffffffffff021916908373ffffffffffffffffffffffffffffffffffffffff160217905550565b6000809054906101000a900473ffffffffffffffffffffffffffffffffffffffff1681565b600061147282610c78565b60016002811061147e57fe5b60200201519050919050565b60006114968383611595565b6000600281106114a257fe5b6020020151905092915050565b600360009054906101000a900473ffffffffffffffffffffffffffffffffffffffff1681565b6000600360009054906101000a900473ffffffffffffffffffffffffffffffffffffffff1673ffffffffffffffffffffffffffffffffffffffff163373ffffffffffffffffffffffffffffffffffffffff1614905080611580576040517f08c379a00000000000000000000000000000000000000000000000000000000081526004018080602001828103825260328152602001806120226032913960400191505060405180910390fd5b61158a83836118c8565b505050565b61010481565b61159d611e4f565b600460008473ffffffffffffffffffffffffffffffffffffffff1673ffffffffffffffffffffffffffffffffffffffff16815260200190815260200160002082815481106115e757fe5b906000526020600020906002020160028060200260405190810160405280929190826002801561162c576020028201915b815481526020019060010190808311611618575b5050505050905092915050565b60006116458383611595565b60016002811061165157fe5b6020020151905092915050565b6000809054906101000a900473ffffffffffffffffffffffffffffffffffffffff1673ffffffffffffffffffffffffffffffffffffffff163373ffffffffffffffffffffffffffffffffffffffff1614611703576040517f08c379a000000000000000000000000000000000000000000000000000000000815260040180806020018281038252602f815260200180611ff3602f913960400191505060405180910390fd5b80600260006101000a81548173ffffffffffffffffffffffffffffffffffffffff021916908373ffffffffffffffffffffffffffffffffffffffff1602179055507f46e9c68bd7831071bdd478f1ae4c4a52463961a9d620383a0a121dbfc0e0f06d81604051808273ffffffffffffffffffffffffffffffffffffffff1673ffffffffffffffffffffffffffffffffffffffff16815260200191505060405180910390a150565b6000600460008373ffffffffffffffffffffffffffffffffffffffff1673ffffffffffffffffffffffffffffffffffffffff168152602001908152602001600020805490509050919050565b600080828401905083811015611874576040517f08c379a000000000000000000000000000000000000000000000000000000000815260040180806020018281038252601b8152602001807f536166654d6174683a206164646974696f6e206f766572666c6f77000000000081525060200191505060405180910390fd5b8091505092915050565b60006118c083836040518060400160405280601e81526020017f536166654d6174683a207375627472616374696f6e206f766572666c6f770000815250611d8f565b905092915050565b600081141561193f576040517f08c379a00000000000000000000000000000000000000000000000000000000081526004018080602001828103825260178152602001807f5175616e746974792063616e6e6f74206265207a65726f00000000000000000081525060200191505060405180910390fd5b611954816007546117f690919063ffffffff16565b600781905550600260009054906101000a900473ffffffffffffffffffffffffffffffffffffffff1673ffffffffffffffffffffffffffffffffffffffff166370a08231306040518263ffffffff1660e01b8152600401808273ffffffffffffffffffffffffffffffffffffffff1673ffffffffffffffffffffffffffffffffffffffff16815260200191505060206040518083038186803b1580156119f957600080fd5b505afa158015611a0d573d6000803e3d6000fd5b505050506040513d6020811015611a2357600080fd5b81019080805190602001909291905050506007541115611a8e576040517f08c379a0000000000000000000000000000000000000000000000000000000008152600401808060200182810382526047815260200180611fac6047913960600191505060405180910390fd5b6000600460008473ffffffffffffffffffffffffffffffffffffffff1673ffffffffffffffffffffffffffffffffffffffff168152602001908152602001600020805490509050610104811115611b4d576040517f08c379a000000000000000000000000000000000000000000000000000000000815260040180806020018281038252601c8152602001807f56657374696e67207363686564756c6520697320746f6f206c6f6e670000000081525060200191505060405180910390fd5b60006301dfe200420190506000821415611baa5782600560008673ffffffffffffffffffffffffffffffffffffffff1673ffffffffffffffffffffffffffffffffffffffff16815260200190815260200160002081905550611ca4565b80611bb8856001850361148a565b10611c0e576040517f08c379a0000000000000000000000000000000000000000000000000000000008152600401808060200182810382526037815260200180611f756037913960400191505060405180910390fd5b611c6083600560008773ffffffffffffffffffffffffffffffffffffffff1673ffffffffffffffffffffffffffffffffffffffff168152602001908152602001600020546117f690919063ffffffff16565b600560008673ffffffffffffffffffffffffffffffffffffffff1673ffffffffffffffffffffffffffffffffffffffff168152602001908152602001600020819055505b600460008573ffffffffffffffffffffffffffffffffffffffff1673ffffffffffffffffffffffffffffffffffffffff16815260200190815260200160002060405180604001604052808381526020018581525090806001815401808255809150509060018203906000526020600020906002020160009091929091909150906002611d31929190611eda565b50508373ffffffffffffffffffffffffffffffffffffffff167fedd34dc5a5ea12bd847909801d0660781b50e26c7f4cec3c7b308f1ea410635c4285604051808381526020018281526020019250505060405180910390a250505050565b6000838311158290611e3c576040517f08c379a00000000000000000000000000000000000000000000000000000000081526004018080602001828103825283818151815260200191508051906020019080838360005b83811015611e01578082015181840152602081019050611de6565b50505050905090810190601f168015611e2e5780820380516001836020036101000a031916815260200191505b509250505060405180910390fd5b5060008385039050809150509392505050565b6040518060400160405280600290602082028038833980820191505090505090565b60405180614100016040528061020890602082028038833980820191505090505090565b8260028101928215611ec9579160200282015b82811115611ec8578251829060ff16905591602001919060010190611ea8565b5b509050611ed69190611f1a565b5090565b8260028101928215611f09579160200282015b82811115611f08578251825591602001919060010190611eed565b5b509050611f169190611f1a565b5090565b611f3c91905b80821115611f38576000816000905550600101611f20565b5090565b9056fe596f75206d757374206265206e6f6d696e61746564206265666f726520796f752063616e20616363657074206f776e65727368697043616e6e6f7420616464206e65772076657374656420656e7472696573206561726c696572207468616e20746865206c617374206f6e654d75737420626520656e6f7567682062616c616e636520696e2074686520636f6e747261637420746f2070726f7669646520666f72207468652076657374696e6720656e7472794f6e6c792074686520636f6e7472616374206f776e6572206d617920706572666f726d207468697320616374696f6e4f6e6c792074686520466565506f6f6c20636f6e7472616374732063616e20706572666f726d207468697320616374696f6ea265627a7a7231582069318225e384f619f341b689c712e7cfcd325f5ea7e16dbb0bfea3d18931edd364736f6c63430005100032",
  "source": "pragma solidity ^0.5.16;\n\n// Inheritance\nimport \"./Owned.sol\";\nimport \"./interfaces/IRewardEscrow.sol\";\n\n// Libraries\nimport \"./SafeDecimalMath.sol\";\n\n// Internal references\nimport \"./interfaces/IERC20.sol\";\nimport \"./interfaces/IFeePool.sol\";\nimport \"./interfaces/ISynthetix.sol\";\n\n\n// https://docs.synthetix.io/contracts/RewardEscrow\ncontract RewardEscrow is Owned, IRewardEscrow {\n    using SafeMath for uint;\n\n    /* The corresponding Synthetix contract. */\n    ISynthetix public synthetix;\n\n    IFeePool public feePool;\n\n    /* Lists of (timestamp, quantity) pairs per account, sorted in ascending time order.\n     * These are the times at which each given quantity of SNX vests. */\n    mapping(address => uint[2][]) public vestingSchedules;\n\n    /* An account's total escrowed synthetix balance to save recomputing this for fee extraction purposes. */\n    mapping(address => uint) public totalEscrowedAccountBalance;\n\n    /* An account's total vested reward synthetix. */\n    mapping(address => uint) public totalVestedAccountBalance;\n\n    /* The total remaining escrowed balance, for verifying the actual synthetix balance of this contract against. */\n    uint public totalEscrowedBalance;\n\n    uint internal constant TIME_INDEX = 0;\n    uint internal constant QUANTITY_INDEX = 1;\n\n    /* Limit vesting entries to disallow unbounded iteration over vesting schedules.\n     * There are 5 years of the supply schedule */\n    uint public constant MAX_VESTING_ENTRIES = 52 * 5;\n\n    /* ========== CONSTRUCTOR ========== */\n\n    constructor(\n        address _owner,\n        ISynthetix _synthetix,\n        IFeePool _feePool\n    ) public Owned(_owner) {\n        synthetix = _synthetix;\n        feePool = _feePool;\n    }\n\n    /* ========== SETTERS ========== */\n\n    /**\n     * @notice set the synthetix contract address as we need to transfer SNX when the user vests\n     */\n    function setSynthetix(ISynthetix _synthetix) external onlyOwner {\n        synthetix = _synthetix;\n        emit SynthetixUpdated(address(_synthetix));\n    }\n\n    /**\n     * @notice set the FeePool contract as it is the only authority to be able to call\n     * appendVestingEntry with the onlyFeePool modifer\n     */\n    function setFeePool(IFeePool _feePool) external onlyOwner {\n        feePool = _feePool;\n        emit FeePoolUpdated(address(_feePool));\n    }\n\n    /* ========== VIEW FUNCTIONS ========== */\n\n    /**\n     * @notice A simple alias to totalEscrowedAccountBalance: provides ERC20 balance integration.\n     */\n    function balanceOf(address account) public view returns (uint) {\n        return totalEscrowedAccountBalance[account];\n    }\n\n    function _numVestingEntries(address account) internal view returns (uint) {\n        return vestingSchedules[account].length;\n    }\n\n    /**\n     * @notice The number of vesting dates in an account's schedule.\n     */\n    function numVestingEntries(address account) external view returns (uint) {\n        return vestingSchedules[account].length;\n    }\n\n    /**\n     * @notice Get a particular schedule entry for an account.\n     * @return A pair of uints: (timestamp, synthetix quantity).\n     */\n    function getVestingScheduleEntry(address account, uint index) public view returns (uint[2] memory) {\n        return vestingSchedules[account][index];\n    }\n\n    /**\n     * @notice Get the time at which a given schedule entry will vest.\n     */\n    function getVestingTime(address account, uint index) public view returns (uint) {\n        return getVestingScheduleEntry(account, index)[TIME_INDEX];\n    }\n\n    /**\n     * @notice Get the quantity of SNX associated with a given schedule entry.\n     */\n    function getVestingQuantity(address account, uint index) public view returns (uint) {\n        return getVestingScheduleEntry(account, index)[QUANTITY_INDEX];\n    }\n\n    /**\n     * @notice Obtain the index of the next schedule entry that will vest for a given user.\n     */\n    function getNextVestingIndex(address account) public view returns (uint) {\n        uint len = _numVestingEntries(account);\n        for (uint i = 0; i < len; i++) {\n            if (getVestingTime(account, i) != 0) {\n                return i;\n            }\n        }\n        return len;\n    }\n\n    /**\n     * @notice Obtain the next schedule entry that will vest for a given user.\n     * @return A pair of uints: (timestamp, synthetix quantity). */\n    function getNextVestingEntry(address account) public view returns (uint[2] memory) {\n        uint index = getNextVestingIndex(account);\n        if (index == _numVestingEntries(account)) {\n            return [uint(0), 0];\n        }\n        return getVestingScheduleEntry(account, index);\n    }\n\n    /**\n     * @notice Obtain the time at which the next schedule entry will vest for a given user.\n     */\n    function getNextVestingTime(address account) external view returns (uint) {\n        return getNextVestingEntry(account)[TIME_INDEX];\n    }\n\n    /**\n     * @notice Obtain the quantity which the next schedule entry will vest for a given user.\n     */\n    function getNextVestingQuantity(address account) external view returns (uint) {\n        return getNextVestingEntry(account)[QUANTITY_INDEX];\n    }\n\n    /**\n     * @notice return the full vesting schedule entries vest for a given user.\n     * @dev For DApps to display the vesting schedule for the\n     * inflationary supply over 5 years. Solidity cant return variable length arrays\n     * so this is returning pairs of data. Vesting Time at [0] and quantity at [1] and so on\n     */\n    function checkAccountSchedule(address account) public view returns (uint[520] memory) {\n        uint[520] memory _result;\n        uint schedules = _numVestingEntries(account);\n        for (uint i = 0; i < schedules; i++) {\n            uint[2] memory pair = getVestingScheduleEntry(account, i);\n            _result[i * 2] = pair[0];\n            _result[i * 2 + 1] = pair[1];\n        }\n        return _result;\n    }\n\n    /* ========== MUTATIVE FUNCTIONS ========== */\n\n    function _appendVestingEntry(address account, uint quantity) internal {\n        /* No empty or already-passed vesting entries allowed. */\n        require(quantity != 0, \"Quantity cannot be zero\");\n\n        /* There must be enough balance in the contract to provide for the vesting entry. */\n        totalEscrowedBalance = totalEscrowedBalance.add(quantity);\n        require(\n            totalEscrowedBalance <= IERC20(address(synthetix)).balanceOf(address(this)),\n            \"Must be enough balance in the contract to provide for the vesting entry\"\n        );\n\n        /* Disallow arbitrarily long vesting schedules in light of the gas limit. */\n        uint scheduleLength = vestingSchedules[account].length;\n        require(scheduleLength <= MAX_VESTING_ENTRIES, \"Vesting schedule is too long\");\n\n        /* Escrow the tokens for 1 year. */\n        uint time = now + 52 weeks;\n\n        if (scheduleLength == 0) {\n            totalEscrowedAccountBalance[account] = quantity;\n        } else {\n            /* Disallow adding new vested SNX earlier than the last one.\n             * Since entries are only appended, this means that no vesting date can be repeated. */\n            require(\n                getVestingTime(account, scheduleLength - 1) < time,\n                \"Cannot add new vested entries earlier than the last one\"\n            );\n            totalEscrowedAccountBalance[account] = totalEscrowedAccountBalance[account].add(quantity);\n        }\n\n        vestingSchedules[account].push([time, quantity]);\n\n        emit VestingEntryCreated(account, now, quantity);\n    }\n\n    /**\n     * @notice Add a new vesting entry at a given time and quantity to an account's schedule.\n     * @dev A call to this should accompany a previous successful call to synthetix.transfer(rewardEscrow, amount),\n     * to ensure that when the funds are withdrawn, there is enough balance.\n     * Note; although this function could technically be used to produce unbounded\n     * arrays, it's only withinn the 4 year period of the weekly inflation schedule.\n     * @param account The account to append a new vesting entry to.\n     * @param quantity The quantity of SNX that will be escrowed.\n     */\n    function appendVestingEntry(address account, uint quantity) external onlyFeePool {\n        _appendVestingEntry(account, quantity);\n    }\n\n    /**\n     * @notice Allow a user to withdraw any SNX in their schedule that have vested.\n     */\n    function vest() external {\n        uint numEntries = _numVestingEntries(msg.sender);\n        uint total;\n        for (uint i = 0; i < numEntries; i++) {\n            uint time = getVestingTime(msg.sender, i);\n            /* The list is sorted; when we reach the first future time, bail out. */\n            if (time > now) {\n                break;\n            }\n            uint qty = getVestingQuantity(msg.sender, i);\n            if (qty > 0) {\n                vestingSchedules[msg.sender][i] = [0, 0];\n                total = total.add(qty);\n            }\n        }\n\n        if (total != 0) {\n            totalEscrowedBalance = totalEscrowedBalance.sub(total);\n            totalEscrowedAccountBalance[msg.sender] = totalEscrowedAccountBalance[msg.sender].sub(total);\n            totalVestedAccountBalance[msg.sender] = totalVestedAccountBalance[msg.sender].add(total);\n            IERC20(address(synthetix)).transfer(msg.sender, total);\n            emit Vested(msg.sender, now, total);\n        }\n    }\n\n    /* ========== MODIFIERS ========== */\n\n    modifier onlyFeePool() {\n        bool isFeePool = msg.sender == address(feePool);\n\n        require(isFeePool, \"Only the FeePool contracts can perform this action\");\n        _;\n    }\n\n    /* ========== EVENTS ========== */\n\n    event SynthetixUpdated(address newSynthetix);\n\n    event FeePoolUpdated(address newFeePool);\n\n    event Vested(address indexed beneficiary, uint time, uint value);\n\n    event VestingEntryCreated(address indexed beneficiary, uint time, uint value);\n}\n",
  "sourcePath": "/Users/qizhang/Development/truffle_test2/contracts/RewardEscrow.sol",
  "compiler": {
    "name": "solc",
    "version": "0.5.16+commit.9c3226ce.Emscripten.clang"
  },
  "schemaVersion": "3.2.1",
  "updatedAt": "2020-07-05T03:58:13.035Z",
  "devdoc": {
    "methods": {
      "appendVestingEntry(address,uint256)": {
        "details": "A call to this should accompany a previous successful call to synthetix.transfer(rewardEscrow, amount), to ensure that when the funds are withdrawn, there is enough balance. Note; although this function could technically be used to produce unbounded arrays, it's only withinn the 4 year period of the weekly inflation schedule.",
        "params": {
          "account": "The account to append a new vesting entry to.",
          "quantity": "The quantity of SNX that will be escrowed."
        }
      },
      "checkAccountSchedule(address)": {
        "details": "For DApps to display the vesting schedule for the inflationary supply over 5 years. Solidity cant return variable length arrays so this is returning pairs of data. Vesting Time at [0] and quantity at [1] and so on"
      },
      "getNextVestingEntry(address)": {
        "return": "A pair of uints: (timestamp, synthetix quantity). "
      },
      "getVestingScheduleEntry(address,uint256)": {
        "return": "A pair of uints: (timestamp, synthetix quantity)."
      }
    }
  },
  "userdoc": {
    "methods": {
      "appendVestingEntry(address,uint256)": {
        "notice": "Add a new vesting entry at a given time and quantity to an account's schedule."
      },
      "balanceOf(address)": {
        "notice": "A simple alias to totalEscrowedAccountBalance: provides ERC20 balance integration."
      },
      "checkAccountSchedule(address)": {
        "notice": "return the full vesting schedule entries vest for a given user."
      },
      "getNextVestingEntry(address)": {
        "notice": "Obtain the next schedule entry that will vest for a given user."
      },
      "getNextVestingIndex(address)": {
        "notice": "Obtain the index of the next schedule entry that will vest for a given user."
      },
      "getNextVestingQuantity(address)": {
        "notice": "Obtain the quantity which the next schedule entry will vest for a given user."
      },
      "getNextVestingTime(address)": {
        "notice": "Obtain the time at which the next schedule entry will vest for a given user."
      },
      "getVestingQuantity(address,uint256)": {
        "notice": "Get the quantity of SNX associated with a given schedule entry."
      },
      "getVestingScheduleEntry(address,uint256)": {
        "notice": "Get a particular schedule entry for an account."
      },
      "getVestingTime(address,uint256)": {
        "notice": "Get the time at which a given schedule entry will vest."
      },
      "numVestingEntries(address)": {
        "notice": "The number of vesting dates in an account's schedule."
      },
      "setFeePool(address)": {
        "notice": "set the FeePool contract as it is the only authority to be able to call appendVestingEntry with the onlyFeePool modifer"
      },
      "setSynthetix(address)": {
        "notice": "set the synthetix contract address as we need to transfer SNX when the user vests"
      },
      "vest()": {
        "notice": "Allow a user to withdraw any SNX in their schedule that have vested."
      }
    }
  }
}