{
  "contractName": "RewardsDistribution",
  "abi": [
    {
      "inputs": [
        {
          "internalType": "address",
          "name": "_owner",
          "type": "address"
        },
        {
          "internalType": "address",
          "name": "_authority",
          "type": "address"
        },
        {
          "internalType": "address",
          "name": "_synthetixProxy",
          "type": "address"
        },
        {
          "internalType": "address",
          "name": "_rewardEscrow",
          "type": "address"
        },
        {
          "internalType": "address",
          "name": "_feePoolProxy",
          "type": "address"
        }
      ],
      "payable": false,
      "stateMutability": "nonpayable",
      "type": "constructor"
    },
    {
      "anonymous": false,
      "inputs": [
        {
          "indexed": false,
          "internalType": "address",
          "name": "oldOwner",
          "type": "address"
        },
        {
          "indexed": false,
          "internalType": "address",
          "name": "newOwner",
          "type": "address"
        }
      ],
      "name": "OwnerChanged",
      "type": "event"
    },
    {
      "anonymous": false,
      "inputs": [
        {
          "indexed": false,
          "internalType": "address",
          "name": "newOwner",
          "type": "address"
        }
      ],
      "name": "OwnerNominated",
      "type": "event"
    },
    {
      "anonymous": false,
      "inputs": [
        {
          "indexed": false,
          "internalType": "uint256",
          "name": "index",
          "type": "uint256"
        },
        {
          "indexed": false,
          "internalType": "address",
          "name": "destination",
          "type": "address"
        },
        {
          "indexed": false,
          "internalType": "uint256",
          "name": "amount",
          "type": "uint256"
        }
      ],
      "name": "RewardDistributionAdded",
      "type": "event"
    },
    {
      "anonymous": false,
      "inputs": [
        {
          "indexed": false,
          "internalType": "uint256",
          "name": "amount",
          "type": "uint256"
        }
      ],
      "name": "RewardsDistributed",
      "type": "event"
    },
    {
      "constant": false,
      "inputs": [],
      "name": "acceptOwnership",
      "outputs": [],
      "payable": false,
      "stateMutability": "nonpayable",
      "type": "function"
    },
    {
      "constant": true,
      "inputs": [],
      "name": "authority",
      "outputs": [
        {
          "internalType": "address",
          "name": "",
          "type": "address"
        }
      ],
      "payable": false,
      "stateMutability": "view",
      "type": "function"
    },
    {
      "constant": true,
      "inputs": [
        {
          "internalType": "uint256",
          "name": "",
          "type": "uint256"
        }
      ],
      "name": "distributions",
      "outputs": [
        {
          "internalType": "address",
          "name": "destination",
          "type": "address"
        },
        {
          "internalType": "uint256",
          "name": "amount",
          "type": "uint256"
        }
      ],
      "payable": false,
      "stateMutability": "view",
      "type": "function"
    },
    {
      "constant": true,
      "inputs": [],
      "name": "feePoolProxy",
      "outputs": [
        {
          "internalType": "address",
          "name": "",
          "type": "address"
        }
      ],
      "payable": false,
      "stateMutability": "view",
      "type": "function"
    },
    {
      "constant": false,
      "inputs": [
        {
          "internalType": "address",
          "name": "_owner",
          "type": "address"
        }
      ],
      "name": "nominateNewOwner",
      "outputs": [],
      "payable": false,
      "stateMutability": "nonpayable",
      "type": "function"
    },
    {
      "constant": true,
      "inputs": [],
      "name": "nominatedOwner",
      "outputs": [
        {
          "internalType": "address",
          "name": "",
          "type": "address"
        }
      ],
      "payable": false,
      "stateMutability": "view",
      "type": "function"
    },
    {
      "constant": true,
      "inputs": [],
      "name": "owner",
      "outputs": [
        {
          "internalType": "address",
          "name": "",
          "type": "address"
        }
      ],
      "payable": false,
      "stateMutability": "view",
      "type": "function"
    },
    {
      "constant": true,
      "inputs": [],
      "name": "rewardEscrow",
      "outputs": [
        {
          "internalType": "address",
          "name": "",
          "type": "address"
        }
      ],
      "payable": false,
      "stateMutability": "view",
      "type": "function"
    },
    {
      "constant": true,
      "inputs": [],
      "name": "synthetixProxy",
      "outputs": [
        {
          "internalType": "address",
          "name": "",
          "type": "address"
        }
      ],
      "payable": false,
      "stateMutability": "view",
      "type": "function"
    },
    {
      "constant": false,
      "inputs": [
        {
          "internalType": "address",
          "name": "_synthetixProxy",
          "type": "address"
        }
      ],
      "name": "setSynthetixProxy",
      "outputs": [],
      "payable": false,
      "stateMutability": "nonpayable",
      "type": "function"
    },
    {
      "constant": false,
      "inputs": [
        {
          "internalType": "address",
          "name": "_rewardEscrow",
          "type": "address"
        }
      ],
      "name": "setRewardEscrow",
      "outputs": [],
      "payable": false,
      "stateMutability": "nonpayable",
      "type": "function"
    },
    {
      "constant": false,
      "inputs": [
        {
          "internalType": "address",
          "name": "_feePoolProxy",
          "type": "address"
        }
      ],
      "name": "setFeePoolProxy",
      "outputs": [],
      "payable": false,
      "stateMutability": "nonpayable",
      "type": "function"
    },
    {
      "constant": false,
      "inputs": [
        {
          "internalType": "address",
          "name": "_authority",
          "type": "address"
        }
      ],
      "name": "setAuthority",
      "outputs": [],
      "payable": false,
      "stateMutability": "nonpayable",
      "type": "function"
    },
    {
      "constant": false,
      "inputs": [
        {
          "internalType": "address",
          "name": "destination",
          "type": "address"
        },
        {
          "internalType": "uint256",
          "name": "amount",
          "type": "uint256"
        }
      ],
      "name": "addRewardDistribution",
      "outputs": [
        {
          "internalType": "bool",
          "name": "",
          "type": "bool"
        }
      ],
      "payable": false,
      "stateMutability": "nonpayable",
      "type": "function"
    },
    {
      "constant": false,
      "inputs": [
        {
          "internalType": "uint256",
          "name": "index",
          "type": "uint256"
        }
      ],
      "name": "removeRewardDistribution",
      "outputs": [],
      "payable": false,
      "stateMutability": "nonpayable",
      "type": "function"
    },
    {
      "constant": false,
      "inputs": [
        {
          "internalType": "uint256",
          "name": "index",
          "type": "uint256"
        },
        {
          "internalType": "address",
          "name": "destination",
          "type": "address"
        },
        {
          "internalType": "uint256",
          "name": "amount",
          "type": "uint256"
        }
      ],
      "name": "editRewardDistribution",
      "outputs": [
        {
          "internalType": "bool",
          "name": "",
          "type": "bool"
        }
      ],
      "payable": false,
      "stateMutability": "nonpayable",
      "type": "function"
    },
    {
      "constant": false,
      "inputs": [
        {
          "internalType": "uint256",
          "name": "amount",
          "type": "uint256"
        }
      ],
      "name": "distributeRewards",
      "outputs": [
        {
          "internalType": "bool",
          "name": "",
          "type": "bool"
        }
      ],
      "payable": false,
      "stateMutability": "nonpayable",
      "type": "function"
    },
    {
      "constant": true,
      "inputs": [],
      "name": "distributionsLength",
      "outputs": [
        {
          "internalType": "uint256",
          "name": "",
          "type": "uint256"
        }
      ],
      "payable": false,
      "stateMutability": "view",
      "type": "function"
    }
  ],
  "bytecode": "0x608060405234801561001057600080fd5b5060405161252f38038061252f833981810160405260a081101561003357600080fd5b81019080805190602001909291908051906020019092919080519060200190929190805190602001909291908051906020019092919050505084600073ffffffffffffffffffffffffffffffffffffffff168173ffffffffffffffffffffffffffffffffffffffff161415610110576040517f08c379a00000000000000000000000000000000000000000000000000000000081526004018080602001828103825260198152602001807f4f776e657220616464726573732063616e6e6f7420626520300000000000000081525060200191505060405180910390fd5b806000806101000a81548173ffffffffffffffffffffffffffffffffffffffff021916908373ffffffffffffffffffffffffffffffffffffffff1602179055507fb532073b38c83145e3e5135377a08bf9aab55bc0fd7c1179cd4fb995d2a5159c600082604051808373ffffffffffffffffffffffffffffffffffffffff1673ffffffffffffffffffffffffffffffffffffffff1681526020018273ffffffffffffffffffffffffffffffffffffffff1673ffffffffffffffffffffffffffffffffffffffff1681526020019250505060405180910390a15083600260006101000a81548173ffffffffffffffffffffffffffffffffffffffff021916908373ffffffffffffffffffffffffffffffffffffffff16021790555082600360006101000a81548173ffffffffffffffffffffffffffffffffffffffff021916908373ffffffffffffffffffffffffffffffffffffffff16021790555081600460006101000a81548173ffffffffffffffffffffffffffffffffffffffff021916908373ffffffffffffffffffffffffffffffffffffffff16021790555080600560006101000a81548173ffffffffffffffffffffffffffffffffffffffff021916908373ffffffffffffffffffffffffffffffffffffffff160217905550505050505061222e806103016000396000f3fe608060405234801561001057600080fd5b50600436106101165760003560e01c8063817a6951116100a2578063bdd1248211610071578063bdd1248214610480578063bf7e214f146104ca578063c9e9cc4d14610514578063d8297e441461055e578063e54c1671146105a257610116565b8063817a69511461037a5780638da5cb5b146103a857806395896b76146103f2578063a430be6c1461043657610116565b806359974e38116100e957806359974e381461023c5780635de399341461028257806360eb3ff2146102c657806379ba50971461032c5780637a9e5e4b1461033657610116565b8063060ca2501461011b5780631627540c146101395780634487d3df1461017d57806353a47bb7146101f2575b600080fd5b610123610612565b6040518082815260200191505060405180910390f35b61017b6004803603602081101561014f57600080fd5b81019080803573ffffffffffffffffffffffffffffffffffffffff16906020019092919050505061061f565b005b6101a96004803603602081101561019357600080fd5b810190808035906020019092919050505061076b565b604051808373ffffffffffffffffffffffffffffffffffffffff1673ffffffffffffffffffffffffffffffffffffffff1681526020018281526020019250505060405180910390f35b6101fa6107bc565b604051808273ffffffffffffffffffffffffffffffffffffffff1673ffffffffffffffffffffffffffffffffffffffff16815260200191505060405180910390f35b6102686004803603602081101561025257600080fd5b81019080803590602001909291905050506107e2565b604051808215151515815260200191505060405180910390f35b6102c46004803603602081101561029857600080fd5b81019080803573ffffffffffffffffffffffffffffffffffffffff169060200190929190505050611253565b005b610312600480360360408110156102dc57600080fd5b81019080803573ffffffffffffffffffffffffffffffffffffffff1690602001909291908035906020019092919050505061133c565b604051808215151515815260200191505060405180910390f35b61033461163a565b005b6103786004803603602081101561034c57600080fd5b81019080803573ffffffffffffffffffffffffffffffffffffffff169060200190929190505050611860565b005b6103a66004803603602081101561039057600080fd5b8101908080359060200190929190505050611949565b005b6103b0611b56565b604051808273ffffffffffffffffffffffffffffffffffffffff1673ffffffffffffffffffffffffffffffffffffffff16815260200191505060405180910390f35b6104346004803603602081101561040857600080fd5b81019080803573ffffffffffffffffffffffffffffffffffffffff169060200190929190505050611b7b565b005b61043e611c64565b604051808273ffffffffffffffffffffffffffffffffffffffff1673ffffffffffffffffffffffffffffffffffffffff16815260200191505060405180910390f35b610488611c8a565b604051808273ffffffffffffffffffffffffffffffffffffffff1673ffffffffffffffffffffffffffffffffffffffff16815260200191505060405180910390f35b6104d2611cb0565b604051808273ffffffffffffffffffffffffffffffffffffffff1673ffffffffffffffffffffffffffffffffffffffff16815260200191505060405180910390f35b61051c611cd6565b604051808273ffffffffffffffffffffffffffffffffffffffff1673ffffffffffffffffffffffffffffffffffffffff16815260200191505060405180910390f35b6105a06004803603602081101561057457600080fd5b81019080803573ffffffffffffffffffffffffffffffffffffffff169060200190929190505050611cfc565b005b6105f8600480360360608110156105b857600080fd5b8101908080359060200190929190803573ffffffffffffffffffffffffffffffffffffffff16906020019092919080359060200190929190505050611de5565b604051808215151515815260200191505060405180910390f35b6000600680549050905090565b6000809054906101000a900473ffffffffffffffffffffffffffffffffffffffff1673ffffffffffffffffffffffffffffffffffffffff163373ffffffffffffffffffffffffffffffffffffffff16146106c4576040517f08c379a000000000000000000000000000000000000000000000000000000000815260040180806020018281038252602f8152602001806121cb602f913960400191505060405180910390fd5b80600160006101000a81548173ffffffffffffffffffffffffffffffffffffffff021916908373ffffffffffffffffffffffffffffffffffffffff1602179055507f906a1c6bd7e3091ea86693dd029a831c19049ce77f1dce2ce0bab1cacbabce2281604051808273ffffffffffffffffffffffffffffffffffffffff1673ffffffffffffffffffffffffffffffffffffffff16815260200191505060405180910390a150565b6006818154811061077857fe5b90600052602060002090600202016000915090508060000160009054906101000a900473ffffffffffffffffffffffffffffffffffffffff16908060010154905082565b600160009054906101000a900473ffffffffffffffffffffffffffffffffffffffff1681565b6000808211610859576040517f08c379a00000000000000000000000000000000000000000000000000000000081526004018080602001828103825260158152602001807f4e6f7468696e6720746f2064697374726962757465000000000000000000000081525060200191505060405180910390fd5b600260009054906101000a900473ffffffffffffffffffffffffffffffffffffffff1673ffffffffffffffffffffffffffffffffffffffff163373ffffffffffffffffffffffffffffffffffffffff161461091c576040517f08c379a00000000000000000000000000000000000000000000000000000000081526004018080602001828103825260188152602001807f43616c6c6572206973206e6f7420617574686f7269736564000000000000000081525060200191505060405180910390fd5b600073ffffffffffffffffffffffffffffffffffffffff16600460009054906101000a900473ffffffffffffffffffffffffffffffffffffffff1673ffffffffffffffffffffffffffffffffffffffff1614156109e1576040517f08c379a00000000000000000000000000000000000000000000000000000000081526004018080602001828103825260178152602001807f526577617264457363726f77206973206e6f742073657400000000000000000081525060200191505060405180910390fd5b600073ffffffffffffffffffffffffffffffffffffffff16600360009054906101000a900473ffffffffffffffffffffffffffffffffffffffff1673ffffffffffffffffffffffffffffffffffffffff161415610aa6576040517f08c379a00000000000000000000000000000000000000000000000000000000081526004018080602001828103825260198152602001807f53796e74686574697850726f7879206973206e6f74207365740000000000000081525060200191505060405180910390fd5b600073ffffffffffffffffffffffffffffffffffffffff16600560009054906101000a900473ffffffffffffffffffffffffffffffffffffffff1673ffffffffffffffffffffffffffffffffffffffff161415610b6b576040517f08c379a00000000000000000000000000000000000000000000000000000000081526004018080602001828103825260178152602001807f466565506f6f6c50726f7879206973206e6f742073657400000000000000000081525060200191505060405180910390fd5b81600360009054906101000a900473ffffffffffffffffffffffffffffffffffffffff1673ffffffffffffffffffffffffffffffffffffffff166370a08231306040518263ffffffff1660e01b8152600401808273ffffffffffffffffffffffffffffffffffffffff1673ffffffffffffffffffffffffffffffffffffffff16815260200191505060206040518083038186803b158015610c0b57600080fd5b505afa158015610c1f573d6000803e3d6000fd5b505050506040513d6020811015610c3557600080fd5b81019080805190602001909291905050501015610c9d576040517f08c379a00000000000000000000000000000000000000000000000000000000081526004018080602001828103825260468152602001806121856046913960600191505060405180910390fd5b600082905060008090505b60068054905081101561107d57600073ffffffffffffffffffffffffffffffffffffffff1660068281548110610cda57fe5b906000526020600020906002020160000160009054906101000a900473ffffffffffffffffffffffffffffffffffffffff1673ffffffffffffffffffffffffffffffffffffffff16141580610d4e5750600060068281548110610d3957fe5b90600052602060002090600202016001015414155b1561107057610d8460068281548110610d6357fe5b90600052602060002090600202016001015483611f9590919063ffffffff16565b9150600360009054906101000a900473ffffffffffffffffffffffffffffffffffffffff1673ffffffffffffffffffffffffffffffffffffffff1663a9059cbb60068381548110610dd157fe5b906000526020600020906002020160000160009054906101000a900473ffffffffffffffffffffffffffffffffffffffff1660068481548110610e1057fe5b9060005260206000209060020201600101546040518363ffffffff1660e01b8152600401808373ffffffffffffffffffffffffffffffffffffffff1673ffffffffffffffffffffffffffffffffffffffff16815260200182815260200192505050602060405180830381600087803b158015610e8b57600080fd5b505af1158015610e9f573d6000803e3d6000fd5b505050506040513d6020811015610eb557600080fd5b810190808051906020019092919050505050606060068281548110610ed657fe5b906000526020600020906002020160010154604051602401808281526020019150506040516020818303038152906040527f3c6b16ab000000000000000000000000000000000000000000000000000000007bffffffffffffffffffffffffffffffffffffffffffffffffffffffff19166020820180517bffffffffffffffffffffffffffffffffffffffffffffffffffffffff83818316178352505050509050600060068381548110610f8657fe5b906000526020600020906002020160000160009054906101000a900473ffffffffffffffffffffffffffffffffffffffff1673ffffffffffffffffffffffffffffffffffffffff16826040518082805190602001908083835b602083106110025780518252602082019150602081019050602083039250610fdf565b6001836020036101000a0380198251168184511680821785525050505050509050019150506000604051808303816000865af19150503d8060008114611064576040519150601f19603f3d011682016040523d82523d6000602084013e611069565b606091505b5050905050505b8080600101915050610ca8565b50600360009054906101000a900473ffffffffffffffffffffffffffffffffffffffff1673ffffffffffffffffffffffffffffffffffffffff1663a9059cbb600460009054906101000a900473ffffffffffffffffffffffffffffffffffffffff16836040518363ffffffff1660e01b8152600401808373ffffffffffffffffffffffffffffffffffffffff1673ffffffffffffffffffffffffffffffffffffffff16815260200182815260200192505050602060405180830381600087803b15801561114957600080fd5b505af115801561115d573d6000803e3d6000fd5b505050506040513d602081101561117357600080fd5b810190808051906020019092919050505050600560009054906101000a900473ffffffffffffffffffffffffffffffffffffffff1673ffffffffffffffffffffffffffffffffffffffff1663fd1f498d826040518263ffffffff1660e01b815260040180828152602001915050600060405180830381600087803b1580156111fa57600080fd5b505af115801561120e573d6000803e3d6000fd5b505050507f6d1c76d614228b523baa4dcd9539e2c713b54ff4ab3ff2d1627e7f6cd32be442836040518082815260200191505060405180910390a16001915050919050565b6000809054906101000a900473ffffffffffffffffffffffffffffffffffffffff1673ffffffffffffffffffffffffffffffffffffffff163373ffffffffffffffffffffffffffffffffffffffff16146112f8576040517f08c379a000000000000000000000000000000000000000000000000000000000815260040180806020018281038252602f8152602001806121cb602f913960400191505060405180910390fd5b80600460006101000a81548173ffffffffffffffffffffffffffffffffffffffff021916908373ffffffffffffffffffffffffffffffffffffffff16021790555050565b60008060009054906101000a900473ffffffffffffffffffffffffffffffffffffffff1673ffffffffffffffffffffffffffffffffffffffff163373ffffffffffffffffffffffffffffffffffffffff16146113e3576040517f08c379a000000000000000000000000000000000000000000000000000000000815260040180806020018281038252602f8152602001806121cb602f913960400191505060405180910390fd5b600073ffffffffffffffffffffffffffffffffffffffff168373ffffffffffffffffffffffffffffffffffffffff161415611486576040517f08c379a00000000000000000000000000000000000000000000000000000000081526004018080602001828103825260178152602001807f43616e74206164642061207a65726f206164647265737300000000000000000081525060200191505060405180910390fd5b60008214156114fd576040517f08c379a00000000000000000000000000000000000000000000000000000000081526004018080602001828103825260168152602001807f43616e74206164642061207a65726f20616d6f756e740000000000000000000081525060200191505060405180910390fd5b61150561209f565b60405180604001604052808573ffffffffffffffffffffffffffffffffffffffff1681526020018481525090506006819080600181540180825580915050906001820390600052602060002090600202016000909192909190915060008201518160000160006101000a81548173ffffffffffffffffffffffffffffffffffffffff021916908373ffffffffffffffffffffffffffffffffffffffff160217905550602082015181600101555050507f08fff3cb767a84a8039ea0f84053799c5cdca0e8efb031eeb6b05b9c174aa2086001600680549050038585604051808481526020018373ffffffffffffffffffffffffffffffffffffffff1673ffffffffffffffffffffffffffffffffffffffff168152602001828152602001935050505060405180910390a1600191505092915050565b600160009054906101000a900473ffffffffffffffffffffffffffffffffffffffff1673ffffffffffffffffffffffffffffffffffffffff163373ffffffffffffffffffffffffffffffffffffffff16146116e0576040517f08c379a00000000000000000000000000000000000000000000000000000000081526004018080602001828103825260358152602001806121506035913960400191505060405180910390fd5b7fb532073b38c83145e3e5135377a08bf9aab55bc0fd7c1179cd4fb995d2a5159c6000809054906101000a900473ffffffffffffffffffffffffffffffffffffffff16600160009054906101000a900473ffffffffffffffffffffffffffffffffffffffff16604051808373ffffffffffffffffffffffffffffffffffffffff1673ffffffffffffffffffffffffffffffffffffffff1681526020018273ffffffffffffffffffffffffffffffffffffffff1673ffffffffffffffffffffffffffffffffffffffff1681526020019250505060405180910390a1600160009054906101000a900473ffffffffffffffffffffffffffffffffffffffff166000806101000a81548173ffffffffffffffffffffffffffffffffffffffff021916908373ffffffffffffffffffffffffffffffffffffffff1602179055506000600160006101000a81548173ffffffffffffffffffffffffffffffffffffffff021916908373ffffffffffffffffffffffffffffffffffffffff160217905550565b6000809054906101000a900473ffffffffffffffffffffffffffffffffffffffff1673ffffffffffffffffffffffffffffffffffffffff163373ffffffffffffffffffffffffffffffffffffffff1614611905576040517f08c379a000000000000000000000000000000000000000000000000000000000815260040180806020018281038252602f8152602001806121cb602f913960400191505060405180910390fd5b80600260006101000a81548173ffffffffffffffffffffffffffffffffffffffff021916908373ffffffffffffffffffffffffffffffffffffffff16021790555050565b6000809054906101000a900473ffffffffffffffffffffffffffffffffffffffff1673ffffffffffffffffffffffffffffffffffffffff163373ffffffffffffffffffffffffffffffffffffffff16146119ee576040517f08c379a000000000000000000000000000000000000000000000000000000000815260040180806020018281038252602f8152602001806121cb602f913960400191505060405180910390fd5b600160068054905003811115611a6c576040517f08c379a00000000000000000000000000000000000000000000000000000000081526004018080602001828103825260138152602001807f696e646578206f7574206f6620626f756e64730000000000000000000000000081525060200191505060405180910390fd5b60008190505b600160068054905003811015611b3c5760066001820181548110611a9257fe5b906000526020600020906002020160068281548110611aad57fe5b90600052602060002090600202016000820160009054906101000a900473ffffffffffffffffffffffffffffffffffffffff168160000160006101000a81548173ffffffffffffffffffffffffffffffffffffffff021916908373ffffffffffffffffffffffffffffffffffffffff160217905550600182015481600101559050508080600101915050611a72565b506006805480919060019003611b5291906120cf565b5050565b6000809054906101000a900473ffffffffffffffffffffffffffffffffffffffff1681565b6000809054906101000a900473ffffffffffffffffffffffffffffffffffffffff1673ffffffffffffffffffffffffffffffffffffffff163373ffffffffffffffffffffffffffffffffffffffff1614611c20576040517f08c379a000000000000000000000000000000000000000000000000000000000815260040180806020018281038252602f8152602001806121cb602f913960400191505060405180910390fd5b80600360006101000a81548173ffffffffffffffffffffffffffffffffffffffff021916908373ffffffffffffffffffffffffffffffffffffffff16021790555050565b600460009054906101000a900473ffffffffffffffffffffffffffffffffffffffff1681565b600360009054906101000a900473ffffffffffffffffffffffffffffffffffffffff1681565b600260009054906101000a900473ffffffffffffffffffffffffffffffffffffffff1681565b600560009054906101000a900473ffffffffffffffffffffffffffffffffffffffff1681565b6000809054906101000a900473ffffffffffffffffffffffffffffffffffffffff1673ffffffffffffffffffffffffffffffffffffffff163373ffffffffffffffffffffffffffffffffffffffff1614611da1576040517f08c379a000000000000000000000000000000000000000000000000000000000815260040180806020018281038252602f8152602001806121cb602f913960400191505060405180910390fd5b80600560006101000a81548173ffffffffffffffffffffffffffffffffffffffff021916908373ffffffffffffffffffffffffffffffffffffffff16021790555050565b60008060009054906101000a900473ffffffffffffffffffffffffffffffffffffffff1673ffffffffffffffffffffffffffffffffffffffff163373ffffffffffffffffffffffffffffffffffffffff1614611e8c576040517f08c379a000000000000000000000000000000000000000000000000000000000815260040180806020018281038252602f8152602001806121cb602f913960400191505060405180910390fd5b600160068054905003841115611f0a576040517f08c379a00000000000000000000000000000000000000000000000000000000081526004018080602001828103825260138152602001807f696e646578206f7574206f6620626f756e64730000000000000000000000000081525060200191505060405180910390fd5b8260068581548110611f1857fe5b906000526020600020906002020160000160006101000a81548173ffffffffffffffffffffffffffffffffffffffff021916908373ffffffffffffffffffffffffffffffffffffffff1602179055508160068581548110611f7557fe5b906000526020600020906002020160010181905550600190509392505050565b6000611fd783836040518060400160405280601e81526020017f536166654d6174683a207375627472616374696f6e206f766572666c6f770000815250611fdf565b905092915050565b600083831115829061208c576040517f08c379a00000000000000000000000000000000000000000000000000000000081526004018080602001828103825283818151815260200191508051906020019080838360005b83811015612051578082015181840152602081019050612036565b50505050905090810190601f16801561207e5780820380516001836020036101000a031916815260200191505b509250505060405180910390fd5b5060008385039050809150509392505050565b6040518060400160405280600073ffffffffffffffffffffffffffffffffffffffff168152602001600081525090565b8154818355818111156120fc576002028160020283600052602060002091820191016120fb9190612101565b5b505050565b61214c91905b8082111561214857600080820160006101000a81549073ffffffffffffffffffffffffffffffffffffffff0219169055600182016000905550600201612107565b5090565b9056fe596f75206d757374206265206e6f6d696e61746564206265666f726520796f752063616e20616363657074206f776e65727368697052657761726473446973747269627574696f6e20636f6e747261637420646f6573206e6f74206861766520656e6f75676820746f6b656e7320746f20646973747269627574654f6e6c792074686520636f6e7472616374206f776e6572206d617920706572666f726d207468697320616374696f6ea265627a7a72315820a40c993661847d88b650f9c1a8e1f76d01554ed35660ade74dee0a438071a32a64736f6c63430005100032",
  "source": "pragma solidity ^0.5.16;\n\n// Inheritance\nimport \"./Owned.sol\";\nimport \"./interfaces/IRewardsDistribution.sol\";\n\n// Libraires\nimport \"./SafeDecimalMath.sol\";\n\n// Internal references\nimport \"./interfaces/IERC20.sol\";\nimport \"./interfaces/IFeePool.sol\";\n\n\n// https://docs.synthetix.io/contracts/RewardsDistribution\ncontract RewardsDistribution is Owned, IRewardsDistribution {\n    using SafeMath for uint;\n    using SafeDecimalMath for uint;\n\n    /**\n     * @notice Authorised address able to call distributeRewards\n     */\n    address public authority;\n\n    /**\n     * @notice Address of the Synthetix ProxyERC20\n     */\n    address public synthetixProxy;\n\n    /**\n     * @notice Address of the RewardEscrow contract\n     */\n    address public rewardEscrow;\n\n    /**\n     * @notice Address of the FeePoolProxy\n     */\n    address public feePoolProxy;\n\n    /**\n     * @notice Stores an address and amount\n     * of the inflationary supply to sent to the address.\n     */\n    struct DistributionData {\n        address destination;\n        uint amount;\n    }\n\n    /**\n     * @notice An array of addresses and amounts to send\n     */\n    DistributionData[] public distributions;\n\n    /**\n     * @dev _authority maybe the underlying synthetix contract.\n     * Remember to set the autority on a synthetix upgrade\n     */\n    constructor(\n        address _owner,\n        address _authority,\n        address _synthetixProxy,\n        address _rewardEscrow,\n        address _feePoolProxy\n    ) public Owned(_owner) {\n        authority = _authority;\n        synthetixProxy = _synthetixProxy;\n        rewardEscrow = _rewardEscrow;\n        feePoolProxy = _feePoolProxy;\n    }\n\n    // ========== EXTERNAL SETTERS ==========\n\n    function setSynthetixProxy(address _synthetixProxy) external onlyOwner {\n        synthetixProxy = _synthetixProxy;\n    }\n\n    function setRewardEscrow(address _rewardEscrow) external onlyOwner {\n        rewardEscrow = _rewardEscrow;\n    }\n\n    function setFeePoolProxy(address _feePoolProxy) external onlyOwner {\n        feePoolProxy = _feePoolProxy;\n    }\n\n    /**\n     * @notice Set the address of the contract authorised to call distributeRewards()\n     * @param _authority Address of the authorised calling contract.\n     */\n    function setAuthority(address _authority) external onlyOwner {\n        authority = _authority;\n    }\n\n    // ========== EXTERNAL FUNCTIONS ==========\n\n    /**\n     * @notice Adds a Rewards DistributionData struct to the distributions\n     * array. Any entries here will be iterated and rewards distributed to\n     * each address when tokens are sent to this contract and distributeRewards()\n     * is called by the autority.\n     * @param destination An address to send rewards tokens too\n     * @param amount The amount of rewards tokens to send\n     */\n    function addRewardDistribution(address destination, uint amount) external onlyOwner returns (bool) {\n        require(destination != address(0), \"Cant add a zero address\");\n        require(amount != 0, \"Cant add a zero amount\");\n\n        DistributionData memory rewardsDistribution = DistributionData(destination, amount);\n        distributions.push(rewardsDistribution);\n\n        emit RewardDistributionAdded(distributions.length - 1, destination, amount);\n        return true;\n    }\n\n    /**\n     * @notice Deletes a RewardDistribution from the distributions\n     * so it will no longer be included in the call to distributeRewards()\n     * @param index The index of the DistributionData to delete\n     */\n    function removeRewardDistribution(uint index) external onlyOwner {\n        require(index <= distributions.length - 1, \"index out of bounds\");\n\n        // shift distributions indexes across\n        for (uint i = index; i < distributions.length - 1; i++) {\n            distributions[i] = distributions[i + 1];\n        }\n        distributions.length--;\n\n        // Since this function must shift all later entries down to fill the\n        // gap from the one it removed, it could in principle consume an\n        // unbounded amount of gas. However, the number of entries will\n        // presumably always be very low.\n    }\n\n    /**\n     * @notice Edits a RewardDistribution in the distributions array.\n     * @param index The index of the DistributionData to edit\n     * @param destination The destination address. Send the same address to keep or different address to change it.\n     * @param amount The amount of tokens to edit. Send the same number to keep or change the amount of tokens to send.\n     */\n    function editRewardDistribution(\n        uint index,\n        address destination,\n        uint amount\n    ) external onlyOwner returns (bool) {\n        require(index <= distributions.length - 1, \"index out of bounds\");\n\n        distributions[index].destination = destination;\n        distributions[index].amount = amount;\n\n        return true;\n    }\n\n    function distributeRewards(uint amount) external returns (bool) {\n        require(amount > 0, \"Nothing to distribute\");\n        require(msg.sender == authority, \"Caller is not authorised\");\n        require(rewardEscrow != address(0), \"RewardEscrow is not set\");\n        require(synthetixProxy != address(0), \"SynthetixProxy is not set\");\n        require(feePoolProxy != address(0), \"FeePoolProxy is not set\");\n        require(\n            IERC20(synthetixProxy).balanceOf(address(this)) >= amount,\n            \"RewardsDistribution contract does not have enough tokens to distribute\"\n        );\n\n        uint remainder = amount;\n\n        // Iterate the array of distributions sending the configured amounts\n        for (uint i = 0; i < distributions.length; i++) {\n            if (distributions[i].destination != address(0) || distributions[i].amount != 0) {\n                remainder = remainder.sub(distributions[i].amount);\n\n                // Transfer the SNX\n                IERC20(synthetixProxy).transfer(distributions[i].destination, distributions[i].amount);\n\n                // If the contract implements RewardsDistributionRecipient.sol, inform it how many SNX its received.\n                bytes memory payload = abi.encodeWithSignature(\"notifyRewardAmount(uint256)\", distributions[i].amount);\n\n                // solhint-disable avoid-low-level-calls\n                (bool success, ) = distributions[i].destination.call(payload);\n\n                if (!success) {\n                    // Note: we're ignoring the return value as it will fail for contracts that do not implement RewardsDistributionRecipient.sol\n                }\n            }\n        }\n\n        // After all ditributions have been sent, send the remainder to the RewardsEscrow contract\n        IERC20(synthetixProxy).transfer(rewardEscrow, remainder);\n\n        // Tell the FeePool how much it has to distribute to the stakers\n        IFeePool(feePoolProxy).setRewardsToDistribute(remainder);\n\n        emit RewardsDistributed(amount);\n        return true;\n    }\n\n    /* ========== VIEWS ========== */\n\n    /**\n     * @notice Retrieve the length of the distributions array\n     */\n    function distributionsLength() external view returns (uint) {\n        return distributions.length;\n    }\n\n    /* ========== Events ========== */\n\n    event RewardDistributionAdded(uint index, address destination, uint amount);\n    event RewardsDistributed(uint amount);\n}\n",
  "sourcePath": "/Users/qizhang/Development/truffle_test2/contracts/RewardsDistribution.sol",
  "compiler": {
    "name": "solc",
    "version": "0.5.16+commit.9c3226ce.Emscripten.clang"
  },
  "schemaVersion": "3.2.1",
  "updatedAt": "2020-07-05T03:58:13.048Z",
  "devdoc": {
    "methods": {
      "addRewardDistribution(address,uint256)": {
        "params": {
          "amount": "The amount of rewards tokens to send",
          "destination": "An address to send rewards tokens too"
        }
      },
      "constructor": {
        "details": "_authority maybe the underlying synthetix contract. Remember to set the autority on a synthetix upgrade"
      },
      "editRewardDistribution(uint256,address,uint256)": {
        "params": {
          "amount": "The amount of tokens to edit. Send the same number to keep or change the amount of tokens to send.",
          "destination": "The destination address. Send the same address to keep or different address to change it.",
          "index": "The index of the DistributionData to edit"
        }
      },
      "removeRewardDistribution(uint256)": {
        "params": {
          "index": "The index of the DistributionData to delete"
        }
      },
      "setAuthority(address)": {
        "params": {
          "_authority": "Address of the authorised calling contract."
        }
      }
    }
  },
  "userdoc": {
    "methods": {
      "addRewardDistribution(address,uint256)": {
        "notice": "Adds a Rewards DistributionData struct to the distributions array. Any entries here will be iterated and rewards distributed to each address when tokens are sent to this contract and distributeRewards() is called by the autority."
      },
      "distributionsLength()": {
        "notice": "Retrieve the length of the distributions array"
      },
      "editRewardDistribution(uint256,address,uint256)": {
        "notice": "Edits a RewardDistribution in the distributions array."
      },
      "removeRewardDistribution(uint256)": {
        "notice": "Deletes a RewardDistribution from the distributions so it will no longer be included in the call to distributeRewards()"
      },
      "setAuthority(address)": {
        "notice": "Set the address of the contract authorised to call distributeRewards()"
      }
    }
  }
}