{
  "contractName": "SupplySchedule",
  "abi": [
    {
      "inputs": [
        {
          "internalType": "address",
          "name": "_owner",
          "type": "address"
        },
        {
          "internalType": "uint256",
          "name": "_lastMintEvent",
          "type": "uint256"
        },
        {
          "internalType": "uint256",
          "name": "_currentWeek",
          "type": "uint256"
        }
      ],
      "payable": false,
      "stateMutability": "nonpayable",
      "type": "constructor"
    },
    {
      "anonymous": false,
      "inputs": [
        {
          "indexed": false,
          "internalType": "uint256",
          "name": "newRewardAmount",
          "type": "uint256"
        }
      ],
      "name": "MinterRewardUpdated",
      "type": "event"
    },
    {
      "anonymous": false,
      "inputs": [
        {
          "indexed": false,
          "internalType": "address",
          "name": "oldOwner",
          "type": "address"
        },
        {
          "indexed": false,
          "internalType": "address",
          "name": "newOwner",
          "type": "address"
        }
      ],
      "name": "OwnerChanged",
      "type": "event"
    },
    {
      "anonymous": false,
      "inputs": [
        {
          "indexed": false,
          "internalType": "address",
          "name": "newOwner",
          "type": "address"
        }
      ],
      "name": "OwnerNominated",
      "type": "event"
    },
    {
      "anonymous": false,
      "inputs": [
        {
          "indexed": false,
          "internalType": "uint256",
          "name": "supplyMinted",
          "type": "uint256"
        },
        {
          "indexed": false,
          "internalType": "uint256",
          "name": "numberOfWeeksIssued",
          "type": "uint256"
        },
        {
          "indexed": false,
          "internalType": "uint256",
          "name": "lastMintEvent",
          "type": "uint256"
        },
        {
          "indexed": false,
          "internalType": "uint256",
          "name": "timestamp",
          "type": "uint256"
        }
      ],
      "name": "SupplyMinted",
      "type": "event"
    },
    {
      "anonymous": false,
      "inputs": [
        {
          "indexed": false,
          "internalType": "address",
          "name": "newAddress",
          "type": "address"
        }
      ],
      "name": "SynthetixProxyUpdated",
      "type": "event"
    },
    {
      "constant": true,
      "inputs": [],
      "name": "DECAY_RATE",
      "outputs": [
        {
          "internalType": "uint256",
          "name": "",
          "type": "uint256"
        }
      ],
      "payable": false,
      "stateMutability": "view",
      "type": "function"
    },
    {
      "constant": true,
      "inputs": [],
      "name": "INFLATION_START_DATE",
      "outputs": [
        {
          "internalType": "uint256",
          "name": "",
          "type": "uint256"
        }
      ],
      "payable": false,
      "stateMutability": "view",
      "type": "function"
    },
    {
      "constant": true,
      "inputs": [],
      "name": "INITIAL_WEEKLY_SUPPLY",
      "outputs": [
        {
          "internalType": "uint256",
          "name": "",
          "type": "uint256"
        }
      ],
      "payable": false,
      "stateMutability": "view",
      "type": "function"
    },
    {
      "constant": true,
      "inputs": [],
      "name": "MAX_MINTER_REWARD",
      "outputs": [
        {
          "internalType": "uint256",
          "name": "",
          "type": "uint256"
        }
      ],
      "payable": false,
      "stateMutability": "view",
      "type": "function"
    },
    {
      "constant": true,
      "inputs": [],
      "name": "MINT_BUFFER",
      "outputs": [
        {
          "internalType": "uint256",
          "name": "",
          "type": "uint256"
        }
      ],
      "payable": false,
      "stateMutability": "view",
      "type": "function"
    },
    {
      "constant": true,
      "inputs": [],
      "name": "MINT_PERIOD_DURATION",
      "outputs": [
        {
          "internalType": "uint256",
          "name": "",
          "type": "uint256"
        }
      ],
      "payable": false,
      "stateMutability": "view",
      "type": "function"
    },
    {
      "constant": true,
      "inputs": [],
      "name": "SUPPLY_DECAY_END",
      "outputs": [
        {
          "internalType": "uint8",
          "name": "",
          "type": "uint8"
        }
      ],
      "payable": false,
      "stateMutability": "view",
      "type": "function"
    },
    {
      "constant": true,
      "inputs": [],
      "name": "SUPPLY_DECAY_START",
      "outputs": [
        {
          "internalType": "uint8",
          "name": "",
          "type": "uint8"
        }
      ],
      "payable": false,
      "stateMutability": "view",
      "type": "function"
    },
    {
      "constant": true,
      "inputs": [],
      "name": "TERMINAL_SUPPLY_RATE_ANNUAL",
      "outputs": [
        {
          "internalType": "uint256",
          "name": "",
          "type": "uint256"
        }
      ],
      "payable": false,
      "stateMutability": "view",
      "type": "function"
    },
    {
      "constant": false,
      "inputs": [],
      "name": "acceptOwnership",
      "outputs": [],
      "payable": false,
      "stateMutability": "nonpayable",
      "type": "function"
    },
    {
      "constant": true,
      "inputs": [],
      "name": "lastMintEvent",
      "outputs": [
        {
          "internalType": "uint256",
          "name": "",
          "type": "uint256"
        }
      ],
      "payable": false,
      "stateMutability": "view",
      "type": "function"
    },
    {
      "constant": true,
      "inputs": [],
      "name": "minterReward",
      "outputs": [
        {
          "internalType": "uint256",
          "name": "",
          "type": "uint256"
        }
      ],
      "payable": false,
      "stateMutability": "view",
      "type": "function"
    },
    {
      "constant": false,
      "inputs": [
        {
          "internalType": "address",
          "name": "_owner",
          "type": "address"
        }
      ],
      "name": "nominateNewOwner",
      "outputs": [],
      "payable": false,
      "stateMutability": "nonpayable",
      "type": "function"
    },
    {
      "constant": true,
      "inputs": [],
      "name": "nominatedOwner",
      "outputs": [
        {
          "internalType": "address",
          "name": "",
          "type": "address"
        }
      ],
      "payable": false,
      "stateMutability": "view",
      "type": "function"
    },
    {
      "constant": true,
      "inputs": [],
      "name": "owner",
      "outputs": [
        {
          "internalType": "address",
          "name": "",
          "type": "address"
        }
      ],
      "payable": false,
      "stateMutability": "view",
      "type": "function"
    },
    {
      "constant": true,
      "inputs": [],
      "name": "synthetixProxy",
      "outputs": [
        {
          "internalType": "address payable",
          "name": "",
          "type": "address"
        }
      ],
      "payable": false,
      "stateMutability": "view",
      "type": "function"
    },
    {
      "constant": true,
      "inputs": [],
      "name": "weekCounter",
      "outputs": [
        {
          "internalType": "uint256",
          "name": "",
          "type": "uint256"
        }
      ],
      "payable": false,
      "stateMutability": "view",
      "type": "function"
    },
    {
      "constant": true,
      "inputs": [],
      "name": "mintableSupply",
      "outputs": [
        {
          "internalType": "uint256",
          "name": "",
          "type": "uint256"
        }
      ],
      "payable": false,
      "stateMutability": "view",
      "type": "function"
    },
    {
      "constant": true,
      "inputs": [
        {
          "internalType": "uint256",
          "name": "counter",
          "type": "uint256"
        }
      ],
      "name": "tokenDecaySupplyForWeek",
      "outputs": [
        {
          "internalType": "uint256",
          "name": "",
          "type": "uint256"
        }
      ],
      "payable": false,
      "stateMutability": "pure",
      "type": "function"
    },
    {
      "constant": true,
      "inputs": [
        {
          "internalType": "uint256",
          "name": "totalSupply",
          "type": "uint256"
        },
        {
          "internalType": "uint256",
          "name": "numOfWeeks",
          "type": "uint256"
        }
      ],
      "name": "terminalInflationSupply",
      "outputs": [
        {
          "internalType": "uint256",
          "name": "",
          "type": "uint256"
        }
      ],
      "payable": false,
      "stateMutability": "pure",
      "type": "function"
    },
    {
      "constant": true,
      "inputs": [],
      "name": "weeksSinceLastIssuance",
      "outputs": [
        {
          "internalType": "uint256",
          "name": "",
          "type": "uint256"
        }
      ],
      "payable": false,
      "stateMutability": "view",
      "type": "function"
    },
    {
      "constant": true,
      "inputs": [],
      "name": "isMintable",
      "outputs": [
        {
          "internalType": "bool",
          "name": "",
          "type": "bool"
        }
      ],
      "payable": false,
      "stateMutability": "view",
      "type": "function"
    },
    {
      "constant": false,
      "inputs": [
        {
          "internalType": "uint256",
          "name": "supplyMinted",
          "type": "uint256"
        }
      ],
      "name": "recordMintEvent",
      "outputs": [
        {
          "internalType": "bool",
          "name": "",
          "type": "bool"
        }
      ],
      "payable": false,
      "stateMutability": "nonpayable",
      "type": "function"
    },
    {
      "constant": false,
      "inputs": [
        {
          "internalType": "uint256",
          "name": "amount",
          "type": "uint256"
        }
      ],
      "name": "setMinterReward",
      "outputs": [],
      "payable": false,
      "stateMutability": "nonpayable",
      "type": "function"
    },
    {
      "constant": false,
      "inputs": [
        {
          "internalType": "contract ISynthetix",
          "name": "_synthetixProxy",
          "type": "address"
        }
      ],
      "name": "setSynthetixProxy",
      "outputs": [],
      "payable": false,
      "stateMutability": "nonpayable",
      "type": "function"
    }
  ],
  "bytecode": "0x608060405273__SafeDecimalMath_______________________63907af6c06040518163ffffffff1660e01b815260040160206040518083038186803b15801561004857600080fd5b505af415801561005c573d6000803e3d6000fd5b505050506040513d602081101561007257600080fd5b810190808051906020019092919050505060c80260045534801561009557600080fd5b50604051611ba1380380611ba1833981810160405260608110156100b857600080fd5b8101908080519060200190929190805190602001909291908051906020019092919050505082600073ffffffffffffffffffffffffffffffffffffffff168173ffffffffffffffffffffffffffffffffffffffff161415610181576040517f08c379a00000000000000000000000000000000000000000000000000000000081526004018080602001828103825260198152602001807f4f776e657220616464726573732063616e6e6f7420626520300000000000000081525060200191505060405180910390fd5b806000806101000a81548173ffffffffffffffffffffffffffffffffffffffff021916908373ffffffffffffffffffffffffffffffffffffffff1602179055507fb532073b38c83145e3e5135377a08bf9aab55bc0fd7c1179cd4fb995d2a5159c600082604051808373ffffffffffffffffffffffffffffffffffffffff1673ffffffffffffffffffffffffffffffffffffffff1681526020018273ffffffffffffffffffffffffffffffffffffffff1673ffffffffffffffffffffffffffffffffffffffff1681526020019250505060405180910390a15081600281905550806003819055505050506119278061027a6000396000f3fe608060405234801561001057600080fd5b50600436106101735760003560e01c80637e1b823f116100de578063badef30a11610097578063cc5c095c11610071578063cc5c095c14610544578063d3bd4bde14610562578063dbd3a6a714610580578063df5a9fc11461059e57610173565b8063badef30a146104be578063bdd12482146104dc578063be801f011461052657610173565b80637e1b823f146103625780637e7961d7146103805780638da5cb5b146103c657806395896b76146104105780639bdd7ac714610454578063b3b2bcc01461047257610173565b806346b45af71161013057806346b45af7146102585780634ae265211461027a5780634e070f50146102a857806353a47bb7146102ea57806379ba5097146103345780637c0605571461033e57610173565b80631627540c146101785780631de40e49146101bc57806322af2bab146101da578063251330f1146101f8578063255420641461021c57806346872a231461023a575b600080fd5b6101ba6004803603602081101561018e57600080fd5b81019080803573ffffffffffffffffffffffffffffffffffffffff1690602001909291905050506105bc565b005b6101c4610708565b6040518082815260200191505060405180910390f35b6101e2610713565b6040518082815260200191505060405180910390f35b610200610720565b604051808260ff1660ff16815260200191505060405180910390f35b610224610725565b6040518082815260200191505060405180910390f35b610242610730565b6040518082815260200191505060405180910390f35b610260610737565b604051808215151515815260200191505060405180910390f35b6102a66004803603602081101561029057600080fd5b8101908080359060200190929190505050610759565b005b6102d4600480360360208110156102be57600080fd5b81019080803590602001909291905050506108a3565b6040518082815260200191505060405180910390f35b6102f261097e565b604051808273ffffffffffffffffffffffffffffffffffffffff1673ffffffffffffffffffffffffffffffffffffffff16815260200191505060405180910390f35b61033c6109a4565b005b610346610bca565b604051808260ff1660ff16815260200191505060405180910390f35b61036a610bcf565b6040518082815260200191505060405180910390f35b6103ac6004803603602081101561039657600080fd5b8101908080359060200190929190505050610bd7565b604051808215151515815260200191505060405180910390f35b6103ce610dca565b604051808273ffffffffffffffffffffffffffffffffffffffff1673ffffffffffffffffffffffffffffffffffffffff16815260200191505060405180910390f35b6104526004803603602081101561042657600080fd5b81019080803573ffffffffffffffffffffffffffffffffffffffff169060200190929190505050610def565b005b61045c611000565b6040518082815260200191505060405180910390f35b6104a86004803603604081101561048857600080fd5b810190808035906020019092919080359060200190929190505050611006565b6040518082815260200191505060405180910390f35b6104c6611174565b6040518082815260200191505060405180910390f35b6104e4611183565b604051808273ffffffffffffffffffffffffffffffffffffffff1673ffffffffffffffffffffffffffffffffffffffff16815260200191505060405180910390f35b61052e6111a9565b6040518082815260200191505060405180910390f35b61054c6111af565b6040518082815260200191505060405180910390f35b61056a61136e565b6040518082815260200191505060405180910390f35b610588611374565b6040518082815260200191505060405180910390f35b6105a66113d1565b6040518082815260200191505060405180910390f35b6000809054906101000a900473ffffffffffffffffffffffffffffffffffffffff1673ffffffffffffffffffffffffffffffffffffffff163373ffffffffffffffffffffffffffffffffffffffff1614610661576040517f08c379a000000000000000000000000000000000000000000000000000000000815260040180806020018281038252602f81526020018061184a602f913960400191505060405180910390fd5b80600160006101000a81548173ffffffffffffffffffffffffffffffffffffffff021916908373ffffffffffffffffffffffffffffffffffffffff1602179055507f906a1c6bd7e3091ea86693dd029a831c19049ce77f1dce2ce0bab1cacbabce2281604051808273ffffffffffffffffffffffffffffffffffffffff1673ffffffffffffffffffffffffffffffffffffffff16815260200191505060405180910390a150565b662c68af0bb1400081565b680ad78ebc5ac620000081565b602881565b6658d15e1762800081565b6201518081565b600062093a80600254420311156107515760019050610756565b600090505b90565b6000809054906101000a900473ffffffffffffffffffffffffffffffffffffffff1673ffffffffffffffffffffffffffffffffffffffff163373ffffffffffffffffffffffffffffffffffffffff16146107fe576040517f08c379a000000000000000000000000000000000000000000000000000000000815260040180806020018281038252602f81526020018061184a602f913960400191505060405180910390fd5b680ad78ebc5ac6200000811115610860576040517f08c379a00000000000000000000000000000000000000000000000000000000081526004018080602001828103825260268152602001806118cd6026913960400191505060405180910390fd5b806004819055507f036e0c635f8b7d9314bb6f2a577046108ef0f8b5e3869fbd29fd5a448ed99d306004546040518082815260200191505060405180910390a150565b60008061095083610942662c68af0bb1400073__SafeDecimalMath_______________________63907af6c06040518163ffffffff1660e01b815260040160206040518083038186803b1580156108f957600080fd5b505af415801561090d573d6000803e3d6000fd5b505050506040513d602081101561092357600080fd5b81019080805190602001909291905050506113d890919063ffffffff16565b61142290919063ffffffff16565b90506000610972826a01316ba81b802f59713b1361150990919063ffffffff16565b90508092505050919050565b600160009054906101000a900473ffffffffffffffffffffffffffffffffffffffff1681565b600160009054906101000a900473ffffffffffffffffffffffffffffffffffffffff1673ffffffffffffffffffffffffffffffffffffffff163373ffffffffffffffffffffffffffffffffffffffff1614610a4a576040517f08c379a00000000000000000000000000000000000000000000000000000000081526004018080602001828103825260358152602001806118156035913960400191505060405180910390fd5b7fb532073b38c83145e3e5135377a08bf9aab55bc0fd7c1179cd4fb995d2a5159c6000809054906101000a900473ffffffffffffffffffffffffffffffffffffffff16600160009054906101000a900473ffffffffffffffffffffffffffffffffffffffff16604051808373ffffffffffffffffffffffffffffffffffffffff1673ffffffffffffffffffffffffffffffffffffffff1681526020018273ffffffffffffffffffffffffffffffffffffffff1673ffffffffffffffffffffffffffffffffffffffff1681526020019250505060405180910390a1600160009054906101000a900473ffffffffffffffffffffffffffffffffffffffff166000806101000a81548173ffffffffffffffffffffffffffffffffffffffff021916908373ffffffffffffffffffffffffffffffffffffffff1602179055506000600160006101000a81548173ffffffffffffffffffffffffffffffffffffffff021916908373ffffffffffffffffffffffffffffffffffffffff160217905550565b60ea81565b635c7f0d8081565b6000600560009054906101000a900473ffffffffffffffffffffffffffffffffffffffff1673ffffffffffffffffffffffffffffffffffffffff1663d4b839926040518163ffffffff1660e01b815260040160206040518083038186803b158015610c4157600080fd5b505afa158015610c55573d6000803e3d6000fd5b505050506040513d6020811015610c6b57600080fd5b810190808051906020019092919050505073ffffffffffffffffffffffffffffffffffffffff163373ffffffffffffffffffffffffffffffffffffffff1614610cff576040517f08c379a000000000000000000000000000000000000000000000000000000000815260040180806020018281038252603381526020018061189a6033913960400191505060405180910390fd5b6000610d09611374565b9050610d208160035461153690919063ffffffff16565b600381905550610d6962015180610d5b610d4862093a806003546115be90919063ffffffff16565b635c7f0d8061153690919063ffffffff16565b61153690919063ffffffff16565b6002819055507f601e517d4811033fed8290c79b7823ce1ab70258da45400fe2391a3c7432edab8382600254426040518085815260200184815260200183815260200182815260200194505050505060405180910390a16001915050919050565b6000809054906101000a900473ffffffffffffffffffffffffffffffffffffffff1681565b6000809054906101000a900473ffffffffffffffffffffffffffffffffffffffff1673ffffffffffffffffffffffffffffffffffffffff163373ffffffffffffffffffffffffffffffffffffffff1614610e94576040517f08c379a000000000000000000000000000000000000000000000000000000000815260040180806020018281038252602f81526020018061184a602f913960400191505060405180910390fd5b600073ffffffffffffffffffffffffffffffffffffffff168173ffffffffffffffffffffffffffffffffffffffff161415610f37576040517f08c379a00000000000000000000000000000000000000000000000000000000081526004018080602001828103825260138152602001807f416464726573732063616e6e6f7420626520300000000000000000000000000081525060200191505060405180910390fd5b80600560006101000a81548173ffffffffffffffffffffffffffffffffffffffff021916908373ffffffffffffffffffffffffffffffffffffffff1602179055507ff8df0556b7fde3c4b8394eae329aedfa59c6ffd8b532d572a1efcfa3424ca5fc600560009054906101000a900473ffffffffffffffffffffffffffffffffffffffff16604051808273ffffffffffffffffffffffffffffffffffffffff1673ffffffffffffffffffffffffffffffffffffffff16815260200191505060405180910390a150565b60045481565b6000806110c6836110b861102b60346658d15e1762800061164490919063ffffffff16565b73__SafeDecimalMath_______________________63907af6c06040518163ffffffff1660e01b815260040160206040518083038186803b15801561106f57600080fd5b505af4158015611083573d6000803e3d6000fd5b505050506040513d602081101561109957600080fd5b810190808051906020019092919050505061153690919063ffffffff16565b61142290919063ffffffff16565b905061116b61115c73__SafeDecimalMath_______________________63907af6c06040518163ffffffff1660e01b815260040160206040518083038186803b15801561111257600080fd5b505af4158015611126573d6000803e3d6000fd5b505050506040513d602081101561113c57600080fd5b8101908080519060200190929190505050836113d890919063ffffffff16565b8561150990919063ffffffff16565b91505092915050565b6a01316ba81b802f59713b1381565b600560009054906101000a900473ffffffffffffffffffffffffffffffffffffffff1681565b60025481565b6000806111ba610737565b6111c7578091505061136b565b60006111d1611374565b9050600060035490505b6000821115611364578080600101915050602860ff16811015611226576112166a01316ba81b802f59713b138461153690919063ffffffff16565b925081806001900392505061135f565b60ea60ff16811161127b57600061124d600160280360ff16836113d890919063ffffffff16565b905061126a61125b826108a3565b8561153690919063ffffffff16565b93508280600190039350505061135e565b6000600560009054906101000a900473ffffffffffffffffffffffffffffffffffffffff1673ffffffffffffffffffffffffffffffffffffffff166318160ddd6040518163ffffffff1660e01b815260040160206040518083038186803b1580156112e557600080fd5b505afa1580156112f9573d6000803e3d6000fd5b505050506040513d602081101561130f57600080fd5b810190808051906020019092919050505090506000611337858361153690919063ffffffff16565b90506113556113468286611006565b8661153690919063ffffffff16565b94506000935050505b5b6111db565b8293505050505b90565b60035481565b60008060006002541161139d57611398635c7f0d80426113d890919063ffffffff16565b6113b3565b6113b2600254426113d890919063ffffffff16565b5b90506113cb62093a808261164490919063ffffffff16565b91505090565b62093a8081565b600061141a83836040518060400160405280601e81526020017f536166654d6174683a207375627472616374696f6e206f766572666c6f77000081525061168e565b905092915050565b60008073__SafeDecimalMath_______________________63907af6c06040518163ffffffff1660e01b815260040160206040518083038186803b15801561146957600080fd5b505af415801561147d573d6000803e3d6000fd5b505050506040513d602081101561149357600080fd5b810190808051906020019092919050505090505b60008311156114ff576000600284816114bc57fe5b06146114d8576114d5848261150990919063ffffffff16565b90505b6114eb848561150990919063ffffffff16565b9350600283816114f757fe5b0492506114a7565b8091505092915050565b6000601260ff16600a0a61152683856115be90919063ffffffff16565b8161152d57fe5b04905092915050565b6000808284019050838110156115b4576040517f08c379a000000000000000000000000000000000000000000000000000000000815260040180806020018281038252601b8152602001807f536166654d6174683a206164646974696f6e206f766572666c6f77000000000081525060200191505060405180910390fd5b8091505092915050565b6000808314156115d1576000905061163e565b60008284029050828482816115e257fe5b0414611639576040517f08c379a00000000000000000000000000000000000000000000000000000000081526004018080602001828103825260218152602001806118796021913960400191505060405180910390fd5b809150505b92915050565b600061168683836040518060400160405280601a81526020017f536166654d6174683a206469766973696f6e206279207a65726f00000000000081525061174e565b905092915050565b600083831115829061173b576040517f08c379a00000000000000000000000000000000000000000000000000000000081526004018080602001828103825283818151815260200191508051906020019080838360005b838110156117005780820151818401526020810190506116e5565b50505050905090810190601f16801561172d5780820380516001836020036101000a031916815260200191505b509250505060405180910390fd5b5060008385039050809150509392505050565b600080831182906117fa576040517f08c379a00000000000000000000000000000000000000000000000000000000081526004018080602001828103825283818151815260200191508051906020019080838360005b838110156117bf5780820151818401526020810190506117a4565b50505050905090810190601f1680156117ec5780820380516001836020036101000a031916815260200191505b509250505060405180910390fd5b50600083858161180657fe5b04905080915050939250505056fe596f75206d757374206265206e6f6d696e61746564206265666f726520796f752063616e20616363657074206f776e6572736869704f6e6c792074686520636f6e7472616374206f776e6572206d617920706572666f726d207468697320616374696f6e536166654d6174683a206d756c7469706c69636174696f6e206f766572666c6f774f6e6c79207468652073796e74686574697820636f6e74726163742063616e20706572666f726d207468697320616374696f6e5265776172642063616e6e6f7420657863656564206d6178206d696e74657220726577617264a265627a7a723158206768ca1a5e3b9cf5ae42d209b4f64b97ef49f53deb4719df54b9c50720b27ab764736f6c63430005100032",
  "deployedBytecode": "0x608060405234801561001057600080fd5b50600436106101735760003560e01c80637e1b823f116100de578063badef30a11610097578063cc5c095c11610071578063cc5c095c14610544578063d3bd4bde14610562578063dbd3a6a714610580578063df5a9fc11461059e57610173565b8063badef30a146104be578063bdd12482146104dc578063be801f011461052657610173565b80637e1b823f146103625780637e7961d7146103805780638da5cb5b146103c657806395896b76146104105780639bdd7ac714610454578063b3b2bcc01461047257610173565b806346b45af71161013057806346b45af7146102585780634ae265211461027a5780634e070f50146102a857806353a47bb7146102ea57806379ba5097146103345780637c0605571461033e57610173565b80631627540c146101785780631de40e49146101bc57806322af2bab146101da578063251330f1146101f8578063255420641461021c57806346872a231461023a575b600080fd5b6101ba6004803603602081101561018e57600080fd5b81019080803573ffffffffffffffffffffffffffffffffffffffff1690602001909291905050506105bc565b005b6101c4610708565b6040518082815260200191505060405180910390f35b6101e2610713565b6040518082815260200191505060405180910390f35b610200610720565b604051808260ff1660ff16815260200191505060405180910390f35b610224610725565b6040518082815260200191505060405180910390f35b610242610730565b6040518082815260200191505060405180910390f35b610260610737565b604051808215151515815260200191505060405180910390f35b6102a66004803603602081101561029057600080fd5b8101908080359060200190929190505050610759565b005b6102d4600480360360208110156102be57600080fd5b81019080803590602001909291905050506108a3565b6040518082815260200191505060405180910390f35b6102f261097e565b604051808273ffffffffffffffffffffffffffffffffffffffff1673ffffffffffffffffffffffffffffffffffffffff16815260200191505060405180910390f35b61033c6109a4565b005b610346610bca565b604051808260ff1660ff16815260200191505060405180910390f35b61036a610bcf565b6040518082815260200191505060405180910390f35b6103ac6004803603602081101561039657600080fd5b8101908080359060200190929190505050610bd7565b604051808215151515815260200191505060405180910390f35b6103ce610dca565b604051808273ffffffffffffffffffffffffffffffffffffffff1673ffffffffffffffffffffffffffffffffffffffff16815260200191505060405180910390f35b6104526004803603602081101561042657600080fd5b81019080803573ffffffffffffffffffffffffffffffffffffffff169060200190929190505050610def565b005b61045c611000565b6040518082815260200191505060405180910390f35b6104a86004803603604081101561048857600080fd5b810190808035906020019092919080359060200190929190505050611006565b6040518082815260200191505060405180910390f35b6104c6611174565b6040518082815260200191505060405180910390f35b6104e4611183565b604051808273ffffffffffffffffffffffffffffffffffffffff1673ffffffffffffffffffffffffffffffffffffffff16815260200191505060405180910390f35b61052e6111a9565b6040518082815260200191505060405180910390f35b61054c6111af565b6040518082815260200191505060405180910390f35b61056a61136e565b6040518082815260200191505060405180910390f35b610588611374565b6040518082815260200191505060405180910390f35b6105a66113d1565b6040518082815260200191505060405180910390f35b6000809054906101000a900473ffffffffffffffffffffffffffffffffffffffff1673ffffffffffffffffffffffffffffffffffffffff163373ffffffffffffffffffffffffffffffffffffffff1614610661576040517f08c379a000000000000000000000000000000000000000000000000000000000815260040180806020018281038252602f81526020018061184a602f913960400191505060405180910390fd5b80600160006101000a81548173ffffffffffffffffffffffffffffffffffffffff021916908373ffffffffffffffffffffffffffffffffffffffff1602179055507f906a1c6bd7e3091ea86693dd029a831c19049ce77f1dce2ce0bab1cacbabce2281604051808273ffffffffffffffffffffffffffffffffffffffff1673ffffffffffffffffffffffffffffffffffffffff16815260200191505060405180910390a150565b662c68af0bb1400081565b680ad78ebc5ac620000081565b602881565b6658d15e1762800081565b6201518081565b600062093a80600254420311156107515760019050610756565b600090505b90565b6000809054906101000a900473ffffffffffffffffffffffffffffffffffffffff1673ffffffffffffffffffffffffffffffffffffffff163373ffffffffffffffffffffffffffffffffffffffff16146107fe576040517f08c379a000000000000000000000000000000000000000000000000000000000815260040180806020018281038252602f81526020018061184a602f913960400191505060405180910390fd5b680ad78ebc5ac6200000811115610860576040517f08c379a00000000000000000000000000000000000000000000000000000000081526004018080602001828103825260268152602001806118cd6026913960400191505060405180910390fd5b806004819055507f036e0c635f8b7d9314bb6f2a577046108ef0f8b5e3869fbd29fd5a448ed99d306004546040518082815260200191505060405180910390a150565b60008061095083610942662c68af0bb1400073__SafeDecimalMath_______________________63907af6c06040518163ffffffff1660e01b815260040160206040518083038186803b1580156108f957600080fd5b505af415801561090d573d6000803e3d6000fd5b505050506040513d602081101561092357600080fd5b81019080805190602001909291905050506113d890919063ffffffff16565b61142290919063ffffffff16565b90506000610972826a01316ba81b802f59713b1361150990919063ffffffff16565b90508092505050919050565b600160009054906101000a900473ffffffffffffffffffffffffffffffffffffffff1681565b600160009054906101000a900473ffffffffffffffffffffffffffffffffffffffff1673ffffffffffffffffffffffffffffffffffffffff163373ffffffffffffffffffffffffffffffffffffffff1614610a4a576040517f08c379a00000000000000000000000000000000000000000000000000000000081526004018080602001828103825260358152602001806118156035913960400191505060405180910390fd5b7fb532073b38c83145e3e5135377a08bf9aab55bc0fd7c1179cd4fb995d2a5159c6000809054906101000a900473ffffffffffffffffffffffffffffffffffffffff16600160009054906101000a900473ffffffffffffffffffffffffffffffffffffffff16604051808373ffffffffffffffffffffffffffffffffffffffff1673ffffffffffffffffffffffffffffffffffffffff1681526020018273ffffffffffffffffffffffffffffffffffffffff1673ffffffffffffffffffffffffffffffffffffffff1681526020019250505060405180910390a1600160009054906101000a900473ffffffffffffffffffffffffffffffffffffffff166000806101000a81548173ffffffffffffffffffffffffffffffffffffffff021916908373ffffffffffffffffffffffffffffffffffffffff1602179055506000600160006101000a81548173ffffffffffffffffffffffffffffffffffffffff021916908373ffffffffffffffffffffffffffffffffffffffff160217905550565b60ea81565b635c7f0d8081565b6000600560009054906101000a900473ffffffffffffffffffffffffffffffffffffffff1673ffffffffffffffffffffffffffffffffffffffff1663d4b839926040518163ffffffff1660e01b815260040160206040518083038186803b158015610c4157600080fd5b505afa158015610c55573d6000803e3d6000fd5b505050506040513d6020811015610c6b57600080fd5b810190808051906020019092919050505073ffffffffffffffffffffffffffffffffffffffff163373ffffffffffffffffffffffffffffffffffffffff1614610cff576040517f08c379a000000000000000000000000000000000000000000000000000000000815260040180806020018281038252603381526020018061189a6033913960400191505060405180910390fd5b6000610d09611374565b9050610d208160035461153690919063ffffffff16565b600381905550610d6962015180610d5b610d4862093a806003546115be90919063ffffffff16565b635c7f0d8061153690919063ffffffff16565b61153690919063ffffffff16565b6002819055507f601e517d4811033fed8290c79b7823ce1ab70258da45400fe2391a3c7432edab8382600254426040518085815260200184815260200183815260200182815260200194505050505060405180910390a16001915050919050565b6000809054906101000a900473ffffffffffffffffffffffffffffffffffffffff1681565b6000809054906101000a900473ffffffffffffffffffffffffffffffffffffffff1673ffffffffffffffffffffffffffffffffffffffff163373ffffffffffffffffffffffffffffffffffffffff1614610e94576040517f08c379a000000000000000000000000000000000000000000000000000000000815260040180806020018281038252602f81526020018061184a602f913960400191505060405180910390fd5b600073ffffffffffffffffffffffffffffffffffffffff168173ffffffffffffffffffffffffffffffffffffffff161415610f37576040517f08c379a00000000000000000000000000000000000000000000000000000000081526004018080602001828103825260138152602001807f416464726573732063616e6e6f7420626520300000000000000000000000000081525060200191505060405180910390fd5b80600560006101000a81548173ffffffffffffffffffffffffffffffffffffffff021916908373ffffffffffffffffffffffffffffffffffffffff1602179055507ff8df0556b7fde3c4b8394eae329aedfa59c6ffd8b532d572a1efcfa3424ca5fc600560009054906101000a900473ffffffffffffffffffffffffffffffffffffffff16604051808273ffffffffffffffffffffffffffffffffffffffff1673ffffffffffffffffffffffffffffffffffffffff16815260200191505060405180910390a150565b60045481565b6000806110c6836110b861102b60346658d15e1762800061164490919063ffffffff16565b73__SafeDecimalMath_______________________63907af6c06040518163ffffffff1660e01b815260040160206040518083038186803b15801561106f57600080fd5b505af4158015611083573d6000803e3d6000fd5b505050506040513d602081101561109957600080fd5b810190808051906020019092919050505061153690919063ffffffff16565b61142290919063ffffffff16565b905061116b61115c73__SafeDecimalMath_______________________63907af6c06040518163ffffffff1660e01b815260040160206040518083038186803b15801561111257600080fd5b505af4158015611126573d6000803e3d6000fd5b505050506040513d602081101561113c57600080fd5b8101908080519060200190929190505050836113d890919063ffffffff16565b8561150990919063ffffffff16565b91505092915050565b6a01316ba81b802f59713b1381565b600560009054906101000a900473ffffffffffffffffffffffffffffffffffffffff1681565b60025481565b6000806111ba610737565b6111c7578091505061136b565b60006111d1611374565b9050600060035490505b6000821115611364578080600101915050602860ff16811015611226576112166a01316ba81b802f59713b138461153690919063ffffffff16565b925081806001900392505061135f565b60ea60ff16811161127b57600061124d600160280360ff16836113d890919063ffffffff16565b905061126a61125b826108a3565b8561153690919063ffffffff16565b93508280600190039350505061135e565b6000600560009054906101000a900473ffffffffffffffffffffffffffffffffffffffff1673ffffffffffffffffffffffffffffffffffffffff166318160ddd6040518163ffffffff1660e01b815260040160206040518083038186803b1580156112e557600080fd5b505afa1580156112f9573d6000803e3d6000fd5b505050506040513d602081101561130f57600080fd5b810190808051906020019092919050505090506000611337858361153690919063ffffffff16565b90506113556113468286611006565b8661153690919063ffffffff16565b94506000935050505b5b6111db565b8293505050505b90565b60035481565b60008060006002541161139d57611398635c7f0d80426113d890919063ffffffff16565b6113b3565b6113b2600254426113d890919063ffffffff16565b5b90506113cb62093a808261164490919063ffffffff16565b91505090565b62093a8081565b600061141a83836040518060400160405280601e81526020017f536166654d6174683a207375627472616374696f6e206f766572666c6f77000081525061168e565b905092915050565b60008073__SafeDecimalMath_______________________63907af6c06040518163ffffffff1660e01b815260040160206040518083038186803b15801561146957600080fd5b505af415801561147d573d6000803e3d6000fd5b505050506040513d602081101561149357600080fd5b810190808051906020019092919050505090505b60008311156114ff576000600284816114bc57fe5b06146114d8576114d5848261150990919063ffffffff16565b90505b6114eb848561150990919063ffffffff16565b9350600283816114f757fe5b0492506114a7565b8091505092915050565b6000601260ff16600a0a61152683856115be90919063ffffffff16565b8161152d57fe5b04905092915050565b6000808284019050838110156115b4576040517f08c379a000000000000000000000000000000000000000000000000000000000815260040180806020018281038252601b8152602001807f536166654d6174683a206164646974696f6e206f766572666c6f77000000000081525060200191505060405180910390fd5b8091505092915050565b6000808314156115d1576000905061163e565b60008284029050828482816115e257fe5b0414611639576040517f08c379a00000000000000000000000000000000000000000000000000000000081526004018080602001828103825260218152602001806118796021913960400191505060405180910390fd5b809150505b92915050565b600061168683836040518060400160405280601a81526020017f536166654d6174683a206469766973696f6e206279207a65726f00000000000081525061174e565b905092915050565b600083831115829061173b576040517f08c379a00000000000000000000000000000000000000000000000000000000081526004018080602001828103825283818151815260200191508051906020019080838360005b838110156117005780820151818401526020810190506116e5565b50505050905090810190601f16801561172d5780820380516001836020036101000a031916815260200191505b509250505060405180910390fd5b5060008385039050809150509392505050565b600080831182906117fa576040517f08c379a00000000000000000000000000000000000000000000000000000000081526004018080602001828103825283818151815260200191508051906020019080838360005b838110156117bf5780820151818401526020810190506117a4565b50505050905090810190601f1680156117ec5780820380516001836020036101000a031916815260200191505b509250505060405180910390fd5b50600083858161180657fe5b04905080915050939250505056fe596f75206d757374206265206e6f6d696e61746564206265666f726520796f752063616e20616363657074206f776e6572736869704f6e6c792074686520636f6e7472616374206f776e6572206d617920706572666f726d207468697320616374696f6e536166654d6174683a206d756c7469706c69636174696f6e206f766572666c6f774f6e6c79207468652073796e74686574697820636f6e74726163742063616e20706572666f726d207468697320616374696f6e5265776172642063616e6e6f7420657863656564206d6178206d696e74657220726577617264a265627a7a723158206768ca1a5e3b9cf5ae42d209b4f64b97ef49f53deb4719df54b9c50720b27ab764736f6c63430005100032",
  "source": "pragma solidity ^0.5.16;\n\n// Inheritance\nimport \"./Owned.sol\";\n\n// Libraries\nimport \"./SafeDecimalMath.sol\";\nimport \"./Math.sol\";\n\n// Internal references\nimport \"./Proxy.sol\";\nimport \"./interfaces/ISynthetix.sol\";\nimport \"./interfaces/IERC20.sol\";\n\n\n// https://docs.synthetix.io/contracts/SupplySchedule\ncontract SupplySchedule is Owned {\n    using SafeMath for uint;\n    using SafeDecimalMath for uint;\n    using Math for uint;\n\n    // Time of the last inflation supply mint event\n    uint public lastMintEvent;\n\n    // Counter for number of weeks since the start of supply inflation\n    uint public weekCounter;\n\n    // The number of SNX rewarded to the caller of Synthetix.mint()\n    uint public minterReward = 200 * SafeDecimalMath.unit();\n\n    // The initial weekly inflationary supply is 75m / 52 until the start of the decay rate.\n    // 75e6 * SafeDecimalMath.unit() / 52\n    uint public constant INITIAL_WEEKLY_SUPPLY = 1442307692307692307692307;\n\n    // Address of the SynthetixProxy for the onlySynthetix modifier\n    address payable public synthetixProxy;\n\n    // Max SNX rewards for minter\n    uint public constant MAX_MINTER_REWARD = 200 * 1e18;\n\n    // How long each inflation period is before mint can be called\n    uint public constant MINT_PERIOD_DURATION = 1 weeks;\n\n    uint public constant INFLATION_START_DATE = 1551830400; // 2019-03-06T00:00:00+00:00\n    uint public constant MINT_BUFFER = 1 days;\n    uint8 public constant SUPPLY_DECAY_START = 40; // Week 40\n    uint8 public constant SUPPLY_DECAY_END = 234; //  Supply Decay ends on Week 234 (inclusive of Week 234 for a total of 195 weeks of inflation decay)\n\n    // Weekly percentage decay of inflationary supply from the first 40 weeks of the 75% inflation rate\n    uint public constant DECAY_RATE = 12500000000000000; // 1.25% weekly\n\n    // Percentage growth of terminal supply per annum\n    uint public constant TERMINAL_SUPPLY_RATE_ANNUAL = 25000000000000000; // 2.5% pa\n\n    constructor(\n        address _owner,\n        uint _lastMintEvent,\n        uint _currentWeek\n    ) public Owned(_owner) {\n        lastMintEvent = _lastMintEvent;\n        weekCounter = _currentWeek;\n    }\n\n    // ========== VIEWS ==========\n\n    /**\n     * @return The amount of SNX mintable for the inflationary supply\n     */\n    function mintableSupply() external view returns (uint) {\n        uint totalAmount;\n\n        if (!isMintable()) {\n            return totalAmount;\n        }\n\n        uint remainingWeeksToMint = weeksSinceLastIssuance();\n\n        uint currentWeek = weekCounter;\n\n        // Calculate total mintable supply from exponential decay function\n        // The decay function stops after week 234\n        while (remainingWeeksToMint > 0) {\n            currentWeek++;\n\n            if (currentWeek < SUPPLY_DECAY_START) {\n                // If current week is before supply decay we add initial supply to mintableSupply\n                totalAmount = totalAmount.add(INITIAL_WEEKLY_SUPPLY);\n                remainingWeeksToMint--;\n            } else if (currentWeek <= SUPPLY_DECAY_END) {\n                // if current week before supply decay ends we add the new supply for the week\n                // diff between current week and (supply decay start week - 1)\n                uint decayCount = currentWeek.sub(SUPPLY_DECAY_START - 1);\n\n                totalAmount = totalAmount.add(tokenDecaySupplyForWeek(decayCount));\n                remainingWeeksToMint--;\n            } else {\n                // Terminal supply is calculated on the total supply of Synthetix including any new supply\n                // We can compound the remaining week's supply at the fixed terminal rate\n                uint totalSupply = IERC20(synthetixProxy).totalSupply();\n                uint currentTotalSupply = totalSupply.add(totalAmount);\n\n                totalAmount = totalAmount.add(terminalInflationSupply(currentTotalSupply, remainingWeeksToMint));\n                remainingWeeksToMint = 0;\n            }\n        }\n\n        return totalAmount;\n    }\n\n    /**\n     * @return A unit amount of decaying inflationary supply from the INITIAL_WEEKLY_SUPPLY\n     * @dev New token supply reduces by the decay rate each week calculated as supply = INITIAL_WEEKLY_SUPPLY * ()\n     */\n    function tokenDecaySupplyForWeek(uint counter) public pure returns (uint) {\n        // Apply exponential decay function to number of weeks since\n        // start of inflation smoothing to calculate diminishing supply for the week.\n        uint effectiveDecay = (SafeDecimalMath.unit().sub(DECAY_RATE)).powDecimal(counter);\n        uint supplyForWeek = INITIAL_WEEKLY_SUPPLY.multiplyDecimal(effectiveDecay);\n\n        return supplyForWeek;\n    }\n\n    /**\n     * @return A unit amount of terminal inflation supply\n     * @dev Weekly compound rate based on number of weeks\n     */\n    function terminalInflationSupply(uint totalSupply, uint numOfWeeks) public pure returns (uint) {\n        // rate = (1 + weekly rate) ^ num of weeks\n        uint effectiveCompoundRate = SafeDecimalMath.unit().add(TERMINAL_SUPPLY_RATE_ANNUAL.div(52)).powDecimal(numOfWeeks);\n\n        // return Supply * (effectiveRate - 1) for extra supply to issue based on number of weeks\n        return totalSupply.multiplyDecimal(effectiveCompoundRate.sub(SafeDecimalMath.unit()));\n    }\n\n    /**\n     * @dev Take timeDiff in seconds (Dividend) and MINT_PERIOD_DURATION as (Divisor)\n     * @return Calculate the numberOfWeeks since last mint rounded down to 1 week\n     */\n    function weeksSinceLastIssuance() public view returns (uint) {\n        // Get weeks since lastMintEvent\n        // If lastMintEvent not set or 0, then start from inflation start date.\n        uint timeDiff = lastMintEvent > 0 ? now.sub(lastMintEvent) : now.sub(INFLATION_START_DATE);\n        return timeDiff.div(MINT_PERIOD_DURATION);\n    }\n\n    /**\n     * @return boolean whether the MINT_PERIOD_DURATION (7 days)\n     * has passed since the lastMintEvent.\n     * */\n    function isMintable() public view returns (bool) {\n        if (now - lastMintEvent > MINT_PERIOD_DURATION) {\n            return true;\n        }\n        return false;\n    }\n\n    // ========== MUTATIVE FUNCTIONS ==========\n\n    /**\n     * @notice Record the mint event from Synthetix by incrementing the inflation\n     * week counter for the number of weeks minted (probabaly always 1)\n     * and store the time of the event.\n     * @param supplyMinted the amount of SNX the total supply was inflated by.\n     * */\n    function recordMintEvent(uint supplyMinted) external onlySynthetix returns (bool) {\n        uint numberOfWeeksIssued = weeksSinceLastIssuance();\n\n        // add number of weeks minted to weekCounter\n        weekCounter = weekCounter.add(numberOfWeeksIssued);\n\n        // Update mint event to latest week issued (start date + number of weeks issued * seconds in week)\n        // 1 day time buffer is added so inflation is minted after feePeriod closes\n        lastMintEvent = INFLATION_START_DATE.add(weekCounter.mul(MINT_PERIOD_DURATION)).add(MINT_BUFFER);\n\n        emit SupplyMinted(supplyMinted, numberOfWeeksIssued, lastMintEvent, now);\n        return true;\n    }\n\n    /**\n     * @notice Sets the reward amount of SNX for the caller of the public\n     * function Synthetix.mint().\n     * This incentivises anyone to mint the inflationary supply and the mintr\n     * Reward will be deducted from the inflationary supply and sent to the caller.\n     * @param amount the amount of SNX to reward the minter.\n     * */\n    function setMinterReward(uint amount) external onlyOwner {\n        require(amount <= MAX_MINTER_REWARD, \"Reward cannot exceed max minter reward\");\n        minterReward = amount;\n        emit MinterRewardUpdated(minterReward);\n    }\n\n    // ========== SETTERS ========== */\n\n    /**\n     * @notice Set the SynthetixProxy should it ever change.\n     * SupplySchedule requires Synthetix address as it has the authority\n     * to record mint event.\n     * */\n    function setSynthetixProxy(ISynthetix _synthetixProxy) external onlyOwner {\n        require(address(_synthetixProxy) != address(0), \"Address cannot be 0\");\n        synthetixProxy = address(uint160(address(_synthetixProxy)));\n        emit SynthetixProxyUpdated(synthetixProxy);\n    }\n\n    // ========== MODIFIERS ==========\n\n    /**\n     * @notice Only the Synthetix contract is authorised to call this function\n     * */\n    modifier onlySynthetix() {\n        require(\n            msg.sender == address(Proxy(address(synthetixProxy)).target()),\n            \"Only the synthetix contract can perform this action\"\n        );\n        _;\n    }\n\n    /* ========== EVENTS ========== */\n    /**\n     * @notice Emitted when the inflationary supply is minted\n     * */\n    event SupplyMinted(uint supplyMinted, uint numberOfWeeksIssued, uint lastMintEvent, uint timestamp);\n\n    /**\n     * @notice Emitted when the SNX minter reward amount is updated\n     * */\n    event MinterRewardUpdated(uint newRewardAmount);\n\n    /**\n     * @notice Emitted when setSynthetixProxy is called changing the Synthetix Proxy address\n     * */\n    event SynthetixProxyUpdated(address newAddress);\n}\n",
  "sourcePath": "/Users/qizhang/Development/truffle_test2/contracts/SupplySchedule.sol",
  "compiler": {
    "name": "solc",
    "version": "0.5.16+commit.9c3226ce.Emscripten.clang"
  },
  "schemaVersion": "3.2.1",
  "updatedAt": "2020-07-05T03:58:13.064Z",
  "devdoc": {
    "methods": {
      "isMintable()": {
        "return": "boolean whether the MINT_PERIOD_DURATION (7 days) has passed since the lastMintEvent."
      },
      "mintableSupply()": {
        "return": "The amount of SNX mintable for the inflationary supply"
      },
      "recordMintEvent(uint256)": {
        "params": {
          "supplyMinted": "the amount of SNX the total supply was inflated by."
        }
      },
      "setMinterReward(uint256)": {
        "params": {
          "amount": "the amount of SNX to reward the minter."
        }
      },
      "terminalInflationSupply(uint256,uint256)": {
        "details": "Weekly compound rate based on number of weeks",
        "return": "A unit amount of terminal inflation supply"
      },
      "tokenDecaySupplyForWeek(uint256)": {
        "details": "New token supply reduces by the decay rate each week calculated as supply = INITIAL_WEEKLY_SUPPLY * ()",
        "return": "A unit amount of decaying inflationary supply from the INITIAL_WEEKLY_SUPPLY"
      },
      "weeksSinceLastIssuance()": {
        "details": "Take timeDiff in seconds (Dividend) and MINT_PERIOD_DURATION as (Divisor)",
        "return": "Calculate the numberOfWeeks since last mint rounded down to 1 week"
      }
    }
  },
  "userdoc": {
    "methods": {
      "recordMintEvent(uint256)": {
        "notice": "Record the mint event from Synthetix by incrementing the inflation week counter for the number of weeks minted (probabaly always 1) and store the time of the event."
      },
      "setMinterReward(uint256)": {
        "notice": "Sets the reward amount of SNX for the caller of the public function Synthetix.mint(). This incentivises anyone to mint the inflationary supply and the mintr Reward will be deducted from the inflationary supply and sent to the caller."
      },
      "setSynthetixProxy(address)": {
        "notice": "Set the SynthetixProxy should it ever change. SupplySchedule requires Synthetix address as it has the authority to record mint event."
      }
    }
  }
}