{
  "contractName": "Synthetix",
  "abi": [
    {
      "inputs": [
        {
          "internalType": "address payable",
          "name": "_proxy",
          "type": "address"
        },
        {
          "internalType": "contract TokenState",
          "name": "_tokenState",
          "type": "address"
        },
        {
          "internalType": "address",
          "name": "_owner",
          "type": "address"
        },
        {
          "internalType": "uint256",
          "name": "_totalSupply",
          "type": "uint256"
        },
        {
          "internalType": "address",
          "name": "_resolver",
          "type": "address"
        }
      ],
      "payable": false,
      "stateMutability": "nonpayable",
      "type": "constructor"
    },
    {
      "anonymous": false,
      "inputs": [
        {
          "indexed": true,
          "internalType": "address",
          "name": "account",
          "type": "address"
        },
        {
          "indexed": false,
          "internalType": "uint256",
          "name": "snxRedeemed",
          "type": "uint256"
        },
        {
          "indexed": false,
          "internalType": "uint256",
          "name": "amountLiquidated",
          "type": "uint256"
        },
        {
          "indexed": false,
          "internalType": "address",
          "name": "liquidator",
          "type": "address"
        }
      ],
      "name": "AccountLiquidated",
      "type": "event"
    },
    {
      "anonymous": false,
      "inputs": [
        {
          "indexed": true,
          "internalType": "address",
          "name": "owner",
          "type": "address"
        },
        {
          "indexed": true,
          "internalType": "address",
          "name": "spender",
          "type": "address"
        },
        {
          "indexed": false,
          "internalType": "uint256",
          "name": "value",
          "type": "uint256"
        }
      ],
      "name": "Approval",
      "type": "event"
    },
    {
      "anonymous": false,
      "inputs": [
        {
          "indexed": true,
          "internalType": "address",
          "name": "account",
          "type": "address"
        },
        {
          "indexed": false,
          "internalType": "bytes32",
          "name": "currencyKey",
          "type": "bytes32"
        },
        {
          "indexed": false,
          "internalType": "uint256",
          "name": "amount",
          "type": "uint256"
        }
      ],
      "name": "ExchangeRebate",
      "type": "event"
    },
    {
      "anonymous": false,
      "inputs": [
        {
          "indexed": true,
          "internalType": "address",
          "name": "account",
          "type": "address"
        },
        {
          "indexed": false,
          "internalType": "bytes32",
          "name": "currencyKey",
          "type": "bytes32"
        },
        {
          "indexed": false,
          "internalType": "uint256",
          "name": "amount",
          "type": "uint256"
        }
      ],
      "name": "ExchangeReclaim",
      "type": "event"
    },
    {
      "anonymous": false,
      "inputs": [
        {
          "indexed": false,
          "internalType": "address",
          "name": "oldOwner",
          "type": "address"
        },
        {
          "indexed": false,
          "internalType": "address",
          "name": "newOwner",
          "type": "address"
        }
      ],
      "name": "OwnerChanged",
      "type": "event"
    },
    {
      "anonymous": false,
      "inputs": [
        {
          "indexed": false,
          "internalType": "address",
          "name": "newOwner",
          "type": "address"
        }
      ],
      "name": "OwnerNominated",
      "type": "event"
    },
    {
      "anonymous": false,
      "inputs": [
        {
          "indexed": false,
          "internalType": "address",
          "name": "proxyAddress",
          "type": "address"
        }
      ],
      "name": "ProxyUpdated",
      "type": "event"
    },
    {
      "anonymous": false,
      "inputs": [
        {
          "indexed": false,
          "internalType": "address",
          "name": "newBeneficiary",
          "type": "address"
        }
      ],
      "name": "SelfDestructBeneficiaryUpdated",
      "type": "event"
    },
    {
      "anonymous": false,
      "inputs": [
        {
          "indexed": false,
          "internalType": "uint256",
          "name": "selfDestructDelay",
          "type": "uint256"
        }
      ],
      "name": "SelfDestructInitiated",
      "type": "event"
    },
    {
      "anonymous": false,
      "inputs": [],
      "name": "SelfDestructTerminated",
      "type": "event"
    },
    {
      "anonymous": false,
      "inputs": [
        {
          "indexed": false,
          "internalType": "address",
          "name": "beneficiary",
          "type": "address"
        }
      ],
      "name": "SelfDestructed",
      "type": "event"
    },
    {
      "anonymous": false,
      "inputs": [
        {
          "indexed": true,
          "internalType": "address",
          "name": "account",
          "type": "address"
        },
        {
          "indexed": false,
          "internalType": "bytes32",
          "name": "fromCurrencyKey",
          "type": "bytes32"
        },
        {
          "indexed": false,
          "internalType": "uint256",
          "name": "fromAmount",
          "type": "uint256"
        },
        {
          "indexed": false,
          "internalType": "bytes32",
          "name": "toCurrencyKey",
          "type": "bytes32"
        },
        {
          "indexed": false,
          "internalType": "uint256",
          "name": "toAmount",
          "type": "uint256"
        },
        {
          "indexed": false,
          "internalType": "address",
          "name": "toAddress",
          "type": "address"
        }
      ],
      "name": "SynthExchange",
      "type": "event"
    },
    {
      "anonymous": false,
      "inputs": [
        {
          "indexed": false,
          "internalType": "address",
          "name": "newTokenState",
          "type": "address"
        }
      ],
      "name": "TokenStateUpdated",
      "type": "event"
    },
    {
      "anonymous": false,
      "inputs": [
        {
          "indexed": true,
          "internalType": "address",
          "name": "from",
          "type": "address"
        },
        {
          "indexed": true,
          "internalType": "address",
          "name": "to",
          "type": "address"
        },
        {
          "indexed": false,
          "internalType": "uint256",
          "name": "value",
          "type": "uint256"
        }
      ],
      "name": "Transfer",
      "type": "event"
    },
    {
      "constant": true,
      "inputs": [],
      "name": "DECIMALS",
      "outputs": [
        {
          "internalType": "uint8",
          "name": "",
          "type": "uint8"
        }
      ],
      "payable": false,
      "stateMutability": "view",
      "type": "function"
    },
    {
      "constant": true,
      "inputs": [],
      "name": "MAX_ADDRESSES_FROM_RESOLVER",
      "outputs": [
        {
          "internalType": "uint256",
          "name": "",
          "type": "uint256"
        }
      ],
      "payable": false,
      "stateMutability": "view",
      "type": "function"
    },
    {
      "constant": true,
      "inputs": [],
      "name": "SELFDESTRUCT_DELAY",
      "outputs": [
        {
          "internalType": "uint256",
          "name": "",
          "type": "uint256"
        }
      ],
      "payable": false,
      "stateMutability": "view",
      "type": "function"
    },
    {
      "constant": true,
      "inputs": [],
      "name": "TOKEN_NAME",
      "outputs": [
        {
          "internalType": "string",
          "name": "",
          "type": "string"
        }
      ],
      "payable": false,
      "stateMutability": "view",
      "type": "function"
    },
    {
      "constant": true,
      "inputs": [],
      "name": "TOKEN_SYMBOL",
      "outputs": [
        {
          "internalType": "string",
          "name": "",
          "type": "string"
        }
      ],
      "payable": false,
      "stateMutability": "view",
      "type": "function"
    },
    {
      "constant": false,
      "inputs": [],
      "name": "acceptOwnership",
      "outputs": [],
      "payable": false,
      "stateMutability": "nonpayable",
      "type": "function"
    },
    {
      "constant": true,
      "inputs": [
        {
          "internalType": "address",
          "name": "owner",
          "type": "address"
        },
        {
          "internalType": "address",
          "name": "spender",
          "type": "address"
        }
      ],
      "name": "allowance",
      "outputs": [
        {
          "internalType": "uint256",
          "name": "",
          "type": "uint256"
        }
      ],
      "payable": false,
      "stateMutability": "view",
      "type": "function"
    },
    {
      "constant": false,
      "inputs": [
        {
          "internalType": "address",
          "name": "spender",
          "type": "address"
        },
        {
          "internalType": "uint256",
          "name": "value",
          "type": "uint256"
        }
      ],
      "name": "approve",
      "outputs": [
        {
          "internalType": "bool",
          "name": "",
          "type": "bool"
        }
      ],
      "payable": false,
      "stateMutability": "nonpayable",
      "type": "function"
    },
    {
      "constant": true,
      "inputs": [
        {
          "internalType": "address",
          "name": "account",
          "type": "address"
        }
      ],
      "name": "balanceOf",
      "outputs": [
        {
          "internalType": "uint256",
          "name": "",
          "type": "uint256"
        }
      ],
      "payable": false,
      "stateMutability": "view",
      "type": "function"
    },
    {
      "constant": true,
      "inputs": [],
      "name": "decimals",
      "outputs": [
        {
          "internalType": "uint8",
          "name": "",
          "type": "uint8"
        }
      ],
      "payable": false,
      "stateMutability": "view",
      "type": "function"
    },
    {
      "constant": true,
      "inputs": [],
      "name": "getResolverAddressesRequired",
      "outputs": [
        {
          "internalType": "bytes32[24]",
          "name": "addressesRequired",
          "type": "bytes32[24]"
        }
      ],
      "payable": false,
      "stateMutability": "view",
      "type": "function"
    },
    {
      "constant": false,
      "inputs": [],
      "name": "initiateSelfDestruct",
      "outputs": [],
      "payable": false,
      "stateMutability": "nonpayable",
      "type": "function"
    },
    {
      "constant": true,
      "inputs": [],
      "name": "initiationTime",
      "outputs": [
        {
          "internalType": "uint256",
          "name": "",
          "type": "uint256"
        }
      ],
      "payable": false,
      "stateMutability": "view",
      "type": "function"
    },
    {
      "constant": true,
      "inputs": [],
      "name": "integrationProxy",
      "outputs": [
        {
          "internalType": "contract Proxy",
          "name": "",
          "type": "address"
        }
      ],
      "payable": false,
      "stateMutability": "view",
      "type": "function"
    },
    {
      "constant": true,
      "inputs": [
        {
          "internalType": "contract AddressResolver",
          "name": "_resolver",
          "type": "address"
        }
      ],
      "name": "isResolverCached",
      "outputs": [
        {
          "internalType": "bool",
          "name": "",
          "type": "bool"
        }
      ],
      "payable": false,
      "stateMutability": "view",
      "type": "function"
    },
    {
      "constant": true,
      "inputs": [],
      "name": "messageSender",
      "outputs": [
        {
          "internalType": "address",
          "name": "",
          "type": "address"
        }
      ],
      "payable": false,
      "stateMutability": "view",
      "type": "function"
    },
    {
      "constant": true,
      "inputs": [],
      "name": "name",
      "outputs": [
        {
          "internalType": "string",
          "name": "",
          "type": "string"
        }
      ],
      "payable": false,
      "stateMutability": "view",
      "type": "function"
    },
    {
      "constant": false,
      "inputs": [
        {
          "internalType": "address",
          "name": "_owner",
          "type": "address"
        }
      ],
      "name": "nominateNewOwner",
      "outputs": [],
      "payable": false,
      "stateMutability": "nonpayable",
      "type": "function"
    },
    {
      "constant": true,
      "inputs": [],
      "name": "nominatedOwner",
      "outputs": [
        {
          "internalType": "address",
          "name": "",
          "type": "address"
        }
      ],
      "payable": false,
      "stateMutability": "view",
      "type": "function"
    },
    {
      "constant": true,
      "inputs": [],
      "name": "owner",
      "outputs": [
        {
          "internalType": "address",
          "name": "",
          "type": "address"
        }
      ],
      "payable": false,
      "stateMutability": "view",
      "type": "function"
    },
    {
      "constant": true,
      "inputs": [],
      "name": "proxy",
      "outputs": [
        {
          "internalType": "contract Proxy",
          "name": "",
          "type": "address"
        }
      ],
      "payable": false,
      "stateMutability": "view",
      "type": "function"
    },
    {
      "constant": true,
      "inputs": [],
      "name": "resolver",
      "outputs": [
        {
          "internalType": "contract AddressResolver",
          "name": "",
          "type": "address"
        }
      ],
      "payable": false,
      "stateMutability": "view",
      "type": "function"
    },
    {
      "constant": true,
      "inputs": [
        {
          "internalType": "uint256",
          "name": "",
          "type": "uint256"
        }
      ],
      "name": "resolverAddressesRequired",
      "outputs": [
        {
          "internalType": "bytes32",
          "name": "",
          "type": "bytes32"
        }
      ],
      "payable": false,
      "stateMutability": "view",
      "type": "function"
    },
    {
      "constant": true,
      "inputs": [],
      "name": "sUSD",
      "outputs": [
        {
          "internalType": "bytes32",
          "name": "",
          "type": "bytes32"
        }
      ],
      "payable": false,
      "stateMutability": "view",
      "type": "function"
    },
    {
      "constant": false,
      "inputs": [],
      "name": "selfDestruct",
      "outputs": [],
      "payable": false,
      "stateMutability": "nonpayable",
      "type": "function"
    },
    {
      "constant": true,
      "inputs": [],
      "name": "selfDestructBeneficiary",
      "outputs": [
        {
          "internalType": "address",
          "name": "",
          "type": "address"
        }
      ],
      "payable": false,
      "stateMutability": "view",
      "type": "function"
    },
    {
      "constant": true,
      "inputs": [],
      "name": "selfDestructInitiated",
      "outputs": [
        {
          "internalType": "bool",
          "name": "",
          "type": "bool"
        }
      ],
      "payable": false,
      "stateMutability": "view",
      "type": "function"
    },
    {
      "constant": false,
      "inputs": [
        {
          "internalType": "address payable",
          "name": "_integrationProxy",
          "type": "address"
        }
      ],
      "name": "setIntegrationProxy",
      "outputs": [],
      "payable": false,
      "stateMutability": "nonpayable",
      "type": "function"
    },
    {
      "constant": false,
      "inputs": [
        {
          "internalType": "address",
          "name": "sender",
          "type": "address"
        }
      ],
      "name": "setMessageSender",
      "outputs": [],
      "payable": false,
      "stateMutability": "nonpayable",
      "type": "function"
    },
    {
      "constant": false,
      "inputs": [
        {
          "internalType": "address payable",
          "name": "_proxy",
          "type": "address"
        }
      ],
      "name": "setProxy",
      "outputs": [],
      "payable": false,
      "stateMutability": "nonpayable",
      "type": "function"
    },
    {
      "constant": false,
      "inputs": [
        {
          "internalType": "contract AddressResolver",
          "name": "_resolver",
          "type": "address"
        }
      ],
      "name": "setResolverAndSyncCache",
      "outputs": [],
      "payable": false,
      "stateMutability": "nonpayable",
      "type": "function"
    },
    {
      "constant": false,
      "inputs": [
        {
          "internalType": "address payable",
          "name": "_beneficiary",
          "type": "address"
        }
      ],
      "name": "setSelfDestructBeneficiary",
      "outputs": [],
      "payable": false,
      "stateMutability": "nonpayable",
      "type": "function"
    },
    {
      "constant": false,
      "inputs": [
        {
          "internalType": "contract TokenState",
          "name": "_tokenState",
          "type": "address"
        }
      ],
      "name": "setTokenState",
      "outputs": [],
      "payable": false,
      "stateMutability": "nonpayable",
      "type": "function"
    },
    {
      "constant": true,
      "inputs": [],
      "name": "symbol",
      "outputs": [
        {
          "internalType": "string",
          "name": "",
          "type": "string"
        }
      ],
      "payable": false,
      "stateMutability": "view",
      "type": "function"
    },
    {
      "constant": false,
      "inputs": [],
      "name": "terminateSelfDestruct",
      "outputs": [],
      "payable": false,
      "stateMutability": "nonpayable",
      "type": "function"
    },
    {
      "constant": true,
      "inputs": [],
      "name": "tokenState",
      "outputs": [
        {
          "internalType": "contract TokenState",
          "name": "",
          "type": "address"
        }
      ],
      "payable": false,
      "stateMutability": "view",
      "type": "function"
    },
    {
      "constant": true,
      "inputs": [],
      "name": "totalSupply",
      "outputs": [
        {
          "internalType": "uint256",
          "name": "",
          "type": "uint256"
        }
      ],
      "payable": false,
      "stateMutability": "view",
      "type": "function"
    },
    {
      "constant": true,
      "inputs": [
        {
          "internalType": "address",
          "name": "account",
          "type": "address"
        },
        {
          "internalType": "bytes32",
          "name": "currencyKey",
          "type": "bytes32"
        }
      ],
      "name": "debtBalanceOf",
      "outputs": [
        {
          "internalType": "uint256",
          "name": "",
          "type": "uint256"
        }
      ],
      "payable": false,
      "stateMutability": "view",
      "type": "function"
    },
    {
      "constant": true,
      "inputs": [
        {
          "internalType": "bytes32",
          "name": "currencyKey",
          "type": "bytes32"
        }
      ],
      "name": "totalIssuedSynths",
      "outputs": [
        {
          "internalType": "uint256",
          "name": "",
          "type": "uint256"
        }
      ],
      "payable": false,
      "stateMutability": "view",
      "type": "function"
    },
    {
      "constant": true,
      "inputs": [
        {
          "internalType": "bytes32",
          "name": "currencyKey",
          "type": "bytes32"
        }
      ],
      "name": "totalIssuedSynthsExcludeEtherCollateral",
      "outputs": [
        {
          "internalType": "uint256",
          "name": "",
          "type": "uint256"
        }
      ],
      "payable": false,
      "stateMutability": "view",
      "type": "function"
    },
    {
      "constant": true,
      "inputs": [],
      "name": "availableCurrencyKeys",
      "outputs": [
        {
          "internalType": "bytes32[]",
          "name": "",
          "type": "bytes32[]"
        }
      ],
      "payable": false,
      "stateMutability": "view",
      "type": "function"
    },
    {
      "constant": true,
      "inputs": [],
      "name": "availableSynthCount",
      "outputs": [
        {
          "internalType": "uint256",
          "name": "",
          "type": "uint256"
        }
      ],
      "payable": false,
      "stateMutability": "view",
      "type": "function"
    },
    {
      "constant": true,
      "inputs": [
        {
          "internalType": "uint256",
          "name": "index",
          "type": "uint256"
        }
      ],
      "name": "availableSynths",
      "outputs": [
        {
          "internalType": "contract ISynth",
          "name": "",
          "type": "address"
        }
      ],
      "payable": false,
      "stateMutability": "view",
      "type": "function"
    },
    {
      "constant": true,
      "inputs": [
        {
          "internalType": "bytes32",
          "name": "currencyKey",
          "type": "bytes32"
        }
      ],
      "name": "synths",
      "outputs": [
        {
          "internalType": "contract ISynth",
          "name": "",
          "type": "address"
        }
      ],
      "payable": false,
      "stateMutability": "view",
      "type": "function"
    },
    {
      "constant": true,
      "inputs": [
        {
          "internalType": "address",
          "name": "synthAddress",
          "type": "address"
        }
      ],
      "name": "synthsByAddress",
      "outputs": [
        {
          "internalType": "bytes32",
          "name": "",
          "type": "bytes32"
        }
      ],
      "payable": false,
      "stateMutability": "view",
      "type": "function"
    },
    {
      "constant": true,
      "inputs": [
        {
          "internalType": "bytes32",
          "name": "currencyKey",
          "type": "bytes32"
        }
      ],
      "name": "isWaitingPeriod",
      "outputs": [
        {
          "internalType": "bool",
          "name": "",
          "type": "bool"
        }
      ],
      "payable": false,
      "stateMutability": "view",
      "type": "function"
    },
    {
      "constant": true,
      "inputs": [],
      "name": "anySynthOrSNXRateIsStale",
      "outputs": [
        {
          "internalType": "bool",
          "name": "anyRateStale",
          "type": "bool"
        }
      ],
      "payable": false,
      "stateMutability": "view",
      "type": "function"
    },
    {
      "constant": true,
      "inputs": [
        {
          "internalType": "address",
          "name": "account",
          "type": "address"
        }
      ],
      "name": "maxIssuableSynths",
      "outputs": [
        {
          "internalType": "uint256",
          "name": "maxIssuable",
          "type": "uint256"
        }
      ],
      "payable": false,
      "stateMutability": "view",
      "type": "function"
    },
    {
      "constant": true,
      "inputs": [
        {
          "internalType": "address",
          "name": "account",
          "type": "address"
        }
      ],
      "name": "remainingIssuableSynths",
      "outputs": [
        {
          "internalType": "uint256",
          "name": "maxIssuable",
          "type": "uint256"
        },
        {
          "internalType": "uint256",
          "name": "alreadyIssued",
          "type": "uint256"
        },
        {
          "internalType": "uint256",
          "name": "totalSystemDebt",
          "type": "uint256"
        }
      ],
      "payable": false,
      "stateMutability": "view",
      "type": "function"
    },
    {
      "constant": false,
      "inputs": [
        {
          "internalType": "address",
          "name": "to",
          "type": "address"
        },
        {
          "internalType": "uint256",
          "name": "value",
          "type": "uint256"
        }
      ],
      "name": "transfer",
      "outputs": [
        {
          "internalType": "bool",
          "name": "",
          "type": "bool"
        }
      ],
      "payable": false,
      "stateMutability": "nonpayable",
      "type": "function"
    },
    {
      "constant": false,
      "inputs": [
        {
          "internalType": "address",
          "name": "from",
          "type": "address"
        },
        {
          "internalType": "address",
          "name": "to",
          "type": "address"
        },
        {
          "internalType": "uint256",
          "name": "value",
          "type": "uint256"
        }
      ],
      "name": "transferFrom",
      "outputs": [
        {
          "internalType": "bool",
          "name": "",
          "type": "bool"
        }
      ],
      "payable": false,
      "stateMutability": "nonpayable",
      "type": "function"
    },
    {
      "constant": false,
      "inputs": [
        {
          "internalType": "uint256",
          "name": "amount",
          "type": "uint256"
        }
      ],
      "name": "issueSynths",
      "outputs": [],
      "payable": false,
      "stateMutability": "nonpayable",
      "type": "function"
    },
    {
      "constant": false,
      "inputs": [
        {
          "internalType": "address",
          "name": "issueForAddress",
          "type": "address"
        },
        {
          "internalType": "uint256",
          "name": "amount",
          "type": "uint256"
        }
      ],
      "name": "issueSynthsOnBehalf",
      "outputs": [],
      "payable": false,
      "stateMutability": "nonpayable",
      "type": "function"
    },
    {
      "constant": false,
      "inputs": [],
      "name": "issueMaxSynths",
      "outputs": [],
      "payable": false,
      "stateMutability": "nonpayable",
      "type": "function"
    },
    {
      "constant": false,
      "inputs": [
        {
          "internalType": "address",
          "name": "issueForAddress",
          "type": "address"
        }
      ],
      "name": "issueMaxSynthsOnBehalf",
      "outputs": [],
      "payable": false,
      "stateMutability": "nonpayable",
      "type": "function"
    },
    {
      "constant": false,
      "inputs": [
        {
          "internalType": "uint256",
          "name": "amount",
          "type": "uint256"
        }
      ],
      "name": "burnSynths",
      "outputs": [],
      "payable": false,
      "stateMutability": "nonpayable",
      "type": "function"
    },
    {
      "constant": false,
      "inputs": [
        {
          "internalType": "address",
          "name": "burnForAddress",
          "type": "address"
        },
        {
          "internalType": "uint256",
          "name": "amount",
          "type": "uint256"
        }
      ],
      "name": "burnSynthsOnBehalf",
      "outputs": [],
      "payable": false,
      "stateMutability": "nonpayable",
      "type": "function"
    },
    {
      "constant": false,
      "inputs": [],
      "name": "burnSynthsToTarget",
      "outputs": [],
      "payable": false,
      "stateMutability": "nonpayable",
      "type": "function"
    },
    {
      "constant": false,
      "inputs": [
        {
          "internalType": "address",
          "name": "burnForAddress",
          "type": "address"
        }
      ],
      "name": "burnSynthsToTargetOnBehalf",
      "outputs": [],
      "payable": false,
      "stateMutability": "nonpayable",
      "type": "function"
    },
    {
      "constant": false,
      "inputs": [
        {
          "internalType": "bytes32",
          "name": "sourceCurrencyKey",
          "type": "bytes32"
        },
        {
          "internalType": "uint256",
          "name": "sourceAmount",
          "type": "uint256"
        },
        {
          "internalType": "bytes32",
          "name": "destinationCurrencyKey",
          "type": "bytes32"
        }
      ],
      "name": "exchange",
      "outputs": [
        {
          "internalType": "uint256",
          "name": "amountReceived",
          "type": "uint256"
        }
      ],
      "payable": false,
      "stateMutability": "nonpayable",
      "type": "function"
    },
    {
      "constant": false,
      "inputs": [
        {
          "internalType": "address",
          "name": "exchangeForAddress",
          "type": "address"
        },
        {
          "internalType": "bytes32",
          "name": "sourceCurrencyKey",
          "type": "bytes32"
        },
        {
          "internalType": "uint256",
          "name": "sourceAmount",
          "type": "uint256"
        },
        {
          "internalType": "bytes32",
          "name": "destinationCurrencyKey",
          "type": "bytes32"
        }
      ],
      "name": "exchangeOnBehalf",
      "outputs": [
        {
          "internalType": "uint256",
          "name": "amountReceived",
          "type": "uint256"
        }
      ],
      "payable": false,
      "stateMutability": "nonpayable",
      "type": "function"
    },
    {
      "constant": false,
      "inputs": [
        {
          "internalType": "bytes32",
          "name": "currencyKey",
          "type": "bytes32"
        }
      ],
      "name": "settle",
      "outputs": [
        {
          "internalType": "uint256",
          "name": "reclaimed",
          "type": "uint256"
        },
        {
          "internalType": "uint256",
          "name": "refunded",
          "type": "uint256"
        },
        {
          "internalType": "uint256",
          "name": "numEntriesSettled",
          "type": "uint256"
        }
      ],
      "payable": false,
      "stateMutability": "nonpayable",
      "type": "function"
    },
    {
      "constant": true,
      "inputs": [
        {
          "internalType": "address",
          "name": "_issuer",
          "type": "address"
        }
      ],
      "name": "collateralisationRatio",
      "outputs": [
        {
          "internalType": "uint256",
          "name": "",
          "type": "uint256"
        }
      ],
      "payable": false,
      "stateMutability": "view",
      "type": "function"
    },
    {
      "constant": true,
      "inputs": [
        {
          "internalType": "address",
          "name": "account",
          "type": "address"
        }
      ],
      "name": "collateral",
      "outputs": [
        {
          "internalType": "uint256",
          "name": "",
          "type": "uint256"
        }
      ],
      "payable": false,
      "stateMutability": "view",
      "type": "function"
    },
    {
      "constant": true,
      "inputs": [
        {
          "internalType": "address",
          "name": "account",
          "type": "address"
        }
      ],
      "name": "transferableSynthetix",
      "outputs": [
        {
          "internalType": "uint256",
          "name": "transferable",
          "type": "uint256"
        }
      ],
      "payable": false,
      "stateMutability": "view",
      "type": "function"
    },
    {
      "constant": false,
      "inputs": [],
      "name": "mint",
      "outputs": [
        {
          "internalType": "bool",
          "name": "",
          "type": "bool"
        }
      ],
      "payable": false,
      "stateMutability": "nonpayable",
      "type": "function"
    },
    {
      "constant": false,
      "inputs": [
        {
          "internalType": "address",
          "name": "account",
          "type": "address"
        },
        {
          "internalType": "uint256",
          "name": "susdAmount",
          "type": "uint256"
        }
      ],
      "name": "liquidateDelinquentAccount",
      "outputs": [
        {
          "internalType": "bool",
          "name": "",
          "type": "bool"
        }
      ],
      "payable": false,
      "stateMutability": "nonpayable",
      "type": "function"
    },
    {
      "constant": false,
      "inputs": [
        {
          "internalType": "address",
          "name": "account",
          "type": "address"
        },
        {
          "internalType": "bytes32",
          "name": "fromCurrencyKey",
          "type": "bytes32"
        },
        {
          "internalType": "uint256",
          "name": "fromAmount",
          "type": "uint256"
        },
        {
          "internalType": "bytes32",
          "name": "toCurrencyKey",
          "type": "bytes32"
        },
        {
          "internalType": "uint256",
          "name": "toAmount",
          "type": "uint256"
        },
        {
          "internalType": "address",
          "name": "toAddress",
          "type": "address"
        }
      ],
      "name": "emitSynthExchange",
      "outputs": [],
      "payable": false,
      "stateMutability": "nonpayable",
      "type": "function"
    },
    {
      "constant": false,
      "inputs": [
        {
          "internalType": "address",
          "name": "account",
          "type": "address"
        },
        {
          "internalType": "bytes32",
          "name": "currencyKey",
          "type": "bytes32"
        },
        {
          "internalType": "uint256",
          "name": "amount",
          "type": "uint256"
        }
      ],
      "name": "emitExchangeReclaim",
      "outputs": [],
      "payable": false,
      "stateMutability": "nonpayable",
      "type": "function"
    },
    {
      "constant": false,
      "inputs": [
        {
          "internalType": "address",
          "name": "account",
          "type": "address"
        },
        {
          "internalType": "bytes32",
          "name": "currencyKey",
          "type": "bytes32"
        },
        {
          "internalType": "uint256",
          "name": "amount",
          "type": "uint256"
        }
      ],
      "name": "emitExchangeRebate",
      "outputs": [],
      "payable": false,
      "stateMutability": "nonpayable",
      "type": "function"
    }
  ],
  "bytecode": "0x60806040526040518060c001604052807f53797374656d537461747573000000000000000000000000000000000000000081526020017f45786368616e676572000000000000000000000000000000000000000000000081526020017f497373756572000000000000000000000000000000000000000000000000000081526020017f537570706c795363686564756c6500000000000000000000000000000000000081526020017f52657761726473446973747269627574696f6e0000000000000000000000000081526020017f53796e7468657469785374617465000000000000000000000000000000000000815250600e90600662000103929190620008ea565b503480156200011157600080fd5b506040516200957938038062009579833981810160405260a08110156200013757600080fd5b81019080805190602001909291908051906020019092919080519060200190929190805190602001909291908051906020019092919050505080600e601880602002604051908101604052809291908260188015620001ac576020028201915b81548152602001906001019080831162000197575b505050505086866040518060400160405280601781526020017f53796e746865746978204e6574776f726b20546f6b656e0000000000000000008152506040518060400160405280600381526020017f534e5800000000000000000000000000000000000000000000000000000000008152508760128a8681600073ffffffffffffffffffffffffffffffffffffffff168173ffffffffffffffffffffffffffffffffffffffff161415620002c9576040517f08c379a00000000000000000000000000000000000000000000000000000000081526004018080602001828103825260198152602001807f4f776e657220616464726573732063616e6e6f7420626520300000000000000081525060200191505060405180910390fd5b806000806101000a81548173ffffffffffffffffffffffffffffffffffffffff021916908373ffffffffffffffffffffffffffffffffffffffff1602179055507fb532073b38c83145e3e5135377a08bf9aab55bc0fd7c1179cd4fb995d2a5159c600082604051808373ffffffffffffffffffffffffffffffffffffffff1673ffffffffffffffffffffffffffffffffffffffff1681526020018273ffffffffffffffffffffffffffffffffffffffff1673ffffffffffffffffffffffffffffffffffffffff1681526020019250505060405180910390a150600073ffffffffffffffffffffffffffffffffffffffff166000809054906101000a900473ffffffffffffffffffffffffffffffffffffffff1673ffffffffffffffffffffffffffffffffffffffff16141562000467576040517f08c379a00000000000000000000000000000000000000000000000000000000081526004018080602001828103825260118152602001807f4f776e6572206d7573742062652073657400000000000000000000000000000081525060200191505060405180910390fd5b6000809054906101000a900473ffffffffffffffffffffffffffffffffffffffff16600360016101000a81548173ffffffffffffffffffffffffffffffffffffffff021916908373ffffffffffffffffffffffffffffffffffffffff1602179055507fd5da63a0b864b315bc04128dedbc93888c8529ee6cf47ce664dc204339228c536000809054906101000a900473ffffffffffffffffffffffffffffffffffffffff16604051808273ffffffffffffffffffffffffffffffffffffffff1673ffffffffffffffffffffffffffffffffffffffff16815260200191505060405180910390a1600073ffffffffffffffffffffffffffffffffffffffff166000809054906101000a900473ffffffffffffffffffffffffffffffffffffffff1673ffffffffffffffffffffffffffffffffffffffff16141562000612576040517f08c379a00000000000000000000000000000000000000000000000000000000081526004018080602001828103825260118152602001807f4f776e6572206d7573742062652073657400000000000000000000000000000081525060200191505060405180910390fd5b80600460006101000a81548173ffffffffffffffffffffffffffffffffffffffff021916908373ffffffffffffffffffffffffffffffffffffffff1602179055507ffc80377ca9c49cc11ae6982f390a42db976d5530af7c43889264b13fbbd7c57e81604051808273ffffffffffffffffffffffffffffffffffffffff1673ffffffffffffffffffffffffffffffffffffffff16815260200191505060405180910390a15085600760006101000a81548173ffffffffffffffffffffffffffffffffffffffff021916908373ffffffffffffffffffffffffffffffffffffffff1602179055508460089080519060200190620007109291906200092f565b508360099080519060200190620007299291906200092f565b5082600a8190555081600b60006101000a81548160ff021916908360ff16021790555050505050505050600073ffffffffffffffffffffffffffffffffffffffff166000809054906101000a900473ffffffffffffffffffffffffffffffffffffffff1673ffffffffffffffffffffffffffffffffffffffff16141562000818576040517f08c379a00000000000000000000000000000000000000000000000000000000081526004018080602001828103825260118152602001807f4f776e6572206d7573742062652073657400000000000000000000000000000081525060200191505060405180910390fd5b60008090505b60188110156200089b576000801b8282601881106200083957fe5b6020020151146200088757600d8282601881106200085357fe5b602002015190806001815401808255809150509060018203906000526020600020016000909192909190915055506200088d565b6200089b565b80806001019150506200081e565b5081600b60016101000a81548173ffffffffffffffffffffffffffffffffffffffff021916908373ffffffffffffffffffffffffffffffffffffffff1602179055505050505050505062000a06565b82601881019282156200091c579160200282015b828111156200091b578251825591602001919060010190620008fe565b5b5090506200092b9190620009b6565b5090565b828054600181600116156101000203166002900490600052602060002090601f016020900481019282601f106200097257805160ff1916838001178555620009a3565b82800160010185558215620009a3579182015b82811115620009a257825182559160200191906001019062000985565b5b509050620009b29190620009de565b5090565b620009db91905b80821115620009d7576000816000905550600101620009bd565b5090565b90565b62000a0391905b80821115620009ff576000816000905550600101620009e5565b5090565b90565b618b638062000a166000396000f3fe608060405234801561001057600080fd5b50600436106104125760003560e01c80638da5cb5b11610220578063bc67f83211610130578063dbf63340116100b8578063e8e09b8b11610087578063e8e09b8b1461165c578063e90dd9e2146116aa578063ec556889146116f4578063ee52a2f31461173e578063f354cad11461179457610412565b8063dbf6334014611542578063dd62ed3e14611560578063e3235c91146115d8578063e6203ed1146115f657610412565b8063c6c9d828116100ff578063c6c9d8281461139c578063c836fa0a146113de578063d37c4d8b14611454578063d60888e4146114b6578063d67bdd25146114f857610412565b8063bc67f832146112b6578063bd32aa44146112fa578063c2bf388014611304578063c58aaae61461135257610412565b80639f769807116101b3578063a9059cbb11610182578063a9059cbb14611186578063ab49848c146111ec578063ace88afd14611232578063af086c7e1461128a578063b8225dec1461129457610412565b80639f76980714611074578063a311c7c2146110b8578063a461fc8214611110578063a5fdc5de1461112e57610412565b80639741fb22116101ef5780639741fb2214610fc6578063987757dd14610fd05780639cb8a26a146110205780639cbdaeb61461102a57610412565b80638da5cb5b14610e975780639324cac714610ee157806395d89b4114610eff57806397107d6d14610f8257610412565b80632c955fa7116103265780636ac0bf9c116102ae57806372cb051f1161027d57806372cb051f14610d5057806379ba509714610daf578063835e119c14610db957806383d625d414610e275780638a29001414610e6957610412565b80636ac0bf9c14610bbc5780636c00f31014610c145780636f01a98614610ca057806370a0823114610cf857610412565b806332608039116102f55780633260803914610a5a5780633278c96014610ac85780633be99e6f14610ad257806353a47bb714610b16578063631e144414610b6057610412565b80632c955fa71461098a5780632e0f2625146109ce578063313ce567146109f2578063320223db14610a1657610412565b806316b2213f116103a95780631fce304d116103785780631fce304d146107c957806320714f881461080f57806323b872dd14610853578063295da87d146108d95780632a9053181461090757610412565b806316b2213f146106b257806317c70de41461070a57806318160ddd14610728578063188214001461074657610412565b80631137aedf116103e55780631137aedf146105a25780631249c58b14610608578063131b0ae71461062a5780631627540c1461066e57610412565b806304f3bcec1461041757806305b3c1c91461046157806306fdde03146104b9578063095ea7b31461053c575b600080fd5b61041f6117b6565b604051808273ffffffffffffffffffffffffffffffffffffffff1673ffffffffffffffffffffffffffffffffffffffff16815260200191505060405180910390f35b6104a36004803603602081101561047757600080fd5b81019080803573ffffffffffffffffffffffffffffffffffffffff1690602001909291905050506117dc565b6040518082815260200191505060405180910390f35b6104c16118a4565b6040518080602001828103825283818151815260200191508051906020019080838360005b838110156105015780820151818401526020810190506104e6565b50505050905090810190601f16801561052e5780820380516001836020036101000a031916815260200191505b509250505060405180910390f35b6105886004803603604081101561055257600080fd5b81019080803573ffffffffffffffffffffffffffffffffffffffff16906020019092919080359060200190929190505050611942565b604051808215151515815260200191505060405180910390f35b6105e4600480360360208110156105b857600080fd5b81019080803573ffffffffffffffffffffffffffffffffffffffff169060200190929190505050611bc3565b60405180848152602001838152602001828152602001935050505060405180910390f35b610610611ca8565b604051808215151515815260200191505060405180910390f35b61066c6004803603602081101561064057600080fd5b81019080803573ffffffffffffffffffffffffffffffffffffffff16906020019092919050505061241b565b005b6106b06004803603602081101561068457600080fd5b81019080803573ffffffffffffffffffffffffffffffffffffffff169060200190929190505050612504565b005b6106f4600480360360208110156106c857600080fd5b81019080803573ffffffffffffffffffffffffffffffffffffffff169060200190929190505050612650565b6040518082815260200191505060405180910390f35b610712612718565b6040518082815260200191505060405180910390f35b61073061271e565b6040518082815260200191505060405180910390f35b61074e612724565b6040518080602001828103825283818151815260200191508051906020019080838360005b8381101561078e578082015181840152602081019050610773565b50505050905090810190601f1680156107bb5780820380516001836020036101000a031916815260200191505b509250505060405180910390f35b6107f5600480360360208110156107df57600080fd5b810190808035906020019092919050505061275d565b604051808215151515815260200191505060405180910390f35b6108516004803603602081101561082557600080fd5b81019080803573ffffffffffffffffffffffffffffffffffffffff169060200190929190505050612851565b005b6108bf6004803603606081101561086957600080fd5b81019080803573ffffffffffffffffffffffffffffffffffffffff169060200190929190803573ffffffffffffffffffffffffffffffffffffffff16906020019092919080359060200190929190505050612a40565b604051808215151515815260200191505060405180910390f35b610905600480360360208110156108ef57600080fd5b8101908080359060200190929190505050612c36565b005b61090f612eb3565b6040518080602001828103825283818151815260200191508051906020019080838360005b8381101561094f578082015181840152602081019050610934565b50505050905090810190601f16801561097c5780820380516001836020036101000a031916815260200191505b509250505060405180910390f35b6109cc600480360360208110156109a057600080fd5b81019080803573ffffffffffffffffffffffffffffffffffffffff169060200190929190505050612eec565b005b6109d6613195565b604051808260ff1660ff16815260200191505060405180910390f35b6109fa61319a565b604051808260ff1660ff16815260200191505060405180910390f35b610a5860048036036020811015610a2c57600080fd5b81019080803573ffffffffffffffffffffffffffffffffffffffff1690602001909291905050506131ad565b005b610a8660048036036020811015610a7057600080fd5b8101908080359060200190929190505050613456565b604051808273ffffffffffffffffffffffffffffffffffffffff1673ffffffffffffffffffffffffffffffffffffffff16815260200191505060405180910390f35b610ad06134f2565b005b610b1460048036036020811015610ae857600080fd5b81019080803573ffffffffffffffffffffffffffffffffffffffff1690602001909291905050506135e8565b005b610b1e613847565b604051808273ffffffffffffffffffffffffffffffffffffffff1673ffffffffffffffffffffffffffffffffffffffff16815260200191505060405180910390f35b610ba260048036036020811015610b7657600080fd5b81019080803573ffffffffffffffffffffffffffffffffffffffff16906020019092919050505061386d565b604051808215151515815260200191505060405180910390f35b610bfe60048036036020811015610bd257600080fd5b81019080803573ffffffffffffffffffffffffffffffffffffffff169060200190929190505050613a9f565b6040518082815260200191505060405180910390f35b610c9e600480360360c0811015610c2a57600080fd5b81019080803573ffffffffffffffffffffffffffffffffffffffff16906020019092919080359060200190929190803590602001909291908035906020019092919080359060200190929190803573ffffffffffffffffffffffffffffffffffffffff169060200190929190505050613c54565b005b610cf660048036036060811015610cb657600080fd5b81019080803573ffffffffffffffffffffffffffffffffffffffff1690602001909291908035906020019092919080359060200190929190505050613eb1565b005b610d3a60048036036020811015610d0e57600080fd5b81019080803573ffffffffffffffffffffffffffffffffffffffff1690602001909291905050506140c7565b6040518082815260200191505060405180910390f35b610d586141aa565b6040518080602001828103825283818151815260200191508051906020019060200280838360005b83811015610d9b578082015181840152602081019050610d80565b505050509050019250505060405180910390f35b610db76142d3565b005b610de560048036036020811015610dcf57600080fd5b81019080803590602001909291905050506144f9565b604051808273ffffffffffffffffffffffffffffffffffffffff1673ffffffffffffffffffffffffffffffffffffffff16815260200191505060405180910390f35b610e5360048036036020811015610e3d57600080fd5b8101908080359060200190929190505050614595565b6040518082815260200191505060405180910390f35b610e9560048036036020811015610e7f57600080fd5b810190808035906020019092919050505061463e565b005b610e9f6148bb565b604051808273ffffffffffffffffffffffffffffffffffffffff1673ffffffffffffffffffffffffffffffffffffffff16815260200191505060405180910390f35b610ee96148e0565b6040518082815260200191505060405180910390f35b610f07614904565b6040518080602001828103825283818151815260200191508051906020019080838360005b83811015610f47578082015181840152602081019050610f2c565b50505050905090810190601f168015610f745780820380516001836020036101000a031916815260200191505b509250505060405180910390f35b610fc460048036036020811015610f9857600080fd5b81019080803573ffffffffffffffffffffffffffffffffffffffff1690602001909291905050506149a2565b005b610fce614aee565b005b610ffc60048036036020811015610fe657600080fd5b8101908080359060200190929190505050614d62565b60405180848152602001838152602001828152602001935050505060405180910390f35b611028614fc0565b005b611032615223565b604051808273ffffffffffffffffffffffffffffffffffffffff1673ffffffffffffffffffffffffffffffffffffffff16815260200191505060405180910390f35b6110b66004803603602081101561108a57600080fd5b81019080803573ffffffffffffffffffffffffffffffffffffffff169060200190929190505050615249565b005b6110fa600480360360208110156110ce57600080fd5b81019080803573ffffffffffffffffffffffffffffffffffffffff1690602001909291905050506154c7565b6040518082815260200191505060405180910390f35b61111861558f565b6040518082815260200191505060405180910390f35b6111706004803603602081101561114457600080fd5b81019080803573ffffffffffffffffffffffffffffffffffffffff169060200190929190505050615596565b6040518082815260200191505060405180910390f35b6111d26004803603604081101561119c57600080fd5b81019080803573ffffffffffffffffffffffffffffffffffffffff1690602001909291908035906020019092919050505061565e565b604051808215151515815260200191505060405180910390f35b6111f4615877565b6040518082601860200280838360005b8381101561121f578082015181840152602081019050611204565b5050505090500191505060405180910390f35b6112886004803603606081101561124857600080fd5b81019080803573ffffffffffffffffffffffffffffffffffffffff16906020019092919080359060200190929190803590602001909291905050506158d0565b005b611292615ae6565b005b61129c615d5a565b604051808215151515815260200191505060405180910390f35b6112f8600480360360208110156112cc57600080fd5b81019080803573ffffffffffffffffffffffffffffffffffffffff169060200190929190505050615d6d565b005b611302615ecc565b005b6113506004803603604081101561131a57600080fd5b81019080803573ffffffffffffffffffffffffffffffffffffffff16906020019092919080359060200190929190505050615fcf565b005b61135a616281565b604051808273ffffffffffffffffffffffffffffffffffffffff1673ffffffffffffffffffffffffffffffffffffffff16815260200191505060405180910390f35b6113c8600480360360208110156113b257600080fd5b81019080803590602001909291905050506162a7565b6040518082815260200191505060405180910390f35b61143e600480360360808110156113f457600080fd5b81019080803573ffffffffffffffffffffffffffffffffffffffff1690602001909291908035906020019092919080359060200190929190803590602001909291905050506162c8565b6040518082815260200191505060405180910390f35b6114a06004803603604081101561146a57600080fd5b81019080803573ffffffffffffffffffffffffffffffffffffffff16906020019092919080359060200190929190505050616631565b6040518082815260200191505060405180910390f35b6114e2600480360360208110156114cc57600080fd5b8101908080359060200190929190505050616702565b6040518082815260200191505060405180910390f35b6115006167ab565b604051808273ffffffffffffffffffffffffffffffffffffffff1673ffffffffffffffffffffffffffffffffffffffff16815260200191505060405180910390f35b61154a6167d1565b6040518082815260200191505060405180910390f35b6115c26004803603604081101561157657600080fd5b81019080803573ffffffffffffffffffffffffffffffffffffffff169060200190929190803573ffffffffffffffffffffffffffffffffffffffff169060200190929190505050616860565b6040518082815260200191505060405180910390f35b6115e0616978565b6040518082815260200191505060405180910390f35b6116426004803603604081101561160c57600080fd5b81019080803573ffffffffffffffffffffffffffffffffffffffff1690602001909291908035906020019092919050505061697d565b604051808215151515815260200191505060405180910390f35b6116a86004803603604081101561167257600080fd5b81019080803573ffffffffffffffffffffffffffffffffffffffff16906020019092919080359060200190929190505050616cc5565b005b6116b2616f77565b604051808273ffffffffffffffffffffffffffffffffffffffff1673ffffffffffffffffffffffffffffffffffffffff16815260200191505060405180910390f35b6116fc616f9d565b604051808273ffffffffffffffffffffffffffffffffffffffff1673ffffffffffffffffffffffffffffffffffffffff16815260200191505060405180910390f35b61177e6004803603606081101561175457600080fd5b81019080803590602001909291908035906020019092919080359060200190929190505050616fc3565b6040518082815260200191505060405180910390f35b61179c61734d565b604051808215151515815260200191505060405180910390f35b600b60019054906101000a900473ffffffffffffffffffffffffffffffffffffffff1681565b60006117e66173dc565b73ffffffffffffffffffffffffffffffffffffffff166305b3c1c9836040518263ffffffff1660e01b8152600401808273ffffffffffffffffffffffffffffffffffffffff1673ffffffffffffffffffffffffffffffffffffffff16815260200191505060206040518083038186803b15801561186257600080fd5b505afa158015611876573d6000803e3d6000fd5b505050506040513d602081101561188c57600080fd5b81019080805190602001909291905050509050919050565b60088054600181600116156101000203166002900480601f01602080910402602001604051908101604052809291908181526020018280546001816001161561010002031660029004801561193a5780601f1061190f5761010080835404028352916020019161193a565b820191906000526020600020905b81548152906001019060200180831161191d57829003601f168201915b505050505081565b6000600460009054906101000a900473ffffffffffffffffffffffffffffffffffffffff1673ffffffffffffffffffffffffffffffffffffffff163373ffffffffffffffffffffffffffffffffffffffff16141580156119f05750600560009054906101000a900473ffffffffffffffffffffffffffffffffffffffff1673ffffffffffffffffffffffffffffffffffffffff163373ffffffffffffffffffffffffffffffffffffffff1614155b8015611a4a57503373ffffffffffffffffffffffffffffffffffffffff16600660009054906101000a900473ffffffffffffffffffffffffffffffffffffffff1673ffffffffffffffffffffffffffffffffffffffff1614155b15611a915733600660006101000a81548173ffffffffffffffffffffffffffffffffffffffff021916908373ffffffffffffffffffffffffffffffffffffffff1602179055505b6000600660009054906101000a900473ffffffffffffffffffffffffffffffffffffffff169050600760009054906101000a900473ffffffffffffffffffffffffffffffffffffffff1673ffffffffffffffffffffffffffffffffffffffff1663da46098c8286866040518463ffffffff1660e01b8152600401808473ffffffffffffffffffffffffffffffffffffffff1673ffffffffffffffffffffffffffffffffffffffff1681526020018373ffffffffffffffffffffffffffffffffffffffff1673ffffffffffffffffffffffffffffffffffffffff1681526020018281526020019350505050600060405180830381600087803b158015611b9557600080fd5b505af1158015611ba9573d6000803e3d6000fd5b50505050611bb8818585617442565b600191505092915050565b6000806000611bd06173dc565b73ffffffffffffffffffffffffffffffffffffffff16631137aedf856040518263ffffffff1660e01b8152600401808273ffffffffffffffffffffffffffffffffffffffff1673ffffffffffffffffffffffffffffffffffffffff16815260200191505060606040518083038186803b158015611c4c57600080fd5b505afa158015611c60573d6000803e3d6000fd5b505050506040513d6060811015611c7657600080fd5b810190808051906020019092919080519060200190929190805190602001909291905050509250925092509193909250565b6000611cb26175ad565b73ffffffffffffffffffffffffffffffffffffffff16637c3125416040518163ffffffff1660e01b815260040160006040518083038186803b158015611cf757600080fd5b505afa158015611d0b573d6000803e3d6000fd5b50505050600073ffffffffffffffffffffffffffffffffffffffff16611d2f617613565b73ffffffffffffffffffffffffffffffffffffffff161415611db9576040517f08c379a000000000000000000000000000000000000000000000000000000000815260040180806020018281038252601b8152602001807f52657761726473446973747269627574696f6e206e6f7420736574000000000081525060200191505060405180910390fd5b6000611dc361765c565b90506000611dcf617613565b905060008273ffffffffffffffffffffffffffffffffffffffff1663cc5c095c6040518163ffffffff1660e01b815260040160206040518083038186803b158015611e1957600080fd5b505afa158015611e2d573d6000803e3d6000fd5b505050506040513d6020811015611e4357600080fd5b8101908080519060200190929190505050905060008111611ecc576040517f08c379a00000000000000000000000000000000000000000000000000000000081526004018080602001828103825260158152602001807f4e6f20737570706c79206973206d696e7461626c65000000000000000000000081525060200191505060405180910390fd5b8273ffffffffffffffffffffffffffffffffffffffff16637e7961d7826040518263ffffffff1660e01b815260040180828152602001915050602060405180830381600087803b158015611f1f57600080fd5b505af1158015611f33573d6000803e3d6000fd5b505050506040513d6020811015611f4957600080fd5b81019080805190602001909291905050505060008373ffffffffffffffffffffffffffffffffffffffff16639bdd7ac76040518163ffffffff1660e01b815260040160206040518083038186803b158015611fa357600080fd5b505afa158015611fb7573d6000803e3d6000fd5b505050506040513d6020811015611fcd57600080fd5b810190808051906020019092919050505090506000611ff582846176c290919063ffffffff16565b9050600760009054906101000a900473ffffffffffffffffffffffffffffffffffffffff1673ffffffffffffffffffffffffffffffffffffffff1663b46310f68561212284600760009054906101000a900473ffffffffffffffffffffffffffffffffffffffff1673ffffffffffffffffffffffffffffffffffffffff166370a082318a6040518263ffffffff1660e01b8152600401808273ffffffffffffffffffffffffffffffffffffffff1673ffffffffffffffffffffffffffffffffffffffff16815260200191505060206040518083038186803b1580156120d957600080fd5b505afa1580156120ed573d6000803e3d6000fd5b505050506040513d602081101561210357600080fd5b810190808051906020019092919050505061770c90919063ffffffff16565b6040518363ffffffff1660e01b8152600401808373ffffffffffffffffffffffffffffffffffffffff1673ffffffffffffffffffffffffffffffffffffffff16815260200182815260200192505050600060405180830381600087803b15801561218b57600080fd5b505af115801561219f573d6000803e3d6000fd5b505050506121ae308583617794565b8373ffffffffffffffffffffffffffffffffffffffff166359974e38826040518263ffffffff1660e01b815260040180828152602001915050602060405180830381600087803b15801561220157600080fd5b505af1158015612215573d6000803e3d6000fd5b505050506040513d602081101561222b57600080fd5b810190808051906020019092919050505050600760009054906101000a900473ffffffffffffffffffffffffffffffffffffffff1673ffffffffffffffffffffffffffffffffffffffff1663b46310f63361236885600760009054906101000a900473ffffffffffffffffffffffffffffffffffffffff1673ffffffffffffffffffffffffffffffffffffffff166370a08231336040518263ffffffff1660e01b8152600401808273ffffffffffffffffffffffffffffffffffffffff1673ffffffffffffffffffffffffffffffffffffffff16815260200191505060206040518083038186803b15801561231f57600080fd5b505afa158015612333573d6000803e3d6000fd5b505050506040513d602081101561234957600080fd5b810190808051906020019092919050505061770c90919063ffffffff16565b6040518363ffffffff1660e01b8152600401808373ffffffffffffffffffffffffffffffffffffffff1673ffffffffffffffffffffffffffffffffffffffff16815260200182815260200192505050600060405180830381600087803b1580156123d157600080fd5b505af11580156123e5573d6000803e3d6000fd5b505050506123f4303384617794565b61240983600a5461770c90919063ffffffff16565b600a8190555060019550505050505090565b6000809054906101000a900473ffffffffffffffffffffffffffffffffffffffff1673ffffffffffffffffffffffffffffffffffffffff163373ffffffffffffffffffffffffffffffffffffffff16146124c0576040517f08c379a000000000000000000000000000000000000000000000000000000000815260040180806020018281038252602f815260200180618a42602f913960400191505060405180910390fd5b80600560006101000a81548173ffffffffffffffffffffffffffffffffffffffff021916908373ffffffffffffffffffffffffffffffffffffffff16021790555050565b6000809054906101000a900473ffffffffffffffffffffffffffffffffffffffff1673ffffffffffffffffffffffffffffffffffffffff163373ffffffffffffffffffffffffffffffffffffffff16146125a9576040517f08c379a000000000000000000000000000000000000000000000000000000000815260040180806020018281038252602f815260200180618a42602f913960400191505060405180910390fd5b80600160006101000a81548173ffffffffffffffffffffffffffffffffffffffff021916908373ffffffffffffffffffffffffffffffffffffffff1602179055507f906a1c6bd7e3091ea86693dd029a831c19049ce77f1dce2ce0bab1cacbabce2281604051808273ffffffffffffffffffffffffffffffffffffffff1673ffffffffffffffffffffffffffffffffffffffff16815260200191505060405180910390a150565b600061265a6173dc565b73ffffffffffffffffffffffffffffffffffffffff166316b2213f836040518263ffffffff1660e01b8152600401808273ffffffffffffffffffffffffffffffffffffffff1673ffffffffffffffffffffffffffffffffffffffff16815260200191505060206040518083038186803b1580156126d657600080fd5b505afa1580156126ea573d6000803e3d6000fd5b505050506040513d602081101561270057600080fd5b81019080805190602001909291905050509050919050565b60025481565b600a5481565b6040518060400160405280601781526020017f53796e746865746978204e6574776f726b20546f6b656e00000000000000000081525081565b6000806127686178ff565b73ffffffffffffffffffffffffffffffffffffffff1663059c29ec600660009054906101000a900473ffffffffffffffffffffffffffffffffffffffff16856040518363ffffffff1660e01b8152600401808373ffffffffffffffffffffffffffffffffffffffff1673ffffffffffffffffffffffffffffffffffffffff1681526020018281526020019250505060206040518083038186803b15801561280e57600080fd5b505afa158015612822573d6000803e3d6000fd5b505050506040513d602081101561283857600080fd5b8101908080519060200190929190505050119050919050565b6000809054906101000a900473ffffffffffffffffffffffffffffffffffffffff1673ffffffffffffffffffffffffffffffffffffffff163373ffffffffffffffffffffffffffffffffffffffff16146128f6576040517f08c379a000000000000000000000000000000000000000000000000000000000815260040180806020018281038252602f815260200180618a42602f913960400191505060405180910390fd5b600073ffffffffffffffffffffffffffffffffffffffff168173ffffffffffffffffffffffffffffffffffffffff161415612999576040517f08c379a000000000000000000000000000000000000000000000000000000000815260040180806020018281038252601c8152602001807f42656e6566696369617279206d757374206e6f74206265207a65726f0000000081525060200191505060405180910390fd5b80600360016101000a81548173ffffffffffffffffffffffffffffffffffffffff021916908373ffffffffffffffffffffffffffffffffffffffff1602179055507fd5da63a0b864b315bc04128dedbc93888c8529ee6cf47ce664dc204339228c5381604051808273ffffffffffffffffffffffffffffffffffffffff1673ffffffffffffffffffffffffffffffffffffffff16815260200191505060405180910390a150565b6000600460009054906101000a900473ffffffffffffffffffffffffffffffffffffffff1673ffffffffffffffffffffffffffffffffffffffff163373ffffffffffffffffffffffffffffffffffffffff1614158015612aee5750600560009054906101000a900473ffffffffffffffffffffffffffffffffffffffff1673ffffffffffffffffffffffffffffffffffffffff163373ffffffffffffffffffffffffffffffffffffffff1614155b8015612b4857503373ffffffffffffffffffffffffffffffffffffffff16600660009054906101000a900473ffffffffffffffffffffffffffffffffffffffff1673ffffffffffffffffffffffffffffffffffffffff1614155b15612b8f5733600660006101000a81548173ffffffffffffffffffffffffffffffffffffffff021916908373ffffffffffffffffffffffffffffffffffffffff1602179055505b612b976175ad565b73ffffffffffffffffffffffffffffffffffffffff1663086dabd16040518163ffffffff1660e01b815260040160006040518083038186803b158015612bdc57600080fd5b505afa158015612bf0573d6000803e3d6000fd5b50505050612bfe8483617965565b50612c2d600660009054906101000a900473ffffffffffffffffffffffffffffffffffffffff16858585617cc7565b90509392505050565b612c3e6175ad565b73ffffffffffffffffffffffffffffffffffffffff16637c3125416040518163ffffffff1660e01b815260040160006040518083038186803b158015612c8357600080fd5b505afa158015612c97573d6000803e3d6000fd5b50505050600460009054906101000a900473ffffffffffffffffffffffffffffffffffffffff1673ffffffffffffffffffffffffffffffffffffffff163373ffffffffffffffffffffffffffffffffffffffff1614158015612d475750600560009054906101000a900473ffffffffffffffffffffffffffffffffffffffff1673ffffffffffffffffffffffffffffffffffffffff163373ffffffffffffffffffffffffffffffffffffffff1614155b8015612da157503373ffffffffffffffffffffffffffffffffffffffff16600660009054906101000a900473ffffffffffffffffffffffffffffffffffffffff1673ffffffffffffffffffffffffffffffffffffffff1614155b15612de85733600660006101000a81548173ffffffffffffffffffffffffffffffffffffffff021916908373ffffffffffffffffffffffffffffffffffffffff1602179055505b612df06173dc565b73ffffffffffffffffffffffffffffffffffffffff1663b06e8c65600660009054906101000a900473ffffffffffffffffffffffffffffffffffffffff16836040518363ffffffff1660e01b8152600401808373ffffffffffffffffffffffffffffffffffffffff1673ffffffffffffffffffffffffffffffffffffffff16815260200182815260200192505050600060405180830381600087803b158015612e9857600080fd5b505af1158015612eac573d6000803e3d6000fd5b5050505050565b6040518060400160405280600381526020017f534e58000000000000000000000000000000000000000000000000000000000081525081565b612ef46175ad565b73ffffffffffffffffffffffffffffffffffffffff16637c3125416040518163ffffffff1660e01b815260040160006040518083038186803b158015612f3957600080fd5b505afa158015612f4d573d6000803e3d6000fd5b50505050600460009054906101000a900473ffffffffffffffffffffffffffffffffffffffff1673ffffffffffffffffffffffffffffffffffffffff163373ffffffffffffffffffffffffffffffffffffffff1614158015612ffd5750600560009054906101000a900473ffffffffffffffffffffffffffffffffffffffff1673ffffffffffffffffffffffffffffffffffffffff163373ffffffffffffffffffffffffffffffffffffffff1614155b801561305757503373ffffffffffffffffffffffffffffffffffffffff16600660009054906101000a900473ffffffffffffffffffffffffffffffffffffffff1673ffffffffffffffffffffffffffffffffffffffff1614155b1561309e5733600660006101000a81548173ffffffffffffffffffffffffffffffffffffffff021916908373ffffffffffffffffffffffffffffffffffffffff1602179055505b6130a66173dc565b73ffffffffffffffffffffffffffffffffffffffff16632b3f41aa82600660009054906101000a900473ffffffffffffffffffffffffffffffffffffffff166040518363ffffffff1660e01b8152600401808373ffffffffffffffffffffffffffffffffffffffff1673ffffffffffffffffffffffffffffffffffffffff1681526020018273ffffffffffffffffffffffffffffffffffffffff1673ffffffffffffffffffffffffffffffffffffffff16815260200192505050600060405180830381600087803b15801561317a57600080fd5b505af115801561318e573d6000803e3d6000fd5b5050505050565b601281565b600b60009054906101000a900460ff1681565b6131b56175ad565b73ffffffffffffffffffffffffffffffffffffffff16637c3125416040518163ffffffff1660e01b815260040160006040518083038186803b1580156131fa57600080fd5b505afa15801561320e573d6000803e3d6000fd5b50505050600460009054906101000a900473ffffffffffffffffffffffffffffffffffffffff1673ffffffffffffffffffffffffffffffffffffffff163373ffffffffffffffffffffffffffffffffffffffff16141580156132be5750600560009054906101000a900473ffffffffffffffffffffffffffffffffffffffff1673ffffffffffffffffffffffffffffffffffffffff163373ffffffffffffffffffffffffffffffffffffffff1614155b801561331857503373ffffffffffffffffffffffffffffffffffffffff16600660009054906101000a900473ffffffffffffffffffffffffffffffffffffffff1673ffffffffffffffffffffffffffffffffffffffff1614155b1561335f5733600660006101000a81548173ffffffffffffffffffffffffffffffffffffffff021916908373ffffffffffffffffffffffffffffffffffffffff1602179055505b6133676173dc565b73ffffffffffffffffffffffffffffffffffffffff1663fd864ccf82600660009054906101000a900473ffffffffffffffffffffffffffffffffffffffff166040518363ffffffff1660e01b8152600401808373ffffffffffffffffffffffffffffffffffffffff1673ffffffffffffffffffffffffffffffffffffffff1681526020018273ffffffffffffffffffffffffffffffffffffffff1673ffffffffffffffffffffffffffffffffffffffff16815260200192505050600060405180830381600087803b15801561343b57600080fd5b505af115801561344f573d6000803e3d6000fd5b5050505050565b60006134606173dc565b73ffffffffffffffffffffffffffffffffffffffff166332608039836040518263ffffffff1660e01b81526004018082815260200191505060206040518083038186803b1580156134b057600080fd5b505afa1580156134c4573d6000803e3d6000fd5b505050506040513d60208110156134da57600080fd5b81019080805190602001909291905050509050919050565b6000809054906101000a900473ffffffffffffffffffffffffffffffffffffffff1673ffffffffffffffffffffffffffffffffffffffff163373ffffffffffffffffffffffffffffffffffffffff1614613597576040517f08c379a000000000000000000000000000000000000000000000000000000000815260040180806020018281038252602f815260200180618a42602f913960400191505060405180910390fd5b60006002819055506000600360006101000a81548160ff0219169083151502179055507f6adcc7125002935e0aa31697538ebbd65cfddf20431eb6ecdcfc3e238bfd082c60405160405180910390a1565b6000809054906101000a900473ffffffffffffffffffffffffffffffffffffffff1673ffffffffffffffffffffffffffffffffffffffff163373ffffffffffffffffffffffffffffffffffffffff161461368d576040517f08c379a000000000000000000000000000000000000000000000000000000000815260040180806020018281038252602f815260200180618a42602f913960400191505060405180910390fd5b80600b60016101000a81548173ffffffffffffffffffffffffffffffffffffffff021916908373ffffffffffffffffffffffffffffffffffffffff16021790555060008090505b600d80549050811015613843576000600d82815481106136f057fe5b90600052602060002001549050600b60019054906101000a900473ffffffffffffffffffffffffffffffffffffffff1673ffffffffffffffffffffffffffffffffffffffff1663dacb2d01826040518263ffffffff1660e01b81526004018082815260200180602001828103825260178152602001807f5265736f6c766572206d697373696e67207461726765740000000000000000008152506020019250505060206040518083038186803b1580156137a957600080fd5b505afa1580156137bd573d6000803e3d6000fd5b505050506040513d60208110156137d357600080fd5b8101908080519060200190929190505050600c600083815260200190815260200160002060006101000a81548173ffffffffffffffffffffffffffffffffffffffff021916908373ffffffffffffffffffffffffffffffffffffffff1602179055505080806001019150506136d4565b5050565b600160009054906101000a900473ffffffffffffffffffffffffffffffffffffffff1681565b60008173ffffffffffffffffffffffffffffffffffffffff16600b60019054906101000a900473ffffffffffffffffffffffffffffffffffffffff1673ffffffffffffffffffffffffffffffffffffffff16146138cd5760009050613a9a565b60008090505b600d80549050811015613a94576000600d82815481106138ef57fe5b90600052602060002001549050600c600082815260200190815260200160002060009054906101000a900473ffffffffffffffffffffffffffffffffffffffff1673ffffffffffffffffffffffffffffffffffffffff16600b60019054906101000a900473ffffffffffffffffffffffffffffffffffffffff1673ffffffffffffffffffffffffffffffffffffffff166321f8a721836040518263ffffffff1660e01b81526004018082815260200191505060206040518083038186803b1580156139b957600080fd5b505afa1580156139cd573d6000803e3d6000fd5b505050506040513d60208110156139e357600080fd5b810190808051906020019092919050505073ffffffffffffffffffffffffffffffffffffffff16141580613a765750600073ffffffffffffffffffffffffffffffffffffffff16600c600083815260200190815260200160002060009054906101000a900473ffffffffffffffffffffffffffffffffffffffff1673ffffffffffffffffffffffffffffffffffffffff16145b15613a8657600092505050613a9a565b5080806001019150506138d3565b50600190505b919050565b6000613aa96173dc565b73ffffffffffffffffffffffffffffffffffffffff1663db2b91cf83600760009054906101000a900473ffffffffffffffffffffffffffffffffffffffff1673ffffffffffffffffffffffffffffffffffffffff166370a08231866040518263ffffffff1660e01b8152600401808273ffffffffffffffffffffffffffffffffffffffff1673ffffffffffffffffffffffffffffffffffffffff16815260200191505060206040518083038186803b158015613b6457600080fd5b505afa158015613b78573d6000803e3d6000fd5b505050506040513d6020811015613b8e57600080fd5b81019080805190602001909291905050506040518363ffffffff1660e01b8152600401808373ffffffffffffffffffffffffffffffffffffffff1673ffffffffffffffffffffffffffffffffffffffff16815260200182815260200192505050604080518083038186803b158015613c0557600080fd5b505afa158015613c19573d6000803e3d6000fd5b505050506040513d6040811015613c2f57600080fd5b8101908080519060200190929190805190602001909291905050505080915050919050565b613c5c6178ff565b73ffffffffffffffffffffffffffffffffffffffff163373ffffffffffffffffffffffffffffffffffffffff1614613cfc576040517f08c379a000000000000000000000000000000000000000000000000000000000815260040180806020018281038252601e8152602001807f4f6e6c792045786368616e6765722063616e20696e766f6b652074686973000081525060200191505060405180910390fd5b600460009054906101000a900473ffffffffffffffffffffffffffffffffffffffff1673ffffffffffffffffffffffffffffffffffffffff1663907dff978686868686604051602001808681526020018581526020018481526020018381526020018273ffffffffffffffffffffffffffffffffffffffff1673ffffffffffffffffffffffffffffffffffffffff16815260200195505050505050604051602081830303815290604052600260405180806189de603e9139603e0190506040518091039020613dca8b617ef2565b6000806040518763ffffffff1660e01b815260040180806020018781526020018681526020018581526020018460001b81526020018360001b8152602001828103825288818151815260200191508051906020019080838360005b83811015613e40578082015181840152602081019050613e25565b50505050905090810190601f168015613e6d5780820380516001836020036101000a031916815260200191505b50975050505050505050600060405180830381600087803b158015613e9157600080fd5b505af1158015613ea5573d6000803e3d6000fd5b50505050505050505050565b613eb96178ff565b73ffffffffffffffffffffffffffffffffffffffff163373ffffffffffffffffffffffffffffffffffffffff1614613f59576040517f08c379a000000000000000000000000000000000000000000000000000000000815260040180806020018281038252601e8152602001807f4f6e6c792045786368616e6765722063616e20696e766f6b652074686973000081525060200191505060405180910390fd5b600460009054906101000a900473ffffffffffffffffffffffffffffffffffffffff1673ffffffffffffffffffffffffffffffffffffffff1663907dff978383604051602001808381526020018281526020019250505060405160208183030381529060405260026040518080618ab56027913960270190506040518091039020613fe388617ef2565b6000806040518763ffffffff1660e01b815260040180806020018781526020018681526020018581526020018460001b81526020018360001b8152602001828103825288818151815260200191508051906020019080838360005b8381101561405957808201518184015260208101905061403e565b50505050905090810190601f1680156140865780820380516001836020036101000a031916815260200191505b50975050505050505050600060405180830381600087803b1580156140aa57600080fd5b505af11580156140be573d6000803e3d6000fd5b50505050505050565b6000600760009054906101000a900473ffffffffffffffffffffffffffffffffffffffff1673ffffffffffffffffffffffffffffffffffffffff166370a08231836040518263ffffffff1660e01b8152600401808273ffffffffffffffffffffffffffffffffffffffff1673ffffffffffffffffffffffffffffffffffffffff16815260200191505060206040518083038186803b15801561416857600080fd5b505afa15801561417c573d6000803e3d6000fd5b505050506040513d602081101561419257600080fd5b81019080805190602001909291905050509050919050565b60606141b46173dc565b73ffffffffffffffffffffffffffffffffffffffff166372cb051f6040518163ffffffff1660e01b815260040160006040518083038186803b1580156141f957600080fd5b505afa15801561420d573d6000803e3d6000fd5b505050506040513d6000823e3d601f19601f82011682018060405250602081101561423757600080fd5b810190808051604051939291908464010000000082111561425757600080fd5b8382019150602082018581111561426d57600080fd5b825186602082028301116401000000008211171561428a57600080fd5b8083526020830192505050908051906020019060200280838360005b838110156142c15780820151818401526020810190506142a6565b50505050905001604052505050905090565b600160009054906101000a900473ffffffffffffffffffffffffffffffffffffffff1673ffffffffffffffffffffffffffffffffffffffff163373ffffffffffffffffffffffffffffffffffffffff1614614379576040517f08c379a00000000000000000000000000000000000000000000000000000000081526004018080602001828103825260358152602001806189816035913960400191505060405180910390fd5b7fb532073b38c83145e3e5135377a08bf9aab55bc0fd7c1179cd4fb995d2a5159c6000809054906101000a900473ffffffffffffffffffffffffffffffffffffffff16600160009054906101000a900473ffffffffffffffffffffffffffffffffffffffff16604051808373ffffffffffffffffffffffffffffffffffffffff1673ffffffffffffffffffffffffffffffffffffffff1681526020018273ffffffffffffffffffffffffffffffffffffffff1673ffffffffffffffffffffffffffffffffffffffff1681526020019250505060405180910390a1600160009054906101000a900473ffffffffffffffffffffffffffffffffffffffff166000806101000a81548173ffffffffffffffffffffffffffffffffffffffff021916908373ffffffffffffffffffffffffffffffffffffffff1602179055506000600160006101000a81548173ffffffffffffffffffffffffffffffffffffffff021916908373ffffffffffffffffffffffffffffffffffffffff160217905550565b60006145036173dc565b73ffffffffffffffffffffffffffffffffffffffff1663835e119c836040518263ffffffff1660e01b81526004018082815260200191505060206040518083038186803b15801561455357600080fd5b505afa158015614567573d6000803e3d6000fd5b505050506040513d602081101561457d57600080fd5b81019080805190602001909291905050509050919050565b600061459f6173dc565b73ffffffffffffffffffffffffffffffffffffffff16637b1001b78360006040518363ffffffff1660e01b815260040180838152602001821515151581526020019250505060206040518083038186803b1580156145fc57600080fd5b505afa158015614610573d6000803e3d6000fd5b505050506040513d602081101561462657600080fd5b81019080805190602001909291905050509050919050565b6146466175ad565b73ffffffffffffffffffffffffffffffffffffffff16637c3125416040518163ffffffff1660e01b815260040160006040518083038186803b15801561468b57600080fd5b505afa15801561469f573d6000803e3d6000fd5b50505050600460009054906101000a900473ffffffffffffffffffffffffffffffffffffffff1673ffffffffffffffffffffffffffffffffffffffff163373ffffffffffffffffffffffffffffffffffffffff161415801561474f5750600560009054906101000a900473ffffffffffffffffffffffffffffffffffffffff1673ffffffffffffffffffffffffffffffffffffffff163373ffffffffffffffffffffffffffffffffffffffff1614155b80156147a957503373ffffffffffffffffffffffffffffffffffffffff16600660009054906101000a900473ffffffffffffffffffffffffffffffffffffffff1673ffffffffffffffffffffffffffffffffffffffff1614155b156147f05733600660006101000a81548173ffffffffffffffffffffffffffffffffffffffff021916908373ffffffffffffffffffffffffffffffffffffffff1602179055505b6147f86173dc565b73ffffffffffffffffffffffffffffffffffffffff1663042e0688600660009054906101000a900473ffffffffffffffffffffffffffffffffffffffff16836040518363ffffffff1660e01b8152600401808373ffffffffffffffffffffffffffffffffffffffff1673ffffffffffffffffffffffffffffffffffffffff16815260200182815260200192505050600060405180830381600087803b1580156148a057600080fd5b505af11580156148b4573d6000803e3d6000fd5b5050505050565b6000809054906101000a900473ffffffffffffffffffffffffffffffffffffffff1681565b7f735553440000000000000000000000000000000000000000000000000000000081565b60098054600181600116156101000203166002900480601f01602080910402602001604051908101604052809291908181526020018280546001816001161561010002031660029004801561499a5780601f1061496f5761010080835404028352916020019161499a565b820191906000526020600020905b81548152906001019060200180831161497d57829003601f168201915b505050505081565b6000809054906101000a900473ffffffffffffffffffffffffffffffffffffffff1673ffffffffffffffffffffffffffffffffffffffff163373ffffffffffffffffffffffffffffffffffffffff1614614a47576040517f08c379a000000000000000000000000000000000000000000000000000000000815260040180806020018281038252602f815260200180618a42602f913960400191505060405180910390fd5b80600460006101000a81548173ffffffffffffffffffffffffffffffffffffffff021916908373ffffffffffffffffffffffffffffffffffffffff1602179055507ffc80377ca9c49cc11ae6982f390a42db976d5530af7c43889264b13fbbd7c57e81604051808273ffffffffffffffffffffffffffffffffffffffff1673ffffffffffffffffffffffffffffffffffffffff16815260200191505060405180910390a150565b614af66175ad565b73ffffffffffffffffffffffffffffffffffffffff16637c3125416040518163ffffffff1660e01b815260040160006040518083038186803b158015614b3b57600080fd5b505afa158015614b4f573d6000803e3d6000fd5b50505050600460009054906101000a900473ffffffffffffffffffffffffffffffffffffffff1673ffffffffffffffffffffffffffffffffffffffff163373ffffffffffffffffffffffffffffffffffffffff1614158015614bff5750600560009054906101000a900473ffffffffffffffffffffffffffffffffffffffff1673ffffffffffffffffffffffffffffffffffffffff163373ffffffffffffffffffffffffffffffffffffffff1614155b8015614c5957503373ffffffffffffffffffffffffffffffffffffffff16600660009054906101000a900473ffffffffffffffffffffffffffffffffffffffff1673ffffffffffffffffffffffffffffffffffffffff1614155b15614ca05733600660006101000a81548173ffffffffffffffffffffffffffffffffffffffff021916908373ffffffffffffffffffffffffffffffffffffffff1602179055505b614ca86173dc565b73ffffffffffffffffffffffffffffffffffffffff1663497d704a600660009054906101000a900473ffffffffffffffffffffffffffffffffffffffff166040518263ffffffff1660e01b8152600401808273ffffffffffffffffffffffffffffffffffffffff1673ffffffffffffffffffffffffffffffffffffffff168152602001915050600060405180830381600087803b158015614d4857600080fd5b505af1158015614d5c573d6000803e3d6000fd5b50505050565b6000806000600460009054906101000a900473ffffffffffffffffffffffffffffffffffffffff1673ffffffffffffffffffffffffffffffffffffffff163373ffffffffffffffffffffffffffffffffffffffff1614158015614e135750600560009054906101000a900473ffffffffffffffffffffffffffffffffffffffff1673ffffffffffffffffffffffffffffffffffffffff163373ffffffffffffffffffffffffffffffffffffffff1614155b8015614e6d57503373ffffffffffffffffffffffffffffffffffffffff16600660009054906101000a900473ffffffffffffffffffffffffffffffffffffffff1673ffffffffffffffffffffffffffffffffffffffff1614155b15614eb45733600660006101000a81548173ffffffffffffffffffffffffffffffffffffffff021916908373ffffffffffffffffffffffffffffffffffffffff1602179055505b614ebc6178ff565b73ffffffffffffffffffffffffffffffffffffffff16631b16802c600660009054906101000a900473ffffffffffffffffffffffffffffffffffffffff16866040518363ffffffff1660e01b8152600401808373ffffffffffffffffffffffffffffffffffffffff1673ffffffffffffffffffffffffffffffffffffffff16815260200182815260200192505050606060405180830381600087803b158015614f6457600080fd5b505af1158015614f78573d6000803e3d6000fd5b505050506040513d6060811015614f8e57600080fd5b810190808051906020019092919080519060200190929190805190602001909291905050509250925092509193909250565b6000809054906101000a900473ffffffffffffffffffffffffffffffffffffffff1673ffffffffffffffffffffffffffffffffffffffff163373ffffffffffffffffffffffffffffffffffffffff1614615065576040517f08c379a000000000000000000000000000000000000000000000000000000000815260040180806020018281038252602f815260200180618a42602f913960400191505060405180910390fd5b600360009054906101000a900460ff166150e7576040517f08c379a000000000000000000000000000000000000000000000000000000000815260040180806020018281038252601f8152602001807f53656c66204465737472756374206e6f742079657420696e697469617465640081525060200191505060405180910390fd5b426224ea006002540110615163576040517f08c379a000000000000000000000000000000000000000000000000000000000815260040180806020018281038252601b8152602001807f53656c662064657374727563742064656c6179206e6f74206d6574000000000081525060200191505060405180910390fd5b7f8a09e1677ced846cb537dc2b172043bd05a1a81ad7e0033a7ef8ba762df990b7600360019054906101000a900473ffffffffffffffffffffffffffffffffffffffff16604051808273ffffffffffffffffffffffffffffffffffffffff1673ffffffffffffffffffffffffffffffffffffffff16815260200191505060405180910390a1600360019054906101000a900473ffffffffffffffffffffffffffffffffffffffff1673ffffffffffffffffffffffffffffffffffffffff16ff5b600560009054906101000a900473ffffffffffffffffffffffffffffffffffffffff1681565b600460009054906101000a900473ffffffffffffffffffffffffffffffffffffffff1673ffffffffffffffffffffffffffffffffffffffff163373ffffffffffffffffffffffffffffffffffffffff16141580156152f55750600560009054906101000a900473ffffffffffffffffffffffffffffffffffffffff1673ffffffffffffffffffffffffffffffffffffffff163373ffffffffffffffffffffffffffffffffffffffff1614155b801561534f57503373ffffffffffffffffffffffffffffffffffffffff16600660009054906101000a900473ffffffffffffffffffffffffffffffffffffffff1673ffffffffffffffffffffffffffffffffffffffff1614155b156153965733600660006101000a81548173ffffffffffffffffffffffffffffffffffffffff021916908373ffffffffffffffffffffffffffffffffffffffff1602179055505b6000809054906101000a900473ffffffffffffffffffffffffffffffffffffffff1673ffffffffffffffffffffffffffffffffffffffff16600660009054906101000a900473ffffffffffffffffffffffffffffffffffffffff1673ffffffffffffffffffffffffffffffffffffffff161461547a576040517f08c379a00000000000000000000000000000000000000000000000000000000081526004018080602001828103825260138152602001807f4f776e6572206f6e6c792066756e6374696f6e0000000000000000000000000081525060200191505060405180910390fd5b80600760006101000a81548173ffffffffffffffffffffffffffffffffffffffff021916908373ffffffffffffffffffffffffffffffffffffffff1602179055506154c481617f15565b50565b60006154d16173dc565b73ffffffffffffffffffffffffffffffffffffffff1663a311c7c2836040518263ffffffff1660e01b8152600401808273ffffffffffffffffffffffffffffffffffffffff1673ffffffffffffffffffffffffffffffffffffffff16815260200191505060206040518083038186803b15801561554d57600080fd5b505afa158015615561573d6000803e3d6000fd5b505050506040513d602081101561557757600080fd5b81019080805190602001909291905050509050919050565b6224ea0081565b60006155a06173dc565b73ffffffffffffffffffffffffffffffffffffffff1663a5fdc5de836040518263ffffffff1660e01b8152600401808273ffffffffffffffffffffffffffffffffffffffff1673ffffffffffffffffffffffffffffffffffffffff16815260200191505060206040518083038186803b15801561561c57600080fd5b505afa158015615630573d6000803e3d6000fd5b505050506040513d602081101561564657600080fd5b81019080805190602001909291905050509050919050565b6000600460009054906101000a900473ffffffffffffffffffffffffffffffffffffffff1673ffffffffffffffffffffffffffffffffffffffff163373ffffffffffffffffffffffffffffffffffffffff161415801561570c5750600560009054906101000a900473ffffffffffffffffffffffffffffffffffffffff1673ffffffffffffffffffffffffffffffffffffffff163373ffffffffffffffffffffffffffffffffffffffff1614155b801561576657503373ffffffffffffffffffffffffffffffffffffffff16600660009054906101000a900473ffffffffffffffffffffffffffffffffffffffff1673ffffffffffffffffffffffffffffffffffffffff1614155b156157ad5733600660006101000a81548173ffffffffffffffffffffffffffffffffffffffff021916908373ffffffffffffffffffffffffffffffffffffffff1602179055505b6157b56175ad565b73ffffffffffffffffffffffffffffffffffffffff1663086dabd16040518163ffffffff1660e01b815260040160006040518083038186803b1580156157fa57600080fd5b505afa15801561580e573d6000803e3d6000fd5b5050505061583e600660009054906101000a900473ffffffffffffffffffffffffffffffffffffffff1683617965565b5061586c600660009054906101000a900473ffffffffffffffffffffffffffffffffffffffff1684846180be565b506001905092915050565b61587f61895d565b60008090505b600d805490508110156158cc57600d818154811061589f57fe5b90600052602060002001548282601881106158b657fe5b6020020181815250508080600101915050615885565b5090565b6158d86178ff565b73ffffffffffffffffffffffffffffffffffffffff163373ffffffffffffffffffffffffffffffffffffffff1614615978576040517f08c379a000000000000000000000000000000000000000000000000000000000815260040180806020018281038252601e8152602001807f4f6e6c792045786368616e6765722063616e20696e766f6b652074686973000081525060200191505060405180910390fd5b600460009054906101000a900473ffffffffffffffffffffffffffffffffffffffff1673ffffffffffffffffffffffffffffffffffffffff1663907dff9783836040516020018083815260200182815260200192505050604051602081830303815290604052600260405180806189b66028913960280190506040518091039020615a0288617ef2565b6000806040518763ffffffff1660e01b815260040180806020018781526020018681526020018581526020018460001b81526020018360001b8152602001828103825288818151815260200191508051906020019080838360005b83811015615a78578082015181840152602081019050615a5d565b50505050905090810190601f168015615aa55780820380516001836020036101000a031916815260200191505b50975050505050505050600060405180830381600087803b158015615ac957600080fd5b505af1158015615add573d6000803e3d6000fd5b50505050505050565b615aee6175ad565b73ffffffffffffffffffffffffffffffffffffffff16637c3125416040518163ffffffff1660e01b815260040160006040518083038186803b158015615b3357600080fd5b505afa158015615b47573d6000803e3d6000fd5b50505050600460009054906101000a900473ffffffffffffffffffffffffffffffffffffffff1673ffffffffffffffffffffffffffffffffffffffff163373ffffffffffffffffffffffffffffffffffffffff1614158015615bf75750600560009054906101000a900473ffffffffffffffffffffffffffffffffffffffff1673ffffffffffffffffffffffffffffffffffffffff163373ffffffffffffffffffffffffffffffffffffffff1614155b8015615c5157503373ffffffffffffffffffffffffffffffffffffffff16600660009054906101000a900473ffffffffffffffffffffffffffffffffffffffff1673ffffffffffffffffffffffffffffffffffffffff1614155b15615c985733600660006101000a81548173ffffffffffffffffffffffffffffffffffffffff021916908373ffffffffffffffffffffffffffffffffffffffff1602179055505b615ca06173dc565b73ffffffffffffffffffffffffffffffffffffffff1663c8977132600660009054906101000a900473ffffffffffffffffffffffffffffffffffffffff166040518263ffffffff1660e01b8152600401808273ffffffffffffffffffffffffffffffffffffffff1673ffffffffffffffffffffffffffffffffffffffff168152602001915050600060405180830381600087803b158015615d4057600080fd5b505af1158015615d54573d6000803e3d6000fd5b50505050565b600360009054906101000a900460ff1681565b600460009054906101000a900473ffffffffffffffffffffffffffffffffffffffff1673ffffffffffffffffffffffffffffffffffffffff163373ffffffffffffffffffffffffffffffffffffffff161480615e165750600560009054906101000a900473ffffffffffffffffffffffffffffffffffffffff1673ffffffffffffffffffffffffffffffffffffffff163373ffffffffffffffffffffffffffffffffffffffff16145b615e88576040517f08c379a00000000000000000000000000000000000000000000000000000000081526004018080602001828103825260178152602001807f4f6e6c79207468652070726f78792063616e2063616c6c00000000000000000081525060200191505060405180910390fd5b80600660006101000a81548173ffffffffffffffffffffffffffffffffffffffff021916908373ffffffffffffffffffffffffffffffffffffffff16021790555050565b6000809054906101000a900473ffffffffffffffffffffffffffffffffffffffff1673ffffffffffffffffffffffffffffffffffffffff163373ffffffffffffffffffffffffffffffffffffffff1614615f71576040517f08c379a000000000000000000000000000000000000000000000000000000000815260040180806020018281038252602f815260200180618a42602f913960400191505060405180910390fd5b426002819055506001600360006101000a81548160ff0219169083151502179055507fcbd94ca75b8dc45c9d80c77e851670e78843c0d75180cb81db3e2158228fa9a66224ea006040518082815260200191505060405180910390a1565b615fd76175ad565b73ffffffffffffffffffffffffffffffffffffffff16637c3125416040518163ffffffff1660e01b815260040160006040518083038186803b15801561601c57600080fd5b505afa158015616030573d6000803e3d6000fd5b50505050600460009054906101000a900473ffffffffffffffffffffffffffffffffffffffff1673ffffffffffffffffffffffffffffffffffffffff163373ffffffffffffffffffffffffffffffffffffffff16141580156160e05750600560009054906101000a900473ffffffffffffffffffffffffffffffffffffffff1673ffffffffffffffffffffffffffffffffffffffff163373ffffffffffffffffffffffffffffffffffffffff1614155b801561613a57503373ffffffffffffffffffffffffffffffffffffffff16600660009054906101000a900473ffffffffffffffffffffffffffffffffffffffff1673ffffffffffffffffffffffffffffffffffffffff1614155b156161815733600660006101000a81548173ffffffffffffffffffffffffffffffffffffffff021916908373ffffffffffffffffffffffffffffffffffffffff1602179055505b6161896173dc565b73ffffffffffffffffffffffffffffffffffffffff16639a5154b483600660009054906101000a900473ffffffffffffffffffffffffffffffffffffffff16846040518463ffffffff1660e01b8152600401808473ffffffffffffffffffffffffffffffffffffffff1673ffffffffffffffffffffffffffffffffffffffff1681526020018373ffffffffffffffffffffffffffffffffffffffff1673ffffffffffffffffffffffffffffffffffffffff1681526020018281526020019350505050600060405180830381600087803b15801561626557600080fd5b505af1158015616279573d6000803e3d6000fd5b505050505050565b600360019054906101000a900473ffffffffffffffffffffffffffffffffffffffff1681565b600d81815481106162b457fe5b906000526020600020016000915090505481565b600083826162d46175ad565b73ffffffffffffffffffffffffffffffffffffffff16637118d4316040518163ffffffff1660e01b815260040160006040518083038186803b15801561631957600080fd5b505afa15801561632d573d6000803e3d6000fd5b505050506163396175ad565b73ffffffffffffffffffffffffffffffffffffffff16636132eba483836040518363ffffffff1660e01b8152600401808381526020018281526020019250505060006040518083038186803b15801561639157600080fd5b505afa1580156163a5573d6000803e3d6000fd5b50505050600460009054906101000a900473ffffffffffffffffffffffffffffffffffffffff1673ffffffffffffffffffffffffffffffffffffffff163373ffffffffffffffffffffffffffffffffffffffff16141580156164555750600560009054906101000a900473ffffffffffffffffffffffffffffffffffffffff1673ffffffffffffffffffffffffffffffffffffffff163373ffffffffffffffffffffffffffffffffffffffff1614155b80156164af57503373ffffffffffffffffffffffffffffffffffffffff16600660009054906101000a900473ffffffffffffffffffffffffffffffffffffffff1673ffffffffffffffffffffffffffffffffffffffff1614155b156164f65733600660006101000a81548173ffffffffffffffffffffffffffffffffffffffff021916908373ffffffffffffffffffffffffffffffffffffffff1602179055505b6164fe6178ff565b73ffffffffffffffffffffffffffffffffffffffff16636a1c475888600660009054906101000a900473ffffffffffffffffffffffffffffffffffffffff168989896040518663ffffffff1660e01b8152600401808673ffffffffffffffffffffffffffffffffffffffff1673ffffffffffffffffffffffffffffffffffffffff1681526020018573ffffffffffffffffffffffffffffffffffffffff1673ffffffffffffffffffffffffffffffffffffffff16815260200184815260200183815260200182815260200195505050505050602060405180830381600087803b1580156165ea57600080fd5b505af11580156165fe573d6000803e3d6000fd5b505050506040513d602081101561661457600080fd5b810190808051906020019092919050505092505050949350505050565b600061663b6173dc565b73ffffffffffffffffffffffffffffffffffffffff1663d37c4d8b84846040518363ffffffff1660e01b8152600401808373ffffffffffffffffffffffffffffffffffffffff1673ffffffffffffffffffffffffffffffffffffffff1681526020018281526020019250505060206040518083038186803b1580156166bf57600080fd5b505afa1580156166d3573d6000803e3d6000fd5b505050506040513d60208110156166e957600080fd5b8101908080519060200190929190505050905092915050565b600061670c6173dc565b73ffffffffffffffffffffffffffffffffffffffff16637b1001b78360016040518363ffffffff1660e01b815260040180838152602001821515151581526020019250505060206040518083038186803b15801561676957600080fd5b505afa15801561677d573d6000803e3d6000fd5b505050506040513d602081101561679357600080fd5b81019080805190602001909291905050509050919050565b600660009054906101000a900473ffffffffffffffffffffffffffffffffffffffff1681565b60006167db6173dc565b73ffffffffffffffffffffffffffffffffffffffff1663dbf633406040518163ffffffff1660e01b815260040160206040518083038186803b15801561682057600080fd5b505afa158015616834573d6000803e3d6000fd5b505050506040513d602081101561684a57600080fd5b8101908080519060200190929190505050905090565b6000600760009054906101000a900473ffffffffffffffffffffffffffffffffffffffff1673ffffffffffffffffffffffffffffffffffffffff1663dd62ed3e84846040518363ffffffff1660e01b8152600401808373ffffffffffffffffffffffffffffffffffffffff1673ffffffffffffffffffffffffffffffffffffffff1681526020018273ffffffffffffffffffffffffffffffffffffffff1673ffffffffffffffffffffffffffffffffffffffff1681526020019250505060206040518083038186803b15801561693557600080fd5b505afa158015616949573d6000803e3d6000fd5b505050506040513d602081101561695f57600080fd5b8101908080519060200190929190505050905092915050565b601881565b60006169876175ad565b73ffffffffffffffffffffffffffffffffffffffff1663086dabd16040518163ffffffff1660e01b815260040160006040518083038186803b1580156169cc57600080fd5b505afa1580156169e0573d6000803e3d6000fd5b50505050600460009054906101000a900473ffffffffffffffffffffffffffffffffffffffff1673ffffffffffffffffffffffffffffffffffffffff163373ffffffffffffffffffffffffffffffffffffffff1614158015616a905750600560009054906101000a900473ffffffffffffffffffffffffffffffffffffffff1673ffffffffffffffffffffffffffffffffffffffff163373ffffffffffffffffffffffffffffffffffffffff1614155b8015616aea57503373ffffffffffffffffffffffffffffffffffffffff16600660009054906101000a900473ffffffffffffffffffffffffffffffffffffffff1673ffffffffffffffffffffffffffffffffffffffff1614155b15616b315733600660006101000a81548173ffffffffffffffffffffffffffffffffffffffff021916908373ffffffffffffffffffffffffffffffffffffffff1602179055505b600080616b3c6173dc565b73ffffffffffffffffffffffffffffffffffffffff1663a63c4df48686600660009054906101000a900473ffffffffffffffffffffffffffffffffffffffff166040518463ffffffff1660e01b8152600401808473ffffffffffffffffffffffffffffffffffffffff1673ffffffffffffffffffffffffffffffffffffffff1681526020018381526020018273ffffffffffffffffffffffffffffffffffffffff1673ffffffffffffffffffffffffffffffffffffffff16815260200193505050506040805180830381600087803b158015616c1757600080fd5b505af1158015616c2b573d6000803e3d6000fd5b505050506040513d6040811015616c4157600080fd5b81019080805190602001909291908051906020019092919050505091509150616c8e858383600660009054906101000a900473ffffffffffffffffffffffffffffffffffffffff166180d4565b616cbb85600660009054906101000a900473ffffffffffffffffffffffffffffffffffffffff16846180be565b9250505092915050565b616ccd6175ad565b73ffffffffffffffffffffffffffffffffffffffff16637c3125416040518163ffffffff1660e01b815260040160006040518083038186803b158015616d1257600080fd5b505afa158015616d26573d6000803e3d6000fd5b50505050600460009054906101000a900473ffffffffffffffffffffffffffffffffffffffff1673ffffffffffffffffffffffffffffffffffffffff163373ffffffffffffffffffffffffffffffffffffffff1614158015616dd65750600560009054906101000a900473ffffffffffffffffffffffffffffffffffffffff1673ffffffffffffffffffffffffffffffffffffffff163373ffffffffffffffffffffffffffffffffffffffff1614155b8015616e3057503373ffffffffffffffffffffffffffffffffffffffff16600660009054906101000a900473ffffffffffffffffffffffffffffffffffffffff1673ffffffffffffffffffffffffffffffffffffffff1614155b15616e775733600660006101000a81548173ffffffffffffffffffffffffffffffffffffffff021916908373ffffffffffffffffffffffffffffffffffffffff1602179055505b616e7f6173dc565b73ffffffffffffffffffffffffffffffffffffffff166344ec6b6283600660009054906101000a900473ffffffffffffffffffffffffffffffffffffffff16846040518463ffffffff1660e01b8152600401808473ffffffffffffffffffffffffffffffffffffffff1673ffffffffffffffffffffffffffffffffffffffff1681526020018373ffffffffffffffffffffffffffffffffffffffff1673ffffffffffffffffffffffffffffffffffffffff1681526020018281526020019350505050600060405180830381600087803b158015616f5b57600080fd5b505af1158015616f6f573d6000803e3d6000fd5b505050505050565b600760009054906101000a900473ffffffffffffffffffffffffffffffffffffffff1681565b600460009054906101000a900473ffffffffffffffffffffffffffffffffffffffff1681565b60008382616fcf6175ad565b73ffffffffffffffffffffffffffffffffffffffff16637118d4316040518163ffffffff1660e01b815260040160006040518083038186803b15801561701457600080fd5b505afa158015617028573d6000803e3d6000fd5b505050506170346175ad565b73ffffffffffffffffffffffffffffffffffffffff16636132eba483836040518363ffffffff1660e01b8152600401808381526020018281526020019250505060006040518083038186803b15801561708c57600080fd5b505afa1580156170a0573d6000803e3d6000fd5b50505050600460009054906101000a900473ffffffffffffffffffffffffffffffffffffffff1673ffffffffffffffffffffffffffffffffffffffff163373ffffffffffffffffffffffffffffffffffffffff16141580156171505750600560009054906101000a900473ffffffffffffffffffffffffffffffffffffffff1673ffffffffffffffffffffffffffffffffffffffff163373ffffffffffffffffffffffffffffffffffffffff1614155b80156171aa57503373ffffffffffffffffffffffffffffffffffffffff16600660009054906101000a900473ffffffffffffffffffffffffffffffffffffffff1673ffffffffffffffffffffffffffffffffffffffff1614155b156171f15733600660006101000a81548173ffffffffffffffffffffffffffffffffffffffff021916908373ffffffffffffffffffffffffffffffffffffffff1602179055505b6171f96178ff565b73ffffffffffffffffffffffffffffffffffffffff16630a1e187d600660009054906101000a900473ffffffffffffffffffffffffffffffffffffffff16888888600660009054906101000a900473ffffffffffffffffffffffffffffffffffffffff166040518663ffffffff1660e01b8152600401808673ffffffffffffffffffffffffffffffffffffffff1673ffffffffffffffffffffffffffffffffffffffff1681526020018581526020018481526020018381526020018273ffffffffffffffffffffffffffffffffffffffff1673ffffffffffffffffffffffffffffffffffffffff16815260200195505050505050602060405180830381600087803b15801561730757600080fd5b505af115801561731b573d6000803e3d6000fd5b505050506040513d602081101561733157600080fd5b8101908080519060200190929190505050925050509392505050565b60006173576173dc565b73ffffffffffffffffffffffffffffffffffffffff1663f354cad16040518163ffffffff1660e01b815260040160206040518083038186803b15801561739c57600080fd5b505afa1580156173b0573d6000803e3d6000fd5b505050506040513d60208110156173c657600080fd5b8101908080519060200190929190505050905090565b600061743d7f49737375657200000000000000000000000000000000000000000000000000006040518060400160405280601681526020017f4d697373696e6720497373756572206164647265737300000000000000000000815250618277565b905090565b600460009054906101000a900473ffffffffffffffffffffffffffffffffffffffff1673ffffffffffffffffffffffffffffffffffffffff1663907dff97826040516020018082815260200191505060405160208183030381529060405260036040518080618a7160219139602101905060405180910390206174c488617ef2565b6174cd88617ef2565b60006040518763ffffffff1660e01b815260040180806020018781526020018681526020018581526020018481526020018360001b8152602001828103825288818151815260200191508051906020019080838360005b8381101561753f578082015181840152602081019050617524565b50505050905090810190601f16801561756c5780820380516001836020036101000a031916815260200191505b50975050505050505050600060405180830381600087803b15801561759057600080fd5b505af11580156175a4573d6000803e3d6000fd5b50505050505050565b600061760e7f53797374656d53746174757300000000000000000000000000000000000000006040518060400160405280601c81526020017f4d697373696e672053797374656d537461747573206164647265737300000000815250618277565b905090565b60006176577f52657761726473446973747269627574696f6e00000000000000000000000000604051806060016040528060238152602001618a9260239139618277565b905090565b60006176bd7f537570706c795363686564756c650000000000000000000000000000000000006040518060400160405280601e81526020017f4d697373696e6720537570706c795363686564756c6520616464726573730000815250618277565b905090565b600061770483836040518060400160405280601e81526020017f536166654d6174683a207375627472616374696f6e206f766572666c6f770000815250618393565b905092915050565b60008082840190508381101561778a576040517f08c379a000000000000000000000000000000000000000000000000000000000815260040180806020018281038252601b8152602001807f536166654d6174683a206164646974696f6e206f766572666c6f77000000000081525060200191505060405180910390fd5b8091505092915050565b600460009054906101000a900473ffffffffffffffffffffffffffffffffffffffff1673ffffffffffffffffffffffffffffffffffffffff1663907dff97826040516020018082815260200191505060405160208183030381529060405260036040518080618b0e602191396021019050604051809103902061781688617ef2565b61781f88617ef2565b60006040518763ffffffff1660e01b815260040180806020018781526020018681526020018581526020018481526020018360001b8152602001828103825288818151815260200191508051906020019080838360005b83811015617891578082015181840152602081019050617876565b50505050905090810190601f1680156178be5780820380516001836020036101000a031916815260200191505b50975050505050505050600060405180830381600087803b1580156178e257600080fd5b505af11580156178f6573d6000803e3d6000fd5b50505050505050565b60006179607f45786368616e67657200000000000000000000000000000000000000000000006040518060400160405280601981526020017f4d697373696e672045786368616e676572206164647265737300000000000000815250618277565b905090565b600080617970618453565b73ffffffffffffffffffffffffffffffffffffffff16638b3f8088856040518263ffffffff1660e01b8152600401808273ffffffffffffffffffffffffffffffffffffffff1673ffffffffffffffffffffffffffffffffffffffff168152602001915050604080518083038186803b1580156179eb57600080fd5b505afa1580156179ff573d6000803e3d6000fd5b505050506040513d6040811015617a1557600080fd5b8101908080519060200190929190805190602001909291905050505090506000811115617cbc57600080617a476173dc565b73ffffffffffffffffffffffffffffffffffffffff1663db2b91cf87600760009054906101000a900473ffffffffffffffffffffffffffffffffffffffff1673ffffffffffffffffffffffffffffffffffffffff166370a082318a6040518263ffffffff1660e01b8152600401808273ffffffffffffffffffffffffffffffffffffffff1673ffffffffffffffffffffffffffffffffffffffff16815260200191505060206040518083038186803b158015617b0257600080fd5b505afa158015617b16573d6000803e3d6000fd5b505050506040513d6020811015617b2c57600080fd5b81019080805190602001909291905050506040518363ffffffff1660e01b8152600401808373ffffffffffffffffffffffffffffffffffffffff1673ffffffffffffffffffffffffffffffffffffffff16815260200182815260200192505050604080518083038186803b158015617ba357600080fd5b505afa158015617bb7573d6000803e3d6000fd5b505050506040513d6040811015617bcd57600080fd5b8101908080519060200190929190805190602001909291905050509150915081851115617c45576040517f08c379a0000000000000000000000000000000000000000000000000000000008152600401808060200182810382526026815260200180618a1c6026913960400191505060405180910390fd5b8015617cb9576040517f08c379a000000000000000000000000000000000000000000000000000000000815260040180806020018281038252601c8152602001807f412073796e7468206f7220534e582072617465206973207374616c650000000081525060200191505060405180910390fd5b50505b600191505092915050565b6000600760009054906101000a900473ffffffffffffffffffffffffffffffffffffffff1673ffffffffffffffffffffffffffffffffffffffff1663da46098c8587617e2986600760009054906101000a900473ffffffffffffffffffffffffffffffffffffffff1673ffffffffffffffffffffffffffffffffffffffff1663dd62ed3e8b8d6040518363ffffffff1660e01b8152600401808373ffffffffffffffffffffffffffffffffffffffff1673ffffffffffffffffffffffffffffffffffffffff1681526020018273ffffffffffffffffffffffffffffffffffffffff1673ffffffffffffffffffffffffffffffffffffffff1681526020019250505060206040518083038186803b158015617de057600080fd5b505afa158015617df4573d6000803e3d6000fd5b505050506040513d6020811015617e0a57600080fd5b81019080805190602001909291905050506176c290919063ffffffff16565b6040518463ffffffff1660e01b8152600401808473ffffffffffffffffffffffffffffffffffffffff1673ffffffffffffffffffffffffffffffffffffffff1681526020018373ffffffffffffffffffffffffffffffffffffffff1673ffffffffffffffffffffffffffffffffffffffff1681526020018281526020019350505050600060405180830381600087803b158015617ec557600080fd5b505af1158015617ed9573d6000803e3d6000fd5b50505050617ee88484846184b9565b9050949350505050565b60008173ffffffffffffffffffffffffffffffffffffffff1660001b9050919050565b600460009054906101000a900473ffffffffffffffffffffffffffffffffffffffff1673ffffffffffffffffffffffffffffffffffffffff1663907dff9782604051602001808273ffffffffffffffffffffffffffffffffffffffff1673ffffffffffffffffffffffffffffffffffffffff168152602001915050604051602081830303815290604052600160405180807f546f6b656e537461746555706461746564286164647265737329000000000000815250601a019050604051809103902060008060006040518763ffffffff1660e01b815260040180806020018781526020018681526020018560001b81526020018460001b81526020018360001b8152602001828103825288818151815260200191508051906020019080838360005b83811015618052578082015181840152602081019050618037565b50505050905090810190601f16801561807f5780820380516001836020036101000a031916815260200191505b50975050505050505050600060405180830381600087803b1580156180a357600080fd5b505af11580156180b7573d6000803e3d6000fd5b5050505050565b60006180cb8484846184b9565b90509392505050565b600460009054906101000a900473ffffffffffffffffffffffffffffffffffffffff1673ffffffffffffffffffffffffffffffffffffffff1663907dff97848484604051602001808481526020018381526020018273ffffffffffffffffffffffffffffffffffffffff1673ffffffffffffffffffffffffffffffffffffffff168152602001935050505060405160208183030381529060405260026040518080618adc603291396032019050604051809103902061819289617ef2565b6000806040518763ffffffff1660e01b815260040180806020018781526020018681526020018581526020018460001b81526020018360001b8152602001828103825288818151815260200191508051906020019080838360005b838110156182085780820151818401526020810190506181ed565b50505050905090810190601f1680156182355780820380516001836020036101000a031916815260200191505b50975050505050505050600060405180830381600087803b15801561825957600080fd5b505af115801561826d573d6000803e3d6000fd5b5050505050505050565b600080600c600085815260200190815260200160002060009054906101000a900473ffffffffffffffffffffffffffffffffffffffff169050600073ffffffffffffffffffffffffffffffffffffffff168173ffffffffffffffffffffffffffffffffffffffff1614158390618388576040517f08c379a00000000000000000000000000000000000000000000000000000000081526004018080602001828103825283818151815260200191508051906020019080838360005b8381101561834d578082015181840152602081019050618332565b50505050905090810190601f16801561837a5780820380516001836020036101000a031916815260200191505b509250505060405180910390fd5b508091505092915050565b6000838311158290618440576040517f08c379a00000000000000000000000000000000000000000000000000000000081526004018080602001828103825283818151815260200191508051906020019080838360005b838110156184055780820151818401526020810190506183ea565b50505050905090810190601f1680156184325780820380516001836020036101000a031916815260200191505b509250505060405180910390fd5b5060008385039050809150509392505050565b60006184b47f53796e74686574697853746174650000000000000000000000000000000000006040518060400160405280601e81526020017f4d697373696e672053796e746865746978537461746520616464726573730000815250618277565b905090565b60008073ffffffffffffffffffffffffffffffffffffffff168373ffffffffffffffffffffffffffffffffffffffff161415801561852357503073ffffffffffffffffffffffffffffffffffffffff168373ffffffffffffffffffffffffffffffffffffffff1614155b801561857d5750600460009054906101000a900473ffffffffffffffffffffffffffffffffffffffff1673ffffffffffffffffffffffffffffffffffffffff168373ffffffffffffffffffffffffffffffffffffffff1614155b6185ef576040517f08c379a000000000000000000000000000000000000000000000000000000000815260040180806020018281038252601f8152602001807f43616e6e6f74207472616e7366657220746f207468697320616464726573730081525060200191505060405180910390fd5b600760009054906101000a900473ffffffffffffffffffffffffffffffffffffffff1673ffffffffffffffffffffffffffffffffffffffff1663b46310f68561871a85600760009054906101000a900473ffffffffffffffffffffffffffffffffffffffff1673ffffffffffffffffffffffffffffffffffffffff166370a082318a6040518263ffffffff1660e01b8152600401808273ffffffffffffffffffffffffffffffffffffffff1673ffffffffffffffffffffffffffffffffffffffff16815260200191505060206040518083038186803b1580156186d157600080fd5b505afa1580156186e5573d6000803e3d6000fd5b505050506040513d60208110156186fb57600080fd5b81019080805190602001909291905050506176c290919063ffffffff16565b6040518363ffffffff1660e01b8152600401808373ffffffffffffffffffffffffffffffffffffffff1673ffffffffffffffffffffffffffffffffffffffff16815260200182815260200192505050600060405180830381600087803b15801561878357600080fd5b505af1158015618797573d6000803e3d6000fd5b50505050600760009054906101000a900473ffffffffffffffffffffffffffffffffffffffff1673ffffffffffffffffffffffffffffffffffffffff1663b46310f6846188c685600760009054906101000a900473ffffffffffffffffffffffffffffffffffffffff1673ffffffffffffffffffffffffffffffffffffffff166370a08231896040518263ffffffff1660e01b8152600401808273ffffffffffffffffffffffffffffffffffffffff1673ffffffffffffffffffffffffffffffffffffffff16815260200191505060206040518083038186803b15801561887d57600080fd5b505afa158015618891573d6000803e3d6000fd5b505050506040513d60208110156188a757600080fd5b810190808051906020019092919050505061770c90919063ffffffff16565b6040518363ffffffff1660e01b8152600401808373ffffffffffffffffffffffffffffffffffffffff1673ffffffffffffffffffffffffffffffffffffffff16815260200182815260200192505050600060405180830381600087803b15801561892f57600080fd5b505af1158015618943573d6000803e3d6000fd5b50505050618952848484617794565b600190509392505050565b60405180610300016040528060189060208202803883398082019150509050509056fe596f75206d757374206265206e6f6d696e61746564206265666f726520796f752063616e20616363657074206f776e65727368697045786368616e67655265636c61696d28616464726573732c627974657333322c75696e743235362953796e746845786368616e676528616464726573732c627974657333322c75696e743235362c627974657333322c75696e743235362c616464726573732943616e6e6f74207472616e73666572207374616b6564206f7220657363726f77656420534e584f6e6c792074686520636f6e7472616374206f776e6572206d617920706572666f726d207468697320616374696f6e417070726f76616c28616464726573732c616464726573732c75696e74323536294d697373696e672052657761726473446973747269627574696f6e206164647265737345786368616e676552656261746528616464726573732c627974657333322c75696e74323536294163636f756e744c69717569646174656428616464726573732c75696e743235362c75696e743235362c61646472657373295472616e7366657228616464726573732c616464726573732c75696e7432353629a265627a7a723158204ca1bacca67e14a8bf9d5093120c9f7f736d3fb5855f79438c6100f076b2713564736f6c63430005100032",
  "source": "pragma solidity ^0.5.16;\n\n// Inheritance\nimport \"./interfaces/IERC20.sol\";\nimport \"./ExternStateToken.sol\";\nimport \"./MixinResolver.sol\";\nimport \"./interfaces/ISynthetix.sol\";\n\n// Internal references\nimport \"./interfaces/ISynth.sol\";\nimport \"./TokenState.sol\";\nimport \"./interfaces/ISynthetixState.sol\";\nimport \"./interfaces/ISystemStatus.sol\";\nimport \"./interfaces/IExchanger.sol\";\nimport \"./interfaces/IIssuer.sol\";\nimport \"./SupplySchedule.sol\";\nimport \"./interfaces/IRewardsDistribution.sol\";\n\n\n// https://docs.synthetix.io/contracts/Synthetix\ncontract Synthetix is IERC20, ExternStateToken, MixinResolver, ISynthetix {\n    // ========== STATE VARIABLES ==========\n\n    // Available Synths which can be used with the system\n    string public constant TOKEN_NAME = \"Synthetix Network Token\";\n    string public constant TOKEN_SYMBOL = \"SNX\";\n    uint8 public constant DECIMALS = 18;\n    bytes32 public constant sUSD = \"sUSD\";\n\n    /* ========== ADDRESS RESOLVER CONFIGURATION ========== */\n\n    bytes32 private constant CONTRACT_SYNTHETIXSTATE = \"SynthetixState\";\n    bytes32 private constant CONTRACT_SYSTEMSTATUS = \"SystemStatus\";\n    bytes32 private constant CONTRACT_EXCHANGER = \"Exchanger\";\n    bytes32 private constant CONTRACT_ISSUER = \"Issuer\";\n    bytes32 private constant CONTRACT_SUPPLYSCHEDULE = \"SupplySchedule\";\n    bytes32 private constant CONTRACT_REWARDSDISTRIBUTION = \"RewardsDistribution\";\n\n    bytes32[24] private addressesToCache = [\n        CONTRACT_SYSTEMSTATUS,\n        CONTRACT_EXCHANGER,\n        CONTRACT_ISSUER,\n        CONTRACT_SUPPLYSCHEDULE,\n        CONTRACT_REWARDSDISTRIBUTION,\n        CONTRACT_SYNTHETIXSTATE\n    ];\n\n    // ========== CONSTRUCTOR ==========\n\n    constructor(\n        address payable _proxy,\n        TokenState _tokenState,\n        address _owner,\n        uint _totalSupply,\n        address _resolver\n    )\n        public\n        ExternStateToken(_proxy, _tokenState, TOKEN_NAME, TOKEN_SYMBOL, _totalSupply, DECIMALS, _owner)\n        MixinResolver(_resolver, addressesToCache)\n    {}\n\n    /* ========== VIEWS ========== */\n\n    function synthetixState() internal view returns (ISynthetixState) {\n        return ISynthetixState(requireAndGetAddress(CONTRACT_SYNTHETIXSTATE, \"Missing SynthetixState address\"));\n    }\n\n    function systemStatus() internal view returns (ISystemStatus) {\n        return ISystemStatus(requireAndGetAddress(CONTRACT_SYSTEMSTATUS, \"Missing SystemStatus address\"));\n    }\n\n    function exchanger() internal view returns (IExchanger) {\n        return IExchanger(requireAndGetAddress(CONTRACT_EXCHANGER, \"Missing Exchanger address\"));\n    }\n\n    function issuer() internal view returns (IIssuer) {\n        return IIssuer(requireAndGetAddress(CONTRACT_ISSUER, \"Missing Issuer address\"));\n    }\n\n    function supplySchedule() internal view returns (SupplySchedule) {\n        return SupplySchedule(requireAndGetAddress(CONTRACT_SUPPLYSCHEDULE, \"Missing SupplySchedule address\"));\n    }\n\n    function rewardsDistribution() internal view returns (IRewardsDistribution) {\n        return\n            IRewardsDistribution(requireAndGetAddress(CONTRACT_REWARDSDISTRIBUTION, \"Missing RewardsDistribution address\"));\n    }\n\n    function debtBalanceOf(address account, bytes32 currencyKey) external view returns (uint) {\n        return issuer().debtBalanceOf(account, currencyKey);\n    }\n\n    function totalIssuedSynths(bytes32 currencyKey) external view returns (uint) {\n        return issuer().totalIssuedSynths(currencyKey, false);\n    }\n\n    function totalIssuedSynthsExcludeEtherCollateral(bytes32 currencyKey) external view returns (uint) {\n        return issuer().totalIssuedSynths(currencyKey, true);\n    }\n\n    function availableCurrencyKeys() external view returns (bytes32[] memory) {\n        return issuer().availableCurrencyKeys();\n    }\n\n    function availableSynthCount() external view returns (uint) {\n        return issuer().availableSynthCount();\n    }\n\n    function availableSynths(uint index) external view returns (ISynth) {\n        return issuer().availableSynths(index);\n    }\n\n    function synths(bytes32 currencyKey) external view returns (ISynth) {\n        return issuer().synths(currencyKey);\n    }\n\n    function synthsByAddress(address synthAddress) external view returns (bytes32) {\n        return issuer().synthsByAddress(synthAddress);\n    }\n\n    function isWaitingPeriod(bytes32 currencyKey) external view returns (bool) {\n        return exchanger().maxSecsLeftInWaitingPeriod(messageSender, currencyKey) > 0;\n    }\n\n    function anySynthOrSNXRateIsStale() external view returns (bool anyRateStale) {\n        return issuer().anySynthOrSNXRateIsStale();\n    }\n\n    function maxIssuableSynths(address account) external view returns (uint maxIssuable) {\n        return issuer().maxIssuableSynths(account);\n    }\n\n    function remainingIssuableSynths(address account)\n        external\n        view\n        returns (\n            uint maxIssuable,\n            uint alreadyIssued,\n            uint totalSystemDebt\n        )\n    {\n        return issuer().remainingIssuableSynths(account);\n    }\n\n    function _canTransfer(address account, uint value) internal view returns (bool) {\n        (uint initialDebtOwnership, ) = synthetixState().issuanceData(account);\n\n        if (initialDebtOwnership > 0) {\n            (uint transferable, bool anyRateIsStale) = issuer().transferableSynthetixAndAnyRateIsStale(\n                account,\n                tokenState.balanceOf(account)\n            );\n            require(value <= transferable, \"Cannot transfer staked or escrowed SNX\");\n            require(!anyRateIsStale, \"A synth or SNX rate is stale\");\n        }\n        return true;\n    }\n\n    // ========== MUTATIVE FUNCTIONS ==========\n\n    function transfer(address to, uint value) external optionalProxy systemActive returns (bool) {\n        // Ensure they're not trying to exceed their locked amount -- only if they have debt.\n        _canTransfer(messageSender, value);\n\n        // Perform the transfer: if there is a problem an exception will be thrown in this call.\n        _transferByProxy(messageSender, to, value);\n\n        return true;\n    }\n\n    function transferFrom(\n        address from,\n        address to,\n        uint value\n    ) external optionalProxy systemActive returns (bool) {\n        // Ensure they're not trying to exceed their locked amount -- only if they have debt.\n        _canTransfer(from, value);\n\n        // Perform the transfer: if there is a problem,\n        // an exception will be thrown in this call.\n        return _transferFromByProxy(messageSender, from, to, value);\n    }\n\n    function issueSynths(uint amount) external issuanceActive optionalProxy {\n        return issuer().issueSynths(messageSender, amount);\n    }\n\n    function issueSynthsOnBehalf(address issueForAddress, uint amount) external issuanceActive optionalProxy {\n        return issuer().issueSynthsOnBehalf(issueForAddress, messageSender, amount);\n    }\n\n    function issueMaxSynths() external issuanceActive optionalProxy {\n        return issuer().issueMaxSynths(messageSender);\n    }\n\n    function issueMaxSynthsOnBehalf(address issueForAddress) external issuanceActive optionalProxy {\n        return issuer().issueMaxSynthsOnBehalf(issueForAddress, messageSender);\n    }\n\n    function burnSynths(uint amount) external issuanceActive optionalProxy {\n        return issuer().burnSynths(messageSender, amount);\n    }\n\n    function burnSynthsOnBehalf(address burnForAddress, uint amount) external issuanceActive optionalProxy {\n        return issuer().burnSynthsOnBehalf(burnForAddress, messageSender, amount);\n    }\n\n    function burnSynthsToTarget() external issuanceActive optionalProxy {\n        return issuer().burnSynthsToTarget(messageSender);\n    }\n\n    function burnSynthsToTargetOnBehalf(address burnForAddress) external issuanceActive optionalProxy {\n        return issuer().burnSynthsToTargetOnBehalf(burnForAddress, messageSender);\n    }\n\n    function exchange(\n        bytes32 sourceCurrencyKey,\n        uint sourceAmount,\n        bytes32 destinationCurrencyKey\n    ) external exchangeActive(sourceCurrencyKey, destinationCurrencyKey) optionalProxy returns (uint amountReceived) {\n        return exchanger().exchange(messageSender, sourceCurrencyKey, sourceAmount, destinationCurrencyKey, messageSender);\n    }\n\n    function exchangeOnBehalf(\n        address exchangeForAddress,\n        bytes32 sourceCurrencyKey,\n        uint sourceAmount,\n        bytes32 destinationCurrencyKey\n    ) external exchangeActive(sourceCurrencyKey, destinationCurrencyKey) optionalProxy returns (uint amountReceived) {\n        return\n            exchanger().exchangeOnBehalf(\n                exchangeForAddress,\n                messageSender,\n                sourceCurrencyKey,\n                sourceAmount,\n                destinationCurrencyKey\n            );\n    }\n\n    function settle(bytes32 currencyKey)\n        external\n        optionalProxy\n        returns (\n            uint reclaimed,\n            uint refunded,\n            uint numEntriesSettled\n        )\n    {\n        return exchanger().settle(messageSender, currencyKey);\n    }\n\n    function collateralisationRatio(address _issuer) external view returns (uint) {\n        return issuer().collateralisationRatio(_issuer);\n    }\n\n    function collateral(address account) external view returns (uint) {\n        return issuer().collateral(account);\n    }\n\n    function transferableSynthetix(address account) external view returns (uint transferable) {\n        (transferable, ) = issuer().transferableSynthetixAndAnyRateIsStale(account, tokenState.balanceOf(account));\n    }\n\n    function mint() external issuanceActive returns (bool) {\n        require(address(rewardsDistribution()) != address(0), \"RewardsDistribution not set\");\n\n        SupplySchedule _supplySchedule = supplySchedule();\n        IRewardsDistribution _rewardsDistribution = rewardsDistribution();\n\n        uint supplyToMint = _supplySchedule.mintableSupply();\n        require(supplyToMint > 0, \"No supply is mintable\");\n\n        // record minting event before mutation to token supply\n        _supplySchedule.recordMintEvent(supplyToMint);\n\n        // Set minted SNX balance to RewardEscrow's balance\n        // Minus the minterReward and set balance of minter to add reward\n        uint minterReward = _supplySchedule.minterReward();\n        // Get the remainder\n        uint amountToDistribute = supplyToMint.sub(minterReward);\n\n        // Set the token balance to the RewardsDistribution contract\n        tokenState.setBalanceOf(\n            address(_rewardsDistribution),\n            tokenState.balanceOf(address(_rewardsDistribution)).add(amountToDistribute)\n        );\n        emitTransfer(address(this), address(_rewardsDistribution), amountToDistribute);\n\n        // Kick off the distribution of rewards\n        _rewardsDistribution.distributeRewards(amountToDistribute);\n\n        // Assign the minters reward.\n        tokenState.setBalanceOf(msg.sender, tokenState.balanceOf(msg.sender).add(minterReward));\n        emitTransfer(address(this), msg.sender, minterReward);\n\n        totalSupply = totalSupply.add(supplyToMint);\n\n        return true;\n    }\n\n    function liquidateDelinquentAccount(address account, uint susdAmount)\n        external\n        systemActive\n        optionalProxy\n        returns (bool)\n    {\n        (uint totalRedeemed, uint amountLiquidated) = issuer().liquidateDelinquentAccount(\n            account,\n            susdAmount,\n            messageSender\n        );\n\n        emitAccountLiquidated(account, totalRedeemed, amountLiquidated, messageSender);\n\n        // Transfer SNX redeemed to messageSender\n        // Reverts if amount to redeem is more than balanceOf account, ie due to escrowed balance\n        return _transferByProxy(account, messageSender, totalRedeemed);\n    }\n\n    // ========== MODIFIERS ==========\n\n    modifier onlyExchanger() {\n        require(msg.sender == address(exchanger()), \"Only Exchanger can invoke this\");\n        _;\n    }\n\n    modifier systemActive() {\n        systemStatus().requireSystemActive();\n        _;\n    }\n\n    modifier issuanceActive() {\n        systemStatus().requireIssuanceActive();\n        _;\n    }\n\n    modifier exchangeActive(bytes32 src, bytes32 dest) {\n        systemStatus().requireExchangeActive();\n        systemStatus().requireSynthsActive(src, dest);\n        _;\n    }\n\n    // ========== EVENTS ==========\n\n    event SynthExchange(\n        address indexed account,\n        bytes32 fromCurrencyKey,\n        uint256 fromAmount,\n        bytes32 toCurrencyKey,\n        uint256 toAmount,\n        address toAddress\n    );\n    bytes32 internal constant SYNTHEXCHANGE_SIG = keccak256(\n        \"SynthExchange(address,bytes32,uint256,bytes32,uint256,address)\"\n    );\n\n    function emitSynthExchange(\n        address account,\n        bytes32 fromCurrencyKey,\n        uint256 fromAmount,\n        bytes32 toCurrencyKey,\n        uint256 toAmount,\n        address toAddress\n    ) external onlyExchanger {\n        proxy._emit(\n            abi.encode(fromCurrencyKey, fromAmount, toCurrencyKey, toAmount, toAddress),\n            2,\n            SYNTHEXCHANGE_SIG,\n            addressToBytes32(account),\n            0,\n            0\n        );\n    }\n\n    event ExchangeReclaim(address indexed account, bytes32 currencyKey, uint amount);\n    bytes32 internal constant EXCHANGERECLAIM_SIG = keccak256(\"ExchangeReclaim(address,bytes32,uint256)\");\n\n    function emitExchangeReclaim(\n        address account,\n        bytes32 currencyKey,\n        uint256 amount\n    ) external onlyExchanger {\n        proxy._emit(abi.encode(currencyKey, amount), 2, EXCHANGERECLAIM_SIG, addressToBytes32(account), 0, 0);\n    }\n\n    event ExchangeRebate(address indexed account, bytes32 currencyKey, uint amount);\n    bytes32 internal constant EXCHANGEREBATE_SIG = keccak256(\"ExchangeRebate(address,bytes32,uint256)\");\n\n    function emitExchangeRebate(\n        address account,\n        bytes32 currencyKey,\n        uint256 amount\n    ) external onlyExchanger {\n        proxy._emit(abi.encode(currencyKey, amount), 2, EXCHANGEREBATE_SIG, addressToBytes32(account), 0, 0);\n    }\n\n    event AccountLiquidated(address indexed account, uint snxRedeemed, uint amountLiquidated, address liquidator);\n    bytes32 internal constant ACCOUNTLIQUIDATED_SIG = keccak256(\"AccountLiquidated(address,uint256,uint256,address)\");\n\n    function emitAccountLiquidated(\n        address account,\n        uint256 snxRedeemed,\n        uint256 amountLiquidated,\n        address liquidator\n    ) internal {\n        proxy._emit(\n            abi.encode(snxRedeemed, amountLiquidated, liquidator),\n            2,\n            ACCOUNTLIQUIDATED_SIG,\n            addressToBytes32(account),\n            0,\n            0\n        );\n    }\n}\n",
  "sourcePath": "/Users/qizhang/Development/truffle_test2/contracts/Synthetix.sol",
  "compiler": {
    "name": "solc",
    "version": "0.5.16+commit.9c3226ce.Emscripten.clang"
  },
  "schemaVersion": "3.2.1",
  "updatedAt": "2020-07-05T03:58:13.086Z",
  "devdoc": {
    "methods": {
      "allowance(address,address)": {
        "params": {
          "owner": "The party authorising spending of their funds.",
          "spender": "The party spending tokenOwner's funds."
        }
      },
      "initiateSelfDestruct()": {
        "details": "Only the contract owner may call this."
      },
      "selfDestruct()": {
        "details": "Only the contract owner may call this."
      },
      "setSelfDestructBeneficiary(address)": {
        "details": "Only the contract owner may call this. The provided beneficiary must be non-null.",
        "params": {
          "_beneficiary": "The address to pay any eth contained in this contract to upon self-destruction."
        }
      },
      "setTokenState(address)": {
        "details": "This can be used to \"pause\" transfer functionality, by pointing the tokenState at 0x000.. as balances would be unreachable."
      },
      "terminateSelfDestruct()": {
        "details": "Only the contract owner may call this."
      }
    }
  },
  "userdoc": {
    "methods": {
      "allowance(address,address)": {
        "notice": "Returns the ERC20 allowance of one party to spend on behalf of another."
      },
      "approve(address,uint256)": {
        "notice": "Approves spender to transfer on the message sender's behalf."
      },
      "balanceOf(address)": {
        "notice": "Returns the ERC20 token balance of a given account."
      },
      "initiateSelfDestruct()": {
        "notice": "Begin the self-destruction counter of this contract. Once the delay has elapsed, the contract may be self-destructed."
      },
      "selfDestruct()": {
        "notice": "If the self-destruction delay has elapsed, destroy this contract and remit any ether it owns to the beneficiary address."
      },
      "setSelfDestructBeneficiary(address)": {
        "notice": "Set the beneficiary address of this contract."
      },
      "setTokenState(address)": {
        "notice": "Set the address of the TokenState contract."
      },
      "terminateSelfDestruct()": {
        "notice": "Terminate and reset the self-destruction timer."
      }
    }
  }
}