{
  "contractName": "SynthetixState",
  "abi": [
    {
      "inputs": [
        {
          "internalType": "address",
          "name": "_owner",
          "type": "address"
        },
        {
          "internalType": "address",
          "name": "_associatedContract",
          "type": "address"
        }
      ],
      "payable": false,
      "stateMutability": "nonpayable",
      "type": "constructor"
    },
    {
      "anonymous": false,
      "inputs": [
        {
          "indexed": false,
          "internalType": "address",
          "name": "associatedContract",
          "type": "address"
        }
      ],
      "name": "AssociatedContractUpdated",
      "type": "event"
    },
    {
      "anonymous": false,
      "inputs": [
        {
          "indexed": false,
          "internalType": "uint256",
          "name": "newRatio",
          "type": "uint256"
        }
      ],
      "name": "IssuanceRatioUpdated",
      "type": "event"
    },
    {
      "anonymous": false,
      "inputs": [
        {
          "indexed": false,
          "internalType": "address",
          "name": "oldOwner",
          "type": "address"
        },
        {
          "indexed": false,
          "internalType": "address",
          "name": "newOwner",
          "type": "address"
        }
      ],
      "name": "OwnerChanged",
      "type": "event"
    },
    {
      "anonymous": false,
      "inputs": [
        {
          "indexed": false,
          "internalType": "address",
          "name": "newOwner",
          "type": "address"
        }
      ],
      "name": "OwnerNominated",
      "type": "event"
    },
    {
      "constant": true,
      "inputs": [],
      "name": "MAX_ISSUANCE_RATIO",
      "outputs": [
        {
          "internalType": "uint256",
          "name": "",
          "type": "uint256"
        }
      ],
      "payable": false,
      "stateMutability": "view",
      "type": "function"
    },
    {
      "constant": false,
      "inputs": [],
      "name": "acceptOwnership",
      "outputs": [],
      "payable": false,
      "stateMutability": "nonpayable",
      "type": "function"
    },
    {
      "constant": true,
      "inputs": [],
      "name": "associatedContract",
      "outputs": [
        {
          "internalType": "address",
          "name": "",
          "type": "address"
        }
      ],
      "payable": false,
      "stateMutability": "view",
      "type": "function"
    },
    {
      "constant": true,
      "inputs": [
        {
          "internalType": "uint256",
          "name": "",
          "type": "uint256"
        }
      ],
      "name": "debtLedger",
      "outputs": [
        {
          "internalType": "uint256",
          "name": "",
          "type": "uint256"
        }
      ],
      "payable": false,
      "stateMutability": "view",
      "type": "function"
    },
    {
      "constant": true,
      "inputs": [
        {
          "internalType": "address",
          "name": "",
          "type": "address"
        }
      ],
      "name": "issuanceData",
      "outputs": [
        {
          "internalType": "uint256",
          "name": "initialDebtOwnership",
          "type": "uint256"
        },
        {
          "internalType": "uint256",
          "name": "debtEntryIndex",
          "type": "uint256"
        }
      ],
      "payable": false,
      "stateMutability": "view",
      "type": "function"
    },
    {
      "constant": true,
      "inputs": [],
      "name": "issuanceRatio",
      "outputs": [
        {
          "internalType": "uint256",
          "name": "",
          "type": "uint256"
        }
      ],
      "payable": false,
      "stateMutability": "view",
      "type": "function"
    },
    {
      "constant": false,
      "inputs": [
        {
          "internalType": "address",
          "name": "_owner",
          "type": "address"
        }
      ],
      "name": "nominateNewOwner",
      "outputs": [],
      "payable": false,
      "stateMutability": "nonpayable",
      "type": "function"
    },
    {
      "constant": true,
      "inputs": [],
      "name": "nominatedOwner",
      "outputs": [
        {
          "internalType": "address",
          "name": "",
          "type": "address"
        }
      ],
      "payable": false,
      "stateMutability": "view",
      "type": "function"
    },
    {
      "constant": true,
      "inputs": [],
      "name": "owner",
      "outputs": [
        {
          "internalType": "address",
          "name": "",
          "type": "address"
        }
      ],
      "payable": false,
      "stateMutability": "view",
      "type": "function"
    },
    {
      "constant": false,
      "inputs": [
        {
          "internalType": "address",
          "name": "_associatedContract",
          "type": "address"
        }
      ],
      "name": "setAssociatedContract",
      "outputs": [],
      "payable": false,
      "stateMutability": "nonpayable",
      "type": "function"
    },
    {
      "constant": true,
      "inputs": [],
      "name": "setupExpiryTime",
      "outputs": [
        {
          "internalType": "uint256",
          "name": "",
          "type": "uint256"
        }
      ],
      "payable": false,
      "stateMutability": "view",
      "type": "function"
    },
    {
      "constant": true,
      "inputs": [],
      "name": "totalIssuerCount",
      "outputs": [
        {
          "internalType": "uint256",
          "name": "",
          "type": "uint256"
        }
      ],
      "payable": false,
      "stateMutability": "view",
      "type": "function"
    },
    {
      "constant": false,
      "inputs": [
        {
          "internalType": "address",
          "name": "account",
          "type": "address"
        },
        {
          "internalType": "uint256",
          "name": "initialDebtOwnership",
          "type": "uint256"
        }
      ],
      "name": "setCurrentIssuanceData",
      "outputs": [],
      "payable": false,
      "stateMutability": "nonpayable",
      "type": "function"
    },
    {
      "constant": false,
      "inputs": [
        {
          "internalType": "address",
          "name": "account",
          "type": "address"
        }
      ],
      "name": "clearIssuanceData",
      "outputs": [],
      "payable": false,
      "stateMutability": "nonpayable",
      "type": "function"
    },
    {
      "constant": false,
      "inputs": [],
      "name": "incrementTotalIssuerCount",
      "outputs": [],
      "payable": false,
      "stateMutability": "nonpayable",
      "type": "function"
    },
    {
      "constant": false,
      "inputs": [],
      "name": "decrementTotalIssuerCount",
      "outputs": [],
      "payable": false,
      "stateMutability": "nonpayable",
      "type": "function"
    },
    {
      "constant": false,
      "inputs": [
        {
          "internalType": "uint256",
          "name": "value",
          "type": "uint256"
        }
      ],
      "name": "appendDebtLedgerValue",
      "outputs": [],
      "payable": false,
      "stateMutability": "nonpayable",
      "type": "function"
    },
    {
      "constant": false,
      "inputs": [
        {
          "internalType": "uint256",
          "name": "_issuanceRatio",
          "type": "uint256"
        }
      ],
      "name": "setIssuanceRatio",
      "outputs": [],
      "payable": false,
      "stateMutability": "nonpayable",
      "type": "function"
    },
    {
      "constant": true,
      "inputs": [],
      "name": "debtLedgerLength",
      "outputs": [
        {
          "internalType": "uint256",
          "name": "",
          "type": "uint256"
        }
      ],
      "payable": false,
      "stateMutability": "view",
      "type": "function"
    },
    {
      "constant": true,
      "inputs": [],
      "name": "lastDebtLedgerEntry",
      "outputs": [
        {
          "internalType": "uint256",
          "name": "",
          "type": "uint256"
        }
      ],
      "payable": false,
      "stateMutability": "view",
      "type": "function"
    },
    {
      "constant": true,
      "inputs": [
        {
          "internalType": "address",
          "name": "account",
          "type": "address"
        }
      ],
      "name": "hasIssued",
      "outputs": [
        {
          "internalType": "bool",
          "name": "",
          "type": "bool"
        }
      ],
      "payable": false,
      "stateMutability": "view",
      "type": "function"
    }
  ],
  "bytecode": "0x6080604052600573__SafeDecimalMath_______________________63907af6c06040518163ffffffff1660e01b815260040160206040518083038186803b15801561004a57600080fd5b505af415801561005e573d6000803e3d6000fd5b505050506040513d602081101561007457600080fd5b81019080805190602001909291905050508161008c57fe5b0460075534801561009c57600080fd5b506040516117c13803806117c1833981810160405260408110156100bf57600080fd5b81019080805190602001909291908051906020019092919050505062093a808183600073ffffffffffffffffffffffffffffffffffffffff168173ffffffffffffffffffffffffffffffffffffffff161415610183576040517f08c379a00000000000000000000000000000000000000000000000000000000081526004018080602001828103825260198152602001807f4f776e657220616464726573732063616e6e6f7420626520300000000000000081525060200191505060405180910390fd5b806000806101000a81548173ffffffffffffffffffffffffffffffffffffffff021916908373ffffffffffffffffffffffffffffffffffffffff1602179055507fb532073b38c83145e3e5135377a08bf9aab55bc0fd7c1179cd4fb995d2a5159c600082604051808373ffffffffffffffffffffffffffffffffffffffff1673ffffffffffffffffffffffffffffffffffffffff1681526020018273ffffffffffffffffffffffffffffffffffffffff1673ffffffffffffffffffffffffffffffffffffffff1681526020019250505060405180910390a150600073ffffffffffffffffffffffffffffffffffffffff166000809054906101000a900473ffffffffffffffffffffffffffffffffffffffff1673ffffffffffffffffffffffffffffffffffffffff161415610320576040517f08c379a00000000000000000000000000000000000000000000000000000000081526004018080602001828103825260118152602001807f4f776e6572206d7573742062652073657400000000000000000000000000000081525060200191505060405180910390fd5b80600260006101000a81548173ffffffffffffffffffffffffffffffffffffffff021916908373ffffffffffffffffffffffffffffffffffffffff1602179055507f73f20cff579e8a4086fa607db83867595f1b6a798e718c0bfa0b94a404128e0381604051808273ffffffffffffffffffffffffffffffffffffffff1673ffffffffffffffffffffffffffffffffffffffff16815260200191505060405180910390a1508042016003819055505050506113e1806103e06000396000f3fe608060405234801561001057600080fd5b50600436106101375760003560e01c806379ba5097116100b8578063aefc4ccb1161007c578063aefc4ccb1461042f578063b16c09f014610479578063b410a034146104bd578063b992812e146104db578063ba08f29914610537578063cd92eba91461054157610137565b806379ba5097146103105780638b3f80881461031a5780638da5cb5b146103795780639371bede146103c3578063a764eb45146103e157610137565b806346317712116100ff578063463177121461022857806346ba2d901461024657806352f445ca1461026457806353a47bb7146102a8578063657c6dc7146102f257610137565b8063054be0b71461013c57806308d95cd51461016a5780631627540c146101ac5780631bfba595146101f05780633d31e97b146101fa575b600080fd5b6101686004803603602081101561015257600080fd5b810190808035906020019092919050505061055f565b005b6101966004803603602081101561018057600080fd5b81019080803590602001909291905050506106a6565b6040518082815260200191505060405180910390f35b6101ee600480360360208110156101c257600080fd5b81019080803573ffffffffffffffffffffffffffffffffffffffff1690602001909291905050506106c7565b005b6101f8610813565b005b6102266004803603602081101561021057600080fd5b81019080803590602001909291905050506108d7565b005b6102306109ac565b6040518082815260200191505060405180910390f35b61024e6109d3565b6040518082815260200191505060405180910390f35b6102a66004803603602081101561027a57600080fd5b81019080803573ffffffffffffffffffffffffffffffffffffffff1690602001909291905050506109d9565b005b6102b0610b25565b604051808273ffffffffffffffffffffffffffffffffffffffff1673ffffffffffffffffffffffffffffffffffffffff16815260200191505060405180910390f35b6102fa610b4b565b6040518082815260200191505060405180910390f35b610318610b57565b005b61035c6004803603602081101561033057600080fd5b81019080803573ffffffffffffffffffffffffffffffffffffffff169060200190929190505050610d7d565b604051808381526020018281526020019250505060405180910390f35b610381610da1565b604051808273ffffffffffffffffffffffffffffffffffffffff1673ffffffffffffffffffffffffffffffffffffffff16815260200191505060405180910390f35b6103cb610dc6565b6040518082815260200191505060405180910390f35b61042d600480360360408110156103f757600080fd5b81019080803573ffffffffffffffffffffffffffffffffffffffff16906020019092919080359060200190929190505050610dcc565b005b610437610f09565b604051808273ffffffffffffffffffffffffffffffffffffffff1673ffffffffffffffffffffffffffffffffffffffff16815260200191505060405180910390f35b6104bb6004803603602081101561048f57600080fd5b81019080803573ffffffffffffffffffffffffffffffffffffffff169060200190929190505050610f2f565b005b6104c561102a565b6040518082815260200191505060405180910390f35b61051d600480360360208110156104f157600080fd5b81019080803573ffffffffffffffffffffffffffffffffffffffff169060200190929190505050611030565b604051808215151515815260200191505060405180910390f35b61053f61107e565b005b610549611142565b6040518082815260200191505060405180910390f35b6000809054906101000a900473ffffffffffffffffffffffffffffffffffffffff1673ffffffffffffffffffffffffffffffffffffffff163373ffffffffffffffffffffffffffffffffffffffff1614610604576040517f08c379a000000000000000000000000000000000000000000000000000000000815260040180806020018281038252602f815260200180611317602f913960400191505060405180910390fd5b670de0b6b3a7640000811115610665576040517f08c379a000000000000000000000000000000000000000000000000000000000815260040180806020018281038252603381526020018061137a6033913960400191505060405180910390fd5b806007819055507f63b22e09cc3a33e847c063e35f887bd4ea96bc8c0f93f1f8c311e4fa6d885452816040518082815260200191505060405180910390a150565b600681815481106106b357fe5b906000526020600020016000915090505481565b6000809054906101000a900473ffffffffffffffffffffffffffffffffffffffff1673ffffffffffffffffffffffffffffffffffffffff163373ffffffffffffffffffffffffffffffffffffffff161461076c576040517f08c379a000000000000000000000000000000000000000000000000000000000815260040180806020018281038252602f815260200180611317602f913960400191505060405180910390fd5b80600160006101000a81548173ffffffffffffffffffffffffffffffffffffffff021916908373ffffffffffffffffffffffffffffffffffffffff1602179055507f906a1c6bd7e3091ea86693dd029a831c19049ce77f1dce2ce0bab1cacbabce2281604051808273ffffffffffffffffffffffffffffffffffffffff1673ffffffffffffffffffffffffffffffffffffffff16815260200191505060405180910390a150565b600260009054906101000a900473ffffffffffffffffffffffffffffffffffffffff1673ffffffffffffffffffffffffffffffffffffffff163373ffffffffffffffffffffffffffffffffffffffff16146108b9576040517f08c379a00000000000000000000000000000000000000000000000000000000081526004018080602001828103825260348152602001806113466034913960400191505060405180910390fd5b6108cf600160055461114f90919063ffffffff16565b600581905550565b600260009054906101000a900473ffffffffffffffffffffffffffffffffffffffff1673ffffffffffffffffffffffffffffffffffffffff163373ffffffffffffffffffffffffffffffffffffffff161461097d576040517f08c379a00000000000000000000000000000000000000000000000000000000081526004018080602001828103825260348152602001806113466034913960400191505060405180910390fd5b600681908060018154018082558091505090600182039060005260206000200160009091929091909150555050565b60006006600160068054905003815481106109c357fe5b9060005260206000200154905090565b60035481565b6000809054906101000a900473ffffffffffffffffffffffffffffffffffffffff1673ffffffffffffffffffffffffffffffffffffffff163373ffffffffffffffffffffffffffffffffffffffff1614610a7e576040517f08c379a000000000000000000000000000000000000000000000000000000000815260040180806020018281038252602f815260200180611317602f913960400191505060405180910390fd5b80600260006101000a81548173ffffffffffffffffffffffffffffffffffffffff021916908373ffffffffffffffffffffffffffffffffffffffff1602179055507f73f20cff579e8a4086fa607db83867595f1b6a798e718c0bfa0b94a404128e0381604051808273ffffffffffffffffffffffffffffffffffffffff1673ffffffffffffffffffffffffffffffffffffffff16815260200191505060405180910390a150565b600160009054906101000a900473ffffffffffffffffffffffffffffffffffffffff1681565b670de0b6b3a764000081565b600160009054906101000a900473ffffffffffffffffffffffffffffffffffffffff1673ffffffffffffffffffffffffffffffffffffffff163373ffffffffffffffffffffffffffffffffffffffff1614610bfd576040517f08c379a00000000000000000000000000000000000000000000000000000000081526004018080602001828103825260358152602001806112e26035913960400191505060405180910390fd5b7fb532073b38c83145e3e5135377a08bf9aab55bc0fd7c1179cd4fb995d2a5159c6000809054906101000a900473ffffffffffffffffffffffffffffffffffffffff16600160009054906101000a900473ffffffffffffffffffffffffffffffffffffffff16604051808373ffffffffffffffffffffffffffffffffffffffff1673ffffffffffffffffffffffffffffffffffffffff1681526020018273ffffffffffffffffffffffffffffffffffffffff1673ffffffffffffffffffffffffffffffffffffffff1681526020019250505060405180910390a1600160009054906101000a900473ffffffffffffffffffffffffffffffffffffffff166000806101000a81548173ffffffffffffffffffffffffffffffffffffffff021916908373ffffffffffffffffffffffffffffffffffffffff1602179055506000600160006101000a81548173ffffffffffffffffffffffffffffffffffffffff021916908373ffffffffffffffffffffffffffffffffffffffff160217905550565b60046020528060005260406000206000915090508060000154908060010154905082565b6000809054906101000a900473ffffffffffffffffffffffffffffffffffffffff1681565b60055481565b600260009054906101000a900473ffffffffffffffffffffffffffffffffffffffff1673ffffffffffffffffffffffffffffffffffffffff163373ffffffffffffffffffffffffffffffffffffffff1614610e72576040517f08c379a00000000000000000000000000000000000000000000000000000000081526004018080602001828103825260348152602001806113466034913960400191505060405180910390fd5b80600460008473ffffffffffffffffffffffffffffffffffffffff1673ffffffffffffffffffffffffffffffffffffffff16815260200190815260200160002060000181905550600680549050600460008473ffffffffffffffffffffffffffffffffffffffff1673ffffffffffffffffffffffffffffffffffffffff168152602001908152602001600020600101819055505050565b600260009054906101000a900473ffffffffffffffffffffffffffffffffffffffff1681565b600260009054906101000a900473ffffffffffffffffffffffffffffffffffffffff1673ffffffffffffffffffffffffffffffffffffffff163373ffffffffffffffffffffffffffffffffffffffff1614610fd5576040517f08c379a00000000000000000000000000000000000000000000000000000000081526004018080602001828103825260348152602001806113466034913960400191505060405180910390fd5b600460008273ffffffffffffffffffffffffffffffffffffffff1673ffffffffffffffffffffffffffffffffffffffff1681526020019081526020016000206000808201600090556001820160009055505050565b60075481565b600080600460008473ffffffffffffffffffffffffffffffffffffffff1673ffffffffffffffffffffffffffffffffffffffff16815260200190815260200160002060000154119050919050565b600260009054906101000a900473ffffffffffffffffffffffffffffffffffffffff1673ffffffffffffffffffffffffffffffffffffffff163373ffffffffffffffffffffffffffffffffffffffff1614611124576040517f08c379a00000000000000000000000000000000000000000000000000000000081526004018080602001828103825260348152602001806113466034913960400191505060405180910390fd5b61113a60016005546111d790919063ffffffff16565b600581905550565b6000600680549050905090565b6000808284019050838110156111cd576040517f08c379a000000000000000000000000000000000000000000000000000000000815260040180806020018281038252601b8152602001807f536166654d6174683a206164646974696f6e206f766572666c6f77000000000081525060200191505060405180910390fd5b8091505092915050565b600061121983836040518060400160405280601e81526020017f536166654d6174683a207375627472616374696f6e206f766572666c6f770000815250611221565b905092915050565b60008383111582906112ce576040517f08c379a00000000000000000000000000000000000000000000000000000000081526004018080602001828103825283818151815260200191508051906020019080838360005b83811015611293578082015181840152602081019050611278565b50505050905090810190601f1680156112c05780820380516001836020036101000a031916815260200191505b509250505060405180910390fd5b506000838503905080915050939250505056fe596f75206d757374206265206e6f6d696e61746564206265666f726520796f752063616e20616363657074206f776e6572736869704f6e6c792074686520636f6e7472616374206f776e6572206d617920706572666f726d207468697320616374696f6e4f6e6c7920746865206173736f63696174656420636f6e74726163742063616e20706572666f726d207468697320616374696f6e4e65772069737375616e636520726174696f2063616e6e6f7420657863656564204d41585f49535355414e43455f524154494fa265627a7a723158200ca3d5dc34c2452ff691a67b06ec5be59c1c58cca1ee5ea4e3227693e880dda964736f6c63430005100032",
  "deployedBytecode": "0x608060405234801561001057600080fd5b50600436106101375760003560e01c806379ba5097116100b8578063aefc4ccb1161007c578063aefc4ccb1461042f578063b16c09f014610479578063b410a034146104bd578063b992812e146104db578063ba08f29914610537578063cd92eba91461054157610137565b806379ba5097146103105780638b3f80881461031a5780638da5cb5b146103795780639371bede146103c3578063a764eb45146103e157610137565b806346317712116100ff578063463177121461022857806346ba2d901461024657806352f445ca1461026457806353a47bb7146102a8578063657c6dc7146102f257610137565b8063054be0b71461013c57806308d95cd51461016a5780631627540c146101ac5780631bfba595146101f05780633d31e97b146101fa575b600080fd5b6101686004803603602081101561015257600080fd5b810190808035906020019092919050505061055f565b005b6101966004803603602081101561018057600080fd5b81019080803590602001909291905050506106a6565b6040518082815260200191505060405180910390f35b6101ee600480360360208110156101c257600080fd5b81019080803573ffffffffffffffffffffffffffffffffffffffff1690602001909291905050506106c7565b005b6101f8610813565b005b6102266004803603602081101561021057600080fd5b81019080803590602001909291905050506108d7565b005b6102306109ac565b6040518082815260200191505060405180910390f35b61024e6109d3565b6040518082815260200191505060405180910390f35b6102a66004803603602081101561027a57600080fd5b81019080803573ffffffffffffffffffffffffffffffffffffffff1690602001909291905050506109d9565b005b6102b0610b25565b604051808273ffffffffffffffffffffffffffffffffffffffff1673ffffffffffffffffffffffffffffffffffffffff16815260200191505060405180910390f35b6102fa610b4b565b6040518082815260200191505060405180910390f35b610318610b57565b005b61035c6004803603602081101561033057600080fd5b81019080803573ffffffffffffffffffffffffffffffffffffffff169060200190929190505050610d7d565b604051808381526020018281526020019250505060405180910390f35b610381610da1565b604051808273ffffffffffffffffffffffffffffffffffffffff1673ffffffffffffffffffffffffffffffffffffffff16815260200191505060405180910390f35b6103cb610dc6565b6040518082815260200191505060405180910390f35b61042d600480360360408110156103f757600080fd5b81019080803573ffffffffffffffffffffffffffffffffffffffff16906020019092919080359060200190929190505050610dcc565b005b610437610f09565b604051808273ffffffffffffffffffffffffffffffffffffffff1673ffffffffffffffffffffffffffffffffffffffff16815260200191505060405180910390f35b6104bb6004803603602081101561048f57600080fd5b81019080803573ffffffffffffffffffffffffffffffffffffffff169060200190929190505050610f2f565b005b6104c561102a565b6040518082815260200191505060405180910390f35b61051d600480360360208110156104f157600080fd5b81019080803573ffffffffffffffffffffffffffffffffffffffff169060200190929190505050611030565b604051808215151515815260200191505060405180910390f35b61053f61107e565b005b610549611142565b6040518082815260200191505060405180910390f35b6000809054906101000a900473ffffffffffffffffffffffffffffffffffffffff1673ffffffffffffffffffffffffffffffffffffffff163373ffffffffffffffffffffffffffffffffffffffff1614610604576040517f08c379a000000000000000000000000000000000000000000000000000000000815260040180806020018281038252602f815260200180611317602f913960400191505060405180910390fd5b670de0b6b3a7640000811115610665576040517f08c379a000000000000000000000000000000000000000000000000000000000815260040180806020018281038252603381526020018061137a6033913960400191505060405180910390fd5b806007819055507f63b22e09cc3a33e847c063e35f887bd4ea96bc8c0f93f1f8c311e4fa6d885452816040518082815260200191505060405180910390a150565b600681815481106106b357fe5b906000526020600020016000915090505481565b6000809054906101000a900473ffffffffffffffffffffffffffffffffffffffff1673ffffffffffffffffffffffffffffffffffffffff163373ffffffffffffffffffffffffffffffffffffffff161461076c576040517f08c379a000000000000000000000000000000000000000000000000000000000815260040180806020018281038252602f815260200180611317602f913960400191505060405180910390fd5b80600160006101000a81548173ffffffffffffffffffffffffffffffffffffffff021916908373ffffffffffffffffffffffffffffffffffffffff1602179055507f906a1c6bd7e3091ea86693dd029a831c19049ce77f1dce2ce0bab1cacbabce2281604051808273ffffffffffffffffffffffffffffffffffffffff1673ffffffffffffffffffffffffffffffffffffffff16815260200191505060405180910390a150565b600260009054906101000a900473ffffffffffffffffffffffffffffffffffffffff1673ffffffffffffffffffffffffffffffffffffffff163373ffffffffffffffffffffffffffffffffffffffff16146108b9576040517f08c379a00000000000000000000000000000000000000000000000000000000081526004018080602001828103825260348152602001806113466034913960400191505060405180910390fd5b6108cf600160055461114f90919063ffffffff16565b600581905550565b600260009054906101000a900473ffffffffffffffffffffffffffffffffffffffff1673ffffffffffffffffffffffffffffffffffffffff163373ffffffffffffffffffffffffffffffffffffffff161461097d576040517f08c379a00000000000000000000000000000000000000000000000000000000081526004018080602001828103825260348152602001806113466034913960400191505060405180910390fd5b600681908060018154018082558091505090600182039060005260206000200160009091929091909150555050565b60006006600160068054905003815481106109c357fe5b9060005260206000200154905090565b60035481565b6000809054906101000a900473ffffffffffffffffffffffffffffffffffffffff1673ffffffffffffffffffffffffffffffffffffffff163373ffffffffffffffffffffffffffffffffffffffff1614610a7e576040517f08c379a000000000000000000000000000000000000000000000000000000000815260040180806020018281038252602f815260200180611317602f913960400191505060405180910390fd5b80600260006101000a81548173ffffffffffffffffffffffffffffffffffffffff021916908373ffffffffffffffffffffffffffffffffffffffff1602179055507f73f20cff579e8a4086fa607db83867595f1b6a798e718c0bfa0b94a404128e0381604051808273ffffffffffffffffffffffffffffffffffffffff1673ffffffffffffffffffffffffffffffffffffffff16815260200191505060405180910390a150565b600160009054906101000a900473ffffffffffffffffffffffffffffffffffffffff1681565b670de0b6b3a764000081565b600160009054906101000a900473ffffffffffffffffffffffffffffffffffffffff1673ffffffffffffffffffffffffffffffffffffffff163373ffffffffffffffffffffffffffffffffffffffff1614610bfd576040517f08c379a00000000000000000000000000000000000000000000000000000000081526004018080602001828103825260358152602001806112e26035913960400191505060405180910390fd5b7fb532073b38c83145e3e5135377a08bf9aab55bc0fd7c1179cd4fb995d2a5159c6000809054906101000a900473ffffffffffffffffffffffffffffffffffffffff16600160009054906101000a900473ffffffffffffffffffffffffffffffffffffffff16604051808373ffffffffffffffffffffffffffffffffffffffff1673ffffffffffffffffffffffffffffffffffffffff1681526020018273ffffffffffffffffffffffffffffffffffffffff1673ffffffffffffffffffffffffffffffffffffffff1681526020019250505060405180910390a1600160009054906101000a900473ffffffffffffffffffffffffffffffffffffffff166000806101000a81548173ffffffffffffffffffffffffffffffffffffffff021916908373ffffffffffffffffffffffffffffffffffffffff1602179055506000600160006101000a81548173ffffffffffffffffffffffffffffffffffffffff021916908373ffffffffffffffffffffffffffffffffffffffff160217905550565b60046020528060005260406000206000915090508060000154908060010154905082565b6000809054906101000a900473ffffffffffffffffffffffffffffffffffffffff1681565b60055481565b600260009054906101000a900473ffffffffffffffffffffffffffffffffffffffff1673ffffffffffffffffffffffffffffffffffffffff163373ffffffffffffffffffffffffffffffffffffffff1614610e72576040517f08c379a00000000000000000000000000000000000000000000000000000000081526004018080602001828103825260348152602001806113466034913960400191505060405180910390fd5b80600460008473ffffffffffffffffffffffffffffffffffffffff1673ffffffffffffffffffffffffffffffffffffffff16815260200190815260200160002060000181905550600680549050600460008473ffffffffffffffffffffffffffffffffffffffff1673ffffffffffffffffffffffffffffffffffffffff168152602001908152602001600020600101819055505050565b600260009054906101000a900473ffffffffffffffffffffffffffffffffffffffff1681565b600260009054906101000a900473ffffffffffffffffffffffffffffffffffffffff1673ffffffffffffffffffffffffffffffffffffffff163373ffffffffffffffffffffffffffffffffffffffff1614610fd5576040517f08c379a00000000000000000000000000000000000000000000000000000000081526004018080602001828103825260348152602001806113466034913960400191505060405180910390fd5b600460008273ffffffffffffffffffffffffffffffffffffffff1673ffffffffffffffffffffffffffffffffffffffff1681526020019081526020016000206000808201600090556001820160009055505050565b60075481565b600080600460008473ffffffffffffffffffffffffffffffffffffffff1673ffffffffffffffffffffffffffffffffffffffff16815260200190815260200160002060000154119050919050565b600260009054906101000a900473ffffffffffffffffffffffffffffffffffffffff1673ffffffffffffffffffffffffffffffffffffffff163373ffffffffffffffffffffffffffffffffffffffff1614611124576040517f08c379a00000000000000000000000000000000000000000000000000000000081526004018080602001828103825260348152602001806113466034913960400191505060405180910390fd5b61113a60016005546111d790919063ffffffff16565b600581905550565b6000600680549050905090565b6000808284019050838110156111cd576040517f08c379a000000000000000000000000000000000000000000000000000000000815260040180806020018281038252601b8152602001807f536166654d6174683a206164646974696f6e206f766572666c6f77000000000081525060200191505060405180910390fd5b8091505092915050565b600061121983836040518060400160405280601e81526020017f536166654d6174683a207375627472616374696f6e206f766572666c6f770000815250611221565b905092915050565b60008383111582906112ce576040517f08c379a00000000000000000000000000000000000000000000000000000000081526004018080602001828103825283818151815260200191508051906020019080838360005b83811015611293578082015181840152602081019050611278565b50505050905090810190601f1680156112c05780820380516001836020036101000a031916815260200191505b509250505060405180910390fd5b506000838503905080915050939250505056fe596f75206d757374206265206e6f6d696e61746564206265666f726520796f752063616e20616363657074206f776e6572736869704f6e6c792074686520636f6e7472616374206f776e6572206d617920706572666f726d207468697320616374696f6e4f6e6c7920746865206173736f63696174656420636f6e74726163742063616e20706572666f726d207468697320616374696f6e4e65772069737375616e636520726174696f2063616e6e6f7420657863656564204d41585f49535355414e43455f524154494fa265627a7a723158200ca3d5dc34c2452ff691a67b06ec5be59c1c58cca1ee5ea4e3227693e880dda964736f6c63430005100032",
  "source": "pragma solidity ^0.5.16;\n\n// Inheritance\nimport \"./Owned.sol\";\nimport \"./State.sol\";\nimport \"./LimitedSetup.sol\";\nimport \"./interfaces/ISynthetixState.sol\";\n\n// Libraries\nimport \"./SafeDecimalMath.sol\";\n\n\n// https://docs.synthetix.io/contracts/SynthetixState\ncontract SynthetixState is Owned, State, LimitedSetup, ISynthetixState {\n    using SafeMath for uint;\n    using SafeDecimalMath for uint;\n\n    // A struct for handing values associated with an individual user's debt position\n    struct IssuanceData {\n        // Percentage of the total debt owned at the time\n        // of issuance. This number is modified by the global debt\n        // delta array. You can figure out a user's exit price and\n        // collateralisation ratio using a combination of their initial\n        // debt and the slice of global debt delta which applies to them.\n        uint initialDebtOwnership;\n        // This lets us know when (in relative terms) the user entered\n        // the debt pool so we can calculate their exit price and\n        // collateralistion ratio\n        uint debtEntryIndex;\n    }\n\n    // Issued synth balances for individual fee entitlements and exit price calculations\n    mapping(address => IssuanceData) public issuanceData;\n\n    // The total count of people that have outstanding issued synths in any flavour\n    uint public totalIssuerCount;\n\n    // Global debt pool tracking\n    uint[] public debtLedger;\n\n    // A quantity of synths greater than this ratio\n    // may not be issued against a given value of SNX.\n    uint public issuanceRatio = SafeDecimalMath.unit() / 5;\n    // No more synths may be issued than the value of SNX backing them.\n    uint public constant MAX_ISSUANCE_RATIO = 1e18;\n\n    constructor(address _owner, address _associatedContract)\n        public\n        Owned(_owner)\n        State(_associatedContract)\n        LimitedSetup(1 weeks)\n    {}\n\n    /* ========== SETTERS ========== */\n\n    /**\n     * @notice Set issuance data for an address\n     * @dev Only the associated contract may call this.\n     * @param account The address to set the data for.\n     * @param initialDebtOwnership The initial debt ownership for this address.\n     */\n    function setCurrentIssuanceData(address account, uint initialDebtOwnership) external onlyAssociatedContract {\n        issuanceData[account].initialDebtOwnership = initialDebtOwnership;\n        issuanceData[account].debtEntryIndex = debtLedger.length;\n    }\n\n    /**\n     * @notice Clear issuance data for an address\n     * @dev Only the associated contract may call this.\n     * @param account The address to clear the data for.\n     */\n    function clearIssuanceData(address account) external onlyAssociatedContract {\n        delete issuanceData[account];\n    }\n\n    /**\n     * @notice Increment the total issuer count\n     * @dev Only the associated contract may call this.\n     */\n    function incrementTotalIssuerCount() external onlyAssociatedContract {\n        totalIssuerCount = totalIssuerCount.add(1);\n    }\n\n    /**\n     * @notice Decrement the total issuer count\n     * @dev Only the associated contract may call this.\n     */\n    function decrementTotalIssuerCount() external onlyAssociatedContract {\n        totalIssuerCount = totalIssuerCount.sub(1);\n    }\n\n    /**\n     * @notice Append a value to the debt ledger\n     * @dev Only the associated contract may call this.\n     * @param value The new value to be added to the debt ledger.\n     */\n    function appendDebtLedgerValue(uint value) external onlyAssociatedContract {\n        debtLedger.push(value);\n    }\n\n    /**\n     * @notice Set the issuanceRatio for issuance calculations.\n     * @dev Only callable by the contract owner.\n     */\n    function setIssuanceRatio(uint _issuanceRatio) external onlyOwner {\n        require(_issuanceRatio <= MAX_ISSUANCE_RATIO, \"New issuance ratio cannot exceed MAX_ISSUANCE_RATIO\");\n        issuanceRatio = _issuanceRatio;\n        emit IssuanceRatioUpdated(_issuanceRatio);\n    }\n\n    // /**\n    //  * @notice Import issuer data from the old Synthetix contract before multicurrency\n    //  * @dev Only callable by the contract owner, and only for 1 week after deployment.\n    //  */\n    // function importIssuerData(address[] accounts, uint[] sUSDAmounts) external onlyOwner onlyDuringSetup {\n    //     require(accounts.length == sUSDAmounts.length, \"Length mismatch\");\n\n    //     for (uint8 i = 0; i < accounts.length; i++) {\n    //         _addToDebtRegister(accounts[i], sUSDAmounts[i]);\n    //     }\n    // }\n\n    // /**\n    //  * @notice Import issuer data from the old Synthetix contract before multicurrency\n    //  * @dev Only used from importIssuerData above, meant to be disposable\n    //  */\n    // function _addToDebtRegister(address account, uint amount) internal {\n    //     // Note: this function's implementation has been removed from the current Synthetix codebase\n    //     // as it could only habe been invoked during setup (see importIssuerData) which has since expired.\n    //     // There have been changes to the functions it requires, so to ensure compiles, the below has been removed.\n    //     // For the previous implementation, see Synthetix._addToDebtRegister()\n    // }\n\n    /* ========== VIEWS ========== */\n\n    /**\n     * @notice Retrieve the length of the debt ledger array\n     */\n    function debtLedgerLength() external view returns (uint) {\n        return debtLedger.length;\n    }\n\n    /**\n     * @notice Retrieve the most recent entry from the debt ledger\n     */\n    function lastDebtLedgerEntry() external view returns (uint) {\n        return debtLedger[debtLedger.length - 1];\n    }\n\n    /**\n     * @notice Query whether an account has issued and has an outstanding debt balance\n     * @param account The address to query for\n     */\n    function hasIssued(address account) external view returns (bool) {\n        return issuanceData[account].initialDebtOwnership > 0;\n    }\n\n    event IssuanceRatioUpdated(uint newRatio);\n}\n",
  "sourcePath": "/Users/qizhang/Development/truffle_test2/contracts/SynthetixState.sol",
  "compiler": {
    "name": "solc",
    "version": "0.5.16+commit.9c3226ce.Emscripten.clang"
  },
  "schemaVersion": "3.2.1",
  "updatedAt": "2020-07-05T03:58:13.114Z",
  "devdoc": {
    "methods": {
      "appendDebtLedgerValue(uint256)": {
        "details": "Only the associated contract may call this.",
        "params": {
          "value": "The new value to be added to the debt ledger."
        }
      },
      "clearIssuanceData(address)": {
        "details": "Only the associated contract may call this.",
        "params": {
          "account": "The address to clear the data for."
        }
      },
      "decrementTotalIssuerCount()": {
        "details": "Only the associated contract may call this."
      },
      "hasIssued(address)": {
        "params": {
          "account": "The address to query for"
        }
      },
      "incrementTotalIssuerCount()": {
        "details": "Only the associated contract may call this."
      },
      "setCurrentIssuanceData(address,uint256)": {
        "details": "Only the associated contract may call this.",
        "params": {
          "account": "The address to set the data for.",
          "initialDebtOwnership": "The initial debt ownership for this address."
        }
      },
      "setIssuanceRatio(uint256)": {
        "details": "Only callable by the contract owner."
      }
    }
  },
  "userdoc": {
    "methods": {
      "appendDebtLedgerValue(uint256)": {
        "notice": "Append a value to the debt ledger"
      },
      "clearIssuanceData(address)": {
        "notice": "Clear issuance data for an address"
      },
      "debtLedgerLength()": {
        "notice": "Retrieve the length of the debt ledger array"
      },
      "decrementTotalIssuerCount()": {
        "notice": "Decrement the total issuer count"
      },
      "hasIssued(address)": {
        "notice": "Query whether an account has issued and has an outstanding debt balance"
      },
      "incrementTotalIssuerCount()": {
        "notice": "Increment the total issuer count"
      },
      "lastDebtLedgerEntry()": {
        "notice": "Retrieve the most recent entry from the debt ledger"
      },
      "setCurrentIssuanceData(address,uint256)": {
        "notice": "Set issuance data for an address"
      },
      "setIssuanceRatio(uint256)": {
        "notice": "Set the issuanceRatio for issuance calculations."
      }
    }
  }
}