{
  "contractName": "SynthetixEscrow",
  "abi": [
    {
      "inputs": [
        {
          "internalType": "address",
          "name": "_owner",
          "type": "address"
        },
        {
          "internalType": "contract ISynthetix",
          "name": "_synthetix",
          "type": "address"
        }
      ],
      "payable": false,
      "stateMutability": "nonpayable",
      "type": "constructor"
    },
    {
      "anonymous": false,
      "inputs": [
        {
          "indexed": false,
          "internalType": "address",
          "name": "oldOwner",
          "type": "address"
        },
        {
          "indexed": false,
          "internalType": "address",
          "name": "newOwner",
          "type": "address"
        }
      ],
      "name": "OwnerChanged",
      "type": "event"
    },
    {
      "anonymous": false,
      "inputs": [
        {
          "indexed": false,
          "internalType": "address",
          "name": "newOwner",
          "type": "address"
        }
      ],
      "name": "OwnerNominated",
      "type": "event"
    },
    {
      "anonymous": false,
      "inputs": [
        {
          "indexed": false,
          "internalType": "address",
          "name": "newSynthetix",
          "type": "address"
        }
      ],
      "name": "SynthetixUpdated",
      "type": "event"
    },
    {
      "anonymous": false,
      "inputs": [
        {
          "indexed": true,
          "internalType": "address",
          "name": "beneficiary",
          "type": "address"
        },
        {
          "indexed": false,
          "internalType": "uint256",
          "name": "time",
          "type": "uint256"
        },
        {
          "indexed": false,
          "internalType": "uint256",
          "name": "value",
          "type": "uint256"
        }
      ],
      "name": "Vested",
      "type": "event"
    },
    {
      "constant": true,
      "inputs": [],
      "name": "MAX_VESTING_ENTRIES",
      "outputs": [
        {
          "internalType": "uint256",
          "name": "",
          "type": "uint256"
        }
      ],
      "payable": false,
      "stateMutability": "view",
      "type": "function"
    },
    {
      "constant": true,
      "inputs": [],
      "name": "QUANTITY_INDEX",
      "outputs": [
        {
          "internalType": "uint256",
          "name": "",
          "type": "uint256"
        }
      ],
      "payable": false,
      "stateMutability": "view",
      "type": "function"
    },
    {
      "constant": true,
      "inputs": [],
      "name": "TIME_INDEX",
      "outputs": [
        {
          "internalType": "uint256",
          "name": "",
          "type": "uint256"
        }
      ],
      "payable": false,
      "stateMutability": "view",
      "type": "function"
    },
    {
      "constant": false,
      "inputs": [],
      "name": "acceptOwnership",
      "outputs": [],
      "payable": false,
      "stateMutability": "nonpayable",
      "type": "function"
    },
    {
      "constant": false,
      "inputs": [
        {
          "internalType": "address",
          "name": "_owner",
          "type": "address"
        }
      ],
      "name": "nominateNewOwner",
      "outputs": [],
      "payable": false,
      "stateMutability": "nonpayable",
      "type": "function"
    },
    {
      "constant": true,
      "inputs": [],
      "name": "nominatedOwner",
      "outputs": [
        {
          "internalType": "address",
          "name": "",
          "type": "address"
        }
      ],
      "payable": false,
      "stateMutability": "view",
      "type": "function"
    },
    {
      "constant": true,
      "inputs": [],
      "name": "owner",
      "outputs": [
        {
          "internalType": "address",
          "name": "",
          "type": "address"
        }
      ],
      "payable": false,
      "stateMutability": "view",
      "type": "function"
    },
    {
      "constant": true,
      "inputs": [],
      "name": "setupExpiryTime",
      "outputs": [
        {
          "internalType": "uint256",
          "name": "",
          "type": "uint256"
        }
      ],
      "payable": false,
      "stateMutability": "view",
      "type": "function"
    },
    {
      "constant": true,
      "inputs": [],
      "name": "synthetix",
      "outputs": [
        {
          "internalType": "contract ISynthetix",
          "name": "",
          "type": "address"
        }
      ],
      "payable": false,
      "stateMutability": "view",
      "type": "function"
    },
    {
      "constant": true,
      "inputs": [
        {
          "internalType": "address",
          "name": "",
          "type": "address"
        }
      ],
      "name": "totalVestedAccountBalance",
      "outputs": [
        {
          "internalType": "uint256",
          "name": "",
          "type": "uint256"
        }
      ],
      "payable": false,
      "stateMutability": "view",
      "type": "function"
    },
    {
      "constant": true,
      "inputs": [],
      "name": "totalVestedBalance",
      "outputs": [
        {
          "internalType": "uint256",
          "name": "",
          "type": "uint256"
        }
      ],
      "payable": false,
      "stateMutability": "view",
      "type": "function"
    },
    {
      "constant": true,
      "inputs": [
        {
          "internalType": "address",
          "name": "",
          "type": "address"
        },
        {
          "internalType": "uint256",
          "name": "",
          "type": "uint256"
        },
        {
          "internalType": "uint256",
          "name": "",
          "type": "uint256"
        }
      ],
      "name": "vestingSchedules",
      "outputs": [
        {
          "internalType": "uint256",
          "name": "",
          "type": "uint256"
        }
      ],
      "payable": false,
      "stateMutability": "view",
      "type": "function"
    },
    {
      "constant": false,
      "inputs": [
        {
          "internalType": "contract ISynthetix",
          "name": "_synthetix",
          "type": "address"
        }
      ],
      "name": "setSynthetix",
      "outputs": [],
      "payable": false,
      "stateMutability": "nonpayable",
      "type": "function"
    },
    {
      "constant": true,
      "inputs": [
        {
          "internalType": "address",
          "name": "account",
          "type": "address"
        }
      ],
      "name": "balanceOf",
      "outputs": [
        {
          "internalType": "uint256",
          "name": "",
          "type": "uint256"
        }
      ],
      "payable": false,
      "stateMutability": "view",
      "type": "function"
    },
    {
      "constant": true,
      "inputs": [
        {
          "internalType": "address",
          "name": "account",
          "type": "address"
        }
      ],
      "name": "numVestingEntries",
      "outputs": [
        {
          "internalType": "uint256",
          "name": "",
          "type": "uint256"
        }
      ],
      "payable": false,
      "stateMutability": "view",
      "type": "function"
    },
    {
      "constant": true,
      "inputs": [
        {
          "internalType": "address",
          "name": "account",
          "type": "address"
        },
        {
          "internalType": "uint256",
          "name": "index",
          "type": "uint256"
        }
      ],
      "name": "getVestingScheduleEntry",
      "outputs": [
        {
          "internalType": "uint256[2]",
          "name": "",
          "type": "uint256[2]"
        }
      ],
      "payable": false,
      "stateMutability": "view",
      "type": "function"
    },
    {
      "constant": true,
      "inputs": [
        {
          "internalType": "address",
          "name": "account",
          "type": "address"
        },
        {
          "internalType": "uint256",
          "name": "index",
          "type": "uint256"
        }
      ],
      "name": "getVestingTime",
      "outputs": [
        {
          "internalType": "uint256",
          "name": "",
          "type": "uint256"
        }
      ],
      "payable": false,
      "stateMutability": "view",
      "type": "function"
    },
    {
      "constant": true,
      "inputs": [
        {
          "internalType": "address",
          "name": "account",
          "type": "address"
        },
        {
          "internalType": "uint256",
          "name": "index",
          "type": "uint256"
        }
      ],
      "name": "getVestingQuantity",
      "outputs": [
        {
          "internalType": "uint256",
          "name": "",
          "type": "uint256"
        }
      ],
      "payable": false,
      "stateMutability": "view",
      "type": "function"
    },
    {
      "constant": true,
      "inputs": [
        {
          "internalType": "address",
          "name": "account",
          "type": "address"
        }
      ],
      "name": "getNextVestingIndex",
      "outputs": [
        {
          "internalType": "uint256",
          "name": "",
          "type": "uint256"
        }
      ],
      "payable": false,
      "stateMutability": "view",
      "type": "function"
    },
    {
      "constant": true,
      "inputs": [
        {
          "internalType": "address",
          "name": "account",
          "type": "address"
        }
      ],
      "name": "getNextVestingEntry",
      "outputs": [
        {
          "internalType": "uint256[2]",
          "name": "",
          "type": "uint256[2]"
        }
      ],
      "payable": false,
      "stateMutability": "view",
      "type": "function"
    },
    {
      "constant": true,
      "inputs": [
        {
          "internalType": "address",
          "name": "account",
          "type": "address"
        }
      ],
      "name": "getNextVestingTime",
      "outputs": [
        {
          "internalType": "uint256",
          "name": "",
          "type": "uint256"
        }
      ],
      "payable": false,
      "stateMutability": "view",
      "type": "function"
    },
    {
      "constant": true,
      "inputs": [
        {
          "internalType": "address",
          "name": "account",
          "type": "address"
        }
      ],
      "name": "getNextVestingQuantity",
      "outputs": [
        {
          "internalType": "uint256",
          "name": "",
          "type": "uint256"
        }
      ],
      "payable": false,
      "stateMutability": "view",
      "type": "function"
    },
    {
      "constant": false,
      "inputs": [
        {
          "internalType": "address",
          "name": "account",
          "type": "address"
        }
      ],
      "name": "purgeAccount",
      "outputs": [],
      "payable": false,
      "stateMutability": "nonpayable",
      "type": "function"
    },
    {
      "constant": false,
      "inputs": [
        {
          "internalType": "address",
          "name": "account",
          "type": "address"
        },
        {
          "internalType": "uint256",
          "name": "time",
          "type": "uint256"
        },
        {
          "internalType": "uint256",
          "name": "quantity",
          "type": "uint256"
        }
      ],
      "name": "appendVestingEntry",
      "outputs": [],
      "payable": false,
      "stateMutability": "nonpayable",
      "type": "function"
    },
    {
      "constant": false,
      "inputs": [
        {
          "internalType": "address",
          "name": "account",
          "type": "address"
        },
        {
          "internalType": "uint256[]",
          "name": "times",
          "type": "uint256[]"
        },
        {
          "internalType": "uint256[]",
          "name": "quantities",
          "type": "uint256[]"
        }
      ],
      "name": "addVestingSchedule",
      "outputs": [],
      "payable": false,
      "stateMutability": "nonpayable",
      "type": "function"
    },
    {
      "constant": false,
      "inputs": [],
      "name": "vest",
      "outputs": [],
      "payable": false,
      "stateMutability": "nonpayable",
      "type": "function"
    }
  ],
  "bytecode": "0x608060405234801561001057600080fd5b506040516123bf3803806123bf8339818101604052604081101561003357600080fd5b8101908080519060200190929190805190602001909291905050506249d40082600073ffffffffffffffffffffffffffffffffffffffff168173ffffffffffffffffffffffffffffffffffffffff1614156100f6576040517f08c379a00000000000000000000000000000000000000000000000000000000081526004018080602001828103825260198152602001807f4f776e657220616464726573732063616e6e6f7420626520300000000000000081525060200191505060405180910390fd5b806000806101000a81548173ffffffffffffffffffffffffffffffffffffffff021916908373ffffffffffffffffffffffffffffffffffffffff1602179055507fb532073b38c83145e3e5135377a08bf9aab55bc0fd7c1179cd4fb995d2a5159c600082604051808373ffffffffffffffffffffffffffffffffffffffff1673ffffffffffffffffffffffffffffffffffffffff1681526020018273ffffffffffffffffffffffffffffffffffffffff1673ffffffffffffffffffffffffffffffffffffffff1681526020019250505060405180910390a1508042016002819055505080600360006101000a81548173ffffffffffffffffffffffffffffffffffffffff021916908373ffffffffffffffffffffffffffffffffffffffff16021790555050506121948061022b6000396000f3fe608060405234801561001057600080fd5b506004361061018e5760003560e01c806370a08231116100de5780639b217f9011610097578063d0cc82e311610071578063d0cc82e314610829578063da7bd3e914610847578063ee1d036c146108d1578063fec9f9da146109335761018e565b80639b217f90146106bb578063a15d59ce1461071d578063bb2a7d0c1461073b5761018e565b806370a082311461054f578063759b5225146105a757806379ba5097146105f15780638ad58777146105fb5780638da5cb5b1461061957806397f46527146106635761018e565b80632f5bb6611161014b57806346ba2d901161012557806346ba2d901461047157806353a47bb71461048f57806363667eb7146104d95780636b3905c4146104f75761018e565b80632f5bb6611461037b578063458efde3146103fb57806345e5441f146104055761018e565b8063135c0701146101935780631627540c146101d757806319e740c01461021b5780631bb47b4414610273578063204b676a146102cb578063227d517a14610323575b600080fd5b6101d5600480360360208110156101a957600080fd5b81019080803573ffffffffffffffffffffffffffffffffffffffff169060200190929190505050610977565b005b610219600480360360208110156101ed57600080fd5b81019080803573ffffffffffffffffffffffffffffffffffffffff169060200190929190505050610b61565b005b61025d6004803603602081101561023157600080fd5b81019080803573ffffffffffffffffffffffffffffffffffffffff169060200190929190505050610cad565b6040518082815260200191505060405180910390f35b6102c96004803603606081101561028957600080fd5b81019080803573ffffffffffffffffffffffffffffffffffffffff1690602001909291908035906020019092919080359060200190929190505050610cfc565b005b61030d600480360360208110156102e157600080fd5b81019080803573ffffffffffffffffffffffffffffffffffffffff1690602001909291905050506112dd565b6040518082815260200191505060405180910390f35b6103656004803603602081101561033957600080fd5b81019080803573ffffffffffffffffffffffffffffffffffffffff169060200190929190505050611329565b6040518082815260200191505060405180910390f35b6103bd6004803603602081101561039157600080fd5b81019080803573ffffffffffffffffffffffffffffffffffffffff169060200190929190505050611341565b6040518082600260200280838360005b838110156103e85780820151818401526020810190506103cd565b5050505090500191505060405180910390f35b610403611398565b005b61045b6004803603606081101561041b57600080fd5b81019080803573ffffffffffffffffffffffffffffffffffffffff169060200190929190803590602001909291908035906020019092919050505061168a565b6040518082815260200191505060405180910390f35b6104796116c9565b6040518082815260200191505060405180910390f35b6104976116cf565b604051808273ffffffffffffffffffffffffffffffffffffffff1673ffffffffffffffffffffffffffffffffffffffff16815260200191505060405180910390f35b6104e16116f5565b6040518082815260200191505060405180910390f35b6105396004803603602081101561050d57600080fd5b81019080803573ffffffffffffffffffffffffffffffffffffffff1690602001909291905050506116fa565b6040518082815260200191505060405180910390f35b6105916004803603602081101561056557600080fd5b81019080803573ffffffffffffffffffffffffffffffffffffffff16906020019092919050505061171d565b6040518082815260200191505060405180910390f35b6105af611766565b604051808273ffffffffffffffffffffffffffffffffffffffff1673ffffffffffffffffffffffffffffffffffffffff16815260200191505060405180910390f35b6105f961178c565b005b6106036119b2565b6040518082815260200191505060405180910390f35b6106216119b7565b604051808273ffffffffffffffffffffffffffffffffffffffff1673ffffffffffffffffffffffffffffffffffffffff16815260200191505060405180910390f35b6106a56004803603602081101561067957600080fd5b81019080803573ffffffffffffffffffffffffffffffffffffffff1690602001909291905050506119dc565b6040518082815260200191505060405180910390f35b610707600480360360408110156106d157600080fd5b81019080803573ffffffffffffffffffffffffffffffffffffffff169060200190929190803590602001909291905050506119ff565b6040518082815260200191505060405180910390f35b610725611a24565b6040518082815260200191505060405180910390f35b6108276004803603606081101561075157600080fd5b81019080803573ffffffffffffffffffffffffffffffffffffffff1690602001909291908035906020019064010000000081111561078e57600080fd5b8201836020820111156107a057600080fd5b803590602001918460208302840111640100000000831117156107c257600080fd5b9091929391929390803590602001906401000000008111156107e357600080fd5b8201836020820111156107f557600080fd5b8035906020019184602083028401116401000000008311171561081757600080fd5b9091929391929390505050611a2a565b005b610831611b7e565b6040518082815260200191505060405180910390f35b6108936004803603604081101561085d57600080fd5b81019080803573ffffffffffffffffffffffffffffffffffffffff16906020019092919080359060200190929190505050611b83565b6040518082600260200280838360005b838110156108be5780820151818401526020810190506108a3565b5050505090500191505060405180910390f35b61091d600480360360408110156108e757600080fd5b81019080803573ffffffffffffffffffffffffffffffffffffffff16906020019092919080359060200190929190505050611c27565b6040518082815260200191505060405180910390f35b6109756004803603602081101561094957600080fd5b81019080803573ffffffffffffffffffffffffffffffffffffffff169060200190929190505050611c4c565b005b6000809054906101000a900473ffffffffffffffffffffffffffffffffffffffff1673ffffffffffffffffffffffffffffffffffffffff163373ffffffffffffffffffffffffffffffffffffffff1614610a1c576040517f08c379a000000000000000000000000000000000000000000000000000000000815260040180806020018281038252602f815260200180612108602f913960400191505060405180910390fd5b6002544210610a76576040517f08c379a00000000000000000000000000000000000000000000000000000000081526004018080602001828103825260298152602001806121376029913960400191505060405180910390fd5b600460008273ffffffffffffffffffffffffffffffffffffffff1673ffffffffffffffffffffffffffffffffffffffff1681526020019081526020016000206000610ac19190611f2a565b610b15600560008373ffffffffffffffffffffffffffffffffffffffff1673ffffffffffffffffffffffffffffffffffffffff16815260200190815260200160002054600654611d9890919063ffffffff16565b600681905550600560008273ffffffffffffffffffffffffffffffffffffffff1673ffffffffffffffffffffffffffffffffffffffff1681526020019081526020016000206000905550565b6000809054906101000a900473ffffffffffffffffffffffffffffffffffffffff1673ffffffffffffffffffffffffffffffffffffffff163373ffffffffffffffffffffffffffffffffffffffff1614610c06576040517f08c379a000000000000000000000000000000000000000000000000000000000815260040180806020018281038252602f815260200180612108602f913960400191505060405180910390fd5b80600160006101000a81548173ffffffffffffffffffffffffffffffffffffffff021916908373ffffffffffffffffffffffffffffffffffffffff1602179055507f906a1c6bd7e3091ea86693dd029a831c19049ce77f1dce2ce0bab1cacbabce2281604051808273ffffffffffffffffffffffffffffffffffffffff1673ffffffffffffffffffffffffffffffffffffffff16815260200191505060405180910390a150565b600080610cb9836112dd565b905060008090505b81811015610cf1576000610cd585836119ff565b14610ce4578092505050610cf7565b8080600101915050610cc1565b50809150505b919050565b6000809054906101000a900473ffffffffffffffffffffffffffffffffffffffff1673ffffffffffffffffffffffffffffffffffffffff163373ffffffffffffffffffffffffffffffffffffffff1614610da1576040517f08c379a000000000000000000000000000000000000000000000000000000000815260040180806020018281038252602f815260200180612108602f913960400191505060405180910390fd5b6002544210610dfb576040517f08c379a00000000000000000000000000000000000000000000000000000000081526004018080602001828103825260298152602001806121376029913960400191505060405180910390fd5b814210610e70576040517f08c379a000000000000000000000000000000000000000000000000000000000815260040180806020018281038252601a8152602001807f54696d65206d75737420626520696e207468652066757475726500000000000081525060200191505060405180910390fd5b6000811415610ee7576040517f08c379a00000000000000000000000000000000000000000000000000000000081526004018080602001828103825260178152602001807f5175616e746974792063616e6e6f74206265207a65726f00000000000000000081525060200191505060405180910390fd5b610efc81600654611de290919063ffffffff16565b600681905550600360009054906101000a900473ffffffffffffffffffffffffffffffffffffffff1673ffffffffffffffffffffffffffffffffffffffff166370a08231306040518263ffffffff1660e01b8152600401808273ffffffffffffffffffffffffffffffffffffffff1673ffffffffffffffffffffffffffffffffffffffff16815260200191505060206040518083038186803b158015610fa157600080fd5b505afa158015610fb5573d6000803e3d6000fd5b505050506040513d6020811015610fcb57600080fd5b81019080805190602001909291905050506006541115611036576040517f08c379a00000000000000000000000000000000000000000000000000000000081526004018080602001828103825260478152602001806120c16047913960600191505060405180910390fd5b6000600460008573ffffffffffffffffffffffffffffffffffffffff1673ffffffffffffffffffffffffffffffffffffffff16815260200190815260200160002080549050905060148111156110f4576040517f08c379a000000000000000000000000000000000000000000000000000000000815260040180806020018281038252601c8152602001807f56657374696e67207363686564756c6520697320746f6f206c6f6e670000000081525060200191505060405180910390fd5b60008114156111465781600560008673ffffffffffffffffffffffffffffffffffffffff1673ffffffffffffffffffffffffffffffffffffffff16815260200190815260200160002081905550611248565b8261115c856001611156886112dd565b036119ff565b106111b2576040517f08c379a000000000000000000000000000000000000000000000000000000000815260040180806020018281038252603781526020018061208a6037913960400191505060405180910390fd5b61120482600560008773ffffffffffffffffffffffffffffffffffffffff1673ffffffffffffffffffffffffffffffffffffffff16815260200190815260200160002054611de290919063ffffffff16565b600560008673ffffffffffffffffffffffffffffffffffffffff1673ffffffffffffffffffffffffffffffffffffffff168152602001908152602001600020819055505b600460008573ffffffffffffffffffffffffffffffffffffffff1673ffffffffffffffffffffffffffffffffffffffff168152602001908152602001600020604051806040016040528085815260200184815250908060018154018082558091505090600182039060005260206000209060020201600090919290919091509060026112d5929190611f4e565b505050505050565b6000600460008373ffffffffffffffffffffffffffffffffffffffff1673ffffffffffffffffffffffffffffffffffffffff168152602001908152602001600020805490509050919050565b60056020528060005260406000206000915090505481565b611349611f8e565b600061135483610cad565b905061135f836112dd565b811415611385576040518060400160405280600081526020016000815250915050611393565b61138f8382611b83565b9150505b919050565b60006113a3336112dd565b9050600080600090505b828110156114915760006113c133836119ff565b9050428111156113d15750611491565b60006113dd3384611c27565b90506000811115611482576040518060400160405280600060ff168152602001600060ff16815250600460003373ffffffffffffffffffffffffffffffffffffffff1673ffffffffffffffffffffffffffffffffffffffff168152602001908152602001600020848154811061144f57fe5b906000526020600020906002020190600261146b929190611fb0565b5061147f8185611de290919063ffffffff16565b93505b505080806001019150506113ad565b5060008114611686576114af81600654611d9890919063ffffffff16565b60068190555061150781600560003373ffffffffffffffffffffffffffffffffffffffff1673ffffffffffffffffffffffffffffffffffffffff16815260200190815260200160002054611d9890919063ffffffff16565b600560003373ffffffffffffffffffffffffffffffffffffffff1673ffffffffffffffffffffffffffffffffffffffff16815260200190815260200160002081905550600360009054906101000a900473ffffffffffffffffffffffffffffffffffffffff1673ffffffffffffffffffffffffffffffffffffffff1663a9059cbb33836040518363ffffffff1660e01b8152600401808373ffffffffffffffffffffffffffffffffffffffff1673ffffffffffffffffffffffffffffffffffffffff16815260200182815260200192505050602060405180830381600087803b1580156115f357600080fd5b505af1158015611607573d6000803e3d6000fd5b505050506040513d602081101561161d57600080fd5b8101908080519060200190929190505050503373ffffffffffffffffffffffffffffffffffffffff167ffbeff59d2bfda0d79ea8a29f8c57c66d48c7a13eabbdb90908d9115ec41c9dc64283604051808381526020018281526020019250505060405180910390a25b5050565b600460205282600052604060002082815481106116a357fe5b906000526020600020906002020181600281106116bc57fe5b0160009250925050505481565b60025481565b600160009054906101000a900473ffffffffffffffffffffffffffffffffffffffff1681565b600081565b600061170582611341565b60006002811061171157fe5b60200201519050919050565b6000600560008373ffffffffffffffffffffffffffffffffffffffff1673ffffffffffffffffffffffffffffffffffffffff168152602001908152602001600020549050919050565b600360009054906101000a900473ffffffffffffffffffffffffffffffffffffffff1681565b600160009054906101000a900473ffffffffffffffffffffffffffffffffffffffff1673ffffffffffffffffffffffffffffffffffffffff163373ffffffffffffffffffffffffffffffffffffffff1614611832576040517f08c379a00000000000000000000000000000000000000000000000000000000081526004018080602001828103825260358152602001806120556035913960400191505060405180910390fd5b7fb532073b38c83145e3e5135377a08bf9aab55bc0fd7c1179cd4fb995d2a5159c6000809054906101000a900473ffffffffffffffffffffffffffffffffffffffff16600160009054906101000a900473ffffffffffffffffffffffffffffffffffffffff16604051808373ffffffffffffffffffffffffffffffffffffffff1673ffffffffffffffffffffffffffffffffffffffff1681526020018273ffffffffffffffffffffffffffffffffffffffff1673ffffffffffffffffffffffffffffffffffffffff1681526020019250505060405180910390a1600160009054906101000a900473ffffffffffffffffffffffffffffffffffffffff166000806101000a81548173ffffffffffffffffffffffffffffffffffffffff021916908373ffffffffffffffffffffffffffffffffffffffff1602179055506000600160006101000a81548173ffffffffffffffffffffffffffffffffffffffff021916908373ffffffffffffffffffffffffffffffffffffffff160217905550565b600181565b6000809054906101000a900473ffffffffffffffffffffffffffffffffffffffff1681565b60006119e782611341565b6001600281106119f357fe5b60200201519050919050565b6000611a0b8383611b83565b600060028110611a1757fe5b6020020151905092915050565b60065481565b6000809054906101000a900473ffffffffffffffffffffffffffffffffffffffff1673ffffffffffffffffffffffffffffffffffffffff163373ffffffffffffffffffffffffffffffffffffffff1614611acf576040517f08c379a000000000000000000000000000000000000000000000000000000000815260040180806020018281038252602f815260200180612108602f913960400191505060405180910390fd5b6002544210611b29576040517f08c379a00000000000000000000000000000000000000000000000000000000081526004018080602001828103825260298152602001806121376029913960400191505060405180910390fd5b60008090505b84849050811015611b7657611b6986868684818110611b4a57fe5b90506020020135858585818110611b5d57fe5b90506020020135610cfc565b8080600101915050611b2f565b505050505050565b601481565b611b8b611f8e565b600460008473ffffffffffffffffffffffffffffffffffffffff1673ffffffffffffffffffffffffffffffffffffffff1681526020019081526020016000208281548110611bd557fe5b9060005260206000209060020201600280602002604051908101604052809291908260028015611c1a576020028201915b815481526020019060010190808311611c06575b5050505050905092915050565b6000611c338383611b83565b600160028110611c3f57fe5b6020020151905092915050565b6000809054906101000a900473ffffffffffffffffffffffffffffffffffffffff1673ffffffffffffffffffffffffffffffffffffffff163373ffffffffffffffffffffffffffffffffffffffff1614611cf1576040517f08c379a000000000000000000000000000000000000000000000000000000000815260040180806020018281038252602f815260200180612108602f913960400191505060405180910390fd5b80600360006101000a81548173ffffffffffffffffffffffffffffffffffffffff021916908373ffffffffffffffffffffffffffffffffffffffff1602179055507f46e9c68bd7831071bdd478f1ae4c4a52463961a9d620383a0a121dbfc0e0f06d81604051808273ffffffffffffffffffffffffffffffffffffffff1673ffffffffffffffffffffffffffffffffffffffff16815260200191505060405180910390a150565b6000611dda83836040518060400160405280601e81526020017f536166654d6174683a207375627472616374696f6e206f766572666c6f770000815250611e6a565b905092915050565b600080828401905083811015611e60576040517f08c379a000000000000000000000000000000000000000000000000000000000815260040180806020018281038252601b8152602001807f536166654d6174683a206164646974696f6e206f766572666c6f77000000000081525060200191505060405180910390fd5b8091505092915050565b6000838311158290611f17576040517f08c379a00000000000000000000000000000000000000000000000000000000081526004018080602001828103825283818151815260200191508051906020019080838360005b83811015611edc578082015181840152602081019050611ec1565b50505050905090810190601f168015611f095780820380516001836020036101000a031916815260200191505b509250505060405180910390fd5b5060008385039050809150509392505050565b5080546000825560020290600052602060002090810190611f4b9190611ff5565b50565b8260028101928215611f7d579160200282015b82811115611f7c578251825591602001919060010190611f61565b5b509050611f8a9190612021565b5090565b6040518060400160405280600290602082028038833980820191505090505090565b8260028101928215611fe4579160200282015b82811115611fe3578251829060ff16905591602001919060010190611fc3565b5b509050611ff19190612021565b5090565b61201e91905b8082111561201a57600081816120119190612046565b50600201611ffb565b5090565b90565b61204391905b8082111561203f576000816000905550600101612027565b5090565b90565b50600081556001016000905556fe596f75206d757374206265206e6f6d696e61746564206265666f726520796f752063616e20616363657074206f776e65727368697043616e6e6f7420616464206e65772076657374656420656e7472696573206561726c696572207468616e20746865206c617374206f6e654d75737420626520656e6f7567682062616c616e636520696e2074686520636f6e747261637420746f2070726f7669646520666f72207468652076657374696e6720656e7472794f6e6c792074686520636f6e7472616374206f776e6572206d617920706572666f726d207468697320616374696f6e43616e206f6e6c7920706572666f726d207468697320616374696f6e20647572696e67207365747570a265627a7a723158206c87d2ba36857f9bf74957bd766566762530bfe39b9c1aa5dd9223014cca21c964736f6c63430005100032",
  "source": "pragma solidity ^0.5.16;\n\n// Inheritance\nimport \"./Owned.sol\";\nimport \"./LimitedSetup.sol\";\nimport \"./interfaces/IHasBalance.sol\";\n\n// Libraires\nimport \"./SafeDecimalMath.sol\";\n\n// Internal references\nimport \"./interfaces/IERC20.sol\";\nimport \"./interfaces/ISynthetix.sol\";\n\n\n// https://docs.synthetix.io/contracts/SynthetixEscrow\ncontract SynthetixEscrow is Owned, LimitedSetup(8 weeks), IHasBalance {\n    using SafeMath for uint;\n\n    /* The corresponding Synthetix contract. */\n    ISynthetix public synthetix;\n\n    /* Lists of (timestamp, quantity) pairs per account, sorted in ascending time order.\n     * These are the times at which each given quantity of SNX vests. */\n    mapping(address => uint[2][]) public vestingSchedules;\n\n    /* An account's total vested synthetix balance to save recomputing this for fee extraction purposes. */\n    mapping(address => uint) public totalVestedAccountBalance;\n\n    /* The total remaining vested balance, for verifying the actual synthetix balance of this contract against. */\n    uint public totalVestedBalance;\n\n    uint public constant TIME_INDEX = 0;\n    uint public constant QUANTITY_INDEX = 1;\n\n    /* Limit vesting entries to disallow unbounded iteration over vesting schedules. */\n    uint public constant MAX_VESTING_ENTRIES = 20;\n\n    /* ========== CONSTRUCTOR ========== */\n\n    constructor(address _owner, ISynthetix _synthetix) public Owned(_owner) {\n        synthetix = _synthetix;\n    }\n\n    /* ========== SETTERS ========== */\n\n    function setSynthetix(ISynthetix _synthetix) external onlyOwner {\n        synthetix = _synthetix;\n        emit SynthetixUpdated(address(_synthetix));\n    }\n\n    /* ========== VIEW FUNCTIONS ========== */\n\n    /**\n     * @notice A simple alias to totalVestedAccountBalance: provides ERC20 balance integration.\n     */\n    function balanceOf(address account) public view returns (uint) {\n        return totalVestedAccountBalance[account];\n    }\n\n    /**\n     * @notice The number of vesting dates in an account's schedule.\n     */\n    function numVestingEntries(address account) public view returns (uint) {\n        return vestingSchedules[account].length;\n    }\n\n    /**\n     * @notice Get a particular schedule entry for an account.\n     * @return A pair of uints: (timestamp, synthetix quantity).\n     */\n    function getVestingScheduleEntry(address account, uint index) public view returns (uint[2] memory) {\n        return vestingSchedules[account][index];\n    }\n\n    /**\n     * @notice Get the time at which a given schedule entry will vest.\n     */\n    function getVestingTime(address account, uint index) public view returns (uint) {\n        return getVestingScheduleEntry(account, index)[TIME_INDEX];\n    }\n\n    /**\n     * @notice Get the quantity of SNX associated with a given schedule entry.\n     */\n    function getVestingQuantity(address account, uint index) public view returns (uint) {\n        return getVestingScheduleEntry(account, index)[QUANTITY_INDEX];\n    }\n\n    /**\n     * @notice Obtain the index of the next schedule entry that will vest for a given user.\n     */\n    function getNextVestingIndex(address account) public view returns (uint) {\n        uint len = numVestingEntries(account);\n        for (uint i = 0; i < len; i++) {\n            if (getVestingTime(account, i) != 0) {\n                return i;\n            }\n        }\n        return len;\n    }\n\n    /**\n     * @notice Obtain the next schedule entry that will vest for a given user.\n     * @return A pair of uints: (timestamp, synthetix quantity). */\n    function getNextVestingEntry(address account) public view returns (uint[2] memory) {\n        uint index = getNextVestingIndex(account);\n        if (index == numVestingEntries(account)) {\n            return [uint(0), 0];\n        }\n        return getVestingScheduleEntry(account, index);\n    }\n\n    /**\n     * @notice Obtain the time at which the next schedule entry will vest for a given user.\n     */\n    function getNextVestingTime(address account) external view returns (uint) {\n        return getNextVestingEntry(account)[TIME_INDEX];\n    }\n\n    /**\n     * @notice Obtain the quantity which the next schedule entry will vest for a given user.\n     */\n    function getNextVestingQuantity(address account) external view returns (uint) {\n        return getNextVestingEntry(account)[QUANTITY_INDEX];\n    }\n\n    /* ========== MUTATIVE FUNCTIONS ========== */\n\n    /**\n     * @notice Destroy the vesting information associated with an account.\n     */\n    function purgeAccount(address account) external onlyOwner onlyDuringSetup {\n        delete vestingSchedules[account];\n        totalVestedBalance = totalVestedBalance.sub(totalVestedAccountBalance[account]);\n        delete totalVestedAccountBalance[account];\n    }\n\n    /**\n     * @notice Add a new vesting entry at a given time and quantity to an account's schedule.\n     * @dev A call to this should be accompanied by either enough balance already available\n     * in this contract, or a corresponding call to synthetix.endow(), to ensure that when\n     * the funds are withdrawn, there is enough balance, as well as correctly calculating\n     * the fees.\n     * This may only be called by the owner during the contract's setup period.\n     * Note; although this function could technically be used to produce unbounded\n     * arrays, it's only in the foundation's command to add to these lists.\n     * @param account The account to append a new vesting entry to.\n     * @param time The absolute unix timestamp after which the vested quantity may be withdrawn.\n     * @param quantity The quantity of SNX that will vest.\n     */\n    function appendVestingEntry(\n        address account,\n        uint time,\n        uint quantity\n    ) public onlyOwner onlyDuringSetup {\n        /* No empty or already-passed vesting entries allowed. */\n        require(now < time, \"Time must be in the future\");\n        require(quantity != 0, \"Quantity cannot be zero\");\n\n        /* There must be enough balance in the contract to provide for the vesting entry. */\n        totalVestedBalance = totalVestedBalance.add(quantity);\n        require(\n            totalVestedBalance <= IERC20(address(synthetix)).balanceOf(address(this)),\n            \"Must be enough balance in the contract to provide for the vesting entry\"\n        );\n\n        /* Disallow arbitrarily long vesting schedules in light of the gas limit. */\n        uint scheduleLength = vestingSchedules[account].length;\n        require(scheduleLength <= MAX_VESTING_ENTRIES, \"Vesting schedule is too long\");\n\n        if (scheduleLength == 0) {\n            totalVestedAccountBalance[account] = quantity;\n        } else {\n            /* Disallow adding new vested SNX earlier than the last one.\n             * Since entries are only appended, this means that no vesting date can be repeated. */\n            require(\n                getVestingTime(account, numVestingEntries(account) - 1) < time,\n                \"Cannot add new vested entries earlier than the last one\"\n            );\n            totalVestedAccountBalance[account] = totalVestedAccountBalance[account].add(quantity);\n        }\n\n        vestingSchedules[account].push([time, quantity]);\n    }\n\n    /**\n     * @notice Construct a vesting schedule to release a quantities of SNX\n     * over a series of intervals.\n     * @dev Assumes that the quantities are nonzero\n     * and that the sequence of timestamps is strictly increasing.\n     * This may only be called by the owner during the contract's setup period.\n     */\n    function addVestingSchedule(\n        address account,\n        uint[] calldata times,\n        uint[] calldata quantities\n    ) external onlyOwner onlyDuringSetup {\n        for (uint i = 0; i < times.length; i++) {\n            appendVestingEntry(account, times[i], quantities[i]);\n        }\n    }\n\n    /**\n     * @notice Allow a user to withdraw any SNX in their schedule that have vested.\n     */\n    function vest() external {\n        uint numEntries = numVestingEntries(msg.sender);\n        uint total;\n        for (uint i = 0; i < numEntries; i++) {\n            uint time = getVestingTime(msg.sender, i);\n            /* The list is sorted; when we reach the first future time, bail out. */\n            if (time > now) {\n                break;\n            }\n            uint qty = getVestingQuantity(msg.sender, i);\n            if (qty > 0) {\n                vestingSchedules[msg.sender][i] = [0, 0];\n                total = total.add(qty);\n            }\n        }\n\n        if (total != 0) {\n            totalVestedBalance = totalVestedBalance.sub(total);\n            totalVestedAccountBalance[msg.sender] = totalVestedAccountBalance[msg.sender].sub(total);\n            IERC20(address(synthetix)).transfer(msg.sender, total);\n            emit Vested(msg.sender, now, total);\n        }\n    }\n\n    /* ========== EVENTS ========== */\n\n    event SynthetixUpdated(address newSynthetix);\n\n    event Vested(address indexed beneficiary, uint time, uint value);\n}\n",
  "sourcePath": "/Users/qizhang/Development/truffle_test2/contracts/SynthetixEscrow.sol",
  "compiler": {
    "name": "solc",
    "version": "0.5.16+commit.9c3226ce.Emscripten.clang"
  },
  "schemaVersion": "3.2.1",
  "updatedAt": "2020-07-05T03:58:13.105Z",
  "devdoc": {
    "methods": {
      "addVestingSchedule(address,uint256[],uint256[])": {
        "details": "Assumes that the quantities are nonzero and that the sequence of timestamps is strictly increasing. This may only be called by the owner during the contract's setup period."
      },
      "appendVestingEntry(address,uint256,uint256)": {
        "details": "A call to this should be accompanied by either enough balance already available in this contract, or a corresponding call to synthetix.endow(), to ensure that when the funds are withdrawn, there is enough balance, as well as correctly calculating the fees. This may only be called by the owner during the contract's setup period. Note; although this function could technically be used to produce unbounded arrays, it's only in the foundation's command to add to these lists.",
        "params": {
          "account": "The account to append a new vesting entry to.",
          "quantity": "The quantity of SNX that will vest.",
          "time": "The absolute unix timestamp after which the vested quantity may be withdrawn."
        }
      },
      "getNextVestingEntry(address)": {
        "return": "A pair of uints: (timestamp, synthetix quantity). "
      },
      "getVestingScheduleEntry(address,uint256)": {
        "return": "A pair of uints: (timestamp, synthetix quantity)."
      }
    }
  },
  "userdoc": {
    "methods": {
      "addVestingSchedule(address,uint256[],uint256[])": {
        "notice": "Construct a vesting schedule to release a quantities of SNX over a series of intervals."
      },
      "appendVestingEntry(address,uint256,uint256)": {
        "notice": "Add a new vesting entry at a given time and quantity to an account's schedule."
      },
      "balanceOf(address)": {
        "notice": "A simple alias to totalVestedAccountBalance: provides ERC20 balance integration."
      },
      "getNextVestingEntry(address)": {
        "notice": "Obtain the next schedule entry that will vest for a given user."
      },
      "getNextVestingIndex(address)": {
        "notice": "Obtain the index of the next schedule entry that will vest for a given user."
      },
      "getNextVestingQuantity(address)": {
        "notice": "Obtain the quantity which the next schedule entry will vest for a given user."
      },
      "getNextVestingTime(address)": {
        "notice": "Obtain the time at which the next schedule entry will vest for a given user."
      },
      "getVestingQuantity(address,uint256)": {
        "notice": "Get the quantity of SNX associated with a given schedule entry."
      },
      "getVestingScheduleEntry(address,uint256)": {
        "notice": "Get a particular schedule entry for an account."
      },
      "getVestingTime(address,uint256)": {
        "notice": "Get the time at which a given schedule entry will vest."
      },
      "numVestingEntries(address)": {
        "notice": "The number of vesting dates in an account's schedule."
      },
      "purgeAccount(address)": {
        "notice": "Destroy the vesting information associated with an account."
      },
      "vest()": {
        "notice": "Allow a user to withdraw any SNX in their schedule that have vested."
      }
    }
  }
}