{
  "contractName": "Synth",
  "abi": [
    {
      "inputs": [
        {
          "internalType": "address payable",
          "name": "_proxy",
          "type": "address"
        },
        {
          "internalType": "contract TokenState",
          "name": "_tokenState",
          "type": "address"
        },
        {
          "internalType": "string",
          "name": "_tokenName",
          "type": "string"
        },
        {
          "internalType": "string",
          "name": "_tokenSymbol",
          "type": "string"
        },
        {
          "internalType": "address",
          "name": "_owner",
          "type": "address"
        },
        {
          "internalType": "bytes32",
          "name": "_currencyKey",
          "type": "bytes32"
        },
        {
          "internalType": "uint256",
          "name": "_totalSupply",
          "type": "uint256"
        },
        {
          "internalType": "address",
          "name": "_resolver",
          "type": "address"
        }
      ],
      "payable": false,
      "stateMutability": "nonpayable",
      "type": "constructor"
    },
    {
      "anonymous": false,
      "inputs": [
        {
          "indexed": true,
          "internalType": "address",
          "name": "owner",
          "type": "address"
        },
        {
          "indexed": true,
          "internalType": "address",
          "name": "spender",
          "type": "address"
        },
        {
          "indexed": false,
          "internalType": "uint256",
          "name": "value",
          "type": "uint256"
        }
      ],
      "name": "Approval",
      "type": "event"
    },
    {
      "anonymous": false,
      "inputs": [
        {
          "indexed": true,
          "internalType": "address",
          "name": "account",
          "type": "address"
        },
        {
          "indexed": false,
          "internalType": "uint256",
          "name": "value",
          "type": "uint256"
        }
      ],
      "name": "Burned",
      "type": "event"
    },
    {
      "anonymous": false,
      "inputs": [
        {
          "indexed": true,
          "internalType": "address",
          "name": "account",
          "type": "address"
        },
        {
          "indexed": false,
          "internalType": "uint256",
          "name": "value",
          "type": "uint256"
        }
      ],
      "name": "Issued",
      "type": "event"
    },
    {
      "anonymous": false,
      "inputs": [
        {
          "indexed": false,
          "internalType": "address",
          "name": "oldOwner",
          "type": "address"
        },
        {
          "indexed": false,
          "internalType": "address",
          "name": "newOwner",
          "type": "address"
        }
      ],
      "name": "OwnerChanged",
      "type": "event"
    },
    {
      "anonymous": false,
      "inputs": [
        {
          "indexed": false,
          "internalType": "address",
          "name": "newOwner",
          "type": "address"
        }
      ],
      "name": "OwnerNominated",
      "type": "event"
    },
    {
      "anonymous": false,
      "inputs": [
        {
          "indexed": false,
          "internalType": "address",
          "name": "proxyAddress",
          "type": "address"
        }
      ],
      "name": "ProxyUpdated",
      "type": "event"
    },
    {
      "anonymous": false,
      "inputs": [
        {
          "indexed": false,
          "internalType": "address",
          "name": "newBeneficiary",
          "type": "address"
        }
      ],
      "name": "SelfDestructBeneficiaryUpdated",
      "type": "event"
    },
    {
      "anonymous": false,
      "inputs": [
        {
          "indexed": false,
          "internalType": "uint256",
          "name": "selfDestructDelay",
          "type": "uint256"
        }
      ],
      "name": "SelfDestructInitiated",
      "type": "event"
    },
    {
      "anonymous": false,
      "inputs": [],
      "name": "SelfDestructTerminated",
      "type": "event"
    },
    {
      "anonymous": false,
      "inputs": [
        {
          "indexed": false,
          "internalType": "address",
          "name": "beneficiary",
          "type": "address"
        }
      ],
      "name": "SelfDestructed",
      "type": "event"
    },
    {
      "anonymous": false,
      "inputs": [
        {
          "indexed": false,
          "internalType": "address",
          "name": "newTokenState",
          "type": "address"
        }
      ],
      "name": "TokenStateUpdated",
      "type": "event"
    },
    {
      "anonymous": false,
      "inputs": [
        {
          "indexed": true,
          "internalType": "address",
          "name": "from",
          "type": "address"
        },
        {
          "indexed": true,
          "internalType": "address",
          "name": "to",
          "type": "address"
        },
        {
          "indexed": false,
          "internalType": "uint256",
          "name": "value",
          "type": "uint256"
        }
      ],
      "name": "Transfer",
      "type": "event"
    },
    {
      "constant": true,
      "inputs": [],
      "name": "DECIMALS",
      "outputs": [
        {
          "internalType": "uint8",
          "name": "",
          "type": "uint8"
        }
      ],
      "payable": false,
      "stateMutability": "view",
      "type": "function"
    },
    {
      "constant": true,
      "inputs": [],
      "name": "FEE_ADDRESS",
      "outputs": [
        {
          "internalType": "address",
          "name": "",
          "type": "address"
        }
      ],
      "payable": false,
      "stateMutability": "view",
      "type": "function"
    },
    {
      "constant": true,
      "inputs": [],
      "name": "MAX_ADDRESSES_FROM_RESOLVER",
      "outputs": [
        {
          "internalType": "uint256",
          "name": "",
          "type": "uint256"
        }
      ],
      "payable": false,
      "stateMutability": "view",
      "type": "function"
    },
    {
      "constant": true,
      "inputs": [],
      "name": "SELFDESTRUCT_DELAY",
      "outputs": [
        {
          "internalType": "uint256",
          "name": "",
          "type": "uint256"
        }
      ],
      "payable": false,
      "stateMutability": "view",
      "type": "function"
    },
    {
      "constant": false,
      "inputs": [],
      "name": "acceptOwnership",
      "outputs": [],
      "payable": false,
      "stateMutability": "nonpayable",
      "type": "function"
    },
    {
      "constant": true,
      "inputs": [
        {
          "internalType": "address",
          "name": "owner",
          "type": "address"
        },
        {
          "internalType": "address",
          "name": "spender",
          "type": "address"
        }
      ],
      "name": "allowance",
      "outputs": [
        {
          "internalType": "uint256",
          "name": "",
          "type": "uint256"
        }
      ],
      "payable": false,
      "stateMutability": "view",
      "type": "function"
    },
    {
      "constant": false,
      "inputs": [
        {
          "internalType": "address",
          "name": "spender",
          "type": "address"
        },
        {
          "internalType": "uint256",
          "name": "value",
          "type": "uint256"
        }
      ],
      "name": "approve",
      "outputs": [
        {
          "internalType": "bool",
          "name": "",
          "type": "bool"
        }
      ],
      "payable": false,
      "stateMutability": "nonpayable",
      "type": "function"
    },
    {
      "constant": true,
      "inputs": [
        {
          "internalType": "address",
          "name": "account",
          "type": "address"
        }
      ],
      "name": "balanceOf",
      "outputs": [
        {
          "internalType": "uint256",
          "name": "",
          "type": "uint256"
        }
      ],
      "payable": false,
      "stateMutability": "view",
      "type": "function"
    },
    {
      "constant": true,
      "inputs": [],
      "name": "currencyKey",
      "outputs": [
        {
          "internalType": "bytes32",
          "name": "",
          "type": "bytes32"
        }
      ],
      "payable": false,
      "stateMutability": "view",
      "type": "function"
    },
    {
      "constant": true,
      "inputs": [],
      "name": "decimals",
      "outputs": [
        {
          "internalType": "uint8",
          "name": "",
          "type": "uint8"
        }
      ],
      "payable": false,
      "stateMutability": "view",
      "type": "function"
    },
    {
      "constant": true,
      "inputs": [],
      "name": "getResolverAddressesRequired",
      "outputs": [
        {
          "internalType": "bytes32[24]",
          "name": "addressesRequired",
          "type": "bytes32[24]"
        }
      ],
      "payable": false,
      "stateMutability": "view",
      "type": "function"
    },
    {
      "constant": false,
      "inputs": [],
      "name": "initiateSelfDestruct",
      "outputs": [],
      "payable": false,
      "stateMutability": "nonpayable",
      "type": "function"
    },
    {
      "constant": true,
      "inputs": [],
      "name": "initiationTime",
      "outputs": [
        {
          "internalType": "uint256",
          "name": "",
          "type": "uint256"
        }
      ],
      "payable": false,
      "stateMutability": "view",
      "type": "function"
    },
    {
      "constant": true,
      "inputs": [],
      "name": "integrationProxy",
      "outputs": [
        {
          "internalType": "contract Proxy",
          "name": "",
          "type": "address"
        }
      ],
      "payable": false,
      "stateMutability": "view",
      "type": "function"
    },
    {
      "constant": true,
      "inputs": [
        {
          "internalType": "contract AddressResolver",
          "name": "_resolver",
          "type": "address"
        }
      ],
      "name": "isResolverCached",
      "outputs": [
        {
          "internalType": "bool",
          "name": "",
          "type": "bool"
        }
      ],
      "payable": false,
      "stateMutability": "view",
      "type": "function"
    },
    {
      "constant": true,
      "inputs": [],
      "name": "messageSender",
      "outputs": [
        {
          "internalType": "address",
          "name": "",
          "type": "address"
        }
      ],
      "payable": false,
      "stateMutability": "view",
      "type": "function"
    },
    {
      "constant": true,
      "inputs": [],
      "name": "name",
      "outputs": [
        {
          "internalType": "string",
          "name": "",
          "type": "string"
        }
      ],
      "payable": false,
      "stateMutability": "view",
      "type": "function"
    },
    {
      "constant": false,
      "inputs": [
        {
          "internalType": "address",
          "name": "_owner",
          "type": "address"
        }
      ],
      "name": "nominateNewOwner",
      "outputs": [],
      "payable": false,
      "stateMutability": "nonpayable",
      "type": "function"
    },
    {
      "constant": true,
      "inputs": [],
      "name": "nominatedOwner",
      "outputs": [
        {
          "internalType": "address",
          "name": "",
          "type": "address"
        }
      ],
      "payable": false,
      "stateMutability": "view",
      "type": "function"
    },
    {
      "constant": true,
      "inputs": [],
      "name": "owner",
      "outputs": [
        {
          "internalType": "address",
          "name": "",
          "type": "address"
        }
      ],
      "payable": false,
      "stateMutability": "view",
      "type": "function"
    },
    {
      "constant": true,
      "inputs": [],
      "name": "proxy",
      "outputs": [
        {
          "internalType": "contract Proxy",
          "name": "",
          "type": "address"
        }
      ],
      "payable": false,
      "stateMutability": "view",
      "type": "function"
    },
    {
      "constant": true,
      "inputs": [],
      "name": "resolver",
      "outputs": [
        {
          "internalType": "contract AddressResolver",
          "name": "",
          "type": "address"
        }
      ],
      "payable": false,
      "stateMutability": "view",
      "type": "function"
    },
    {
      "constant": true,
      "inputs": [
        {
          "internalType": "uint256",
          "name": "",
          "type": "uint256"
        }
      ],
      "name": "resolverAddressesRequired",
      "outputs": [
        {
          "internalType": "bytes32",
          "name": "",
          "type": "bytes32"
        }
      ],
      "payable": false,
      "stateMutability": "view",
      "type": "function"
    },
    {
      "constant": false,
      "inputs": [],
      "name": "selfDestruct",
      "outputs": [],
      "payable": false,
      "stateMutability": "nonpayable",
      "type": "function"
    },
    {
      "constant": true,
      "inputs": [],
      "name": "selfDestructBeneficiary",
      "outputs": [
        {
          "internalType": "address",
          "name": "",
          "type": "address"
        }
      ],
      "payable": false,
      "stateMutability": "view",
      "type": "function"
    },
    {
      "constant": true,
      "inputs": [],
      "name": "selfDestructInitiated",
      "outputs": [
        {
          "internalType": "bool",
          "name": "",
          "type": "bool"
        }
      ],
      "payable": false,
      "stateMutability": "view",
      "type": "function"
    },
    {
      "constant": false,
      "inputs": [
        {
          "internalType": "address payable",
          "name": "_integrationProxy",
          "type": "address"
        }
      ],
      "name": "setIntegrationProxy",
      "outputs": [],
      "payable": false,
      "stateMutability": "nonpayable",
      "type": "function"
    },
    {
      "constant": false,
      "inputs": [
        {
          "internalType": "address",
          "name": "sender",
          "type": "address"
        }
      ],
      "name": "setMessageSender",
      "outputs": [],
      "payable": false,
      "stateMutability": "nonpayable",
      "type": "function"
    },
    {
      "constant": false,
      "inputs": [
        {
          "internalType": "address payable",
          "name": "_proxy",
          "type": "address"
        }
      ],
      "name": "setProxy",
      "outputs": [],
      "payable": false,
      "stateMutability": "nonpayable",
      "type": "function"
    },
    {
      "constant": false,
      "inputs": [
        {
          "internalType": "contract AddressResolver",
          "name": "_resolver",
          "type": "address"
        }
      ],
      "name": "setResolverAndSyncCache",
      "outputs": [],
      "payable": false,
      "stateMutability": "nonpayable",
      "type": "function"
    },
    {
      "constant": false,
      "inputs": [
        {
          "internalType": "address payable",
          "name": "_beneficiary",
          "type": "address"
        }
      ],
      "name": "setSelfDestructBeneficiary",
      "outputs": [],
      "payable": false,
      "stateMutability": "nonpayable",
      "type": "function"
    },
    {
      "constant": false,
      "inputs": [
        {
          "internalType": "contract TokenState",
          "name": "_tokenState",
          "type": "address"
        }
      ],
      "name": "setTokenState",
      "outputs": [],
      "payable": false,
      "stateMutability": "nonpayable",
      "type": "function"
    },
    {
      "constant": true,
      "inputs": [],
      "name": "symbol",
      "outputs": [
        {
          "internalType": "string",
          "name": "",
          "type": "string"
        }
      ],
      "payable": false,
      "stateMutability": "view",
      "type": "function"
    },
    {
      "constant": false,
      "inputs": [],
      "name": "terminateSelfDestruct",
      "outputs": [],
      "payable": false,
      "stateMutability": "nonpayable",
      "type": "function"
    },
    {
      "constant": true,
      "inputs": [],
      "name": "tokenState",
      "outputs": [
        {
          "internalType": "contract TokenState",
          "name": "",
          "type": "address"
        }
      ],
      "payable": false,
      "stateMutability": "view",
      "type": "function"
    },
    {
      "constant": true,
      "inputs": [],
      "name": "totalSupply",
      "outputs": [
        {
          "internalType": "uint256",
          "name": "",
          "type": "uint256"
        }
      ],
      "payable": false,
      "stateMutability": "view",
      "type": "function"
    },
    {
      "constant": false,
      "inputs": [
        {
          "internalType": "address",
          "name": "to",
          "type": "address"
        },
        {
          "internalType": "uint256",
          "name": "value",
          "type": "uint256"
        }
      ],
      "name": "transfer",
      "outputs": [
        {
          "internalType": "bool",
          "name": "",
          "type": "bool"
        }
      ],
      "payable": false,
      "stateMutability": "nonpayable",
      "type": "function"
    },
    {
      "constant": false,
      "inputs": [
        {
          "internalType": "address",
          "name": "to",
          "type": "address"
        },
        {
          "internalType": "uint256",
          "name": "value",
          "type": "uint256"
        }
      ],
      "name": "transferAndSettle",
      "outputs": [
        {
          "internalType": "bool",
          "name": "",
          "type": "bool"
        }
      ],
      "payable": false,
      "stateMutability": "nonpayable",
      "type": "function"
    },
    {
      "constant": false,
      "inputs": [
        {
          "internalType": "address",
          "name": "from",
          "type": "address"
        },
        {
          "internalType": "address",
          "name": "to",
          "type": "address"
        },
        {
          "internalType": "uint256",
          "name": "value",
          "type": "uint256"
        }
      ],
      "name": "transferFrom",
      "outputs": [
        {
          "internalType": "bool",
          "name": "",
          "type": "bool"
        }
      ],
      "payable": false,
      "stateMutability": "nonpayable",
      "type": "function"
    },
    {
      "constant": false,
      "inputs": [
        {
          "internalType": "address",
          "name": "from",
          "type": "address"
        },
        {
          "internalType": "address",
          "name": "to",
          "type": "address"
        },
        {
          "internalType": "uint256",
          "name": "value",
          "type": "uint256"
        }
      ],
      "name": "transferFromAndSettle",
      "outputs": [
        {
          "internalType": "bool",
          "name": "",
          "type": "bool"
        }
      ],
      "payable": false,
      "stateMutability": "nonpayable",
      "type": "function"
    },
    {
      "constant": false,
      "inputs": [
        {
          "internalType": "address",
          "name": "account",
          "type": "address"
        },
        {
          "internalType": "uint256",
          "name": "amount",
          "type": "uint256"
        }
      ],
      "name": "issue",
      "outputs": [],
      "payable": false,
      "stateMutability": "nonpayable",
      "type": "function"
    },
    {
      "constant": false,
      "inputs": [
        {
          "internalType": "address",
          "name": "account",
          "type": "address"
        },
        {
          "internalType": "uint256",
          "name": "amount",
          "type": "uint256"
        }
      ],
      "name": "burn",
      "outputs": [],
      "payable": false,
      "stateMutability": "nonpayable",
      "type": "function"
    },
    {
      "constant": false,
      "inputs": [
        {
          "internalType": "uint256",
          "name": "amount",
          "type": "uint256"
        }
      ],
      "name": "setTotalSupply",
      "outputs": [],
      "payable": false,
      "stateMutability": "nonpayable",
      "type": "function"
    },
    {
      "constant": true,
      "inputs": [
        {
          "internalType": "address",
          "name": "account",
          "type": "address"
        }
      ],
      "name": "transferableSynths",
      "outputs": [
        {
          "internalType": "uint256",
          "name": "",
          "type": "uint256"
        }
      ],
      "payable": false,
      "stateMutability": "view",
      "type": "function"
    }
  ],
  "bytecode": "0x60806040526040518060a001604052807f53797374656d537461747573000000000000000000000000000000000000000081526020017f53796e746865746978000000000000000000000000000000000000000000000081526020017f45786368616e676572000000000000000000000000000000000000000000000081526020017f497373756572000000000000000000000000000000000000000000000000000081526020017f466565506f6f6c00000000000000000000000000000000000000000000000000815250600f906005620000dd92919062000b31565b50348015620000eb57600080fd5b50604051620067b8380380620067b883398181016040526101008110156200011257600080fd5b810190808051906020019092919080519060200190929190805160405193929190846401000000008211156200014757600080fd5b838201915060208201858111156200015e57600080fd5b82518660018202830111640100000000821117156200017c57600080fd5b8083526020830192505050908051906020019080838360005b83811015620001b257808201518184015260208101905062000195565b50505050905090810190601f168015620001e05780820380516001836020036101000a031916815260200191505b50604052602001805160405193929190846401000000008211156200020457600080fd5b838201915060208201858111156200021b57600080fd5b82518660018202830111640100000000821117156200023957600080fd5b8083526020830192505050908051906020019080838360005b838110156200026f57808201518184015260208101905062000252565b50505050905090810190601f1680156200029d5780820380516001836020036101000a031916815260200191505b506040526020018051906020019092919080519060200190929190805190602001909291908051906020019092919050505080600f6018806020026040519081016040528092919082601880156200030b576020028201915b815481526020019060010190808311620002f6575b5050505050898989898760128b8681600073ffffffffffffffffffffffffffffffffffffffff168173ffffffffffffffffffffffffffffffffffffffff161415620003be576040517f08c379a00000000000000000000000000000000000000000000000000000000081526004018080602001828103825260198152602001807f4f776e657220616464726573732063616e6e6f7420626520300000000000000081525060200191505060405180910390fd5b806000806101000a81548173ffffffffffffffffffffffffffffffffffffffff021916908373ffffffffffffffffffffffffffffffffffffffff1602179055507fb532073b38c83145e3e5135377a08bf9aab55bc0fd7c1179cd4fb995d2a5159c600082604051808373ffffffffffffffffffffffffffffffffffffffff1673ffffffffffffffffffffffffffffffffffffffff1681526020018273ffffffffffffffffffffffffffffffffffffffff1673ffffffffffffffffffffffffffffffffffffffff1681526020019250505060405180910390a150600073ffffffffffffffffffffffffffffffffffffffff166000809054906101000a900473ffffffffffffffffffffffffffffffffffffffff1673ffffffffffffffffffffffffffffffffffffffff1614156200055c576040517f08c379a00000000000000000000000000000000000000000000000000000000081526004018080602001828103825260118152602001807f4f776e6572206d7573742062652073657400000000000000000000000000000081525060200191505060405180910390fd5b6000809054906101000a900473ffffffffffffffffffffffffffffffffffffffff16600360016101000a81548173ffffffffffffffffffffffffffffffffffffffff021916908373ffffffffffffffffffffffffffffffffffffffff1602179055507fd5da63a0b864b315bc04128dedbc93888c8529ee6cf47ce664dc204339228c536000809054906101000a900473ffffffffffffffffffffffffffffffffffffffff16604051808273ffffffffffffffffffffffffffffffffffffffff1673ffffffffffffffffffffffffffffffffffffffff16815260200191505060405180910390a1600073ffffffffffffffffffffffffffffffffffffffff166000809054906101000a900473ffffffffffffffffffffffffffffffffffffffff1673ffffffffffffffffffffffffffffffffffffffff16141562000707576040517f08c379a00000000000000000000000000000000000000000000000000000000081526004018080602001828103825260118152602001807f4f776e6572206d7573742062652073657400000000000000000000000000000081525060200191505060405180910390fd5b80600460006101000a81548173ffffffffffffffffffffffffffffffffffffffff021916908373ffffffffffffffffffffffffffffffffffffffff1602179055507ffc80377ca9c49cc11ae6982f390a42db976d5530af7c43889264b13fbbd7c57e81604051808273ffffffffffffffffffffffffffffffffffffffff1673ffffffffffffffffffffffffffffffffffffffff16815260200191505060405180910390a15085600760006101000a81548173ffffffffffffffffffffffffffffffffffffffff021916908373ffffffffffffffffffffffffffffffffffffffff16021790555084600890805190602001906200080592919062000b76565b5083600990805190602001906200081e92919062000b76565b5082600a8190555081600b60006101000a81548160ff021916908360ff16021790555050505050505050600073ffffffffffffffffffffffffffffffffffffffff166000809054906101000a900473ffffffffffffffffffffffffffffffffffffffff1673ffffffffffffffffffffffffffffffffffffffff1614156200090d576040517f08c379a00000000000000000000000000000000000000000000000000000000081526004018080602001828103825260118152602001807f4f776e6572206d7573742062652073657400000000000000000000000000000081525060200191505060405180910390fd5b60008090505b601881101562000990576000801b8282601881106200092e57fe5b6020020151146200097c57600d8282601881106200094857fe5b6020020151908060018154018082558091505090600182039060005260206000200160009091929091909150555062000982565b62000990565b808060010191505062000913565b5081600b60016101000a81548173ffffffffffffffffffffffffffffffffffffffff021916908373ffffffffffffffffffffffffffffffffffffffff1602179055505050600073ffffffffffffffffffffffffffffffffffffffff168873ffffffffffffffffffffffffffffffffffffffff16141562000a78576040517f08c379a00000000000000000000000000000000000000000000000000000000081526004018080602001828103825260128152602001807f5f70726f78792063616e6e6f742062652030000000000000000000000000000081525060200191505060405180910390fd5b600073ffffffffffffffffffffffffffffffffffffffff168473ffffffffffffffffffffffffffffffffffffffff16141562000b1c576040517f08c379a00000000000000000000000000000000000000000000000000000000081526004018080602001828103825260128152602001807f5f6f776e65722063616e6e6f742062652030000000000000000000000000000081525060200191505060405180910390fd5b82600e81905550505050505050505062000c4d565b826018810192821562000b63579160200282015b8281111562000b6257825182559160200191906001019062000b45565b5b50905062000b72919062000bfd565b5090565b828054600181600116156101000203166002900490600052602060002090601f016020900481019282601f1062000bb957805160ff191683800117855562000bea565b8280016001018555821562000bea579182015b8281111562000be957825182559160200191906001019062000bcc565b5b50905062000bf9919062000c25565b5090565b62000c2291905b8082111562000c1e57600081600090555060010162000c04565b5090565b90565b62000c4a91905b8082111562000c4657600081600090555060010162000c2c565b5090565b90565b615b5b8062000c5d6000396000f3fe608060405234801561001057600080fd5b50600436106102745760003560e01c80639cbdaeb611610151578063c6c9d828116100c3578063e73cced311610087578063e73cced314610c47578063e90dd9e214610ccd578063eb1edd6114610d17578063ec55688914610d61578063f7ea7a3d14610dab578063ffff51d614610dd957610274565b8063c6c9d82814610b07578063d67bdd2514610b49578063dbd06c8514610b93578063dd62ed3e14610bb1578063e3235c9114610c2957610274565b8063ab49848c11610115578063ab49848c146109a1578063b014c3a3146109e7578063b8225dec14610a4d578063bc67f83214610a6f578063bd32aa4414610ab3578063c58aaae614610abd57610274565b80639cbdaeb6146108415780639dc29fac1461088b5780639f769807146108d9578063a461fc821461091d578063a9059cbb1461093b57610274565b80633278c960116101ea57806379ba5097116101ae57806379ba5097146106ce578063867904b4146106d85780638da5cb5b1461072657806395d89b411461077057806397107d6d146107f35780639cb8a26a1461083757610274565b80633278c960146105825780633be99e6f1461058c57806353a47bb7146105d0578063631e14441461061a57806370a082311461067657610274565b806317c70de41161023c57806317c70de41461043457806318160ddd1461045257806320714f881461047057806323b872dd146104b45780632e0f26251461053a578063313ce5671461055e57610274565b806304f3bcec1461027957806306fdde03146102c3578063095ea7b314610346578063131b0ae7146103ac5780631627540c146103f0575b600080fd5b610281610e31565b604051808273ffffffffffffffffffffffffffffffffffffffff1673ffffffffffffffffffffffffffffffffffffffff16815260200191505060405180910390f35b6102cb610e57565b6040518080602001828103825283818151815260200191508051906020019080838360005b8381101561030b5780820151818401526020810190506102f0565b50505050905090810190601f1680156103385780820380516001836020036101000a031916815260200191505b509250505060405180910390f35b6103926004803603604081101561035c57600080fd5b81019080803573ffffffffffffffffffffffffffffffffffffffff16906020019092919080359060200190929190505050610ef5565b604051808215151515815260200191505060405180910390f35b6103ee600480360360208110156103c257600080fd5b81019080803573ffffffffffffffffffffffffffffffffffffffff169060200190929190505050611176565b005b6104326004803603602081101561040657600080fd5b81019080803573ffffffffffffffffffffffffffffffffffffffff16906020019092919050505061125f565b005b61043c6113ab565b6040518082815260200191505060405180910390f35b61045a6113b1565b6040518082815260200191505060405180910390f35b6104b26004803603602081101561048657600080fd5b81019080803573ffffffffffffffffffffffffffffffffffffffff1690602001909291905050506113b7565b005b610520600480360360608110156104ca57600080fd5b81019080803573ffffffffffffffffffffffffffffffffffffffff169060200190929190803573ffffffffffffffffffffffffffffffffffffffff169060200190929190803590602001909291905050506115a6565b604051808215151515815260200191505060405180910390f35b610542611713565b604051808260ff1660ff16815260200191505060405180910390f35b610566611718565b604051808260ff1660ff16815260200191505060405180910390f35b61058a61172b565b005b6105ce600480360360208110156105a257600080fd5b81019080803573ffffffffffffffffffffffffffffffffffffffff169060200190929190505050611821565b005b6105d8611a80565b604051808273ffffffffffffffffffffffffffffffffffffffff1673ffffffffffffffffffffffffffffffffffffffff16815260200191505060405180910390f35b61065c6004803603602081101561063057600080fd5b81019080803573ffffffffffffffffffffffffffffffffffffffff169060200190929190505050611aa6565b604051808215151515815260200191505060405180910390f35b6106b86004803603602081101561068c57600080fd5b81019080803573ffffffffffffffffffffffffffffffffffffffff169060200190929190505050611cd8565b6040518082815260200191505060405180910390f35b6106d6611dbb565b005b610724600480360360408110156106ee57600080fd5b81019080803573ffffffffffffffffffffffffffffffffffffffff16906020019092919080359060200190929190505050611fe1565b005b61072e612149565b604051808273ffffffffffffffffffffffffffffffffffffffff1673ffffffffffffffffffffffffffffffffffffffff16815260200191505060405180910390f35b61077861216e565b6040518080602001828103825283818151815260200191508051906020019080838360005b838110156107b857808201518184015260208101905061079d565b50505050905090810190601f1680156107e55780820380516001836020036101000a031916815260200191505b509250505060405180910390f35b6108356004803603602081101561080957600080fd5b81019080803573ffffffffffffffffffffffffffffffffffffffff16906020019092919050505061220c565b005b61083f612358565b005b6108496125bb565b604051808273ffffffffffffffffffffffffffffffffffffffff1673ffffffffffffffffffffffffffffffffffffffff16815260200191505060405180910390f35b6108d7600480360360408110156108a157600080fd5b81019080803573ffffffffffffffffffffffffffffffffffffffff169060200190929190803590602001909291905050506125e1565b005b61091b600480360360208110156108ef57600080fd5b81019080803573ffffffffffffffffffffffffffffffffffffffff16906020019092919050505061274a565b005b6109256129c8565b6040518082815260200191505060405180910390f35b6109876004803603604081101561095157600080fd5b81019080803573ffffffffffffffffffffffffffffffffffffffff169060200190929190803590602001909291905050506129cf565b604051808215151515815260200191505060405180910390f35b6109a9612c41565b6040518082601860200280838360005b838110156109d45780820151818401526020810190506109b9565b5050505090500191505060405180910390f35b610a33600480360360408110156109fd57600080fd5b81019080803573ffffffffffffffffffffffffffffffffffffffff16906020019092919080359060200190929190505050612c9a565b604051808215151515815260200191505060405180910390f35b610a556130b7565b604051808215151515815260200191505060405180910390f35b610ab160048036036020811015610a8557600080fd5b81019080803573ffffffffffffffffffffffffffffffffffffffff1690602001909291905050506130ca565b005b610abb613229565b005b610ac561332c565b604051808273ffffffffffffffffffffffffffffffffffffffff1673ffffffffffffffffffffffffffffffffffffffff16815260200191505060405180910390f35b610b3360048036036020811015610b1d57600080fd5b8101908080359060200190929190505050613352565b6040518082815260200191505060405180910390f35b610b51613373565b604051808273ffffffffffffffffffffffffffffffffffffffff1673ffffffffffffffffffffffffffffffffffffffff16815260200191505060405180910390f35b610b9b613399565b6040518082815260200191505060405180910390f35b610c1360048036036040811015610bc757600080fd5b81019080803573ffffffffffffffffffffffffffffffffffffffff169060200190929190803573ffffffffffffffffffffffffffffffffffffffff16906020019092919050505061339f565b6040518082815260200191505060405180910390f35b610c316134b7565b6040518082815260200191505060405180910390f35b610cb360048036036060811015610c5d57600080fd5b81019080803573ffffffffffffffffffffffffffffffffffffffff169060200190929190803573ffffffffffffffffffffffffffffffffffffffff169060200190929190803590602001909291905050506134bc565b604051808215151515815260200191505060405180910390f35b610cd5613875565b604051808273ffffffffffffffffffffffffffffffffffffffff1673ffffffffffffffffffffffffffffffffffffffff16815260200191505060405180910390f35b610d1f61389b565b604051808273ffffffffffffffffffffffffffffffffffffffff1673ffffffffffffffffffffffffffffffffffffffff16815260200191505060405180910390f35b610d696138b3565b604051808273ffffffffffffffffffffffffffffffffffffffff1673ffffffffffffffffffffffffffffffffffffffff16815260200191505060405180910390f35b610dd760048036036020811015610dc157600080fd5b81019080803590602001909291905050506138d9565b005b610e1b60048036036020811015610def57600080fd5b81019080803573ffffffffffffffffffffffffffffffffffffffff169060200190929190505050613b14565b6040518082815260200191505060405180910390f35b600b60019054906101000a900473ffffffffffffffffffffffffffffffffffffffff1681565b60088054600181600116156101000203166002900480601f016020809104026020016040519081016040528092919081815260200182805460018160011615610100020316600290048015610eed5780601f10610ec257610100808354040283529160200191610eed565b820191906000526020600020905b815481529060010190602001808311610ed057829003601f168201915b505050505081565b6000600460009054906101000a900473ffffffffffffffffffffffffffffffffffffffff1673ffffffffffffffffffffffffffffffffffffffff163373ffffffffffffffffffffffffffffffffffffffff1614158015610fa35750600560009054906101000a900473ffffffffffffffffffffffffffffffffffffffff1673ffffffffffffffffffffffffffffffffffffffff163373ffffffffffffffffffffffffffffffffffffffff1614155b8015610ffd57503373ffffffffffffffffffffffffffffffffffffffff16600660009054906101000a900473ffffffffffffffffffffffffffffffffffffffff1673ffffffffffffffffffffffffffffffffffffffff1614155b156110445733600660006101000a81548173ffffffffffffffffffffffffffffffffffffffff021916908373ffffffffffffffffffffffffffffffffffffffff1602179055505b6000600660009054906101000a900473ffffffffffffffffffffffffffffffffffffffff169050600760009054906101000a900473ffffffffffffffffffffffffffffffffffffffff1673ffffffffffffffffffffffffffffffffffffffff1663da46098c8286866040518463ffffffff1660e01b8152600401808473ffffffffffffffffffffffffffffffffffffffff1673ffffffffffffffffffffffffffffffffffffffff1681526020018373ffffffffffffffffffffffffffffffffffffffff1673ffffffffffffffffffffffffffffffffffffffff1681526020018281526020019350505050600060405180830381600087803b15801561114857600080fd5b505af115801561115c573d6000803e3d6000fd5b5050505061116b818585613d06565b600191505092915050565b6000809054906101000a900473ffffffffffffffffffffffffffffffffffffffff1673ffffffffffffffffffffffffffffffffffffffff163373ffffffffffffffffffffffffffffffffffffffff161461121b576040517f08c379a000000000000000000000000000000000000000000000000000000000815260040180806020018281038252602f815260200180615a91602f913960400191505060405180910390fd5b80600560006101000a81548173ffffffffffffffffffffffffffffffffffffffff021916908373ffffffffffffffffffffffffffffffffffffffff16021790555050565b6000809054906101000a900473ffffffffffffffffffffffffffffffffffffffff1673ffffffffffffffffffffffffffffffffffffffff163373ffffffffffffffffffffffffffffffffffffffff1614611304576040517f08c379a000000000000000000000000000000000000000000000000000000000815260040180806020018281038252602f815260200180615a91602f913960400191505060405180910390fd5b80600160006101000a81548173ffffffffffffffffffffffffffffffffffffffff021916908373ffffffffffffffffffffffffffffffffffffffff1602179055507f906a1c6bd7e3091ea86693dd029a831c19049ce77f1dce2ce0bab1cacbabce2281604051808273ffffffffffffffffffffffffffffffffffffffff1673ffffffffffffffffffffffffffffffffffffffff16815260200191505060405180910390a150565b60025481565b600a5481565b6000809054906101000a900473ffffffffffffffffffffffffffffffffffffffff1673ffffffffffffffffffffffffffffffffffffffff163373ffffffffffffffffffffffffffffffffffffffff161461145c576040517f08c379a000000000000000000000000000000000000000000000000000000000815260040180806020018281038252602f815260200180615a91602f913960400191505060405180910390fd5b600073ffffffffffffffffffffffffffffffffffffffff168173ffffffffffffffffffffffffffffffffffffffff1614156114ff576040517f08c379a000000000000000000000000000000000000000000000000000000000815260040180806020018281038252601c8152602001807f42656e6566696369617279206d757374206e6f74206265207a65726f0000000081525060200191505060405180910390fd5b80600360016101000a81548173ffffffffffffffffffffffffffffffffffffffff021916908373ffffffffffffffffffffffffffffffffffffffff1602179055507fd5da63a0b864b315bc04128dedbc93888c8529ee6cf47ce664dc204339228c5381604051808273ffffffffffffffffffffffffffffffffffffffff1673ffffffffffffffffffffffffffffffffffffffff16815260200191505060405180910390a150565b6000600460009054906101000a900473ffffffffffffffffffffffffffffffffffffffff1673ffffffffffffffffffffffffffffffffffffffff163373ffffffffffffffffffffffffffffffffffffffff16141580156116545750600560009054906101000a900473ffffffffffffffffffffffffffffffffffffffff1673ffffffffffffffffffffffffffffffffffffffff163373ffffffffffffffffffffffffffffffffffffffff1614155b80156116ae57503373ffffffffffffffffffffffffffffffffffffffff16600660009054906101000a900473ffffffffffffffffffffffffffffffffffffffff1673ffffffffffffffffffffffffffffffffffffffff1614155b156116f55733600660006101000a81548173ffffffffffffffffffffffffffffffffffffffff021916908373ffffffffffffffffffffffffffffffffffffffff1602179055505b6116ff8483613e71565b61170a848484614069565b90509392505050565b601281565b600b60009054906101000a900460ff1681565b6000809054906101000a900473ffffffffffffffffffffffffffffffffffffffff1673ffffffffffffffffffffffffffffffffffffffff163373ffffffffffffffffffffffffffffffffffffffff16146117d0576040517f08c379a000000000000000000000000000000000000000000000000000000000815260040180806020018281038252602f815260200180615a91602f913960400191505060405180910390fd5b60006002819055506000600360006101000a81548160ff0219169083151502179055507f6adcc7125002935e0aa31697538ebbd65cfddf20431eb6ecdcfc3e238bfd082c60405160405180910390a1565b6000809054906101000a900473ffffffffffffffffffffffffffffffffffffffff1673ffffffffffffffffffffffffffffffffffffffff163373ffffffffffffffffffffffffffffffffffffffff16146118c6576040517f08c379a000000000000000000000000000000000000000000000000000000000815260040180806020018281038252602f815260200180615a91602f913960400191505060405180910390fd5b80600b60016101000a81548173ffffffffffffffffffffffffffffffffffffffff021916908373ffffffffffffffffffffffffffffffffffffffff16021790555060008090505b600d80549050811015611a7c576000600d828154811061192957fe5b90600052602060002001549050600b60019054906101000a900473ffffffffffffffffffffffffffffffffffffffff1673ffffffffffffffffffffffffffffffffffffffff1663dacb2d01826040518263ffffffff1660e01b81526004018082815260200180602001828103825260178152602001807f5265736f6c766572206d697373696e67207461726765740000000000000000008152506020019250505060206040518083038186803b1580156119e257600080fd5b505afa1580156119f6573d6000803e3d6000fd5b505050506040513d6020811015611a0c57600080fd5b8101908080519060200190929190505050600c600083815260200190815260200160002060006101000a81548173ffffffffffffffffffffffffffffffffffffffff021916908373ffffffffffffffffffffffffffffffffffffffff16021790555050808060010191505061190d565b5050565b600160009054906101000a900473ffffffffffffffffffffffffffffffffffffffff1681565b60008173ffffffffffffffffffffffffffffffffffffffff16600b60019054906101000a900473ffffffffffffffffffffffffffffffffffffffff1673ffffffffffffffffffffffffffffffffffffffff1614611b065760009050611cd3565b60008090505b600d80549050811015611ccd576000600d8281548110611b2857fe5b90600052602060002001549050600c600082815260200190815260200160002060009054906101000a900473ffffffffffffffffffffffffffffffffffffffff1673ffffffffffffffffffffffffffffffffffffffff16600b60019054906101000a900473ffffffffffffffffffffffffffffffffffffffff1673ffffffffffffffffffffffffffffffffffffffff166321f8a721836040518263ffffffff1660e01b81526004018082815260200191505060206040518083038186803b158015611bf257600080fd5b505afa158015611c06573d6000803e3d6000fd5b505050506040513d6020811015611c1c57600080fd5b810190808051906020019092919050505073ffffffffffffffffffffffffffffffffffffffff16141580611caf5750600073ffffffffffffffffffffffffffffffffffffffff16600c600083815260200190815260200160002060009054906101000a900473ffffffffffffffffffffffffffffffffffffffff1673ffffffffffffffffffffffffffffffffffffffff16145b15611cbf57600092505050611cd3565b508080600101915050611b0c565b50600190505b919050565b6000600760009054906101000a900473ffffffffffffffffffffffffffffffffffffffff1673ffffffffffffffffffffffffffffffffffffffff166370a08231836040518263ffffffff1660e01b8152600401808273ffffffffffffffffffffffffffffffffffffffff1673ffffffffffffffffffffffffffffffffffffffff16815260200191505060206040518083038186803b158015611d7957600080fd5b505afa158015611d8d573d6000803e3d6000fd5b505050506040513d6020811015611da357600080fd5b81019080805190602001909291905050509050919050565b600160009054906101000a900473ffffffffffffffffffffffffffffffffffffffff1673ffffffffffffffffffffffffffffffffffffffff163373ffffffffffffffffffffffffffffffffffffffff1614611e61576040517f08c379a00000000000000000000000000000000000000000000000000000000081526004018080602001828103825260358152602001806159ef6035913960400191505060405180910390fd5b7fb532073b38c83145e3e5135377a08bf9aab55bc0fd7c1179cd4fb995d2a5159c6000809054906101000a900473ffffffffffffffffffffffffffffffffffffffff16600160009054906101000a900473ffffffffffffffffffffffffffffffffffffffff16604051808373ffffffffffffffffffffffffffffffffffffffff1673ffffffffffffffffffffffffffffffffffffffff1681526020018273ffffffffffffffffffffffffffffffffffffffff1673ffffffffffffffffffffffffffffffffffffffff1681526020019250505060405180910390a1600160009054906101000a900473ffffffffffffffffffffffffffffffffffffffff166000806101000a81548173ffffffffffffffffffffffffffffffffffffffff021916908373ffffffffffffffffffffffffffffffffffffffff1602179055506000600160006101000a81548173ffffffffffffffffffffffffffffffffffffffff021916908373ffffffffffffffffffffffffffffffffffffffff160217905550565b6000611feb61442e565b73ffffffffffffffffffffffffffffffffffffffff163373ffffffffffffffffffffffffffffffffffffffff161490506000612025614494565b73ffffffffffffffffffffffffffffffffffffffff163373ffffffffffffffffffffffffffffffffffffffff16149050600061205f6144fa565b73ffffffffffffffffffffffffffffffffffffffff163373ffffffffffffffffffffffffffffffffffffffff161490506000612099614560565b73ffffffffffffffffffffffffffffffffffffffff163373ffffffffffffffffffffffffffffffffffffffff1614905083806120d25750825b806120da5750815b806120e25750805b612137576040517f08c379a000000000000000000000000000000000000000000000000000000000815260040180806020018281038252603e815260200180615a53603e913960400191505060405180910390fd5b61214186866145c6565b505050505050565b6000809054906101000a900473ffffffffffffffffffffffffffffffffffffffff1681565b60098054600181600116156101000203166002900480601f0160208091040260200160405190810160405280929190818152602001828054600181600116156101000203166002900480156122045780601f106121d957610100808354040283529160200191612204565b820191906000526020600020905b8154815290600101906020018083116121e757829003601f168201915b505050505081565b6000809054906101000a900473ffffffffffffffffffffffffffffffffffffffff1673ffffffffffffffffffffffffffffffffffffffff163373ffffffffffffffffffffffffffffffffffffffff16146122b1576040517f08c379a000000000000000000000000000000000000000000000000000000000815260040180806020018281038252602f815260200180615a91602f913960400191505060405180910390fd5b80600460006101000a81548173ffffffffffffffffffffffffffffffffffffffff021916908373ffffffffffffffffffffffffffffffffffffffff1602179055507ffc80377ca9c49cc11ae6982f390a42db976d5530af7c43889264b13fbbd7c57e81604051808273ffffffffffffffffffffffffffffffffffffffff1673ffffffffffffffffffffffffffffffffffffffff16815260200191505060405180910390a150565b6000809054906101000a900473ffffffffffffffffffffffffffffffffffffffff1673ffffffffffffffffffffffffffffffffffffffff163373ffffffffffffffffffffffffffffffffffffffff16146123fd576040517f08c379a000000000000000000000000000000000000000000000000000000000815260040180806020018281038252602f815260200180615a91602f913960400191505060405180910390fd5b600360009054906101000a900460ff1661247f576040517f08c379a000000000000000000000000000000000000000000000000000000000815260040180806020018281038252601f8152602001807f53656c66204465737472756374206e6f742079657420696e697469617465640081525060200191505060405180910390fd5b426224ea0060025401106124fb576040517f08c379a000000000000000000000000000000000000000000000000000000000815260040180806020018281038252601b8152602001807f53656c662064657374727563742064656c6179206e6f74206d6574000000000081525060200191505060405180910390fd5b7f8a09e1677ced846cb537dc2b172043bd05a1a81ad7e0033a7ef8ba762df990b7600360019054906101000a900473ffffffffffffffffffffffffffffffffffffffff16604051808273ffffffffffffffffffffffffffffffffffffffff1673ffffffffffffffffffffffffffffffffffffffff16815260200191505060405180910390a1600360019054906101000a900473ffffffffffffffffffffffffffffffffffffffff1673ffffffffffffffffffffffffffffffffffffffff16ff5b600560009054906101000a900473ffffffffffffffffffffffffffffffffffffffff1681565b60006125eb61442e565b73ffffffffffffffffffffffffffffffffffffffff163373ffffffffffffffffffffffffffffffffffffffff161490506000612625614494565b73ffffffffffffffffffffffffffffffffffffffff163373ffffffffffffffffffffffffffffffffffffffff16149050600061265f6144fa565b73ffffffffffffffffffffffffffffffffffffffff163373ffffffffffffffffffffffffffffffffffffffff161490506000612699614560565b73ffffffffffffffffffffffffffffffffffffffff163373ffffffffffffffffffffffffffffffffffffffff1614905083806126d25750825b806126da5750815b806126e25750805b612737576040517f08c379a000000000000000000000000000000000000000000000000000000000815260040180806020018281038252603e815260200180615a53603e913960400191505060405180910390fd5b61274186866147a7565b50505050505050565b600460009054906101000a900473ffffffffffffffffffffffffffffffffffffffff1673ffffffffffffffffffffffffffffffffffffffff163373ffffffffffffffffffffffffffffffffffffffff16141580156127f65750600560009054906101000a900473ffffffffffffffffffffffffffffffffffffffff1673ffffffffffffffffffffffffffffffffffffffff163373ffffffffffffffffffffffffffffffffffffffff1614155b801561285057503373ffffffffffffffffffffffffffffffffffffffff16600660009054906101000a900473ffffffffffffffffffffffffffffffffffffffff1673ffffffffffffffffffffffffffffffffffffffff1614155b156128975733600660006101000a81548173ffffffffffffffffffffffffffffffffffffffff021916908373ffffffffffffffffffffffffffffffffffffffff1602179055505b6000809054906101000a900473ffffffffffffffffffffffffffffffffffffffff1673ffffffffffffffffffffffffffffffffffffffff16600660009054906101000a900473ffffffffffffffffffffffffffffffffffffffff1673ffffffffffffffffffffffffffffffffffffffff161461297b576040517f08c379a00000000000000000000000000000000000000000000000000000000081526004018080602001828103825260138152602001807f4f776e6572206f6e6c792066756e6374696f6e0000000000000000000000000081525060200191505060405180910390fd5b80600760006101000a81548173ffffffffffffffffffffffffffffffffffffffff021916908373ffffffffffffffffffffffffffffffffffffffff1602179055506129c581614990565b50565b6224ea0081565b6000600460009054906101000a900473ffffffffffffffffffffffffffffffffffffffff1673ffffffffffffffffffffffffffffffffffffffff163373ffffffffffffffffffffffffffffffffffffffff1614158015612a7d5750600560009054906101000a900473ffffffffffffffffffffffffffffffffffffffff1673ffffffffffffffffffffffffffffffffffffffff163373ffffffffffffffffffffffffffffffffffffffff1614155b8015612ad757503373ffffffffffffffffffffffffffffffffffffffff16600660009054906101000a900473ffffffffffffffffffffffffffffffffffffffff1673ffffffffffffffffffffffffffffffffffffffff1614155b15612b1e5733600660006101000a81548173ffffffffffffffffffffffffffffffffffffffff021916908373ffffffffffffffffffffffffffffffffffffffff1602179055505b612b4a600660009054906101000a900473ffffffffffffffffffffffffffffffffffffffff1683613e71565b73feefeefeefeefeefeefeefeefeefeefeefeefeef73ffffffffffffffffffffffffffffffffffffffff168373ffffffffffffffffffffffffffffffffffffffff161415612ba357612b9c8383614b39565b9050612c3b565b600073ffffffffffffffffffffffffffffffffffffffff168373ffffffffffffffffffffffffffffffffffffffff161415612c0b57612c04600660009054906101000a900473ffffffffffffffffffffffffffffffffffffffff16836147a7565b9050612c3b565b612c38600660009054906101000a900473ffffffffffffffffffffffffffffffffffffffff168484614d81565b90505b92915050565b612c496159cb565b60008090505b600d80549050811015612c9657600d8181548110612c6957fe5b9060005260206000200154828260188110612c8057fe5b6020020181815250508080600101915050612c4f565b5090565b6000600460009054906101000a900473ffffffffffffffffffffffffffffffffffffffff1673ffffffffffffffffffffffffffffffffffffffff163373ffffffffffffffffffffffffffffffffffffffff1614158015612d485750600560009054906101000a900473ffffffffffffffffffffffffffffffffffffffff1673ffffffffffffffffffffffffffffffffffffffff163373ffffffffffffffffffffffffffffffffffffffff1614155b8015612da257503373ffffffffffffffffffffffffffffffffffffffff16600660009054906101000a900473ffffffffffffffffffffffffffffffffffffffff1673ffffffffffffffffffffffffffffffffffffffff1614155b15612de95733600660006101000a81548173ffffffffffffffffffffffffffffffffffffffff021916908373ffffffffffffffffffffffffffffffffffffffff1602179055505b612df1615225565b73ffffffffffffffffffffffffffffffffffffffff166342a28e21600e546040518263ffffffff1660e01b81526004018082815260200191505060006040518083038186803b158015612e4357600080fd5b505afa158015612e57573d6000803e3d6000fd5b505050506000612e656144fa565b73ffffffffffffffffffffffffffffffffffffffff16631b16802c600660009054906101000a900473ffffffffffffffffffffffffffffffffffffffff16600e546040518363ffffffff1660e01b8152600401808373ffffffffffffffffffffffffffffffffffffffff1673ffffffffffffffffffffffffffffffffffffffff16815260200182815260200192505050606060405180830381600087803b158015612f0f57600080fd5b505af1158015612f23573d6000803e3d6000fd5b505050506040513d6060811015612f3957600080fd5b81019080805190602001909291908051906020019092919080519060200190929190505050925050506000839050600082111561306f57600760009054906101000a900473ffffffffffffffffffffffffffffffffffffffff1673ffffffffffffffffffffffffffffffffffffffff166370a08231600660009054906101000a900473ffffffffffffffffffffffffffffffffffffffff166040518263ffffffff1660e01b8152600401808273ffffffffffffffffffffffffffffffffffffffff1673ffffffffffffffffffffffffffffffffffffffff16815260200191505060206040518083038186803b15801561303157600080fd5b505afa158015613045573d6000803e3d6000fd5b505050506040513d602081101561305b57600080fd5b810190808051906020019092919050505090505b80841161307c578361307e565b805b93506130ad600660009054906101000a900473ffffffffffffffffffffffffffffffffffffffff168686614d81565b9250505092915050565b600360009054906101000a900460ff1681565b600460009054906101000a900473ffffffffffffffffffffffffffffffffffffffff1673ffffffffffffffffffffffffffffffffffffffff163373ffffffffffffffffffffffffffffffffffffffff1614806131735750600560009054906101000a900473ffffffffffffffffffffffffffffffffffffffff1673ffffffffffffffffffffffffffffffffffffffff163373ffffffffffffffffffffffffffffffffffffffff16145b6131e5576040517f08c379a00000000000000000000000000000000000000000000000000000000081526004018080602001828103825260178152602001807f4f6e6c79207468652070726f78792063616e2063616c6c00000000000000000081525060200191505060405180910390fd5b80600660006101000a81548173ffffffffffffffffffffffffffffffffffffffff021916908373ffffffffffffffffffffffffffffffffffffffff16021790555050565b6000809054906101000a900473ffffffffffffffffffffffffffffffffffffffff1673ffffffffffffffffffffffffffffffffffffffff163373ffffffffffffffffffffffffffffffffffffffff16146132ce576040517f08c379a000000000000000000000000000000000000000000000000000000000815260040180806020018281038252602f815260200180615a91602f913960400191505060405180910390fd5b426002819055506001600360006101000a81548160ff0219169083151502179055507fcbd94ca75b8dc45c9d80c77e851670e78843c0d75180cb81db3e2158228fa9a66224ea006040518082815260200191505060405180910390a1565b600360019054906101000a900473ffffffffffffffffffffffffffffffffffffffff1681565b600d818154811061335f57fe5b906000526020600020016000915090505481565b600660009054906101000a900473ffffffffffffffffffffffffffffffffffffffff1681565b600e5481565b6000600760009054906101000a900473ffffffffffffffffffffffffffffffffffffffff1673ffffffffffffffffffffffffffffffffffffffff1663dd62ed3e84846040518363ffffffff1660e01b8152600401808373ffffffffffffffffffffffffffffffffffffffff1673ffffffffffffffffffffffffffffffffffffffff1681526020018273ffffffffffffffffffffffffffffffffffffffff1673ffffffffffffffffffffffffffffffffffffffff1681526020019250505060206040518083038186803b15801561347457600080fd5b505afa158015613488573d6000803e3d6000fd5b505050506040513d602081101561349e57600080fd5b8101908080519060200190929190505050905092915050565b601881565b6000600460009054906101000a900473ffffffffffffffffffffffffffffffffffffffff1673ffffffffffffffffffffffffffffffffffffffff163373ffffffffffffffffffffffffffffffffffffffff161415801561356a5750600560009054906101000a900473ffffffffffffffffffffffffffffffffffffffff1673ffffffffffffffffffffffffffffffffffffffff163373ffffffffffffffffffffffffffffffffffffffff1614155b80156135c457503373ffffffffffffffffffffffffffffffffffffffff16600660009054906101000a900473ffffffffffffffffffffffffffffffffffffffff1673ffffffffffffffffffffffffffffffffffffffff1614155b1561360b5733600660006101000a81548173ffffffffffffffffffffffffffffffffffffffff021916908373ffffffffffffffffffffffffffffffffffffffff1602179055505b613613615225565b73ffffffffffffffffffffffffffffffffffffffff166342a28e21600e546040518263ffffffff1660e01b81526004018082815260200191505060006040518083038186803b15801561366557600080fd5b505afa158015613679573d6000803e3d6000fd5b5050505060006136876144fa565b73ffffffffffffffffffffffffffffffffffffffff16631b16802c86600e546040518363ffffffff1660e01b8152600401808373ffffffffffffffffffffffffffffffffffffffff1673ffffffffffffffffffffffffffffffffffffffff16815260200182815260200192505050606060405180830381600087803b15801561370f57600080fd5b505af1158015613723573d6000803e3d6000fd5b505050506040513d606081101561373957600080fd5b81019080805190602001909291908051906020019092919080519060200190929190505050925050506000839050600082111561384d57600760009054906101000a900473ffffffffffffffffffffffffffffffffffffffff1673ffffffffffffffffffffffffffffffffffffffff166370a08231876040518263ffffffff1660e01b8152600401808273ffffffffffffffffffffffffffffffffffffffff1673ffffffffffffffffffffffffffffffffffffffff16815260200191505060206040518083038186803b15801561380f57600080fd5b505afa158015613823573d6000803e3d6000fd5b505050506040513d602081101561383957600080fd5b810190808051906020019092919050505090505b8084101561385b578361385d565b805b935061386a868686614069565b925050509392505050565b600760009054906101000a900473ffffffffffffffffffffffffffffffffffffffff1681565b73feefeefeefeefeefeefeefeefeefeefeefeefeef81565b600460009054906101000a900473ffffffffffffffffffffffffffffffffffffffff1681565b600460009054906101000a900473ffffffffffffffffffffffffffffffffffffffff1673ffffffffffffffffffffffffffffffffffffffff163373ffffffffffffffffffffffffffffffffffffffff16141580156139855750600560009054906101000a900473ffffffffffffffffffffffffffffffffffffffff1673ffffffffffffffffffffffffffffffffffffffff163373ffffffffffffffffffffffffffffffffffffffff1614155b80156139df57503373ffffffffffffffffffffffffffffffffffffffff16600660009054906101000a900473ffffffffffffffffffffffffffffffffffffffff1673ffffffffffffffffffffffffffffffffffffffff1614155b15613a265733600660006101000a81548173ffffffffffffffffffffffffffffffffffffffff021916908373ffffffffffffffffffffffffffffffffffffffff1602179055505b6000809054906101000a900473ffffffffffffffffffffffffffffffffffffffff1673ffffffffffffffffffffffffffffffffffffffff16600660009054906101000a900473ffffffffffffffffffffffffffffffffffffffff1673ffffffffffffffffffffffffffffffffffffffff1614613b0a576040517f08c379a00000000000000000000000000000000000000000000000000000000081526004018080602001828103825260138152602001807f4f776e6572206f6e6c792066756e6374696f6e0000000000000000000000000081525060200191505060405180910390fd5b80600a8190555050565b600080613b1f6144fa565b73ffffffffffffffffffffffffffffffffffffffff166319d5c66584600e546040518363ffffffff1660e01b8152600401808373ffffffffffffffffffffffffffffffffffffffff1673ffffffffffffffffffffffffffffffffffffffff1681526020018281526020019250505060606040518083038186803b158015613ba557600080fd5b505afa158015613bb9573d6000803e3d6000fd5b505050506040513d6060811015613bcf57600080fd5b81019080805190602001909291908051906020019092919080519060200190929190505050505090506000600760009054906101000a900473ffffffffffffffffffffffffffffffffffffffff1673ffffffffffffffffffffffffffffffffffffffff166370a08231856040518263ffffffff1660e01b8152600401808273ffffffffffffffffffffffffffffffffffffffff1673ffffffffffffffffffffffffffffffffffffffff16815260200191505060206040518083038186803b158015613c9957600080fd5b505afa158015613cad573d6000803e3d6000fd5b505050506040513d6020811015613cc357600080fd5b8101908080519060200190929190505050905080821115613ce957600092505050613d01565b613cfc828261528b90919063ffffffff16565b925050505b919050565b600460009054906101000a900473ffffffffffffffffffffffffffffffffffffffff1673ffffffffffffffffffffffffffffffffffffffff1663907dff97826040516020018082815260200191505060405160208183030381529060405260036040518080615ac06021913960210190506040518091039020613d88886152d5565b613d91886152d5565b60006040518763ffffffff1660e01b815260040180806020018781526020018681526020018581526020018481526020018360001b8152602001828103825288818151815260200191508051906020019080838360005b83811015613e03578082015181840152602081019050613de8565b50505050905090810190601f168015613e305780820380516001836020036101000a031916815260200191505b50975050505050505050600060405180830381600087803b158015613e5457600080fd5b505af1158015613e68573d6000803e3d6000fd5b50505050505050565b6000613e7b6144fa565b73ffffffffffffffffffffffffffffffffffffffff1663059c29ec84600e546040518363ffffffff1660e01b8152600401808373ffffffffffffffffffffffffffffffffffffffff1673ffffffffffffffffffffffffffffffffffffffff1681526020018281526020019250505060206040518083038186803b158015613f0157600080fd5b505afa158015613f15573d6000803e3d6000fd5b505050506040513d6020811015613f2b57600080fd5b810190808051906020019092919050505014613f92576040517f08c379a0000000000000000000000000000000000000000000000000000000008152600401808060200182810382526025815260200180615ae16025913960400191505060405180910390fd5b80613f9c83613b14565b1015613ff3576040517f08c379a000000000000000000000000000000000000000000000000000000000815260040180806020018281038252602f815260200180615a24602f913960400191505060405180910390fd5b613ffb615225565b73ffffffffffffffffffffffffffffffffffffffff166342a28e21600e546040518263ffffffff1660e01b81526004018082815260200191505060006040518083038186803b15801561404d57600080fd5b505afa158015614061573d6000803e3d6000fd5b505050505050565b60007fffffffffffffffffffffffffffffffffffffffffffffffffffffffffffffffff600760009054906101000a900473ffffffffffffffffffffffffffffffffffffffff1673ffffffffffffffffffffffffffffffffffffffff1663dd62ed3e86600660009054906101000a900473ffffffffffffffffffffffffffffffffffffffff166040518363ffffffff1660e01b8152600401808373ffffffffffffffffffffffffffffffffffffffff1673ffffffffffffffffffffffffffffffffffffffff1681526020018273ffffffffffffffffffffffffffffffffffffffff1673ffffffffffffffffffffffffffffffffffffffff1681526020019250505060206040518083038186803b15801561418157600080fd5b505afa158015614195573d6000803e3d6000fd5b505050506040513d60208110156141ab57600080fd5b81019080805190602001909291905050501461441a57600760009054906101000a900473ffffffffffffffffffffffffffffffffffffffff1673ffffffffffffffffffffffffffffffffffffffff1663da46098c85600660009054906101000a900473ffffffffffffffffffffffffffffffffffffffff1661436586600760009054906101000a900473ffffffffffffffffffffffffffffffffffffffff1673ffffffffffffffffffffffffffffffffffffffff1663dd62ed3e8b600660009054906101000a900473ffffffffffffffffffffffffffffffffffffffff166040518363ffffffff1660e01b8152600401808373ffffffffffffffffffffffffffffffffffffffff1673ffffffffffffffffffffffffffffffffffffffff1681526020018273ffffffffffffffffffffffffffffffffffffffff1673ffffffffffffffffffffffffffffffffffffffff1681526020019250505060206040518083038186803b15801561431c57600080fd5b505afa158015614330573d6000803e3d6000fd5b505050506040513d602081101561434657600080fd5b810190808051906020019092919050505061528b90919063ffffffff16565b6040518463ffffffff1660e01b8152600401808473ffffffffffffffffffffffffffffffffffffffff1673ffffffffffffffffffffffffffffffffffffffff1681526020018373ffffffffffffffffffffffffffffffffffffffff1673ffffffffffffffffffffffffffffffffffffffff1681526020018281526020019350505050600060405180830381600087803b15801561440157600080fd5b505af1158015614415573d6000803e3d6000fd5b505050505b614425848484614d81565b90509392505050565b600061448f7f53796e74686574697800000000000000000000000000000000000000000000006040518060400160405280601981526020017f4d697373696e672053796e7468657469782061646472657373000000000000008152506152f8565b905090565b60006144f57f466565506f6f6c000000000000000000000000000000000000000000000000006040518060400160405280601781526020017f4d697373696e6720466565506f6f6c20616464726573730000000000000000008152506152f8565b905090565b600061455b7f45786368616e67657200000000000000000000000000000000000000000000006040518060400160405280601981526020017f4d697373696e672045786368616e6765722061646472657373000000000000008152506152f8565b905090565b60006145c17f49737375657200000000000000000000000000000000000000000000000000006040518060400160405280601681526020017f4d697373696e67204973737565722061646472657373000000000000000000008152506152f8565b905090565b600760009054906101000a900473ffffffffffffffffffffffffffffffffffffffff1673ffffffffffffffffffffffffffffffffffffffff1663b46310f6836146f184600760009054906101000a900473ffffffffffffffffffffffffffffffffffffffff1673ffffffffffffffffffffffffffffffffffffffff166370a08231886040518263ffffffff1660e01b8152600401808273ffffffffffffffffffffffffffffffffffffffff1673ffffffffffffffffffffffffffffffffffffffff16815260200191505060206040518083038186803b1580156146a857600080fd5b505afa1580156146bc573d6000803e3d6000fd5b505050506040513d60208110156146d257600080fd5b810190808051906020019092919050505061541490919063ffffffff16565b6040518363ffffffff1660e01b8152600401808373ffffffffffffffffffffffffffffffffffffffff1673ffffffffffffffffffffffffffffffffffffffff16815260200182815260200192505050600060405180830381600087803b15801561475a57600080fd5b505af115801561476e573d6000803e3d6000fd5b5050505061478781600a5461541490919063ffffffff16565b600a819055506147996000838361549c565b6147a38282615607565b5050565b6000600760009054906101000a900473ffffffffffffffffffffffffffffffffffffffff1673ffffffffffffffffffffffffffffffffffffffff1663b46310f6846148d485600760009054906101000a900473ffffffffffffffffffffffffffffffffffffffff1673ffffffffffffffffffffffffffffffffffffffff166370a08231896040518263ffffffff1660e01b8152600401808273ffffffffffffffffffffffffffffffffffffffff1673ffffffffffffffffffffffffffffffffffffffff16815260200191505060206040518083038186803b15801561488b57600080fd5b505afa15801561489f573d6000803e3d6000fd5b505050506040513d60208110156148b557600080fd5b810190808051906020019092919050505061528b90919063ffffffff16565b6040518363ffffffff1660e01b8152600401808373ffffffffffffffffffffffffffffffffffffffff1673ffffffffffffffffffffffffffffffffffffffff16815260200182815260200192505050600060405180830381600087803b15801561493d57600080fd5b505af1158015614951573d6000803e3d6000fd5b5050505061496a82600a5461528b90919063ffffffff16565b600a8190555061497c8360008461549c565b6149868383615789565b6001905092915050565b600460009054906101000a900473ffffffffffffffffffffffffffffffffffffffff1673ffffffffffffffffffffffffffffffffffffffff1663907dff9782604051602001808273ffffffffffffffffffffffffffffffffffffffff1673ffffffffffffffffffffffffffffffffffffffff168152602001915050604051602081830303815290604052600160405180807f546f6b656e537461746555706461746564286164647265737329000000000000815250601a019050604051809103902060008060006040518763ffffffff1660e01b815260040180806020018781526020018681526020018560001b81526020018460001b81526020018360001b8152602001828103825288818151815260200191508051906020019080838360005b83811015614acd578082015181840152602081019050614ab2565b50505050905090810190601f168015614afa5780820380516001836020036101000a031916815260200191505b50975050505050505050600060405180830381600087803b158015614b1e57600080fd5b505af1158015614b32573d6000803e3d6000fd5b5050505050565b6000807f7355534400000000000000000000000000000000000000000000000000000000600e541415614b9c57829050614b96600660009054906101000a900473ffffffffffffffffffffffffffffffffffffffff168585614d81565b50614d04565b614ba46144fa565b73ffffffffffffffffffffffffffffffffffffffff16630a1e187d600660009054906101000a900473ffffffffffffffffffffffffffffffffffffffff16600e548673feefeefeefeefeefeefeefeefeefeefeefeefeef6040518563ffffffff1660e01b8152600401808573ffffffffffffffffffffffffffffffffffffffff1673ffffffffffffffffffffffffffffffffffffffff168152602001848152602001838152602001807f73555344000000000000000000000000000000000000000000000000000000008152506020018273ffffffffffffffffffffffffffffffffffffffff1673ffffffffffffffffffffffffffffffffffffffff168152602001945050505050602060405180830381600087803b158015614cc657600080fd5b505af1158015614cda573d6000803e3d6000fd5b505050506040513d6020811015614cf057600080fd5b810190808051906020019092919050505090505b614d0c614494565b73ffffffffffffffffffffffffffffffffffffffff166322bf55ef826040518263ffffffff1660e01b815260040180828152602001915050600060405180830381600087803b158015614d5e57600080fd5b505af1158015614d72573d6000803e3d6000fd5b50505050600191505092915050565b60008073ffffffffffffffffffffffffffffffffffffffff168373ffffffffffffffffffffffffffffffffffffffff1614158015614deb57503073ffffffffffffffffffffffffffffffffffffffff168373ffffffffffffffffffffffffffffffffffffffff1614155b8015614e455750600460009054906101000a900473ffffffffffffffffffffffffffffffffffffffff1673ffffffffffffffffffffffffffffffffffffffff168373ffffffffffffffffffffffffffffffffffffffff1614155b614eb7576040517f08c379a000000000000000000000000000000000000000000000000000000000815260040180806020018281038252601f8152602001807f43616e6e6f74207472616e7366657220746f207468697320616464726573730081525060200191505060405180910390fd5b600760009054906101000a900473ffffffffffffffffffffffffffffffffffffffff1673ffffffffffffffffffffffffffffffffffffffff1663b46310f685614fe285600760009054906101000a900473ffffffffffffffffffffffffffffffffffffffff1673ffffffffffffffffffffffffffffffffffffffff166370a082318a6040518263ffffffff1660e01b8152600401808273ffffffffffffffffffffffffffffffffffffffff1673ffffffffffffffffffffffffffffffffffffffff16815260200191505060206040518083038186803b158015614f9957600080fd5b505afa158015614fad573d6000803e3d6000fd5b505050506040513d6020811015614fc357600080fd5b810190808051906020019092919050505061528b90919063ffffffff16565b6040518363ffffffff1660e01b8152600401808373ffffffffffffffffffffffffffffffffffffffff1673ffffffffffffffffffffffffffffffffffffffff16815260200182815260200192505050600060405180830381600087803b15801561504b57600080fd5b505af115801561505f573d6000803e3d6000fd5b50505050600760009054906101000a900473ffffffffffffffffffffffffffffffffffffffff1673ffffffffffffffffffffffffffffffffffffffff1663b46310f68461518e85600760009054906101000a900473ffffffffffffffffffffffffffffffffffffffff1673ffffffffffffffffffffffffffffffffffffffff166370a08231896040518263ffffffff1660e01b8152600401808273ffffffffffffffffffffffffffffffffffffffff1673ffffffffffffffffffffffffffffffffffffffff16815260200191505060206040518083038186803b15801561514557600080fd5b505afa158015615159573d6000803e3d6000fd5b505050506040513d602081101561516f57600080fd5b810190808051906020019092919050505061541490919063ffffffff16565b6040518363ffffffff1660e01b8152600401808373ffffffffffffffffffffffffffffffffffffffff1673ffffffffffffffffffffffffffffffffffffffff16815260200182815260200192505050600060405180830381600087803b1580156151f757600080fd5b505af115801561520b573d6000803e3d6000fd5b5050505061521a84848461549c565b600190509392505050565b60006152867f53797374656d53746174757300000000000000000000000000000000000000006040518060400160405280601c81526020017f4d697373696e672053797374656d5374617475732061646472657373000000008152506152f8565b905090565b60006152cd83836040518060400160405280601e81526020017f536166654d6174683a207375627472616374696f6e206f766572666c6f77000081525061590b565b905092915050565b60008173ffffffffffffffffffffffffffffffffffffffff1660001b9050919050565b600080600c600085815260200190815260200160002060009054906101000a900473ffffffffffffffffffffffffffffffffffffffff169050600073ffffffffffffffffffffffffffffffffffffffff168173ffffffffffffffffffffffffffffffffffffffff1614158390615409576040517f08c379a00000000000000000000000000000000000000000000000000000000081526004018080602001828103825283818151815260200191508051906020019080838360005b838110156153ce5780820151818401526020810190506153b3565b50505050905090810190601f1680156153fb5780820380516001836020036101000a031916815260200191505b509250505060405180910390fd5b508091505092915050565b600080828401905083811015615492576040517f08c379a000000000000000000000000000000000000000000000000000000000815260040180806020018281038252601b8152602001807f536166654d6174683a206164646974696f6e206f766572666c6f77000000000081525060200191505060405180910390fd5b8091505092915050565b600460009054906101000a900473ffffffffffffffffffffffffffffffffffffffff1673ffffffffffffffffffffffffffffffffffffffff1663907dff97826040516020018082815260200191505060405160208183030381529060405260036040518080615b06602191396021019050604051809103902061551e886152d5565b615527886152d5565b60006040518763ffffffff1660e01b815260040180806020018781526020018681526020018581526020018481526020018360001b8152602001828103825288818151815260200191508051906020019080838360005b8381101561559957808201518184015260208101905061557e565b50505050905090810190601f1680156155c65780820380516001836020036101000a031916815260200191505b50975050505050505050600060405180830381600087803b1580156155ea57600080fd5b505af11580156155fe573d6000803e3d6000fd5b50505050505050565b600460009054906101000a900473ffffffffffffffffffffffffffffffffffffffff1673ffffffffffffffffffffffffffffffffffffffff1663907dff978260405160200180828152602001915050604051602081830303815290604052600260405180807f49737375656428616464726573732c75696e7432353629000000000000000000815250601701905060405180910390206156a6876152d5565b6000806040518763ffffffff1660e01b815260040180806020018781526020018681526020018581526020018460001b81526020018360001b8152602001828103825288818151815260200191508051906020019080838360005b8381101561571c578082015181840152602081019050615701565b50505050905090810190601f1680156157495780820380516001836020036101000a031916815260200191505b50975050505050505050600060405180830381600087803b15801561576d57600080fd5b505af1158015615781573d6000803e3d6000fd5b505050505050565b600460009054906101000a900473ffffffffffffffffffffffffffffffffffffffff1673ffffffffffffffffffffffffffffffffffffffff1663907dff978260405160200180828152602001915050604051602081830303815290604052600260405180807f4275726e656428616464726573732c75696e743235362900000000000000000081525060170190506040518091039020615828876152d5565b6000806040518763ffffffff1660e01b815260040180806020018781526020018681526020018581526020018460001b81526020018360001b8152602001828103825288818151815260200191508051906020019080838360005b8381101561589e578082015181840152602081019050615883565b50505050905090810190601f1680156158cb5780820380516001836020036101000a031916815260200191505b50975050505050505050600060405180830381600087803b1580156158ef57600080fd5b505af1158015615903573d6000803e3d6000fd5b505050505050565b60008383111582906159b8576040517f08c379a00000000000000000000000000000000000000000000000000000000081526004018080602001828103825283818151815260200191508051906020019080838360005b8381101561597d578082015181840152602081019050615962565b50505050905090810190601f1680156159aa5780820380516001836020036101000a031916815260200191505b509250505060405180910390fd5b5060008385039050809150509392505050565b60405180610300016040528060189060208202803883398082019150509050509056fe596f75206d757374206265206e6f6d696e61746564206265666f726520796f752063616e20616363657074206f776e657273686970496e73756666696369656e742062616c616e636520616674657220616e7920736574746c656d656e74206f77696e674f6e6c792053796e7468657469782c20466565506f6f6c2c2045786368616e676572206f722049737375657220636f6e74726163747320616c6c6f7765644f6e6c792074686520636f6e7472616374206f776e6572206d617920706572666f726d207468697320616374696f6e417070726f76616c28616464726573732c616464726573732c75696e743235362943616e6e6f74207472616e7366657220647572696e672077616974696e6720706572696f645472616e7366657228616464726573732c616464726573732c75696e7432353629a265627a7a72315820fa9d431ae86329af68a0a5de89fd2db26049442e34f8ba8d996c7213a025e00664736f6c63430005100032",
  "source": "pragma solidity ^0.5.16;\n\n// Inheritance\nimport \"./Owned.sol\";\nimport \"./ExternStateToken.sol\";\nimport \"./MixinResolver.sol\";\nimport \"./interfaces/ISynth.sol\";\nimport \"./interfaces/IERC20.sol\";\n\n// Internal references\nimport \"./interfaces/ISystemStatus.sol\";\nimport \"./interfaces/IFeePool.sol\";\nimport \"./interfaces/ISynthetix.sol\";\nimport \"./interfaces/IExchanger.sol\";\nimport \"./interfaces/IIssuer.sol\";\n\n\ncontract Synth is Owned, IERC20, ExternStateToken, MixinResolver, ISynth {\n    /* ========== STATE VARIABLES ========== */\n\n    // Currency key which identifies this Synth to the Synthetix system\n    bytes32 public currencyKey;\n\n    uint8 public constant DECIMALS = 18;\n\n    // Where fees are pooled in sUSD\n    address public constant FEE_ADDRESS = 0xfeEFEEfeefEeFeefEEFEEfEeFeefEEFeeFEEFEeF;\n\n    /* ========== ADDRESS RESOLVER CONFIGURATION ========== */\n\n    bytes32 private constant CONTRACT_SYSTEMSTATUS = \"SystemStatus\";\n    bytes32 private constant CONTRACT_SYNTHETIX = \"Synthetix\";\n    bytes32 private constant CONTRACT_EXCHANGER = \"Exchanger\";\n    bytes32 private constant CONTRACT_ISSUER = \"Issuer\";\n    bytes32 private constant CONTRACT_FEEPOOL = \"FeePool\";\n\n    bytes32[24] internal addressesToCache = [\n        CONTRACT_SYSTEMSTATUS,\n        CONTRACT_SYNTHETIX,\n        CONTRACT_EXCHANGER,\n        CONTRACT_ISSUER,\n        CONTRACT_FEEPOOL\n    ];\n\n    /* ========== CONSTRUCTOR ========== */\n\n    constructor(\n        address payable _proxy,\n        TokenState _tokenState,\n        string memory _tokenName,\n        string memory _tokenSymbol,\n        address _owner,\n        bytes32 _currencyKey,\n        uint _totalSupply,\n        address _resolver\n    )\n        public\n        ExternStateToken(_proxy, _tokenState, _tokenName, _tokenSymbol, _totalSupply, DECIMALS, _owner)\n        MixinResolver(_resolver, addressesToCache)\n    {\n        require(_proxy != address(0), \"_proxy cannot be 0\");\n        require(_owner != address(0), \"_owner cannot be 0\");\n\n        currencyKey = _currencyKey;\n    }\n\n    /* ========== MUTATIVE FUNCTIONS ========== */\n\n    function transfer(address to, uint value) public optionalProxy returns (bool) {\n        _ensureCanTransfer(messageSender, value);\n\n        // transfers to FEE_ADDRESS will be exchanged into sUSD and recorded as fee\n        if (to == FEE_ADDRESS) {\n            return _transferToFeeAddress(to, value);\n        }\n\n        // transfers to 0x address will be burned\n        if (to == address(0)) {\n            return _internalBurn(messageSender, value);\n        }\n\n        return super._internalTransfer(messageSender, to, value);\n    }\n\n    function transferAndSettle(address to, uint value) public optionalProxy returns (bool) {\n        systemStatus().requireSynthActive(currencyKey);\n\n        (, , uint numEntriesSettled) = exchanger().settle(messageSender, currencyKey);\n\n        // Save gas instead of calling transferableSynths\n        uint balanceAfter = value;\n\n        if (numEntriesSettled > 0) {\n            balanceAfter = tokenState.balanceOf(messageSender);\n        }\n\n        // Reduce the value to transfer if balance is insufficient after reclaimed\n        value = value > balanceAfter ? balanceAfter : value;\n\n        return super._internalTransfer(messageSender, to, value);\n    }\n\n    function transferFrom(\n        address from,\n        address to,\n        uint value\n    ) public optionalProxy returns (bool) {\n        _ensureCanTransfer(from, value);\n\n        return _internalTransferFrom(from, to, value);\n    }\n\n    function transferFromAndSettle(\n        address from,\n        address to,\n        uint value\n    ) public optionalProxy returns (bool) {\n        systemStatus().requireSynthActive(currencyKey);\n\n        (, , uint numEntriesSettled) = exchanger().settle(from, currencyKey);\n\n        // Save gas instead of calling transferableSynths\n        uint balanceAfter = value;\n\n        if (numEntriesSettled > 0) {\n            balanceAfter = tokenState.balanceOf(from);\n        }\n\n        // Reduce the value to transfer if balance is insufficient after reclaimed\n        value = value >= balanceAfter ? balanceAfter : value;\n\n        return _internalTransferFrom(from, to, value);\n    }\n\n    /**\n     * @notice _transferToFeeAddress function\n     * non-sUSD synths are exchanged into sUSD via synthInitiatedExchange\n     * notify feePool to record amount as fee paid to feePool */\n    function _transferToFeeAddress(address to, uint value) internal returns (bool) {\n        uint amountInUSD;\n\n        // sUSD can be transferred to FEE_ADDRESS directly\n        if (currencyKey == \"sUSD\") {\n            amountInUSD = value;\n            super._internalTransfer(messageSender, to, value);\n        } else {\n            // else exchange synth into sUSD and send to FEE_ADDRESS\n            amountInUSD = exchanger().exchange(messageSender, currencyKey, value, \"sUSD\", FEE_ADDRESS);\n        }\n\n        // Notify feePool to record sUSD to distribute as fees\n        feePool().recordFeePaid(amountInUSD);\n\n        return true;\n    }\n\n    // Allow synthetix to issue a certain number of synths from an account.\n    // forward call to _internalIssue\n    function issue(address account, uint amount) external onlyInternalContracts {\n        _internalIssue(account, amount);\n    }\n\n    // Allow synthetix or another synth contract to burn a certain number of synths from an account.\n    // forward call to _internalBurn\n    function burn(address account, uint amount) external onlyInternalContracts {\n        _internalBurn(account, amount);\n    }\n\n    function _internalIssue(address account, uint amount) internal {\n        tokenState.setBalanceOf(account, tokenState.balanceOf(account).add(amount));\n        totalSupply = totalSupply.add(amount);\n        emitTransfer(address(0), account, amount);\n        emitIssued(account, amount);\n    }\n\n    function _internalBurn(address account, uint amount) internal returns (bool) {\n        tokenState.setBalanceOf(account, tokenState.balanceOf(account).sub(amount));\n        totalSupply = totalSupply.sub(amount);\n        emitTransfer(account, address(0), amount);\n        emitBurned(account, amount);\n\n        return true;\n    }\n\n    // Allow owner to set the total supply on import.\n    function setTotalSupply(uint amount) external optionalProxy_onlyOwner {\n        totalSupply = amount;\n    }\n\n    /* ========== VIEWS ========== */\n    function systemStatus() internal view returns (ISystemStatus) {\n        return ISystemStatus(requireAndGetAddress(CONTRACT_SYSTEMSTATUS, \"Missing SystemStatus address\"));\n    }\n\n    function synthetix() internal view returns (ISynthetix) {\n        return ISynthetix(requireAndGetAddress(CONTRACT_SYNTHETIX, \"Missing Synthetix address\"));\n    }\n\n    function feePool() internal view returns (IFeePool) {\n        return IFeePool(requireAndGetAddress(CONTRACT_FEEPOOL, \"Missing FeePool address\"));\n    }\n\n    function exchanger() internal view returns (IExchanger) {\n        return IExchanger(requireAndGetAddress(CONTRACT_EXCHANGER, \"Missing Exchanger address\"));\n    }\n\n    function issuer() internal view returns (IIssuer) {\n        return IIssuer(requireAndGetAddress(CONTRACT_ISSUER, \"Missing Issuer address\"));\n    }\n\n    function _ensureCanTransfer(address from, uint value) internal view {\n        require(exchanger().maxSecsLeftInWaitingPeriod(from, currencyKey) == 0, \"Cannot transfer during waiting period\");\n        require(transferableSynths(from) >= value, \"Insufficient balance after any settlement owing\");\n        systemStatus().requireSynthActive(currencyKey);\n    }\n\n    function transferableSynths(address account) public view returns (uint) {\n        (uint reclaimAmount, , ) = exchanger().settlementOwing(account, currencyKey);\n\n        // Note: ignoring rebate amount here because a settle() is required in order to\n        // allow the transfer to actually work\n\n        uint balance = tokenState.balanceOf(account);\n\n        if (reclaimAmount > balance) {\n            return 0;\n        } else {\n            return balance.sub(reclaimAmount);\n        }\n    }\n\n    /* ========== INTERNAL FUNCTIONS ========== */\n\n    function _internalTransferFrom(\n        address from,\n        address to,\n        uint value\n    ) internal returns (bool) {\n        // Skip allowance update in case of infinite allowance\n        if (tokenState.allowance(from, messageSender) != uint(-1)) {\n            // Reduce the allowance by the amount we're transferring.\n            // The safeSub call will handle an insufficient allowance.\n            tokenState.setAllowance(from, messageSender, tokenState.allowance(from, messageSender).sub(value));\n        }\n\n        return super._internalTransfer(from, to, value);\n    }\n\n    /* ========== MODIFIERS ========== */\n\n    modifier onlyInternalContracts() {\n        bool isSynthetix = msg.sender == address(synthetix());\n        bool isFeePool = msg.sender == address(feePool());\n        bool isExchanger = msg.sender == address(exchanger());\n        bool isIssuer = msg.sender == address(issuer());\n\n        require(\n            isSynthetix || isFeePool || isExchanger || isIssuer,\n            \"Only Synthetix, FeePool, Exchanger or Issuer contracts allowed\"\n        );\n        _;\n    }\n\n    /* ========== EVENTS ========== */\n    event Issued(address indexed account, uint value);\n    bytes32 private constant ISSUED_SIG = keccak256(\"Issued(address,uint256)\");\n\n    function emitIssued(address account, uint value) internal {\n        proxy._emit(abi.encode(value), 2, ISSUED_SIG, addressToBytes32(account), 0, 0);\n    }\n\n    event Burned(address indexed account, uint value);\n    bytes32 private constant BURNED_SIG = keccak256(\"Burned(address,uint256)\");\n\n    function emitBurned(address account, uint value) internal {\n        proxy._emit(abi.encode(value), 2, BURNED_SIG, addressToBytes32(account), 0, 0);\n    }\n}\n",
  "sourcePath": "/Users/qizhang/Development/truffle_test2/contracts/Synth.sol",
  "compiler": {
    "name": "solc",
    "version": "0.5.16+commit.9c3226ce.Emscripten.clang"
  },
  "schemaVersion": "3.2.1",
  "updatedAt": "2020-07-05T03:58:13.073Z",
  "devdoc": {
    "methods": {
      "allowance(address,address)": {
        "params": {
          "owner": "The party authorising spending of their funds.",
          "spender": "The party spending tokenOwner's funds."
        }
      },
      "initiateSelfDestruct()": {
        "details": "Only the contract owner may call this."
      },
      "selfDestruct()": {
        "details": "Only the contract owner may call this."
      },
      "setSelfDestructBeneficiary(address)": {
        "details": "Only the contract owner may call this. The provided beneficiary must be non-null.",
        "params": {
          "_beneficiary": "The address to pay any eth contained in this contract to upon self-destruction."
        }
      },
      "setTokenState(address)": {
        "details": "This can be used to \"pause\" transfer functionality, by pointing the tokenState at 0x000.. as balances would be unreachable."
      },
      "terminateSelfDestruct()": {
        "details": "Only the contract owner may call this."
      }
    }
  },
  "userdoc": {
    "methods": {
      "allowance(address,address)": {
        "notice": "Returns the ERC20 allowance of one party to spend on behalf of another."
      },
      "approve(address,uint256)": {
        "notice": "Approves spender to transfer on the message sender's behalf."
      },
      "balanceOf(address)": {
        "notice": "Returns the ERC20 token balance of a given account."
      },
      "initiateSelfDestruct()": {
        "notice": "Begin the self-destruction counter of this contract. Once the delay has elapsed, the contract may be self-destructed."
      },
      "selfDestruct()": {
        "notice": "If the self-destruction delay has elapsed, destroy this contract and remit any ether it owns to the beneficiary address."
      },
      "setSelfDestructBeneficiary(address)": {
        "notice": "Set the beneficiary address of this contract."
      },
      "setTokenState(address)": {
        "notice": "Set the address of the TokenState contract."
      },
      "terminateSelfDestruct()": {
        "notice": "Terminate and reset the self-destruction timer."
      }
    }
  }
}