{
  "contractName": "SystemStatus",
  "abi": [
    {
      "inputs": [
        {
          "internalType": "address",
          "name": "_owner",
          "type": "address"
        }
      ],
      "payable": false,
      "stateMutability": "nonpayable",
      "type": "constructor"
    },
    {
      "anonymous": false,
      "inputs": [
        {
          "indexed": true,
          "internalType": "bytes32",
          "name": "section",
          "type": "bytes32"
        },
        {
          "indexed": true,
          "internalType": "address",
          "name": "account",
          "type": "address"
        },
        {
          "indexed": false,
          "internalType": "bool",
          "name": "canSuspend",
          "type": "bool"
        },
        {
          "indexed": false,
          "internalType": "bool",
          "name": "canResume",
          "type": "bool"
        }
      ],
      "name": "AccessControlUpdated",
      "type": "event"
    },
    {
      "anonymous": false,
      "inputs": [
        {
          "indexed": false,
          "internalType": "uint256",
          "name": "reason",
          "type": "uint256"
        }
      ],
      "name": "ExchangeResumed",
      "type": "event"
    },
    {
      "anonymous": false,
      "inputs": [
        {
          "indexed": false,
          "internalType": "uint256",
          "name": "reason",
          "type": "uint256"
        }
      ],
      "name": "ExchangeSuspended",
      "type": "event"
    },
    {
      "anonymous": false,
      "inputs": [
        {
          "indexed": false,
          "internalType": "uint256",
          "name": "reason",
          "type": "uint256"
        }
      ],
      "name": "IssuanceResumed",
      "type": "event"
    },
    {
      "anonymous": false,
      "inputs": [
        {
          "indexed": false,
          "internalType": "uint256",
          "name": "reason",
          "type": "uint256"
        }
      ],
      "name": "IssuanceSuspended",
      "type": "event"
    },
    {
      "anonymous": false,
      "inputs": [
        {
          "indexed": false,
          "internalType": "address",
          "name": "oldOwner",
          "type": "address"
        },
        {
          "indexed": false,
          "internalType": "address",
          "name": "newOwner",
          "type": "address"
        }
      ],
      "name": "OwnerChanged",
      "type": "event"
    },
    {
      "anonymous": false,
      "inputs": [
        {
          "indexed": false,
          "internalType": "address",
          "name": "newOwner",
          "type": "address"
        }
      ],
      "name": "OwnerNominated",
      "type": "event"
    },
    {
      "anonymous": false,
      "inputs": [
        {
          "indexed": false,
          "internalType": "bytes32",
          "name": "currencyKey",
          "type": "bytes32"
        },
        {
          "indexed": false,
          "internalType": "uint256",
          "name": "reason",
          "type": "uint256"
        }
      ],
      "name": "SynthResumed",
      "type": "event"
    },
    {
      "anonymous": false,
      "inputs": [
        {
          "indexed": false,
          "internalType": "bytes32",
          "name": "currencyKey",
          "type": "bytes32"
        },
        {
          "indexed": false,
          "internalType": "uint256",
          "name": "reason",
          "type": "uint256"
        }
      ],
      "name": "SynthSuspended",
      "type": "event"
    },
    {
      "anonymous": false,
      "inputs": [
        {
          "indexed": false,
          "internalType": "uint256",
          "name": "reason",
          "type": "uint256"
        }
      ],
      "name": "SystemResumed",
      "type": "event"
    },
    {
      "anonymous": false,
      "inputs": [
        {
          "indexed": false,
          "internalType": "uint256",
          "name": "reason",
          "type": "uint256"
        }
      ],
      "name": "SystemSuspended",
      "type": "event"
    },
    {
      "constant": true,
      "inputs": [],
      "name": "SECTION_EXCHANGE",
      "outputs": [
        {
          "internalType": "bytes32",
          "name": "",
          "type": "bytes32"
        }
      ],
      "payable": false,
      "stateMutability": "view",
      "type": "function"
    },
    {
      "constant": true,
      "inputs": [],
      "name": "SECTION_ISSUANCE",
      "outputs": [
        {
          "internalType": "bytes32",
          "name": "",
          "type": "bytes32"
        }
      ],
      "payable": false,
      "stateMutability": "view",
      "type": "function"
    },
    {
      "constant": true,
      "inputs": [],
      "name": "SECTION_SYNTH",
      "outputs": [
        {
          "internalType": "bytes32",
          "name": "",
          "type": "bytes32"
        }
      ],
      "payable": false,
      "stateMutability": "view",
      "type": "function"
    },
    {
      "constant": true,
      "inputs": [],
      "name": "SECTION_SYSTEM",
      "outputs": [
        {
          "internalType": "bytes32",
          "name": "",
          "type": "bytes32"
        }
      ],
      "payable": false,
      "stateMutability": "view",
      "type": "function"
    },
    {
      "constant": true,
      "inputs": [],
      "name": "SUSPENSION_REASON_UPGRADE",
      "outputs": [
        {
          "internalType": "uint248",
          "name": "",
          "type": "uint248"
        }
      ],
      "payable": false,
      "stateMutability": "view",
      "type": "function"
    },
    {
      "constant": false,
      "inputs": [],
      "name": "acceptOwnership",
      "outputs": [],
      "payable": false,
      "stateMutability": "nonpayable",
      "type": "function"
    },
    {
      "constant": true,
      "inputs": [
        {
          "internalType": "bytes32",
          "name": "",
          "type": "bytes32"
        },
        {
          "internalType": "address",
          "name": "",
          "type": "address"
        }
      ],
      "name": "accessControl",
      "outputs": [
        {
          "internalType": "bool",
          "name": "canSuspend",
          "type": "bool"
        },
        {
          "internalType": "bool",
          "name": "canResume",
          "type": "bool"
        }
      ],
      "payable": false,
      "stateMutability": "view",
      "type": "function"
    },
    {
      "constant": true,
      "inputs": [],
      "name": "exchangeSuspension",
      "outputs": [
        {
          "internalType": "bool",
          "name": "suspended",
          "type": "bool"
        },
        {
          "internalType": "uint248",
          "name": "reason",
          "type": "uint248"
        }
      ],
      "payable": false,
      "stateMutability": "view",
      "type": "function"
    },
    {
      "constant": true,
      "inputs": [],
      "name": "issuanceSuspension",
      "outputs": [
        {
          "internalType": "bool",
          "name": "suspended",
          "type": "bool"
        },
        {
          "internalType": "uint248",
          "name": "reason",
          "type": "uint248"
        }
      ],
      "payable": false,
      "stateMutability": "view",
      "type": "function"
    },
    {
      "constant": false,
      "inputs": [
        {
          "internalType": "address",
          "name": "_owner",
          "type": "address"
        }
      ],
      "name": "nominateNewOwner",
      "outputs": [],
      "payable": false,
      "stateMutability": "nonpayable",
      "type": "function"
    },
    {
      "constant": true,
      "inputs": [],
      "name": "nominatedOwner",
      "outputs": [
        {
          "internalType": "address",
          "name": "",
          "type": "address"
        }
      ],
      "payable": false,
      "stateMutability": "view",
      "type": "function"
    },
    {
      "constant": true,
      "inputs": [],
      "name": "owner",
      "outputs": [
        {
          "internalType": "address",
          "name": "",
          "type": "address"
        }
      ],
      "payable": false,
      "stateMutability": "view",
      "type": "function"
    },
    {
      "constant": true,
      "inputs": [
        {
          "internalType": "bytes32",
          "name": "",
          "type": "bytes32"
        }
      ],
      "name": "synthSuspension",
      "outputs": [
        {
          "internalType": "bool",
          "name": "suspended",
          "type": "bool"
        },
        {
          "internalType": "uint248",
          "name": "reason",
          "type": "uint248"
        }
      ],
      "payable": false,
      "stateMutability": "view",
      "type": "function"
    },
    {
      "constant": true,
      "inputs": [],
      "name": "systemSuspension",
      "outputs": [
        {
          "internalType": "bool",
          "name": "suspended",
          "type": "bool"
        },
        {
          "internalType": "uint248",
          "name": "reason",
          "type": "uint248"
        }
      ],
      "payable": false,
      "stateMutability": "view",
      "type": "function"
    },
    {
      "constant": true,
      "inputs": [],
      "name": "requireSystemActive",
      "outputs": [],
      "payable": false,
      "stateMutability": "view",
      "type": "function"
    },
    {
      "constant": true,
      "inputs": [],
      "name": "requireIssuanceActive",
      "outputs": [],
      "payable": false,
      "stateMutability": "view",
      "type": "function"
    },
    {
      "constant": true,
      "inputs": [],
      "name": "requireExchangeActive",
      "outputs": [],
      "payable": false,
      "stateMutability": "view",
      "type": "function"
    },
    {
      "constant": true,
      "inputs": [
        {
          "internalType": "bytes32",
          "name": "currencyKey",
          "type": "bytes32"
        }
      ],
      "name": "requireSynthActive",
      "outputs": [],
      "payable": false,
      "stateMutability": "view",
      "type": "function"
    },
    {
      "constant": true,
      "inputs": [
        {
          "internalType": "bytes32",
          "name": "sourceCurrencyKey",
          "type": "bytes32"
        },
        {
          "internalType": "bytes32",
          "name": "destinationCurrencyKey",
          "type": "bytes32"
        }
      ],
      "name": "requireSynthsActive",
      "outputs": [],
      "payable": false,
      "stateMutability": "view",
      "type": "function"
    },
    {
      "constant": true,
      "inputs": [],
      "name": "isSystemUpgrading",
      "outputs": [
        {
          "internalType": "bool",
          "name": "",
          "type": "bool"
        }
      ],
      "payable": false,
      "stateMutability": "view",
      "type": "function"
    },
    {
      "constant": true,
      "inputs": [
        {
          "internalType": "bytes32[]",
          "name": "synths",
          "type": "bytes32[]"
        }
      ],
      "name": "getSynthSuspensions",
      "outputs": [
        {
          "internalType": "bool[]",
          "name": "suspensions",
          "type": "bool[]"
        },
        {
          "internalType": "uint256[]",
          "name": "reasons",
          "type": "uint256[]"
        }
      ],
      "payable": false,
      "stateMutability": "view",
      "type": "function"
    },
    {
      "constant": false,
      "inputs": [
        {
          "internalType": "bytes32",
          "name": "section",
          "type": "bytes32"
        },
        {
          "internalType": "address",
          "name": "account",
          "type": "address"
        },
        {
          "internalType": "bool",
          "name": "canSuspend",
          "type": "bool"
        },
        {
          "internalType": "bool",
          "name": "canResume",
          "type": "bool"
        }
      ],
      "name": "updateAccessControl",
      "outputs": [],
      "payable": false,
      "stateMutability": "nonpayable",
      "type": "function"
    },
    {
      "constant": false,
      "inputs": [
        {
          "internalType": "uint256",
          "name": "reason",
          "type": "uint256"
        }
      ],
      "name": "suspendSystem",
      "outputs": [],
      "payable": false,
      "stateMutability": "nonpayable",
      "type": "function"
    },
    {
      "constant": false,
      "inputs": [],
      "name": "resumeSystem",
      "outputs": [],
      "payable": false,
      "stateMutability": "nonpayable",
      "type": "function"
    },
    {
      "constant": false,
      "inputs": [
        {
          "internalType": "uint256",
          "name": "reason",
          "type": "uint256"
        }
      ],
      "name": "suspendIssuance",
      "outputs": [],
      "payable": false,
      "stateMutability": "nonpayable",
      "type": "function"
    },
    {
      "constant": false,
      "inputs": [],
      "name": "resumeIssuance",
      "outputs": [],
      "payable": false,
      "stateMutability": "nonpayable",
      "type": "function"
    },
    {
      "constant": false,
      "inputs": [
        {
          "internalType": "uint256",
          "name": "reason",
          "type": "uint256"
        }
      ],
      "name": "suspendExchange",
      "outputs": [],
      "payable": false,
      "stateMutability": "nonpayable",
      "type": "function"
    },
    {
      "constant": false,
      "inputs": [],
      "name": "resumeExchange",
      "outputs": [],
      "payable": false,
      "stateMutability": "nonpayable",
      "type": "function"
    },
    {
      "constant": false,
      "inputs": [
        {
          "internalType": "bytes32",
          "name": "currencyKey",
          "type": "bytes32"
        },
        {
          "internalType": "uint256",
          "name": "reason",
          "type": "uint256"
        }
      ],
      "name": "suspendSynth",
      "outputs": [],
      "payable": false,
      "stateMutability": "nonpayable",
      "type": "function"
    },
    {
      "constant": false,
      "inputs": [
        {
          "internalType": "bytes32",
          "name": "currencyKey",
          "type": "bytes32"
        }
      ],
      "name": "resumeSynth",
      "outputs": [],
      "payable": false,
      "stateMutability": "nonpayable",
      "type": "function"
    }
  ],
  "bytecode": "0x60806040523480156200001157600080fd5b506040516200286b3803806200286b833981810160405260208110156200003757600080fd5b810190808051906020019092919050505080600073ffffffffffffffffffffffffffffffffffffffff168173ffffffffffffffffffffffffffffffffffffffff161415620000ed576040517f08c379a00000000000000000000000000000000000000000000000000000000081526004018080602001828103825260198152602001807f4f776e657220616464726573732063616e6e6f7420626520300000000000000081525060200191505060405180910390fd5b806000806101000a81548173ffffffffffffffffffffffffffffffffffffffff021916908373ffffffffffffffffffffffffffffffffffffffff1602179055507fb532073b38c83145e3e5135377a08bf9aab55bc0fd7c1179cd4fb995d2a5159c600082604051808373ffffffffffffffffffffffffffffffffffffffff1673ffffffffffffffffffffffffffffffffffffffff1681526020018273ffffffffffffffffffffffffffffffffffffffff1673ffffffffffffffffffffffffffffffffffffffff1681526020019250505060405180910390a150620001fb7f53797374656d000000000000000000000000000000000000000000000000000082600180620002a160201b60201c565b620002307f49737375616e636500000000000000000000000000000000000000000000000082600180620002a160201b60201c565b620002657f45786368616e676500000000000000000000000000000000000000000000000082600180620002a160201b60201c565b6200029a7f53796e746800000000000000000000000000000000000000000000000000000082600180620002a160201b60201c565b50620004f3565b7f53797374656d0000000000000000000000000000000000000000000000000000841480620002ef57507f49737375616e636500000000000000000000000000000000000000000000000084145b806200031a57507f45786368616e676500000000000000000000000000000000000000000000000084145b806200034557507f53796e746800000000000000000000000000000000000000000000000000000084145b620003b8576040517f08c379a00000000000000000000000000000000000000000000000000000000081526004018080602001828103825260188152602001807f496e76616c69642073656374696f6e20737570706c696564000000000000000081525060200191505060405180910390fd5b816002600086815260200190815260200160002060008573ffffffffffffffffffffffffffffffffffffffff1673ffffffffffffffffffffffffffffffffffffffff16815260200190815260200160002060000160006101000a81548160ff021916908315150217905550806002600086815260200190815260200160002060008573ffffffffffffffffffffffffffffffffffffffff1673ffffffffffffffffffffffffffffffffffffffff16815260200190815260200160002060000160016101000a81548160ff0219169083151502179055508273ffffffffffffffffffffffffffffffffffffffff16847f95bad30f8fe717e4a02906d7b05a6f90698c7135cd053e5b6d5239146b4c40d184846040518083151515158152602001821515151581526020019250505060405180910390a350505050565b61236880620005036000396000f3fe608060405234801561001057600080fd5b50600436106101da5760003560e01c806367a280b2116101045780639f8a95ba116100a2578063f161620711610071578063f161620714610859578063f405f65a14610877578063f44d1e0b14610881578063f8b4b0841461089f576101da565b80639f8a95ba1461067d578063abc0bb6e146106dd578063b9a4986914610715578063e470df581461082b576101da565b806379ba5097116100de57806379ba5097146105f15780637c312541146105fb5780638da5cb5b1461060557806394c79f741461064f576101da565b806367a280b21461054e5780637118d431146105585780637243bc2c14610562576101da565b80632dd8afdb1161017c57806348bf19711161014b57806348bf1971146104485780634abdb44d146104ae57806353a47bb7146104cc5780636132eba414610516576101da565b80632dd8afdb1461035f5780632e8d0b9e146103ca578063396e258e146103ec57806342a28e211461041a576101da565b80631588e817116101b85780631588e817146102115780631627540c1461023f57806320f2bf00146102835780632366245e146102f4576101da565b8063086dabd1146101df57806312bde514146101e9578063157c51d314610207575b600080fd5b6101e761090a565b005b6101f1610914565b6040518082815260200191505060405180910390f35b61020f610938565b005b61023d6004803603602081101561022757600080fd5b8101908080359060200190929190505050610a64565b005b6102816004803603602081101561025557600080fd5b81019080803573ffffffffffffffffffffffffffffffffffffffff169060200190929190505050610b3f565b005b6102cf6004803603604081101561029957600080fd5b8101908080359060200190929190803573ffffffffffffffffffffffffffffffffffffffff169060200190929190505050610c8b565b6040518083151515158152602001821515151581526020019250505060405180910390f35b6102fc610cd6565b6040518083151515158152602001827effffffffffffffffffffffffffffffffffffffffffffffffffffffffffffff167effffffffffffffffffffffffffffffffffffffffffffffffffffffffffffff1681526020019250505060405180910390f35b610367610d20565b6040518083151515158152602001827effffffffffffffffffffffffffffffffffffffffffffffffffffffffffffff167effffffffffffffffffffffffffffffffffffffffffffffffffffffffffffff1681526020019250505060405180910390f35b6103d2610d6a565b604051808215151515815260200191505060405180910390f35b6104186004803603602081101561040257600080fd5b8101908080359060200190929190505050610e02565b005b6104466004803603602081101561043057600080fd5b8101908080359060200190929190505050610edd565b005b6104ac6004803603608081101561045e57600080fd5b8101908080359060200190929190803573ffffffffffffffffffffffffffffffffffffffff169060200190929190803515159060200190929190803515159060200190929190505050610f62565b005b6104b6611019565b6040518082815260200191505060405180910390f35b6104d461103d565b604051808273ffffffffffffffffffffffffffffffffffffffff1673ffffffffffffffffffffffffffffffffffffffff16815260200191505060405180910390f35b61054c6004803603604081101561052c57600080fd5b810190808035906020019092919080359060200190929190505050611063565b005b610556611116565b005b610560611242565b005b61058e6004803603602081101561057857600080fd5b81019080803590602001909291905050506112b5565b6040518083151515158152602001827effffffffffffffffffffffffffffffffffffffffffffffffffffffffffffff167effffffffffffffffffffffffffffffffffffffffffffffffffffffffffffff1681526020019250505060405180910390f35b6105f9611311565b005b610603611537565b005b61060d6115aa565b604051808273ffffffffffffffffffffffffffffffffffffffff1673ffffffffffffffffffffffffffffffffffffffff16815260200191505060405180910390f35b61067b6004803603602081101561066557600080fd5b81019080803590602001909291905050506115cf565b005b6106856116f8565b60405180827effffffffffffffffffffffffffffffffffffffffffffffffffffffffffffff167effffffffffffffffffffffffffffffffffffffffffffffffffffffffffffff16815260200191505060405180910390f35b610713600480360360408110156106f357600080fd5b8101908080359060200190929190803590602001909291905050506116fd565b005b61078c6004803603602081101561072b57600080fd5b810190808035906020019064010000000081111561074857600080fd5b82018360208201111561075a57600080fd5b8035906020019184602083028401116401000000008311171561077c57600080fd5b9091929391929390505050611803565b604051808060200180602001838103835285818151815260200191508051906020019060200280838360005b838110156107d35780820151818401526020810190506107b8565b50505050905001838103825284818151815260200191508051906020019060200280838360005b838110156108155780820151818401526020810190506107fa565b5050505090500194505050505060405180910390f35b6108576004803603602081101561084157600080fd5b8101908080359060200190929190505050611977565b005b610861611aa3565b6040518082815260200191505060405180910390f35b61087f611ac7565b005b610889611bf3565b6040518082815260200191505060405180910390f35b6108a7611c17565b6040518083151515158152602001827effffffffffffffffffffffffffffffffffffffffffffffffffffffffffffff167effffffffffffffffffffffffffffffffffffffffffffffffffffffffffffff1681526020019250505060405180910390f35b610912611c61565b565b7f53797374656d000000000000000000000000000000000000000000000000000081565b6109617f53797374656d0000000000000000000000000000000000000000000000000000611dd0565b6000600360000160006101000a81548160ff0219169083151502179055507fb392a95118344e8edff8eff56183afb4bb0240310c406a0fc1217d2755c66d8f600360000160019054906101000a90047effffffffffffffffffffffffffffffffffffffffffffffffffffffffffffff167effffffffffffffffffffffffffffffffffffffffffffffffffffffffffffff166040518082815260200191505060405180910390a16000600360000160016101000a8154817effffffffffffffffffffffffffffffffffffffffffffffffffffffffffffff02191690837effffffffffffffffffffffffffffffffffffffffffffffffffffffffffffff160217905550565b610a8d7f45786368616e6765000000000000000000000000000000000000000000000000611e89565b6001600560000160006101000a81548160ff02191690831515021790555080600560000160016101000a8154817effffffffffffffffffffffffffffffffffffffffffffffffffffffffffffff02191690837effffffffffffffffffffffffffffffffffffffffffffffffffffffffffffff1602179055507f078773069a9216cdb6acaa7b184785f12f62048c7ce8b7ede1bad6785de16b22816040518082815260200191505060405180910390a150565b6000809054906101000a900473ffffffffffffffffffffffffffffffffffffffff1673ffffffffffffffffffffffffffffffffffffffff163373ffffffffffffffffffffffffffffffffffffffff1614610be4576040517f08c379a000000000000000000000000000000000000000000000000000000000815260040180806020018281038252602f815260200180612227602f913960400191505060405180910390fd5b80600160006101000a81548173ffffffffffffffffffffffffffffffffffffffff021916908373ffffffffffffffffffffffffffffffffffffffff1602179055507f906a1c6bd7e3091ea86693dd029a831c19049ce77f1dce2ce0bab1cacbabce2281604051808273ffffffffffffffffffffffffffffffffffffffff1673ffffffffffffffffffffffffffffffffffffffff16815260200191505060405180910390a150565b6002602052816000526040600020602052806000526040600020600091509150508060000160009054906101000a900460ff16908060000160019054906101000a900460ff16905082565b60048060000160009054906101000a900460ff16908060000160019054906101000a90047effffffffffffffffffffffffffffffffffffffffffffffffffffffffffffff16905082565b60038060000160009054906101000a900460ff16908060000160019054906101000a90047effffffffffffffffffffffffffffffffffffffffffffffffffffffffffffff16905082565b6000600360000160009054906101000a900460ff168015610dfd575060017effffffffffffffffffffffffffffffffffffffffffffffffffffffffffffff16600360000160019054906101000a90047effffffffffffffffffffffffffffffffffffffffffffffffffffffffffffff167effffffffffffffffffffffffffffffffffffffffffffffffffffffffffffff16145b905090565b610e2b7f49737375616e6365000000000000000000000000000000000000000000000000611e89565b6001600460000160006101000a81548160ff02191690831515021790555080600460000160016101000a8154817effffffffffffffffffffffffffffffffffffffffffffffffffffffffffffff02191690837effffffffffffffffffffffffffffffffffffffffffffffffffffffffffffff1602179055507fee8bf45d6e3141aa521ae4f0d05dfefe0327a3f23a9fbae6a64680458b34ebb8816040518082815260200191505060405180910390a150565b610ee5611c61565b6006600082815260200190815260200160002060000160009054906101000a900460ff1615610f5f576040517f08c379a000000000000000000000000000000000000000000000000000000000815260040180806020018281038252602881526020018061230c6028913960400191505060405180910390fd5b50565b6000809054906101000a900473ffffffffffffffffffffffffffffffffffffffff1673ffffffffffffffffffffffffffffffffffffffff163373ffffffffffffffffffffffffffffffffffffffff1614611007576040517f08c379a000000000000000000000000000000000000000000000000000000000815260040180806020018281038252602f815260200180612227602f913960400191505060405180910390fd5b61101384848484611f42565b50505050565b7f49737375616e636500000000000000000000000000000000000000000000000081565b600160009054906101000a900473ffffffffffffffffffffffffffffffffffffffff1681565b61106b611c61565b6006600083815260200190815260200160002060000160009054906101000a900460ff161580156110bd57506006600082815260200190815260200160002060000160009054906101000a900460ff16155b611112576040517f08c379a00000000000000000000000000000000000000000000000000000000081526004018080602001828103825260368152602001806121c66036913960400191505060405180910390fd5b5050565b61113f7f49737375616e6365000000000000000000000000000000000000000000000000611dd0565b6000600460000160006101000a81548160ff0219169083151502179055507f0f1a80395faba9a11017f830db5f90ad6525a1621dbfb2cbc2b6679ba5716837600460000160019054906101000a90047effffffffffffffffffffffffffffffffffffffffffffffffffffffffffffff167effffffffffffffffffffffffffffffffffffffffffffffffffffffffffffff166040518082815260200191505060405180910390a16000600460000160016101000a8154817effffffffffffffffffffffffffffffffffffffffffffffffffffffffffffff02191690837effffffffffffffffffffffffffffffffffffffffffffffffffffffffffffff160217905550565b61124a611c61565b600560000160009054906101000a900460ff16156112b3576040517f08c379a000000000000000000000000000000000000000000000000000000000815260040180806020018281038252602b815260200180612256602b913960400191505060405180910390fd5b565b60066020528060005260406000206000915090508060000160009054906101000a900460ff16908060000160019054906101000a90047effffffffffffffffffffffffffffffffffffffffffffffffffffffffffffff16905082565b600160009054906101000a900473ffffffffffffffffffffffffffffffffffffffff1673ffffffffffffffffffffffffffffffffffffffff163373ffffffffffffffffffffffffffffffffffffffff16146113b7576040517f08c379a00000000000000000000000000000000000000000000000000000000081526004018080602001828103825260358152602001806121916035913960400191505060405180910390fd5b7fb532073b38c83145e3e5135377a08bf9aab55bc0fd7c1179cd4fb995d2a5159c6000809054906101000a900473ffffffffffffffffffffffffffffffffffffffff16600160009054906101000a900473ffffffffffffffffffffffffffffffffffffffff16604051808373ffffffffffffffffffffffffffffffffffffffff1673ffffffffffffffffffffffffffffffffffffffff1681526020018273ffffffffffffffffffffffffffffffffffffffff1673ffffffffffffffffffffffffffffffffffffffff1681526020019250505060405180910390a1600160009054906101000a900473ffffffffffffffffffffffffffffffffffffffff166000806101000a81548173ffffffffffffffffffffffffffffffffffffffff021916908373ffffffffffffffffffffffffffffffffffffffff1602179055506000600160006101000a81548173ffffffffffffffffffffffffffffffffffffffff021916908373ffffffffffffffffffffffffffffffffffffffff160217905550565b61153f611c61565b600460000160009054906101000a900460ff16156115a8576040517f08c379a000000000000000000000000000000000000000000000000000000000815260040180806020018281038252602b8152602001806121fc602b913960400191505060405180910390fd5b565b6000809054906101000a900473ffffffffffffffffffffffffffffffffffffffff1681565b6115f87f53796e7468000000000000000000000000000000000000000000000000000000611dd0565b7f691b6c9654fa1f01847f7e98a061557ca10378bb9670782b60ed13891703d220816006600084815260200190815260200160002060000160019054906101000a90047effffffffffffffffffffffffffffffffffffffffffffffffffffffffffffff167effffffffffffffffffffffffffffffffffffffffffffffffffffffffffffff16604051808381526020018281526020019250505060405180910390a160066000828152602001908152602001600020600080820160006101000a81549060ff02191690556000820160016101000a8154907effffffffffffffffffffffffffffffffffffffffffffffffffffffffffffff0219169055505050565b600181565b6117267f53796e7468000000000000000000000000000000000000000000000000000000611e89565b60016006600084815260200190815260200160002060000160006101000a81548160ff021916908315150217905550806006600084815260200190815260200160002060000160016101000a8154817effffffffffffffffffffffffffffffffffffffffffffffffffffffffffffff02191690837effffffffffffffffffffffffffffffffffffffffffffffffffffffffffffff1602179055507f9cca506f9028bbcc0d976db0eaf80dfe6a6d7cadd99024edd88f690e1eda55418282604051808381526020018281526020019250505060405180910390a15050565b606080838390506040519080825280602002602001820160405280156118385781602001602082028038833980820191505090505b5091508383905060405190808252806020026020018201604052801561186d5781602001602082028038833980820191505090505b50905060008090505b8484905081101561196f576006600086868481811061189157fe5b90506020020135815260200190815260200160002060000160009054906101000a900460ff168382815181106118c357fe5b602002602001019015159081151581525050600660008686848181106118e557fe5b90506020020135815260200190815260200160002060000160019054906101000a90047effffffffffffffffffffffffffffffffffffffffffffffffffffffffffffff167effffffffffffffffffffffffffffffffffffffffffffffffffffffffffffff1682828151811061195657fe5b6020026020010181815250508080600101915050611876565b509250929050565b6119a07f53797374656d0000000000000000000000000000000000000000000000000000611e89565b6001600360000160006101000a81548160ff02191690831515021790555080600360000160016101000a8154817effffffffffffffffffffffffffffffffffffffffffffffffffffffffffffff02191690837effffffffffffffffffffffffffffffffffffffffffffffffffffffffffffff1602179055507f86b7ed06c3a2c3763514d475ced33f9ac8b1bb8f028ded18de0100b7678f3c4f600360000160019054906101000a90047effffffffffffffffffffffffffffffffffffffffffffffffffffffffffffff1660405180827effffffffffffffffffffffffffffffffffffffffffffffffffffffffffffff16815260200191505060405180910390a150565b7f45786368616e676500000000000000000000000000000000000000000000000081565b611af07f45786368616e6765000000000000000000000000000000000000000000000000611dd0565b6000600560000160006101000a81548160ff0219169083151502179055507f07966fe79d35c7abf1f3b2ad9970ea24cae0f11406e283e848e3e6608ae3c214600560000160019054906101000a90047effffffffffffffffffffffffffffffffffffffffffffffffffffffffffffff167effffffffffffffffffffffffffffffffffffffffffffffffffffffffffffff166040518082815260200191505060405180910390a16000600560000160016101000a8154817effffffffffffffffffffffffffffffffffffffffffffffffffffffffffffff02191690837effffffffffffffffffffffffffffffffffffffffffffffffffffffffffffff160217905550565b7f53796e746800000000000000000000000000000000000000000000000000000081565b60058060000160009054906101000a900460ff16908060000160019054906101000a90047effffffffffffffffffffffffffffffffffffffffffffffffffffffffffffff16905082565b600360000160009054906101000a900460ff161560017effffffffffffffffffffffffffffffffffffffffffffffffffffffffffffff16600360000160019054906101000a90047effffffffffffffffffffffffffffffffffffffffffffffffffffffffffffff167effffffffffffffffffffffffffffffffffffffffffffffffffffffffffffff1614611d0d576040518060600160405280602c81526020016122a2602c9139611d27565b6040518060600160405280603e81526020016122ce603e91395b90611dcd576040517f08c379a00000000000000000000000000000000000000000000000000000000081526004018080602001828103825283818151815260200191508051906020019080838360005b83811015611d92578082015181840152602081019050611d77565b50505050905090810190601f168015611dbf5780820380516001836020036101000a031916815260200191505b509250505060405180910390fd5b50565b6002600082815260200190815260200160002060003373ffffffffffffffffffffffffffffffffffffffff1673ffffffffffffffffffffffffffffffffffffffff16815260200190815260200160002060000160019054906101000a900460ff16611e86576040517f08c379a00000000000000000000000000000000000000000000000000000000081526004018080602001828103825260218152602001806122816021913960400191505060405180910390fd5b50565b6002600082815260200190815260200160002060003373ffffffffffffffffffffffffffffffffffffffff1673ffffffffffffffffffffffffffffffffffffffff16815260200190815260200160002060000160009054906101000a900460ff16611f3f576040517f08c379a00000000000000000000000000000000000000000000000000000000081526004018080602001828103825260218152602001806122816021913960400191505060405180910390fd5b50565b7f53797374656d0000000000000000000000000000000000000000000000000000841480611f8f57507f49737375616e636500000000000000000000000000000000000000000000000084145b80611fb957507f45786368616e676500000000000000000000000000000000000000000000000084145b80611fe357507f53796e746800000000000000000000000000000000000000000000000000000084145b612055576040517f08c379a00000000000000000000000000000000000000000000000000000000081526004018080602001828103825260188152602001807f496e76616c69642073656374696f6e20737570706c696564000000000000000081525060200191505060405180910390fd5b816002600086815260200190815260200160002060008573ffffffffffffffffffffffffffffffffffffffff1673ffffffffffffffffffffffffffffffffffffffff16815260200190815260200160002060000160006101000a81548160ff021916908315150217905550806002600086815260200190815260200160002060008573ffffffffffffffffffffffffffffffffffffffff1673ffffffffffffffffffffffffffffffffffffffff16815260200190815260200160002060000160016101000a81548160ff0219169083151502179055508273ffffffffffffffffffffffffffffffffffffffff16847f95bad30f8fe717e4a02906d7b05a6f90698c7135cd053e5b6d5239146b4c40d184846040518083151515158152602001821515151581526020019250505060405180910390a35050505056fe596f75206d757374206265206e6f6d696e61746564206265666f726520796f752063616e20616363657074206f776e6572736869704f6e65206f72206d6f72652073796e746873206172652073757370656e6465642e204f7065726174696f6e2070726f6869626974656449737375616e63652069732073757370656e6465642e204f7065726174696f6e2070726f686962697465644f6e6c792074686520636f6e7472616374206f776e6572206d617920706572666f726d207468697320616374696f6e45786368616e67652069732073757370656e6465642e204f7065726174696f6e2070726f686962697465645265737472696374656420746f2061636365737320636f6e74726f6c206c69737453796e7468657469782069732073757370656e6465642e204f7065726174696f6e2070726f6869626974656453796e7468657469782069732073757370656e6465642c207570677261646520696e2070726f67726573732e2e2e20706c65617365207374616e6420627953796e74682069732073757370656e6465642e204f7065726174696f6e2070726f68696269746564a265627a7a72315820e204b60ea73a07d0fc0ec5875f2a07b3a52a7da21671bb41f8d27f1113290e9564736f6c63430005100032",
  "source": "pragma solidity ^0.5.16;\n\n// Inheritance\nimport \"./Owned.sol\";\nimport \"./interfaces/ISystemStatus.sol\";\n\n\n// https://docs.synthetix.io/contracts/SystemStatus\ncontract SystemStatus is Owned, ISystemStatus {\n    struct Status {\n        bool canSuspend;\n        bool canResume;\n    }\n\n    mapping(bytes32 => mapping(address => Status)) public accessControl;\n\n    struct Suspension {\n        bool suspended;\n        // reason is an integer code,\n        // 0 => no reason, 1 => upgrading, 2+ => defined by system usage\n        uint248 reason;\n    }\n\n    uint248 public constant SUSPENSION_REASON_UPGRADE = 1;\n\n    bytes32 public constant SECTION_SYSTEM = \"System\";\n    bytes32 public constant SECTION_ISSUANCE = \"Issuance\";\n    bytes32 public constant SECTION_EXCHANGE = \"Exchange\";\n    bytes32 public constant SECTION_SYNTH = \"Synth\";\n\n    Suspension public systemSuspension;\n\n    Suspension public issuanceSuspension;\n\n    Suspension public exchangeSuspension;\n\n    mapping(bytes32 => Suspension) public synthSuspension;\n\n    constructor(address _owner) public Owned(_owner) {\n        _internalUpdateAccessControl(SECTION_SYSTEM, _owner, true, true);\n        _internalUpdateAccessControl(SECTION_ISSUANCE, _owner, true, true);\n        _internalUpdateAccessControl(SECTION_EXCHANGE, _owner, true, true);\n        _internalUpdateAccessControl(SECTION_SYNTH, _owner, true, true);\n    }\n\n    /* ========== VIEWS ========== */\n    function requireSystemActive() external view {\n        _internalRequireSystemActive();\n    }\n\n    function requireIssuanceActive() external view {\n        // Issuance requires the system be active\n        _internalRequireSystemActive();\n        require(!issuanceSuspension.suspended, \"Issuance is suspended. Operation prohibited\");\n    }\n\n    function requireExchangeActive() external view {\n        // Issuance requires the system be active\n        _internalRequireSystemActive();\n        require(!exchangeSuspension.suspended, \"Exchange is suspended. Operation prohibited\");\n    }\n\n    function requireSynthActive(bytes32 currencyKey) external view {\n        // Synth exchange and transfer requires the system be active\n        _internalRequireSystemActive();\n        require(!synthSuspension[currencyKey].suspended, \"Synth is suspended. Operation prohibited\");\n    }\n\n    function requireSynthsActive(bytes32 sourceCurrencyKey, bytes32 destinationCurrencyKey) external view {\n        // Synth exchange and transfer requires the system be active\n        _internalRequireSystemActive();\n\n        require(\n            !synthSuspension[sourceCurrencyKey].suspended && !synthSuspension[destinationCurrencyKey].suspended,\n            \"One or more synths are suspended. Operation prohibited\"\n        );\n    }\n\n    function isSystemUpgrading() external view returns (bool) {\n        return systemSuspension.suspended && systemSuspension.reason == SUSPENSION_REASON_UPGRADE;\n    }\n\n    function getSynthSuspensions(bytes32[] calldata synths)\n        external\n        view\n        returns (bool[] memory suspensions, uint256[] memory reasons)\n    {\n        suspensions = new bool[](synths.length);\n        reasons = new uint256[](synths.length);\n\n        for (uint i = 0; i < synths.length; i++) {\n            suspensions[i] = synthSuspension[synths[i]].suspended;\n            reasons[i] = synthSuspension[synths[i]].reason;\n        }\n    }\n\n    /* ========== MUTATIVE FUNCTIONS ========== */\n    function updateAccessControl(\n        bytes32 section,\n        address account,\n        bool canSuspend,\n        bool canResume\n    ) external onlyOwner {\n        _internalUpdateAccessControl(section, account, canSuspend, canResume);\n    }\n\n    function suspendSystem(uint256 reason) external {\n        _requireAccessToSuspend(SECTION_SYSTEM);\n        systemSuspension.suspended = true;\n        systemSuspension.reason = uint248(reason);\n        emit SystemSuspended(systemSuspension.reason);\n    }\n\n    function resumeSystem() external {\n        _requireAccessToResume(SECTION_SYSTEM);\n        systemSuspension.suspended = false;\n        emit SystemResumed(uint256(systemSuspension.reason));\n        systemSuspension.reason = 0;\n    }\n\n    function suspendIssuance(uint256 reason) external {\n        _requireAccessToSuspend(SECTION_ISSUANCE);\n        issuanceSuspension.suspended = true;\n        issuanceSuspension.reason = uint248(reason);\n        emit IssuanceSuspended(reason);\n    }\n\n    function resumeIssuance() external {\n        _requireAccessToResume(SECTION_ISSUANCE);\n        issuanceSuspension.suspended = false;\n        emit IssuanceResumed(uint256(issuanceSuspension.reason));\n        issuanceSuspension.reason = 0;\n    }\n\n    function suspendExchange(uint256 reason) external {\n        _requireAccessToSuspend(SECTION_EXCHANGE);\n        exchangeSuspension.suspended = true;\n        exchangeSuspension.reason = uint248(reason);\n        emit ExchangeSuspended(reason);\n    }\n\n    function resumeExchange() external {\n        _requireAccessToResume(SECTION_EXCHANGE);\n        exchangeSuspension.suspended = false;\n        emit ExchangeResumed(uint256(exchangeSuspension.reason));\n        exchangeSuspension.reason = 0;\n    }\n\n    function suspendSynth(bytes32 currencyKey, uint256 reason) external {\n        _requireAccessToSuspend(SECTION_SYNTH);\n        synthSuspension[currencyKey].suspended = true;\n        synthSuspension[currencyKey].reason = uint248(reason);\n        emit SynthSuspended(currencyKey, reason);\n    }\n\n    function resumeSynth(bytes32 currencyKey) external {\n        _requireAccessToResume(SECTION_SYNTH);\n        emit SynthResumed(currencyKey, uint256(synthSuspension[currencyKey].reason));\n        delete synthSuspension[currencyKey];\n    }\n\n    /* ========== INTERNAL FUNCTIONS ========== */\n\n    function _requireAccessToSuspend(bytes32 section) internal view {\n        require(accessControl[section][msg.sender].canSuspend, \"Restricted to access control list\");\n    }\n\n    function _requireAccessToResume(bytes32 section) internal view {\n        require(accessControl[section][msg.sender].canResume, \"Restricted to access control list\");\n    }\n\n    function _internalRequireSystemActive() internal view {\n        require(\n            !systemSuspension.suspended,\n            systemSuspension.reason == SUSPENSION_REASON_UPGRADE\n                ? \"Synthetix is suspended, upgrade in progress... please stand by\"\n                : \"Synthetix is suspended. Operation prohibited\"\n        );\n    }\n\n    function _internalUpdateAccessControl(\n        bytes32 section,\n        address account,\n        bool canSuspend,\n        bool canResume\n    ) internal {\n        require(\n            section == SECTION_SYSTEM ||\n                section == SECTION_ISSUANCE ||\n                section == SECTION_EXCHANGE ||\n                section == SECTION_SYNTH,\n            \"Invalid section supplied\"\n        );\n        accessControl[section][account].canSuspend = canSuspend;\n        accessControl[section][account].canResume = canResume;\n        emit AccessControlUpdated(section, account, canSuspend, canResume);\n    }\n\n    /* ========== EVENTS ========== */\n\n    event SystemSuspended(uint256 reason);\n    event SystemResumed(uint256 reason);\n\n    event IssuanceSuspended(uint256 reason);\n    event IssuanceResumed(uint256 reason);\n\n    event ExchangeSuspended(uint256 reason);\n    event ExchangeResumed(uint256 reason);\n\n    event SynthSuspended(bytes32 currencyKey, uint256 reason);\n    event SynthResumed(bytes32 currencyKey, uint256 reason);\n\n    event AccessControlUpdated(bytes32 indexed section, address indexed account, bool canSuspend, bool canResume);\n}\n",
  "sourcePath": "/Users/qizhang/Development/truffle_test2/contracts/SystemStatus.sol",
  "compiler": {
    "name": "solc",
    "version": "0.5.16+commit.9c3226ce.Emscripten.clang"
  },
  "schemaVersion": "3.2.1",
  "updatedAt": "2020-07-05T03:58:13.117Z",
  "devdoc": {
    "methods": {}
  },
  "userdoc": {
    "methods": {}
  }
}